{
  "_format": "hh-sol-artifact-1",
  "contractName": "Governance",
  "sourceName": "contracts/Governance.sol",
  "abi": [
    {
      "inputs": [
        {
          "internalType": "address",
          "name": "_governanceToken",
          "type": "address"
        },
        {
          "internalType": "address",
          "name": "_insurancePool",
          "type": "address"
        },
        {
          "internalType": "uint256",
          "name": "_votingDuration",
          "type": "uint256"
        },
        {
          "internalType": "address",
          "name": "_initialOwner",
          "type": "address"
        }
      ],
      "stateMutability": "nonpayable",
      "type": "constructor"
    },
    {
      "inputs": [],
      "name": "CannotCreateProposalForThisCoverNow",
      "type": "error"
    },
    {
      "inputs": [
        {
          "internalType": "address",
          "name": "owner",
          "type": "address"
        }
      ],
      "name": "OwnableInvalidOwner",
      "type": "error"
    },
    {
      "inputs": [
        {
          "internalType": "address",
          "name": "account",
          "type": "address"
        }
      ],
      "name": "OwnableUnauthorizedAccount",
      "type": "error"
    },
    {
      "inputs": [],
      "name": "ReentrancyGuardReentrantCall",
      "type": "error"
    },
    {
      "inputs": [],
      "name": "VotingTimeElapsed",
      "type": "error"
    },
    {
      "anonymous": false,
      "inputs": [
        {
          "indexed": true,
          "internalType": "address",
          "name": "previousOwner",
          "type": "address"
        },
        {
          "indexed": true,
          "internalType": "address",
          "name": "newOwner",
          "type": "address"
        }
      ],
      "name": "OwnershipTransferStarted",
      "type": "event"
    },
    {
      "anonymous": false,
      "inputs": [
        {
          "indexed": true,
          "internalType": "address",
          "name": "previousOwner",
          "type": "address"
        },
        {
          "indexed": true,
          "internalType": "address",
          "name": "newOwner",
          "type": "address"
        }
      ],
      "name": "OwnershipTransferred",
      "type": "event"
    },
    {
      "anonymous": false,
      "inputs": [
        {
          "indexed": true,
          "internalType": "uint256",
          "name": "proposalId",
          "type": "uint256"
        },
        {
          "indexed": true,
          "internalType": "address",
          "name": "creator",
          "type": "address"
        },
        {
          "indexed": false,
          "internalType": "string",
          "name": "description",
          "type": "string"
        },
        {
          "indexed": false,
          "internalType": "enum CoverLib.RiskType",
          "name": "riskType",
          "type": "uint8"
        },
        {
          "indexed": false,
          "internalType": "uint256",
          "name": "claimAmount",
          "type": "uint256"
        },
        {
          "indexed": false,
          "internalType": "enum Governance.ProposalStaus",
          "name": "status",
          "type": "uint8"
        }
      ],
      "name": "ProposalCreated",
      "type": "event"
    },
    {
      "anonymous": false,
      "inputs": [
        {
          "indexed": true,
          "internalType": "uint256",
          "name": "proposalId",
          "type": "uint256"
        },
        {
          "indexed": false,
          "internalType": "bool",
          "name": "approved",
          "type": "bool"
        }
      ],
      "name": "ProposalExecuted",
      "type": "event"
    },
    {
      "anonymous": false,
      "inputs": [
        {
          "indexed": true,
          "internalType": "address",
          "name": "voter",
          "type": "address"
        },
        {
          "indexed": true,
          "internalType": "uint256",
          "name": "proposalId",
          "type": "uint256"
        },
        {
          "indexed": false,
          "internalType": "bool",
          "name": "vote",
          "type": "bool"
        },
        {
          "indexed": false,
          "internalType": "uint256",
          "name": "weight",
          "type": "uint256"
        }
      ],
      "name": "VoteCast",
      "type": "event"
    },
    {
      "inputs": [],
      "name": "ICoverContract",
      "outputs": [
        {
          "internalType": "contract ICover",
          "name": "",
          "type": "address"
        }
      ],
      "stateMutability": "view",
      "type": "function"
    },
    {
      "inputs": [],
      "name": "REWARD_AMOUNT",
      "outputs": [
        {
          "internalType": "uint256",
          "name": "",
          "type": "uint256"
        }
      ],
      "stateMutability": "view",
      "type": "function"
    },
    {
      "inputs": [],
      "name": "acceptOwnership",
      "outputs": [],
      "stateMutability": "nonpayable",
      "type": "function"
    },
    {
      "inputs": [
        {
          "internalType": "address",
          "name": "newAdmin",
          "type": "address"
        }
      ],
      "name": "addAdmin",
      "outputs": [],
      "stateMutability": "nonpayable",
      "type": "function"
    },
    {
      "inputs": [],
      "name": "coverContract",
      "outputs": [
        {
          "internalType": "address",
          "name": "",
          "type": "address"
        }
      ],
      "stateMutability": "view",
      "type": "function"
    },
    {
      "inputs": [
        {
          "components": [
            {
              "internalType": "address",
              "name": "user",
              "type": "address"
            },
            {
              "internalType": "enum CoverLib.RiskType",
              "name": "riskType",
              "type": "uint8"
            },
            {
              "internalType": "uint256",
              "name": "coverId",
              "type": "uint256"
            },
            {
              "internalType": "string",
              "name": "txHash",
              "type": "string"
            },
            {
              "internalType": "string",
              "name": "description",
              "type": "string"
            },
            {
              "internalType": "uint256",
              "name": "poolId",
              "type": "uint256"
            },
            {
              "internalType": "uint256",
              "name": "claimAmount",
              "type": "uint256"
            },
            {
              "internalType": "enum CoverLib.AssetDepositType",
              "name": "adt",
              "type": "uint8"
            },
            {
              "internalType": "address",
              "name": "asset",
              "type": "address"
            }
          ],
          "internalType": "struct Governance.ProposalParams",
          "name": "params",
          "type": "tuple"
        }
      ],
      "name": "createProposal",
      "outputs": [],
      "stateMutability": "nonpayable",
      "type": "function"
    },
    {
      "inputs": [],
      "name": "executeProposal",
      "outputs": [],
      "stateMutability": "nonpayable",
      "type": "function"
    },
    {
      "inputs": [],
      "name": "getActiveProposals",
      "outputs": [
        {
          "components": [
            {
              "internalType": "uint256",
              "name": "id",
              "type": "uint256"
            },
            {
              "internalType": "uint256",
              "name": "votesFor",
              "type": "uint256"
            },
            {
              "internalType": "uint256",
              "name": "votesAgainst",
              "type": "uint256"
            },
            {
              "internalType": "uint256",
              "name": "createdAt",
              "type": "uint256"
            },
            {
              "internalType": "uint256",
              "name": "deadline",
              "type": "uint256"
            },
            {
              "internalType": "uint256",
              "name": "timeleft",
              "type": "uint256"
            },
            {
              "internalType": "enum Governance.ProposalStaus",
              "name": "status",
              "type": "uint8"
            },
            {
              "internalType": "bool",
              "name": "executed",
              "type": "bool"
            },
            {
              "components": [
                {
                  "internalType": "address",
                  "name": "user",
                  "type": "address"
                },
                {
                  "internalType": "enum CoverLib.RiskType",
                  "name": "riskType",
                  "type": "uint8"
                },
                {
                  "internalType": "uint256",
                  "name": "coverId",
                  "type": "uint256"
                },
                {
                  "internalType": "string",
                  "name": "txHash",
                  "type": "string"
                },
                {
                  "internalType": "string",
                  "name": "description",
                  "type": "string"
                },
                {
                  "internalType": "uint256",
                  "name": "poolId",
                  "type": "uint256"
                },
                {
                  "internalType": "uint256",
                  "name": "claimAmount",
                  "type": "uint256"
                },
                {
                  "internalType": "enum CoverLib.AssetDepositType",
                  "name": "adt",
                  "type": "uint8"
                },
                {
                  "internalType": "address",
                  "name": "asset",
                  "type": "address"
                }
              ],
              "internalType": "struct Governance.ProposalParams",
              "name": "proposalParam",
              "type": "tuple"
            }
          ],
          "internalType": "struct Governance.Proposal[]",
          "name": "",
          "type": "tuple[]"
        }
      ],
      "stateMutability": "view",
      "type": "function"
    },
    {
      "inputs": [],
      "name": "getAllParticipants",
      "outputs": [
        {
          "internalType": "address[]",
          "name": "",
          "type": "address[]"
        }
      ],
      "stateMutability": "view",
      "type": "function"
    },
    {
      "inputs": [],
      "name": "getAllProposals",
      "outputs": [
        {
          "components": [
            {
              "internalType": "uint256",
              "name": "id",
              "type": "uint256"
            },
            {
              "internalType": "uint256",
              "name": "votesFor",
              "type": "uint256"
            },
            {
              "internalType": "uint256",
              "name": "votesAgainst",
              "type": "uint256"
            },
            {
              "internalType": "uint256",
              "name": "createdAt",
              "type": "uint256"
            },
            {
              "internalType": "uint256",
              "name": "deadline",
              "type": "uint256"
            },
            {
              "internalType": "uint256",
              "name": "timeleft",
              "type": "uint256"
            },
            {
              "internalType": "enum Governance.ProposalStaus",
              "name": "status",
              "type": "uint8"
            },
            {
              "internalType": "bool",
              "name": "executed",
              "type": "bool"
            },
            {
              "components": [
                {
                  "internalType": "address",
                  "name": "user",
                  "type": "address"
                },
                {
                  "internalType": "enum CoverLib.RiskType",
                  "name": "riskType",
                  "type": "uint8"
                },
                {
                  "internalType": "uint256",
                  "name": "coverId",
                  "type": "uint256"
                },
                {
                  "internalType": "string",
                  "name": "txHash",
                  "type": "string"
                },
                {
                  "internalType": "string",
                  "name": "description",
                  "type": "string"
                },
                {
                  "internalType": "uint256",
                  "name": "poolId",
                  "type": "uint256"
                },
                {
                  "internalType": "uint256",
                  "name": "claimAmount",
                  "type": "uint256"
                },
                {
                  "internalType": "enum CoverLib.AssetDepositType",
                  "name": "adt",
                  "type": "uint8"
                },
                {
                  "internalType": "address",
                  "name": "asset",
                  "type": "address"
                }
              ],
              "internalType": "struct Governance.ProposalParams",
              "name": "proposalParam",
              "type": "tuple"
            }
          ],
          "internalType": "struct Governance.Proposal[]",
          "name": "",
          "type": "tuple[]"
        }
      ],
      "stateMutability": "view",
      "type": "function"
    },
    {
      "inputs": [],
      "name": "getPastProposals",
      "outputs": [
        {
          "components": [
            {
              "internalType": "uint256",
              "name": "id",
              "type": "uint256"
            },
            {
              "internalType": "uint256",
              "name": "votesFor",
              "type": "uint256"
            },
            {
              "internalType": "uint256",
              "name": "votesAgainst",
              "type": "uint256"
            },
            {
              "internalType": "uint256",
              "name": "createdAt",
              "type": "uint256"
            },
            {
              "internalType": "uint256",
              "name": "deadline",
              "type": "uint256"
            },
            {
              "internalType": "uint256",
              "name": "timeleft",
              "type": "uint256"
            },
            {
              "internalType": "enum Governance.ProposalStaus",
              "name": "status",
              "type": "uint8"
            },
            {
              "internalType": "bool",
              "name": "executed",
              "type": "bool"
            },
            {
              "components": [
                {
                  "internalType": "address",
                  "name": "user",
                  "type": "address"
                },
                {
                  "internalType": "enum CoverLib.RiskType",
                  "name": "riskType",
                  "type": "uint8"
                },
                {
                  "internalType": "uint256",
                  "name": "coverId",
                  "type": "uint256"
                },
                {
                  "internalType": "string",
                  "name": "txHash",
                  "type": "string"
                },
                {
                  "internalType": "string",
                  "name": "description",
                  "type": "string"
                },
                {
                  "internalType": "uint256",
                  "name": "poolId",
                  "type": "uint256"
                },
                {
                  "internalType": "uint256",
                  "name": "claimAmount",
                  "type": "uint256"
                },
                {
                  "internalType": "enum CoverLib.AssetDepositType",
                  "name": "adt",
                  "type": "uint8"
                },
                {
                  "internalType": "address",
                  "name": "asset",
                  "type": "address"
                }
              ],
              "internalType": "struct Governance.ProposalParams",
              "name": "proposalParam",
              "type": "tuple"
            }
          ],
          "internalType": "struct Governance.Proposal[]",
          "name": "",
          "type": "tuple[]"
        }
      ],
      "stateMutability": "view",
      "type": "function"
    },
    {
      "inputs": [],
      "name": "getProposalCount",
      "outputs": [
        {
          "internalType": "uint256",
          "name": "",
          "type": "uint256"
        }
      ],
      "stateMutability": "view",
      "type": "function"
    },
    {
      "inputs": [
        {
          "internalType": "uint256",
          "name": "_proposalId",
          "type": "uint256"
        }
      ],
      "name": "getProposalDetails",
      "outputs": [
        {
          "components": [
            {
              "internalType": "uint256",
              "name": "id",
              "type": "uint256"
            },
            {
              "internalType": "uint256",
              "name": "votesFor",
              "type": "uint256"
            },
            {
              "internalType": "uint256",
              "name": "votesAgainst",
              "type": "uint256"
            },
            {
              "internalType": "uint256",
              "name": "createdAt",
              "type": "uint256"
            },
            {
              "internalType": "uint256",
              "name": "deadline",
              "type": "uint256"
            },
            {
              "internalType": "uint256",
              "name": "timeleft",
              "type": "uint256"
            },
            {
              "internalType": "enum Governance.ProposalStaus",
              "name": "status",
              "type": "uint8"
            },
            {
              "internalType": "bool",
              "name": "executed",
              "type": "bool"
            },
            {
              "components": [
                {
                  "internalType": "address",
                  "name": "user",
                  "type": "address"
                },
                {
                  "internalType": "enum CoverLib.RiskType",
                  "name": "riskType",
                  "type": "uint8"
                },
                {
                  "internalType": "uint256",
                  "name": "coverId",
                  "type": "uint256"
                },
                {
                  "internalType": "string",
                  "name": "txHash",
                  "type": "string"
                },
                {
                  "internalType": "string",
                  "name": "description",
                  "type": "string"
                },
                {
                  "internalType": "uint256",
                  "name": "poolId",
                  "type": "uint256"
                },
                {
                  "internalType": "uint256",
                  "name": "claimAmount",
                  "type": "uint256"
                },
                {
                  "internalType": "enum CoverLib.AssetDepositType",
                  "name": "adt",
                  "type": "uint8"
                },
                {
                  "internalType": "address",
                  "name": "asset",
                  "type": "address"
                }
              ],
              "internalType": "struct Governance.ProposalParams",
              "name": "proposalParam",
              "type": "tuple"
            }
          ],
          "internalType": "struct Governance.Proposal",
          "name": "",
          "type": "tuple"
        }
      ],
      "stateMutability": "nonpayable",
      "type": "function"
    },
    {
      "inputs": [
        {
          "internalType": "address",
          "name": "user",
          "type": "address"
        }
      ],
      "name": "getUserParticipation",
      "outputs": [
        {
          "internalType": "uint256",
          "name": "",
          "type": "uint256"
        }
      ],
      "stateMutability": "view",
      "type": "function"
    },
    {
      "inputs": [],
      "name": "governanceToken",
      "outputs": [
        {
          "internalType": "contract IERC20",
          "name": "",
          "type": "address"
        }
      ],
      "stateMutability": "view",
      "type": "function"
    },
    {
      "inputs": [
        {
          "internalType": "address",
          "name": "",
          "type": "address"
        }
      ],
      "name": "isAdmin",
      "outputs": [
        {
          "internalType": "bool",
          "name": "",
          "type": "bool"
        }
      ],
      "stateMutability": "view",
      "type": "function"
    },
    {
      "inputs": [],
      "name": "lpContract",
      "outputs": [
        {
          "internalType": "contract ILP",
          "name": "",
          "type": "address"
        }
      ],
      "stateMutability": "view",
      "type": "function"
    },
    {
      "inputs": [],
      "name": "owner",
      "outputs": [
        {
          "internalType": "address",
          "name": "",
          "type": "address"
        }
      ],
      "stateMutability": "view",
      "type": "function"
    },
    {
      "inputs": [
        {
          "internalType": "uint256",
          "name": "",
          "type": "uint256"
        }
      ],
      "name": "participants",
      "outputs": [
        {
          "internalType": "address",
          "name": "",
          "type": "address"
        }
      ],
      "stateMutability": "view",
      "type": "function"
    },
    {
      "inputs": [
        {
          "internalType": "address",
          "name": "",
          "type": "address"
        }
      ],
      "name": "participation",
      "outputs": [
        {
          "internalType": "uint256",
          "name": "",
          "type": "uint256"
        }
      ],
      "stateMutability": "view",
      "type": "function"
    },
    {
      "inputs": [],
      "name": "pendingOwner",
      "outputs": [
        {
          "internalType": "address",
          "name": "",
          "type": "address"
        }
      ],
      "stateMutability": "view",
      "type": "function"
    },
    {
      "inputs": [],
      "name": "poolContract",
      "outputs": [
        {
          "internalType": "address",
          "name": "",
          "type": "address"
        }
      ],
      "stateMutability": "view",
      "type": "function"
    },
    {
      "inputs": [],
      "name": "proposalCounter",
      "outputs": [
        {
          "internalType": "uint256",
          "name": "",
          "type": "uint256"
        }
      ],
      "stateMutability": "view",
      "type": "function"
    },
    {
      "inputs": [
        {
          "internalType": "uint256",
          "name": "",
          "type": "uint256"
        }
      ],
      "name": "proposalIds",
      "outputs": [
        {
          "internalType": "uint256",
          "name": "",
          "type": "uint256"
        }
      ],
      "stateMutability": "view",
      "type": "function"
    },
    {
      "inputs": [
        {
          "internalType": "uint256",
          "name": "",
          "type": "uint256"
        }
      ],
      "name": "proposals",
      "outputs": [
        {
          "internalType": "uint256",
          "name": "id",
          "type": "uint256"
        },
        {
          "internalType": "uint256",
          "name": "votesFor",
          "type": "uint256"
        },
        {
          "internalType": "uint256",
          "name": "votesAgainst",
          "type": "uint256"
        },
        {
          "internalType": "uint256",
          "name": "createdAt",
          "type": "uint256"
        },
        {
          "internalType": "uint256",
          "name": "deadline",
          "type": "uint256"
        },
        {
          "internalType": "uint256",
          "name": "timeleft",
          "type": "uint256"
        },
        {
          "internalType": "enum Governance.ProposalStaus",
          "name": "status",
          "type": "uint8"
        },
        {
          "internalType": "bool",
          "name": "executed",
          "type": "bool"
        },
        {
          "components": [
            {
              "internalType": "address",
              "name": "user",
              "type": "address"
            },
            {
              "internalType": "enum CoverLib.RiskType",
              "name": "riskType",
              "type": "uint8"
            },
            {
              "internalType": "uint256",
              "name": "coverId",
              "type": "uint256"
            },
            {
              "internalType": "string",
              "name": "txHash",
              "type": "string"
            },
            {
              "internalType": "string",
              "name": "description",
              "type": "string"
            },
            {
              "internalType": "uint256",
              "name": "poolId",
              "type": "uint256"
            },
            {
              "internalType": "uint256",
              "name": "claimAmount",
              "type": "uint256"
            },
            {
              "internalType": "enum CoverLib.AssetDepositType",
              "name": "adt",
              "type": "uint8"
            },
            {
              "internalType": "address",
              "name": "asset",
              "type": "address"
            }
          ],
          "internalType": "struct Governance.ProposalParams",
          "name": "proposalParam",
          "type": "tuple"
        }
      ],
      "stateMutability": "view",
      "type": "function"
    },
    {
      "inputs": [],
      "name": "renounceOwnership",
      "outputs": [],
      "stateMutability": "nonpayable",
      "type": "function"
    },
    {
      "inputs": [
        {
          "internalType": "address",
          "name": "newOwner",
          "type": "address"
        }
      ],
      "name": "safeTransferOwnership",
      "outputs": [],
      "stateMutability": "nonpayable",
      "type": "function"
    },
    {
      "inputs": [
        {
          "internalType": "address",
          "name": "_coverContract",
          "type": "address"
        }
      ],
      "name": "setCoverContract",
      "outputs": [],
      "stateMutability": "nonpayable",
      "type": "function"
    },
    {
      "inputs": [
        {
          "internalType": "uint256",
          "name": "_newDuration",
          "type": "uint256"
        }
      ],
      "name": "setVotingDuration",
      "outputs": [],
      "stateMutability": "nonpayable",
      "type": "function"
    },
    {
      "inputs": [],
      "name": "tokenContract",
      "outputs": [
        {
          "internalType": "contract IGovToken",
          "name": "",
          "type": "address"
        }
      ],
      "stateMutability": "view",
      "type": "function"
    },
    {
      "inputs": [
        {
          "internalType": "address",
          "name": "newOwner",
          "type": "address"
        }
      ],
      "name": "transferOwnership",
      "outputs": [],
      "stateMutability": "nonpayable",
      "type": "function"
    },
    {
      "inputs": [
        {
          "internalType": "uint256",
          "name": "proposalId",
          "type": "uint256"
        }
      ],
      "name": "updateProposalStatusToClaimed",
      "outputs": [],
      "stateMutability": "nonpayable",
      "type": "function"
    },
    {
      "inputs": [
        {
          "internalType": "uint256",
          "name": "numberofTokens",
          "type": "uint256"
        }
      ],
      "name": "updateRewardAmount",
      "outputs": [],
      "stateMutability": "nonpayable",
      "type": "function"
    },
    {
      "inputs": [
        {
          "internalType": "uint256",
          "name": "_proposalId",
          "type": "uint256"
        },
        {
          "internalType": "bool",
          "name": "_vote",
          "type": "bool"
        }
      ],
      "name": "vote",
      "outputs": [],
      "stateMutability": "nonpayable",
      "type": "function"
    },
    {
      "inputs": [
        {
          "internalType": "uint256",
          "name": "",
          "type": "uint256"
        },
        {
          "internalType": "address",
          "name": "",
          "type": "address"
        }
      ],
      "name": "voters",
      "outputs": [
        {
          "internalType": "bool",
          "name": "voted",
          "type": "bool"
        },
        {
          "internalType": "bool",
          "name": "vote",
          "type": "bool"
        },
        {
          "internalType": "uint256",
          "name": "weight",
          "type": "uint256"
        }
      ],
      "stateMutability": "view",
      "type": "function"
    },
    {
      "inputs": [],
      "name": "votingDuration",
      "outputs": [
        {
          "internalType": "uint256",
          "name": "",
          "type": "uint256"
        }
      ],
      "stateMutability": "view",
      "type": "function"
    }
  ],
  "bytecode": "0x60803461022257601f612ca638819003918201601f19168301916001600160401b0383118484101761022757808492608094604052833981010312610222576100478161023d565b906100546020820161023d565b61006560606040840151930161023d565b60016000556001600160a01b031692831561020c57600280546001600160a01b0319908116909155600180549182168617905560405194906001600160a01b03167f8be0079c531659141344cd1fd0a4f28419497f9722a3daafe3b4186f6b6457e0600080a368056bc75e2d63100000600555600e80546001600160a01b039283166001600160a01b03199182168117909255601080548216909217909155600f80549390921692811683179091556013805490911690911790556201518081810291808304909114901517156101f657600455336000908152600d602052604081208054600160ff1991821681179092557f295109d528ed0e6219f4bcd0ae127342f1bab4380d4ffa2a031f7489a7bbfa0780548216831790557f0a22f354c695fc0d67e282d9bdcf3f1df1bd23049e7d1b12a81f0dd498516b9d8054821683179055738664a9eb1fe83aa5a5a68dac04d03bcd3215cb4b9092527fadd149fa3d092a92122647f27157f23eae517881665474f31dc55cddb9b183348054909216179055612a5490816102528239f35b634e487b7160e01b600052601160045260246000fd5b631e4fbdf760e01b600052600060045260246000fd5b600080fd5b634e487b7160e01b600052604160045260246000fd5b51906001600160a01b03821682036102225756fe6080604052600436101561001257600080fd5b60003560e01c8063013cf08b146122c55780630c0512e914610bbc578063132002fc146122a757806315c2ba1414612252578063195ec9ee14612186578063248a75b71461215d57806324d7806c1461211e57806335c1d349146120dc578063373058b814611d04578063395db2cd14611c365780633b4d01a714611b7a57806346f8479514610c825780635584c4f91461193d57806355a373d6146119145780635bcfadb51461189957806369f78da614610e7f5780637048027514610e28578063715018a614610dc157806379ba509714610d3757806388d52ef714610d0e5780638acee3cf14610ce55780638da5cb5b14610cbc57806396f3a8ad14610c825780639b644a2314610c4a5780639e31906314610bda578063c08cc02d14610bbc578063c9d27afe1461079a578063cceb68f51461066d578063cf8494421461064f578063d4bdf0231461043c578063e30c397814610413578063ee5424ab14610327578063f1b4bf9d1461026c578063f2fde38b146101ff578063f6e80558146101d65763f96dae0a146101a857600080fd5b346101d15760003660031901126101d157600e546040516001600160a01b039091168152602090f35b600080fd5b346101d15760003660031901126101d1576011546040516001600160a01b039091168152602090f35b346101d15760203660031901126101d15761021861262c565b610220612a0a565b600280546001600160a01b0319166001600160a01b039283169081179091556001549091167f38d16b8cac22d99fc7c124b9cd0de2d3fa1faef420bfe791d8c362d765e22700600080a3005b346101d15760203660031901126101d1576004356102886129e8565b80600052600660205260018060a01b036007604060002001541633148015610313575b156102d55760005260066020526006604060002001600360ff198254161790556001600055600080f35b60405162461bcd60e51b81526020600482015260166024820152752737ba103a3432903b30b634b210383937b837b9b2b960511b6044820152606490fd5b506013546001600160a01b031633146102ab565b346101d15760203660031901126101d15761034061262c565b610348612a0a565b601254906001600160a01b0382166103d5576001600160a01b031690811561038657601180546001600160a01b031990811684179091551617601255005b60405162461bcd60e51b815260206004820152602160248201527f476f7665726e616e636520616464726573732063616e6e6f74206265207a65726044820152606f60f81b6064820152608490fd5b60405162461bcd60e51b815260206004820152601660248201527511dbdd995c9b985b98d948185b1c9958591e481cd95d60521b6044820152606490fd5b346101d15760003660031901126101d1576002546040516001600160a01b039091168152602090f35b346101d15760003660031901126101d1576008546000805b8281106105d0575061046590612912565b600091825b818110610483576040518061047f858261272d565b0390f35b61048c81612687565b90549060031b1c600052600660205260ff6006604060002001541660058110156105ba57151580610591575b6104c5575b60010161046a565b926105896001916104d586612687565b90549060031b1c600052600660205260406000206105576007604051926104fb846123a4565b80548452868101546020850152600281015460408501526003810154606085015260048101546080850152600581015460a085015260ff600682015461054682821660c088016128df565b60081c16151560e085015201612487565b610100820152610567828761282d565b52610572818661282d565b50600060a0610581838861282d565b5101526128eb565b9390506104bd565b5061059b81612687565b90549060031b1c600052600660205260046040600020015442116104b8565b634e487b7160e01b600052602160045260246000fd5b6105d981612687565b90549060031b1c600052600660205260ff6006604060002001541660058110156105ba57151580610626575b610612575b600101610454565b9061061e6001916128eb565b91905061060a565b5061063081612687565b90549060031b1c60005260066020526004604060002001544211610605565b346101d15760003660031901126101d1576020600554604051908152f35b346101d15760003660031901126101d15760085461068a81612912565b9060005b8181106106a3576040518061047f858261272d565b806106af600192612687565b90549060031b1c600052600660205260406000206107206007604051926106d5846123a4565b80548452858101546020850152600281015460408501526003810154606085015260048101546080850152600581015460a085015260ff600682015461054682821660c088016128df565b610100820152610730828661282d565b5261073b818561282d565b506080610748828661282d565b510151421061076957600060a061075f838761282d565b5101525b0161068e565b6201518061078542608061077d858961282d565b5101516128d2565b0460a0610792838761282d565b510152610763565b346101d15760403660031901126101d157600435602435801515908181036101d157600083815260076020908152604080832033845290915290205460ff16610b87578260005260066020526040600020600381015415610b425760078101546001600160a01b03163314610af2576006810160ff81541660058110156105ba57610acc5791602492600160ff198254161790556201518061084e610841600454426129db565b80600486015542906128d2565b0460058301555b62015180610868600484015442906128d2565b046005830155600e546040516370a0823160e01b81523360048201529360209185919082906001600160a01b03165afa928315610ac057600093610a89575b508215610a51576040516060810181811067ffffffffffffffff821117610a3b5760409081526001808352602080840188815284840188815260008b8152600784528581203382529093529390912093518454915161ffff1990921660ff911515919091161790151560081b61ff0016178355905191015515610a0e5760019084600052600960205261093e3360406000206129b8565b0161094a8282546129db565b90555b600080600b54905b8181106109d9575b5050156109cb575b33600052600c6020526040600020805490600182018092116109b5575560405191825260208201527f877856338e13f63d0c36822ff0ef736b80934cd90574a3a5bc9262c39d217c4660403392a3005b634e487b7160e01b600052601160045260246000fd5b6109d43361296f565b610965565b6109e281612656565b905460039190911b1c6001600160a01b03163314610a0257600101610955565b5050506001848061095d565b60029084600052600a602052610a283360406000206129b8565b01610a348282546129db565b905561094d565b634e487b7160e01b600052604160045260246000fd5b60405162461bcd60e51b815260206004820152601060248201526f139bc81d9bdd1a5b99c81dd95a59da1d60821b6044820152606490fd5b90926020823d602011610ab8575b81610aa4602093836123c1565b81010312610ab557505191856108a7565b80fd5b3d9150610a97565b6040513d6000823e3d90fd5b506004810154421015610ae157602491610855565b6316440a5160e01b60005260046000fd5b60405162461bcd60e51b815260206004820152602260248201527f596f752063616e7420766f7465206f6e20796f7572206f776e2070726f706f73604482015261185b60f21b6064820152608490fd5b60405162461bcd60e51b815260206004820152601760248201527f50726f706f73616c20646f6573206e6f742065786973740000000000000000006044820152606490fd5b60405162461bcd60e51b815260206004820152600d60248201526c105b1c9958591e481d9bdd1959609a1b6044820152606490fd5b346101d15760003660031901126101d1576020600354604051908152f35b346101d15760403660031901126101d1576024356001600160a01b03811681036101d157600435600052600760205260406000209060018060a01b0316600052602052606060406000206001815491015460ff604051928181161515845260081c16151560208301526040820152f35b346101d15760203660031901126101d1576004356008548110156101d157610c73602091612687565b90549060031b1c604051908152f35b346101d15760203660031901126101d1576001600160a01b03610ca361262c565b16600052600c6020526020604060002054604051908152f35b346101d15760003660031901126101d1576001546040516001600160a01b039091168152602090f35b346101d15760003660031901126101d157600f546040516001600160a01b039091168152602090f35b346101d15760003660031901126101d1576013546040516001600160a01b039091168152602090f35b346101d15760003660031901126101d157600254336001600160a01b0390911603610dac57600280546001600160a01b0319908116909155600180543392811683179091556001600160a01b03167f8be0079c531659141344cd1fd0a4f28419497f9722a3daafe3b4186f6b6457e0600080a3005b63118cdaa760e01b6000523360045260246000fd5b346101d15760003660031901126101d157610dda612a0a565b600280546001600160a01b03199081169091556001805491821690556000906001600160a01b03167f8be0079c531659141344cd1fd0a4f28419497f9722a3daafe3b4186f6b6457e08280a3005b346101d15760203660031901126101d157610e4161262c565b33600052600d602052610e5b60ff604060002054166127f0565b6001600160a01b03166000908152600d60205260409020805460ff19166001179055005b346101d15760203660031901126101d15760043567ffffffffffffffff81116101d15761012060031982360301126101d15760405190610ebe826123a4565b610eca81600401612642565b825260248101359160038310156101d15760208101928352604081019260448301358452606483013567ffffffffffffffff81116101d157610f1290600436918601016127a9565b6060830152608483013567ffffffffffffffff81116101d157610f3b90600436918601016127a9565b926080830193845260a0830160a4820135815260c084019160c4810135835260e481013560028110156101d15760e0860152610f7a9061010401612642565b6101008501526011548451875160405163cadcb47160e01b81526001600160a01b03928316600482015260248101919091529160009183916044918391165afa908115610ac057600091611772575b50608083519101511061172157602060018060a01b03600f541691516024604051809481936325f11e8d60e01b835260048301525afa908115610ac0576000916116e7575b50156116ac5780511561165b576110266003546128eb565b948560035560015b86811061156557505060405194611044866123a4565b80865260208601956000875260408101966000885260608201428152608083016000815260a08401916000835260c085019a60008c5260e0860194600086526101008701978b895260005260066020526040600020965187555160018701555160028601555160038501555160048401555160058301556006820197519760058910156105ba578054915161ffff1990921660ff9099169890981790151560081b61ff0016179096556000956007810191519160018060a01b038351166bffffffffffffffffffffffff60a01b8254161781556020830151600381101561155157815460ff60a01b191660a09190911b60ff60a01b161790556040820151600882015560608201518051600983019167ffffffffffffffff821161147f57819061116e845461236a565b601f8111611501575b50602090601f831160011461149e578b92611493575b50508160011b916000199060031b1c19161790555b600a8101608083015180519067ffffffffffffffff821161147f576111c7835461236a565b601f811161143a575b50602090601f83116001146113d357600d949392918b91836113c8575b50508160011b916000199060031b1c19161790555b60a0830151600b82015560c0830151600c820155019060e08101519060028210156113b45760ff83549161010080600160a81b0391015160081b169216906affffffffffffffffffffff60a81b1617179055600354600854600160401b8110156113a0578060016112769201600855612687565b819291549060031b91821b91600019901b19161790558485600b54905b81811061136b575b50501561135d575b338552600c602052604085208054906001820180921161134957556003549260018060a01b03905116935191519060038210156113355791611319917f46b0c19f3bb130a0d6b56daca2a88a6b26094fb630786130084dc69e996922959351611324604051948594608086526080860190612569565b926020850190612539565b60408301528660608301520390a380f35b634e487b7160e01b86526021600452602486fd5b634e487b7160e01b87526011600452602487fd5b6113663361296f565b6112a3565b61137481612656565b905460039190911b1c6001600160a01b0316331461139457600101611293565b5050506001868061129b565b634e487b7160e01b87526041600452602487fd5b634e487b7160e01b88526021600452602488fd5b015190508b806111ed565b838b52818b209190601f1984168c5b8181106114225750916001939185600d9897969410611409575b505050811b019055611202565b015160001960f88460031b161c191690558b80806113fc565b929360206001819287860151815501950193016113e2565b838b5260208b20601f840160051c81019160208510611475575b601f0160051c01905b81811061146a57506111d0565b8b815560010161145d565b9091508190611454565b634e487b7160e01b8a52604160045260248afd5b015190508a8061118d565b848c52818c209250601f1984168c5b8181106114e957509084600195949392106114d0575b505050811b0190556111a2565b015160001960f88460031b161c191690558a80806114c3565b929360206001819287860151815501950193016114ad565b909150838b5260208b20601f840160051c81019160208510611547575b90601f859493920160051c01905b8181106115395750611177565b8c815584935060010161152c565b909150819061151e565b634e487b7160e01b89526021600452602489fd5b8060005260066020526101006040600020604051611582816123a4565b8154815260018201546020820152600282015460408201526003820154606082015260048201546080820152600582015460a08201526115d6600760068401549360ff60c0850195610546828216886128df565b9201829052815187516001600160a01b03908116911614918261164c575b5081611635575b8161161f575b5061160e5760010161102e565b630e4f1cf560e21b60005260046000fd5b90505160058110156105ba576004141588611601565b8091505160058110156105ba5760031415906115fb565b604001518451149150896115f4565b60405162461bcd60e51b815260206004820152602360248201527f436c61696d20616d6f756e74206d75737420626520677265617465722074686160448201526206e20360ec1b6064820152608490fd5b60405162461bcd60e51b8152602060048201526013602482015272141bdbdb08191bd95cc81b9bdd08195e1a5cdd606a1b6044820152606490fd5b90506020813d602011611719575b81611702602093836123c1565b810103126101d15761171390612962565b8661100e565b3d91506116f5565b60405162461bcd60e51b8152602060048201526024808201527f4e6f742073756666696369656e7420636f7665722076616c756520666f7220636044820152636c61696d60e01b6064820152608490fd5b3d8083833e61178181836123c1565b8101906020818303126118915780519067ffffffffffffffff82116118955701906101208282031261189157604051926117ba846123a4565b82516001600160a01b038116810361188d578452602083015160208501526040830151600381101561188d576040850152606083015167ffffffffffffffff811161188d57830182601f8201121561188d578051916118188361278d565b9361182660405195866123c1565b83855260208484010111610ab557509161184e61188194926101009460208085019101612546565b60608501526080810151608085015260a081015160a085015260c081015160c085015260e081015160e085015201612962565b61010082015287610fc9565b5080fd5b8280fd5b8380fd5b346101d15760203660031901126101d1576004356118b5612a0a565b80156118c057600455005b60405162461bcd60e51b815260206004820152602660248201527f566f74696e67206475726174696f6e206d75737420626520677265617465722060448201526507468616e20360d41b6064820152608490fd5b346101d15760003660031901126101d1576010546040516001600160a01b039091168152602090f35b346101d15760003660031901126101d1576008546000805b828110611b07575061196690612912565b906000805b828110611980576040518061047f868261272d565b61198981612687565b90549060031b1c6000526006602052600460406000200154158015611add575b6119b6575b60010161196b565b906119c082612687565b90549060031b1c60005260066020526040600020611a326007604051926119e6846123a4565b8054845260018101546020850152600281015460408501526003810154606085015260048101546080850152600581015460a085015260ff600682015461054682821660c088016128df565b610100820152611a42828661282d565b52611a4d818561282d565b506080611a5a828661282d565b51015142148015611aa9575b600191611a809115611a8857600060a0610581838961282d565b9190506119ae565b62015180611a9c42608061077d858b61282d565b0460a0610581838961282d565b50611ab382612687565b90549060031b1c600052600660205260ff6006604060002001541660058110156105ba5715611a66565b50611ae781612687565b90549060031b1c60005260066020526004604060002001544211156119a9565b611b1081612687565b90549060031b1c6000526006602052600460406000200154158015611b51575b611b3d575b600101611955565b90611b496001916128eb565b919050611b35565b50611b5b81612687565b90549060031b1c60005260066020526004604060002001544210611b30565b346101d15760203660031901126101d157600435611b96612841565b506000818152600660205260409020600401544210611bff57806000526006602052600060056040822001555b600052600660205261047f6040600020611be56007604051926119e6846123a4565b6101008201526040519182916020835260208301906126ba565b80600052600660205262015180611c1e426004604060002001546128d2565b04816000526006602052600560406000200155611bc3565b346101d15760203660031901126101d157611c4f61262c565b611c57612a0a565b6001600160a01b03168015611cb357611c6e612a0a565b600280546001600160a01b031916821790556001546001600160a01b03167f38d16b8cac22d99fc7c124b9cd0de2d3fa1faef420bfe791d8c362d765e22700600080a3005b60405162461bcd60e51b8152602060048201526024808201527f4e6577206f776e65722063616e6e6f7420626520746865207a65726f206164646044820152637265737360e01b6064820152608490fd5b346101d15760003660031901126101d15733600052600d602052611d2f60ff604060002054166127f0565b611d376129e8565b60005b6008548110156120d557611d4d81612687565b90549060031b1c90816000526006602052604060002060068101805460ff811660058110156105ba57600114806120c8575b806120ba575b611d97575b5050506001915001611d3a565b61ff00191661010017905560006005820155600181015460028201549192911015611f74578260005260066020526006604060002001600260ff198254161790558260005260096020526040600020916040518084602082965493848152019060005260206000209260005b818110611f52575050611e18925003846123c1565b60115460078201546008830154600c90930154926001600160a01b0391821692909116803b156101d157600092836064926040519687958694637ceb4a6960e01b86526004860152602485015260448401525af18015610ac057611f41575b5060005b8251811015611f08576001600160a01b03611e96828561282d565b51169060018060a01b036010541691600554833b156101d1576040516340c10f1960e01b81526001600160a01b039290921660048301526024820152916000908390604490829084905af1918215610ac057600192611ef7575b5001611e7b565b6000611f02916123c1565b85611ef0565b5090506001917f948f4a9cd986f1118c3fbd459f7a22b23c0693e1ca3ef06a6a8be5aa7d39cc036020604051858152a25b828080611d8a565b6000611f4c916123c1565b83611e77565b84546001600160a01b0316835260019485019488945060209093019201611e03565b905081600052600a6020526040600020906040518083602082955493848152019060005260206000209260005b818110612098575050611fb6925003836123c1565b8260005260066020526006604060002001600460ff1982541617905560005b8251811015612062576001600160a01b03611ff0828561282d565b51169060018060a01b036010541691600554833b156101d1576040516340c10f1960e01b81526001600160a01b039290921660048301526024820152916000908390604490829084905af1918215610ac057600192612051575b5001611fd5565b600061205c916123c1565b8561204a565b5090506001917f948f4a9cd986f1118c3fbd459f7a22b23c0693e1ca3ef06a6a8be5aa7d39cc03602060405160008152a2611f39565b84546001600160a01b0316835260019485019487945060209093019201611fa1565b5060ff8160081c1615611d85565b5060048301544211611d7f565b6001600055005b346101d15760203660031901126101d157600435600b548110156101d157612105602091612656565b905460405160039290921b1c6001600160a01b03168152f35b346101d15760203660031901126101d1576001600160a01b0361213f61262c565b16600052600d602052602060ff604060002054166040519015158152f35b346101d15760003660031901126101d1576012546040516001600160a01b039091168152602090f35b346101d15760003660031901126101d157604051806020600b5492838152018092600b6000527f0175b7a638427703f0dbe7bb9bbf987a2551717b34e79f33b5b1008d1fa01db99060005b81811061223357505050816121e79103826123c1565b6040519182916020830190602084525180915260408301919060005b818110612211575050500390f35b82516001600160a01b0316845285945060209384019390920191600101612203565b82546001600160a01b03168452602090930192600192830192016121d1565b346101d15760203660031901126101d15760043533600052600d60205261228060ff604060002054166127f0565b80156101d157670de0b6b3a76400008102908104670de0b6b3a7640000036109b557600555005b346101d15760003660031901126101d1576020600454604051908152f35b346101d15760203660031901126101d15760043560005260066020526040600020805461047f60018301549260ff6002820154916003810154600482015460058301549161231a600760068601549501612487565b95604051998a998a5260208a015260408901526060880152608087015260a086015261234b60c0860183831661252c565b60081c16151560e084015261012061010084015261012083019061258e565b90600182811c9216801561239a575b602083101461238457565b634e487b7160e01b600052602260045260246000fd5b91607f1691612379565b610120810190811067ffffffffffffffff821117610a3b57604052565b90601f8019910116810190811067ffffffffffffffff821117610a3b57604052565b90604051918260008254926123f78461236a565b8084529360018116908115612465575060011461241e575b5061241c925003836123c1565b565b90506000929192526020600020906000915b81831061244957505090602061241c928201013861240f565b6020919350806001915483858901015201910190918492612430565b90506020925061241c94915060ff191682840152151560051b8201013861240f565b90604051612494816123a4565b82546001600160a01b03811682529092839160a01c60ff169060038210156105ba576006916020840152600181015460408401526124d4600282016123e3565b60608401526124e5600382016123e3565b6080840152600481015460a0840152600581015460c0840152015460ff81169060028210156105ba5760e083019190915260081c6001600160a01b03166101009190910152565b9060058210156105ba5752565b9060038210156105ba5752565b60005b8381106125595750506000910152565b8181015183820152602001612549565b9060209161258281518092818552858086019101612546565b601f01601f1916010190565b80516001600160a01b031682526020808201519192916125b091830190612539565b604082015160408201526125ea6125d860608401516101206060850152610120840190612569565b60808401518382036080850152612569565b9160a081015160a083015260c081015160c083015260e08101519060028210156105ba5760e0830191909152610100908101516001600160a01b031691015290565b600435906001600160a01b03821682036101d157565b35906001600160a01b03821682036101d157565b600b5481101561267157600b60005260206000200190600090565b634e487b7160e01b600052603260045260246000fd5b60085481101561267157600860005260206000200190600090565b80548210156126715760005260206000200190600090565b9061012061010061272a93805184526020810151602085015260408101516040850152606081015160608501526080810151608085015260a081015160a085015261270d60c082015160c086019061252c565b60e0810151151560e085015201519181610100820152019061258e565b90565b602081016020825282518091526040820191602060408360051b8301019401926000915b83831061276057505050505090565b909192939460208061277e600193603f1986820301875289516126ba565b97019301930191939290612751565b67ffffffffffffffff8111610a3b57601f01601f191660200190565b81601f820112156101d1578035906127c08261278d565b926127ce60405194856123c1565b828452602083830101116101d157816000926020809301838601378301015290565b156127f757565b60405162461bcd60e51b815260206004820152600e60248201526d139bdd08185d5d1a1bdc9a5e995960921b6044820152606490fd5b80518210156126715760209160051b010190565b6040519061284e826123a4565b816000815260006020820152600060408201526000606082015260006080820152600060a0820152600060c0820152600060e082015261010060405191612894836123a4565b60008352600060208401526000604084015260608084015260606080840152600060a0840152600060c0840152600060e08401526000828401520152565b919082039182116109b557565b60058210156105ba5752565b60001981146109b55760010190565b67ffffffffffffffff8111610a3b5760051b60200190565b9061291c826128fa565b61292960405191826123c1565b828152809261293a601f19916128fa565b019060005b82811061294b57505050565b602090612956612841565b8282850101520161293f565b519081151582036101d157565b600b5490600160401b821015610a3b5761299482600161241c9401600b55600b6126a2565b81546001600160a01b0393841660039290921b91821b9390911b1916919091179055565b90815491600160401b831015610a3b578261299491600161241c950181556126a2565b919082018092116109b557565b6002600054146129f9576002600055565b633ee5aeb560e01b60005260046000fd5b6001546001600160a01b03163303610dac5756fea2646970667358221220c7cd9a647757195844b2bd691c7bd9957cdbe0e8ceca2cc83510dda55d8526bd64736f6c634300081c0033",
  "linkReferences": {},
  "deployedLinkReferences": {}
}