{
  "_format": "hh-sol-artifact-1",
  "contractName": "InsuranceCover",
  "sourceName": "contracts/InsuranceCover.sol",
  "abi": [
    {
      "inputs": [
        {
          "internalType": "address",
          "name": "_lpContract",
          "type": "address"
        },
        {
          "internalType": "address",
          "name": "_vaultContract",
          "type": "address"
        },
        {
          "internalType": "address",
          "name": "_initialOwner",
          "type": "address"
        },
        {
          "internalType": "address",
          "name": "_bqBTC",
          "type": "address"
        },
        {
          "internalType": "address",
          "name": "_gov",
          "type": "address"
        }
      ],
      "stateMutability": "nonpayable",
      "type": "constructor"
    },
    {
      "inputs": [],
      "name": "CoverNotAvailable",
      "type": "error"
    },
    {
      "inputs": [],
      "name": "InsufficientPoolBalance",
      "type": "error"
    },
    {
      "inputs": [],
      "name": "InvalidAmount",
      "type": "error"
    },
    {
      "inputs": [],
      "name": "InvalidCoverDuration",
      "type": "error"
    },
    {
      "inputs": [],
      "name": "LpNotActive",
      "type": "error"
    },
    {
      "inputs": [],
      "name": "NameAlreadyExists",
      "type": "error"
    },
    {
      "inputs": [],
      "name": "NoClaimableReward",
      "type": "error"
    },
    {
      "inputs": [
        {
          "internalType": "address",
          "name": "owner",
          "type": "address"
        }
      ],
      "name": "OwnableInvalidOwner",
      "type": "error"
    },
    {
      "inputs": [
        {
          "internalType": "address",
          "name": "account",
          "type": "address"
        }
      ],
      "name": "OwnableUnauthorizedAccount",
      "type": "error"
    },
    {
      "inputs": [],
      "name": "ReentrancyGuardReentrantCall",
      "type": "error"
    },
    {
      "inputs": [],
      "name": "UnsupportedCoverType",
      "type": "error"
    },
    {
      "inputs": [],
      "name": "UserHaveAlreadyPurchasedCover",
      "type": "error"
    },
    {
      "inputs": [],
      "name": "WrongPool",
      "type": "error"
    },
    {
      "anonymous": false,
      "inputs": [
        {
          "indexed": true,
          "internalType": "uint256",
          "name": "coverId",
          "type": "uint256"
        },
        {
          "indexed": false,
          "internalType": "string",
          "name": "name",
          "type": "string"
        },
        {
          "indexed": false,
          "internalType": "enum CoverLib.RiskType",
          "name": "riskType",
          "type": "uint8"
        }
      ],
      "name": "CoverCreated",
      "type": "event"
    },
    {
      "anonymous": false,
      "inputs": [
        {
          "indexed": true,
          "internalType": "address",
          "name": "user",
          "type": "address"
        },
        {
          "indexed": false,
          "internalType": "uint256",
          "name": "coverValue",
          "type": "uint256"
        },
        {
          "indexed": false,
          "internalType": "uint256",
          "name": "coverFee",
          "type": "uint256"
        },
        {
          "indexed": false,
          "internalType": "enum CoverLib.RiskType",
          "name": "riskType",
          "type": "uint8"
        }
      ],
      "name": "CoverPurchased",
      "type": "event"
    },
    {
      "anonymous": false,
      "inputs": [
        {
          "indexed": true,
          "internalType": "uint256",
          "name": "coverId",
          "type": "uint256"
        },
        {
          "indexed": false,
          "internalType": "string",
          "name": "coverName",
          "type": "string"
        },
        {
          "indexed": false,
          "internalType": "enum CoverLib.RiskType",
          "name": "riskType",
          "type": "uint8"
        }
      ],
      "name": "CoverUpdated",
      "type": "event"
    },
    {
      "anonymous": false,
      "inputs": [
        {
          "indexed": true,
          "internalType": "address",
          "name": "previousOwner",
          "type": "address"
        },
        {
          "indexed": true,
          "internalType": "address",
          "name": "newOwner",
          "type": "address"
        }
      ],
      "name": "OwnershipTransferred",
      "type": "event"
    },
    {
      "anonymous": false,
      "inputs": [
        {
          "indexed": true,
          "internalType": "address",
          "name": "user",
          "type": "address"
        },
        {
          "indexed": true,
          "internalType": "uint256",
          "name": "poolId",
          "type": "uint256"
        },
        {
          "indexed": false,
          "internalType": "uint256",
          "name": "amount",
          "type": "uint256"
        }
      ],
      "name": "PayoutClaimed",
      "type": "event"
    },
    {
      "inputs": [
        {
          "internalType": "address",
          "name": "",
          "type": "address"
        },
        {
          "internalType": "uint256",
          "name": "",
          "type": "uint256"
        }
      ],
      "name": "LastVaultClaimTime",
      "outputs": [
        {
          "internalType": "uint256",
          "name": "",
          "type": "uint256"
        }
      ],
      "stateMutability": "view",
      "type": "function"
    },
    {
      "inputs": [
        {
          "internalType": "address",
          "name": "",
          "type": "address"
        },
        {
          "internalType": "uint256",
          "name": "",
          "type": "uint256"
        }
      ],
      "name": "NextLpClaimTime",
      "outputs": [
        {
          "internalType": "uint256",
          "name": "",
          "type": "uint256"
        }
      ],
      "stateMutability": "view",
      "type": "function"
    },
    {
      "inputs": [
        {
          "internalType": "uint256",
          "name": "amount",
          "type": "uint256"
        },
        {
          "internalType": "enum CoverLib.AssetDepositType",
          "name": "adt",
          "type": "uint8"
        },
        {
          "internalType": "address",
          "name": "asset",
          "type": "address"
        }
      ],
      "name": "addFundsToCoverContract",
      "outputs": [],
      "stateMutability": "payable",
      "type": "function"
    },
    {
      "inputs": [],
      "name": "bqBTC",
      "outputs": [
        {
          "internalType": "contract IbqBTC",
          "name": "",
          "type": "address"
        }
      ],
      "stateMutability": "view",
      "type": "function"
    },
    {
      "inputs": [],
      "name": "bqBTCAddress",
      "outputs": [
        {
          "internalType": "address",
          "name": "",
          "type": "address"
        }
      ],
      "stateMutability": "view",
      "type": "function"
    },
    {
      "inputs": [
        {
          "internalType": "uint256",
          "name": "_poolId",
          "type": "uint256"
        }
      ],
      "name": "claimPayoutForLP",
      "outputs": [],
      "stateMutability": "nonpayable",
      "type": "function"
    },
    {
      "inputs": [
        {
          "internalType": "uint256",
          "name": "vaultId",
          "type": "uint256"
        }
      ],
      "name": "claimPayoutForVault",
      "outputs": [],
      "stateMutability": "nonpayable",
      "type": "function"
    },
    {
      "inputs": [],
      "name": "coverCount",
      "outputs": [
        {
          "internalType": "uint256",
          "name": "",
          "type": "uint256"
        }
      ],
      "stateMutability": "view",
      "type": "function"
    },
    {
      "inputs": [
        {
          "internalType": "uint256",
          "name": "",
          "type": "uint256"
        }
      ],
      "name": "coverExists",
      "outputs": [
        {
          "internalType": "bool",
          "name": "",
          "type": "bool"
        }
      ],
      "stateMutability": "view",
      "type": "function"
    },
    {
      "inputs": [],
      "name": "coverFeeBalance",
      "outputs": [
        {
          "internalType": "uint256",
          "name": "",
          "type": "uint256"
        }
      ],
      "stateMutability": "view",
      "type": "function"
    },
    {
      "inputs": [
        {
          "internalType": "uint256",
          "name": "",
          "type": "uint256"
        }
      ],
      "name": "coverIds",
      "outputs": [
        {
          "internalType": "uint256",
          "name": "",
          "type": "uint256"
        }
      ],
      "stateMutability": "view",
      "type": "function"
    },
    {
      "inputs": [
        {
          "internalType": "uint256",
          "name": "",
          "type": "uint256"
        }
      ],
      "name": "covers",
      "outputs": [
        {
          "internalType": "uint256",
          "name": "id",
          "type": "uint256"
        },
        {
          "internalType": "string",
          "name": "coverName",
          "type": "string"
        },
        {
          "internalType": "enum CoverLib.RiskType",
          "name": "riskType",
          "type": "uint8"
        },
        {
          "internalType": "string",
          "name": "chains",
          "type": "string"
        },
        {
          "internalType": "uint256",
          "name": "capacity",
          "type": "uint256"
        },
        {
          "internalType": "uint256",
          "name": "capacityAmount",
          "type": "uint256"
        },
        {
          "internalType": "uint256",
          "name": "coverValues",
          "type": "uint256"
        },
        {
          "internalType": "uint256",
          "name": "maxAmount",
          "type": "uint256"
        },
        {
          "internalType": "uint256",
          "name": "poolId",
          "type": "uint256"
        },
        {
          "internalType": "string",
          "name": "CID",
          "type": "string"
        },
        {
          "internalType": "enum CoverLib.AssetDepositType",
          "name": "adt",
          "type": "uint8"
        },
        {
          "internalType": "address",
          "name": "asset",
          "type": "address"
        }
      ],
      "stateMutability": "view",
      "type": "function"
    },
    {
      "inputs": [
        {
          "internalType": "uint256",
          "name": "coverId",
          "type": "uint256"
        },
        {
          "internalType": "string",
          "name": "_cid",
          "type": "string"
        },
        {
          "internalType": "enum CoverLib.RiskType",
          "name": "_riskType",
          "type": "uint8"
        },
        {
          "internalType": "string",
          "name": "_coverName",
          "type": "string"
        },
        {
          "internalType": "string",
          "name": "_chains",
          "type": "string"
        },
        {
          "internalType": "uint256",
          "name": "_capacity",
          "type": "uint256"
        },
        {
          "internalType": "uint256",
          "name": "_poolId",
          "type": "uint256"
        }
      ],
      "name": "createCover",
      "outputs": [],
      "stateMutability": "nonpayable",
      "type": "function"
    },
    {
      "inputs": [
        {
          "internalType": "address",
          "name": "_user",
          "type": "address"
        }
      ],
      "name": "deleteExpiredUserCovers",
      "outputs": [],
      "stateMutability": "nonpayable",
      "type": "function"
    },
    {
      "inputs": [],
      "name": "getAllAvailableCovers",
      "outputs": [
        {
          "components": [
            {
              "internalType": "uint256",
              "name": "id",
              "type": "uint256"
            },
            {
              "internalType": "string",
              "name": "coverName",
              "type": "string"
            },
            {
              "internalType": "enum CoverLib.RiskType",
              "name": "riskType",
              "type": "uint8"
            },
            {
              "internalType": "string",
              "name": "chains",
              "type": "string"
            },
            {
              "internalType": "uint256",
              "name": "capacity",
              "type": "uint256"
            },
            {
              "internalType": "uint256",
              "name": "capacityAmount",
              "type": "uint256"
            },
            {
              "internalType": "uint256",
              "name": "coverValues",
              "type": "uint256"
            },
            {
              "internalType": "uint256",
              "name": "maxAmount",
              "type": "uint256"
            },
            {
              "internalType": "uint256",
              "name": "poolId",
              "type": "uint256"
            },
            {
              "internalType": "string",
              "name": "CID",
              "type": "string"
            },
            {
              "internalType": "enum CoverLib.AssetDepositType",
              "name": "adt",
              "type": "uint8"
            },
            {
              "internalType": "address",
              "name": "asset",
              "type": "address"
            }
          ],
          "internalType": "struct CoverLib.Cover[]",
          "name": "",
          "type": "tuple[]"
        }
      ],
      "stateMutability": "view",
      "type": "function"
    },
    {
      "inputs": [],
      "name": "getAllParticipants",
      "outputs": [
        {
          "internalType": "address[]",
          "name": "",
          "type": "address[]"
        }
      ],
      "stateMutability": "view",
      "type": "function"
    },
    {
      "inputs": [
        {
          "internalType": "address",
          "name": "user",
          "type": "address"
        }
      ],
      "name": "getAllUserCovers",
      "outputs": [
        {
          "components": [
            {
              "internalType": "address",
              "name": "user",
              "type": "address"
            },
            {
              "internalType": "uint256",
              "name": "coverId",
              "type": "uint256"
            },
            {
              "internalType": "enum CoverLib.RiskType",
              "name": "riskType",
              "type": "uint8"
            },
            {
              "internalType": "string",
              "name": "coverName",
              "type": "string"
            },
            {
              "internalType": "uint256",
              "name": "coverValue",
              "type": "uint256"
            },
            {
              "internalType": "uint256",
              "name": "claimPaid",
              "type": "uint256"
            },
            {
              "internalType": "uint256",
              "name": "coverPeriod",
              "type": "uint256"
            },
            {
              "internalType": "uint256",
              "name": "endDay",
              "type": "uint256"
            },
            {
              "internalType": "bool",
              "name": "isActive",
              "type": "bool"
            }
          ],
          "internalType": "struct CoverLib.GenericCoverInfo[]",
          "name": "",
          "type": "tuple[]"
        }
      ],
      "stateMutability": "view",
      "type": "function"
    },
    {
      "inputs": [],
      "name": "getCoverFeeBalance",
      "outputs": [
        {
          "internalType": "uint256",
          "name": "",
          "type": "uint256"
        }
      ],
      "stateMutability": "view",
      "type": "function"
    },
    {
      "inputs": [
        {
          "internalType": "uint256",
          "name": "_coverId",
          "type": "uint256"
        }
      ],
      "name": "getCoverInfo",
      "outputs": [
        {
          "components": [
            {
              "internalType": "uint256",
              "name": "id",
              "type": "uint256"
            },
            {
              "internalType": "string",
              "name": "coverName",
              "type": "string"
            },
            {
              "internalType": "enum CoverLib.RiskType",
              "name": "riskType",
              "type": "uint8"
            },
            {
              "internalType": "string",
              "name": "chains",
              "type": "string"
            },
            {
              "internalType": "uint256",
              "name": "capacity",
              "type": "uint256"
            },
            {
              "internalType": "uint256",
              "name": "capacityAmount",
              "type": "uint256"
            },
            {
              "internalType": "uint256",
              "name": "coverValues",
              "type": "uint256"
            },
            {
              "internalType": "uint256",
              "name": "maxAmount",
              "type": "uint256"
            },
            {
              "internalType": "uint256",
              "name": "poolId",
              "type": "uint256"
            },
            {
              "internalType": "string",
              "name": "CID",
              "type": "string"
            },
            {
              "internalType": "enum CoverLib.AssetDepositType",
              "name": "adt",
              "type": "uint8"
            },
            {
              "internalType": "address",
              "name": "asset",
              "type": "address"
            }
          ],
          "internalType": "struct CoverLib.Cover",
          "name": "",
          "type": "tuple"
        }
      ],
      "stateMutability": "view",
      "type": "function"
    },
    {
      "inputs": [
        {
          "internalType": "address",
          "name": "user",
          "type": "address"
        },
        {
          "internalType": "uint256",
          "name": "_poolId",
          "type": "uint256"
        }
      ],
      "name": "getDepositClaimableDays",
      "outputs": [
        {
          "internalType": "uint256",
          "name": "",
          "type": "uint256"
        }
      ],
      "stateMutability": "view",
      "type": "function"
    },
    {
      "inputs": [
        {
          "internalType": "address",
          "name": "user",
          "type": "address"
        },
        {
          "internalType": "uint256",
          "name": "_poolId",
          "type": "uint256"
        }
      ],
      "name": "getLastClaimTime",
      "outputs": [
        {
          "internalType": "uint256",
          "name": "",
          "type": "uint256"
        }
      ],
      "stateMutability": "view",
      "type": "function"
    },
    {
      "inputs": [
        {
          "internalType": "address",
          "name": "user",
          "type": "address"
        },
        {
          "internalType": "uint256",
          "name": "_coverId",
          "type": "uint256"
        }
      ],
      "name": "getUserCoverInfo",
      "outputs": [
        {
          "components": [
            {
              "internalType": "address",
              "name": "user",
              "type": "address"
            },
            {
              "internalType": "uint256",
              "name": "coverId",
              "type": "uint256"
            },
            {
              "internalType": "enum CoverLib.RiskType",
              "name": "riskType",
              "type": "uint8"
            },
            {
              "internalType": "string",
              "name": "coverName",
              "type": "string"
            },
            {
              "internalType": "uint256",
              "name": "coverValue",
              "type": "uint256"
            },
            {
              "internalType": "uint256",
              "name": "claimPaid",
              "type": "uint256"
            },
            {
              "internalType": "uint256",
              "name": "coverPeriod",
              "type": "uint256"
            },
            {
              "internalType": "uint256",
              "name": "endDay",
              "type": "uint256"
            },
            {
              "internalType": "bool",
              "name": "isActive",
              "type": "bool"
            }
          ],
          "internalType": "struct CoverLib.GenericCoverInfo",
          "name": "",
          "type": "tuple"
        }
      ],
      "stateMutability": "view",
      "type": "function"
    },
    {
      "inputs": [
        {
          "internalType": "address",
          "name": "user",
          "type": "address"
        }
      ],
      "name": "getUserParticipation",
      "outputs": [
        {
          "internalType": "uint256",
          "name": "",
          "type": "uint256"
        }
      ],
      "stateMutability": "view",
      "type": "function"
    },
    {
      "inputs": [],
      "name": "governance",
      "outputs": [
        {
          "internalType": "address",
          "name": "",
          "type": "address"
        }
      ],
      "stateMutability": "view",
      "type": "function"
    },
    {
      "inputs": [],
      "name": "lpAddress",
      "outputs": [
        {
          "internalType": "address",
          "name": "",
          "type": "address"
        }
      ],
      "stateMutability": "view",
      "type": "function"
    },
    {
      "inputs": [],
      "name": "lpContract",
      "outputs": [
        {
          "internalType": "contract ILP",
          "name": "",
          "type": "address"
        }
      ],
      "stateMutability": "view",
      "type": "function"
    },
    {
      "inputs": [],
      "name": "owner",
      "outputs": [
        {
          "internalType": "address",
          "name": "",
          "type": "address"
        }
      ],
      "stateMutability": "view",
      "type": "function"
    },
    {
      "inputs": [
        {
          "internalType": "uint256",
          "name": "",
          "type": "uint256"
        }
      ],
      "name": "participants",
      "outputs": [
        {
          "internalType": "address",
          "name": "",
          "type": "address"
        }
      ],
      "stateMutability": "view",
      "type": "function"
    },
    {
      "inputs": [
        {
          "internalType": "address",
          "name": "",
          "type": "address"
        }
      ],
      "name": "participation",
      "outputs": [
        {
          "internalType": "uint256",
          "name": "",
          "type": "uint256"
        }
      ],
      "stateMutability": "view",
      "type": "function"
    },
    {
      "inputs": [
        {
          "internalType": "uint256",
          "name": "_coverId",
          "type": "uint256"
        },
        {
          "internalType": "uint256",
          "name": "_coverValue",
          "type": "uint256"
        },
        {
          "internalType": "uint256",
          "name": "_coverPeriod",
          "type": "uint256"
        },
        {
          "internalType": "uint256",
          "name": "_coverFee",
          "type": "uint256"
        }
      ],
      "name": "purchaseCover",
      "outputs": [],
      "stateMutability": "payable",
      "type": "function"
    },
    {
      "inputs": [],
      "name": "renounceOwnership",
      "outputs": [],
      "stateMutability": "nonpayable",
      "type": "function"
    },
    {
      "inputs": [
        {
          "internalType": "address",
          "name": "newOwner",
          "type": "address"
        }
      ],
      "name": "transferOwnership",
      "outputs": [],
      "stateMutability": "nonpayable",
      "type": "function"
    },
    {
      "inputs": [
        {
          "internalType": "uint256",
          "name": "_coverId",
          "type": "uint256"
        },
        {
          "internalType": "string",
          "name": "_coverName",
          "type": "string"
        },
        {
          "internalType": "enum CoverLib.RiskType",
          "name": "_riskType",
          "type": "uint8"
        },
        {
          "internalType": "string",
          "name": "_cid",
          "type": "string"
        },
        {
          "internalType": "string",
          "name": "_chains",
          "type": "string"
        },
        {
          "internalType": "uint256",
          "name": "_capacity",
          "type": "uint256"
        },
        {
          "internalType": "uint256",
          "name": "_poolId",
          "type": "uint256"
        }
      ],
      "name": "updateCover",
      "outputs": [],
      "stateMutability": "nonpayable",
      "type": "function"
    },
    {
      "inputs": [
        {
          "internalType": "uint256",
          "name": "_coverId",
          "type": "uint256"
        }
      ],
      "name": "updateMaxAmount",
      "outputs": [],
      "stateMutability": "nonpayable",
      "type": "function"
    },
    {
      "inputs": [
        {
          "internalType": "address",
          "name": "user",
          "type": "address"
        },
        {
          "internalType": "uint256",
          "name": "_coverId",
          "type": "uint256"
        },
        {
          "internalType": "uint256",
          "name": "_claimPaid",
          "type": "uint256"
        }
      ],
      "name": "updateUserCoverValue",
      "outputs": [],
      "stateMutability": "nonpayable",
      "type": "function"
    },
    {
      "inputs": [
        {
          "internalType": "address",
          "name": "",
          "type": "address"
        },
        {
          "internalType": "uint256",
          "name": "",
          "type": "uint256"
        }
      ],
      "name": "userCovers",
      "outputs": [
        {
          "internalType": "address",
          "name": "user",
          "type": "address"
        },
        {
          "internalType": "uint256",
          "name": "coverId",
          "type": "uint256"
        },
        {
          "internalType": "enum CoverLib.RiskType",
          "name": "riskType",
          "type": "uint8"
        },
        {
          "internalType": "string",
          "name": "coverName",
          "type": "string"
        },
        {
          "internalType": "uint256",
          "name": "coverValue",
          "type": "uint256"
        },
        {
          "internalType": "uint256",
          "name": "claimPaid",
          "type": "uint256"
        },
        {
          "internalType": "uint256",
          "name": "coverPeriod",
          "type": "uint256"
        },
        {
          "internalType": "uint256",
          "name": "endDay",
          "type": "uint256"
        },
        {
          "internalType": "bool",
          "name": "isActive",
          "type": "bool"
        }
      ],
      "stateMutability": "view",
      "type": "function"
    },
    {
      "inputs": [],
      "name": "vaultAddress",
      "outputs": [
        {
          "internalType": "address",
          "name": "",
          "type": "address"
        }
      ],
      "stateMutability": "view",
      "type": "function"
    },
    {
      "inputs": [],
      "name": "vaultContract",
      "outputs": [
        {
          "internalType": "contract IVault",
          "name": "",
          "type": "address"
        }
      ],
      "stateMutability": "view",
      "type": "function"
    }
  ],
  "bytecode": "0x60803461016957601f613f0138819003918201601f19168301916001600160401b0383118484101761016e5780849260a0946040528339810103126101695761004781610184565b9061005460208201610184565b9061006160408201610184565b9161007a608061007360608501610184565b9301610184565b60016000556001600160a01b0390931693841561015357600180546001600160a01b03198116871790915560405195906001600160a01b03167f8be0079c531659141344cd1fd0a4f28419497f9722a3daafe3b4186f6b6457e0600080a3600380546001600160a01b039283166001600160a01b0319918216811790925560058054948416948216851790556009805482169094179093556007805484169091179055600480549382169383168417905560068054831690931790925560088054939092169216919091179055613d6890816101998239f35b631e4fbdf760e01b600052600060045260246000fd5b600080fd5b634e487b7160e01b600052604160045260246000fd5b51906001600160a01b03821682036101695756fe608080604052600436101561001357600080fd5b600090813560e01c9081630db981a014613150575080630e0e96fd146129d8578063105258141461115d578063106b5da114612891578063195ec9ee146127c95780632083d5f0146122f2578063225a72e7146122135780632274346b146121ea5780632d8a340c14611e0a57806334808ec314611de1578063357917b7146117de57806335c1d34914611d9d578063430bf08a14611d7457806346f8479514610df25780635aa6e67514611d4b578063602710a4146117fc578063609c7604146117de57806362858bfa146116cf5780636299df6c146115ac578063649718b21461137d578063715018a61461132057806373cce3ee146111cf578063782ea619146111a05780637a728e7f1461115d5780637ceb4a69146110c55780638acee3cf1461109c5780638da5cb5b1461107357806393b1ad3814610e2b57806396f3a8ad14610df2578063996b8a6f14610dc95780639b4dc8cc14610da05780639e7b399e14610cc2578063bfc664f314610b84578063cadcb47114610a98578063eabe6d67146102a6578063f2fde38b1461021d578063fb643583146101e35763feb0b8f5146101c357600080fd5b346101e057806003193601126101e0576020601154604051908152f35b80fd5b50346101e05760203660031901126101e057600435906012548210156101e057602061020e8361332c565b90549060031b1c604051908152f35b50346101e05760203660031901126101e057610237613190565b61023f613ce7565b6001600160a01b0316801561029257600180546001600160a01b0319811683179091556001600160a01b03167f8be0079c531659141344cd1fd0a4f28419497f9722a3daafe3b4186f6b6457e08380a380f35b631e4fbdf760e01b82526004829052602482fd5b50346101e0576102b536613277565b92946102c697969297949194613ce7565b6003546040516307eb111f60e41b81526004810186905294906001600160a01b03168886602481845afa958615610a8d578996610a69575b509598602088019690895b875181101561038f57602061031e828a61396c565b51015160405161034f6020828161033e8183019687815193849201613347565b81010301601f1981018352826131f4565b519020898b6103706020604051809361033e83830196879251928391613347565b5190201461038057600101610309565b633480a50360e21b8b5260048bfd5b50899750889596508a60405163068bcd8d60e01b81528460048201528981602481875afa908115610a5e578a91610a3c575b508660608201516103d18161338f565b6103da8261338f565b6103e38161338f565b14801590610a2e575b610a1f5760646104008360c0840151613785565b049361020060018060a01b036101e084015116920151906002821015610a0b57808c913b15610a075781809160446040518094819363a4948d8560e01b83528d60048401528a60248401525af1801561077f576109ee575b50506104c990610469601154613c94565b60115560405197610479896131d8565b8b895260208901968b885260408a01956104928c61338f565b8b875260608b0197885260808b01528060a08b01528d60c08b015260e08a0152876101008a01526101208901526101408801613c88565b6101608601528789526010602052604089209285518455518051906001600160401b0382116109da576104ff6001860154613479565b601f81116109a7575b506020908b601f841160011461093957610557949361053e9390928361092e575b50508160011b916000199060031b1c19161790565b60018501555b5161054e8161338f565b60028401613c15565b518051906001600160401b03821161091a576105766003840154613479565b601f81116108e7575b50602090601f831160011461087e576105af92918a91836108735750508160011b916000199060031b1c19161790565b60038201555b6080830151600482015560a0830151600582015560c0830151600682015560e083015160078201556101008301516008820155600981016101208401518051906001600160401b03821161085f5761060d8354613479565b601f8111610824575b50602090601f83116001146107bd57918061064b92600a9695948d926107b25750508160011b916000199060031b1c19161790565b90555b01610140830151600281101561079e57815460ff610100600160a81b0361016087015160081b169216906affffffffffffffffffffff60a81b1617179055601254600160401b81101561078a57906106ae8260018995940160125561332c565b8154600391821b89811b60001990911b1990911617909155546001600160a01b031691823b1561077b576107089284928360405180968195829463fee721ed60e01b845260048401526040602484015260448301906133bc565b03925af1801561077f57610766575b5091837f5928d65cc6ae9f07a7673f1a5a2f98d81f1bb0c2bc53bcaa33d6f11cf426f25e9352600c60205260408520600160ff19825416179055610760604051928392836139a4565b0390a280f35b81610770916131f4565b61077b578385610717565b8380fd5b6040513d84823e3d90fd5b634e487b7160e01b87526041600452602487fd5b634e487b7160e01b88526021600452602488fd5b015190508c80610529565b838b52818b209190601f1984168c5b81811061080c5750916001939185600a98979694106107f3575b505050811b01905561064e565b015160001960f88460031b161c191690558b80806107e6565b929360206001819287860151815501950193016107cc565b61084f90848c5260208c20601f850160051c81019160208610610855575b601f0160051c0190613980565b8a610616565b9091508190610842565b634e487b7160e01b8a52604160045260248afd5b015190508a80610529565b600384018a52818a209190601f1984168b5b8181106108cf57509084600195949392106108b6575b505050811b0160038201556105b5565b015160001960f88460031b161c191690558980806108a6565b92936020600181928786015181550195019301610890565b61091490600385018b5260208b20601f850160051c8101916020861061085557601f0160051c0190613980565b8961057f565b634e487b7160e01b89526041600452602489fd5b015190508d80610529565b50600186018c52818c209190601f1984168d5b81811061098f575091600193918561055797969410610976575b505050811b016001850155610544565b015160001960f88460031b161c191690558c8080610966565b9293602060018192878601518155019501930161094c565b6109d490600187018d5260208d20601f850160051c8101916020861061085557601f0160051c0190613980565b8b610508565b634e487b7160e01b8b52604160045260248bfd5b816109f8916131f4565b610a03578a8c610458565b8a80fd5b5080fd5b634e487b7160e01b8c52602160045260248cfd5b6369e489f560e11b8a5260048afd5b5061018081015182116103ec565b610a5891503d808c833e610a5081836131f4565b810190613760565b8a6103c1565b6040513d8c823e3d90fd5b610a869196503d808b833e610a7e81836131f4565b8101906137c5565b94386102fe565b6040513d8b823e3d90fd5b50346101e05760403660031901126101e0576040610b8091610ab8613190565b610ac0613ca3565b5060018060a01b03168152600f60205281812060243582526020522060ff600860405192610aed846131a6565b80546001600160a01b031684526001810154602085015260028101548316610b148161338f565b6040850152604051610b3481610b2d81600386016134b3565b03826131f4565b606085015260048101546080850152600581015460a0850152600681015460c0850152600781015460e08501520154161515610100820152604051918291602083526020830190613536565b0390f35b50346101e05760203660031901126101e057610b9e613190565b610ba6613d10565b6001600160a01b031660015b601254811015610cba5780610bc860019261332c565b90549060031b1c838552600f6020526040852081865260205260408520600881019081549060ff82169081610cac575b50610c07575b50505001610bb2565b60ff19169055838552600f602052604085209085526020528360086040822082815582858201558260028201558260038201610c438154613479565b80610c6c575b505060048201558260058201558260068201558260078201550155388080610bfe565b601f81118814610c815750555b823880610c49565b81835260208320610c9c91601f0160051c8101908901613980565b8082528160208120915555610c79565b600791500154421138610bf8565b826001815580f35b50346101e05760403660031901126101e0576040906001600160a01b03610ce7613190565b168152600f60205281812060243582526020522060018060a01b0381541660018201549160ff60028201541660405191610d2f83610d2881600385016134b3565b03846131f4565b6004810154926005820154610d7f60068401549260ff600860078701549601541695604051998a998a5260208a0152610d678161338f565b6040890152610120606089015261012088019061336a565b94608087015260a086015260c085015260e084015215156101008301520390f35b50346101e057806003193601126101e0576007546040516001600160a01b039091168152602090f35b50346101e057806003193601126101e0576006546040516001600160a01b039091168152602090f35b50346101e05760203660031901126101e0576020906040906001600160a01b03610e1a613190565b168152600b83522054604051908152f35b50346101e057806003193601126101e0578081601254905b8181106110335750610e54826137ae565b91610e6260405193846131f4565b808352610e71601f19916137ae565b01835b81811061101c57505082835b828110610eee5783856040519182916020830160208452825180915260408401602060408360051b870101940192905b828210610ebf57505050500390f35b91936001919395506020610ede8192603f198a820301865288516133bc565b9601920192018594939192610eb0565b610ef78161332c565b90549060031b1c808652600c60205260ff604087205416610f1c575b50600101610e80565b60019192611015918752601060205260408720600a60405191610f3e836131d8565b80548352604051610f5581610b2d818a86016134b3565b602084015260ff600282015416610f6b8161338f565b6040840152604051610f8481610b2d81600386016134b3565b606084015260048101546080840152600581015460a0840152600681015460c0840152600781015460e08401526008810154610100840152604051610fd081610b2d81600986016134b3565b6101208401520154610fe960ff82166101408401613c88565b848060a01b039060081c16610160820152611004828861396c565b5261100f818761396c565b50613c94565b9190610f13565b602090611027613c2d565b82828701015201610e74565b61103c8161332c565b90549060031b1c8452600c60205260ff60408520541661105f575b600101610e43565b9161106b600191613c94565b929050611057565b50346101e057806003193601126101e0576001546040516001600160a01b039091168152602090f35b50346101e057806003193601126101e0576003546040516001600160a01b039091168152602090f35b50346101e05760603660031901126101e0576110df613190565b602435604435916110fb60018060a01b036008541633146139c9565b611103613d10565b60018060a01b0316808452600f602052604084208285526020526004604085200161112f848254613997565b90558352600f6020526040832090835260205261115460056040842001918254613ab0565b90556001815580f35b50346101e05760403660031901126101e0576020906040906001600160a01b03611185613190565b168152600d8352818120602435825283522054604051908152f35b50346101e05760203660031901126101e05760ff60406020926004358152600c84522054166040519015158152f35b50346101e05760403660031901126101e0576111e9613190565b6003546040516374f0645b60e11b815260248035600483018190526001600160a01b0385811692840192909252919391926101409185916044918391165afa9283156113155784936112c6575b50918361129792603c946020965060018060a01b0316808352600d87526040832082845287526040832054156000146112ac57505060c0820151915b608081015142926112828261338f565b5061128c8161338f565b6112a0575b50613997565b04604051908152f35b60e09150015138611291565b8252600d8652604082209082528552604081205491611272565b9092506101403d811161130e575b6112de81836131f4565b8101906101408183031261130a579361129792611300603c9593602097613a06565b9450925093611236565b8480fd5b503d6112d4565b6040513d86823e3d90fd5b50346101e057806003193601126101e057611339613ce7565b600180546001600160a01b0319811690915581906001600160a01b03167f8be0079c531659141344cd1fd0a4f28419497f9722a3daafe3b4186f6b6457e08280a380f35b50346101e05760203660031901126101e057611397613190565b60125482916001600160a01b0316825b82811061156157506113b8836137ae565b926113c660405194856131f4565b8084526113d5601f19916137ae565b01845b81811061154a57505083845b8381106114525784866040519182916020830160208452825180915260408401602060408360051b870101940192905b82821061142357505050500390f35b919360019193955060206114428192603f198a82030186528851613536565b9601920192018594939192611414565b61145b8161332c565b90549060031b1c838752600f60205260408720818852602052600460408820015461148a575b506001016113e4565b6001919261154391858952600f602052604089209089526020526040882060ff6008604051926114b9846131a6565b868060a01b038154168452868101546020850152826002820154166114dd8161338f565b60408501526040516114f681610b2d81600386016134b3565b606085015260048101546080850152600581015460a0850152600681015460c0850152600781015460e08501520154161515610100820152611538828961396c565b5261100f818861396c565b9190611481565b602090611555613ca3565b828288010152016113d8565b61156a8161332c565b90549060031b1c828652600f602052604086209086526020526004604086200154611598575b6001016113a7565b926115a4600191613c94565b939050611590565b50346101e05760203660031901126101e05760406101809160043581526010602052208054906116a7604051916115ea83610d2881600185016134b3565b60ff6002820154169060405161160781610b2d81600386016134b3565b600482015492600583015460068401549061167e600786015493600887015495611662600a604051996116488b61164181600985016134b3565b038c6131f4565b01549b6040519e8f9e8f908152816020820152019061336a565b9161166c8161338f565b60408d01528b820360608d015261336a565b9560808a015260a089015260c088015260e087015261010086015284820361012086015261336a565b906116b9610140840160ff83166133af565b60081c6001600160a01b03166101608301520390f35b50346101e05760203660031901126101e0576040610b80916116ef613c2d565b506004358152601060205220600a6040519161170a836131d8565b8054835260405161172281610b2d81600186016134b3565b602084015260ff6002820154166117388161338f565b604084015260405161175181610b2d81600386016134b3565b606084015260048101546080840152600581015460a0840152600681015460c0840152600781015460e0840152600881015461010084015260405161179d81610b2d81600986016134b3565b61012084015201546117b660ff82166101408401613c88565b60081c6001600160a01b031661016082015260405160208082529092839290918301906133bc565b50346101e057806003193601126101e0576020600254604051908152f35b5060803660031901126101e0576044359060243560043561181b613d10565b601b8411801590611d3f575b611d3057808352600c60205260ff60408420541615611d2157808352601060205260408320906007820180548411611d125760068301611868858254613ab0565b90600585019081548311611d0357600a860160ff8154166002811015611cef57600103611cc857546040516323b872dd60e01b81523360048201523060248201526064803560448301529091602091839182908d9060081c6001600160a01b03165af1908115610a8d578991611c7b575b50928092916118ea6118f695613b85565b55546112918282613997565b9055338452600f60205260408420818552602052600460408520015415600014611c6c5760ff60028301541694620151808102818104620151801482151715611c58576119439042613ab0565b60405191611950836131a6565b3383526020830184815260408401986119688161338f565b8952604051986119868a61197f8160018b016134b3565b038b6131f4565b60608501998a52611a08608086019189835260a08701938b855260c0880195865260e0880196875261010088019860018a52338d52600f60205260408d20908d5260205260408c209760018060a01b039051166bffffffffffffffffffffffff60a01b895416178855516001880155516119ff8161338f565b60028701613c15565b600385019951998a516001600160401b0381116109da57611a298254613479565b601f8111611c28575b506020601f8211600114611bbb579080611a68928d9e60089b9c9d9e92611bb05750508160011b916000199060031b1c19161790565b90555b516004850155516005840155516006830155516007820155019051151560ff80198354169116179055828390600a54915b828110611b7d575b5015611b2b575b50338352600b6020526040832080549060018201809211611b17575560020154604051918252606435602083015260ff16611ae58161338f565b60408201527f23b0f39e0762759ffb18632a1a2b79c9eb58571454e5f7c36e0a2f81759e0a3460603392a26001815580f35b634e487b7160e01b85526011600452602485fd5b600160401b811015611b6957806001611b479201600a556132fb565b81546001600160a01b0360039290921b91821b19163390911b17905538611aab565b634e487b7160e01b84526041600452602484fd5b611b86816132fb565b905460039190911b1c6001600160a01b03163314611ba657600101611a9c565b5050600138611aa4565b015190503880610529565b828c52808c209c601f1983168d5b818110611c0b57509160089a9b9c9d9e91846001959410611bf2575b505050811b019055611a6b565b015160001960f88460031b161c19169055388080611be5565b919e8f60016020928684930151815501940192019e91929e611bc9565b611c5290838d5260208d20601f840160051c8101916020851061085557601f0160051c0190613980565b38611a32565b634e487b7160e01b86526011600452602486fd5b639857cbd960e01b8452600484fd5b90506020813d602011611cc0575b81611c96602093836131f4565b81010312611cbc57928092916118ea611cb16118f6966135fa565b9250509192936118d9565b8880fd5b3d9150611c89565b5090826118f69392611cdb341515613bc9565b611ce734600254613ab0565b6002556118ea565b634e487b7160e01b8a52602160045260248afd5b63bc6072f160e01b8852600488fd5b63bc6072f160e01b8552600485fd5b63bccd404360e01b8352600483fd5b631f89958960e11b8352600483fd5b5061016e841015611827565b50346101e057806003193601126101e0576008546040516001600160a01b039091168152602090f35b50346101e057806003193601126101e0576009546040516001600160a01b039091168152602090f35b50346101e05760203660031901126101e05760043590600a548210156101e0576020611dc8836132fb565b905460405160039290921b1c6001600160a01b03168152f35b50346101e057806003193601126101e0576004546040516001600160a01b039091168152602090f35b50346101e05760203660031901126101e057600435611e27613d10565b6003546040516374f0645b60e11b8152600481018390523360248201526001600160a01b039091169061014081604481855afa9081156113155784916121b0575b50338452600d6020526040842083855260205260408420541560001461218f57603c611eb460c08301515b426080850151611ea28161338f565b611eab8161338f565b61218457613997565b048015612148576060611ec8920151613785565b90811561210357836024916040519283809263068bcd8d60e01b82528760048301525afa9081156113155784916120e9575b506102008101805160028110156120d5576001036120ca576101e08201516040516370a0823160e01b815230600482015290602090829060249082906001600160a01b03165afa80156120bf578690612086575b611f5c91505b841115613abd565b338552600d6020526040852084865260205242604086205551600281101561207257600103612044576101e0015160405163a9059cbb60e01b8152336004820152602481018390529060209082906001600160a01b0316818781604481015b03925af18015611315578490612009575b611fd69150613b85565b6040519081527f0408e6e0b73daf4c873106e95fd067260fbff8bf9d1b499cad563d4480d45bac60203392a36001815580f35b506020813d60201161203c575b81612023602093836131f4565b8101031261077b57612037611fd6916135fa565b611fcc565b3d9150612016565b5061205e8380808085335af1612058613b09565b50613b39565b61206a81600254613997565b600255611fd6565b634e487b7160e01b85526021600452602485fd5b506020813d6020116120b7575b816120a0602093836131f4565b810103126120b257611f5c9051611f4e565b600080fd5b3d9150612093565b6040513d88823e3d90fd5b611f5c600254611f54565b634e487b7160e01b86526021600452602486fd5b6120fd91503d8086833e610a5081836131f4565b38611efa565b60405162461bcd60e51b815260206004820152601d60248201527f4e6f20636c61696d61626c65207265776172647320666f7220757365720000006044820152606490fd5b60405162461bcd60e51b81526020600482015260146024820152734e6f20636c61696d61626c65207265776172647360601b6044820152606490fd5b5060e0840151613997565b338452600d60205260408420838552602052603c611eb46040862054611e93565b90506101403d81116121e3575b6121c781836131f4565b81016101408282031261130a576121dd91613a06565b38611e68565b503d6121bd565b50346101e057806003193601126101e0576005546040516001600160a01b039091168152602090f35b5060603660031901126101e0576024356002811015610a07576044356001600160a01b03811691908290036122ee576001036122d0576040516323b872dd60e01b815233600480830191909152306024830152356044820152906020908290606490829086905af1801561077f578290612295575b6122929150613b85565b80f35b506020813d6020116122c8575b816122af602093836131f4565b81010312610a07576122c3612292916135fa565b612288565b3d91506122a2565b506122dc341515613bc9565b6122e834600254613ab0565b60025580f35b8280fd5b50346101e05760203660031901126101e05760043590612310613d10565b60055460405163395d7def60e11b8152600481018490523360248201526001600160a01b0390911691908181604481865afa90811561077f57829161272c575b5081338152600e6020526040812085825260205260408120541560001461270b57603c6123af60c06123818561395f565b5101515b4260806123918761395f565b51015161239d8161338f565b6123a68161338f565b6126f757613997565b049481935b83518510156123e9576123e16001916123db8960606123d38a8a61396c565b510151613785565b90613ab0565b9401936123b4565b8581156126ba578360249160405192838092632500ed8d60e21b82528760048301525afa90811561131557849161251e575b506101208101805160028110156120d557600103612513576101408201516040516370a0823160e01b815230600482015290602090829060249082906001600160a01b03165afa80156120bf5786906124df575b61247c9150841115613abd565b338552600e602052604085208486526020524260408620555160028110156120725760010361204457610140015160405163a9059cbb60e01b8152336004820152602481018390529060209082906001600160a01b031681878160448101611fbb565b506020813d60201161250b575b816124f9602093836131f4565b810103126120b25761247c905161246f565b3d91506124ec565b61247c600254611f54565b90503d8085833e61252f81836131f4565b81019060208183031261130a578051906001600160401b03821161267d57016101608183031261130a576040519161016083018381106001600160401b0382111761078a576040528151835260208201516001600160401b0381116126b6578161259a9184016135b5565b6020840152604082015160038110156126b657604084015260608201516001600160401b0381116126b65782019080601f830112156126b6578151916125df836137ae565b926125ed60405194856131f4565b80845260208085019160051b830101918383116126b25760208101915b83831061268157505050505060608301526080810151608083015260a081015160a083015260c081015160c083015260e081015160e0830152610100810151610100830152610120810151600281101561267d576101208301526126719061014001613607565b6101408201528461241b565b8580fd5b82516001600160401b0381116126ae576020916126a38784809487010161361b565b81520192019161260a565b8b80fd5b8980fd5b8680fd5b60405162461bcd60e51b815260206004820152601560248201527427379031b630b4b6903cb2ba103337b9103ab9b2b960591b6044820152606490fd5b5060e06127038661395f565b510151613997565b338152600e60205260408120858252602052603c6123af6040832054612385565b90503d8083833e61273d81836131f4565b8101906020818303126122ee578051906001600160401b03821161077b570181601f820112156122ee578051612772816137ae565b9261278060405194856131f4565b818452602061014081860193028401019281841161267d57602001915b8383106127ae575050505038612350565b6020610140916127be8486613a06565b81520192019161279d565b50346101e057806003193601126101e057604051806020600a5491828152018091600a85527fc65a7bb8d6351c1cf70c95a316cc6a92839c986682d98bc35f958f4883f9d2a890855b81811061287257505050826128289103836131f4565b604051928392602084019060208552518091526040840192915b818110612850575050500390f35b82516001600160a01b0316845285945060209384019390920191600101612842565b82546001600160a01b0316845260209093019260019283019201612812565b50346101e05760203660031901126101e0576004356128bb60018060a01b036007541633146139c9565b6128c3613d10565b808252601060205260408083206003546008820154925163068bcd8d60e01b815260048101939093528490839060249082906001600160a01b03165afa9182156113155784926129b9575b506004015490811561297b5760649160c061292a920151613785565b0481835260106020526005604084200155808252601060205261296460056040842001548284526010602052600660408520015490613997565b908252601060205260076040832001556001815580f35b60405162461bcd60e51b8152602060048201526016602482015275496e76616c696420636f76657220636170616369747960501b6044820152606490fd5b60049192506129d1903d8087833e610a5081836131f4565b919061290e565b50346101e0576129e736613277565b9096949295936129f5613ce7565b60035460405163068bcd8d60e01b8152600481018490526001600160a01b0390911698909787896024818d5afa988915613145578899613129575b508260608a0151612a408161338f565b612a498261338f565b612a528161338f565b1480159061311b575b61310c5786885260106020526064612a7b8360c060408c209c0151613785565b04918260068b0154116130fd57886024999a9b6040519a8b80926307eb111f60e41b82528960048301525afa988915610a5e578a996130e1575b5094996020870195908a5b8a51811015612b50576020612ad5828d61396c565b510151604051612af56020828161033e8183019687815193849201613347565b519020888a612b166020604051809361033e83830196879251928391613347565b5190201480612b3b575b612b2c57600101612ac0565b633480a50360e21b8c5260048cfd5b5089612b47828d61396c565b51511415612b20565b508a97959896508b600482015493600183019188516001600160401b038111612f8f578b612b7e8554613479565b601f81116130b1575b505060208c601f831160011461304f57612bb6929182613044575b508160011b916000199060031b1c19161790565b83555b80516001600160401b038111612f8f578b612bd76003870154613479565b601f8111613011575b50506020918c601f8311600114612fa357612c1193909183612ef15750508160011b916000199060031b1c19161790565b60038401555b836004840155600983019080516001600160401b038111612f8f578b612c3d8454613479565b601f8111612f5f575b505060208c601f8311600114612efc5790612c759383612ef15750508160011b916000199060031b1c19161790565b81555b6005830193868555612c9660088501978d8955600686015490613997565b600785019081559581811115612e5e578b9c91612cb7919c999a9b9c613997565b6003546001600160a01b031690813b156126b2578991604483926040519485938492639fd36b1560e01b845288600485015260248401525af1908115610a8d578991612e45575b50505b6003546001600160a01b031693843b15611cbc57600a612dc8612d61978b9995612d8c9b8b976040519d8e9c8d9b8c9a631b401a5b60e21b8c5260048c0152604060248c0152895460448c015261018060648c01526101c48b01906134b3565b60ff60028a015416612d728161338f565b60848b01528981036043190160a48b0152600389016134b3565b600488015460c48a0152935460e489015260068701546101048901525461012488015254610144870152858203604319016101648701526134b3565b910154612ddc610184840160ff83166133af565b60081c6001600160a01b03166101a483015203925af1801561077f57612e30575b50507f758a67328ba53c1867c0272bbd2ca10d6fe71d37120188c523fe7ae7bdbbe46991610760604051928392836139a4565b81612e3a916131f4565b61077b578385612dfd565b81612e4f916131f4565b612e5a57878d612cfe565b8780fd5b90808210612e75575b5050899a9996979899612d01565b90612e7f91613997565b6003546001600160a01b03169b908c3b156126ae578b906040519d8e9163a4948d8560e01b8352846004840152602483015281835a92604493f18015612ee657612ecb575b9a80612e67565b96979899909a81612edb916131f4565b989796958a90612ec4565b6040513d8d823e3d90fd5b015190508e80610529565b9192601f198416858452828420935b818110612f475750908460019594939210612f2e575b505050811b018155612c78565b015160001960f88460031b161c191690558d8080612f21565b92936020600181928786015181550195019301612f0b565b60208286612f88945220601f840160051c8101916020851061085557601f0160051c0190613980565b8b8e612c46565b634e487b7160e01b8c52604160045260248cfd5b5091600386018d52808d20908d935b601f1984168510612ff6576001945083601f19811610612fdd575b505050811b016003840155612c17565b015160001960f88460031b161c191690558d8080612fcd565b81810151835560209485019460019093019290910190612fb2565b602061303d9260038901815220601f840160051c8101916020851061085557601f0160051c0190613980565b8b8e612be0565b90508b01518f612ba2565b90601f198316868352818320925b8d8282106130995750509083600194939210613080575b5050811b018355612bb9565b8c015160001960f88460031b161c191690558e80613074565b6001849560209395849301518155019401920161305d565b602082876130da945220601f840160051c8101916020851061085557601f0160051c0190613980565b8b8e612b87565b6130f69199503d808c833e610a7e81836131f4565b9738612ab5565b6369e489f560e11b8952600489fd5b6369e489f560e11b8852600488fd5b506101808901518211612a5b565b61313e9199503d808a833e610a5081836131f4565b9738612a30565b6040513d8a823e3d90fd5b905034610a07576040366003190112610a07576020916040906001600160a01b03613179613190565b168152600e84528181206024358252845220548152f35b600435906001600160a01b03821682036120b257565b61012081019081106001600160401b038211176131c257604052565b634e487b7160e01b600052604160045260246000fd5b61018081019081106001600160401b038211176131c257604052565b90601f801991011681019081106001600160401b038211176131c257604052565b6001600160401b0381116131c257601f01601f191660200190565b81601f820112156120b25780359061324782613215565b9261325560405194856131f4565b828452602083830101116120b257816000926020809301838601378301015290565b60e06003198201126120b257600435916024356001600160401b0381116120b257826132a591600401613230565b9160443560038110156120b257916064356001600160401b0381116120b257826132d191600401613230565b91608435906001600160401b0382116120b2576132f091600401613230565b9060a4359060c43590565b600a5481101561331657600a60005260206000200190600090565b634e487b7160e01b600052603260045260246000fd5b60125481101561331657601260005260206000200190600090565b60005b83811061335a5750506000910152565b818101518382015260200161334a565b9060209161338381518092818552858086019101613347565b601f01601f1916010190565b6003111561339957565b634e487b7160e01b600052602160045260246000fd5b9060028210156133995752565b908151815261016061345261340a6133e56020860151610180602087015261018086019061336a565b60408601516133f38161338f565b60408601526060860151858203606087015261336a565b6080850151608085015260a085015160a085015260c085015160c085015260e085015160e085015261010085015161010085015261012085015184820361012086015261336a565b926134676101408201516101408501906133af565b8101516001600160a01b031691015290565b90600182811c921680156134a9575b602083101461349357565b634e487b7160e01b600052602260045260246000fd5b91607f1691613488565b600092918154916134c383613479565b808352926001811690811561351957506001146134df57505050565b60009081526020812093945091925b8383106134ff575060209250010190565b6001816020929493945483858701015201910191906134ee565b915050602093945060ff929192191683830152151560051b010190565b80516001600160a01b0316825260208082015190830152604081015190919061355e8161338f565b6040820152610100806135826060850151610120606086015261012085019061336a565b936080810151608085015260a081015160a085015260c081015160c085015260e081015160e08501520151151591015290565b81601f820112156120b25780516135cb81613215565b926135d960405194856131f4565b818452602082840101116120b2576135f79160208085019101613347565b90565b519081151582036120b257565b51906001600160a01b03821682036120b257565b919091610220818403126120b2576040519061022082018281106001600160401b038211176131c25760405281938151835260208201516001600160401b0381116120b2578161366c9184016135b5565b60208401526040820151906001600160401b0382116120b2576136909183016135b5565b6040830152606081015160038110156120b25760608301526080810151608083015260a081015160a083015260c081015160c083015260e081015160e083015261010081015161010083015261012081015161012083015261014081015161014083015261370161016082016135fa565b6101608301526101808101516101808301526101a08101516101a08301526101c08101519060ff821682036120b257610200916101c08401526137476101e08201613607565b6101e084015201519060028210156120b2576102000152565b906020828203126120b25781516001600160401b0381116120b2576135f7920161361b565b8181029291811591840414171561379857565b634e487b7160e01b600052601160045260246000fd5b6001600160401b0381116131c25760051b60200190565b6020818303126120b2578051906001600160401b0382116120b2570181601f820112156120b2578051906137f8826137ae565b9261380660405194856131f4565b82845260208085019360051b830101918183116120b25760208101935b83851061383257505050505090565b84516001600160401b0381116120b257820190610180828503601f1901126120b25760405190613861826131d8565b6020830151825260408301516001600160401b0381116120b25785602061388a928601016135b5565b6020830152606083015160038110156120b257604083015260808301516001600160401b0381116120b2578560206138c4928601016135b5565b606083015260a0830151608083015260c083015160a083015260e083015160c083015261010083015160e08301526101208301516101008301526101408301516001600160401b0381116120b257856020613921928601016135b5565b6101208301526101608301519160028310156120b25761394e610180602095869561014085015201613607565b610160820152815201940193613823565b8051156133165760200190565b80518210156133165760209160051b010190565b81811061398b575050565b60008155600101613980565b9190820391821161379857565b9291906139bb60209160408652604086019061336a565b936139c58361338f565b0152565b156139d057565b60405162461bcd60e51b815260206004820152600e60248201526d139bdd08185d5d1a1bdc9a5e995960921b6044820152606490fd5b9190826101409103126120b25760405161014081018181106001600160401b038211176131c2576040528092613a3b81613607565b825260208101516020830152604081015160408301526060810151606083015260808101519060038210156120b25761012091608084015260a081015160a084015260c081015160c084015260e081015160e084015261010081015161010084015201519060028210156120b2576101200152565b9190820180921161379857565b15613ac457565b60405162461bcd60e51b815260206004820152601a60248201527f496e73756666696369656e7420636f7665722062616c616e63650000000000006044820152606490fd5b3d15613b34573d90613b1a82613215565b91613b2860405193846131f4565b82523d6000602084013e565b606090565b15613b4057565b60405162461bcd60e51b815260206004820152601c60248201527f4e6174697665206173736574207472616e73666572206661696c6564000000006044820152606490fd5b15613b8c57565b60405162461bcd60e51b8152602060048201526015602482015274115490cc8c081d1c985b9cd9995c8819985a5b1959605a1b6044820152606490fd5b15613bd057565b60405162461bcd60e51b815260206004820152601a60248201527f436f7665722076616c75652063616e6e6f74206265207a65726f0000000000006044820152606490fd5b90613c1f8161338f565b60ff80198354169116179055565b60405190613c3a826131d8565b600061016083828152606060208201528260408201526060808201528260808201528260a08201528260c08201528260e0820152826101008201526060610120820152826101408201520152565b60028210156133995752565b60001981146137985760010190565b60405190613cb0826131a6565b6000610100838281528260208201528260408201526060808201528260808201528260a08201528260c08201528260e08201520152565b6001546001600160a01b03163303613cfb57565b63118cdaa760e01b6000523360045260246000fd5b600260005414613d21576002600055565b633ee5aeb560e01b60005260046000fdfea2646970667358221220d83841357235b5b261b27c7fd84dcc4714929ba22661e0b27a80b098a741e04564736f6c634300081c0033",
  "linkReferences": {},
  "deployedLinkReferences": {}
}