{"contracts/InsurancePool.sol":{"InsurancePool":{"abi":[{"inputs":[{"internalType":"address","name":"_initialOwner","type":"address"}],"stateMutability":"nonpayable","type":"constructor"},{"inputs":[{"internalType":"address","name":"owner","type":"address"}],"name":"OwnableInvalidOwner","type":"error"},{"inputs":[{"internalType":"address","name":"account","type":"address"}],"name":"OwnableUnauthorizedAccount","type":"error"},{"inputs":[],"name":"ReentrancyGuardReentrantCall","type":"error"},{"anonymous":false,"inputs":[{"indexed":false,"internalType":"uint256","name":"","type":"uint256"},{"indexed":false,"internalType":"uint256","name":"","type":"uint256"},{"indexed":false,"internalType":"address","name":"","type":"address"}],"name":"ClaimAttempt","type":"event"},{"anonymous":false,"inputs":[{"indexed":true,"internalType":"address","name":"recipient","type":"address"},{"indexed":false,"internalType":"string","name":"pool","type":"string"},{"indexed":false,"internalType":"uint256","name":"amount","type":"uint256"}],"name":"ClaimPaid","type":"event"},{"anonymous":false,"inputs":[{"indexed":true,"internalType":"address","name":"user","type":"address"},{"indexed":false,"internalType":"uint256","name":"amount","type":"uint256"},{"indexed":false,"internalType":"string","name":"pool","type":"string"}],"name":"Deposited","type":"event"},{"anonymous":false,"inputs":[{"indexed":true,"internalType":"address","name":"previousOwner","type":"address"},{"indexed":true,"internalType":"address","name":"newOwner","type":"address"}],"name":"OwnershipTransferred","type":"event"},{"anonymous":false,"inputs":[{"indexed":true,"internalType":"uint256","name":"id","type":"uint256"},{"indexed":false,"internalType":"string","name":"poolName","type":"string"}],"name":"PoolCreated","type":"event"},{"anonymous":false,"inputs":[{"indexed":true,"internalType":"uint256","name":"poolId","type":"uint256"},{"indexed":false,"internalType":"uint256","name":"apy","type":"uint256"},{"indexed":false,"internalType":"uint256","name":"_minPeriod","type":"uint256"}],"name":"PoolUpdated","type":"event"},{"anonymous":false,"inputs":[{"indexed":true,"internalType":"address","name":"user","type":"address"},{"indexed":false,"internalType":"uint256","name":"amount","type":"uint256"},{"indexed":false,"internalType":"string","name":"pool","type":"string"}],"name":"Withdraw","type":"event"},{"inputs":[],"name":"ICoverContract","outputs":[{"internalType":"contract ICover","name":"","type":"address"}],"stateMutability":"view","type":"function"},{"inputs":[],"name":"IGovernanceContract","outputs":[{"internalType":"contract IGov","name":"","type":"address"}],"stateMutability":"view","type":"function"},{"inputs":[],"name":"IVaultContract","outputs":[{"internalType":"contract IVault","name":"","type":"address"}],"stateMutability":"view","type":"function"},{"inputs":[{"internalType":"uint256","name":"_poolId","type":"uint256"},{"components":[{"internalType":"uint256","name":"id","type":"uint256"},{"internalType":"string","name":"coverName","type":"string"},{"internalType":"enum CoverLib.RiskType","name":"riskType","type":"uint8"},{"internalType":"string","name":"chains","type":"string"},{"internalType":"uint256","name":"capacity","type":"uint256"},{"internalType":"uint256","name":"cost","type":"uint256"},{"internalType":"uint256","name":"capacityAmount","type":"uint256"},{"internalType":"uint256","name":"coverValues","type":"uint256"},{"internalType":"uint256","name":"maxAmount","type":"uint256"},{"internalType":"uint256","name":"poolId","type":"uint256"},{"internalType":"string","name":"CID","type":"string"}],"internalType":"struct CoverLib.Cover","name":"_cover","type":"tuple"}],"name":"addPoolCover","outputs":[],"stateMutability":"nonpayable","type":"function"},{"inputs":[],"name":"bqBTC","outputs":[{"internalType":"contract IbqBTC","name":"","type":"address"}],"stateMutability":"view","type":"function"},{"inputs":[],"name":"bqBTCAddress","outputs":[{"internalType":"address","name":"","type":"address"}],"stateMutability":"view","type":"function"},{"inputs":[{"internalType":"uint256","name":"_proposalId","type":"uint256"}],"name":"claimProposalFunds","outputs":[],"stateMutability":"nonpayable","type":"function"},{"inputs":[],"name":"coverContract","outputs":[{"internalType":"address","name":"","type":"address"}],"stateMutability":"view","type":"function"},{"inputs":[{"components":[{"internalType":"uint256","name":"poolId","type":"uint256"},{"internalType":"enum CoverLib.RiskType","name":"riskType","type":"uint8"},{"internalType":"string","name":"poolName","type":"string"},{"internalType":"uint256","name":"apy","type":"uint256"},{"internalType":"uint256","name":"minPeriod","type":"uint256"},{"internalType":"uint8","name":"leverage","type":"uint8"},{"internalType":"uint256","name":"investmentArm","type":"uint256"},{"internalType":"enum CoverLib.AssetDepositType","name":"adt","type":"uint8"},{"internalType":"address","name":"asset","type":"address"}],"internalType":"struct CoverLib.PoolParams","name":"params","type":"tuple"}],"name":"createPool","outputs":[],"stateMutability":"nonpayable","type":"function"},{"inputs":[{"internalType":"uint256","name":"_poolId","type":"uint256"}],"name":"deactivatePool","outputs":[],"stateMutability":"nonpayable","type":"function"},{"inputs":[{"components":[{"internalType":"address","name":"depositor","type":"address"},{"internalType":"uint256","name":"poolId","type":"uint256"},{"internalType":"uint256","name":"amount","type":"uint256"},{"internalType":"uint256","name":"period","type":"uint256"},{"internalType":"enum CoverLib.DepositType","name":"pdt","type":"uint8"},{"internalType":"enum CoverLib.AssetDepositType","name":"adt","type":"uint8"},{"internalType":"address","name":"asset","type":"address"}],"internalType":"struct CoverLib.DepositParams","name":"depositParam","type":"tuple"}],"name":"deposit","outputs":[{"internalType":"uint256","name":"","type":"uint256"},{"internalType":"uint256","name":"","type":"uint256"}],"stateMutability":"payable","type":"function"},{"inputs":[],"name":"getAllParticipants","outputs":[{"internalType":"address[]","name":"","type":"address[]"}],"stateMutability":"view","type":"function"},{"inputs":[],"name":"getAllPools","outputs":[{"components":[{"internalType":"uint256","name":"id","type":"uint256"},{"internalType":"string","name":"poolName","type":"string"},{"internalType":"enum CoverLib.RiskType","name":"riskType","type":"uint8"},{"internalType":"uint256","name":"apy","type":"uint256"},{"internalType":"uint256","name":"minPeriod","type":"uint256"},{"internalType":"uint256","name":"tvl","type":"uint256"},{"internalType":"uint256","name":"baseValue","type":"uint256"},{"internalType":"uint256","name":"coverTvl","type":"uint256"},{"internalType":"uint256","name":"tcp","type":"uint256"},{"internalType":"bool","name":"isActive","type":"bool"},{"internalType":"uint256","name":"percentageSplitBalance","type":"uint256"},{"internalType":"uint256","name":"investmentArmPercent","type":"uint256"},{"internalType":"uint8","name":"leverage","type":"uint8"},{"internalType":"address","name":"asset","type":"address"},{"internalType":"enum CoverLib.AssetDepositType","name":"assetType","type":"uint8"}],"internalType":"struct CoverLib.Pool[]","name":"","type":"tuple[]"}],"stateMutability":"view","type":"function"},{"inputs":[{"internalType":"uint256","name":"_poolId","type":"uint256"}],"name":"getPool","outputs":[{"components":[{"internalType":"uint256","name":"id","type":"uint256"},{"internalType":"string","name":"poolName","type":"string"},{"internalType":"enum CoverLib.RiskType","name":"riskType","type":"uint8"},{"internalType":"uint256","name":"apy","type":"uint256"},{"internalType":"uint256","name":"minPeriod","type":"uint256"},{"internalType":"uint256","name":"tvl","type":"uint256"},{"internalType":"uint256","name":"baseValue","type":"uint256"},{"internalType":"uint256","name":"coverTvl","type":"uint256"},{"internalType":"uint256","name":"tcp","type":"uint256"},{"internalType":"bool","name":"isActive","type":"bool"},{"internalType":"uint256","name":"percentageSplitBalance","type":"uint256"},{"internalType":"uint256","name":"investmentArmPercent","type":"uint256"},{"internalType":"uint8","name":"leverage","type":"uint8"},{"internalType":"address","name":"asset","type":"address"},{"internalType":"enum CoverLib.AssetDepositType","name":"assetType","type":"uint8"}],"internalType":"struct CoverLib.Pool","name":"","type":"tuple"}],"stateMutability":"view","type":"function"},{"inputs":[{"internalType":"uint256","name":"_poolId","type":"uint256"}],"name":"getPoolCovers","outputs":[{"components":[{"internalType":"uint256","name":"id","type":"uint256"},{"internalType":"string","name":"coverName","type":"string"},{"internalType":"enum CoverLib.RiskType","name":"riskType","type":"uint8"},{"internalType":"string","name":"chains","type":"string"},{"internalType":"uint256","name":"capacity","type":"uint256"},{"internalType":"uint256","name":"cost","type":"uint256"},{"internalType":"uint256","name":"capacityAmount","type":"uint256"},{"internalType":"uint256","name":"coverValues","type":"uint256"},{"internalType":"uint256","name":"maxAmount","type":"uint256"},{"internalType":"uint256","name":"poolId","type":"uint256"},{"internalType":"string","name":"CID","type":"string"}],"internalType":"struct CoverLib.Cover[]","name":"","type":"tuple[]"}],"stateMutability":"view","type":"function"},{"inputs":[{"internalType":"uint256","name":"_poolId","type":"uint256"}],"name":"getPoolTVL","outputs":[{"internalType":"uint256","name":"","type":"uint256"}],"stateMutability":"view","type":"function"},{"inputs":[{"internalType":"address","name":"_userAddress","type":"address"}],"name":"getPoolsByAddress","outputs":[{"components":[{"internalType":"string","name":"poolName","type":"string"},{"internalType":"uint256","name":"poolId","type":"uint256"},{"internalType":"uint256","name":"dailyPayout","type":"uint256"},{"internalType":"uint256","name":"depositAmount","type":"uint256"},{"internalType":"uint256","name":"apy","type":"uint256"},{"internalType":"uint256","name":"minPeriod","type":"uint256"},{"internalType":"uint256","name":"tvl","type":"uint256"},{"internalType":"uint256","name":"tcp","type":"uint256"},{"internalType":"bool","name":"isActive","type":"bool"},{"internalType":"uint256","name":"accruedPayout","type":"uint256"}],"internalType":"struct CoverLib.PoolInfo[]","name":"","type":"tuple[]"}],"stateMutability":"view","type":"function"},{"inputs":[{"internalType":"uint256","name":"_poolId","type":"uint256"},{"internalType":"address","name":"_user","type":"address"}],"name":"getUserDeposit","outputs":[{"components":[{"internalType":"address","name":"lp","type":"address"},{"internalType":"uint256","name":"amount","type":"uint256"},{"internalType":"uint256","name":"poolId","type":"uint256"},{"internalType":"uint256","name":"dailyPayout","type":"uint256"},{"internalType":"enum CoverLib.Status","name":"status","type":"uint8"},{"internalType":"uint256","name":"daysLeft","type":"uint256"},{"internalType":"uint256","name":"startDate","type":"uint256"},{"internalType":"uint256","name":"expiryDate","type":"uint256"},{"internalType":"uint256","name":"accruedPayout","type":"uint256"},{"internalType":"enum CoverLib.DepositType","name":"pdt","type":"uint8"}],"internalType":"struct CoverLib.Deposits","name":"","type":"tuple"}],"stateMutability":"view","type":"function"},{"inputs":[{"internalType":"address","name":"user","type":"address"}],"name":"getUserParticipation","outputs":[{"internalType":"uint256","name":"","type":"uint256"}],"stateMutability":"view","type":"function"},{"inputs":[],"name":"governance","outputs":[{"internalType":"address","name":"","type":"address"}],"stateMutability":"view","type":"function"},{"inputs":[{"internalType":"uint256","name":"_poolId","type":"uint256"},{"internalType":"uint256","name":"__poolPercentageSplit","type":"uint256"}],"name":"increasePercentageSplit","outputs":[],"stateMutability":"nonpayable","type":"function"},{"inputs":[],"name":"initialOwner","outputs":[{"internalType":"address","name":"","type":"address"}],"stateMutability":"view","type":"function"},{"inputs":[],"name":"owner","outputs":[{"internalType":"address","name":"","type":"address"}],"stateMutability":"view","type":"function"},{"inputs":[{"internalType":"uint256","name":"","type":"uint256"}],"name":"participants","outputs":[{"internalType":"address","name":"","type":"address"}],"stateMutability":"view","type":"function"},{"inputs":[{"internalType":"address","name":"","type":"address"}],"name":"participation","outputs":[{"internalType":"uint256","name":"","type":"uint256"}],"stateMutability":"view","type":"function"},{"inputs":[{"internalType":"uint256","name":"poolId","type":"uint256"}],"name":"poolActive","outputs":[{"internalType":"bool","name":"","type":"bool"}],"stateMutability":"view","type":"function"},{"inputs":[],"name":"poolCount","outputs":[{"internalType":"uint256","name":"","type":"uint256"}],"stateMutability":"view","type":"function"},{"inputs":[{"internalType":"uint256","name":"_poolId","type":"uint256"}],"name":"poolWithdraw","outputs":[],"stateMutability":"nonpayable","type":"function"},{"inputs":[{"internalType":"uint256","name":"","type":"uint256"}],"name":"pools","outputs":[{"internalType":"uint256","name":"id","type":"uint256"},{"internalType":"string","name":"poolName","type":"string"},{"internalType":"enum CoverLib.RiskType","name":"riskType","type":"uint8"},{"internalType":"uint256","name":"apy","type":"uint256"},{"internalType":"uint256","name":"minPeriod","type":"uint256"},{"internalType":"uint256","name":"tvl","type":"uint256"},{"internalType":"uint256","name":"baseValue","type":"uint256"},{"internalType":"uint256","name":"coverTvl","type":"uint256"},{"internalType":"uint256","name":"tcp","type":"uint256"},{"internalType":"bool","name":"isActive","type":"bool"},{"internalType":"uint256","name":"percentageSplitBalance","type":"uint256"},{"internalType":"uint256","name":"investmentArmPercent","type":"uint256"},{"internalType":"uint8","name":"leverage","type":"uint8"},{"internalType":"address","name":"asset","type":"address"},{"internalType":"enum CoverLib.AssetDepositType","name":"assetType","type":"uint8"}],"stateMutability":"view","type":"function"},{"inputs":[{"internalType":"uint256","name":"_poolId","type":"uint256"},{"internalType":"uint256","name":"__poolPercentageSplit","type":"uint256"}],"name":"reducePercentageSplit","outputs":[],"stateMutability":"nonpayable","type":"function"},{"inputs":[],"name":"renounceOwnership","outputs":[],"stateMutability":"nonpayable","type":"function"},{"inputs":[{"internalType":"address","name":"_coverContract","type":"address"}],"name":"setCover","outputs":[],"stateMutability":"nonpayable","type":"function"},{"inputs":[{"internalType":"address","name":"_governance","type":"address"}],"name":"setGovernance","outputs":[],"stateMutability":"nonpayable","type":"function"},{"inputs":[{"internalType":"address","name":"_vaultContract","type":"address"}],"name":"setVault","outputs":[],"stateMutability":"nonpayable","type":"function"},{"inputs":[{"internalType":"address","name":"newOwner","type":"address"}],"name":"transferOwnership","outputs":[],"stateMutability":"nonpayable","type":"function"},{"inputs":[{"internalType":"uint256","name":"_poolId","type":"uint256"},{"internalType":"uint256","name":"_apy","type":"uint256"},{"internalType":"uint256","name":"_minPeriod","type":"uint256"}],"name":"updatePool","outputs":[],"stateMutability":"nonpayable","type":"function"},{"inputs":[{"internalType":"uint256","name":"_poolId","type":"uint256"},{"components":[{"internalType":"uint256","name":"id","type":"uint256"},{"internalType":"string","name":"coverName","type":"string"},{"internalType":"enum CoverLib.RiskType","name":"riskType","type":"uint8"},{"internalType":"string","name":"chains","type":"string"},{"internalType":"uint256","name":"capacity","type":"uint256"},{"internalType":"uint256","name":"cost","type":"uint256"},{"internalType":"uint256","name":"capacityAmount","type":"uint256"},{"internalType":"uint256","name":"coverValues","type":"uint256"},{"internalType":"uint256","name":"maxAmount","type":"uint256"},{"internalType":"uint256","name":"poolId","type":"uint256"},{"internalType":"string","name":"CID","type":"string"}],"internalType":"struct CoverLib.Cover","name":"_cover","type":"tuple"}],"name":"updatePoolCovers","outputs":[],"stateMutability":"nonpayable","type":"function"},{"inputs":[],"name":"vaultContract","outputs":[{"internalType":"address","name":"","type":"address"}],"stateMutability":"view","type":"function"},{"inputs":[{"internalType":"uint256","name":"_vaultId","type":"uint256"}],"name":"vaultWithdraw","outputs":[],"stateMutability":"nonpayable","type":"function"},{"inputs":[{"internalType":"address","name":"depositor","type":"address"},{"internalType":"uint256","name":"_poolId","type":"uint256"},{"internalType":"enum CoverLib.DepositType","name":"pdt","type":"uint8"}],"name":"withdrawUpdate","outputs":[],"stateMutability":"nonpayable","type":"function"}],"evm":{"bytecode":{"linkReferences":{},"object":"60803460d657601f61456038819003918201601f19168301916001600160401b0383118484101760db5780849260209460405283398101031260d657516001600160a01b0381169081900360d6576001600055801560c057600180546001600160a01b031981168317909155604051919081906001600160a01b03167f8be0079c531659141344cd1fd0a4f28419497f9722a3daafe3b4186f6b6457e0600080a3600e80546001600160a01b03191691909117905561446e90816100f28239f35b631e4fbdf760e01b600052600060045260246000fd5b600080fd5b634e487b7160e01b600052604160045260246000fdfe60a0604052600436101561001257600080fd5b60003560e01c8063068bcd8d1461353a578063195ec9ee1461346e5780632274346b14613445578063248a75b71461341c57806325f11e8d146133e85780632607b53914612bac57806329ba7bb214612b83578063318667631461271a57806334808ec3146126f157806335c1d349146126af5780633dc66ad31461234f57806346f84795146115ad5780634e055244146120a15780635aa6e675146120785780635cfab35c14611cdc5780636817031b14611be85780636f60537d14611bbf578063715018a614611b625780637c366cc614611a855780637eb111f01461196c57806383bc63571461163f5780638da5cb5b146116165780638f244630146115e757806396f3a8ad146115ad578063996b8a6f146115845780639abd9b05146115305780639fd36b15146114d5578063a14764d01461143a578063a4948d85146113db578063ab033ea9146112ec578063ac4afa38146111ce578063b5d90c28146111a5578063c7aa987414611117578063d86c044414610fb8578063d88ff1f414610cb9578063e35f81291461079d578063f2fde38b14610713578063f525cb68146106f5578063f6e80558146106cc5763fb839dda146101d457600080fd5b346103ab5760203660031901126103ab576004356101f06143cd565b600854604051632bb2b24360e11b8152600481018390523360248201526001600160a01b039091169061012081604481855afa8015610360576020916000916106ad575b50019081511561066857600060249160405192838092632500ed8d60e21b82528760048301525afa908115610360576000916103e0575b50600160c082015161027c816136a9565b610285816136a9565b036103b85760e00151905160405163a9059cbb60e01b8152336004820152602481019190915290602090829060449082906000906001600160a01b03165af19081156103605760009161036c575b5061031b916102e461012092613d33565b600854604051632bb2b24360e11b81526004810192909252336024830152909283916001600160a01b031690829081906044820190565b03915afa801561036057610331575b6001600055005b610352906101203d8111610359575b61034a818361380e565b81019061434a565b503861032a565b503d610340565b6040513d6000823e3d90fd5b90506020813d6020116103b0575b816103876020938361380e565b810103126103ab5761031b916102e46103a261012093613b38565b925050916102d3565b600080fd5b3d915061037a565b5061031b916103db60008080806101209651335af16103d5613cb7565b50613ce7565b6102e4565b903d8082843e6103f0818461380e565b820191602081840312610664578051906001600160401b03821161064c57019061010082840312610514576040519261010084018481106001600160401b03821117610650576040528251845260208301516001600160401b03811161064c578161045c918501614308565b602085015260408301516001600160401b03811161064c5783019080601f8301121561064c5781519161048e83613bba565b9261049c604051948561380e565b80845260208085019160051b830101918383116106485760208101915b8383106105175750505050506040840152606082015160608401526080820151608084015260a082015160a084015260c0820151906002821015610514575060c08301526105099060e0016142f4565b60e08201523861026b565b80fd5b82516001600160401b0381116106445782016101e0818703601f190112610644576040519061054582613783565b6020810151825260408101516001600160401b0381116106405787602061056e92840101614308565b6020830152606081015160038110156106405760408301526080810151606083015260a0810151608083015260c081015160a083015260e081015160c083015261010081015160e08301526101208101516101008301526105d26101408201613b38565b6101208301526101608101516101408301526101808101516101608301526101a081015160ff81168103610640576101808301526101e0906106176101c082016142f4565b6101a08401520151600281101561063c576101c08201528152602092830192016104b9565b8880fd5b8980fd5b8780fd5b8580fd5b8280fd5b634e487b7160e01b83526041600452602483fd5b5080fd5b60405162461bcd60e51b815260206004820152601d60248201527f4e6f20616374697665207769746864726177616c20666f7220757365720000006044820152606490fd5b6106c691506101203d81116103595761034a818361380e565b38610234565b346103ab5760003660031901126103ab576007546040516001600160a01b039091168152602090f35b346103ab5760003660031901126103ab576020600554604051908152f35b346103ab5760203660031901126103ab5761072c61382f565b6107346143ef565b6001600160a01b0316801561078757600180546001600160a01b0319811683179091556001600160a01b03167f8be0079c531659141344cd1fd0a4f28419497f9722a3daafe3b4186f6b6457e0600080a3005b631e4fbdf760e01b600052600060045260246000fd5b346103ab5760203660031901126103ab5760006004356107bb6143cd565b600954604051633b4d01a760e01b81526004810183905292908390602490829084906001600160a01b03165af191821561036057600092610b55575b506101008201519060c0830151926005841015610b3f576002600094149081610b31575b5015610af45760a082018051845260046020526040842083516001600160a01b03163303610ab85761085360ff600983015416613e82565b6005810180549360c086019182518610610a73576108878896845161087d60088801918254613b2b565b9055845190613b58565b90556108938451613d77565b93855b8551811015610911576007546001600160a01b0316906108b68188613b7d565b5151823b1561063c57889260248492604051958693849263106b5da160e01b845260048401525af191821561090657886001936108f6575b505001610896565b6108ff9161380e565b8a886108ee565b6040513d8a823e3d90fd5b50919350919460018060a01b036009541692833b1561064857859360248592604051968793849263f1b4bf9d60e01b845260048401525af1918215610a68577feef4955e8b18dcb6d1c19905b7b86e5fe56138ad1ce2c5e540ce4e959312f5119386606094610a58575b5050519084519060018060a01b039051169060405192835260208301526040820152a160018060a01b03600a54168151813b15610a5457604051637104a76d60e11b8152336004820152602481019190915292908390604490829084905af191848315610a48577f415071086c9ea63f7f39884c21a8af430af53bfd511a362dff69cabcb1b8bcc193610a38575b50505191610a2560405191604083526001604084019101613a39565b9260208201528033930390a26001815580f35b610a419161380e565b8484610a09565b604051903d90823e3d90fd5b8380fd5b610a619161380e565b888661097b565b6040513d87823e3d90fd5b60405162461bcd60e51b815260206004820152601c60248201527f4e6f7420656e6f7567682066756e647320696e2074686520706f6f6c000000006044820152606490fd5b60405162461bcd60e51b8152602060048201526014602482015273139bdd0818481d985b1a59081c1c9bdc1bdcd85b60621b6044820152606490fd5b60405162461bcd60e51b8152602060048201526015602482015274141c9bdc1bdcd85b081b9bdd08185c1c1c9bdd9959605a1b6044820152606490fd5b60e09150015115158461081b565b634e487b7160e01b600052602160045260246000fd5b90913d8082843e610b66818461380e565b820191602081840312610664578051906001600160401b03821161064c570191610120838203126106645760405192610b9e846137f2565b805184526020810151602085015260408101516040850152606081015160608501526080810151608085015260a081015160a085015260c08101516005811015610a545760c0850152610bf360e08201613b38565b60e0850152610100810151906001600160401b038211610a5457019060e08282031261064c5760405192610c268461379f565b610c2f836142f4565b8452602083015160038110156106645760208501526040830151604085015260608301516001600160401b0381116106645782610c6d918501614308565b60608501526080830151906001600160401b03821161051457508291610c969160c09401614308565b608084015260a081015160a0840152015160c082015261010082015290826107f7565b346103ab5760003660031901126103ab57600554610cd681613bba565b90610ce4604051928361380e565b808252601f19610cf382613bba565b0160005b818110610fa157505060015b81811115610d7357826040518091602082016020835281518091526040830190602060408260051b8601019301916000905b828210610d4457505050500390f35b91936001919395506020610d638192603f198a820301865288516136b3565b9601920192018594939192610d35565b80600052600460205280604060002060405190610d8f82613783565b8054825260405180610da48160018501613a39565b03610daf908261380e565b60208301908152600282015460ff16916040840192610dcd8161369f565b8352600381015460608501908152600482015460808601908152600583015460a08701908152600684015460c0880190815260078501549060e089019182526008860154926101008a01938452600987015460ff16946101208b019515158652600a880154966101408c01978852600b890154986101608d01998a52600c01549a8b9a8d61018081019c60ff168d526101a0019c8d600160a01b600190038260081c16905260a81c60ff169d6101c0019d8e610e88826136a9565b5251905191610e968361369f565b519251935194519551965197511515985199519a5160ff169b600160a01b600190039051169c519d610ec78f6136a9565b604051608052608051610ed990613783565b6080515260805160200152610eed8161369f565b60805160400152608051606001526080516080015260805160a0015260805160c0015260805160e00152608051610100015260805161012001526080516101400152608051610160015260805161018001526080516101a00152610f50816136a9565b6080516101c00152600019810190808211610f8b57610f80610f8692608051610f798288613b7d565b5285613b7d565b50613bab565b610d03565b634e487b7160e01b600052601160045260246000fd5b602090610fac613abc565b82828701015201610cf7565b346103ab5760603660031901126103ab57600435602435604435610fda6143ef565b82600052600460205260ff60096040600020015416156110c7578115611094578015611056577f17b8644f386d1c7c7138ef98b3c8035622bbe94d7be9b26f71d2654a547c29439160409184600052600460205281600384600020015584600052600460205280600484600020015582519182526020820152a2005b60405162461bcd60e51b8152602060048201526016602482015275125b9d985b1a59081b5a5b9a5b5d5b481c195c9a5bd960521b6044820152606490fd5b60405162461bcd60e51b815260206004820152600b60248201526a496e76616c69642041505960a81b6044820152606490fd5b60405162461bcd60e51b815260206004820152602260248201527f506f6f6c20646f6573206e6f74206578697374206f7220697320696e61637469604482015261766560f01b6064820152608490fd5b346103ab57611125366138ee565b9060018060a01b03600c541633148015611191575b61114390613ec3565b6000526003602052604060002090815491600160401b83101561117b578261117391600161117995018155613f0e565b90613f2a565b005b634e487b7160e01b600052604160045260246000fd5b50600e546001600160a01b0316331461113a565b346103ab5760003660031901126103ab576009546040516001600160a01b039091168152602090f35b346103ab5760203660031901126103ab57600435600052600460205260406000208054604051918280600183019061120591613a39565b03611210908461380e565b600281015460ff1690600381015490600481015490600581015460068201546007830154600884015490600985015460ff1692600a86015494600b87015496600c0154978860a81c60ff16996040519d8e9d8e528d602081016101e090526101e00161127b9161367a565b9b8d6112868261369f565b6040015260608d015260808c015260a08b015260c08a015260e0890152610100880152151561012087015261014086015261016085015260ff811661018085015260081c6001600160a01b03166101a08401526112e2816136a9565b6101c08301520390f35b346103ab5760203660031901126103ab5761130561382f565b61130d6143ef565b600654906001600160a01b03821661139d576001600160a01b031690811561134e576001600160a01b03199081168217600655600980549091169091179055005b60405162461bcd60e51b815260206004820152602160248201527f476f7665726e616e636520616464726573732063616e6e6f74206265207a65726044820152606f60f81b6064820152608490fd5b60405162461bcd60e51b815260206004820152601660248201527511dbdd995c9b985b98d948185b1c9958591e481cd95d60521b6044820152606490fd5b346103ab576113e9366138d8565b9060018060a01b03600c541633148015611426575b61140790613ec3565b6000526004602052611422600a604060002001918254613b58565b9055005b50600e546001600160a01b031633146113fe565b346103ab57611448366138ee565b600c546001600160a01b0316331480156114c1575b61146690613ec3565b60005b82600052600360205260406000205481101561117957826000526003602052611496816040600020613f0e565b50548251146114a757600101611469565b611173906111799360005260036020526040600020613f0e565b50600e546001600160a01b0316331461145d565b346103ab576114e3366138d8565b9060018060a01b03600c54163314801561151c575b61150190613ec3565b6000526004602052611422600a604060002001918254613b2b565b50600e546001600160a01b031633146114f8565b346103ab5760203660031901126103ab5760043561154c6143ef565b80600052600460205261156960ff60096040600020015416613e82565b6000908152600460205260409020600901805460ff19169055005b346103ab5760003660031901126103ab57600b546040516001600160a01b039091168152602090f35b346103ab5760203660031901126103ab576001600160a01b036115ce61382f565b1660005260106020526020604060002054604051908152f35b346103ab5760203660031901126103ab5760043560005260046020526020600560406000200154604051908152f35b346103ab5760003660031901126103ab576001546040516001600160a01b039091168152602090f35b346103ab5760603660031901126103ab5761165861382f565b60243560443560028110156103ab5761166f6143cd565b600d546001600160a01b031633148015611958575b156119145781600052600460205260406000209260018060a01b0316908160005260026020526040600020836000526020526040600020906116c5816136a9565b60005260205260406000209161174660018401938454906116e7821515613bd1565b60016004820191611716600784549261170c60ff85166117068161369f565b15613c27565b0154421015613c6b565b60ff191617905561172c60058701918254613b58565b809155606461173f82600b890154613b45565b0490613b58565b61175760ff600c8701541682613b45565b600786015560068501556000526003602052604060002092835461177a81613bba565b94611788604051968761380e565b818652602086019060005260206000206000915b83831061184a575050505060005b845181101561181a576007546001600160a01b0316906117ca8187613b7d565b5151823b156103ab5760009260248492604051958693849263106b5da160e01b845260048401525af191821561036057600192611809575b50016117aa565b60006118149161380e565b86611802565b506001600080516020614419833981519152916118408554604051938493019083613b91565b0390a26001600055005b600b602060019260405161185d816137d6565b8554815260405161187b8161187481898b01613a39565b038261380e565b8382015260ff6002870154166118908161369f565b60408201526040516118a9816118748160038b01613a39565b606082015260048601546080820152600586015460a0820152600686015460c0820152600786015460e0820152600886015461010082015260098601546101208201526040516119008161187481600a8b01613a39565b61014082015281520192019201919061179c565b606460405162461bcd60e51b815260206004820152602060248201527f43616c6c6572206973206e6f7420746865207661756c7420636f6e74726163746044820152fd5b50600e546001600160a01b03163314611684565b346103ab5760203660031901126103ab57611988600435613d77565b6040518091602082016020835281518091526040830190602060408260051b8601019301916000905b8282106119c057505050500390f35b91936001919395506020611a758192603f198a820301865288519081518152610140611a236119fe868501516101608886015261016085019061367a565b6040850151611a0c8161369f565b60408501526060850151848203606086015261367a565b926080810151608084015260a081015160a084015260c081015160c084015260e081015160e084015261010081015161010084015261012081015161012084015201519061014081840391015261367a565b96019201920185949391926119b1565b346103ab5760203660031901126103ab57611a9e61382f565b611aa66143ef565b600c54906001600160a01b038216611b29576001600160a01b0316908115611ae457600780546001600160a01b031990811684179091551617600c55005b60405162461bcd60e51b815260206004820152601c60248201527f436f76657220616464726573732063616e6e6f74206265207a65726f000000006044820152606490fd5b60405162461bcd60e51b815260206004820152601160248201527010dbdd995c88185b1c9958591e481cd95d607a1b6044820152606490fd5b346103ab5760003660031901126103ab57611b7b6143ef565b600180546001600160a01b031981169091556000906001600160a01b03167f8be0079c531659141344cd1fd0a4f28419497f9722a3daafe3b4186f6b6457e08280a3005b346103ab5760003660031901126103ab576008546040516001600160a01b039091168152602090f35b346103ab5760203660031901126103ab57611c0161382f565b611c096143ef565b600d546001600160a01b0316611ca3576001600160a01b03168015611c5e57806bffffffffffffffffffffffff60a01b60085416176008556bffffffffffffffffffffffff60a01b600c541617600c55600080f35b60405162461bcd60e51b815260206004820152601c60248201527f5661756c7420616464726573732063616e6e6f74206265207a65726f000000006044820152606490fd5b60405162461bcd60e51b815260206004820152601160248201527015985d5b1d08185b1c9958591e481cd95d607a1b6044820152606490fd5b346103ab5760203660031901126103ab576004356001600160401b0381116103ab5761012060031982360301126103ab5760405190611d1a826137f2565b80600401358252602481013560038110156103ab576020830190815260448201356001600160401b0381116103ab57611d599060043691850101613891565b9260408101938452606081019160648401358352608082016084850135815260a48501359160ff831683036103ab5760a0840192835260c084019160c4870135835260e48701359660028810156103ab5760e0860197885261010401356001600160a01b03811681036103ab576101008601908152611dd66143ef565b8751611de1816136a9565b611dea816136a9565b15908115612064575b501561201f5760055460018101809111610f8b576005558451600052600460205260406000209585518755885160018801908051906001600160401b03821161117b57611e4083546139ff565b601f8111611fd7575b50602090601f8311600114611f66579180611ec596949260ff99989694600092611f5b575b50508160011b916000199060031b1c19161790555b516003890155516004880155600060058801556000600788015560006006880155600987016001851982541617905551611ebc8161369f565b60028701613b65565b519182600b860155511690600c8401918254916064039560648711610f8b577ff01906dc0ac306fa816e50166a7ed46af1f05721cb90cea30beebdd8dede3a6d96600a611f5697015551611f18816136a9565b611f21816136a9565b60ff60ff60a81b01199092161760a89190911b60ff60a81b16179055519251604051602080825290928392909183019061367a565b0390a2005b015190508e80611e6e565b90601f1983169184600052816000209260005b818110611fbf575092600192859260ff9b9a9896611ec59a989610611fa6575b505050811b019055611e83565b015160001960f88460031b161c191690558e8080611f99565b92936020600181928786015181550195019301611f79565b836000526020600020601f840160051c81019160208510612015575b601f0160051c01905b8181106120095750611e49565b60008155600101611ffc565b9091508190611ff3565b60405162461bcd60e51b815260206004820152601760248201527f57726f6e6720417373657420666f72204465706f7369740000000000000000006044820152606490fd5b516001600160a01b03161515905089611df3565b346103ab5760003660031901126103ab576006546040516001600160a01b039091168152602090f35b346103ab5760403660031901126103ab576004356024356001600160a01b0381168082036103ab5760006101206040516120da816137ba565b8281528260208201528260408201528260608201528260808201528260a08201528260c08201528260e082015282610100820152015260005260026020526040600020826000526020526040600020600080526020526040600020906040518092612144826137ba565b80546001600160a01b03168252600181015460208301908152600282015460408401908152600383015460608501908152600484015492979260808601919060ff1661218f8161369f565b825260058501549260a0870193845261221e602060068801549660c08a0197885260ff600960078b01549a60e08d019b8c5261010060088201549d019c8d520154169a6101208d019b6121e1816136a9565b8c52600754604051630414960560e21b81526001600160a01b03928316600482015260248101939093529193849290911690829081906044820190565b03915afa9081156103605760009161231d575b508061230e575061225d61012c61225587515b428a51804211612306575b50613b58565b048351613b45565b875285514281116122d0575061014099600085525b604080519a516001600160a01b03168b52905160208b0152905190890152516060880152516122a08161369f565b60808701525160a08601525160c08501525160e084015251610100830152516122c8816136a9565b610120820152f35b6122db904290613b58565b99620151808b019a8b8111610f8b576201517f019a8b11610f8b57620151806101409b048552612272565b90508f61224f565b61012c61225561225d92612244565b906020823d602011612347575b816123376020938361380e565b810103126105145750518b612231565b3d915061232a565b346103ab5760203660031901126103ab5760043561236b6143cd565b8060005260046020526040600020903360005260026020526040600020816000526020526040600020600080526020526040600020916123ff60018401938454906123b7821515613bd1565b600260048201916123d6600784549261170c60ff85166117068161369f565b60ff19161790556123ec60058401918254613b58565b809155606461173f82600b860154613b45565b91600c82019261241360ff85541682613b45565b600784015560068301556000526003602052604060002092835461243681613bba565b94612444604051968761380e565b818652602086019060005260206000206000915b8383106125ec575050505060005b84518110156124d6576007546001600160a01b0316906124868187613b7d565b5151823b156103ab5760009260248492604051958693849263106b5da160e01b845260048401525af1918215610360576001926124c5575b5001612466565b60006124d09161380e565b866124be565b5082600160ff825460a81c166124eb816136a9565b036125be5754815460405163a9059cbb60e01b8152336004820152602481019190915290602090829060081c6001600160a01b0316816000816044810103925af19081156103605760009161256b575b506000805160206144198339815191529161255861184092613d33565b5460405191829160013396019083613b91565b90506020813d6020116125b6575b816125866020938361380e565b810103126103ab57600080516020614419833981519152916125586125ad61184093613b38565b9250509161253b565b3d9150612579565b50611840816125e760008080806000805160206144198339815191529754335af16103d5613cb7565b612558565b600b60206001926040516125ff816137d6565b855481526040516126168161187481898b01613a39565b8382015260ff60028701541661262b8161369f565b6040820152604051612644816118748160038b01613a39565b606082015260048601546080820152600586015460a0820152600686015460c0820152600786015460e08201526008860154610100820152600986015461012082015260405161269b8161187481600a8b01613a39565b610140820152815201920192019190612458565b346103ab5760203660031901126103ab57600435600f548110156103ab576126d8602091613845565b905460405160039290921b1c6001600160a01b03168152f35b346103ab5760003660031901126103ab57600a546040516001600160a01b039091168152602090f35b346103ab5760203660031901126103ab5761273361382f565b600554600091906001600160a01b03821660015b82811115612b2b575061275984613bba565b93612767604051958661380e565b808552612776601f1991613bba565b0160005b818110612ac65750506007546001600160a01b03169260009060015b8481111561287057866040518091602082016020835281518091526040830190602060408260051b8601019301916000905b8282106127d757505050500390f35b919360019193955060208091603f19898203018552875190610120806128088451610140855261014085019061367a565b93858101518685015260408101516040850152606081015160608501526080810151608085015260a081015160a085015260c081015160c085015260e081015160e08501526101008101511515610100850152015191015296019201920185949391926127c8565b806000526004602052604060002084600052600260205260406000208260005260205260406000206000805260205260406000206040516128b0816137ba565b60018060a01b038254168152600182015460208201526002820154604082015261012060ff600960038501549460608501958652826004820154166128f48161369f565b6080860152600581015460a0860152600681015460c0860152600781015460e086015260088101546101008601520154169161292f836136a9565b01526040516339e671f760e11b81526001600160a01b0385166004820152602481018490526020816044818c5afa90811561036057600091612a93575b506129779151613b45565b8560005260026020526040600020836000526020526040600020600080526020526001604060002001546129b6575b50506129b190613bab565b612796565b600086815260026020908152604080832086845282528083208380529091529081902060038082015460019092015490850154600486015460058701546008880154600989015496519b9860ff90971696909591949293929190612a198d6137ba565b60405180600181930190612a2c91613a39565b03612a37908261380e565b8c528960208d015260408c015260608b015260808a015260a089015260c088015260e0870152151561010086015261012085015280612a7590613bab565b93612a80828a613b7d565b52612a8b9088613b7d565b5087806129a6565b906020823d8211612abe575b81612aac6020938361380e565b8101031261051457505161297761296c565b3d9150612a9f565b602090604095949551612ad8816137ba565b60608152600083820152600060408201526000606082015260006080820152600060a0820152600060c0820152600060e0820152600061010082015260006101208201528282890101520193929361277a565b816000949394526002602052604060002081600052602052604060002060008052602052600160406000200154612b6e575b612b6690613bab565b929192612747565b93612b7b612b6691613bab565b949050612b5d565b346103ab5760003660031901126103ab57600e546040516001600160a01b039091168152602090f35b60e03660031901126103ab576040516000612bc68261379f565b612bce61382f565b8252602082019160243583526040810160443581526060820190606435825260843560028110156133e4576080840190815260a4359160028310156106485760a0850192835260c435936001600160a01b03851685036133e05760c08601948552612c376143cd565b875187526004602052604087209460ff6009870154161561339057600c860194855460ff8160a81c169151612c6b816136a9565b612c74816136a9565b612c7d836136a9565b820361333c5783516004890154106133045782516001600160a01b0390811660089290921c16036132bf5787516001600160a01b03168952600260209081526040808b208c518c5290915289208551612cd5816136a9565b612cde816136a9565b8a52602052600160408a20015461326857600190612cfb816136a9565b0361320b578251156131c65751865183516040516323b872dd60e01b81526001600160a01b039283166004820152306024820152604481019190915291602091839160649183918d91165af180156109065761318f575b508151612d6460058701918254613b2b565b90558151935b612d9060ff612d876005890154606461173f82600b8d0154613b45565b92541682613b45565b6007870155600686015561016d6064612dad600388015487613b45565b04049260018060a01b03875116908951925162015180810281810462015180148215171561317b5792612f2194926009928b612dee8e9f979e9d9e42613b2b565b918d8c8c865199612dfe8b6136a9565b60405198612e0b8a6137ba565b8952602089019283526040890190815260608901918252608089019284845260a08a019586528c60c08b019742895260e08c01998a526101008c019a878c526101208d019e8f612e5a826136a9565b5251612e65816136a9565b612e6e816136a9565b6130d857516001600160a01b039081168752600260208181526040808a2094518a529381528389208980529052919096209a518b546001600160a01b0319169616959095178a555160018a015551928801929092559051600387015551612ee190612ed88161369f565b60048701613b65565b516005850155516006840155516007830155516008820155019051612f05816136a9565b612f0e816136a9565b60ff801983541691161790555b51613d77565b93855b8551811015612f94576007546001600160a01b031690612f448188613b7d565b5151823b1561063c57889260248492604051958693849263106b5da160e01b845260048401525af19182156109065788600193612f84575b505001612f24565b612f8d9161380e565b8a88612f7c565b50600f54869550879086805b8281106130a0575b5015613040575b5080516001600160a01b031686526010602052604086208054600181019190821061302c576040979361301c600196947f6f85d9948d6ca3dd6ce6ce7d175da22b4e865827ae6fcd530ec7edac1240f92894889455838060a01b0390511694518a51938493019083613b91565b0390a25582519182526020820152f35b634e487b7160e01b88526011600452602488fd5b81516001600160a01b031690600160401b81101561308c578060016130689201600f55613845565b81546001600160a01b0360039290921b91821b191692901b91909117905586612faf565b634e487b7160e01b88526041600452602488fd5b6130a981613845565b9054855160039290921b1c6001600160a01b039081169116146130ce57600101612fa0565b5050600188612fa8565b516001600160a01b039081168752600260208181526040808a2094518a529381528389206001808b529152929097209b518c546001600160a01b0319169116178b559051908a01555192880192909255905160038701555161313d90612ed88161369f565b516005850155516006840155516007830155516008820155019051613161816136a9565b61316a816136a9565b60ff80198354169116179055612f1b565b634e487b7160e01b8b52601160045260248bfd5b6020813d6020116131be575b816131a86020938361380e565b81010312610644576131b990613b38565b612d52565b3d915061319b565b60405162461bcd60e51b815260206004820152601d60248201527f416d6f756e74206d7573742062652067726561746572207468616e20300000006044820152606490fd5b50341561322a5760058501613221348254613b2b565b90553493612d6a565b60405162461bcd60e51b81526020600482015260166024820152754465706f7369742063616e6e6f74206265207a65726f60501b6044820152606490fd5b60405162461bcd60e51b815260206004820152602960248201527f557365722068617320616c7265616479206465706f736974656420696e746f206044820152681d1a1a5cc81c1bdbdb60ba1b6064820152608490fd5b60405162461bcd60e51b815260206004820152601f60248201527f506f6f6c20646f6573206e6f74206163636570742074686973206173736574006044820152606490fd5b60405162461bcd60e51b815260206004820152601060248201526f14195c9a5bd9081d1bdbc81cda1bdc9d60821b6044820152606490fd5b60405162461bcd60e51b815260206004820152602660248201527f506f6f6c20646f6573206e6f74206163636570742074686973206465706f736960448201526574207479706560d01b6064820152608490fd5b60405162461bcd60e51b815260206004820152602260248201527f506f6f6c20697320696e616374697665206f7220646f6573206e6f74206578696044820152611cdd60f21b6064820152608490fd5b8680fd5b8480fd5b346103ab5760203660031901126103ab576004356000526004602052602060ff600960406000200154166040519015158152f35b346103ab5760003660031901126103ab57600c546040516001600160a01b039091168152602090f35b346103ab5760003660031901126103ab57600d546040516001600160a01b039091168152602090f35b346103ab5760003660031901126103ab57604051806020600f5492838152018092600f6000527f8d1108e10bcb7c27dddfc02ed9d693a074039d026cf4ea4240b40f7d581ac8029060005b81811061351b57505050816134cf91038261380e565b6040519182916020830190602084525180915260408301919060005b8181106134f9575050500390f35b82516001600160a01b03168452859450602093840193909201916001016134eb565b82546001600160a01b03168452602090930192600192830192016134b9565b346103ab5760203660031901126103ab57613553613abc565b506004356000526004602052613653604060002060ff600c6040519261357884613783565b80548452604051613590816118748160018601613a39565b6020850152826002820154166135a58161369f565b60408501526003810154606085015260048101546080850152600581015460a0850152600681015460c0850152600781015460e0850152600880820154610100860152600982015484161515610120860152600a820154610140860152600b8201546101608601529101548083166101808501529081901c6001600160a01b03166101a084015260a81c16613639816136a9565b6101c08201526040519182916020835260208301906136b3565b0390f35b60005b83811061366a5750506000910152565b818101518382015260200161365a565b9060209161369381518092818552858086019101613657565b601f01601f1916010190565b60031115610b3f57565b60021115610b3f57565b90815181526101c0806136d760208501516101e060208601526101e085019061367a565b9360408101516136e68161369f565b6040850152606081015160608501526080810151608085015260a081015160a085015260c081015160c085015260e081015160e0850152610100810151610100850152610120810151151561012085015261014081015161014085015261016081015161016085015260ff6101808201511661018085015260018060a01b036101a0820151166101a085015201519161377e836136a9565b015290565b6101e081019081106001600160401b0382111761117b57604052565b60e081019081106001600160401b0382111761117b57604052565b61014081019081106001600160401b0382111761117b57604052565b61016081019081106001600160401b0382111761117b57604052565b61012081019081106001600160401b0382111761117b57604052565b90601f801991011681019081106001600160401b0382111761117b57604052565b600435906001600160a01b03821682036103ab57565b600f5481101561386057600f60005260206000200190600090565b634e487b7160e01b600052603260045260246000fd5b6001600160401b03811161117b57601f01601f191660200190565b81601f820112156103ab578035906138a882613876565b926138b6604051948561380e565b828452602083830101116103ab57816000926020809301838601378301015290565b60409060031901126103ab576004359060243590565b9060406003198301126103ab57600435916024356001600160401b0381116103ab5761016081830360031901126103ab576040519161392c836137d6565b8160040135835260248201356001600160401b0381116103ab5781600461395592850101613891565b6020840152604482013560038110156103ab57604084015260648201356001600160401b0381116103ab5781600461398f92850101613891565b60608401526084820135608084015260a482013560a084015260c482013560c084015260e482013560e0840152610104820135610100840152610124820135610120840152610144820135916001600160401b0383116103ab576139f69201600401613891565b61014082015290565b90600182811c92168015613a2f575b6020831014613a1957565b634e487b7160e01b600052602260045260246000fd5b91607f1691613a0e565b60009291815491613a49836139ff565b8083529260018116908115613a9f5750600114613a6557505050565b60009081526020812093945091925b838310613a85575060209250010190565b600181602092949394548385870101520191019190613a74565b915050602093945060ff929192191683830152151560051b010190565b60405190613ac982613783565b60006101c083828152606060208201528260408201528260608201528260808201528260a08201528260c08201528260e08201528261010082015282610120820152826101408201528261016082015282610180820152826101a08201520152565b91908201809211610f8b57565b519081151582036103ab57565b81810292918115918404141715610f8b57565b91908203918211610f8b57565b90613b6f8161369f565b60ff80198354169116179055565b80518210156138605760209160051b010190565b604090613ba8939281528160208201520190613a39565b90565b6000198114610f8b5760010190565b6001600160401b03811161117b5760051b60200190565b15613bd857565b60405162461bcd60e51b815260206004820152602160248201527f4e6f206465706f73697420666f756e6420666f722074686973206164647265736044820152607360f81b6064820152608490fd5b15613c2e57565b60405162461bcd60e51b81526020600482015260156024820152744465706f736974206973206e6f742061637469766560581b6044820152606490fd5b15613c7257565b60405162461bcd60e51b815260206004820152601c60248201527f4465706f73697420706572696f6420686173206e6f7420656e646564000000006044820152606490fd5b3d15613ce2573d90613cc882613876565b91613cd6604051938461380e565b82523d6000602084013e565b606090565b15613cee57565b60405162461bcd60e51b815260206004820152601c60248201527f4e6174697665206173736574207472616e73666572206661696c6564000000006044820152606490fd5b15613d3a57565b60405162461bcd60e51b8152602060048201526015602482015274115490cc8c081d1c985b9cd9995c8819985a5b1959605a1b6044820152606490fd5b600052600360205260406000208054613d8f81613bba565b91613d9d604051938461380e565b818352602083019060005260206000206000915b838310613dbf575050505090565b600b6020600192604051613dd2816137d6565b85548152604051613de98161187481898b01613a39565b8382015260ff600287015416613dfe8161369f565b6040820152604051613e17816118748160038b01613a39565b606082015260048601546080820152600586015460a0820152600686015460c0820152600786015460e082015260088601546101008201526009860154610120820152604051613e6e8161187481600a8b01613a39565b610140820152815201920192019190613db1565b15613e8957565b60405162461bcd60e51b8152602060048201526012602482015271506f6f6c206973206e6f742061637469766560701b6044820152606490fd5b15613eca57565b606460405162461bcd60e51b815260206004820152602060248201527f43616c6c6572206973206e6f742074686520636f76657220636f6e74726163746044820152fd5b805482101561386057600052600b602060002091020190600090565b909291926142de57825181556001810160208401518051906001600160401b03821161117b578190613f5c84546139ff565b601f811161428b575b50602090601f83116001146142265760009261421b575b50508160011b916000199060031b1c19161790555b613fab6040840151613fa28161369f565b60028301613b65565b6003810160608401518051906001600160401b03821161117b57613fcf83546139ff565b601f81116141d3575b50602090601f8311600114614165579180600a9492610140969460009261415a575b50508160011b916000199060031b1c19161790555b6080850151600482015560a0850151600582015560c0850151600682015560e0850151600782015561010085015160088201556101208501516009820155019201519182516001600160401b03811161117b5761406c82546139ff565b601f8111614112575b506020601f82116001146140b057819293946000926140a5575b50508160011b916000199060031b1c1916179055565b01519050388061408f565b601f1982169083600052806000209160005b8181106140fa575095836001959697106140e1575b505050811b019055565b015160001960f88460031b161c191690553880806140d7565b9192602060018192868b0151815501940192016140c2565b826000526020600020601f830160051c81019160208410614150575b601f0160051c01905b8181106141445750614075565b60008155600101614137565b909150819061412e565b015190503880613ffa565b90601f1983169184600052816000209260005b8181106141bb57509260019285926101409896600a9896106141a2575b505050811b01905561400f565b015160001960f88460031b161c19169055388080614195565b92936020600181928786015181550195019301614178565b836000526020600020601f840160051c81019160208510614211575b601f0160051c01905b8181106142055750613fd8565b600081556001016141f8565b90915081906141ef565b015190503880613f7c565b60008581528281209350601f198516905b818110614273575090846001959493921061425a575b505050811b019055613f91565b015160001960f88460031b161c1916905538808061424d565b92936020600181928786015181550195019301614237565b909150836000526020600020601f840160051c810191602085106142d4575b90601f859493920160051c01905b8181106142c55750613f65565b600081558493506001016142b8565b90915081906142aa565b634e487b7160e01b600052600060045260246000fd5b51906001600160a01b03821682036103ab57565b81601f820112156103ab57805161431e81613876565b9261432c604051948561380e565b818452602082840101116103ab57613ba89160208085019101613657565b90816101209103126103ab5760405190614363826137f2565b61436c816142f4565b825260208101516020830152604081015160408301526060810151606083015260808101519060038210156103ab5761010091608084015260a081015160a084015260c081015160c084015260e081015160e0840152015161010082015290565b6002600054146143de576002600055565b633ee5aeb560e01b60005260046000fd5b6001546001600160a01b0316330361440357565b63118cdaa760e01b6000523360045260246000fdfe485f1bb6524c663555797e00171a10f341656e59b02d6b557a0a38ba7d5d9751a2646970667358221220ebd3f91a30df5034a5c7c582bf75ec909eafdda3769d2ef6f3ff900140e5c27a64736f6c634300081c0033","opcodes":"PUSH1 0x80 CALLVALUE PUSH1 0xD6 JUMPI PUSH1 0x1F PUSH2 0x4560 CODESIZE DUP2 SWAP1 SUB SWAP2 DUP3 ADD PUSH1 0x1F NOT AND DUP4 ADD SWAP2 PUSH1 0x1 PUSH1 0x1 PUSH1 0x40 SHL SUB DUP4 GT DUP5 DUP5 LT OR PUSH1 0xDB JUMPI DUP1 DUP5 SWAP3 PUSH1 0x20 SWAP5 PUSH1 0x40 MSTORE DUP4 CODECOPY DUP2 ADD SUB SLT PUSH1 0xD6 JUMPI MLOAD PUSH1 0x1 PUSH1 0x1 PUSH1 0xA0 SHL SUB DUP2 AND SWAP1 DUP2 SWAP1 SUB PUSH1 0xD6 JUMPI PUSH1 0x1 PUSH1 0x0 SSTORE DUP1 ISZERO PUSH1 0xC0 JUMPI PUSH1 0x1 DUP1 SLOAD PUSH1 0x1 PUSH1 0x1 PUSH1 0xA0 SHL SUB NOT DUP2 AND DUP4 OR SWAP1 SWAP2 SSTORE PUSH1 0x40 MLOAD SWAP2 SWAP1 DUP2 SWAP1 PUSH1 0x1 PUSH1 0x1 PUSH1 0xA0 SHL SUB AND PUSH32 0x8BE0079C531659141344CD1FD0A4F28419497F9722A3DAAFE3B4186F6B6457E0 PUSH1 0x0 DUP1 LOG3 PUSH1 0xE DUP1 SLOAD PUSH1 0x1 PUSH1 0x1 PUSH1 0xA0 SHL SUB NOT AND SWAP2 SWAP1 SWAP2 OR SWAP1 SSTORE PUSH2 0x446E SWAP1 DUP2 PUSH2 0xF2 DUP3 CODECOPY RETURN JUMPDEST PUSH4 0x1E4FBDF7 PUSH1 0xE0 SHL PUSH1 0x0 MSTORE PUSH1 0x0 PUSH1 0x4 MSTORE PUSH1 0x24 PUSH1 0x0 REVERT JUMPDEST PUSH1 0x0 DUP1 REVERT JUMPDEST PUSH4 0x4E487B71 PUSH1 0xE0 SHL PUSH1 0x0 MSTORE PUSH1 0x41 PUSH1 0x4 MSTORE PUSH1 0x24 PUSH1 0x0 REVERT INVALID PUSH1 0xA0 PUSH1 0x40 MSTORE PUSH1 0x4 CALLDATASIZE LT ISZERO PUSH2 0x12 JUMPI PUSH1 0x0 DUP1 REVERT JUMPDEST PUSH1 0x0 CALLDATALOAD PUSH1 0xE0 SHR DUP1 PUSH4 0x68BCD8D EQ PUSH2 0x353A JUMPI DUP1 PUSH4 0x195EC9EE EQ PUSH2 0x346E JUMPI DUP1 PUSH4 0x2274346B EQ PUSH2 0x3445 JUMPI DUP1 PUSH4 0x248A75B7 EQ PUSH2 0x341C JUMPI DUP1 PUSH4 0x25F11E8D EQ PUSH2 0x33E8 JUMPI DUP1 PUSH4 0x2607B539 EQ PUSH2 0x2BAC JUMPI DUP1 PUSH4 0x29BA7BB2 EQ PUSH2 0x2B83 JUMPI DUP1 PUSH4 0x31866763 EQ PUSH2 0x271A JUMPI DUP1 PUSH4 0x34808EC3 EQ PUSH2 0x26F1 JUMPI DUP1 PUSH4 0x35C1D349 EQ PUSH2 0x26AF JUMPI DUP1 PUSH4 0x3DC66AD3 EQ PUSH2 0x234F JUMPI DUP1 PUSH4 0x46F84795 EQ PUSH2 0x15AD JUMPI DUP1 PUSH4 0x4E055244 EQ PUSH2 0x20A1 JUMPI DUP1 PUSH4 0x5AA6E675 EQ PUSH2 0x2078 JUMPI DUP1 PUSH4 0x5CFAB35C EQ PUSH2 0x1CDC JUMPI DUP1 PUSH4 0x6817031B EQ PUSH2 0x1BE8 JUMPI DUP1 PUSH4 0x6F60537D EQ PUSH2 0x1BBF JUMPI DUP1 PUSH4 0x715018A6 EQ PUSH2 0x1B62 JUMPI DUP1 PUSH4 0x7C366CC6 EQ PUSH2 0x1A85 JUMPI DUP1 PUSH4 0x7EB111F0 EQ PUSH2 0x196C JUMPI DUP1 PUSH4 0x83BC6357 EQ PUSH2 0x163F JUMPI DUP1 PUSH4 0x8DA5CB5B EQ PUSH2 0x1616 JUMPI DUP1 PUSH4 0x8F244630 EQ PUSH2 0x15E7 JUMPI DUP1 PUSH4 0x96F3A8AD EQ PUSH2 0x15AD JUMPI DUP1 PUSH4 0x996B8A6F EQ PUSH2 0x1584 JUMPI DUP1 PUSH4 0x9ABD9B05 EQ PUSH2 0x1530 JUMPI DUP1 PUSH4 0x9FD36B15 EQ PUSH2 0x14D5 JUMPI DUP1 PUSH4 0xA14764D0 EQ PUSH2 0x143A JUMPI DUP1 PUSH4 0xA4948D85 EQ PUSH2 0x13DB JUMPI DUP1 PUSH4 0xAB033EA9 EQ PUSH2 0x12EC JUMPI DUP1 PUSH4 0xAC4AFA38 EQ PUSH2 0x11CE JUMPI DUP1 PUSH4 0xB5D90C28 EQ PUSH2 0x11A5 JUMPI DUP1 PUSH4 0xC7AA9874 EQ PUSH2 0x1117 JUMPI DUP1 PUSH4 0xD86C0444 EQ PUSH2 0xFB8 JUMPI DUP1 PUSH4 0xD88FF1F4 EQ PUSH2 0xCB9 JUMPI DUP1 PUSH4 0xE35F8129 EQ PUSH2 0x79D JUMPI DUP1 PUSH4 0xF2FDE38B EQ PUSH2 0x713 JUMPI DUP1 PUSH4 0xF525CB68 EQ PUSH2 0x6F5 JUMPI DUP1 PUSH4 0xF6E80558 EQ PUSH2 0x6CC JUMPI PUSH4 0xFB839DDA EQ PUSH2 0x1D4 JUMPI PUSH1 0x0 DUP1 REVERT JUMPDEST CALLVALUE PUSH2 0x3AB JUMPI PUSH1 0x20 CALLDATASIZE PUSH1 0x3 NOT ADD SLT PUSH2 0x3AB JUMPI PUSH1 0x4 CALLDATALOAD PUSH2 0x1F0 PUSH2 0x43CD JUMP JUMPDEST PUSH1 0x8 SLOAD PUSH1 0x40 MLOAD PUSH4 0x2BB2B243 PUSH1 0xE1 SHL DUP2 MSTORE PUSH1 0x4 DUP2 ADD DUP4 SWAP1 MSTORE CALLER PUSH1 0x24 DUP3 ADD MSTORE PUSH1 0x1 PUSH1 0x1 PUSH1 0xA0 SHL SUB SWAP1 SWAP2 AND SWAP1 PUSH2 0x120 DUP2 PUSH1 0x44 DUP2 DUP6 GAS STATICCALL DUP1 ISZERO PUSH2 0x360 JUMPI PUSH1 0x20 SWAP2 PUSH1 0x0 SWAP2 PUSH2 0x6AD JUMPI JUMPDEST POP ADD SWAP1 DUP2 MLOAD ISZERO PUSH2 0x668 JUMPI PUSH1 0x0 PUSH1 0x24 SWAP2 PUSH1 0x40 MLOAD SWAP3 DUP4 DUP1 SWAP3 PUSH4 0x2500ED8D PUSH1 0xE2 SHL DUP3 MSTORE DUP8 PUSH1 0x4 DUP4 ADD MSTORE GAS STATICCALL SWAP1 DUP2 ISZERO PUSH2 0x360 JUMPI PUSH1 0x0 SWAP2 PUSH2 0x3E0 JUMPI JUMPDEST POP PUSH1 0x1 PUSH1 0xC0 DUP3 ADD MLOAD PUSH2 0x27C DUP2 PUSH2 0x36A9 JUMP JUMPDEST PUSH2 0x285 DUP2 PUSH2 0x36A9 JUMP JUMPDEST SUB PUSH2 0x3B8 JUMPI PUSH1 0xE0 ADD MLOAD SWAP1 MLOAD PUSH1 0x40 MLOAD PUSH4 0xA9059CBB PUSH1 0xE0 SHL DUP2 MSTORE CALLER PUSH1 0x4 DUP3 ADD MSTORE PUSH1 0x24 DUP2 ADD SWAP2 SWAP1 SWAP2 MSTORE SWAP1 PUSH1 0x20 SWAP1 DUP3 SWAP1 PUSH1 0x44 SWAP1 DUP3 SWAP1 PUSH1 0x0 SWAP1 PUSH1 0x1 PUSH1 0x1 PUSH1 0xA0 SHL SUB AND GAS CALL SWAP1 DUP2 ISZERO PUSH2 0x360 JUMPI PUSH1 0x0 SWAP2 PUSH2 0x36C JUMPI JUMPDEST POP PUSH2 0x31B SWAP2 PUSH2 0x2E4 PUSH2 0x120 SWAP3 PUSH2 0x3D33 JUMP JUMPDEST PUSH1 0x8 SLOAD PUSH1 0x40 MLOAD PUSH4 0x2BB2B243 PUSH1 0xE1 SHL DUP2 MSTORE PUSH1 0x4 DUP2 ADD SWAP3 SWAP1 SWAP3 MSTORE CALLER PUSH1 0x24 DUP4 ADD MSTORE SWAP1 SWAP3 DUP4 SWAP2 PUSH1 0x1 PUSH1 0x1 PUSH1 0xA0 SHL SUB AND SWAP1 DUP3 SWAP1 DUP2 SWAP1 PUSH1 0x44 DUP3 ADD SWAP1 JUMP JUMPDEST SUB SWAP2 GAS STATICCALL DUP1 ISZERO PUSH2 0x360 JUMPI PUSH2 0x331 JUMPI JUMPDEST PUSH1 0x1 PUSH1 0x0 SSTORE STOP JUMPDEST PUSH2 0x352 SWAP1 PUSH2 0x120 RETURNDATASIZE DUP2 GT PUSH2 0x359 JUMPI JUMPDEST PUSH2 0x34A DUP2 DUP4 PUSH2 0x380E JUMP JUMPDEST DUP2 ADD SWAP1 PUSH2 0x434A JUMP JUMPDEST POP CODESIZE PUSH2 0x32A JUMP JUMPDEST POP RETURNDATASIZE PUSH2 0x340 JUMP JUMPDEST PUSH1 0x40 MLOAD RETURNDATASIZE PUSH1 0x0 DUP3 RETURNDATACOPY RETURNDATASIZE SWAP1 REVERT JUMPDEST SWAP1 POP PUSH1 0x20 DUP2 RETURNDATASIZE PUSH1 0x20 GT PUSH2 0x3B0 JUMPI JUMPDEST DUP2 PUSH2 0x387 PUSH1 0x20 SWAP4 DUP4 PUSH2 0x380E JUMP JUMPDEST DUP2 ADD SUB SLT PUSH2 0x3AB JUMPI PUSH2 0x31B SWAP2 PUSH2 0x2E4 PUSH2 0x3A2 PUSH2 0x120 SWAP4 PUSH2 0x3B38 JUMP JUMPDEST SWAP3 POP POP SWAP2 PUSH2 0x2D3 JUMP JUMPDEST PUSH1 0x0 DUP1 REVERT JUMPDEST RETURNDATASIZE SWAP2 POP PUSH2 0x37A JUMP JUMPDEST POP PUSH2 0x31B SWAP2 PUSH2 0x3DB PUSH1 0x0 DUP1 DUP1 DUP1 PUSH2 0x120 SWAP7 MLOAD CALLER GAS CALL PUSH2 0x3D5 PUSH2 0x3CB7 JUMP JUMPDEST POP PUSH2 0x3CE7 JUMP JUMPDEST PUSH2 0x2E4 JUMP JUMPDEST SWAP1 RETURNDATASIZE DUP1 DUP3 DUP5 RETURNDATACOPY PUSH2 0x3F0 DUP2 DUP5 PUSH2 0x380E JUMP JUMPDEST DUP3 ADD SWAP2 PUSH1 0x20 DUP2 DUP5 SUB SLT PUSH2 0x664 JUMPI DUP1 MLOAD SWAP1 PUSH1 0x1 PUSH1 0x1 PUSH1 0x40 SHL SUB DUP3 GT PUSH2 0x64C JUMPI ADD SWAP1 PUSH2 0x100 DUP3 DUP5 SUB SLT PUSH2 0x514 JUMPI PUSH1 0x40 MLOAD SWAP3 PUSH2 0x100 DUP5 ADD DUP5 DUP2 LT PUSH1 0x1 PUSH1 0x1 PUSH1 0x40 SHL SUB DUP3 GT OR PUSH2 0x650 JUMPI PUSH1 0x40 MSTORE DUP3 MLOAD DUP5 MSTORE PUSH1 0x20 DUP4 ADD MLOAD PUSH1 0x1 PUSH1 0x1 PUSH1 0x40 SHL SUB DUP2 GT PUSH2 0x64C JUMPI DUP2 PUSH2 0x45C SWAP2 DUP6 ADD PUSH2 0x4308 JUMP JUMPDEST PUSH1 0x20 DUP6 ADD MSTORE PUSH1 0x40 DUP4 ADD MLOAD PUSH1 0x1 PUSH1 0x1 PUSH1 0x40 SHL SUB DUP2 GT PUSH2 0x64C JUMPI DUP4 ADD SWAP1 DUP1 PUSH1 0x1F DUP4 ADD SLT ISZERO PUSH2 0x64C JUMPI DUP2 MLOAD SWAP2 PUSH2 0x48E DUP4 PUSH2 0x3BBA JUMP JUMPDEST SWAP3 PUSH2 0x49C PUSH1 0x40 MLOAD SWAP5 DUP6 PUSH2 0x380E JUMP JUMPDEST DUP1 DUP5 MSTORE PUSH1 0x20 DUP1 DUP6 ADD SWAP2 PUSH1 0x5 SHL DUP4 ADD ADD SWAP2 DUP4 DUP4 GT PUSH2 0x648 JUMPI PUSH1 0x20 DUP2 ADD SWAP2 JUMPDEST DUP4 DUP4 LT PUSH2 0x517 JUMPI POP POP POP POP POP PUSH1 0x40 DUP5 ADD MSTORE PUSH1 0x60 DUP3 ADD MLOAD PUSH1 0x60 DUP5 ADD MSTORE PUSH1 0x80 DUP3 ADD MLOAD PUSH1 0x80 DUP5 ADD MSTORE PUSH1 0xA0 DUP3 ADD MLOAD PUSH1 0xA0 DUP5 ADD MSTORE PUSH1 0xC0 DUP3 ADD MLOAD SWAP1 PUSH1 0x2 DUP3 LT ISZERO PUSH2 0x514 JUMPI POP PUSH1 0xC0 DUP4 ADD MSTORE PUSH2 0x509 SWAP1 PUSH1 0xE0 ADD PUSH2 0x42F4 JUMP JUMPDEST PUSH1 0xE0 DUP3 ADD MSTORE CODESIZE PUSH2 0x26B JUMP JUMPDEST DUP1 REVERT JUMPDEST DUP3 MLOAD PUSH1 0x1 PUSH1 0x1 PUSH1 0x40 SHL SUB DUP2 GT PUSH2 0x644 JUMPI DUP3 ADD PUSH2 0x1E0 DUP2 DUP8 SUB PUSH1 0x1F NOT ADD SLT PUSH2 0x644 JUMPI PUSH1 0x40 MLOAD SWAP1 PUSH2 0x545 DUP3 PUSH2 0x3783 JUMP JUMPDEST PUSH1 0x20 DUP2 ADD MLOAD DUP3 MSTORE PUSH1 0x40 DUP2 ADD MLOAD PUSH1 0x1 PUSH1 0x1 PUSH1 0x40 SHL SUB DUP2 GT PUSH2 0x640 JUMPI DUP8 PUSH1 0x20 PUSH2 0x56E SWAP3 DUP5 ADD ADD PUSH2 0x4308 JUMP JUMPDEST PUSH1 0x20 DUP4 ADD MSTORE PUSH1 0x60 DUP2 ADD MLOAD PUSH1 0x3 DUP2 LT ISZERO PUSH2 0x640 JUMPI PUSH1 0x40 DUP4 ADD MSTORE PUSH1 0x80 DUP2 ADD MLOAD PUSH1 0x60 DUP4 ADD MSTORE PUSH1 0xA0 DUP2 ADD MLOAD PUSH1 0x80 DUP4 ADD MSTORE PUSH1 0xC0 DUP2 ADD MLOAD PUSH1 0xA0 DUP4 ADD MSTORE PUSH1 0xE0 DUP2 ADD MLOAD PUSH1 0xC0 DUP4 ADD MSTORE PUSH2 0x100 DUP2 ADD MLOAD PUSH1 0xE0 DUP4 ADD MSTORE PUSH2 0x120 DUP2 ADD MLOAD PUSH2 0x100 DUP4 ADD MSTORE PUSH2 0x5D2 PUSH2 0x140 DUP3 ADD PUSH2 0x3B38 JUMP JUMPDEST PUSH2 0x120 DUP4 ADD MSTORE PUSH2 0x160 DUP2 ADD MLOAD PUSH2 0x140 DUP4 ADD MSTORE PUSH2 0x180 DUP2 ADD MLOAD PUSH2 0x160 DUP4 ADD MSTORE PUSH2 0x1A0 DUP2 ADD MLOAD PUSH1 0xFF DUP2 AND DUP2 SUB PUSH2 0x640 JUMPI PUSH2 0x180 DUP4 ADD MSTORE PUSH2 0x1E0 SWAP1 PUSH2 0x617 PUSH2 0x1C0 DUP3 ADD PUSH2 0x42F4 JUMP JUMPDEST PUSH2 0x1A0 DUP5 ADD MSTORE ADD MLOAD PUSH1 0x2 DUP2 LT ISZERO PUSH2 0x63C JUMPI PUSH2 0x1C0 DUP3 ADD MSTORE DUP2 MSTORE PUSH1 0x20 SWAP3 DUP4 ADD SWAP3 ADD PUSH2 0x4B9 JUMP JUMPDEST DUP9 DUP1 REVERT JUMPDEST DUP10 DUP1 REVERT JUMPDEST DUP8 DUP1 REVERT JUMPDEST DUP6 DUP1 REVERT JUMPDEST DUP3 DUP1 REVERT JUMPDEST PUSH4 0x4E487B71 PUSH1 0xE0 SHL DUP4 MSTORE PUSH1 0x41 PUSH1 0x4 MSTORE PUSH1 0x24 DUP4 REVERT JUMPDEST POP DUP1 REVERT JUMPDEST PUSH1 0x40 MLOAD PUSH3 0x461BCD PUSH1 0xE5 SHL DUP2 MSTORE PUSH1 0x20 PUSH1 0x4 DUP3 ADD MSTORE PUSH1 0x1D PUSH1 0x24 DUP3 ADD MSTORE PUSH32 0x4E6F20616374697665207769746864726177616C20666F722075736572000000 PUSH1 0x44 DUP3 ADD MSTORE PUSH1 0x64 SWAP1 REVERT JUMPDEST PUSH2 0x6C6 SWAP2 POP PUSH2 0x120 RETURNDATASIZE DUP2 GT PUSH2 0x359 JUMPI PUSH2 0x34A DUP2 DUP4 PUSH2 0x380E JUMP JUMPDEST CODESIZE PUSH2 0x234 JUMP JUMPDEST CALLVALUE PUSH2 0x3AB JUMPI PUSH1 0x0 CALLDATASIZE PUSH1 0x3 NOT ADD SLT PUSH2 0x3AB JUMPI PUSH1 0x7 SLOAD PUSH1 0x40 MLOAD PUSH1 0x1 PUSH1 0x1 PUSH1 0xA0 SHL SUB SWAP1 SWAP2 AND DUP2 MSTORE PUSH1 0x20 SWAP1 RETURN JUMPDEST CALLVALUE PUSH2 0x3AB JUMPI PUSH1 0x0 CALLDATASIZE PUSH1 0x3 NOT ADD SLT PUSH2 0x3AB JUMPI PUSH1 0x20 PUSH1 0x5 SLOAD PUSH1 0x40 MLOAD SWAP1 DUP2 MSTORE RETURN JUMPDEST CALLVALUE PUSH2 0x3AB JUMPI PUSH1 0x20 CALLDATASIZE PUSH1 0x3 NOT ADD SLT PUSH2 0x3AB JUMPI PUSH2 0x72C PUSH2 0x382F JUMP JUMPDEST PUSH2 0x734 PUSH2 0x43EF JUMP JUMPDEST PUSH1 0x1 PUSH1 0x1 PUSH1 0xA0 SHL SUB AND DUP1 ISZERO PUSH2 0x787 JUMPI PUSH1 0x1 DUP1 SLOAD PUSH1 0x1 PUSH1 0x1 PUSH1 0xA0 SHL SUB NOT DUP2 AND DUP4 OR SWAP1 SWAP2 SSTORE PUSH1 0x1 PUSH1 0x1 PUSH1 0xA0 SHL SUB AND PUSH32 0x8BE0079C531659141344CD1FD0A4F28419497F9722A3DAAFE3B4186F6B6457E0 PUSH1 0x0 DUP1 LOG3 STOP JUMPDEST PUSH4 0x1E4FBDF7 PUSH1 0xE0 SHL PUSH1 0x0 MSTORE PUSH1 0x0 PUSH1 0x4 MSTORE PUSH1 0x24 PUSH1 0x0 REVERT JUMPDEST CALLVALUE PUSH2 0x3AB JUMPI PUSH1 0x20 CALLDATASIZE PUSH1 0x3 NOT ADD SLT PUSH2 0x3AB JUMPI PUSH1 0x0 PUSH1 0x4 CALLDATALOAD PUSH2 0x7BB PUSH2 0x43CD JUMP JUMPDEST PUSH1 0x9 SLOAD PUSH1 0x40 MLOAD PUSH4 0x3B4D01A7 PUSH1 0xE0 SHL DUP2 MSTORE PUSH1 0x4 DUP2 ADD DUP4 SWAP1 MSTORE SWAP3 SWAP1 DUP4 SWAP1 PUSH1 0x24 SWAP1 DUP3 SWAP1 DUP5 SWAP1 PUSH1 0x1 PUSH1 0x1 PUSH1 0xA0 SHL SUB AND GAS CALL SWAP2 DUP3 ISZERO PUSH2 0x360 JUMPI PUSH1 0x0 SWAP3 PUSH2 0xB55 JUMPI JUMPDEST POP PUSH2 0x100 DUP3 ADD MLOAD SWAP1 PUSH1 0xC0 DUP4 ADD MLOAD SWAP3 PUSH1 0x5 DUP5 LT ISZERO PUSH2 0xB3F JUMPI PUSH1 0x2 PUSH1 0x0 SWAP5 EQ SWAP1 DUP2 PUSH2 0xB31 JUMPI JUMPDEST POP ISZERO PUSH2 0xAF4 JUMPI PUSH1 0xA0 DUP3 ADD DUP1 MLOAD DUP5 MSTORE PUSH1 0x4 PUSH1 0x20 MSTORE PUSH1 0x40 DUP5 KECCAK256 DUP4 MLOAD PUSH1 0x1 PUSH1 0x1 PUSH1 0xA0 SHL SUB AND CALLER SUB PUSH2 0xAB8 JUMPI PUSH2 0x853 PUSH1 0xFF PUSH1 0x9 DUP4 ADD SLOAD AND PUSH2 0x3E82 JUMP JUMPDEST PUSH1 0x5 DUP2 ADD DUP1 SLOAD SWAP4 PUSH1 0xC0 DUP7 ADD SWAP2 DUP3 MLOAD DUP7 LT PUSH2 0xA73 JUMPI PUSH2 0x887 DUP9 SWAP7 DUP5 MLOAD PUSH2 0x87D PUSH1 0x8 DUP9 ADD SWAP2 DUP3 SLOAD PUSH2 0x3B2B JUMP JUMPDEST SWAP1 SSTORE DUP5 MLOAD SWAP1 PUSH2 0x3B58 JUMP JUMPDEST SWAP1 SSTORE PUSH2 0x893 DUP5 MLOAD PUSH2 0x3D77 JUMP JUMPDEST SWAP4 DUP6 JUMPDEST DUP6 MLOAD DUP2 LT ISZERO PUSH2 0x911 JUMPI PUSH1 0x7 SLOAD PUSH1 0x1 PUSH1 0x1 PUSH1 0xA0 SHL SUB AND SWAP1 PUSH2 0x8B6 DUP2 DUP9 PUSH2 0x3B7D JUMP JUMPDEST MLOAD MLOAD DUP3 EXTCODESIZE ISZERO PUSH2 0x63C JUMPI DUP9 SWAP3 PUSH1 0x24 DUP5 SWAP3 PUSH1 0x40 MLOAD SWAP6 DUP7 SWAP4 DUP5 SWAP3 PUSH4 0x106B5DA1 PUSH1 0xE0 SHL DUP5 MSTORE PUSH1 0x4 DUP5 ADD MSTORE GAS CALL SWAP2 DUP3 ISZERO PUSH2 0x906 JUMPI DUP9 PUSH1 0x1 SWAP4 PUSH2 0x8F6 JUMPI JUMPDEST POP POP ADD PUSH2 0x896 JUMP JUMPDEST PUSH2 0x8FF SWAP2 PUSH2 0x380E JUMP JUMPDEST DUP11 DUP9 PUSH2 0x8EE JUMP JUMPDEST PUSH1 0x40 MLOAD RETURNDATASIZE DUP11 DUP3 RETURNDATACOPY RETURNDATASIZE SWAP1 REVERT JUMPDEST POP SWAP2 SWAP4 POP SWAP2 SWAP5 PUSH1 0x1 DUP1 PUSH1 0xA0 SHL SUB PUSH1 0x9 SLOAD AND SWAP3 DUP4 EXTCODESIZE ISZERO PUSH2 0x648 JUMPI DUP6 SWAP4 PUSH1 0x24 DUP6 SWAP3 PUSH1 0x40 MLOAD SWAP7 DUP8 SWAP4 DUP5 SWAP3 PUSH4 0xF1B4BF9D PUSH1 0xE0 SHL DUP5 MSTORE PUSH1 0x4 DUP5 ADD MSTORE GAS CALL SWAP2 DUP3 ISZERO PUSH2 0xA68 JUMPI PUSH32 0xEEF4955E8B18DCB6D1C19905B7B86E5FE56138AD1CE2C5E540CE4E959312F511 SWAP4 DUP7 PUSH1 0x60 SWAP5 PUSH2 0xA58 JUMPI JUMPDEST POP POP MLOAD SWAP1 DUP5 MLOAD SWAP1 PUSH1 0x1 DUP1 PUSH1 0xA0 SHL SUB SWAP1 MLOAD AND SWAP1 PUSH1 0x40 MLOAD SWAP3 DUP4 MSTORE PUSH1 0x20 DUP4 ADD MSTORE PUSH1 0x40 DUP3 ADD MSTORE LOG1 PUSH1 0x1 DUP1 PUSH1 0xA0 SHL SUB PUSH1 0xA SLOAD AND DUP2 MLOAD DUP2 EXTCODESIZE ISZERO PUSH2 0xA54 JUMPI PUSH1 0x40 MLOAD PUSH4 0x7104A76D PUSH1 0xE1 SHL DUP2 MSTORE CALLER PUSH1 0x4 DUP3 ADD MSTORE PUSH1 0x24 DUP2 ADD SWAP2 SWAP1 SWAP2 MSTORE SWAP3 SWAP1 DUP4 SWAP1 PUSH1 0x44 SWAP1 DUP3 SWAP1 DUP5 SWAP1 GAS CALL SWAP2 DUP5 DUP4 ISZERO PUSH2 0xA48 JUMPI PUSH32 0x415071086C9EA63F7F39884C21A8AF430AF53BFD511A362DFF69CABCB1B8BCC1 SWAP4 PUSH2 0xA38 JUMPI JUMPDEST POP POP MLOAD SWAP2 PUSH2 0xA25 PUSH1 0x40 MLOAD SWAP2 PUSH1 0x40 DUP4 MSTORE PUSH1 0x1 PUSH1 0x40 DUP5 ADD SWAP2 ADD PUSH2 0x3A39 JUMP JUMPDEST SWAP3 PUSH1 0x20 DUP3 ADD MSTORE DUP1 CALLER SWAP4 SUB SWAP1 LOG2 PUSH1 0x1 DUP2 SSTORE DUP1 RETURN JUMPDEST PUSH2 0xA41 SWAP2 PUSH2 0x380E JUMP JUMPDEST DUP5 DUP5 PUSH2 0xA09 JUMP JUMPDEST PUSH1 0x40 MLOAD SWAP1 RETURNDATASIZE SWAP1 DUP3 RETURNDATACOPY RETURNDATASIZE SWAP1 REVERT JUMPDEST DUP4 DUP1 REVERT JUMPDEST PUSH2 0xA61 SWAP2 PUSH2 0x380E JUMP JUMPDEST DUP9 DUP7 PUSH2 0x97B JUMP JUMPDEST PUSH1 0x40 MLOAD RETURNDATASIZE DUP8 DUP3 RETURNDATACOPY RETURNDATASIZE SWAP1 REVERT JUMPDEST PUSH1 0x40 MLOAD PUSH3 0x461BCD PUSH1 0xE5 SHL DUP2 MSTORE PUSH1 0x20 PUSH1 0x4 DUP3 ADD MSTORE PUSH1 0x1C PUSH1 0x24 DUP3 ADD MSTORE PUSH32 0x4E6F7420656E6F7567682066756E647320696E2074686520706F6F6C00000000 PUSH1 0x44 DUP3 ADD MSTORE PUSH1 0x64 SWAP1 REVERT JUMPDEST PUSH1 0x40 MLOAD PUSH3 0x461BCD PUSH1 0xE5 SHL DUP2 MSTORE PUSH1 0x20 PUSH1 0x4 DUP3 ADD MSTORE PUSH1 0x14 PUSH1 0x24 DUP3 ADD MSTORE PUSH20 0x139BDD0818481D985B1A59081C1C9BDC1BDCD85B PUSH1 0x62 SHL PUSH1 0x44 DUP3 ADD MSTORE PUSH1 0x64 SWAP1 REVERT JUMPDEST PUSH1 0x40 MLOAD PUSH3 0x461BCD PUSH1 0xE5 SHL DUP2 MSTORE PUSH1 0x20 PUSH1 0x4 DUP3 ADD MSTORE PUSH1 0x15 PUSH1 0x24 DUP3 ADD MSTORE PUSH21 0x141C9BDC1BDCD85B081B9BDD08185C1C1C9BDD9959 PUSH1 0x5A SHL PUSH1 0x44 DUP3 ADD MSTORE PUSH1 0x64 SWAP1 REVERT JUMPDEST PUSH1 0xE0 SWAP2 POP ADD MLOAD ISZERO ISZERO DUP5 PUSH2 0x81B JUMP JUMPDEST PUSH4 0x4E487B71 PUSH1 0xE0 SHL PUSH1 0x0 MSTORE PUSH1 0x21 PUSH1 0x4 MSTORE PUSH1 0x24 PUSH1 0x0 REVERT JUMPDEST SWAP1 SWAP2 RETURNDATASIZE DUP1 DUP3 DUP5 RETURNDATACOPY PUSH2 0xB66 DUP2 DUP5 PUSH2 0x380E JUMP JUMPDEST DUP3 ADD SWAP2 PUSH1 0x20 DUP2 DUP5 SUB SLT PUSH2 0x664 JUMPI DUP1 MLOAD SWAP1 PUSH1 0x1 PUSH1 0x1 PUSH1 0x40 SHL SUB DUP3 GT PUSH2 0x64C JUMPI ADD SWAP2 PUSH2 0x120 DUP4 DUP3 SUB SLT PUSH2 0x664 JUMPI PUSH1 0x40 MLOAD SWAP3 PUSH2 0xB9E DUP5 PUSH2 0x37F2 JUMP JUMPDEST DUP1 MLOAD DUP5 MSTORE PUSH1 0x20 DUP2 ADD MLOAD PUSH1 0x20 DUP6 ADD MSTORE PUSH1 0x40 DUP2 ADD MLOAD PUSH1 0x40 DUP6 ADD MSTORE PUSH1 0x60 DUP2 ADD MLOAD PUSH1 0x60 DUP6 ADD MSTORE PUSH1 0x80 DUP2 ADD MLOAD PUSH1 0x80 DUP6 ADD MSTORE PUSH1 0xA0 DUP2 ADD MLOAD PUSH1 0xA0 DUP6 ADD MSTORE PUSH1 0xC0 DUP2 ADD MLOAD PUSH1 0x5 DUP2 LT ISZERO PUSH2 0xA54 JUMPI PUSH1 0xC0 DUP6 ADD MSTORE PUSH2 0xBF3 PUSH1 0xE0 DUP3 ADD PUSH2 0x3B38 JUMP JUMPDEST PUSH1 0xE0 DUP6 ADD MSTORE PUSH2 0x100 DUP2 ADD MLOAD SWAP1 PUSH1 0x1 PUSH1 0x1 PUSH1 0x40 SHL SUB DUP3 GT PUSH2 0xA54 JUMPI ADD SWAP1 PUSH1 0xE0 DUP3 DUP3 SUB SLT PUSH2 0x64C JUMPI PUSH1 0x40 MLOAD SWAP3 PUSH2 0xC26 DUP5 PUSH2 0x379F JUMP JUMPDEST PUSH2 0xC2F DUP4 PUSH2 0x42F4 JUMP JUMPDEST DUP5 MSTORE PUSH1 0x20 DUP4 ADD MLOAD PUSH1 0x3 DUP2 LT ISZERO PUSH2 0x664 JUMPI PUSH1 0x20 DUP6 ADD MSTORE PUSH1 0x40 DUP4 ADD MLOAD PUSH1 0x40 DUP6 ADD MSTORE PUSH1 0x60 DUP4 ADD MLOAD PUSH1 0x1 PUSH1 0x1 PUSH1 0x40 SHL SUB DUP2 GT PUSH2 0x664 JUMPI DUP3 PUSH2 0xC6D SWAP2 DUP6 ADD PUSH2 0x4308 JUMP JUMPDEST PUSH1 0x60 DUP6 ADD MSTORE PUSH1 0x80 DUP4 ADD MLOAD SWAP1 PUSH1 0x1 PUSH1 0x1 PUSH1 0x40 SHL SUB DUP3 GT PUSH2 0x514 JUMPI POP DUP3 SWAP2 PUSH2 0xC96 SWAP2 PUSH1 0xC0 SWAP5 ADD PUSH2 0x4308 JUMP JUMPDEST PUSH1 0x80 DUP5 ADD MSTORE PUSH1 0xA0 DUP2 ADD MLOAD PUSH1 0xA0 DUP5 ADD MSTORE ADD MLOAD PUSH1 0xC0 DUP3 ADD MSTORE PUSH2 0x100 DUP3 ADD MSTORE SWAP1 DUP3 PUSH2 0x7F7 JUMP JUMPDEST CALLVALUE PUSH2 0x3AB JUMPI PUSH1 0x0 CALLDATASIZE PUSH1 0x3 NOT ADD SLT PUSH2 0x3AB JUMPI PUSH1 0x5 SLOAD PUSH2 0xCD6 DUP2 PUSH2 0x3BBA JUMP JUMPDEST SWAP1 PUSH2 0xCE4 PUSH1 0x40 MLOAD SWAP3 DUP4 PUSH2 0x380E JUMP JUMPDEST DUP1 DUP3 MSTORE PUSH1 0x1F NOT PUSH2 0xCF3 DUP3 PUSH2 0x3BBA JUMP JUMPDEST ADD PUSH1 0x0 JUMPDEST DUP2 DUP2 LT PUSH2 0xFA1 JUMPI POP POP PUSH1 0x1 JUMPDEST DUP2 DUP2 GT ISZERO PUSH2 0xD73 JUMPI DUP3 PUSH1 0x40 MLOAD DUP1 SWAP2 PUSH1 0x20 DUP3 ADD PUSH1 0x20 DUP4 MSTORE DUP2 MLOAD DUP1 SWAP2 MSTORE PUSH1 0x40 DUP4 ADD SWAP1 PUSH1 0x20 PUSH1 0x40 DUP3 PUSH1 0x5 SHL DUP7 ADD ADD SWAP4 ADD SWAP2 PUSH1 0x0 SWAP1 JUMPDEST DUP3 DUP3 LT PUSH2 0xD44 JUMPI POP POP POP POP SUB SWAP1 RETURN JUMPDEST SWAP2 SWAP4 PUSH1 0x1 SWAP2 SWAP4 SWAP6 POP PUSH1 0x20 PUSH2 0xD63 DUP2 SWAP3 PUSH1 0x3F NOT DUP11 DUP3 SUB ADD DUP7 MSTORE DUP9 MLOAD PUSH2 0x36B3 JUMP JUMPDEST SWAP7 ADD SWAP3 ADD SWAP3 ADD DUP6 SWAP5 SWAP4 SWAP2 SWAP3 PUSH2 0xD35 JUMP JUMPDEST DUP1 PUSH1 0x0 MSTORE PUSH1 0x4 PUSH1 0x20 MSTORE DUP1 PUSH1 0x40 PUSH1 0x0 KECCAK256 PUSH1 0x40 MLOAD SWAP1 PUSH2 0xD8F DUP3 PUSH2 0x3783 JUMP JUMPDEST DUP1 SLOAD DUP3 MSTORE PUSH1 0x40 MLOAD DUP1 PUSH2 0xDA4 DUP2 PUSH1 0x1 DUP6 ADD PUSH2 0x3A39 JUMP JUMPDEST SUB PUSH2 0xDAF SWAP1 DUP3 PUSH2 0x380E JUMP JUMPDEST PUSH1 0x20 DUP4 ADD SWAP1 DUP2 MSTORE PUSH1 0x2 DUP3 ADD SLOAD PUSH1 0xFF AND SWAP2 PUSH1 0x40 DUP5 ADD SWAP3 PUSH2 0xDCD DUP2 PUSH2 0x369F JUMP JUMPDEST DUP4 MSTORE PUSH1 0x3 DUP2 ADD SLOAD PUSH1 0x60 DUP6 ADD SWAP1 DUP2 MSTORE PUSH1 0x4 DUP3 ADD SLOAD PUSH1 0x80 DUP7 ADD SWAP1 DUP2 MSTORE PUSH1 0x5 DUP4 ADD SLOAD PUSH1 0xA0 DUP8 ADD SWAP1 DUP2 MSTORE PUSH1 0x6 DUP5 ADD SLOAD PUSH1 0xC0 DUP9 ADD SWAP1 DUP2 MSTORE PUSH1 0x7 DUP6 ADD SLOAD SWAP1 PUSH1 0xE0 DUP10 ADD SWAP2 DUP3 MSTORE PUSH1 0x8 DUP7 ADD SLOAD SWAP3 PUSH2 0x100 DUP11 ADD SWAP4 DUP5 MSTORE PUSH1 0x9 DUP8 ADD SLOAD PUSH1 0xFF AND SWAP5 PUSH2 0x120 DUP12 ADD SWAP6 ISZERO ISZERO DUP7 MSTORE PUSH1 0xA DUP9 ADD SLOAD SWAP7 PUSH2 0x140 DUP13 ADD SWAP8 DUP9 MSTORE PUSH1 0xB DUP10 ADD SLOAD SWAP9 PUSH2 0x160 DUP14 ADD SWAP10 DUP11 MSTORE PUSH1 0xC ADD SLOAD SWAP11 DUP12 SWAP11 DUP14 PUSH2 0x180 DUP2 ADD SWAP13 PUSH1 0xFF AND DUP14 MSTORE PUSH2 0x1A0 ADD SWAP13 DUP14 PUSH1 0x1 PUSH1 0xA0 SHL PUSH1 0x1 SWAP1 SUB DUP3 PUSH1 0x8 SHR AND SWAP1 MSTORE PUSH1 0xA8 SHR PUSH1 0xFF AND SWAP14 PUSH2 0x1C0 ADD SWAP14 DUP15 PUSH2 0xE88 DUP3 PUSH2 0x36A9 JUMP JUMPDEST MSTORE MLOAD SWAP1 MLOAD SWAP2 PUSH2 0xE96 DUP4 PUSH2 0x369F JUMP JUMPDEST MLOAD SWAP3 MLOAD SWAP4 MLOAD SWAP5 MLOAD SWAP6 MLOAD SWAP7 MLOAD SWAP8 MLOAD ISZERO ISZERO SWAP9 MLOAD SWAP10 MLOAD SWAP11 MLOAD PUSH1 0xFF AND SWAP12 PUSH1 0x1 PUSH1 0xA0 SHL PUSH1 0x1 SWAP1 SUB SWAP1 MLOAD AND SWAP13 MLOAD SWAP14 PUSH2 0xEC7 DUP16 PUSH2 0x36A9 JUMP JUMPDEST PUSH1 0x40 MLOAD PUSH1 0x80 MSTORE PUSH1 0x80 MLOAD PUSH2 0xED9 SWAP1 PUSH2 0x3783 JUMP JUMPDEST PUSH1 0x80 MLOAD MSTORE PUSH1 0x80 MLOAD PUSH1 0x20 ADD MSTORE PUSH2 0xEED DUP2 PUSH2 0x369F JUMP JUMPDEST PUSH1 0x80 MLOAD PUSH1 0x40 ADD MSTORE PUSH1 0x80 MLOAD PUSH1 0x60 ADD MSTORE PUSH1 0x80 MLOAD PUSH1 0x80 ADD MSTORE PUSH1 0x80 MLOAD PUSH1 0xA0 ADD MSTORE PUSH1 0x80 MLOAD PUSH1 0xC0 ADD MSTORE PUSH1 0x80 MLOAD PUSH1 0xE0 ADD MSTORE PUSH1 0x80 MLOAD PUSH2 0x100 ADD MSTORE PUSH1 0x80 MLOAD PUSH2 0x120 ADD MSTORE PUSH1 0x80 MLOAD PUSH2 0x140 ADD MSTORE PUSH1 0x80 MLOAD PUSH2 0x160 ADD MSTORE PUSH1 0x80 MLOAD PUSH2 0x180 ADD MSTORE PUSH1 0x80 MLOAD PUSH2 0x1A0 ADD MSTORE PUSH2 0xF50 DUP2 PUSH2 0x36A9 JUMP JUMPDEST PUSH1 0x80 MLOAD PUSH2 0x1C0 ADD MSTORE PUSH1 0x0 NOT DUP2 ADD SWAP1 DUP1 DUP3 GT PUSH2 0xF8B JUMPI PUSH2 0xF80 PUSH2 0xF86 SWAP3 PUSH1 0x80 MLOAD PUSH2 0xF79 DUP3 DUP9 PUSH2 0x3B7D JUMP JUMPDEST MSTORE DUP6 PUSH2 0x3B7D JUMP JUMPDEST POP PUSH2 0x3BAB JUMP JUMPDEST PUSH2 0xD03 JUMP JUMPDEST PUSH4 0x4E487B71 PUSH1 0xE0 SHL PUSH1 0x0 MSTORE PUSH1 0x11 PUSH1 0x4 MSTORE PUSH1 0x24 PUSH1 0x0 REVERT JUMPDEST PUSH1 0x20 SWAP1 PUSH2 0xFAC PUSH2 0x3ABC JUMP JUMPDEST DUP3 DUP3 DUP8 ADD ADD MSTORE ADD PUSH2 0xCF7 JUMP JUMPDEST CALLVALUE PUSH2 0x3AB JUMPI PUSH1 0x60 CALLDATASIZE PUSH1 0x3 NOT ADD SLT PUSH2 0x3AB JUMPI PUSH1 0x4 CALLDATALOAD PUSH1 0x24 CALLDATALOAD PUSH1 0x44 CALLDATALOAD PUSH2 0xFDA PUSH2 0x43EF JUMP JUMPDEST DUP3 PUSH1 0x0 MSTORE PUSH1 0x4 PUSH1 0x20 MSTORE PUSH1 0xFF PUSH1 0x9 PUSH1 0x40 PUSH1 0x0 KECCAK256 ADD SLOAD AND ISZERO PUSH2 0x10C7 JUMPI DUP2 ISZERO PUSH2 0x1094 JUMPI DUP1 ISZERO PUSH2 0x1056 JUMPI PUSH32 0x17B8644F386D1C7C7138EF98B3C8035622BBE94D7BE9B26F71D2654A547C2943 SWAP2 PUSH1 0x40 SWAP2 DUP5 PUSH1 0x0 MSTORE PUSH1 0x4 PUSH1 0x20 MSTORE DUP2 PUSH1 0x3 DUP5 PUSH1 0x0 KECCAK256 ADD SSTORE DUP5 PUSH1 0x0 MSTORE PUSH1 0x4 PUSH1 0x20 MSTORE DUP1 PUSH1 0x4 DUP5 PUSH1 0x0 KECCAK256 ADD SSTORE DUP3 MLOAD SWAP2 DUP3 MSTORE PUSH1 0x20 DUP3 ADD MSTORE LOG2 STOP JUMPDEST PUSH1 0x40 MLOAD PUSH3 0x461BCD PUSH1 0xE5 SHL DUP2 MSTORE PUSH1 0x20 PUSH1 0x4 DUP3 ADD MSTORE PUSH1 0x16 PUSH1 0x24 DUP3 ADD MSTORE PUSH22 0x125B9D985B1A59081B5A5B9A5B5D5B481C195C9A5BD9 PUSH1 0x52 SHL PUSH1 0x44 DUP3 ADD MSTORE PUSH1 0x64 SWAP1 REVERT JUMPDEST PUSH1 0x40 MLOAD PUSH3 0x461BCD PUSH1 0xE5 SHL DUP2 MSTORE PUSH1 0x20 PUSH1 0x4 DUP3 ADD MSTORE PUSH1 0xB PUSH1 0x24 DUP3 ADD MSTORE PUSH11 0x496E76616C696420415059 PUSH1 0xA8 SHL PUSH1 0x44 DUP3 ADD MSTORE PUSH1 0x64 SWAP1 REVERT JUMPDEST PUSH1 0x40 MLOAD PUSH3 0x461BCD PUSH1 0xE5 SHL DUP2 MSTORE PUSH1 0x20 PUSH1 0x4 DUP3 ADD MSTORE PUSH1 0x22 PUSH1 0x24 DUP3 ADD MSTORE PUSH32 0x506F6F6C20646F6573206E6F74206578697374206F7220697320696E61637469 PUSH1 0x44 DUP3 ADD MSTORE PUSH2 0x7665 PUSH1 0xF0 SHL PUSH1 0x64 DUP3 ADD MSTORE PUSH1 0x84 SWAP1 REVERT JUMPDEST CALLVALUE PUSH2 0x3AB JUMPI PUSH2 0x1125 CALLDATASIZE PUSH2 0x38EE JUMP JUMPDEST SWAP1 PUSH1 0x1 DUP1 PUSH1 0xA0 SHL SUB PUSH1 0xC SLOAD AND CALLER EQ DUP1 ISZERO PUSH2 0x1191 JUMPI JUMPDEST PUSH2 0x1143 SWAP1 PUSH2 0x3EC3 JUMP JUMPDEST PUSH1 0x0 MSTORE PUSH1 0x3 PUSH1 0x20 MSTORE PUSH1 0x40 PUSH1 0x0 KECCAK256 SWAP1 DUP2 SLOAD SWAP2 PUSH1 0x1 PUSH1 0x40 SHL DUP4 LT ISZERO PUSH2 0x117B JUMPI DUP3 PUSH2 0x1173 SWAP2 PUSH1 0x1 PUSH2 0x1179 SWAP6 ADD DUP2 SSTORE PUSH2 0x3F0E JUMP JUMPDEST SWAP1 PUSH2 0x3F2A JUMP JUMPDEST STOP JUMPDEST PUSH4 0x4E487B71 PUSH1 0xE0 SHL PUSH1 0x0 MSTORE PUSH1 0x41 PUSH1 0x4 MSTORE PUSH1 0x24 PUSH1 0x0 REVERT JUMPDEST POP PUSH1 0xE SLOAD PUSH1 0x1 PUSH1 0x1 PUSH1 0xA0 SHL SUB AND CALLER EQ PUSH2 0x113A JUMP JUMPDEST CALLVALUE PUSH2 0x3AB JUMPI PUSH1 0x0 CALLDATASIZE PUSH1 0x3 NOT ADD SLT PUSH2 0x3AB JUMPI PUSH1 0x9 SLOAD PUSH1 0x40 MLOAD PUSH1 0x1 PUSH1 0x1 PUSH1 0xA0 SHL SUB SWAP1 SWAP2 AND DUP2 MSTORE PUSH1 0x20 SWAP1 RETURN JUMPDEST CALLVALUE PUSH2 0x3AB JUMPI PUSH1 0x20 CALLDATASIZE PUSH1 0x3 NOT ADD SLT PUSH2 0x3AB JUMPI PUSH1 0x4 CALLDATALOAD PUSH1 0x0 MSTORE PUSH1 0x4 PUSH1 0x20 MSTORE PUSH1 0x40 PUSH1 0x0 KECCAK256 DUP1 SLOAD PUSH1 0x40 MLOAD SWAP2 DUP3 DUP1 PUSH1 0x1 DUP4 ADD SWAP1 PUSH2 0x1205 SWAP2 PUSH2 0x3A39 JUMP JUMPDEST SUB PUSH2 0x1210 SWAP1 DUP5 PUSH2 0x380E JUMP JUMPDEST PUSH1 0x2 DUP2 ADD SLOAD PUSH1 0xFF AND SWAP1 PUSH1 0x3 DUP2 ADD SLOAD SWAP1 PUSH1 0x4 DUP2 ADD SLOAD SWAP1 PUSH1 0x5 DUP2 ADD SLOAD PUSH1 0x6 DUP3 ADD SLOAD PUSH1 0x7 DUP4 ADD SLOAD PUSH1 0x8 DUP5 ADD SLOAD SWAP1 PUSH1 0x9 DUP6 ADD SLOAD PUSH1 0xFF AND SWAP3 PUSH1 0xA DUP7 ADD SLOAD SWAP5 PUSH1 0xB DUP8 ADD SLOAD SWAP7 PUSH1 0xC ADD SLOAD SWAP8 DUP9 PUSH1 0xA8 SHR PUSH1 0xFF AND SWAP10 PUSH1 0x40 MLOAD SWAP14 DUP15 SWAP14 DUP15 MSTORE DUP14 PUSH1 0x20 DUP2 ADD PUSH2 0x1E0 SWAP1 MSTORE PUSH2 0x1E0 ADD PUSH2 0x127B SWAP2 PUSH2 0x367A JUMP JUMPDEST SWAP12 DUP14 PUSH2 0x1286 DUP3 PUSH2 0x369F JUMP JUMPDEST PUSH1 0x40 ADD MSTORE PUSH1 0x60 DUP14 ADD MSTORE PUSH1 0x80 DUP13 ADD MSTORE PUSH1 0xA0 DUP12 ADD MSTORE PUSH1 0xC0 DUP11 ADD MSTORE PUSH1 0xE0 DUP10 ADD MSTORE PUSH2 0x100 DUP9 ADD MSTORE ISZERO ISZERO PUSH2 0x120 DUP8 ADD MSTORE PUSH2 0x140 DUP7 ADD MSTORE PUSH2 0x160 DUP6 ADD MSTORE PUSH1 0xFF DUP2 AND PUSH2 0x180 DUP6 ADD MSTORE PUSH1 0x8 SHR PUSH1 0x1 PUSH1 0x1 PUSH1 0xA0 SHL SUB AND PUSH2 0x1A0 DUP5 ADD MSTORE PUSH2 0x12E2 DUP2 PUSH2 0x36A9 JUMP JUMPDEST PUSH2 0x1C0 DUP4 ADD MSTORE SUB SWAP1 RETURN JUMPDEST CALLVALUE PUSH2 0x3AB JUMPI PUSH1 0x20 CALLDATASIZE PUSH1 0x3 NOT ADD SLT PUSH2 0x3AB JUMPI PUSH2 0x1305 PUSH2 0x382F JUMP JUMPDEST PUSH2 0x130D PUSH2 0x43EF JUMP JUMPDEST PUSH1 0x6 SLOAD SWAP1 PUSH1 0x1 PUSH1 0x1 PUSH1 0xA0 SHL SUB DUP3 AND PUSH2 0x139D JUMPI PUSH1 0x1 PUSH1 0x1 PUSH1 0xA0 SHL SUB AND SWAP1 DUP2 ISZERO PUSH2 0x134E JUMPI PUSH1 0x1 PUSH1 0x1 PUSH1 0xA0 SHL SUB NOT SWAP1 DUP2 AND DUP3 OR PUSH1 0x6 SSTORE PUSH1 0x9 DUP1 SLOAD SWAP1 SWAP2 AND SWAP1 SWAP2 OR SWAP1 SSTORE STOP JUMPDEST PUSH1 0x40 MLOAD PUSH3 0x461BCD PUSH1 0xE5 SHL DUP2 MSTORE PUSH1 0x20 PUSH1 0x4 DUP3 ADD MSTORE PUSH1 0x21 PUSH1 0x24 DUP3 ADD MSTORE PUSH32 0x476F7665726E616E636520616464726573732063616E6E6F74206265207A6572 PUSH1 0x44 DUP3 ADD MSTORE PUSH1 0x6F PUSH1 0xF8 SHL PUSH1 0x64 DUP3 ADD MSTORE PUSH1 0x84 SWAP1 REVERT JUMPDEST PUSH1 0x40 MLOAD PUSH3 0x461BCD PUSH1 0xE5 SHL DUP2 MSTORE PUSH1 0x20 PUSH1 0x4 DUP3 ADD MSTORE PUSH1 0x16 PUSH1 0x24 DUP3 ADD MSTORE PUSH22 0x11DBDD995C9B985B98D948185B1C9958591E481CD95D PUSH1 0x52 SHL PUSH1 0x44 DUP3 ADD MSTORE PUSH1 0x64 SWAP1 REVERT JUMPDEST CALLVALUE PUSH2 0x3AB JUMPI PUSH2 0x13E9 CALLDATASIZE PUSH2 0x38D8 JUMP JUMPDEST SWAP1 PUSH1 0x1 DUP1 PUSH1 0xA0 SHL SUB PUSH1 0xC SLOAD AND CALLER EQ DUP1 ISZERO PUSH2 0x1426 JUMPI JUMPDEST PUSH2 0x1407 SWAP1 PUSH2 0x3EC3 JUMP JUMPDEST PUSH1 0x0 MSTORE PUSH1 0x4 PUSH1 0x20 MSTORE PUSH2 0x1422 PUSH1 0xA PUSH1 0x40 PUSH1 0x0 KECCAK256 ADD SWAP2 DUP3 SLOAD PUSH2 0x3B58 JUMP JUMPDEST SWAP1 SSTORE STOP JUMPDEST POP PUSH1 0xE SLOAD PUSH1 0x1 PUSH1 0x1 PUSH1 0xA0 SHL SUB AND CALLER EQ PUSH2 0x13FE JUMP JUMPDEST CALLVALUE PUSH2 0x3AB JUMPI PUSH2 0x1448 CALLDATASIZE PUSH2 0x38EE JUMP JUMPDEST PUSH1 0xC SLOAD PUSH1 0x1 PUSH1 0x1 PUSH1 0xA0 SHL SUB AND CALLER EQ DUP1 ISZERO PUSH2 0x14C1 JUMPI JUMPDEST PUSH2 0x1466 SWAP1 PUSH2 0x3EC3 JUMP JUMPDEST PUSH1 0x0 JUMPDEST DUP3 PUSH1 0x0 MSTORE PUSH1 0x3 PUSH1 0x20 MSTORE PUSH1 0x40 PUSH1 0x0 KECCAK256 SLOAD DUP2 LT ISZERO PUSH2 0x1179 JUMPI DUP3 PUSH1 0x0 MSTORE PUSH1 0x3 PUSH1 0x20 MSTORE PUSH2 0x1496 DUP2 PUSH1 0x40 PUSH1 0x0 KECCAK256 PUSH2 0x3F0E JUMP JUMPDEST POP SLOAD DUP3 MLOAD EQ PUSH2 0x14A7 JUMPI PUSH1 0x1 ADD PUSH2 0x1469 JUMP JUMPDEST PUSH2 0x1173 SWAP1 PUSH2 0x1179 SWAP4 PUSH1 0x0 MSTORE PUSH1 0x3 PUSH1 0x20 MSTORE PUSH1 0x40 PUSH1 0x0 KECCAK256 PUSH2 0x3F0E JUMP JUMPDEST POP PUSH1 0xE SLOAD PUSH1 0x1 PUSH1 0x1 PUSH1 0xA0 SHL SUB AND CALLER EQ PUSH2 0x145D JUMP JUMPDEST CALLVALUE PUSH2 0x3AB JUMPI PUSH2 0x14E3 CALLDATASIZE PUSH2 0x38D8 JUMP JUMPDEST SWAP1 PUSH1 0x1 DUP1 PUSH1 0xA0 SHL SUB PUSH1 0xC SLOAD AND CALLER EQ DUP1 ISZERO PUSH2 0x151C JUMPI JUMPDEST PUSH2 0x1501 SWAP1 PUSH2 0x3EC3 JUMP JUMPDEST PUSH1 0x0 MSTORE PUSH1 0x4 PUSH1 0x20 MSTORE PUSH2 0x1422 PUSH1 0xA PUSH1 0x40 PUSH1 0x0 KECCAK256 ADD SWAP2 DUP3 SLOAD PUSH2 0x3B2B JUMP JUMPDEST POP PUSH1 0xE SLOAD PUSH1 0x1 PUSH1 0x1 PUSH1 0xA0 SHL SUB AND CALLER EQ PUSH2 0x14F8 JUMP JUMPDEST CALLVALUE PUSH2 0x3AB JUMPI PUSH1 0x20 CALLDATASIZE PUSH1 0x3 NOT ADD SLT PUSH2 0x3AB JUMPI PUSH1 0x4 CALLDATALOAD PUSH2 0x154C PUSH2 0x43EF JUMP JUMPDEST DUP1 PUSH1 0x0 MSTORE PUSH1 0x4 PUSH1 0x20 MSTORE PUSH2 0x1569 PUSH1 0xFF PUSH1 0x9 PUSH1 0x40 PUSH1 0x0 KECCAK256 ADD SLOAD AND PUSH2 0x3E82 JUMP JUMPDEST PUSH1 0x0 SWAP1 DUP2 MSTORE PUSH1 0x4 PUSH1 0x20 MSTORE PUSH1 0x40 SWAP1 KECCAK256 PUSH1 0x9 ADD DUP1 SLOAD PUSH1 0xFF NOT AND SWAP1 SSTORE STOP JUMPDEST CALLVALUE PUSH2 0x3AB JUMPI PUSH1 0x0 CALLDATASIZE PUSH1 0x3 NOT ADD SLT PUSH2 0x3AB JUMPI PUSH1 0xB SLOAD PUSH1 0x40 MLOAD PUSH1 0x1 PUSH1 0x1 PUSH1 0xA0 SHL SUB SWAP1 SWAP2 AND DUP2 MSTORE PUSH1 0x20 SWAP1 RETURN JUMPDEST CALLVALUE PUSH2 0x3AB JUMPI PUSH1 0x20 CALLDATASIZE PUSH1 0x3 NOT ADD SLT PUSH2 0x3AB JUMPI PUSH1 0x1 PUSH1 0x1 PUSH1 0xA0 SHL SUB PUSH2 0x15CE PUSH2 0x382F JUMP JUMPDEST AND PUSH1 0x0 MSTORE PUSH1 0x10 PUSH1 0x20 MSTORE PUSH1 0x20 PUSH1 0x40 PUSH1 0x0 KECCAK256 SLOAD PUSH1 0x40 MLOAD SWAP1 DUP2 MSTORE RETURN JUMPDEST CALLVALUE PUSH2 0x3AB JUMPI PUSH1 0x20 CALLDATASIZE PUSH1 0x3 NOT ADD SLT PUSH2 0x3AB JUMPI PUSH1 0x4 CALLDATALOAD PUSH1 0x0 MSTORE PUSH1 0x4 PUSH1 0x20 MSTORE PUSH1 0x20 PUSH1 0x5 PUSH1 0x40 PUSH1 0x0 KECCAK256 ADD SLOAD PUSH1 0x40 MLOAD SWAP1 DUP2 MSTORE RETURN JUMPDEST CALLVALUE PUSH2 0x3AB JUMPI PUSH1 0x0 CALLDATASIZE PUSH1 0x3 NOT ADD SLT PUSH2 0x3AB JUMPI PUSH1 0x1 SLOAD PUSH1 0x40 MLOAD PUSH1 0x1 PUSH1 0x1 PUSH1 0xA0 SHL SUB SWAP1 SWAP2 AND DUP2 MSTORE PUSH1 0x20 SWAP1 RETURN JUMPDEST CALLVALUE PUSH2 0x3AB JUMPI PUSH1 0x60 CALLDATASIZE PUSH1 0x3 NOT ADD SLT PUSH2 0x3AB JUMPI PUSH2 0x1658 PUSH2 0x382F JUMP JUMPDEST PUSH1 0x24 CALLDATALOAD PUSH1 0x44 CALLDATALOAD PUSH1 0x2 DUP2 LT ISZERO PUSH2 0x3AB JUMPI PUSH2 0x166F PUSH2 0x43CD JUMP JUMPDEST PUSH1 0xD SLOAD PUSH1 0x1 PUSH1 0x1 PUSH1 0xA0 SHL SUB AND CALLER EQ DUP1 ISZERO PUSH2 0x1958 JUMPI JUMPDEST ISZERO PUSH2 0x1914 JUMPI DUP2 PUSH1 0x0 MSTORE PUSH1 0x4 PUSH1 0x20 MSTORE PUSH1 0x40 PUSH1 0x0 KECCAK256 SWAP3 PUSH1 0x1 DUP1 PUSH1 0xA0 SHL SUB AND SWAP1 DUP2 PUSH1 0x0 MSTORE PUSH1 0x2 PUSH1 0x20 MSTORE PUSH1 0x40 PUSH1 0x0 KECCAK256 DUP4 PUSH1 0x0 MSTORE PUSH1 0x20 MSTORE PUSH1 0x40 PUSH1 0x0 KECCAK256 SWAP1 PUSH2 0x16C5 DUP2 PUSH2 0x36A9 JUMP JUMPDEST PUSH1 0x0 MSTORE PUSH1 0x20 MSTORE PUSH1 0x40 PUSH1 0x0 KECCAK256 SWAP2 PUSH2 0x1746 PUSH1 0x1 DUP5 ADD SWAP4 DUP5 SLOAD SWAP1 PUSH2 0x16E7 DUP3 ISZERO ISZERO PUSH2 0x3BD1 JUMP JUMPDEST PUSH1 0x1 PUSH1 0x4 DUP3 ADD SWAP2 PUSH2 0x1716 PUSH1 0x7 DUP5 SLOAD SWAP3 PUSH2 0x170C PUSH1 0xFF DUP6 AND PUSH2 0x1706 DUP2 PUSH2 0x369F JUMP JUMPDEST ISZERO PUSH2 0x3C27 JUMP JUMPDEST ADD SLOAD TIMESTAMP LT ISZERO PUSH2 0x3C6B JUMP JUMPDEST PUSH1 0xFF NOT AND OR SWAP1 SSTORE PUSH2 0x172C PUSH1 0x5 DUP8 ADD SWAP2 DUP3 SLOAD PUSH2 0x3B58 JUMP JUMPDEST DUP1 SWAP2 SSTORE PUSH1 0x64 PUSH2 0x173F DUP3 PUSH1 0xB DUP10 ADD SLOAD PUSH2 0x3B45 JUMP JUMPDEST DIV SWAP1 PUSH2 0x3B58 JUMP JUMPDEST PUSH2 0x1757 PUSH1 0xFF PUSH1 0xC DUP8 ADD SLOAD AND DUP3 PUSH2 0x3B45 JUMP JUMPDEST PUSH1 0x7 DUP7 ADD SSTORE PUSH1 0x6 DUP6 ADD SSTORE PUSH1 0x0 MSTORE PUSH1 0x3 PUSH1 0x20 MSTORE PUSH1 0x40 PUSH1 0x0 KECCAK256 SWAP3 DUP4 SLOAD PUSH2 0x177A DUP2 PUSH2 0x3BBA JUMP JUMPDEST SWAP5 PUSH2 0x1788 PUSH1 0x40 MLOAD SWAP7 DUP8 PUSH2 0x380E JUMP JUMPDEST DUP2 DUP7 MSTORE PUSH1 0x20 DUP7 ADD SWAP1 PUSH1 0x0 MSTORE PUSH1 0x20 PUSH1 0x0 KECCAK256 PUSH1 0x0 SWAP2 JUMPDEST DUP4 DUP4 LT PUSH2 0x184A JUMPI POP POP POP POP PUSH1 0x0 JUMPDEST DUP5 MLOAD DUP2 LT ISZERO PUSH2 0x181A JUMPI PUSH1 0x7 SLOAD PUSH1 0x1 PUSH1 0x1 PUSH1 0xA0 SHL SUB AND SWAP1 PUSH2 0x17CA DUP2 DUP8 PUSH2 0x3B7D JUMP JUMPDEST MLOAD MLOAD DUP3 EXTCODESIZE ISZERO PUSH2 0x3AB JUMPI PUSH1 0x0 SWAP3 PUSH1 0x24 DUP5 SWAP3 PUSH1 0x40 MLOAD SWAP6 DUP7 SWAP4 DUP5 SWAP3 PUSH4 0x106B5DA1 PUSH1 0xE0 SHL DUP5 MSTORE PUSH1 0x4 DUP5 ADD MSTORE GAS CALL SWAP2 DUP3 ISZERO PUSH2 0x360 JUMPI PUSH1 0x1 SWAP3 PUSH2 0x1809 JUMPI JUMPDEST POP ADD PUSH2 0x17AA JUMP JUMPDEST PUSH1 0x0 PUSH2 0x1814 SWAP2 PUSH2 0x380E JUMP JUMPDEST DUP7 PUSH2 0x1802 JUMP JUMPDEST POP PUSH1 0x1 PUSH1 0x0 DUP1 MLOAD PUSH1 0x20 PUSH2 0x4419 DUP4 CODECOPY DUP2 MLOAD SWAP2 MSTORE SWAP2 PUSH2 0x1840 DUP6 SLOAD PUSH1 0x40 MLOAD SWAP4 DUP5 SWAP4 ADD SWAP1 DUP4 PUSH2 0x3B91 JUMP JUMPDEST SUB SWAP1 LOG2 PUSH1 0x1 PUSH1 0x0 SSTORE STOP JUMPDEST PUSH1 0xB PUSH1 0x20 PUSH1 0x1 SWAP3 PUSH1 0x40 MLOAD PUSH2 0x185D DUP2 PUSH2 0x37D6 JUMP JUMPDEST DUP6 SLOAD DUP2 MSTORE PUSH1 0x40 MLOAD PUSH2 0x187B DUP2 PUSH2 0x1874 DUP2 DUP10 DUP12 ADD PUSH2 0x3A39 JUMP JUMPDEST SUB DUP3 PUSH2 0x380E JUMP JUMPDEST DUP4 DUP3 ADD MSTORE PUSH1 0xFF PUSH1 0x2 DUP8 ADD SLOAD AND PUSH2 0x1890 DUP2 PUSH2 0x369F JUMP JUMPDEST PUSH1 0x40 DUP3 ADD MSTORE PUSH1 0x40 MLOAD PUSH2 0x18A9 DUP2 PUSH2 0x1874 DUP2 PUSH1 0x3 DUP12 ADD PUSH2 0x3A39 JUMP JUMPDEST PUSH1 0x60 DUP3 ADD MSTORE PUSH1 0x4 DUP7 ADD SLOAD PUSH1 0x80 DUP3 ADD MSTORE PUSH1 0x5 DUP7 ADD SLOAD PUSH1 0xA0 DUP3 ADD MSTORE PUSH1 0x6 DUP7 ADD SLOAD PUSH1 0xC0 DUP3 ADD MSTORE PUSH1 0x7 DUP7 ADD SLOAD PUSH1 0xE0 DUP3 ADD MSTORE PUSH1 0x8 DUP7 ADD SLOAD PUSH2 0x100 DUP3 ADD MSTORE PUSH1 0x9 DUP7 ADD SLOAD PUSH2 0x120 DUP3 ADD MSTORE PUSH1 0x40 MLOAD PUSH2 0x1900 DUP2 PUSH2 0x1874 DUP2 PUSH1 0xA DUP12 ADD PUSH2 0x3A39 JUMP JUMPDEST PUSH2 0x140 DUP3 ADD MSTORE DUP2 MSTORE ADD SWAP3 ADD SWAP3 ADD SWAP2 SWAP1 PUSH2 0x179C JUMP JUMPDEST PUSH1 0x64 PUSH1 0x40 MLOAD PUSH3 0x461BCD PUSH1 0xE5 SHL DUP2 MSTORE PUSH1 0x20 PUSH1 0x4 DUP3 ADD MSTORE PUSH1 0x20 PUSH1 0x24 DUP3 ADD MSTORE PUSH32 0x43616C6C6572206973206E6F7420746865207661756C7420636F6E7472616374 PUSH1 0x44 DUP3 ADD MSTORE REVERT JUMPDEST POP PUSH1 0xE SLOAD PUSH1 0x1 PUSH1 0x1 PUSH1 0xA0 SHL SUB AND CALLER EQ PUSH2 0x1684 JUMP JUMPDEST CALLVALUE PUSH2 0x3AB JUMPI PUSH1 0x20 CALLDATASIZE PUSH1 0x3 NOT ADD SLT PUSH2 0x3AB JUMPI PUSH2 0x1988 PUSH1 0x4 CALLDATALOAD PUSH2 0x3D77 JUMP JUMPDEST PUSH1 0x40 MLOAD DUP1 SWAP2 PUSH1 0x20 DUP3 ADD PUSH1 0x20 DUP4 MSTORE DUP2 MLOAD DUP1 SWAP2 MSTORE PUSH1 0x40 DUP4 ADD SWAP1 PUSH1 0x20 PUSH1 0x40 DUP3 PUSH1 0x5 SHL DUP7 ADD ADD SWAP4 ADD SWAP2 PUSH1 0x0 SWAP1 JUMPDEST DUP3 DUP3 LT PUSH2 0x19C0 JUMPI POP POP POP POP SUB SWAP1 RETURN JUMPDEST SWAP2 SWAP4 PUSH1 0x1 SWAP2 SWAP4 SWAP6 POP PUSH1 0x20 PUSH2 0x1A75 DUP2 SWAP3 PUSH1 0x3F NOT DUP11 DUP3 SUB ADD DUP7 MSTORE DUP9 MLOAD SWAP1 DUP2 MLOAD DUP2 MSTORE PUSH2 0x140 PUSH2 0x1A23 PUSH2 0x19FE DUP7 DUP6 ADD MLOAD PUSH2 0x160 DUP9 DUP7 ADD MSTORE PUSH2 0x160 DUP6 ADD SWAP1 PUSH2 0x367A JUMP JUMPDEST PUSH1 0x40 DUP6 ADD MLOAD PUSH2 0x1A0C DUP2 PUSH2 0x369F JUMP JUMPDEST PUSH1 0x40 DUP6 ADD MSTORE PUSH1 0x60 DUP6 ADD MLOAD DUP5 DUP3 SUB PUSH1 0x60 DUP7 ADD MSTORE PUSH2 0x367A JUMP JUMPDEST SWAP3 PUSH1 0x80 DUP2 ADD MLOAD PUSH1 0x80 DUP5 ADD MSTORE PUSH1 0xA0 DUP2 ADD MLOAD PUSH1 0xA0 DUP5 ADD MSTORE PUSH1 0xC0 DUP2 ADD MLOAD PUSH1 0xC0 DUP5 ADD MSTORE PUSH1 0xE0 DUP2 ADD MLOAD PUSH1 0xE0 DUP5 ADD MSTORE PUSH2 0x100 DUP2 ADD MLOAD PUSH2 0x100 DUP5 ADD MSTORE PUSH2 0x120 DUP2 ADD MLOAD PUSH2 0x120 DUP5 ADD MSTORE ADD MLOAD SWAP1 PUSH2 0x140 DUP2 DUP5 SUB SWAP2 ADD MSTORE PUSH2 0x367A JUMP JUMPDEST SWAP7 ADD SWAP3 ADD SWAP3 ADD DUP6 SWAP5 SWAP4 SWAP2 SWAP3 PUSH2 0x19B1 JUMP JUMPDEST CALLVALUE PUSH2 0x3AB JUMPI PUSH1 0x20 CALLDATASIZE PUSH1 0x3 NOT ADD SLT PUSH2 0x3AB JUMPI PUSH2 0x1A9E PUSH2 0x382F JUMP JUMPDEST PUSH2 0x1AA6 PUSH2 0x43EF JUMP JUMPDEST PUSH1 0xC SLOAD SWAP1 PUSH1 0x1 PUSH1 0x1 PUSH1 0xA0 SHL SUB DUP3 AND PUSH2 0x1B29 JUMPI PUSH1 0x1 PUSH1 0x1 PUSH1 0xA0 SHL SUB AND SWAP1 DUP2 ISZERO PUSH2 0x1AE4 JUMPI PUSH1 0x7 DUP1 SLOAD PUSH1 0x1 PUSH1 0x1 PUSH1 0xA0 SHL SUB NOT SWAP1 DUP2 AND DUP5 OR SWAP1 SWAP2 SSTORE AND OR PUSH1 0xC SSTORE STOP JUMPDEST PUSH1 0x40 MLOAD PUSH3 0x461BCD PUSH1 0xE5 SHL DUP2 MSTORE PUSH1 0x20 PUSH1 0x4 DUP3 ADD MSTORE PUSH1 0x1C PUSH1 0x24 DUP3 ADD MSTORE PUSH32 0x436F76657220616464726573732063616E6E6F74206265207A65726F00000000 PUSH1 0x44 DUP3 ADD MSTORE PUSH1 0x64 SWAP1 REVERT JUMPDEST PUSH1 0x40 MLOAD PUSH3 0x461BCD PUSH1 0xE5 SHL DUP2 MSTORE PUSH1 0x20 PUSH1 0x4 DUP3 ADD MSTORE PUSH1 0x11 PUSH1 0x24 DUP3 ADD MSTORE PUSH17 0x10DBDD995C88185B1C9958591E481CD95D PUSH1 0x7A SHL PUSH1 0x44 DUP3 ADD MSTORE PUSH1 0x64 SWAP1 REVERT JUMPDEST CALLVALUE PUSH2 0x3AB JUMPI PUSH1 0x0 CALLDATASIZE PUSH1 0x3 NOT ADD SLT PUSH2 0x3AB JUMPI PUSH2 0x1B7B PUSH2 0x43EF JUMP JUMPDEST PUSH1 0x1 DUP1 SLOAD PUSH1 0x1 PUSH1 0x1 PUSH1 0xA0 SHL SUB NOT DUP2 AND SWAP1 SWAP2 SSTORE PUSH1 0x0 SWAP1 PUSH1 0x1 PUSH1 0x1 PUSH1 0xA0 SHL SUB AND PUSH32 0x8BE0079C531659141344CD1FD0A4F28419497F9722A3DAAFE3B4186F6B6457E0 DUP3 DUP1 LOG3 STOP JUMPDEST CALLVALUE PUSH2 0x3AB JUMPI PUSH1 0x0 CALLDATASIZE PUSH1 0x3 NOT ADD SLT PUSH2 0x3AB JUMPI PUSH1 0x8 SLOAD PUSH1 0x40 MLOAD PUSH1 0x1 PUSH1 0x1 PUSH1 0xA0 SHL SUB SWAP1 SWAP2 AND DUP2 MSTORE PUSH1 0x20 SWAP1 RETURN JUMPDEST CALLVALUE PUSH2 0x3AB JUMPI PUSH1 0x20 CALLDATASIZE PUSH1 0x3 NOT ADD SLT PUSH2 0x3AB JUMPI PUSH2 0x1C01 PUSH2 0x382F JUMP JUMPDEST PUSH2 0x1C09 PUSH2 0x43EF JUMP JUMPDEST PUSH1 0xD SLOAD PUSH1 0x1 PUSH1 0x1 PUSH1 0xA0 SHL SUB AND PUSH2 0x1CA3 JUMPI PUSH1 0x1 PUSH1 0x1 PUSH1 0xA0 SHL SUB AND DUP1 ISZERO PUSH2 0x1C5E JUMPI DUP1 PUSH12 0xFFFFFFFFFFFFFFFFFFFFFFFF PUSH1 0xA0 SHL PUSH1 0x8 SLOAD AND OR PUSH1 0x8 SSTORE PUSH12 0xFFFFFFFFFFFFFFFFFFFFFFFF PUSH1 0xA0 SHL PUSH1 0xC SLOAD AND OR PUSH1 0xC SSTORE PUSH1 0x0 DUP1 RETURN JUMPDEST PUSH1 0x40 MLOAD PUSH3 0x461BCD PUSH1 0xE5 SHL DUP2 MSTORE PUSH1 0x20 PUSH1 0x4 DUP3 ADD MSTORE PUSH1 0x1C PUSH1 0x24 DUP3 ADD MSTORE PUSH32 0x5661756C7420616464726573732063616E6E6F74206265207A65726F00000000 PUSH1 0x44 DUP3 ADD MSTORE PUSH1 0x64 SWAP1 REVERT JUMPDEST PUSH1 0x40 MLOAD PUSH3 0x461BCD PUSH1 0xE5 SHL DUP2 MSTORE PUSH1 0x20 PUSH1 0x4 DUP3 ADD MSTORE PUSH1 0x11 PUSH1 0x24 DUP3 ADD MSTORE PUSH17 0x15985D5B1D08185B1C9958591E481CD95D PUSH1 0x7A SHL PUSH1 0x44 DUP3 ADD MSTORE PUSH1 0x64 SWAP1 REVERT JUMPDEST CALLVALUE PUSH2 0x3AB JUMPI PUSH1 0x20 CALLDATASIZE PUSH1 0x3 NOT ADD SLT PUSH2 0x3AB JUMPI PUSH1 0x4 CALLDATALOAD PUSH1 0x1 PUSH1 0x1 PUSH1 0x40 SHL SUB DUP2 GT PUSH2 0x3AB JUMPI PUSH2 0x120 PUSH1 0x3 NOT DUP3 CALLDATASIZE SUB ADD SLT PUSH2 0x3AB JUMPI PUSH1 0x40 MLOAD SWAP1 PUSH2 0x1D1A DUP3 PUSH2 0x37F2 JUMP JUMPDEST DUP1 PUSH1 0x4 ADD CALLDATALOAD DUP3 MSTORE PUSH1 0x24 DUP2 ADD CALLDATALOAD PUSH1 0x3 DUP2 LT ISZERO PUSH2 0x3AB JUMPI PUSH1 0x20 DUP4 ADD SWAP1 DUP2 MSTORE PUSH1 0x44 DUP3 ADD CALLDATALOAD PUSH1 0x1 PUSH1 0x1 PUSH1 0x40 SHL SUB DUP2 GT PUSH2 0x3AB JUMPI PUSH2 0x1D59 SWAP1 PUSH1 0x4 CALLDATASIZE SWAP2 DUP6 ADD ADD PUSH2 0x3891 JUMP JUMPDEST SWAP3 PUSH1 0x40 DUP2 ADD SWAP4 DUP5 MSTORE PUSH1 0x60 DUP2 ADD SWAP2 PUSH1 0x64 DUP5 ADD CALLDATALOAD DUP4 MSTORE PUSH1 0x80 DUP3 ADD PUSH1 0x84 DUP6 ADD CALLDATALOAD DUP2 MSTORE PUSH1 0xA4 DUP6 ADD CALLDATALOAD SWAP2 PUSH1 0xFF DUP4 AND DUP4 SUB PUSH2 0x3AB JUMPI PUSH1 0xA0 DUP5 ADD SWAP3 DUP4 MSTORE PUSH1 0xC0 DUP5 ADD SWAP2 PUSH1 0xC4 DUP8 ADD CALLDATALOAD DUP4 MSTORE PUSH1 0xE4 DUP8 ADD CALLDATALOAD SWAP7 PUSH1 0x2 DUP9 LT ISZERO PUSH2 0x3AB JUMPI PUSH1 0xE0 DUP7 ADD SWAP8 DUP9 MSTORE PUSH2 0x104 ADD CALLDATALOAD PUSH1 0x1 PUSH1 0x1 PUSH1 0xA0 SHL SUB DUP2 AND DUP2 SUB PUSH2 0x3AB JUMPI PUSH2 0x100 DUP7 ADD SWAP1 DUP2 MSTORE PUSH2 0x1DD6 PUSH2 0x43EF JUMP JUMPDEST DUP8 MLOAD PUSH2 0x1DE1 DUP2 PUSH2 0x36A9 JUMP JUMPDEST PUSH2 0x1DEA DUP2 PUSH2 0x36A9 JUMP JUMPDEST ISZERO SWAP1 DUP2 ISZERO PUSH2 0x2064 JUMPI JUMPDEST POP ISZERO PUSH2 0x201F JUMPI PUSH1 0x5 SLOAD PUSH1 0x1 DUP2 ADD DUP1 SWAP2 GT PUSH2 0xF8B JUMPI PUSH1 0x5 SSTORE DUP5 MLOAD PUSH1 0x0 MSTORE PUSH1 0x4 PUSH1 0x20 MSTORE PUSH1 0x40 PUSH1 0x0 KECCAK256 SWAP6 DUP6 MLOAD DUP8 SSTORE DUP9 MLOAD PUSH1 0x1 DUP9 ADD SWAP1 DUP1 MLOAD SWAP1 PUSH1 0x1 PUSH1 0x1 PUSH1 0x40 SHL SUB DUP3 GT PUSH2 0x117B JUMPI PUSH2 0x1E40 DUP4 SLOAD PUSH2 0x39FF JUMP JUMPDEST PUSH1 0x1F DUP2 GT PUSH2 0x1FD7 JUMPI JUMPDEST POP PUSH1 0x20 SWAP1 PUSH1 0x1F DUP4 GT PUSH1 0x1 EQ PUSH2 0x1F66 JUMPI SWAP2 DUP1 PUSH2 0x1EC5 SWAP7 SWAP5 SWAP3 PUSH1 0xFF SWAP10 SWAP9 SWAP7 SWAP5 PUSH1 0x0 SWAP3 PUSH2 0x1F5B JUMPI JUMPDEST POP POP DUP2 PUSH1 0x1 SHL SWAP2 PUSH1 0x0 NOT SWAP1 PUSH1 0x3 SHL SHR NOT AND OR SWAP1 SSTORE JUMPDEST MLOAD PUSH1 0x3 DUP10 ADD SSTORE MLOAD PUSH1 0x4 DUP9 ADD SSTORE PUSH1 0x0 PUSH1 0x5 DUP9 ADD SSTORE PUSH1 0x0 PUSH1 0x7 DUP9 ADD SSTORE PUSH1 0x0 PUSH1 0x6 DUP9 ADD SSTORE PUSH1 0x9 DUP8 ADD PUSH1 0x1 DUP6 NOT DUP3 SLOAD AND OR SWAP1 SSTORE MLOAD PUSH2 0x1EBC DUP2 PUSH2 0x369F JUMP JUMPDEST PUSH1 0x2 DUP8 ADD PUSH2 0x3B65 JUMP JUMPDEST MLOAD SWAP2 DUP3 PUSH1 0xB DUP7 ADD SSTORE MLOAD AND SWAP1 PUSH1 0xC DUP5 ADD SWAP2 DUP3 SLOAD SWAP2 PUSH1 0x64 SUB SWAP6 PUSH1 0x64 DUP8 GT PUSH2 0xF8B JUMPI PUSH32 0xF01906DC0AC306FA816E50166A7ED46AF1F05721CB90CEA30BEEBDD8DEDE3A6D SWAP7 PUSH1 0xA PUSH2 0x1F56 SWAP8 ADD SSTORE MLOAD PUSH2 0x1F18 DUP2 PUSH2 0x36A9 JUMP JUMPDEST PUSH2 0x1F21 DUP2 PUSH2 0x36A9 JUMP JUMPDEST PUSH1 0xFF PUSH1 0xFF PUSH1 0xA8 SHL ADD NOT SWAP1 SWAP3 AND OR PUSH1 0xA8 SWAP2 SWAP1 SWAP2 SHL PUSH1 0xFF PUSH1 0xA8 SHL AND OR SWAP1 SSTORE MLOAD SWAP3 MLOAD PUSH1 0x40 MLOAD PUSH1 0x20 DUP1 DUP3 MSTORE SWAP1 SWAP3 DUP4 SWAP3 SWAP1 SWAP2 DUP4 ADD SWAP1 PUSH2 0x367A JUMP JUMPDEST SUB SWAP1 LOG2 STOP JUMPDEST ADD MLOAD SWAP1 POP DUP15 DUP1 PUSH2 0x1E6E JUMP JUMPDEST SWAP1 PUSH1 0x1F NOT DUP4 AND SWAP2 DUP5 PUSH1 0x0 MSTORE DUP2 PUSH1 0x0 KECCAK256 SWAP3 PUSH1 0x0 JUMPDEST DUP2 DUP2 LT PUSH2 0x1FBF JUMPI POP SWAP3 PUSH1 0x1 SWAP3 DUP6 SWAP3 PUSH1 0xFF SWAP12 SWAP11 SWAP9 SWAP7 PUSH2 0x1EC5 SWAP11 SWAP9 SWAP7 LT PUSH2 0x1FA6 JUMPI JUMPDEST POP POP POP DUP2 SHL ADD SWAP1 SSTORE PUSH2 0x1E83 JUMP JUMPDEST ADD MLOAD PUSH1 0x0 NOT PUSH1 0xF8 DUP5 PUSH1 0x3 SHL AND SHR NOT AND SWAP1 SSTORE DUP15 DUP1 DUP1 PUSH2 0x1F99 JUMP JUMPDEST SWAP3 SWAP4 PUSH1 0x20 PUSH1 0x1 DUP2 SWAP3 DUP8 DUP7 ADD MLOAD DUP2 SSTORE ADD SWAP6 ADD SWAP4 ADD PUSH2 0x1F79 JUMP JUMPDEST DUP4 PUSH1 0x0 MSTORE PUSH1 0x20 PUSH1 0x0 KECCAK256 PUSH1 0x1F DUP5 ADD PUSH1 0x5 SHR DUP2 ADD SWAP2 PUSH1 0x20 DUP6 LT PUSH2 0x2015 JUMPI JUMPDEST PUSH1 0x1F ADD PUSH1 0x5 SHR ADD SWAP1 JUMPDEST DUP2 DUP2 LT PUSH2 0x2009 JUMPI POP PUSH2 0x1E49 JUMP JUMPDEST PUSH1 0x0 DUP2 SSTORE PUSH1 0x1 ADD PUSH2 0x1FFC JUMP JUMPDEST SWAP1 SWAP2 POP DUP2 SWAP1 PUSH2 0x1FF3 JUMP JUMPDEST PUSH1 0x40 MLOAD PUSH3 0x461BCD PUSH1 0xE5 SHL DUP2 MSTORE PUSH1 0x20 PUSH1 0x4 DUP3 ADD MSTORE PUSH1 0x17 PUSH1 0x24 DUP3 ADD MSTORE PUSH32 0x57726F6E6720417373657420666F72204465706F736974000000000000000000 PUSH1 0x44 DUP3 ADD MSTORE PUSH1 0x64 SWAP1 REVERT JUMPDEST MLOAD PUSH1 0x1 PUSH1 0x1 PUSH1 0xA0 SHL SUB AND ISZERO ISZERO SWAP1 POP DUP10 PUSH2 0x1DF3 JUMP JUMPDEST CALLVALUE PUSH2 0x3AB JUMPI PUSH1 0x0 CALLDATASIZE PUSH1 0x3 NOT ADD SLT PUSH2 0x3AB JUMPI PUSH1 0x6 SLOAD PUSH1 0x40 MLOAD PUSH1 0x1 PUSH1 0x1 PUSH1 0xA0 SHL SUB SWAP1 SWAP2 AND DUP2 MSTORE PUSH1 0x20 SWAP1 RETURN JUMPDEST CALLVALUE PUSH2 0x3AB JUMPI PUSH1 0x40 CALLDATASIZE PUSH1 0x3 NOT ADD SLT PUSH2 0x3AB JUMPI PUSH1 0x4 CALLDATALOAD PUSH1 0x24 CALLDATALOAD PUSH1 0x1 PUSH1 0x1 PUSH1 0xA0 SHL SUB DUP2 AND DUP1 DUP3 SUB PUSH2 0x3AB JUMPI PUSH1 0x0 PUSH2 0x120 PUSH1 0x40 MLOAD PUSH2 0x20DA DUP2 PUSH2 0x37BA JUMP JUMPDEST DUP3 DUP2 MSTORE DUP3 PUSH1 0x20 DUP3 ADD MSTORE DUP3 PUSH1 0x40 DUP3 ADD MSTORE DUP3 PUSH1 0x60 DUP3 ADD MSTORE DUP3 PUSH1 0x80 DUP3 ADD MSTORE DUP3 PUSH1 0xA0 DUP3 ADD MSTORE DUP3 PUSH1 0xC0 DUP3 ADD MSTORE DUP3 PUSH1 0xE0 DUP3 ADD MSTORE DUP3 PUSH2 0x100 DUP3 ADD MSTORE ADD MSTORE PUSH1 0x0 MSTORE PUSH1 0x2 PUSH1 0x20 MSTORE PUSH1 0x40 PUSH1 0x0 KECCAK256 DUP3 PUSH1 0x0 MSTORE PUSH1 0x20 MSTORE PUSH1 0x40 PUSH1 0x0 KECCAK256 PUSH1 0x0 DUP1 MSTORE PUSH1 0x20 MSTORE PUSH1 0x40 PUSH1 0x0 KECCAK256 SWAP1 PUSH1 0x40 MLOAD DUP1 SWAP3 PUSH2 0x2144 DUP3 PUSH2 0x37BA JUMP JUMPDEST DUP1 SLOAD PUSH1 0x1 PUSH1 0x1 PUSH1 0xA0 SHL SUB AND DUP3 MSTORE PUSH1 0x1 DUP2 ADD SLOAD PUSH1 0x20 DUP4 ADD SWAP1 DUP2 MSTORE PUSH1 0x2 DUP3 ADD SLOAD PUSH1 0x40 DUP5 ADD SWAP1 DUP2 MSTORE PUSH1 0x3 DUP4 ADD SLOAD PUSH1 0x60 DUP6 ADD SWAP1 DUP2 MSTORE PUSH1 0x4 DUP5 ADD SLOAD SWAP3 SWAP8 SWAP3 PUSH1 0x80 DUP7 ADD SWAP2 SWAP1 PUSH1 0xFF AND PUSH2 0x218F DUP2 PUSH2 0x369F JUMP JUMPDEST DUP3 MSTORE PUSH1 0x5 DUP6 ADD SLOAD SWAP3 PUSH1 0xA0 DUP8 ADD SWAP4 DUP5 MSTORE PUSH2 0x221E PUSH1 0x20 PUSH1 0x6 DUP9 ADD SLOAD SWAP7 PUSH1 0xC0 DUP11 ADD SWAP8 DUP9 MSTORE PUSH1 0xFF PUSH1 0x9 PUSH1 0x7 DUP12 ADD SLOAD SWAP11 PUSH1 0xE0 DUP14 ADD SWAP12 DUP13 MSTORE PUSH2 0x100 PUSH1 0x8 DUP3 ADD SLOAD SWAP14 ADD SWAP13 DUP14 MSTORE ADD SLOAD AND SWAP11 PUSH2 0x120 DUP14 ADD SWAP12 PUSH2 0x21E1 DUP2 PUSH2 0x36A9 JUMP JUMPDEST DUP13 MSTORE PUSH1 0x7 SLOAD PUSH1 0x40 MLOAD PUSH4 0x4149605 PUSH1 0xE2 SHL DUP2 MSTORE PUSH1 0x1 PUSH1 0x1 PUSH1 0xA0 SHL SUB SWAP3 DUP4 AND PUSH1 0x4 DUP3 ADD MSTORE PUSH1 0x24 DUP2 ADD SWAP4 SWAP1 SWAP4 MSTORE SWAP2 SWAP4 DUP5 SWAP3 SWAP1 SWAP2 AND SWAP1 DUP3 SWAP1 DUP2 SWAP1 PUSH1 0x44 DUP3 ADD SWAP1 JUMP JUMPDEST SUB SWAP2 GAS STATICCALL SWAP1 DUP2 ISZERO PUSH2 0x360 JUMPI PUSH1 0x0 SWAP2 PUSH2 0x231D JUMPI JUMPDEST POP DUP1 PUSH2 0x230E JUMPI POP PUSH2 0x225D PUSH2 0x12C PUSH2 0x2255 DUP8 MLOAD JUMPDEST TIMESTAMP DUP11 MLOAD DUP1 TIMESTAMP GT PUSH2 0x2306 JUMPI JUMPDEST POP PUSH2 0x3B58 JUMP JUMPDEST DIV DUP4 MLOAD PUSH2 0x3B45 JUMP JUMPDEST DUP8 MSTORE DUP6 MLOAD TIMESTAMP DUP2 GT PUSH2 0x22D0 JUMPI POP PUSH2 0x140 SWAP10 PUSH1 0x0 DUP6 MSTORE JUMPDEST PUSH1 0x40 DUP1 MLOAD SWAP11 MLOAD PUSH1 0x1 PUSH1 0x1 PUSH1 0xA0 SHL SUB AND DUP12 MSTORE SWAP1 MLOAD PUSH1 0x20 DUP12 ADD MSTORE SWAP1 MLOAD SWAP1 DUP10 ADD MSTORE MLOAD PUSH1 0x60 DUP9 ADD MSTORE MLOAD PUSH2 0x22A0 DUP2 PUSH2 0x369F JUMP JUMPDEST PUSH1 0x80 DUP8 ADD MSTORE MLOAD PUSH1 0xA0 DUP7 ADD MSTORE MLOAD PUSH1 0xC0 DUP6 ADD MSTORE MLOAD PUSH1 0xE0 DUP5 ADD MSTORE MLOAD PUSH2 0x100 DUP4 ADD MSTORE MLOAD PUSH2 0x22C8 DUP2 PUSH2 0x36A9 JUMP JUMPDEST PUSH2 0x120 DUP3 ADD MSTORE RETURN JUMPDEST PUSH2 0x22DB SWAP1 TIMESTAMP SWAP1 PUSH2 0x3B58 JUMP JUMPDEST SWAP10 PUSH3 0x15180 DUP12 ADD SWAP11 DUP12 DUP2 GT PUSH2 0xF8B JUMPI PUSH3 0x1517F ADD SWAP11 DUP12 GT PUSH2 0xF8B JUMPI PUSH3 0x15180 PUSH2 0x140 SWAP12 DIV DUP6 MSTORE PUSH2 0x2272 JUMP JUMPDEST SWAP1 POP DUP16 PUSH2 0x224F JUMP JUMPDEST PUSH2 0x12C PUSH2 0x2255 PUSH2 0x225D SWAP3 PUSH2 0x2244 JUMP JUMPDEST SWAP1 PUSH1 0x20 DUP3 RETURNDATASIZE PUSH1 0x20 GT PUSH2 0x2347 JUMPI JUMPDEST DUP2 PUSH2 0x2337 PUSH1 0x20 SWAP4 DUP4 PUSH2 0x380E JUMP JUMPDEST DUP2 ADD SUB SLT PUSH2 0x514 JUMPI POP MLOAD DUP12 PUSH2 0x2231 JUMP JUMPDEST RETURNDATASIZE SWAP2 POP PUSH2 0x232A JUMP JUMPDEST CALLVALUE PUSH2 0x3AB JUMPI PUSH1 0x20 CALLDATASIZE PUSH1 0x3 NOT ADD SLT PUSH2 0x3AB JUMPI PUSH1 0x4 CALLDATALOAD PUSH2 0x236B PUSH2 0x43CD JUMP JUMPDEST DUP1 PUSH1 0x0 MSTORE PUSH1 0x4 PUSH1 0x20 MSTORE PUSH1 0x40 PUSH1 0x0 KECCAK256 SWAP1 CALLER PUSH1 0x0 MSTORE PUSH1 0x2 PUSH1 0x20 MSTORE PUSH1 0x40 PUSH1 0x0 KECCAK256 DUP2 PUSH1 0x0 MSTORE PUSH1 0x20 MSTORE PUSH1 0x40 PUSH1 0x0 KECCAK256 PUSH1 0x0 DUP1 MSTORE PUSH1 0x20 MSTORE PUSH1 0x40 PUSH1 0x0 KECCAK256 SWAP2 PUSH2 0x23FF PUSH1 0x1 DUP5 ADD SWAP4 DUP5 SLOAD SWAP1 PUSH2 0x23B7 DUP3 ISZERO ISZERO PUSH2 0x3BD1 JUMP JUMPDEST PUSH1 0x2 PUSH1 0x4 DUP3 ADD SWAP2 PUSH2 0x23D6 PUSH1 0x7 DUP5 SLOAD SWAP3 PUSH2 0x170C PUSH1 0xFF DUP6 AND PUSH2 0x1706 DUP2 PUSH2 0x369F JUMP JUMPDEST PUSH1 0xFF NOT AND OR SWAP1 SSTORE PUSH2 0x23EC PUSH1 0x5 DUP5 ADD SWAP2 DUP3 SLOAD PUSH2 0x3B58 JUMP JUMPDEST DUP1 SWAP2 SSTORE PUSH1 0x64 PUSH2 0x173F DUP3 PUSH1 0xB DUP7 ADD SLOAD PUSH2 0x3B45 JUMP JUMPDEST SWAP2 PUSH1 0xC DUP3 ADD SWAP3 PUSH2 0x2413 PUSH1 0xFF DUP6 SLOAD AND DUP3 PUSH2 0x3B45 JUMP JUMPDEST PUSH1 0x7 DUP5 ADD SSTORE PUSH1 0x6 DUP4 ADD SSTORE PUSH1 0x0 MSTORE PUSH1 0x3 PUSH1 0x20 MSTORE PUSH1 0x40 PUSH1 0x0 KECCAK256 SWAP3 DUP4 SLOAD PUSH2 0x2436 DUP2 PUSH2 0x3BBA JUMP JUMPDEST SWAP5 PUSH2 0x2444 PUSH1 0x40 MLOAD SWAP7 DUP8 PUSH2 0x380E JUMP JUMPDEST DUP2 DUP7 MSTORE PUSH1 0x20 DUP7 ADD SWAP1 PUSH1 0x0 MSTORE PUSH1 0x20 PUSH1 0x0 KECCAK256 PUSH1 0x0 SWAP2 JUMPDEST DUP4 DUP4 LT PUSH2 0x25EC JUMPI POP POP POP POP PUSH1 0x0 JUMPDEST DUP5 MLOAD DUP2 LT ISZERO PUSH2 0x24D6 JUMPI PUSH1 0x7 SLOAD PUSH1 0x1 PUSH1 0x1 PUSH1 0xA0 SHL SUB AND SWAP1 PUSH2 0x2486 DUP2 DUP8 PUSH2 0x3B7D JUMP JUMPDEST MLOAD MLOAD DUP3 EXTCODESIZE ISZERO PUSH2 0x3AB JUMPI PUSH1 0x0 SWAP3 PUSH1 0x24 DUP5 SWAP3 PUSH1 0x40 MLOAD SWAP6 DUP7 SWAP4 DUP5 SWAP3 PUSH4 0x106B5DA1 PUSH1 0xE0 SHL DUP5 MSTORE PUSH1 0x4 DUP5 ADD MSTORE GAS CALL SWAP2 DUP3 ISZERO PUSH2 0x360 JUMPI PUSH1 0x1 SWAP3 PUSH2 0x24C5 JUMPI JUMPDEST POP ADD PUSH2 0x2466 JUMP JUMPDEST PUSH1 0x0 PUSH2 0x24D0 SWAP2 PUSH2 0x380E JUMP JUMPDEST DUP7 PUSH2 0x24BE JUMP JUMPDEST POP DUP3 PUSH1 0x1 PUSH1 0xFF DUP3 SLOAD PUSH1 0xA8 SHR AND PUSH2 0x24EB DUP2 PUSH2 0x36A9 JUMP JUMPDEST SUB PUSH2 0x25BE JUMPI SLOAD DUP2 SLOAD PUSH1 0x40 MLOAD PUSH4 0xA9059CBB PUSH1 0xE0 SHL DUP2 MSTORE CALLER PUSH1 0x4 DUP3 ADD MSTORE PUSH1 0x24 DUP2 ADD SWAP2 SWAP1 SWAP2 MSTORE SWAP1 PUSH1 0x20 SWAP1 DUP3 SWAP1 PUSH1 0x8 SHR PUSH1 0x1 PUSH1 0x1 PUSH1 0xA0 SHL SUB AND DUP2 PUSH1 0x0 DUP2 PUSH1 0x44 DUP2 ADD SUB SWAP3 GAS CALL SWAP1 DUP2 ISZERO PUSH2 0x360 JUMPI PUSH1 0x0 SWAP2 PUSH2 0x256B JUMPI JUMPDEST POP PUSH1 0x0 DUP1 MLOAD PUSH1 0x20 PUSH2 0x4419 DUP4 CODECOPY DUP2 MLOAD SWAP2 MSTORE SWAP2 PUSH2 0x2558 PUSH2 0x1840 SWAP3 PUSH2 0x3D33 JUMP JUMPDEST SLOAD PUSH1 0x40 MLOAD SWAP2 DUP3 SWAP2 PUSH1 0x1 CALLER SWAP7 ADD SWAP1 DUP4 PUSH2 0x3B91 JUMP JUMPDEST SWAP1 POP PUSH1 0x20 DUP2 RETURNDATASIZE PUSH1 0x20 GT PUSH2 0x25B6 JUMPI JUMPDEST DUP2 PUSH2 0x2586 PUSH1 0x20 SWAP4 DUP4 PUSH2 0x380E JUMP JUMPDEST DUP2 ADD SUB SLT PUSH2 0x3AB JUMPI PUSH1 0x0 DUP1 MLOAD PUSH1 0x20 PUSH2 0x4419 DUP4 CODECOPY DUP2 MLOAD SWAP2 MSTORE SWAP2 PUSH2 0x2558 PUSH2 0x25AD PUSH2 0x1840 SWAP4 PUSH2 0x3B38 JUMP JUMPDEST SWAP3 POP POP SWAP2 PUSH2 0x253B JUMP JUMPDEST RETURNDATASIZE SWAP2 POP PUSH2 0x2579 JUMP JUMPDEST POP PUSH2 0x1840 DUP2 PUSH2 0x25E7 PUSH1 0x0 DUP1 DUP1 DUP1 PUSH1 0x0 DUP1 MLOAD PUSH1 0x20 PUSH2 0x4419 DUP4 CODECOPY DUP2 MLOAD SWAP2 MSTORE SWAP8 SLOAD CALLER GAS CALL PUSH2 0x3D5 PUSH2 0x3CB7 JUMP JUMPDEST PUSH2 0x2558 JUMP JUMPDEST PUSH1 0xB PUSH1 0x20 PUSH1 0x1 SWAP3 PUSH1 0x40 MLOAD PUSH2 0x25FF DUP2 PUSH2 0x37D6 JUMP JUMPDEST DUP6 SLOAD DUP2 MSTORE PUSH1 0x40 MLOAD PUSH2 0x2616 DUP2 PUSH2 0x1874 DUP2 DUP10 DUP12 ADD PUSH2 0x3A39 JUMP JUMPDEST DUP4 DUP3 ADD MSTORE PUSH1 0xFF PUSH1 0x2 DUP8 ADD SLOAD AND PUSH2 0x262B DUP2 PUSH2 0x369F JUMP JUMPDEST PUSH1 0x40 DUP3 ADD MSTORE PUSH1 0x40 MLOAD PUSH2 0x2644 DUP2 PUSH2 0x1874 DUP2 PUSH1 0x3 DUP12 ADD PUSH2 0x3A39 JUMP JUMPDEST PUSH1 0x60 DUP3 ADD MSTORE PUSH1 0x4 DUP7 ADD SLOAD PUSH1 0x80 DUP3 ADD MSTORE PUSH1 0x5 DUP7 ADD SLOAD PUSH1 0xA0 DUP3 ADD MSTORE PUSH1 0x6 DUP7 ADD SLOAD PUSH1 0xC0 DUP3 ADD MSTORE PUSH1 0x7 DUP7 ADD SLOAD PUSH1 0xE0 DUP3 ADD MSTORE PUSH1 0x8 DUP7 ADD SLOAD PUSH2 0x100 DUP3 ADD MSTORE PUSH1 0x9 DUP7 ADD SLOAD PUSH2 0x120 DUP3 ADD MSTORE PUSH1 0x40 MLOAD PUSH2 0x269B DUP2 PUSH2 0x1874 DUP2 PUSH1 0xA DUP12 ADD PUSH2 0x3A39 JUMP JUMPDEST PUSH2 0x140 DUP3 ADD MSTORE DUP2 MSTORE ADD SWAP3 ADD SWAP3 ADD SWAP2 SWAP1 PUSH2 0x2458 JUMP JUMPDEST CALLVALUE PUSH2 0x3AB JUMPI PUSH1 0x20 CALLDATASIZE PUSH1 0x3 NOT ADD SLT PUSH2 0x3AB JUMPI PUSH1 0x4 CALLDATALOAD PUSH1 0xF SLOAD DUP2 LT ISZERO PUSH2 0x3AB JUMPI PUSH2 0x26D8 PUSH1 0x20 SWAP2 PUSH2 0x3845 JUMP JUMPDEST SWAP1 SLOAD PUSH1 0x40 MLOAD PUSH1 0x3 SWAP3 SWAP1 SWAP3 SHL SHR PUSH1 0x1 PUSH1 0x1 PUSH1 0xA0 SHL SUB AND DUP2 MSTORE RETURN JUMPDEST CALLVALUE PUSH2 0x3AB JUMPI PUSH1 0x0 CALLDATASIZE PUSH1 0x3 NOT ADD SLT PUSH2 0x3AB JUMPI PUSH1 0xA SLOAD PUSH1 0x40 MLOAD PUSH1 0x1 PUSH1 0x1 PUSH1 0xA0 SHL SUB SWAP1 SWAP2 AND DUP2 MSTORE PUSH1 0x20 SWAP1 RETURN JUMPDEST CALLVALUE PUSH2 0x3AB JUMPI PUSH1 0x20 CALLDATASIZE PUSH1 0x3 NOT ADD SLT PUSH2 0x3AB JUMPI PUSH2 0x2733 PUSH2 0x382F JUMP JUMPDEST PUSH1 0x5 SLOAD PUSH1 0x0 SWAP2 SWAP1 PUSH1 0x1 PUSH1 0x1 PUSH1 0xA0 SHL SUB DUP3 AND PUSH1 0x1 JUMPDEST DUP3 DUP2 GT ISZERO PUSH2 0x2B2B JUMPI POP PUSH2 0x2759 DUP5 PUSH2 0x3BBA JUMP JUMPDEST SWAP4 PUSH2 0x2767 PUSH1 0x40 MLOAD SWAP6 DUP7 PUSH2 0x380E JUMP JUMPDEST DUP1 DUP6 MSTORE PUSH2 0x2776 PUSH1 0x1F NOT SWAP2 PUSH2 0x3BBA JUMP JUMPDEST ADD PUSH1 0x0 JUMPDEST DUP2 DUP2 LT PUSH2 0x2AC6 JUMPI POP POP PUSH1 0x7 SLOAD PUSH1 0x1 PUSH1 0x1 PUSH1 0xA0 SHL SUB AND SWAP3 PUSH1 0x0 SWAP1 PUSH1 0x1 JUMPDEST DUP5 DUP2 GT ISZERO PUSH2 0x2870 JUMPI DUP7 PUSH1 0x40 MLOAD DUP1 SWAP2 PUSH1 0x20 DUP3 ADD PUSH1 0x20 DUP4 MSTORE DUP2 MLOAD DUP1 SWAP2 MSTORE PUSH1 0x40 DUP4 ADD SWAP1 PUSH1 0x20 PUSH1 0x40 DUP3 PUSH1 0x5 SHL DUP7 ADD ADD SWAP4 ADD SWAP2 PUSH1 0x0 SWAP1 JUMPDEST DUP3 DUP3 LT PUSH2 0x27D7 JUMPI POP POP POP POP SUB SWAP1 RETURN JUMPDEST SWAP2 SWAP4 PUSH1 0x1 SWAP2 SWAP4 SWAP6 POP PUSH1 0x20 DUP1 SWAP2 PUSH1 0x3F NOT DUP10 DUP3 SUB ADD DUP6 MSTORE DUP8 MLOAD SWAP1 PUSH2 0x120 DUP1 PUSH2 0x2808 DUP5 MLOAD PUSH2 0x140 DUP6 MSTORE PUSH2 0x140 DUP6 ADD SWAP1 PUSH2 0x367A JUMP JUMPDEST SWAP4 DUP6 DUP2 ADD MLOAD DUP7 DUP6 ADD MSTORE PUSH1 0x40 DUP2 ADD MLOAD PUSH1 0x40 DUP6 ADD MSTORE PUSH1 0x60 DUP2 ADD MLOAD PUSH1 0x60 DUP6 ADD MSTORE PUSH1 0x80 DUP2 ADD MLOAD PUSH1 0x80 DUP6 ADD MSTORE PUSH1 0xA0 DUP2 ADD MLOAD PUSH1 0xA0 DUP6 ADD MSTORE PUSH1 0xC0 DUP2 ADD MLOAD PUSH1 0xC0 DUP6 ADD MSTORE PUSH1 0xE0 DUP2 ADD MLOAD PUSH1 0xE0 DUP6 ADD MSTORE PUSH2 0x100 DUP2 ADD MLOAD ISZERO ISZERO PUSH2 0x100 DUP6 ADD MSTORE ADD MLOAD SWAP2 ADD MSTORE SWAP7 ADD SWAP3 ADD SWAP3 ADD DUP6 SWAP5 SWAP4 SWAP2 SWAP3 PUSH2 0x27C8 JUMP JUMPDEST DUP1 PUSH1 0x0 MSTORE PUSH1 0x4 PUSH1 0x20 MSTORE PUSH1 0x40 PUSH1 0x0 KECCAK256 DUP5 PUSH1 0x0 MSTORE PUSH1 0x2 PUSH1 0x20 MSTORE PUSH1 0x40 PUSH1 0x0 KECCAK256 DUP3 PUSH1 0x0 MSTORE PUSH1 0x20 MSTORE PUSH1 0x40 PUSH1 0x0 KECCAK256 PUSH1 0x0 DUP1 MSTORE PUSH1 0x20 MSTORE PUSH1 0x40 PUSH1 0x0 KECCAK256 PUSH1 0x40 MLOAD PUSH2 0x28B0 DUP2 PUSH2 0x37BA JUMP JUMPDEST PUSH1 0x1 DUP1 PUSH1 0xA0 SHL SUB DUP3 SLOAD AND DUP2 MSTORE PUSH1 0x1 DUP3 ADD SLOAD PUSH1 0x20 DUP3 ADD MSTORE PUSH1 0x2 DUP3 ADD SLOAD PUSH1 0x40 DUP3 ADD MSTORE PUSH2 0x120 PUSH1 0xFF PUSH1 0x9 PUSH1 0x3 DUP6 ADD SLOAD SWAP5 PUSH1 0x60 DUP6 ADD SWAP6 DUP7 MSTORE DUP3 PUSH1 0x4 DUP3 ADD SLOAD AND PUSH2 0x28F4 DUP2 PUSH2 0x369F JUMP JUMPDEST PUSH1 0x80 DUP7 ADD MSTORE PUSH1 0x5 DUP2 ADD SLOAD PUSH1 0xA0 DUP7 ADD MSTORE PUSH1 0x6 DUP2 ADD SLOAD PUSH1 0xC0 DUP7 ADD MSTORE PUSH1 0x7 DUP2 ADD SLOAD PUSH1 0xE0 DUP7 ADD MSTORE PUSH1 0x8 DUP2 ADD SLOAD PUSH2 0x100 DUP7 ADD MSTORE ADD SLOAD AND SWAP2 PUSH2 0x292F DUP4 PUSH2 0x36A9 JUMP JUMPDEST ADD MSTORE PUSH1 0x40 MLOAD PUSH4 0x39E671F7 PUSH1 0xE1 SHL DUP2 MSTORE PUSH1 0x1 PUSH1 0x1 PUSH1 0xA0 SHL SUB DUP6 AND PUSH1 0x4 DUP3 ADD MSTORE PUSH1 0x24 DUP2 ADD DUP5 SWAP1 MSTORE PUSH1 0x20 DUP2 PUSH1 0x44 DUP2 DUP13 GAS STATICCALL SWAP1 DUP2 ISZERO PUSH2 0x360 JUMPI PUSH1 0x0 SWAP2 PUSH2 0x2A93 JUMPI JUMPDEST POP PUSH2 0x2977 SWAP2 MLOAD PUSH2 0x3B45 JUMP JUMPDEST DUP6 PUSH1 0x0 MSTORE PUSH1 0x2 PUSH1 0x20 MSTORE PUSH1 0x40 PUSH1 0x0 KECCAK256 DUP4 PUSH1 0x0 MSTORE PUSH1 0x20 MSTORE PUSH1 0x40 PUSH1 0x0 KECCAK256 PUSH1 0x0 DUP1 MSTORE PUSH1 0x20 MSTORE PUSH1 0x1 PUSH1 0x40 PUSH1 0x0 KECCAK256 ADD SLOAD PUSH2 0x29B6 JUMPI JUMPDEST POP POP PUSH2 0x29B1 SWAP1 PUSH2 0x3BAB JUMP JUMPDEST PUSH2 0x2796 JUMP JUMPDEST PUSH1 0x0 DUP7 DUP2 MSTORE PUSH1 0x2 PUSH1 0x20 SWAP1 DUP2 MSTORE PUSH1 0x40 DUP1 DUP4 KECCAK256 DUP7 DUP5 MSTORE DUP3 MSTORE DUP1 DUP4 KECCAK256 DUP4 DUP1 MSTORE SWAP1 SWAP2 MSTORE SWAP1 DUP2 SWAP1 KECCAK256 PUSH1 0x3 DUP1 DUP3 ADD SLOAD PUSH1 0x1 SWAP1 SWAP3 ADD SLOAD SWAP1 DUP6 ADD SLOAD PUSH1 0x4 DUP7 ADD SLOAD PUSH1 0x5 DUP8 ADD SLOAD PUSH1 0x8 DUP9 ADD SLOAD PUSH1 0x9 DUP10 ADD SLOAD SWAP7 MLOAD SWAP12 SWAP9 PUSH1 0xFF SWAP1 SWAP8 AND SWAP7 SWAP1 SWAP6 SWAP2 SWAP5 SWAP3 SWAP4 SWAP3 SWAP2 SWAP1 PUSH2 0x2A19 DUP14 PUSH2 0x37BA JUMP JUMPDEST PUSH1 0x40 MLOAD DUP1 PUSH1 0x1 DUP2 SWAP4 ADD SWAP1 PUSH2 0x2A2C SWAP2 PUSH2 0x3A39 JUMP JUMPDEST SUB PUSH2 0x2A37 SWAP1 DUP3 PUSH2 0x380E JUMP JUMPDEST DUP13 MSTORE DUP10 PUSH1 0x20 DUP14 ADD MSTORE PUSH1 0x40 DUP13 ADD MSTORE PUSH1 0x60 DUP12 ADD MSTORE PUSH1 0x80 DUP11 ADD MSTORE PUSH1 0xA0 DUP10 ADD MSTORE PUSH1 0xC0 DUP9 ADD MSTORE PUSH1 0xE0 DUP8 ADD MSTORE ISZERO ISZERO PUSH2 0x100 DUP7 ADD MSTORE PUSH2 0x120 DUP6 ADD MSTORE DUP1 PUSH2 0x2A75 SWAP1 PUSH2 0x3BAB JUMP JUMPDEST SWAP4 PUSH2 0x2A80 DUP3 DUP11 PUSH2 0x3B7D JUMP JUMPDEST MSTORE PUSH2 0x2A8B SWAP1 DUP9 PUSH2 0x3B7D JUMP JUMPDEST POP DUP8 DUP1 PUSH2 0x29A6 JUMP JUMPDEST SWAP1 PUSH1 0x20 DUP3 RETURNDATASIZE DUP3 GT PUSH2 0x2ABE JUMPI JUMPDEST DUP2 PUSH2 0x2AAC PUSH1 0x20 SWAP4 DUP4 PUSH2 0x380E JUMP JUMPDEST DUP2 ADD SUB SLT PUSH2 0x514 JUMPI POP MLOAD PUSH2 0x2977 PUSH2 0x296C JUMP JUMPDEST RETURNDATASIZE SWAP2 POP PUSH2 0x2A9F JUMP JUMPDEST PUSH1 0x20 SWAP1 PUSH1 0x40 SWAP6 SWAP5 SWAP6 MLOAD PUSH2 0x2AD8 DUP2 PUSH2 0x37BA JUMP JUMPDEST PUSH1 0x60 DUP2 MSTORE PUSH1 0x0 DUP4 DUP3 ADD MSTORE PUSH1 0x0 PUSH1 0x40 DUP3 ADD MSTORE PUSH1 0x0 PUSH1 0x60 DUP3 ADD MSTORE PUSH1 0x0 PUSH1 0x80 DUP3 ADD MSTORE PUSH1 0x0 PUSH1 0xA0 DUP3 ADD MSTORE PUSH1 0x0 PUSH1 0xC0 DUP3 ADD MSTORE PUSH1 0x0 PUSH1 0xE0 DUP3 ADD MSTORE PUSH1 0x0 PUSH2 0x100 DUP3 ADD MSTORE PUSH1 0x0 PUSH2 0x120 DUP3 ADD MSTORE DUP3 DUP3 DUP10 ADD ADD MSTORE ADD SWAP4 SWAP3 SWAP4 PUSH2 0x277A JUMP JUMPDEST DUP2 PUSH1 0x0 SWAP5 SWAP4 SWAP5 MSTORE PUSH1 0x2 PUSH1 0x20 MSTORE PUSH1 0x40 PUSH1 0x0 KECCAK256 DUP2 PUSH1 0x0 MSTORE PUSH1 0x20 MSTORE PUSH1 0x40 PUSH1 0x0 KECCAK256 PUSH1 0x0 DUP1 MSTORE PUSH1 0x20 MSTORE PUSH1 0x1 PUSH1 0x40 PUSH1 0x0 KECCAK256 ADD SLOAD PUSH2 0x2B6E JUMPI JUMPDEST PUSH2 0x2B66 SWAP1 PUSH2 0x3BAB JUMP JUMPDEST SWAP3 SWAP2 SWAP3 PUSH2 0x2747 JUMP JUMPDEST SWAP4 PUSH2 0x2B7B PUSH2 0x2B66 SWAP2 PUSH2 0x3BAB JUMP JUMPDEST SWAP5 SWAP1 POP PUSH2 0x2B5D JUMP JUMPDEST CALLVALUE PUSH2 0x3AB JUMPI PUSH1 0x0 CALLDATASIZE PUSH1 0x3 NOT ADD SLT PUSH2 0x3AB JUMPI PUSH1 0xE SLOAD PUSH1 0x40 MLOAD PUSH1 0x1 PUSH1 0x1 PUSH1 0xA0 SHL SUB SWAP1 SWAP2 AND DUP2 MSTORE PUSH1 0x20 SWAP1 RETURN JUMPDEST PUSH1 0xE0 CALLDATASIZE PUSH1 0x3 NOT ADD SLT PUSH2 0x3AB JUMPI PUSH1 0x40 MLOAD PUSH1 0x0 PUSH2 0x2BC6 DUP3 PUSH2 0x379F JUMP JUMPDEST PUSH2 0x2BCE PUSH2 0x382F JUMP JUMPDEST DUP3 MSTORE PUSH1 0x20 DUP3 ADD SWAP2 PUSH1 0x24 CALLDATALOAD DUP4 MSTORE PUSH1 0x40 DUP2 ADD PUSH1 0x44 CALLDATALOAD DUP2 MSTORE PUSH1 0x60 DUP3 ADD SWAP1 PUSH1 0x64 CALLDATALOAD DUP3 MSTORE PUSH1 0x84 CALLDATALOAD PUSH1 0x2 DUP2 LT ISZERO PUSH2 0x33E4 JUMPI PUSH1 0x80 DUP5 ADD SWAP1 DUP2 MSTORE PUSH1 0xA4 CALLDATALOAD SWAP2 PUSH1 0x2 DUP4 LT ISZERO PUSH2 0x648 JUMPI PUSH1 0xA0 DUP6 ADD SWAP3 DUP4 MSTORE PUSH1 0xC4 CALLDATALOAD SWAP4 PUSH1 0x1 PUSH1 0x1 PUSH1 0xA0 SHL SUB DUP6 AND DUP6 SUB PUSH2 0x33E0 JUMPI PUSH1 0xC0 DUP7 ADD SWAP5 DUP6 MSTORE PUSH2 0x2C37 PUSH2 0x43CD JUMP JUMPDEST DUP8 MLOAD DUP8 MSTORE PUSH1 0x4 PUSH1 0x20 MSTORE PUSH1 0x40 DUP8 KECCAK256 SWAP5 PUSH1 0xFF PUSH1 0x9 DUP8 ADD SLOAD AND ISZERO PUSH2 0x3390 JUMPI PUSH1 0xC DUP7 ADD SWAP5 DUP6 SLOAD PUSH1 0xFF DUP2 PUSH1 0xA8 SHR AND SWAP2 MLOAD PUSH2 0x2C6B DUP2 PUSH2 0x36A9 JUMP JUMPDEST PUSH2 0x2C74 DUP2 PUSH2 0x36A9 JUMP JUMPDEST PUSH2 0x2C7D DUP4 PUSH2 0x36A9 JUMP JUMPDEST DUP3 SUB PUSH2 0x333C JUMPI DUP4 MLOAD PUSH1 0x4 DUP10 ADD SLOAD LT PUSH2 0x3304 JUMPI DUP3 MLOAD PUSH1 0x1 PUSH1 0x1 PUSH1 0xA0 SHL SUB SWAP1 DUP2 AND PUSH1 0x8 SWAP3 SWAP1 SWAP3 SHR AND SUB PUSH2 0x32BF JUMPI DUP8 MLOAD PUSH1 0x1 PUSH1 0x1 PUSH1 0xA0 SHL SUB AND DUP10 MSTORE PUSH1 0x2 PUSH1 0x20 SWAP1 DUP2 MSTORE PUSH1 0x40 DUP1 DUP12 KECCAK256 DUP13 MLOAD DUP13 MSTORE SWAP1 SWAP2 MSTORE DUP10 KECCAK256 DUP6 MLOAD PUSH2 0x2CD5 DUP2 PUSH2 0x36A9 JUMP JUMPDEST PUSH2 0x2CDE DUP2 PUSH2 0x36A9 JUMP JUMPDEST DUP11 MSTORE PUSH1 0x20 MSTORE PUSH1 0x1 PUSH1 0x40 DUP11 KECCAK256 ADD SLOAD PUSH2 0x3268 JUMPI PUSH1 0x1 SWAP1 PUSH2 0x2CFB DUP2 PUSH2 0x36A9 JUMP JUMPDEST SUB PUSH2 0x320B JUMPI DUP3 MLOAD ISZERO PUSH2 0x31C6 JUMPI MLOAD DUP7 MLOAD DUP4 MLOAD PUSH1 0x40 MLOAD PUSH4 0x23B872DD PUSH1 0xE0 SHL DUP2 MSTORE PUSH1 0x1 PUSH1 0x1 PUSH1 0xA0 SHL SUB SWAP3 DUP4 AND PUSH1 0x4 DUP3 ADD MSTORE ADDRESS PUSH1 0x24 DUP3 ADD MSTORE PUSH1 0x44 DUP2 ADD SWAP2 SWAP1 SWAP2 MSTORE SWAP2 PUSH1 0x20 SWAP2 DUP4 SWAP2 PUSH1 0x64 SWAP2 DUP4 SWAP2 DUP14 SWAP2 AND GAS CALL DUP1 ISZERO PUSH2 0x906 JUMPI PUSH2 0x318F JUMPI JUMPDEST POP DUP2 MLOAD PUSH2 0x2D64 PUSH1 0x5 DUP8 ADD SWAP2 DUP3 SLOAD PUSH2 0x3B2B JUMP JUMPDEST SWAP1 SSTORE DUP2 MLOAD SWAP4 JUMPDEST PUSH2 0x2D90 PUSH1 0xFF PUSH2 0x2D87 PUSH1 0x5 DUP10 ADD SLOAD PUSH1 0x64 PUSH2 0x173F DUP3 PUSH1 0xB DUP14 ADD SLOAD PUSH2 0x3B45 JUMP JUMPDEST SWAP3 SLOAD AND DUP3 PUSH2 0x3B45 JUMP JUMPDEST PUSH1 0x7 DUP8 ADD SSTORE PUSH1 0x6 DUP7 ADD SSTORE PUSH2 0x16D PUSH1 0x64 PUSH2 0x2DAD PUSH1 0x3 DUP9 ADD SLOAD DUP8 PUSH2 0x3B45 JUMP JUMPDEST DIV DIV SWAP3 PUSH1 0x1 DUP1 PUSH1 0xA0 SHL SUB DUP8 MLOAD AND SWAP1 DUP10 MLOAD SWAP3 MLOAD PUSH3 0x15180 DUP2 MUL DUP2 DUP2 DIV PUSH3 0x15180 EQ DUP3 ISZERO OR ISZERO PUSH2 0x317B JUMPI SWAP3 PUSH2 0x2F21 SWAP5 SWAP3 PUSH1 0x9 SWAP3 DUP12 PUSH2 0x2DEE DUP15 SWAP16 SWAP8 SWAP15 SWAP14 SWAP15 TIMESTAMP PUSH2 0x3B2B JUMP JUMPDEST SWAP2 DUP14 DUP13 DUP13 DUP7 MLOAD SWAP10 PUSH2 0x2DFE DUP12 PUSH2 0x36A9 JUMP JUMPDEST PUSH1 0x40 MLOAD SWAP9 PUSH2 0x2E0B DUP11 PUSH2 0x37BA JUMP JUMPDEST DUP10 MSTORE PUSH1 0x20 DUP10 ADD SWAP3 DUP4 MSTORE PUSH1 0x40 DUP10 ADD SWAP1 DUP2 MSTORE PUSH1 0x60 DUP10 ADD SWAP2 DUP3 MSTORE PUSH1 0x80 DUP10 ADD SWAP3 DUP5 DUP5 MSTORE PUSH1 0xA0 DUP11 ADD SWAP6 DUP7 MSTORE DUP13 PUSH1 0xC0 DUP12 ADD SWAP8 TIMESTAMP DUP10 MSTORE PUSH1 0xE0 DUP13 ADD SWAP10 DUP11 MSTORE PUSH2 0x100 DUP13 ADD SWAP11 DUP8 DUP13 MSTORE PUSH2 0x120 DUP14 ADD SWAP15 DUP16 PUSH2 0x2E5A DUP3 PUSH2 0x36A9 JUMP JUMPDEST MSTORE MLOAD PUSH2 0x2E65 DUP2 PUSH2 0x36A9 JUMP JUMPDEST PUSH2 0x2E6E DUP2 PUSH2 0x36A9 JUMP JUMPDEST PUSH2 0x30D8 JUMPI MLOAD PUSH1 0x1 PUSH1 0x1 PUSH1 0xA0 SHL SUB SWAP1 DUP2 AND DUP8 MSTORE PUSH1 0x2 PUSH1 0x20 DUP2 DUP2 MSTORE PUSH1 0x40 DUP1 DUP11 KECCAK256 SWAP5 MLOAD DUP11 MSTORE SWAP4 DUP2 MSTORE DUP4 DUP10 KECCAK256 DUP10 DUP1 MSTORE SWAP1 MSTORE SWAP2 SWAP1 SWAP7 KECCAK256 SWAP11 MLOAD DUP12 SLOAD PUSH1 0x1 PUSH1 0x1 PUSH1 0xA0 SHL SUB NOT AND SWAP7 AND SWAP6 SWAP1 SWAP6 OR DUP11 SSTORE MLOAD PUSH1 0x1 DUP11 ADD SSTORE MLOAD SWAP3 DUP9 ADD SWAP3 SWAP1 SWAP3 SSTORE SWAP1 MLOAD PUSH1 0x3 DUP8 ADD SSTORE MLOAD PUSH2 0x2EE1 SWAP1 PUSH2 0x2ED8 DUP2 PUSH2 0x369F JUMP JUMPDEST PUSH1 0x4 DUP8 ADD PUSH2 0x3B65 JUMP JUMPDEST MLOAD PUSH1 0x5 DUP6 ADD SSTORE MLOAD PUSH1 0x6 DUP5 ADD SSTORE MLOAD PUSH1 0x7 DUP4 ADD SSTORE MLOAD PUSH1 0x8 DUP3 ADD SSTORE ADD SWAP1 MLOAD PUSH2 0x2F05 DUP2 PUSH2 0x36A9 JUMP JUMPDEST PUSH2 0x2F0E DUP2 PUSH2 0x36A9 JUMP JUMPDEST PUSH1 0xFF DUP1 NOT DUP4 SLOAD AND SWAP2 AND OR SWAP1 SSTORE JUMPDEST MLOAD PUSH2 0x3D77 JUMP JUMPDEST SWAP4 DUP6 JUMPDEST DUP6 MLOAD DUP2 LT ISZERO PUSH2 0x2F94 JUMPI PUSH1 0x7 SLOAD PUSH1 0x1 PUSH1 0x1 PUSH1 0xA0 SHL SUB AND SWAP1 PUSH2 0x2F44 DUP2 DUP9 PUSH2 0x3B7D JUMP JUMPDEST MLOAD MLOAD DUP3 EXTCODESIZE ISZERO PUSH2 0x63C JUMPI DUP9 SWAP3 PUSH1 0x24 DUP5 SWAP3 PUSH1 0x40 MLOAD SWAP6 DUP7 SWAP4 DUP5 SWAP3 PUSH4 0x106B5DA1 PUSH1 0xE0 SHL DUP5 MSTORE PUSH1 0x4 DUP5 ADD MSTORE GAS CALL SWAP2 DUP3 ISZERO PUSH2 0x906 JUMPI DUP9 PUSH1 0x1 SWAP4 PUSH2 0x2F84 JUMPI JUMPDEST POP POP ADD PUSH2 0x2F24 JUMP JUMPDEST PUSH2 0x2F8D SWAP2 PUSH2 0x380E JUMP JUMPDEST DUP11 DUP9 PUSH2 0x2F7C JUMP JUMPDEST POP PUSH1 0xF SLOAD DUP7 SWAP6 POP DUP8 SWAP1 DUP7 DUP1 JUMPDEST DUP3 DUP2 LT PUSH2 0x30A0 JUMPI JUMPDEST POP ISZERO PUSH2 0x3040 JUMPI JUMPDEST POP DUP1 MLOAD PUSH1 0x1 PUSH1 0x1 PUSH1 0xA0 SHL SUB AND DUP7 MSTORE PUSH1 0x10 PUSH1 0x20 MSTORE PUSH1 0x40 DUP7 KECCAK256 DUP1 SLOAD PUSH1 0x1 DUP2 ADD SWAP2 SWAP1 DUP3 LT PUSH2 0x302C JUMPI PUSH1 0x40 SWAP8 SWAP4 PUSH2 0x301C PUSH1 0x1 SWAP7 SWAP5 PUSH32 0x6F85D9948D6CA3DD6CE6CE7D175DA22B4E865827AE6FCD530EC7EDAC1240F928 SWAP5 DUP9 SWAP5 SSTORE DUP4 DUP1 PUSH1 0xA0 SHL SUB SWAP1 MLOAD AND SWAP5 MLOAD DUP11 MLOAD SWAP4 DUP5 SWAP4 ADD SWAP1 DUP4 PUSH2 0x3B91 JUMP JUMPDEST SUB SWAP1 LOG2 SSTORE DUP3 MLOAD SWAP2 DUP3 MSTORE PUSH1 0x20 DUP3 ADD MSTORE RETURN JUMPDEST PUSH4 0x4E487B71 PUSH1 0xE0 SHL DUP9 MSTORE PUSH1 0x11 PUSH1 0x4 MSTORE PUSH1 0x24 DUP9 REVERT JUMPDEST DUP2 MLOAD PUSH1 0x1 PUSH1 0x1 PUSH1 0xA0 SHL SUB AND SWAP1 PUSH1 0x1 PUSH1 0x40 SHL DUP2 LT ISZERO PUSH2 0x308C JUMPI DUP1 PUSH1 0x1 PUSH2 0x3068 SWAP3 ADD PUSH1 0xF SSTORE PUSH2 0x3845 JUMP JUMPDEST DUP2 SLOAD PUSH1 0x1 PUSH1 0x1 PUSH1 0xA0 SHL SUB PUSH1 0x3 SWAP3 SWAP1 SWAP3 SHL SWAP2 DUP3 SHL NOT AND SWAP3 SWAP1 SHL SWAP2 SWAP1 SWAP2 OR SWAP1 SSTORE DUP7 PUSH2 0x2FAF JUMP JUMPDEST PUSH4 0x4E487B71 PUSH1 0xE0 SHL DUP9 MSTORE PUSH1 0x41 PUSH1 0x4 MSTORE PUSH1 0x24 DUP9 REVERT JUMPDEST PUSH2 0x30A9 DUP2 PUSH2 0x3845 JUMP JUMPDEST SWAP1 SLOAD DUP6 MLOAD PUSH1 0x3 SWAP3 SWAP1 SWAP3 SHL SHR PUSH1 0x1 PUSH1 0x1 PUSH1 0xA0 SHL SUB SWAP1 DUP2 AND SWAP2 AND EQ PUSH2 0x30CE JUMPI PUSH1 0x1 ADD PUSH2 0x2FA0 JUMP JUMPDEST POP POP PUSH1 0x1 DUP9 PUSH2 0x2FA8 JUMP JUMPDEST MLOAD PUSH1 0x1 PUSH1 0x1 PUSH1 0xA0 SHL SUB SWAP1 DUP2 AND DUP8 MSTORE PUSH1 0x2 PUSH1 0x20 DUP2 DUP2 MSTORE PUSH1 0x40 DUP1 DUP11 KECCAK256 SWAP5 MLOAD DUP11 MSTORE SWAP4 DUP2 MSTORE DUP4 DUP10 KECCAK256 PUSH1 0x1 DUP1 DUP12 MSTORE SWAP2 MSTORE SWAP3 SWAP1 SWAP8 KECCAK256 SWAP12 MLOAD DUP13 SLOAD PUSH1 0x1 PUSH1 0x1 PUSH1 0xA0 SHL SUB NOT AND SWAP2 AND OR DUP12 SSTORE SWAP1 MLOAD SWAP1 DUP11 ADD SSTORE MLOAD SWAP3 DUP9 ADD SWAP3 SWAP1 SWAP3 SSTORE SWAP1 MLOAD PUSH1 0x3 DUP8 ADD SSTORE MLOAD PUSH2 0x313D SWAP1 PUSH2 0x2ED8 DUP2 PUSH2 0x369F JUMP JUMPDEST MLOAD PUSH1 0x5 DUP6 ADD SSTORE MLOAD PUSH1 0x6 DUP5 ADD SSTORE MLOAD PUSH1 0x7 DUP4 ADD SSTORE MLOAD PUSH1 0x8 DUP3 ADD SSTORE ADD SWAP1 MLOAD PUSH2 0x3161 DUP2 PUSH2 0x36A9 JUMP JUMPDEST PUSH2 0x316A DUP2 PUSH2 0x36A9 JUMP JUMPDEST PUSH1 0xFF DUP1 NOT DUP4 SLOAD AND SWAP2 AND OR SWAP1 SSTORE PUSH2 0x2F1B JUMP JUMPDEST PUSH4 0x4E487B71 PUSH1 0xE0 SHL DUP12 MSTORE PUSH1 0x11 PUSH1 0x4 MSTORE PUSH1 0x24 DUP12 REVERT JUMPDEST PUSH1 0x20 DUP2 RETURNDATASIZE PUSH1 0x20 GT PUSH2 0x31BE JUMPI JUMPDEST DUP2 PUSH2 0x31A8 PUSH1 0x20 SWAP4 DUP4 PUSH2 0x380E JUMP JUMPDEST DUP2 ADD SUB SLT PUSH2 0x644 JUMPI PUSH2 0x31B9 SWAP1 PUSH2 0x3B38 JUMP JUMPDEST PUSH2 0x2D52 JUMP JUMPDEST RETURNDATASIZE SWAP2 POP PUSH2 0x319B JUMP JUMPDEST PUSH1 0x40 MLOAD PUSH3 0x461BCD PUSH1 0xE5 SHL DUP2 MSTORE PUSH1 0x20 PUSH1 0x4 DUP3 ADD MSTORE PUSH1 0x1D PUSH1 0x24 DUP3 ADD MSTORE PUSH32 0x416D6F756E74206D7573742062652067726561746572207468616E2030000000 PUSH1 0x44 DUP3 ADD MSTORE PUSH1 0x64 SWAP1 REVERT JUMPDEST POP CALLVALUE ISZERO PUSH2 0x322A JUMPI PUSH1 0x5 DUP6 ADD PUSH2 0x3221 CALLVALUE DUP3 SLOAD PUSH2 0x3B2B JUMP JUMPDEST SWAP1 SSTORE CALLVALUE SWAP4 PUSH2 0x2D6A JUMP JUMPDEST PUSH1 0x40 MLOAD PUSH3 0x461BCD PUSH1 0xE5 SHL DUP2 MSTORE PUSH1 0x20 PUSH1 0x4 DUP3 ADD MSTORE PUSH1 0x16 PUSH1 0x24 DUP3 ADD MSTORE PUSH22 0x4465706F7369742063616E6E6F74206265207A65726F PUSH1 0x50 SHL PUSH1 0x44 DUP3 ADD MSTORE PUSH1 0x64 SWAP1 REVERT JUMPDEST PUSH1 0x40 MLOAD PUSH3 0x461BCD PUSH1 0xE5 SHL DUP2 MSTORE PUSH1 0x20 PUSH1 0x4 DUP3 ADD MSTORE PUSH1 0x29 PUSH1 0x24 DUP3 ADD MSTORE PUSH32 0x557365722068617320616C7265616479206465706F736974656420696E746F20 PUSH1 0x44 DUP3 ADD MSTORE PUSH9 0x1D1A1A5CC81C1BDBDB PUSH1 0xBA SHL PUSH1 0x64 DUP3 ADD MSTORE PUSH1 0x84 SWAP1 REVERT JUMPDEST PUSH1 0x40 MLOAD PUSH3 0x461BCD PUSH1 0xE5 SHL DUP2 MSTORE PUSH1 0x20 PUSH1 0x4 DUP3 ADD MSTORE PUSH1 0x1F PUSH1 0x24 DUP3 ADD MSTORE PUSH32 0x506F6F6C20646F6573206E6F7420616363657074207468697320617373657400 PUSH1 0x44 DUP3 ADD MSTORE PUSH1 0x64 SWAP1 REVERT JUMPDEST PUSH1 0x40 MLOAD PUSH3 0x461BCD PUSH1 0xE5 SHL DUP2 MSTORE PUSH1 0x20 PUSH1 0x4 DUP3 ADD MSTORE PUSH1 0x10 PUSH1 0x24 DUP3 ADD MSTORE PUSH16 0x14195C9A5BD9081D1BDBC81CDA1BDC9D PUSH1 0x82 SHL PUSH1 0x44 DUP3 ADD MSTORE PUSH1 0x64 SWAP1 REVERT JUMPDEST PUSH1 0x40 MLOAD PUSH3 0x461BCD PUSH1 0xE5 SHL DUP2 MSTORE PUSH1 0x20 PUSH1 0x4 DUP3 ADD MSTORE PUSH1 0x26 PUSH1 0x24 DUP3 ADD MSTORE PUSH32 0x506F6F6C20646F6573206E6F74206163636570742074686973206465706F7369 PUSH1 0x44 DUP3 ADD MSTORE PUSH6 0x742074797065 PUSH1 0xD0 SHL PUSH1 0x64 DUP3 ADD MSTORE PUSH1 0x84 SWAP1 REVERT JUMPDEST PUSH1 0x40 MLOAD PUSH3 0x461BCD PUSH1 0xE5 SHL DUP2 MSTORE PUSH1 0x20 PUSH1 0x4 DUP3 ADD MSTORE PUSH1 0x22 PUSH1 0x24 DUP3 ADD MSTORE PUSH32 0x506F6F6C20697320696E616374697665206F7220646F6573206E6F7420657869 PUSH1 0x44 DUP3 ADD MSTORE PUSH2 0x1CDD PUSH1 0xF2 SHL PUSH1 0x64 DUP3 ADD MSTORE PUSH1 0x84 SWAP1 REVERT JUMPDEST DUP7 DUP1 REVERT JUMPDEST DUP5 DUP1 REVERT JUMPDEST CALLVALUE PUSH2 0x3AB JUMPI PUSH1 0x20 CALLDATASIZE PUSH1 0x3 NOT ADD SLT PUSH2 0x3AB JUMPI PUSH1 0x4 CALLDATALOAD PUSH1 0x0 MSTORE PUSH1 0x4 PUSH1 0x20 MSTORE PUSH1 0x20 PUSH1 0xFF PUSH1 0x9 PUSH1 0x40 PUSH1 0x0 KECCAK256 ADD SLOAD AND PUSH1 0x40 MLOAD SWAP1 ISZERO ISZERO DUP2 MSTORE RETURN JUMPDEST CALLVALUE PUSH2 0x3AB JUMPI PUSH1 0x0 CALLDATASIZE PUSH1 0x3 NOT ADD SLT PUSH2 0x3AB JUMPI PUSH1 0xC SLOAD PUSH1 0x40 MLOAD PUSH1 0x1 PUSH1 0x1 PUSH1 0xA0 SHL SUB SWAP1 SWAP2 AND DUP2 MSTORE PUSH1 0x20 SWAP1 RETURN JUMPDEST CALLVALUE PUSH2 0x3AB JUMPI PUSH1 0x0 CALLDATASIZE PUSH1 0x3 NOT ADD SLT PUSH2 0x3AB JUMPI PUSH1 0xD SLOAD PUSH1 0x40 MLOAD PUSH1 0x1 PUSH1 0x1 PUSH1 0xA0 SHL SUB SWAP1 SWAP2 AND DUP2 MSTORE PUSH1 0x20 SWAP1 RETURN JUMPDEST CALLVALUE PUSH2 0x3AB JUMPI PUSH1 0x0 CALLDATASIZE PUSH1 0x3 NOT ADD SLT PUSH2 0x3AB JUMPI PUSH1 0x40 MLOAD DUP1 PUSH1 0x20 PUSH1 0xF SLOAD SWAP3 DUP4 DUP2 MSTORE ADD DUP1 SWAP3 PUSH1 0xF PUSH1 0x0 MSTORE PUSH32 0x8D1108E10BCB7C27DDDFC02ED9D693A074039D026CF4EA4240B40F7D581AC802 SWAP1 PUSH1 0x0 JUMPDEST DUP2 DUP2 LT PUSH2 0x351B JUMPI POP POP POP DUP2 PUSH2 0x34CF SWAP2 SUB DUP3 PUSH2 0x380E JUMP JUMPDEST PUSH1 0x40 MLOAD SWAP2 DUP3 SWAP2 PUSH1 0x20 DUP4 ADD SWAP1 PUSH1 0x20 DUP5 MSTORE MLOAD DUP1 SWAP2 MSTORE PUSH1 0x40 DUP4 ADD SWAP2 SWAP1 PUSH1 0x0 JUMPDEST DUP2 DUP2 LT PUSH2 0x34F9 JUMPI POP POP POP SUB SWAP1 RETURN JUMPDEST DUP3 MLOAD PUSH1 0x1 PUSH1 0x1 PUSH1 0xA0 SHL SUB AND DUP5 MSTORE DUP6 SWAP5 POP PUSH1 0x20 SWAP4 DUP5 ADD SWAP4 SWAP1 SWAP3 ADD SWAP2 PUSH1 0x1 ADD PUSH2 0x34EB JUMP JUMPDEST DUP3 SLOAD PUSH1 0x1 PUSH1 0x1 PUSH1 0xA0 SHL SUB AND DUP5 MSTORE PUSH1 0x20 SWAP1 SWAP4 ADD SWAP3 PUSH1 0x1 SWAP3 DUP4 ADD SWAP3 ADD PUSH2 0x34B9 JUMP JUMPDEST CALLVALUE PUSH2 0x3AB JUMPI PUSH1 0x20 CALLDATASIZE PUSH1 0x3 NOT ADD SLT PUSH2 0x3AB JUMPI PUSH2 0x3553 PUSH2 0x3ABC JUMP JUMPDEST POP PUSH1 0x4 CALLDATALOAD PUSH1 0x0 MSTORE PUSH1 0x4 PUSH1 0x20 MSTORE PUSH2 0x3653 PUSH1 0x40 PUSH1 0x0 KECCAK256 PUSH1 0xFF PUSH1 0xC PUSH1 0x40 MLOAD SWAP3 PUSH2 0x3578 DUP5 PUSH2 0x3783 JUMP JUMPDEST DUP1 SLOAD DUP5 MSTORE PUSH1 0x40 MLOAD PUSH2 0x3590 DUP2 PUSH2 0x1874 DUP2 PUSH1 0x1 DUP7 ADD PUSH2 0x3A39 JUMP JUMPDEST PUSH1 0x20 DUP6 ADD MSTORE DUP3 PUSH1 0x2 DUP3 ADD SLOAD AND PUSH2 0x35A5 DUP2 PUSH2 0x369F JUMP JUMPDEST PUSH1 0x40 DUP6 ADD MSTORE PUSH1 0x3 DUP2 ADD SLOAD PUSH1 0x60 DUP6 ADD MSTORE PUSH1 0x4 DUP2 ADD SLOAD PUSH1 0x80 DUP6 ADD MSTORE PUSH1 0x5 DUP2 ADD SLOAD PUSH1 0xA0 DUP6 ADD MSTORE PUSH1 0x6 DUP2 ADD SLOAD PUSH1 0xC0 DUP6 ADD MSTORE PUSH1 0x7 DUP2 ADD SLOAD PUSH1 0xE0 DUP6 ADD MSTORE PUSH1 0x8 DUP1 DUP3 ADD SLOAD PUSH2 0x100 DUP7 ADD MSTORE PUSH1 0x9 DUP3 ADD SLOAD DUP5 AND ISZERO ISZERO PUSH2 0x120 DUP7 ADD MSTORE PUSH1 0xA DUP3 ADD SLOAD PUSH2 0x140 DUP7 ADD MSTORE PUSH1 0xB DUP3 ADD SLOAD PUSH2 0x160 DUP7 ADD MSTORE SWAP2 ADD SLOAD DUP1 DUP4 AND PUSH2 0x180 DUP6 ADD MSTORE SWAP1 DUP2 SWAP1 SHR PUSH1 0x1 PUSH1 0x1 PUSH1 0xA0 SHL SUB AND PUSH2 0x1A0 DUP5 ADD MSTORE PUSH1 0xA8 SHR AND PUSH2 0x3639 DUP2 PUSH2 0x36A9 JUMP JUMPDEST PUSH2 0x1C0 DUP3 ADD MSTORE PUSH1 0x40 MLOAD SWAP2 DUP3 SWAP2 PUSH1 0x20 DUP4 MSTORE PUSH1 0x20 DUP4 ADD SWAP1 PUSH2 0x36B3 JUMP JUMPDEST SUB SWAP1 RETURN JUMPDEST PUSH1 0x0 JUMPDEST DUP4 DUP2 LT PUSH2 0x366A JUMPI POP POP PUSH1 0x0 SWAP2 ADD MSTORE JUMP JUMPDEST DUP2 DUP2 ADD MLOAD DUP4 DUP3 ADD MSTORE PUSH1 0x20 ADD PUSH2 0x365A JUMP JUMPDEST SWAP1 PUSH1 0x20 SWAP2 PUSH2 0x3693 DUP2 MLOAD DUP1 SWAP3 DUP2 DUP6 MSTORE DUP6 DUP1 DUP7 ADD SWAP2 ADD PUSH2 0x3657 JUMP JUMPDEST PUSH1 0x1F ADD PUSH1 0x1F NOT AND ADD ADD SWAP1 JUMP JUMPDEST PUSH1 0x3 GT ISZERO PUSH2 0xB3F JUMPI JUMP JUMPDEST PUSH1 0x2 GT ISZERO PUSH2 0xB3F JUMPI JUMP JUMPDEST SWAP1 DUP2 MLOAD DUP2 MSTORE PUSH2 0x1C0 DUP1 PUSH2 0x36D7 PUSH1 0x20 DUP6 ADD MLOAD PUSH2 0x1E0 PUSH1 0x20 DUP7 ADD MSTORE PUSH2 0x1E0 DUP6 ADD SWAP1 PUSH2 0x367A JUMP JUMPDEST SWAP4 PUSH1 0x40 DUP2 ADD MLOAD PUSH2 0x36E6 DUP2 PUSH2 0x369F JUMP JUMPDEST PUSH1 0x40 DUP6 ADD MSTORE PUSH1 0x60 DUP2 ADD MLOAD PUSH1 0x60 DUP6 ADD MSTORE PUSH1 0x80 DUP2 ADD MLOAD PUSH1 0x80 DUP6 ADD MSTORE PUSH1 0xA0 DUP2 ADD MLOAD PUSH1 0xA0 DUP6 ADD MSTORE PUSH1 0xC0 DUP2 ADD MLOAD PUSH1 0xC0 DUP6 ADD MSTORE PUSH1 0xE0 DUP2 ADD MLOAD PUSH1 0xE0 DUP6 ADD MSTORE PUSH2 0x100 DUP2 ADD MLOAD PUSH2 0x100 DUP6 ADD MSTORE PUSH2 0x120 DUP2 ADD MLOAD ISZERO ISZERO PUSH2 0x120 DUP6 ADD MSTORE PUSH2 0x140 DUP2 ADD MLOAD PUSH2 0x140 DUP6 ADD MSTORE PUSH2 0x160 DUP2 ADD MLOAD PUSH2 0x160 DUP6 ADD MSTORE PUSH1 0xFF PUSH2 0x180 DUP3 ADD MLOAD AND PUSH2 0x180 DUP6 ADD MSTORE PUSH1 0x1 DUP1 PUSH1 0xA0 SHL SUB PUSH2 0x1A0 DUP3 ADD MLOAD AND PUSH2 0x1A0 DUP6 ADD MSTORE ADD MLOAD SWAP2 PUSH2 0x377E DUP4 PUSH2 0x36A9 JUMP JUMPDEST ADD MSTORE SWAP1 JUMP JUMPDEST PUSH2 0x1E0 DUP2 ADD SWAP1 DUP2 LT PUSH1 0x1 PUSH1 0x1 PUSH1 0x40 SHL SUB DUP3 GT OR PUSH2 0x117B JUMPI PUSH1 0x40 MSTORE JUMP JUMPDEST PUSH1 0xE0 DUP2 ADD SWAP1 DUP2 LT PUSH1 0x1 PUSH1 0x1 PUSH1 0x40 SHL SUB DUP3 GT OR PUSH2 0x117B JUMPI PUSH1 0x40 MSTORE JUMP JUMPDEST PUSH2 0x140 DUP2 ADD SWAP1 DUP2 LT PUSH1 0x1 PUSH1 0x1 PUSH1 0x40 SHL SUB DUP3 GT OR PUSH2 0x117B JUMPI PUSH1 0x40 MSTORE JUMP JUMPDEST PUSH2 0x160 DUP2 ADD SWAP1 DUP2 LT PUSH1 0x1 PUSH1 0x1 PUSH1 0x40 SHL SUB DUP3 GT OR PUSH2 0x117B JUMPI PUSH1 0x40 MSTORE JUMP JUMPDEST PUSH2 0x120 DUP2 ADD SWAP1 DUP2 LT PUSH1 0x1 PUSH1 0x1 PUSH1 0x40 SHL SUB DUP3 GT OR PUSH2 0x117B JUMPI PUSH1 0x40 MSTORE JUMP JUMPDEST SWAP1 PUSH1 0x1F DUP1 NOT SWAP2 ADD AND DUP2 ADD SWAP1 DUP2 LT PUSH1 0x1 PUSH1 0x1 PUSH1 0x40 SHL SUB DUP3 GT OR PUSH2 0x117B JUMPI PUSH1 0x40 MSTORE JUMP JUMPDEST PUSH1 0x4 CALLDATALOAD SWAP1 PUSH1 0x1 PUSH1 0x1 PUSH1 0xA0 SHL SUB DUP3 AND DUP3 SUB PUSH2 0x3AB JUMPI JUMP JUMPDEST PUSH1 0xF SLOAD DUP2 LT ISZERO PUSH2 0x3860 JUMPI PUSH1 0xF PUSH1 0x0 MSTORE PUSH1 0x20 PUSH1 0x0 KECCAK256 ADD SWAP1 PUSH1 0x0 SWAP1 JUMP JUMPDEST PUSH4 0x4E487B71 PUSH1 0xE0 SHL PUSH1 0x0 MSTORE PUSH1 0x32 PUSH1 0x4 MSTORE PUSH1 0x24 PUSH1 0x0 REVERT JUMPDEST PUSH1 0x1 PUSH1 0x1 PUSH1 0x40 SHL SUB DUP2 GT PUSH2 0x117B JUMPI PUSH1 0x1F ADD PUSH1 0x1F NOT AND PUSH1 0x20 ADD SWAP1 JUMP JUMPDEST DUP2 PUSH1 0x1F DUP3 ADD SLT ISZERO PUSH2 0x3AB JUMPI DUP1 CALLDATALOAD SWAP1 PUSH2 0x38A8 DUP3 PUSH2 0x3876 JUMP JUMPDEST SWAP3 PUSH2 0x38B6 PUSH1 0x40 MLOAD SWAP5 DUP6 PUSH2 0x380E JUMP JUMPDEST DUP3 DUP5 MSTORE PUSH1 0x20 DUP4 DUP4 ADD ADD GT PUSH2 0x3AB JUMPI DUP2 PUSH1 0x0 SWAP3 PUSH1 0x20 DUP1 SWAP4 ADD DUP4 DUP7 ADD CALLDATACOPY DUP4 ADD ADD MSTORE SWAP1 JUMP JUMPDEST PUSH1 0x40 SWAP1 PUSH1 0x3 NOT ADD SLT PUSH2 0x3AB JUMPI PUSH1 0x4 CALLDATALOAD SWAP1 PUSH1 0x24 CALLDATALOAD SWAP1 JUMP JUMPDEST SWAP1 PUSH1 0x40 PUSH1 0x3 NOT DUP4 ADD SLT PUSH2 0x3AB JUMPI PUSH1 0x4 CALLDATALOAD SWAP2 PUSH1 0x24 CALLDATALOAD PUSH1 0x1 PUSH1 0x1 PUSH1 0x40 SHL SUB DUP2 GT PUSH2 0x3AB JUMPI PUSH2 0x160 DUP2 DUP4 SUB PUSH1 0x3 NOT ADD SLT PUSH2 0x3AB JUMPI PUSH1 0x40 MLOAD SWAP2 PUSH2 0x392C DUP4 PUSH2 0x37D6 JUMP JUMPDEST DUP2 PUSH1 0x4 ADD CALLDATALOAD DUP4 MSTORE PUSH1 0x24 DUP3 ADD CALLDATALOAD PUSH1 0x1 PUSH1 0x1 PUSH1 0x40 SHL SUB DUP2 GT PUSH2 0x3AB JUMPI DUP2 PUSH1 0x4 PUSH2 0x3955 SWAP3 DUP6 ADD ADD PUSH2 0x3891 JUMP JUMPDEST PUSH1 0x20 DUP5 ADD MSTORE PUSH1 0x44 DUP3 ADD CALLDATALOAD PUSH1 0x3 DUP2 LT ISZERO PUSH2 0x3AB JUMPI PUSH1 0x40 DUP5 ADD MSTORE PUSH1 0x64 DUP3 ADD CALLDATALOAD PUSH1 0x1 PUSH1 0x1 PUSH1 0x40 SHL SUB DUP2 GT PUSH2 0x3AB JUMPI DUP2 PUSH1 0x4 PUSH2 0x398F SWAP3 DUP6 ADD ADD PUSH2 0x3891 JUMP JUMPDEST PUSH1 0x60 DUP5 ADD MSTORE PUSH1 0x84 DUP3 ADD CALLDATALOAD PUSH1 0x80 DUP5 ADD MSTORE PUSH1 0xA4 DUP3 ADD CALLDATALOAD PUSH1 0xA0 DUP5 ADD MSTORE PUSH1 0xC4 DUP3 ADD CALLDATALOAD PUSH1 0xC0 DUP5 ADD MSTORE PUSH1 0xE4 DUP3 ADD CALLDATALOAD PUSH1 0xE0 DUP5 ADD MSTORE PUSH2 0x104 DUP3 ADD CALLDATALOAD PUSH2 0x100 DUP5 ADD MSTORE PUSH2 0x124 DUP3 ADD CALLDATALOAD PUSH2 0x120 DUP5 ADD MSTORE PUSH2 0x144 DUP3 ADD CALLDATALOAD SWAP2 PUSH1 0x1 PUSH1 0x1 PUSH1 0x40 SHL SUB DUP4 GT PUSH2 0x3AB JUMPI PUSH2 0x39F6 SWAP3 ADD PUSH1 0x4 ADD PUSH2 0x3891 JUMP JUMPDEST PUSH2 0x140 DUP3 ADD MSTORE SWAP1 JUMP JUMPDEST SWAP1 PUSH1 0x1 DUP3 DUP2 SHR SWAP3 AND DUP1 ISZERO PUSH2 0x3A2F JUMPI JUMPDEST PUSH1 0x20 DUP4 LT EQ PUSH2 0x3A19 JUMPI JUMP JUMPDEST PUSH4 0x4E487B71 PUSH1 0xE0 SHL PUSH1 0x0 MSTORE PUSH1 0x22 PUSH1 0x4 MSTORE PUSH1 0x24 PUSH1 0x0 REVERT JUMPDEST SWAP2 PUSH1 0x7F AND SWAP2 PUSH2 0x3A0E JUMP JUMPDEST PUSH1 0x0 SWAP3 SWAP2 DUP2 SLOAD SWAP2 PUSH2 0x3A49 DUP4 PUSH2 0x39FF JUMP JUMPDEST DUP1 DUP4 MSTORE SWAP3 PUSH1 0x1 DUP2 AND SWAP1 DUP2 ISZERO PUSH2 0x3A9F JUMPI POP PUSH1 0x1 EQ PUSH2 0x3A65 JUMPI POP POP POP JUMP JUMPDEST PUSH1 0x0 SWAP1 DUP2 MSTORE PUSH1 0x20 DUP2 KECCAK256 SWAP4 SWAP5 POP SWAP2 SWAP3 JUMPDEST DUP4 DUP4 LT PUSH2 0x3A85 JUMPI POP PUSH1 0x20 SWAP3 POP ADD ADD SWAP1 JUMP JUMPDEST PUSH1 0x1 DUP2 PUSH1 0x20 SWAP3 SWAP5 SWAP4 SWAP5 SLOAD DUP4 DUP6 DUP8 ADD ADD MSTORE ADD SWAP2 ADD SWAP2 SWAP1 PUSH2 0x3A74 JUMP JUMPDEST SWAP2 POP POP PUSH1 0x20 SWAP4 SWAP5 POP PUSH1 0xFF SWAP3 SWAP2 SWAP3 NOT AND DUP4 DUP4 ADD MSTORE ISZERO ISZERO PUSH1 0x5 SHL ADD ADD SWAP1 JUMP JUMPDEST PUSH1 0x40 MLOAD SWAP1 PUSH2 0x3AC9 DUP3 PUSH2 0x3783 JUMP JUMPDEST PUSH1 0x0 PUSH2 0x1C0 DUP4 DUP3 DUP2 MSTORE PUSH1 0x60 PUSH1 0x20 DUP3 ADD MSTORE DUP3 PUSH1 0x40 DUP3 ADD MSTORE DUP3 PUSH1 0x60 DUP3 ADD MSTORE DUP3 PUSH1 0x80 DUP3 ADD MSTORE DUP3 PUSH1 0xA0 DUP3 ADD MSTORE DUP3 PUSH1 0xC0 DUP3 ADD MSTORE DUP3 PUSH1 0xE0 DUP3 ADD MSTORE DUP3 PUSH2 0x100 DUP3 ADD MSTORE DUP3 PUSH2 0x120 DUP3 ADD MSTORE DUP3 PUSH2 0x140 DUP3 ADD MSTORE DUP3 PUSH2 0x160 DUP3 ADD MSTORE DUP3 PUSH2 0x180 DUP3 ADD MSTORE DUP3 PUSH2 0x1A0 DUP3 ADD MSTORE ADD MSTORE JUMP JUMPDEST SWAP2 SWAP1 DUP3 ADD DUP1 SWAP3 GT PUSH2 0xF8B JUMPI JUMP JUMPDEST MLOAD SWAP1 DUP2 ISZERO ISZERO DUP3 SUB PUSH2 0x3AB JUMPI JUMP JUMPDEST DUP2 DUP2 MUL SWAP3 SWAP2 DUP2 ISZERO SWAP2 DUP5 DIV EQ OR ISZERO PUSH2 0xF8B JUMPI JUMP JUMPDEST SWAP2 SWAP1 DUP3 SUB SWAP2 DUP3 GT PUSH2 0xF8B JUMPI JUMP JUMPDEST SWAP1 PUSH2 0x3B6F DUP2 PUSH2 0x369F JUMP JUMPDEST PUSH1 0xFF DUP1 NOT DUP4 SLOAD AND SWAP2 AND OR SWAP1 SSTORE JUMP JUMPDEST DUP1 MLOAD DUP3 LT ISZERO PUSH2 0x3860 JUMPI PUSH1 0x20 SWAP2 PUSH1 0x5 SHL ADD ADD SWAP1 JUMP JUMPDEST PUSH1 0x40 SWAP1 PUSH2 0x3BA8 SWAP4 SWAP3 DUP2 MSTORE DUP2 PUSH1 0x20 DUP3 ADD MSTORE ADD SWAP1 PUSH2 0x3A39 JUMP JUMPDEST SWAP1 JUMP JUMPDEST PUSH1 0x0 NOT DUP2 EQ PUSH2 0xF8B JUMPI PUSH1 0x1 ADD SWAP1 JUMP JUMPDEST PUSH1 0x1 PUSH1 0x1 PUSH1 0x40 SHL SUB DUP2 GT PUSH2 0x117B JUMPI PUSH1 0x5 SHL PUSH1 0x20 ADD SWAP1 JUMP JUMPDEST ISZERO PUSH2 0x3BD8 JUMPI JUMP JUMPDEST PUSH1 0x40 MLOAD PUSH3 0x461BCD PUSH1 0xE5 SHL DUP2 MSTORE PUSH1 0x20 PUSH1 0x4 DUP3 ADD MSTORE PUSH1 0x21 PUSH1 0x24 DUP3 ADD MSTORE PUSH32 0x4E6F206465706F73697420666F756E6420666F72207468697320616464726573 PUSH1 0x44 DUP3 ADD MSTORE PUSH1 0x73 PUSH1 0xF8 SHL PUSH1 0x64 DUP3 ADD MSTORE PUSH1 0x84 SWAP1 REVERT JUMPDEST ISZERO PUSH2 0x3C2E JUMPI JUMP JUMPDEST PUSH1 0x40 MLOAD PUSH3 0x461BCD PUSH1 0xE5 SHL DUP2 MSTORE PUSH1 0x20 PUSH1 0x4 DUP3 ADD MSTORE PUSH1 0x15 PUSH1 0x24 DUP3 ADD MSTORE PUSH21 0x4465706F736974206973206E6F7420616374697665 PUSH1 0x58 SHL PUSH1 0x44 DUP3 ADD MSTORE PUSH1 0x64 SWAP1 REVERT JUMPDEST ISZERO PUSH2 0x3C72 JUMPI JUMP JUMPDEST PUSH1 0x40 MLOAD PUSH3 0x461BCD PUSH1 0xE5 SHL DUP2 MSTORE PUSH1 0x20 PUSH1 0x4 DUP3 ADD MSTORE PUSH1 0x1C PUSH1 0x24 DUP3 ADD MSTORE PUSH32 0x4465706F73697420706572696F6420686173206E6F7420656E64656400000000 PUSH1 0x44 DUP3 ADD MSTORE PUSH1 0x64 SWAP1 REVERT JUMPDEST RETURNDATASIZE ISZERO PUSH2 0x3CE2 JUMPI RETURNDATASIZE SWAP1 PUSH2 0x3CC8 DUP3 PUSH2 0x3876 JUMP JUMPDEST SWAP2 PUSH2 0x3CD6 PUSH1 0x40 MLOAD SWAP4 DUP5 PUSH2 0x380E JUMP JUMPDEST DUP3 MSTORE RETURNDATASIZE PUSH1 0x0 PUSH1 0x20 DUP5 ADD RETURNDATACOPY JUMP JUMPDEST PUSH1 0x60 SWAP1 JUMP JUMPDEST ISZERO PUSH2 0x3CEE JUMPI JUMP JUMPDEST PUSH1 0x40 MLOAD PUSH3 0x461BCD PUSH1 0xE5 SHL DUP2 MSTORE PUSH1 0x20 PUSH1 0x4 DUP3 ADD MSTORE PUSH1 0x1C PUSH1 0x24 DUP3 ADD MSTORE PUSH32 0x4E6174697665206173736574207472616E73666572206661696C656400000000 PUSH1 0x44 DUP3 ADD MSTORE PUSH1 0x64 SWAP1 REVERT JUMPDEST ISZERO PUSH2 0x3D3A JUMPI JUMP JUMPDEST PUSH1 0x40 MLOAD PUSH3 0x461BCD PUSH1 0xE5 SHL DUP2 MSTORE PUSH1 0x20 PUSH1 0x4 DUP3 ADD MSTORE PUSH1 0x15 PUSH1 0x24 DUP3 ADD MSTORE PUSH21 0x115490CC8C081D1C985B9CD9995C8819985A5B1959 PUSH1 0x5A SHL PUSH1 0x44 DUP3 ADD MSTORE PUSH1 0x64 SWAP1 REVERT JUMPDEST PUSH1 0x0 MSTORE PUSH1 0x3 PUSH1 0x20 MSTORE PUSH1 0x40 PUSH1 0x0 KECCAK256 DUP1 SLOAD PUSH2 0x3D8F DUP2 PUSH2 0x3BBA JUMP JUMPDEST SWAP2 PUSH2 0x3D9D PUSH1 0x40 MLOAD SWAP4 DUP5 PUSH2 0x380E JUMP JUMPDEST DUP2 DUP4 MSTORE PUSH1 0x20 DUP4 ADD SWAP1 PUSH1 0x0 MSTORE PUSH1 0x20 PUSH1 0x0 KECCAK256 PUSH1 0x0 SWAP2 JUMPDEST DUP4 DUP4 LT PUSH2 0x3DBF JUMPI POP POP POP POP SWAP1 JUMP JUMPDEST PUSH1 0xB PUSH1 0x20 PUSH1 0x1 SWAP3 PUSH1 0x40 MLOAD PUSH2 0x3DD2 DUP2 PUSH2 0x37D6 JUMP JUMPDEST DUP6 SLOAD DUP2 MSTORE PUSH1 0x40 MLOAD PUSH2 0x3DE9 DUP2 PUSH2 0x1874 DUP2 DUP10 DUP12 ADD PUSH2 0x3A39 JUMP JUMPDEST DUP4 DUP3 ADD MSTORE PUSH1 0xFF PUSH1 0x2 DUP8 ADD SLOAD AND PUSH2 0x3DFE DUP2 PUSH2 0x369F JUMP JUMPDEST PUSH1 0x40 DUP3 ADD MSTORE PUSH1 0x40 MLOAD PUSH2 0x3E17 DUP2 PUSH2 0x1874 DUP2 PUSH1 0x3 DUP12 ADD PUSH2 0x3A39 JUMP JUMPDEST PUSH1 0x60 DUP3 ADD MSTORE PUSH1 0x4 DUP7 ADD SLOAD PUSH1 0x80 DUP3 ADD MSTORE PUSH1 0x5 DUP7 ADD SLOAD PUSH1 0xA0 DUP3 ADD MSTORE PUSH1 0x6 DUP7 ADD SLOAD PUSH1 0xC0 DUP3 ADD MSTORE PUSH1 0x7 DUP7 ADD SLOAD PUSH1 0xE0 DUP3 ADD MSTORE PUSH1 0x8 DUP7 ADD SLOAD PUSH2 0x100 DUP3 ADD MSTORE PUSH1 0x9 DUP7 ADD SLOAD PUSH2 0x120 DUP3 ADD MSTORE PUSH1 0x40 MLOAD PUSH2 0x3E6E DUP2 PUSH2 0x1874 DUP2 PUSH1 0xA DUP12 ADD PUSH2 0x3A39 JUMP JUMPDEST PUSH2 0x140 DUP3 ADD MSTORE DUP2 MSTORE ADD SWAP3 ADD SWAP3 ADD SWAP2 SWAP1 PUSH2 0x3DB1 JUMP JUMPDEST ISZERO PUSH2 0x3E89 JUMPI JUMP JUMPDEST PUSH1 0x40 MLOAD PUSH3 0x461BCD PUSH1 0xE5 SHL DUP2 MSTORE PUSH1 0x20 PUSH1 0x4 DUP3 ADD MSTORE PUSH1 0x12 PUSH1 0x24 DUP3 ADD MSTORE PUSH18 0x506F6F6C206973206E6F7420616374697665 PUSH1 0x70 SHL PUSH1 0x44 DUP3 ADD MSTORE PUSH1 0x64 SWAP1 REVERT JUMPDEST ISZERO PUSH2 0x3ECA JUMPI JUMP JUMPDEST PUSH1 0x64 PUSH1 0x40 MLOAD PUSH3 0x461BCD PUSH1 0xE5 SHL DUP2 MSTORE PUSH1 0x20 PUSH1 0x4 DUP3 ADD MSTORE PUSH1 0x20 PUSH1 0x24 DUP3 ADD MSTORE PUSH32 0x43616C6C6572206973206E6F742074686520636F76657220636F6E7472616374 PUSH1 0x44 DUP3 ADD MSTORE REVERT JUMPDEST DUP1 SLOAD DUP3 LT ISZERO PUSH2 0x3860 JUMPI PUSH1 0x0 MSTORE PUSH1 0xB PUSH1 0x20 PUSH1 0x0 KECCAK256 SWAP2 MUL ADD SWAP1 PUSH1 0x0 SWAP1 JUMP JUMPDEST SWAP1 SWAP3 SWAP2 SWAP3 PUSH2 0x42DE JUMPI DUP3 MLOAD DUP2 SSTORE PUSH1 0x1 DUP2 ADD PUSH1 0x20 DUP5 ADD MLOAD DUP1 MLOAD SWAP1 PUSH1 0x1 PUSH1 0x1 PUSH1 0x40 SHL SUB DUP3 GT PUSH2 0x117B JUMPI DUP2 SWAP1 PUSH2 0x3F5C DUP5 SLOAD PUSH2 0x39FF JUMP JUMPDEST PUSH1 0x1F DUP2 GT PUSH2 0x428B JUMPI JUMPDEST POP PUSH1 0x20 SWAP1 PUSH1 0x1F DUP4 GT PUSH1 0x1 EQ PUSH2 0x4226 JUMPI PUSH1 0x0 SWAP3 PUSH2 0x421B JUMPI JUMPDEST POP POP DUP2 PUSH1 0x1 SHL SWAP2 PUSH1 0x0 NOT SWAP1 PUSH1 0x3 SHL SHR NOT AND OR SWAP1 SSTORE JUMPDEST PUSH2 0x3FAB PUSH1 0x40 DUP5 ADD MLOAD PUSH2 0x3FA2 DUP2 PUSH2 0x369F JUMP JUMPDEST PUSH1 0x2 DUP4 ADD PUSH2 0x3B65 JUMP JUMPDEST PUSH1 0x3 DUP2 ADD PUSH1 0x60 DUP5 ADD MLOAD DUP1 MLOAD SWAP1 PUSH1 0x1 PUSH1 0x1 PUSH1 0x40 SHL SUB DUP3 GT PUSH2 0x117B JUMPI PUSH2 0x3FCF DUP4 SLOAD PUSH2 0x39FF JUMP JUMPDEST PUSH1 0x1F DUP2 GT PUSH2 0x41D3 JUMPI JUMPDEST POP PUSH1 0x20 SWAP1 PUSH1 0x1F DUP4 GT PUSH1 0x1 EQ PUSH2 0x4165 JUMPI SWAP2 DUP1 PUSH1 0xA SWAP5 SWAP3 PUSH2 0x140 SWAP7 SWAP5 PUSH1 0x0 SWAP3 PUSH2 0x415A JUMPI JUMPDEST POP POP DUP2 PUSH1 0x1 SHL SWAP2 PUSH1 0x0 NOT SWAP1 PUSH1 0x3 SHL SHR NOT AND OR SWAP1 SSTORE JUMPDEST PUSH1 0x80 DUP6 ADD MLOAD PUSH1 0x4 DUP3 ADD SSTORE PUSH1 0xA0 DUP6 ADD MLOAD PUSH1 0x5 DUP3 ADD SSTORE PUSH1 0xC0 DUP6 ADD MLOAD PUSH1 0x6 DUP3 ADD SSTORE PUSH1 0xE0 DUP6 ADD MLOAD PUSH1 0x7 DUP3 ADD SSTORE PUSH2 0x100 DUP6 ADD MLOAD PUSH1 0x8 DUP3 ADD SSTORE PUSH2 0x120 DUP6 ADD MLOAD PUSH1 0x9 DUP3 ADD SSTORE ADD SWAP3 ADD MLOAD SWAP2 DUP3 MLOAD PUSH1 0x1 PUSH1 0x1 PUSH1 0x40 SHL SUB DUP2 GT PUSH2 0x117B JUMPI PUSH2 0x406C DUP3 SLOAD PUSH2 0x39FF JUMP JUMPDEST PUSH1 0x1F DUP2 GT PUSH2 0x4112 JUMPI JUMPDEST POP PUSH1 0x20 PUSH1 0x1F DUP3 GT PUSH1 0x1 EQ PUSH2 0x40B0 JUMPI DUP2 SWAP3 SWAP4 SWAP5 PUSH1 0x0 SWAP3 PUSH2 0x40A5 JUMPI JUMPDEST POP POP DUP2 PUSH1 0x1 SHL SWAP2 PUSH1 0x0 NOT SWAP1 PUSH1 0x3 SHL SHR NOT AND OR SWAP1 SSTORE JUMP JUMPDEST ADD MLOAD SWAP1 POP CODESIZE DUP1 PUSH2 0x408F JUMP JUMPDEST PUSH1 0x1F NOT DUP3 AND SWAP1 DUP4 PUSH1 0x0 MSTORE DUP1 PUSH1 0x0 KECCAK256 SWAP2 PUSH1 0x0 JUMPDEST DUP2 DUP2 LT PUSH2 0x40FA JUMPI POP SWAP6 DUP4 PUSH1 0x1 SWAP6 SWAP7 SWAP8 LT PUSH2 0x40E1 JUMPI JUMPDEST POP POP POP DUP2 SHL ADD SWAP1 SSTORE JUMP JUMPDEST ADD MLOAD PUSH1 0x0 NOT PUSH1 0xF8 DUP5 PUSH1 0x3 SHL AND SHR NOT AND SWAP1 SSTORE CODESIZE DUP1 DUP1 PUSH2 0x40D7 JUMP JUMPDEST SWAP2 SWAP3 PUSH1 0x20 PUSH1 0x1 DUP2 SWAP3 DUP7 DUP12 ADD MLOAD DUP2 SSTORE ADD SWAP5 ADD SWAP3 ADD PUSH2 0x40C2 JUMP JUMPDEST DUP3 PUSH1 0x0 MSTORE PUSH1 0x20 PUSH1 0x0 KECCAK256 PUSH1 0x1F DUP4 ADD PUSH1 0x5 SHR DUP2 ADD SWAP2 PUSH1 0x20 DUP5 LT PUSH2 0x4150 JUMPI JUMPDEST PUSH1 0x1F ADD PUSH1 0x5 SHR ADD SWAP1 JUMPDEST DUP2 DUP2 LT PUSH2 0x4144 JUMPI POP PUSH2 0x4075 JUMP JUMPDEST PUSH1 0x0 DUP2 SSTORE PUSH1 0x1 ADD PUSH2 0x4137 JUMP JUMPDEST SWAP1 SWAP2 POP DUP2 SWAP1 PUSH2 0x412E JUMP JUMPDEST ADD MLOAD SWAP1 POP CODESIZE DUP1 PUSH2 0x3FFA JUMP JUMPDEST SWAP1 PUSH1 0x1F NOT DUP4 AND SWAP2 DUP5 PUSH1 0x0 MSTORE DUP2 PUSH1 0x0 KECCAK256 SWAP3 PUSH1 0x0 JUMPDEST DUP2 DUP2 LT PUSH2 0x41BB JUMPI POP SWAP3 PUSH1 0x1 SWAP3 DUP6 SWAP3 PUSH2 0x140 SWAP9 SWAP7 PUSH1 0xA SWAP9 SWAP7 LT PUSH2 0x41A2 JUMPI JUMPDEST POP POP POP DUP2 SHL ADD SWAP1 SSTORE PUSH2 0x400F JUMP JUMPDEST ADD MLOAD PUSH1 0x0 NOT PUSH1 0xF8 DUP5 PUSH1 0x3 SHL AND SHR NOT AND SWAP1 SSTORE CODESIZE DUP1 DUP1 PUSH2 0x4195 JUMP JUMPDEST SWAP3 SWAP4 PUSH1 0x20 PUSH1 0x1 DUP2 SWAP3 DUP8 DUP7 ADD MLOAD DUP2 SSTORE ADD SWAP6 ADD SWAP4 ADD PUSH2 0x4178 JUMP JUMPDEST DUP4 PUSH1 0x0 MSTORE PUSH1 0x20 PUSH1 0x0 KECCAK256 PUSH1 0x1F DUP5 ADD PUSH1 0x5 SHR DUP2 ADD SWAP2 PUSH1 0x20 DUP6 LT PUSH2 0x4211 JUMPI JUMPDEST PUSH1 0x1F ADD PUSH1 0x5 SHR ADD SWAP1 JUMPDEST DUP2 DUP2 LT PUSH2 0x4205 JUMPI POP PUSH2 0x3FD8 JUMP JUMPDEST PUSH1 0x0 DUP2 SSTORE PUSH1 0x1 ADD PUSH2 0x41F8 JUMP JUMPDEST SWAP1 SWAP2 POP DUP2 SWAP1 PUSH2 0x41EF JUMP JUMPDEST ADD MLOAD SWAP1 POP CODESIZE DUP1 PUSH2 0x3F7C JUMP JUMPDEST PUSH1 0x0 DUP6 DUP2 MSTORE DUP3 DUP2 KECCAK256 SWAP4 POP PUSH1 0x1F NOT DUP6 AND SWAP1 JUMPDEST DUP2 DUP2 LT PUSH2 0x4273 JUMPI POP SWAP1 DUP5 PUSH1 0x1 SWAP6 SWAP5 SWAP4 SWAP3 LT PUSH2 0x425A JUMPI JUMPDEST POP POP POP DUP2 SHL ADD SWAP1 SSTORE PUSH2 0x3F91 JUMP JUMPDEST ADD MLOAD PUSH1 0x0 NOT PUSH1 0xF8 DUP5 PUSH1 0x3 SHL AND SHR NOT AND SWAP1 SSTORE CODESIZE DUP1 DUP1 PUSH2 0x424D JUMP JUMPDEST SWAP3 SWAP4 PUSH1 0x20 PUSH1 0x1 DUP2 SWAP3 DUP8 DUP7 ADD MLOAD DUP2 SSTORE ADD SWAP6 ADD SWAP4 ADD PUSH2 0x4237 JUMP JUMPDEST SWAP1 SWAP2 POP DUP4 PUSH1 0x0 MSTORE PUSH1 0x20 PUSH1 0x0 KECCAK256 PUSH1 0x1F DUP5 ADD PUSH1 0x5 SHR DUP2 ADD SWAP2 PUSH1 0x20 DUP6 LT PUSH2 0x42D4 JUMPI JUMPDEST SWAP1 PUSH1 0x1F DUP6 SWAP5 SWAP4 SWAP3 ADD PUSH1 0x5 SHR ADD SWAP1 JUMPDEST DUP2 DUP2 LT PUSH2 0x42C5 JUMPI POP PUSH2 0x3F65 JUMP JUMPDEST PUSH1 0x0 DUP2 SSTORE DUP5 SWAP4 POP PUSH1 0x1 ADD PUSH2 0x42B8 JUMP JUMPDEST SWAP1 SWAP2 POP DUP2 SWAP1 PUSH2 0x42AA JUMP JUMPDEST PUSH4 0x4E487B71 PUSH1 0xE0 SHL PUSH1 0x0 MSTORE PUSH1 0x0 PUSH1 0x4 MSTORE PUSH1 0x24 PUSH1 0x0 REVERT JUMPDEST MLOAD SWAP1 PUSH1 0x1 PUSH1 0x1 PUSH1 0xA0 SHL SUB DUP3 AND DUP3 SUB PUSH2 0x3AB JUMPI JUMP JUMPDEST DUP2 PUSH1 0x1F DUP3 ADD SLT ISZERO PUSH2 0x3AB JUMPI DUP1 MLOAD PUSH2 0x431E DUP2 PUSH2 0x3876 JUMP JUMPDEST SWAP3 PUSH2 0x432C PUSH1 0x40 MLOAD SWAP5 DUP6 PUSH2 0x380E JUMP JUMPDEST DUP2 DUP5 MSTORE PUSH1 0x20 DUP3 DUP5 ADD ADD GT PUSH2 0x3AB JUMPI PUSH2 0x3BA8 SWAP2 PUSH1 0x20 DUP1 DUP6 ADD SWAP2 ADD PUSH2 0x3657 JUMP JUMPDEST SWAP1 DUP2 PUSH2 0x120 SWAP2 SUB SLT PUSH2 0x3AB JUMPI PUSH1 0x40 MLOAD SWAP1 PUSH2 0x4363 DUP3 PUSH2 0x37F2 JUMP JUMPDEST PUSH2 0x436C DUP2 PUSH2 0x42F4 JUMP JUMPDEST DUP3 MSTORE PUSH1 0x20 DUP2 ADD MLOAD PUSH1 0x20 DUP4 ADD MSTORE PUSH1 0x40 DUP2 ADD MLOAD PUSH1 0x40 DUP4 ADD MSTORE PUSH1 0x60 DUP2 ADD MLOAD PUSH1 0x60 DUP4 ADD MSTORE PUSH1 0x80 DUP2 ADD MLOAD SWAP1 PUSH1 0x3 DUP3 LT ISZERO PUSH2 0x3AB JUMPI PUSH2 0x100 SWAP2 PUSH1 0x80 DUP5 ADD MSTORE PUSH1 0xA0 DUP2 ADD MLOAD PUSH1 0xA0 DUP5 ADD MSTORE PUSH1 0xC0 DUP2 ADD MLOAD PUSH1 0xC0 DUP5 ADD MSTORE PUSH1 0xE0 DUP2 ADD MLOAD PUSH1 0xE0 DUP5 ADD MSTORE ADD MLOAD PUSH2 0x100 DUP3 ADD MSTORE SWAP1 JUMP JUMPDEST PUSH1 0x2 PUSH1 0x0 SLOAD EQ PUSH2 0x43DE JUMPI PUSH1 0x2 PUSH1 0x0 SSTORE JUMP JUMPDEST PUSH4 0x3EE5AEB5 PUSH1 0xE0 SHL PUSH1 0x0 MSTORE PUSH1 0x4 PUSH1 0x0 REVERT JUMPDEST PUSH1 0x1 SLOAD PUSH1 0x1 PUSH1 0x1 PUSH1 0xA0 SHL SUB AND CALLER SUB PUSH2 0x4403 JUMPI JUMP JUMPDEST PUSH4 0x118CDAA7 PUSH1 0xE0 SHL PUSH1 0x0 MSTORE CALLER PUSH1 0x4 MSTORE PUSH1 0x24 PUSH1 0x0 REVERT INVALID BASEFEE PUSH0 SHL 0xB6 MSTORE 0x4C PUSH7 0x3555797E00171A LT RETURN COINBASE PUSH6 0x6E59B02D6B55 PUSH27 0xA38BA7D5D9751A2646970667358221220EBD3F91A30DF5034A5C7 0xC5 DUP3 0xBF PUSH22 0xEC909EAFDDA3769D2EF6F3FF900140E5C27A64736F6C PUSH4 0x4300081C STOP CALLER "},"methodIdentifiers":{"ICoverContract()":"f6e80558","IGovernanceContract()":"b5d90c28","IVaultContract()":"6f60537d","addPoolCover(uint256,(uint256,string,uint8,string,uint256,uint256,uint256,uint256,uint256,uint256,string))":"c7aa9874","bqBTC()":"34808ec3","bqBTCAddress()":"996b8a6f","claimProposalFunds(uint256)":"e35f8129","coverContract()":"248a75b7","createPool((uint256,uint8,string,uint256,uint256,uint8,uint256,uint8,address))":"5cfab35c","deactivatePool(uint256)":"9abd9b05","deposit((address,uint256,uint256,uint256,uint8,uint8,address))":"2607b539","getAllParticipants()":"195ec9ee","getAllPools()":"d88ff1f4","getPool(uint256)":"068bcd8d","getPoolCovers(uint256)":"7eb111f0","getPoolTVL(uint256)":"8f244630","getPoolsByAddress(address)":"31866763","getUserDeposit(uint256,address)":"4e055244","getUserParticipation(address)":"46f84795","governance()":"5aa6e675","increasePercentageSplit(uint256,uint256)":"9fd36b15","initialOwner()":"29ba7bb2","owner()":"8da5cb5b","participants(uint256)":"35c1d349","participation(address)":"96f3a8ad","poolActive(uint256)":"25f11e8d","poolCount()":"f525cb68","poolWithdraw(uint256)":"3dc66ad3","pools(uint256)":"ac4afa38","reducePercentageSplit(uint256,uint256)":"a4948d85","renounceOwnership()":"715018a6","setCover(address)":"7c366cc6","setGovernance(address)":"ab033ea9","setVault(address)":"6817031b","transferOwnership(address)":"f2fde38b","updatePool(uint256,uint256,uint256)":"d86c0444","updatePoolCovers(uint256,(uint256,string,uint8,string,uint256,uint256,uint256,uint256,uint256,uint256,string))":"a14764d0","vaultContract()":"2274346b","vaultWithdraw(uint256)":"fb839dda","withdrawUpdate(address,uint256,uint8)":"83bc6357"}}}}}