{"contracts/InsuranceCover.sol":{"InsuranceCover":{"abi":[{"inputs":[{"internalType":"address","name":"_lpContract","type":"address"},{"internalType":"address","name":"_initialOwner","type":"address"},{"internalType":"address","name":"_bqBTC","type":"address"}],"stateMutability":"nonpayable","type":"constructor"},{"inputs":[],"name":"CoverNotAvailable","type":"error"},{"inputs":[],"name":"InsufficientPoolBalance","type":"error"},{"inputs":[],"name":"InvalidAmount","type":"error"},{"inputs":[],"name":"InvalidCoverDuration","type":"error"},{"inputs":[],"name":"LpNotActive","type":"error"},{"inputs":[],"name":"NameAlreadyExists","type":"error"},{"inputs":[],"name":"NoClaimableReward","type":"error"},{"inputs":[{"internalType":"address","name":"owner","type":"address"}],"name":"OwnableInvalidOwner","type":"error"},{"inputs":[{"internalType":"address","name":"account","type":"address"}],"name":"OwnableUnauthorizedAccount","type":"error"},{"inputs":[],"name":"ReentrancyGuardReentrantCall","type":"error"},{"inputs":[],"name":"UnsupportedCoverType","type":"error"},{"inputs":[],"name":"UserHaveAlreadyPurchasedCover","type":"error"},{"inputs":[],"name":"WrongPool","type":"error"},{"anonymous":false,"inputs":[{"indexed":true,"internalType":"uint256","name":"coverId","type":"uint256"},{"indexed":false,"internalType":"string","name":"name","type":"string"},{"indexed":false,"internalType":"enum CoverLib.RiskType","name":"riskType","type":"uint8"}],"name":"CoverCreated","type":"event"},{"anonymous":false,"inputs":[{"indexed":true,"internalType":"address","name":"user","type":"address"},{"indexed":false,"internalType":"uint256","name":"coverValue","type":"uint256"},{"indexed":false,"internalType":"uint256","name":"coverFee","type":"uint256"},{"indexed":false,"internalType":"enum CoverLib.RiskType","name":"riskType","type":"uint8"}],"name":"CoverPurchased","type":"event"},{"anonymous":false,"inputs":[{"indexed":true,"internalType":"uint256","name":"coverId","type":"uint256"},{"indexed":false,"internalType":"string","name":"coverName","type":"string"},{"indexed":false,"internalType":"enum CoverLib.RiskType","name":"riskType","type":"uint8"}],"name":"CoverUpdated","type":"event"},{"anonymous":false,"inputs":[{"indexed":true,"internalType":"address","name":"previousOwner","type":"address"},{"indexed":true,"internalType":"address","name":"newOwner","type":"address"}],"name":"OwnershipTransferred","type":"event"},{"anonymous":false,"inputs":[{"indexed":true,"internalType":"address","name":"user","type":"address"},{"indexed":true,"internalType":"uint256","name":"poolId","type":"uint256"},{"indexed":false,"internalType":"uint256","name":"amount","type":"uint256"}],"name":"PayoutClaimed","type":"event"},{"inputs":[{"internalType":"address","name":"","type":"address"},{"internalType":"uint256","name":"","type":"uint256"}],"name":"LastVaultClaimTime","outputs":[{"internalType":"uint256","name":"","type":"uint256"}],"stateMutability":"view","type":"function"},{"inputs":[{"internalType":"address","name":"","type":"address"},{"internalType":"uint256","name":"","type":"uint256"}],"name":"NextLpClaimTime","outputs":[{"internalType":"uint256","name":"","type":"uint256"}],"stateMutability":"view","type":"function"},{"inputs":[],"name":"bqBTC","outputs":[{"internalType":"contract IbqBTC","name":"","type":"address"}],"stateMutability":"view","type":"function"},{"inputs":[],"name":"bqBTCAddress","outputs":[{"internalType":"address","name":"","type":"address"}],"stateMutability":"view","type":"function"},{"inputs":[{"internalType":"uint256","name":"_poolId","type":"uint256"}],"name":"claimPayoutForLP","outputs":[],"stateMutability":"nonpayable","type":"function"},{"inputs":[{"internalType":"uint256","name":"vaultId","type":"uint256"}],"name":"clamPayoutForVault","outputs":[],"stateMutability":"nonpayable","type":"function"},{"inputs":[],"name":"coverCount","outputs":[{"internalType":"uint256","name":"","type":"uint256"}],"stateMutability":"view","type":"function"},{"inputs":[{"internalType":"uint256","name":"","type":"uint256"}],"name":"coverExists","outputs":[{"internalType":"bool","name":"","type":"bool"}],"stateMutability":"view","type":"function"},{"inputs":[],"name":"coverFeeBalance","outputs":[{"internalType":"uint256","name":"","type":"uint256"}],"stateMutability":"view","type":"function"},{"inputs":[{"internalType":"uint256","name":"","type":"uint256"}],"name":"coverIds","outputs":[{"internalType":"uint256","name":"","type":"uint256"}],"stateMutability":"view","type":"function"},{"inputs":[{"internalType":"uint256","name":"","type":"uint256"}],"name":"covers","outputs":[{"internalType":"uint256","name":"id","type":"uint256"},{"internalType":"string","name":"coverName","type":"string"},{"internalType":"enum CoverLib.RiskType","name":"riskType","type":"uint8"},{"internalType":"string","name":"chains","type":"string"},{"internalType":"uint256","name":"capacity","type":"uint256"},{"internalType":"uint256","name":"cost","type":"uint256"},{"internalType":"uint256","name":"capacityAmount","type":"uint256"},{"internalType":"uint256","name":"coverValues","type":"uint256"},{"internalType":"uint256","name":"maxAmount","type":"uint256"},{"internalType":"uint256","name":"poolId","type":"uint256"},{"internalType":"string","name":"CID","type":"string"}],"stateMutability":"view","type":"function"},{"inputs":[{"internalType":"uint256","name":"coverId","type":"uint256"},{"internalType":"string","name":"_cid","type":"string"},{"internalType":"enum CoverLib.RiskType","name":"_riskType","type":"uint8"},{"internalType":"string","name":"_coverName","type":"string"},{"internalType":"string","name":"_chains","type":"string"},{"internalType":"uint256","name":"_capacity","type":"uint256"},{"internalType":"uint256","name":"_cost","type":"uint256"},{"internalType":"uint256","name":"_poolId","type":"uint256"}],"name":"createCover","outputs":[],"stateMutability":"nonpayable","type":"function"},{"inputs":[{"internalType":"address","name":"_user","type":"address"}],"name":"deleteExpiredUserCovers","outputs":[],"stateMutability":"nonpayable","type":"function"},{"inputs":[],"name":"getAllAvailableCovers","outputs":[{"components":[{"internalType":"uint256","name":"id","type":"uint256"},{"internalType":"string","name":"coverName","type":"string"},{"internalType":"enum CoverLib.RiskType","name":"riskType","type":"uint8"},{"internalType":"string","name":"chains","type":"string"},{"internalType":"uint256","name":"capacity","type":"uint256"},{"internalType":"uint256","name":"cost","type":"uint256"},{"internalType":"uint256","name":"capacityAmount","type":"uint256"},{"internalType":"uint256","name":"coverValues","type":"uint256"},{"internalType":"uint256","name":"maxAmount","type":"uint256"},{"internalType":"uint256","name":"poolId","type":"uint256"},{"internalType":"string","name":"CID","type":"string"}],"internalType":"struct CoverLib.Cover[]","name":"","type":"tuple[]"}],"stateMutability":"view","type":"function"},{"inputs":[],"name":"getAllParticipants","outputs":[{"internalType":"address[]","name":"","type":"address[]"}],"stateMutability":"view","type":"function"},{"inputs":[{"internalType":"address","name":"user","type":"address"}],"name":"getAllUserCovers","outputs":[{"components":[{"internalType":"address","name":"user","type":"address"},{"internalType":"uint256","name":"coverId","type":"uint256"},{"internalType":"enum CoverLib.RiskType","name":"riskType","type":"uint8"},{"internalType":"string","name":"coverName","type":"string"},{"internalType":"uint256","name":"coverValue","type":"uint256"},{"internalType":"uint256","name":"claimPaid","type":"uint256"},{"internalType":"uint256","name":"coverPeriod","type":"uint256"},{"internalType":"uint256","name":"endDay","type":"uint256"},{"internalType":"bool","name":"isActive","type":"bool"}],"internalType":"struct CoverLib.GenericCoverInfo[]","name":"","type":"tuple[]"}],"stateMutability":"view","type":"function"},{"inputs":[],"name":"getCoverFeeBalance","outputs":[{"internalType":"uint256","name":"","type":"uint256"}],"stateMutability":"view","type":"function"},{"inputs":[{"internalType":"uint256","name":"_coverId","type":"uint256"}],"name":"getCoverInfo","outputs":[{"components":[{"internalType":"uint256","name":"id","type":"uint256"},{"internalType":"string","name":"coverName","type":"string"},{"internalType":"enum CoverLib.RiskType","name":"riskType","type":"uint8"},{"internalType":"string","name":"chains","type":"string"},{"internalType":"uint256","name":"capacity","type":"uint256"},{"internalType":"uint256","name":"cost","type":"uint256"},{"internalType":"uint256","name":"capacityAmount","type":"uint256"},{"internalType":"uint256","name":"coverValues","type":"uint256"},{"internalType":"uint256","name":"maxAmount","type":"uint256"},{"internalType":"uint256","name":"poolId","type":"uint256"},{"internalType":"string","name":"CID","type":"string"}],"internalType":"struct CoverLib.Cover","name":"","type":"tuple"}],"stateMutability":"view","type":"function"},{"inputs":[{"internalType":"address","name":"user","type":"address"},{"internalType":"uint256","name":"_poolId","type":"uint256"}],"name":"getDepositClaimableDays","outputs":[{"internalType":"uint256","name":"","type":"uint256"}],"stateMutability":"view","type":"function"},{"inputs":[{"internalType":"address","name":"user","type":"address"},{"internalType":"uint256","name":"_poolId","type":"uint256"}],"name":"getLastClaimTime","outputs":[{"internalType":"uint256","name":"","type":"uint256"}],"stateMutability":"view","type":"function"},{"inputs":[{"internalType":"address","name":"user","type":"address"},{"internalType":"uint256","name":"_coverId","type":"uint256"}],"name":"getUserCoverInfo","outputs":[{"components":[{"internalType":"address","name":"user","type":"address"},{"internalType":"uint256","name":"coverId","type":"uint256"},{"internalType":"enum CoverLib.RiskType","name":"riskType","type":"uint8"},{"internalType":"string","name":"coverName","type":"string"},{"internalType":"uint256","name":"coverValue","type":"uint256"},{"internalType":"uint256","name":"claimPaid","type":"uint256"},{"internalType":"uint256","name":"coverPeriod","type":"uint256"},{"internalType":"uint256","name":"endDay","type":"uint256"},{"internalType":"bool","name":"isActive","type":"bool"}],"internalType":"struct CoverLib.GenericCoverInfo","name":"","type":"tuple"}],"stateMutability":"view","type":"function"},{"inputs":[{"internalType":"address","name":"user","type":"address"}],"name":"getUserParticipation","outputs":[{"internalType":"uint256","name":"","type":"uint256"}],"stateMutability":"view","type":"function"},{"inputs":[],"name":"governance","outputs":[{"internalType":"address","name":"","type":"address"}],"stateMutability":"view","type":"function"},{"inputs":[],"name":"lpAddress","outputs":[{"internalType":"address","name":"","type":"address"}],"stateMutability":"view","type":"function"},{"inputs":[],"name":"lpContract","outputs":[{"internalType":"contract ILP","name":"","type":"address"}],"stateMutability":"view","type":"function"},{"inputs":[],"name":"owner","outputs":[{"internalType":"address","name":"","type":"address"}],"stateMutability":"view","type":"function"},{"inputs":[{"internalType":"uint256","name":"","type":"uint256"}],"name":"participants","outputs":[{"internalType":"address","name":"","type":"address"}],"stateMutability":"view","type":"function"},{"inputs":[{"internalType":"address","name":"","type":"address"}],"name":"participation","outputs":[{"internalType":"uint256","name":"","type":"uint256"}],"stateMutability":"view","type":"function"},{"inputs":[{"internalType":"uint256","name":"_coverId","type":"uint256"},{"internalType":"uint256","name":"_coverValue","type":"uint256"},{"internalType":"uint256","name":"_coverPeriod","type":"uint256"},{"internalType":"uint256","name":"_coverFee","type":"uint256"}],"name":"purchaseCover","outputs":[],"stateMutability":"nonpayable","type":"function"},{"inputs":[],"name":"renounceOwnership","outputs":[],"stateMutability":"nonpayable","type":"function"},{"inputs":[{"internalType":"address","name":"newOwner","type":"address"}],"name":"transferOwnership","outputs":[],"stateMutability":"nonpayable","type":"function"},{"inputs":[{"internalType":"uint256","name":"_coverId","type":"uint256"},{"internalType":"string","name":"_coverName","type":"string"},{"internalType":"enum CoverLib.RiskType","name":"_riskType","type":"uint8"},{"internalType":"string","name":"_cid","type":"string"},{"internalType":"string","name":"_chains","type":"string"},{"internalType":"uint256","name":"_capacity","type":"uint256"},{"internalType":"uint256","name":"_cost","type":"uint256"},{"internalType":"uint256","name":"_poolId","type":"uint256"}],"name":"updateCover","outputs":[],"stateMutability":"nonpayable","type":"function"},{"inputs":[{"internalType":"uint256","name":"_coverId","type":"uint256"}],"name":"updateMaxAmount","outputs":[],"stateMutability":"nonpayable","type":"function"},{"inputs":[{"internalType":"address","name":"user","type":"address"},{"internalType":"uint256","name":"_coverId","type":"uint256"},{"internalType":"uint256","name":"_claimPaid","type":"uint256"}],"name":"updateUserCoverValue","outputs":[],"stateMutability":"nonpayable","type":"function"},{"inputs":[{"internalType":"address","name":"","type":"address"},{"internalType":"uint256","name":"","type":"uint256"}],"name":"userCovers","outputs":[{"internalType":"address","name":"user","type":"address"},{"internalType":"uint256","name":"coverId","type":"uint256"},{"internalType":"enum CoverLib.RiskType","name":"riskType","type":"uint8"},{"internalType":"string","name":"coverName","type":"string"},{"internalType":"uint256","name":"coverValue","type":"uint256"},{"internalType":"uint256","name":"claimPaid","type":"uint256"},{"internalType":"uint256","name":"coverPeriod","type":"uint256"},{"internalType":"uint256","name":"endDay","type":"uint256"},{"internalType":"bool","name":"isActive","type":"bool"}],"stateMutability":"view","type":"function"}],"evm":{"bytecode":{"linkReferences":{},"object":"60803461012857601f61363038819003918201601f19168301916001600160401b0383118484101761012d578084926060946040528339810103126101285761004781610143565b90610060604061005960208401610143565b9201610143565b60016000556001600160a01b0390911691821561011257600180546001600160a01b03198116851790915560405193906001600160a01b03167f8be0079c531659141344cd1fd0a4f28419497f9722a3daafe3b4186f6b6457e0600080a3600380546001600160a01b039283166001600160a01b03199182168117909255600680548216909217909155600480549390921692811683179091556005805490911690911790556134d890816101588239f35b631e4fbdf760e01b600052600060045260246000fd5b600080fd5b634e487b7160e01b600052604160045260246000fd5b51906001600160a01b03821682036101285756fe608080604052600436101561001357600080fd5b600090813560e01c9081630db981a014612acc575080631052581414611b43578063106b5da11461295d578063195ec9ee146128955780632d8a340c146126ab57806334808ec314612682578063357917b7146120fe57806335c1d3491461263e57806346f84795146110115780635aa6e67514612615578063602710a41461211c578063609c7604146120fe57806362858bfa1461208e5780636299df6c14611f77578063649718b214611d4a578063715018a614611ced57806373cce3ee14611bb5578063782ea61914611b865780637a728e7f14611b435780637ceb4a6914611aab5780638acee3cf14611a825780638da5cb5b14611a595780638de4d1011461127657806393b1ad381461104a57806396f3a8ad146110115780639732bdb51461087b578063996b8a6f146108525780639b4dc8cc146108295780639e7b399e1461074c578063a650c232146104ae578063bfc664f314610370578063cadcb47114610285578063f2fde38b146101fc578063fb643583146101c25763feb0b8f5146101a257600080fd5b346101bf57806003193601126101bf576020600f54604051908152f35b80fd5b50346101bf5760203660031901126101bf57600435906010548210156101bf5760206101ed83612b58565b90549060031b1c604051908152f35b50346101bf5760203660031901126101bf57610216612b0c565b61021e613479565b6001600160a01b0316801561027157600180546001600160a01b0319811683179091556001600160a01b03167f8be0079c531659141344cd1fd0a4f28419497f9722a3daafe3b4186f6b6457e08380a380f35b631e4fbdf760e01b82526004829052602482fd5b50346101bf5760403660031901126101bf57604061036c916102a5612b0c565b6102ad613251565b5060018060a01b03168152600d60205281812060243582526020522060ff6008604051926102da84612d3d565b80546001600160a01b0316845260018101546020850152600281015461030590841660408601613197565b604051610320816103198160038601612cba565b0382612d8b565b606085015260048101546080850152600581015460a0850152600681015460c0850152600781015460e08501520154161515610100820152604051918291602083526020830190612dac565b0390f35b50346101bf5760203660031901126101bf5761038a612b0c565b610392613457565b6001600160a01b031660015b6010548110156104a657806103b4600192612b58565b90549060031b1c838552600d6020526040852081865260205260408520600881019081549060ff82169081610498575b506103f3575b5050500161039e565b60ff19169055838552600d60205260408520908552602052836008604082208281558285820155826002820155826003820161042f8154612c80565b80610458575b5050600482015582600582015582600682015582600782015501553880806103ea565b601f8111881461046d5750555b823880610435565b8183526020832061048891601f0160051c81019089016131bb565b8082528160208120915555610465565b6007915001544211386103e4565b826001815580f35b50346101bf5760203660031901126101bf576004356104cb613457565b600354604051634122bbb360e11b815260048101839052336024820152908390829060449082906001600160a01b03165afa908115610741578391610698575b508290338452600c602052604084208385526020526040842054156000146106765761012c61055c60c061053e84613295565b5101515b4260e061054e86613295565b5101514211610662576130fb565b049380925b82518410156105965761058e60019161058888606061058089896132a2565b5101516130d2565b9061318a565b930192610561565b8490338352600c602052604083208284526020524260408420558260018060a01b0360045416803b1561065e57604051637104a76d60e11b8152336004820152602481018490529082908290604490829084905af180156106535761063a575b5050610604816002546130fb565b6002556040519081527f0408e6e0b73daf4c873106e95fd067260fbff8bf9d1b499cad563d4480d45bac60203392a36001815580f35b8161064491612d8b565b61064f5782846105f6565b8280fd5b6040513d84823e3d90fd5b5080fd5b5060e061066e85613295565b5101516130fb565b338452600c6020526040842083855260205261012c61055c6040862054610542565b90503d8084833e6106a98183612d8b565b810190602081830312610739578051906001600160401b03821161073d570181601f820112156107395780516106de8161323a565b926106ec6040519485612d8b565b818452602061012081860193028401019281841161073557602001915b83831061071a57505050503861050b565b60206101209161072a8486613108565b815201920191610709565b8680fd5b8380fd5b8480fd5b6040513d85823e3d90fd5b50346101bf5760403660031901126101bf576040906001600160a01b03610771612b0c565b168152600d60205281812060243582526020522060018060a01b0381541660018201549160ff600282015416604051916107b9836107b28160038501612cba565b0384612d8b565b60048101549260058201546108086006840154926107f560ff6008600788015497015416966040519a8b9a8b5260208b015260408a0190612bbb565b6101206060890152610120880190612b96565b94608087015260a086015260c085015260e084015215156101008301520390f35b50346101bf57806003193601126101bf576006546040516001600160a01b039091168152602090f35b50346101bf57806003193601126101bf576005546040516001600160a01b039091168152602090f35b50346101bf5761088a36612e89565b61089a9897939496959298613479565b6003546040516307eb111f60e41b815260048101839052956001600160a01b0390911692908987602481875afa968715611006578a97610fe2575b5096996020890197908a5b88518110156109665760206108f5828b6132a2565b510151604051610926602082816109158183019687815193849201612b73565b81010301601f198101835282612d8b565b5190208a8c6109476020604051809361091583830196879251928391612b73565b51902014610957576001016108e0565b633480a50360e21b8c5260048cfd5b508a9850899697508b60405163068bcd8d60e01b81528560048201528a816024818a5afa908115610fd7578b91610fb5575b5060408101516003811015610fa1576003891015610fa1578814801590610f93575b610f845760a00151670de0b6b3a76400008302838104670de0b6b3a76400001484151715610f70576109fa8c926064670de0b6b3a76400009304906130d2565b0496803b1561065e5781809160446040518094819363a4948d8560e01b83528c60048401528960248401525af1801561065357610f57575b5050610a3f600f5461322b565b600f5560405195610a4f87612d6f565b89875260208701948986526040880193610a698a86613197565b60608901958652608089015260a08801528060c08801528a60e088015261010087015284610120870152610140860152878952600e602052604089209285518455518051906001600160401b038211610f4357610ac96001860154612c80565b601f8111610f10575b50602090601f8311600114610ea757610b0392918c9183610e9c575b50508160011b916000199060031b1c19161790565b60018401555b516003811015610e8857610b2090600284016131a3565b518051906001600160401b038211610dca57610b3f6003840154612c80565b601f8111610e55575b50602090601f8311600114610de9579180610b7c92600a95948c92610dde5750508160011b916000199060031b1c19161790565b60038201555b6080840151600482015560a0840151600582015560c0840151600682015560e0840151600782015561010084015160088201556101208401516009820155016101408301518051906001600160401b038211610dca57610be28354612c80565b601f8111610d8f575b50602090601f8311600114610d2c57610c1b92918a9183610d215750508160011b916000199060031b1c19161790565b90555b601054600160401b811015610d0d5790610c4082600189959401601055612b58565b8154600391821b89811b60001990911b1990911617909155546001600160a01b031691823b1561073957610c9a928492836040518096819582946331eaa61d60e21b84526004840152604060248401526044830190612bde565b03925af1801561065357610cf8575b5091837f5928d65cc6ae9f07a7673f1a5a2f98d81f1bb0c2bc53bcaa33d6f11cf426f25e9352600a60205260408520600160ff19825416179055610cf260405192839283613434565b0390a280f35b81610d0291612d8b565b610739578385610ca9565b634e487b7160e01b87526041600452602487fd5b015190508a80610aee565b838a52818a209190601f1984168b5b818110610d775750908460019594939210610d5e575b505050811b019055610c1e565b015160001960f88460031b161c19169055898080610d51565b92936020600181928786015181550195019301610d3b565b610dba90848b5260208b20601f850160051c81019160208610610dc0575b601f0160051c01906131bb565b89610beb565b9091508190610dad565b634e487b7160e01b89526041600452602489fd5b015190508b80610aee565b600384018a52818a209190601f1984168b5b818110610e3d5750916001939185600a97969410610e24575b505050811b016003820155610b82565b015160001960f88460031b161c191690558a8080610e14565b92936020600181928786015181550195019301610dfb565b610e8290600385018b5260208b20601f850160051c81019160208610610dc057601f0160051c01906131bb565b89610b48565b634e487b7160e01b89526021600452602489fd5b015190508c80610aee565b600186018c52818c209190601f1984168d5b818110610ef85750908460019594939210610edf575b505050811b016001840155610b09565b015160001960f88460031b161c191690558b8080610ecf565b92936020600181928786015181550195019301610eb9565b610f3d90600187018d5260208d20601f850160051c81019160208610610dc057601f0160051c01906131bb565b8b610ad2565b634e487b7160e01b8b52604160045260248bfd5b81610f6191612d8b565b610f6c57898b610a32565b8980fd5b634e487b7160e01b8c52601160045260248cfd5b6369e489f560e11b8b5260048bfd5b5061014081015183116109ba565b634e487b7160e01b8c52602160045260248cfd5b610fd191503d808d833e610fc98183612d8b565b810190612fa5565b8b610998565b6040513d8d823e3d90fd5b610fff9197503d808c833e610ff78183612d8b565b8101906132b6565b95386108d5565b6040513d8c823e3d90fd5b50346101bf5760203660031901126101bf576020906040906001600160a01b03611039612b0c565b168152600983522054604051908152f35b50346101bf57806003193601126101bf578081601054905b81811061123657506110738261323a565b916110816040519384612d8b565b808352611090601f199161323a565b01835b81811061121f57505082835b82811061110d5783856040519182916020830160208452825180915260408401602060408360051b870101940192905b8282106110de57505050500390f35b919360019193955060206110fd8192603f198a82030186528851612bde565b96019201920185949391926110cf565b61111681612b58565b90549060031b1c808652600a60205260ff60408720541661113b575b5060010161109f565b60019192611218918752600e60205260408720600a6111f76040519261116084612d6f565b8054845260405161117781610319818b8601612cba565b602085015261119060ff60028301541660408601613197565b6040516111a4816103198160038601612cba565b606085015260048101546080850152600581015460a0850152600681015460c0850152600781015460e0850152600881015461010085015260098101546101208501526103196040518094819301612cba565b61014082015261120782886132a2565b5261121281876132a2565b5061322b565b9190611132565b60209061122a6131d2565b82828701015201611093565b61123f81612b58565b90549060031b1c8452600a60205260ff604085205416611262575b600101611062565b9161126e60019161322b565b92905061125a565b50346101bf57602461128736612e89565b61129a9997969592999891949398613479565b60018060a01b036003541699888b6040519485809263068bcd8d60e01b82528660048301525afa928315611a4e578993611a32575b5060408301516003811015611a1e576003851015611a1e578414801590611a10575b611a0157878952600e60205260a060408a20930151670de0b6b3a76400008202828104670de0b6b3a764000014831517156119ed57670de0b6b3a764000091606461133d9204906130d2565b0490816007850154116119de578960249a9b9c6040519b8c80926307eb111f60e41b82528760048301525afa998a15610fd7578b9a6119c2575b50959a6020880196908b5b8b5181101561141c578b8b828c8c602061139c84876132a2565b5101516040516113bc602082816109158183019687815193849201612b73565b519020916113dc6020604051809361091583830196879251928391612b73565b519020149283611405575b5050506113f657600101611382565b633480a50360e21b8d5260048dfd5b6114109293506132a2565b515114158b828e6113e7565b508b98969997508c60048601549188516001600160401b038111611906578b61144860018a0154612c80565b601f811161198f575b505060208c601f83116001146119255761148092918261191a575b508160011b916000199060031b1c19161790565b60018801555b80516001600160401b038111611906578b6114a460038a0154612c80565b601f81116118d3575b50506020918c601f8311600114611865576114de9390918361185a5750508160011b916000199060031b1c19161790565b60038701555b826004870155600586015589516001600160401b0381116118465761150c600a870154612c80565b601f8111611813575b506020601f82116001146117a257908061154a928c9d8d9a9b9c9d926117975750508160011b916000199060031b1c19161790565b600a8601555b600685019183835561156e60098701948686556007880154906130fb565b6008870190815591818111156117235790611588916130fb565b6003546001600160a01b031690813b1561171f578791604483926040519485938492639fd36b1560e01b84528b600485015260248401525af19081156117145787916116fb575b50505b6003546001600160a01b031691823b156107355786946116a48692600a604051998a9889978896630a14764d60e41b885260048801526040602488015282546044880152610160606488015261165c6116326101a4890160018601612cba565b61164760ff60028701541660848b0190612bbb565b8881036043190160a48a015260038501612cba565b600484015460c4890152600584015460e48901529454610104880152600783015461012488015254610144870152546101648601528483036043190161018486015201612cba565b03925af18015610653576116e6575b50507f758a67328ba53c1867c0272bbd2ca10d6fe71d37120188c523fe7ae7bdbbe46991610cf260405192839283613434565b816116f091612d8b565b6107395783856116b3565b8161170591612d8b565b61171057858b6115cf565b8580fd5b6040513d89823e3d90fd5b8780fd5b818110611732575b50506115d2565b61173b916130fb565b6003546001600160a01b031690813b1561171f57879160448392604051948593849263a4948d8560e01b84528b600485015260248401525af19081156117145787911561172b578161178c91612d8b565b61171057858b61172b565b015190508d80610aee565b600a87018b52808b209b8b5b601f19841681106117fb57509b82918c9d600194601f9e9b9c9d9e198116106117e2575b505050811b01600a860155611550565b015160001960f88460031b161c191690558c80806117d2565b828201518e556001909d019c602092830192016117ae565b61184090600a88018c5260208c20601f840160051c81019160208510610dc057601f0160051c01906131bb565b8b611515565b634e487b7160e01b8a52604160045260248afd5b015190508e80610aee565b5091600389018d52808d20908d935b601f19841685106118b8576001945083601f1981161061189f575b505050811b0160038701556114e4565b015160001960f88460031b161c191690558d808061188f565b81810151835560209485019460019093019290910190611874565b60206118ff9260038c01815220601f840160051c81019160208510610dc057601f0160051c01906131bb565b8b8e6114ad565b634e487b7160e01b8c52604160045260248cfd5b90508b01518f61146c565b5090600189018d52818d208d925b8c601f198416851061197857506001935082601f1981161061195f575b5050811b016001880155611486565b8c015160001960f88460031b161c191690558e80611950565b810151825560209384019360019092019101611933565b60206119bb9260018c01815220601f840160051c81019160208510610dc057601f0160051c01906131bb565b8b8e611451565b6119d7919a503d808d833e610ff78183612d8b565b9838611377565b6369e489f560e11b8a5260048afd5b634e487b7160e01b8b52601160045260248bfd5b6369e489f560e11b8952600489fd5b5061014083015181116112f1565b634e487b7160e01b8a52602160045260248afd5b611a479193503d808b833e610fc98183612d8b565b91386112cf565b6040513d8b823e3d90fd5b50346101bf57806003193601126101bf576001546040516001600160a01b039091168152602090f35b50346101bf57806003193601126101bf576003546040516001600160a01b039091168152602090f35b50346101bf5760603660031901126101bf57611ac5612b0c565b60243560443591611ae160018060a01b03600754163314612f12565b611ae9613457565b60018060a01b0316808452600d6020526040842082855260205260046040852001611b158482546130fb565b90558352600d60205260408320908352602052611b3a6005604084200191825461318a565b90556001815580f35b50346101bf5760403660031901126101bf576020906040906001600160a01b03611b6b612b0c565b168152600b8352818120602435825283522054604051908152f35b50346101bf5760203660031901126101bf5760ff60406020926004358152600a84522054166040519015158152f35b50346101bf5760403660031901126101bf57611bcf612b0c565b600354604051631381549160e21b815260248035600483018190526001600160a01b0385811692840192909252919391926101209185916044918391165afa928315611ce2578493611c96575b506001600160a01b0316808452600b602090815260408086208487528252852054909461012c94611c6c94909392611c7d5750505060c0810151905b60e042910151804211611c75575b506130fb565b04604051908152f35b905038611c66565b6040928252600b87528282209082528652205490611c58565b9092506101203d8111611cdb575b611cae8183612d8b565b8101906101208183031261073d5791602094611cd161012c9593611c6c95613108565b9450945091611c1c565b503d611ca4565b6040513d86823e3d90fd5b50346101bf57806003193601126101bf57611d06613479565b600180546001600160a01b0319811690915581906001600160a01b03167f8be0079c531659141344cd1fd0a4f28419497f9722a3daafe3b4186f6b6457e08280a380f35b50346101bf5760203660031901126101bf57611d64612b0c565b60105482916001600160a01b0316825b828110611f2c5750611d858361323a565b92611d936040519485612d8b565b808452611da2601f199161323a565b01845b818110611f1557505083845b838110611e1f5784866040519182916020830160208452825180915260408401602060408360051b870101940192905b828210611df057505050500390f35b91936001919395506020611e0f8192603f198a82030186528851612dac565b9601920192018594939192611de1565b611e2881612b58565b90549060031b1c838752600d602052604087208188526020526004604088200154611e57575b50600101611db1565b60019192611f0e91858952600d602052604089209089526020526040882060ff600860405192611e8684612d3d565b868060a01b038154168452868101546020850152611ead8360028301541660408601613197565b604051611ec1816103198160038601612cba565b606085015260048101546080850152600581015460a0850152600681015460c0850152600781015460e08501520154161515610100820152611f0382896132a2565b5261121281886132a2565b9190611e4e565b602090611f20613251565b82828801015201611da5565b611f3581612b58565b90549060031b1c828652600d602052604086209086526020526004604086200154611f63575b600101611d74565b92611f6f60019161322b565b939050611f5b565b50346101bf5760203660031901126101bf576004358152600e6020526040902080546040519182806001830190611fad91612cba565b03611fb89084612d8b565b60028101546040519060ff1681611fd28160038601612cba565b03611fdd9083612d8b565b6004830154916005840154600685015460078601549160088701549360098801549560405180600a819b019061201291612cba565b0361201d908a612d8b565b6040519a8b9a8b5260208b0161016090526101608b0161203c91612b96565b9060408b0161204a91612bbb565b89810360608b015261205b91612b96565b95608089015260a088015260c087015260e086015261010085015261012084015282810361014084015261036c91612b96565b50346101bf5760203660031901126101bf57604061036c916120ae6131d2565b506004358152600e60205220600a6120e4604051926120cc84612d6f565b80548452604051611177816103198160018601612cba565b610140820152604051918291602083526020830190612bde565b50346101bf57806003193601126101bf576020600254604051908152f35b50346101bf5760803660031901126101bf5760443560043561213c613457565b6064351561260657601b82118015906125fa575b6125eb57808352600a60205260ff604084205416156125dc57808352600e6020526040832091600883018054602435116125cd5760078401612195602435825461318a565b60068601805482116125be5760045488906001600160a01b0316803b1561065e57604051632770a7eb60e21b815233600482015260643560248201529082908290604490829084905af18015610653576125a9575b5050816121fd935554611c6682826130fb565b9055338452600d6020526040842082855260205260046040852001541560001461259a5760ff600284015416906201518081028181046201518014821517156125865761224a904261318a565b6040519361225785612d3d565b3385526020850193818552612270604087019182613197565b6040519061228c826122858160018c01612cba565b0383612d8b565b606087019182526080870192602435845260a08801948a865260c0890196875260e08901526001610100890152338a52600d60205260408a20908a52602052604089209560018060a01b038851166bffffffffffffffffffffffff60a01b885416178755516001870155516003811015610e885761230d90600287016131a3565b518051906001600160401b038211610dca5761232c6003870154612c80565b601f8111612553575b50602090601f83116001146124de5782610100979593600897959361236f938d926124d35750508160011b916000199060031b1c19161790565b60038501555b51600484015551600583015551600682015560e0840151600782015501910151151560ff80198354169116179055818290600854915b8281106124a0575b501561244e575b503382526009602052604082208054906001820180921161243a579160029160ff93556123ea606435835461318a565b825501541661240d60405191602435835260643560208401526040830190612bbb565b7f23b0f39e0762759ffb18632a1a2b79c9eb58571454e5f7c36e0a2f81759e0a3460603392a26001815580f35b634e487b7160e01b84526011600452602484fd5b600160401b81101561248c5780600161246a9201600855612b27565b81546001600160a01b0360039290921b91821b19163390911b179055386123ba565b634e487b7160e01b83526041600452602483fd5b6124a981612b27565b905460039190911b1c6001600160a01b031633146124c9576001016123ab565b50506001386123b3565b015190503880610aee565b90600387018a52808a20918a5b601f198516811061253b575092600896949260019261010099979583601f19811610612522575b505050811b016003850155612375565b015160001960f88460031b161c19169055388080612512565b919260206001819286850151815501940192016124eb565b61258090600388018b5260208b20601f850160051c81019160208610610dc057601f0160051c01906131bb565b38612335565b634e487b7160e01b86526011600452602486fd5b639857cbd960e01b8452600484fd5b816125b391612d8b565b61171f5787386121ea565b63bc6072f160e01b8852600488fd5b63bc6072f160e01b8552600485fd5b63bccd404360e01b8352600483fd5b631f89958960e11b8352600483fd5b5061016e821015612150565b63162908e360e11b8352600483fd5b50346101bf57806003193601126101bf576007546040516001600160a01b039091168152602090f35b50346101bf5760203660031901126101bf57600435906008548210156101bf57602061266983612b27565b905460405160039290921b1c6001600160a01b03168152f35b50346101bf57806003193601126101bf576004546040516001600160a01b039091168152602090f35b50346101bf5760203660031901126101bf576004356126c8613457565b600354604051631381549160e21b8152600481018390523360248201529061012090829060449082906001600160a01b03165afa90811561074157839161285b575b50608081015160028110156128475761283857338352600b602052604083208284526020526040832054156000146128165761012c61275b60c08301515b4260e0850151804211611c7557506130fb565b04908115612807579060606127719201516130d2565b60025481116127f857338352600b6020526040832082845260205242604084205560018060a01b0360045416803b1561073957604051637104a76d60e11b8152336004820152602481018390529084908290604490829084905af18015611ce2576127e4575b50610604816002546130fb565b836127f191949294612d8b565b91386127d7565b63bc6072f160e01b8352600483fd5b63ed700a6760e01b8452600484fd5b338352600b6020526040832082845260205261012c61275b6040852054612748565b63e067835f60e01b8352600483fd5b634e487b7160e01b84526021600452602484fd5b90506101203d811161288e575b6128728183612d8b565b8101610120828203126107395761288891613108565b3861270a565b503d612868565b50346101bf57806003193601126101bf5760405180602060085491828152018091600885527ff3f7a9fe364faab93b216da50a3214154f22a0a2b415b23a84c8169e8b636ee390855b81811061293e57505050826128f4910383612d8b565b604051928392602084019060208552518091526040840192915b81811061291c575050500390f35b82516001600160a01b031684528594506020938401939092019160010161290e565b82546001600160a01b03168452602090930192600192830192016128de565b50346101bf5760203660031901126101bf5760043561298760018060a01b03600654163314612f12565b61298f613457565b808252600e60205260408083206003546009820154925163068bcd8d60e01b815260048101939093528490839060249082906001600160a01b03165afa918215611ce2578492612aad575b5060040154908115612a6f5760a0015190670de0b6b3a76400008102908104670de0b6b3a76400000361243a57670de0b6b3a7640000916064612a1e9204906130d2565b04818352600e6020526006604084200155808252600e602052612a586006604084200154828452600e6020526007604085200154906130fb565b908252600e60205260086040832001556001815580f35b60405162461bcd60e51b8152602060048201526016602482015275496e76616c696420636f76657220636170616369747960501b6044820152606490fd5b6004919250612ac5903d8087833e610fc98183612d8b565b91906129da565b90503461065e57604036600319011261065e576020916040906001600160a01b03612af5612b0c565b168152600c84528181206024358252845220548152f35b600435906001600160a01b0382168203612b2257565b600080fd5b600854811015612b4257600860005260206000200190600090565b634e487b7160e01b600052603260045260246000fd5b601054811015612b4257601060005260206000200190600090565b60005b838110612b865750506000910152565b8181015183820152602001612b76565b90602091612baf81518092818552858086019101612b73565b601f01601f1916010190565b906003821015612bc85752565b634e487b7160e01b600052602160045260246000fd5b612c7d9181518152610140612c2b612c0760208501516101606020860152610160850190612b96565b612c1960408601516040860190612bbb565b60608501518482036060860152612b96565b926080810151608084015260a081015160a084015260c081015160c084015260e081015160e0840152610100810151610100840152610120810151610120840152015190610140818403910152612b96565b90565b90600182811c92168015612cb0575b6020831014612c9a57565b634e487b7160e01b600052602260045260246000fd5b91607f1691612c8f565b60009291815491612cca83612c80565b8083529260018116908115612d205750600114612ce657505050565b60009081526020812093945091925b838310612d06575060209250010190565b600181602092949394548385870101520191019190612cf5565b915050602093945060ff929192191683830152151560051b010190565b61012081019081106001600160401b03821117612d5957604052565b634e487b7160e01b600052604160045260246000fd5b61016081019081106001600160401b03821117612d5957604052565b90601f801991011681019081106001600160401b03821117612d5957604052565b9060018060a01b03825116815260208201516020820152612dd560408301516040830190612bbb565b61010080612df460608501516101206060860152610120850190612b96565b936080810151608085015260a081015160a085015260c081015160c085015260e081015160e08501520151151591015290565b6001600160401b038111612d5957601f01601f191660200190565b81601f82011215612b2257803590612e5982612e27565b92612e676040519485612d8b565b82845260208383010111612b2257816000926020809301838601378301015290565b610100600319820112612b2257600435916024356001600160401b038111612b225782612eb891600401612e42565b916044356003811015612b2257916064356001600160401b038111612b225782612ee491600401612e42565b91608435906001600160401b038211612b2257612f0391600401612e42565b9060a4359060c4359060e43590565b15612f1957565b60405162461bcd60e51b815260206004820152600e60248201526d139bdd08185d5d1a1bdc9a5e995960921b6044820152606490fd5b81601f82011215612b22578051612f6581612e27565b92612f736040519485612d8b565b81845260208284010111612b2257612c7d9160208085019101612b73565b51906001600160a01b0382168203612b2257565b602081830312612b22578051906001600160401b038211612b2257016101e081830312612b2257604051916101e083018381106001600160401b03821117612d5957604052815183526020820151906001600160401b038211612b225761300d918301612f4f565b602083015260408101516003811015612b22576040830152606081015160608301526080810151608083015260a081015160a083015260c081015160c083015260e081015160e08301526101008101516101008301526101208101518015158103612b22576101208301526101408101516101408301526101608101516101608301526101808101519060ff82168203612b22576101c0916101808401526130b86101a08201612f91565b6101a084015201516002811015612b22576101c082015290565b818102929181159184041417156130e557565b634e487b7160e01b600052601160045260246000fd5b919082039182116130e557565b919082610120910312612b225760405161312181612d3d565b809261312c81612f91565b825260208101516020830152604081015160408301526060810151606083015260808101516002811015612b2257610100918291608085015260a081015160a085015260c081015160c085015260e081015160e08501520151910152565b919082018092116130e557565b6003821015612bc85752565b906003811015612bc85760ff80198354169116179055565b8181106131c6575050565b600081556001016131bb565b604051906131df82612d6f565b6060610140836000815282602082015260006040820152828082015260006080820152600060a0820152600060c0820152600060e0820152600061010082015260006101208201520152565b60001981146130e55760010190565b6001600160401b038111612d595760051b60200190565b6040519061325e82612d3d565b6000610100838281528260208201528260408201526060808201528260808201528260a08201528260c08201528260e08201520152565b805115612b425760200190565b8051821015612b425760209160051b010190565b602081830312612b22578051906001600160401b038211612b2257019080601f83011215612b22578151916132ea8361323a565b926132f86040519485612d8b565b80845260208085019160051b83010191838311612b225760208101915b83831061332457505050505090565b82516001600160401b038111612b2257820190610160828703601f190112612b22576040519061335382612d6f565b6020830151825260408301516001600160401b038111612b225787602061337c92860101612f4f565b602083015260608301516003811015612b2257604083015260808301516001600160401b038111612b22578760206133b692860101612f4f565b606083015260a0830151608083015260c083015160a083015260e083015160c083015261010083015160e0830152610120830151610100830152610140830151610120830152610160830151916001600160401b038311612b225761342388602080969581960101612f4f565b610140820152815201920191613315565b9291602061344d61345593604087526040870190612b96565b940190612bbb565b565b600260005414613468576002600055565b633ee5aeb560e01b60005260046000fd5b6001546001600160a01b0316330361348d57565b63118cdaa760e01b6000523360045260246000fdfea26469706673582212203fc987554b6726669d87ef1be6b7f14265f1bc16fa41b3fa320fba0c0c38f63964736f6c634300081c0033","opcodes":"PUSH1 0x80 CALLVALUE PUSH2 0x128 JUMPI PUSH1 0x1F PUSH2 0x3630 CODESIZE DUP2 SWAP1 SUB SWAP2 DUP3 ADD PUSH1 0x1F NOT AND DUP4 ADD SWAP2 PUSH1 0x1 PUSH1 0x1 PUSH1 0x40 SHL SUB DUP4 GT DUP5 DUP5 LT OR PUSH2 0x12D JUMPI DUP1 DUP5 SWAP3 PUSH1 0x60 SWAP5 PUSH1 0x40 MSTORE DUP4 CODECOPY DUP2 ADD SUB SLT PUSH2 0x128 JUMPI PUSH2 0x47 DUP2 PUSH2 0x143 JUMP JUMPDEST SWAP1 PUSH2 0x60 PUSH1 0x40 PUSH2 0x59 PUSH1 0x20 DUP5 ADD PUSH2 0x143 JUMP JUMPDEST SWAP3 ADD PUSH2 0x143 JUMP JUMPDEST PUSH1 0x1 PUSH1 0x0 SSTORE PUSH1 0x1 PUSH1 0x1 PUSH1 0xA0 SHL SUB SWAP1 SWAP2 AND SWAP2 DUP3 ISZERO PUSH2 0x112 JUMPI PUSH1 0x1 DUP1 SLOAD PUSH1 0x1 PUSH1 0x1 PUSH1 0xA0 SHL SUB NOT DUP2 AND DUP6 OR SWAP1 SWAP2 SSTORE PUSH1 0x40 MLOAD SWAP4 SWAP1 PUSH1 0x1 PUSH1 0x1 PUSH1 0xA0 SHL SUB AND PUSH32 0x8BE0079C531659141344CD1FD0A4F28419497F9722A3DAAFE3B4186F6B6457E0 PUSH1 0x0 DUP1 LOG3 PUSH1 0x3 DUP1 SLOAD PUSH1 0x1 PUSH1 0x1 PUSH1 0xA0 SHL SUB SWAP3 DUP4 AND PUSH1 0x1 PUSH1 0x1 PUSH1 0xA0 SHL SUB NOT SWAP2 DUP3 AND DUP2 OR SWAP1 SWAP3 SSTORE PUSH1 0x6 DUP1 SLOAD DUP3 AND SWAP1 SWAP3 OR SWAP1 SWAP2 SSTORE PUSH1 0x4 DUP1 SLOAD SWAP4 SWAP1 SWAP3 AND SWAP3 DUP2 AND DUP4 OR SWAP1 SWAP2 SSTORE PUSH1 0x5 DUP1 SLOAD SWAP1 SWAP2 AND SWAP1 SWAP2 OR SWAP1 SSTORE PUSH2 0x34D8 SWAP1 DUP2 PUSH2 0x158 DUP3 CODECOPY RETURN JUMPDEST PUSH4 0x1E4FBDF7 PUSH1 0xE0 SHL PUSH1 0x0 MSTORE PUSH1 0x0 PUSH1 0x4 MSTORE PUSH1 0x24 PUSH1 0x0 REVERT JUMPDEST PUSH1 0x0 DUP1 REVERT JUMPDEST PUSH4 0x4E487B71 PUSH1 0xE0 SHL PUSH1 0x0 MSTORE PUSH1 0x41 PUSH1 0x4 MSTORE PUSH1 0x24 PUSH1 0x0 REVERT JUMPDEST MLOAD SWAP1 PUSH1 0x1 PUSH1 0x1 PUSH1 0xA0 SHL SUB DUP3 AND DUP3 SUB PUSH2 0x128 JUMPI JUMP INVALID PUSH1 0x80 DUP1 PUSH1 0x40 MSTORE PUSH1 0x4 CALLDATASIZE LT ISZERO PUSH2 0x13 JUMPI PUSH1 0x0 DUP1 REVERT JUMPDEST PUSH1 0x0 SWAP1 DUP2 CALLDATALOAD PUSH1 0xE0 SHR SWAP1 DUP2 PUSH4 0xDB981A0 EQ PUSH2 0x2ACC JUMPI POP DUP1 PUSH4 0x10525814 EQ PUSH2 0x1B43 JUMPI DUP1 PUSH4 0x106B5DA1 EQ PUSH2 0x295D JUMPI DUP1 PUSH4 0x195EC9EE EQ PUSH2 0x2895 JUMPI DUP1 PUSH4 0x2D8A340C EQ PUSH2 0x26AB JUMPI DUP1 PUSH4 0x34808EC3 EQ PUSH2 0x2682 JUMPI DUP1 PUSH4 0x357917B7 EQ PUSH2 0x20FE JUMPI DUP1 PUSH4 0x35C1D349 EQ PUSH2 0x263E JUMPI DUP1 PUSH4 0x46F84795 EQ PUSH2 0x1011 JUMPI DUP1 PUSH4 0x5AA6E675 EQ PUSH2 0x2615 JUMPI DUP1 PUSH4 0x602710A4 EQ PUSH2 0x211C JUMPI DUP1 PUSH4 0x609C7604 EQ PUSH2 0x20FE JUMPI DUP1 PUSH4 0x62858BFA EQ PUSH2 0x208E JUMPI DUP1 PUSH4 0x6299DF6C EQ PUSH2 0x1F77 JUMPI DUP1 PUSH4 0x649718B2 EQ PUSH2 0x1D4A JUMPI DUP1 PUSH4 0x715018A6 EQ PUSH2 0x1CED JUMPI DUP1 PUSH4 0x73CCE3EE EQ PUSH2 0x1BB5 JUMPI DUP1 PUSH4 0x782EA619 EQ PUSH2 0x1B86 JUMPI DUP1 PUSH4 0x7A728E7F EQ PUSH2 0x1B43 JUMPI DUP1 PUSH4 0x7CEB4A69 EQ PUSH2 0x1AAB JUMPI DUP1 PUSH4 0x8ACEE3CF EQ PUSH2 0x1A82 JUMPI DUP1 PUSH4 0x8DA5CB5B EQ PUSH2 0x1A59 JUMPI DUP1 PUSH4 0x8DE4D101 EQ PUSH2 0x1276 JUMPI DUP1 PUSH4 0x93B1AD38 EQ PUSH2 0x104A JUMPI DUP1 PUSH4 0x96F3A8AD EQ PUSH2 0x1011 JUMPI DUP1 PUSH4 0x9732BDB5 EQ PUSH2 0x87B JUMPI DUP1 PUSH4 0x996B8A6F EQ PUSH2 0x852 JUMPI DUP1 PUSH4 0x9B4DC8CC EQ PUSH2 0x829 JUMPI DUP1 PUSH4 0x9E7B399E EQ PUSH2 0x74C JUMPI DUP1 PUSH4 0xA650C232 EQ PUSH2 0x4AE JUMPI DUP1 PUSH4 0xBFC664F3 EQ PUSH2 0x370 JUMPI DUP1 PUSH4 0xCADCB471 EQ PUSH2 0x285 JUMPI DUP1 PUSH4 0xF2FDE38B EQ PUSH2 0x1FC JUMPI DUP1 PUSH4 0xFB643583 EQ PUSH2 0x1C2 JUMPI PUSH4 0xFEB0B8F5 EQ PUSH2 0x1A2 JUMPI PUSH1 0x0 DUP1 REVERT JUMPDEST CALLVALUE PUSH2 0x1BF JUMPI DUP1 PUSH1 0x3 NOT CALLDATASIZE ADD SLT PUSH2 0x1BF JUMPI PUSH1 0x20 PUSH1 0xF SLOAD PUSH1 0x40 MLOAD SWAP1 DUP2 MSTORE RETURN JUMPDEST DUP1 REVERT JUMPDEST POP CALLVALUE PUSH2 0x1BF JUMPI PUSH1 0x20 CALLDATASIZE PUSH1 0x3 NOT ADD SLT PUSH2 0x1BF JUMPI PUSH1 0x4 CALLDATALOAD SWAP1 PUSH1 0x10 SLOAD DUP3 LT ISZERO PUSH2 0x1BF JUMPI PUSH1 0x20 PUSH2 0x1ED DUP4 PUSH2 0x2B58 JUMP JUMPDEST SWAP1 SLOAD SWAP1 PUSH1 0x3 SHL SHR PUSH1 0x40 MLOAD SWAP1 DUP2 MSTORE RETURN JUMPDEST POP CALLVALUE PUSH2 0x1BF JUMPI PUSH1 0x20 CALLDATASIZE PUSH1 0x3 NOT ADD SLT PUSH2 0x1BF JUMPI PUSH2 0x216 PUSH2 0x2B0C JUMP JUMPDEST PUSH2 0x21E PUSH2 0x3479 JUMP JUMPDEST PUSH1 0x1 PUSH1 0x1 PUSH1 0xA0 SHL SUB AND DUP1 ISZERO PUSH2 0x271 JUMPI PUSH1 0x1 DUP1 SLOAD PUSH1 0x1 PUSH1 0x1 PUSH1 0xA0 SHL SUB NOT DUP2 AND DUP4 OR SWAP1 SWAP2 SSTORE PUSH1 0x1 PUSH1 0x1 PUSH1 0xA0 SHL SUB AND PUSH32 0x8BE0079C531659141344CD1FD0A4F28419497F9722A3DAAFE3B4186F6B6457E0 DUP4 DUP1 LOG3 DUP1 RETURN JUMPDEST PUSH4 0x1E4FBDF7 PUSH1 0xE0 SHL DUP3 MSTORE PUSH1 0x4 DUP3 SWAP1 MSTORE PUSH1 0x24 DUP3 REVERT JUMPDEST POP CALLVALUE PUSH2 0x1BF JUMPI PUSH1 0x40 CALLDATASIZE PUSH1 0x3 NOT ADD SLT PUSH2 0x1BF JUMPI PUSH1 0x40 PUSH2 0x36C SWAP2 PUSH2 0x2A5 PUSH2 0x2B0C JUMP JUMPDEST PUSH2 0x2AD PUSH2 0x3251 JUMP JUMPDEST POP PUSH1 0x1 DUP1 PUSH1 0xA0 SHL SUB AND DUP2 MSTORE PUSH1 0xD PUSH1 0x20 MSTORE DUP2 DUP2 KECCAK256 PUSH1 0x24 CALLDATALOAD DUP3 MSTORE PUSH1 0x20 MSTORE KECCAK256 PUSH1 0xFF PUSH1 0x8 PUSH1 0x40 MLOAD SWAP3 PUSH2 0x2DA DUP5 PUSH2 0x2D3D JUMP JUMPDEST DUP1 SLOAD PUSH1 0x1 PUSH1 0x1 PUSH1 0xA0 SHL SUB AND DUP5 MSTORE PUSH1 0x1 DUP2 ADD SLOAD PUSH1 0x20 DUP6 ADD MSTORE PUSH1 0x2 DUP2 ADD SLOAD PUSH2 0x305 SWAP1 DUP5 AND PUSH1 0x40 DUP7 ADD PUSH2 0x3197 JUMP JUMPDEST PUSH1 0x40 MLOAD PUSH2 0x320 DUP2 PUSH2 0x319 DUP2 PUSH1 0x3 DUP7 ADD PUSH2 0x2CBA JUMP JUMPDEST SUB DUP3 PUSH2 0x2D8B JUMP JUMPDEST PUSH1 0x60 DUP6 ADD MSTORE PUSH1 0x4 DUP2 ADD SLOAD PUSH1 0x80 DUP6 ADD MSTORE PUSH1 0x5 DUP2 ADD SLOAD PUSH1 0xA0 DUP6 ADD MSTORE PUSH1 0x6 DUP2 ADD SLOAD PUSH1 0xC0 DUP6 ADD MSTORE PUSH1 0x7 DUP2 ADD SLOAD PUSH1 0xE0 DUP6 ADD MSTORE ADD SLOAD AND ISZERO ISZERO PUSH2 0x100 DUP3 ADD MSTORE PUSH1 0x40 MLOAD SWAP2 DUP3 SWAP2 PUSH1 0x20 DUP4 MSTORE PUSH1 0x20 DUP4 ADD SWAP1 PUSH2 0x2DAC JUMP JUMPDEST SUB SWAP1 RETURN JUMPDEST POP CALLVALUE PUSH2 0x1BF JUMPI PUSH1 0x20 CALLDATASIZE PUSH1 0x3 NOT ADD SLT PUSH2 0x1BF JUMPI PUSH2 0x38A PUSH2 0x2B0C JUMP JUMPDEST PUSH2 0x392 PUSH2 0x3457 JUMP JUMPDEST PUSH1 0x1 PUSH1 0x1 PUSH1 0xA0 SHL SUB AND PUSH1 0x1 JUMPDEST PUSH1 0x10 SLOAD DUP2 LT ISZERO PUSH2 0x4A6 JUMPI DUP1 PUSH2 0x3B4 PUSH1 0x1 SWAP3 PUSH2 0x2B58 JUMP JUMPDEST SWAP1 SLOAD SWAP1 PUSH1 0x3 SHL SHR DUP4 DUP6 MSTORE PUSH1 0xD PUSH1 0x20 MSTORE PUSH1 0x40 DUP6 KECCAK256 DUP2 DUP7 MSTORE PUSH1 0x20 MSTORE PUSH1 0x40 DUP6 KECCAK256 PUSH1 0x8 DUP2 ADD SWAP1 DUP2 SLOAD SWAP1 PUSH1 0xFF DUP3 AND SWAP1 DUP2 PUSH2 0x498 JUMPI JUMPDEST POP PUSH2 0x3F3 JUMPI JUMPDEST POP POP POP ADD PUSH2 0x39E JUMP JUMPDEST PUSH1 0xFF NOT AND SWAP1 SSTORE DUP4 DUP6 MSTORE PUSH1 0xD PUSH1 0x20 MSTORE PUSH1 0x40 DUP6 KECCAK256 SWAP1 DUP6 MSTORE PUSH1 0x20 MSTORE DUP4 PUSH1 0x8 PUSH1 0x40 DUP3 KECCAK256 DUP3 DUP2 SSTORE DUP3 DUP6 DUP3 ADD SSTORE DUP3 PUSH1 0x2 DUP3 ADD SSTORE DUP3 PUSH1 0x3 DUP3 ADD PUSH2 0x42F DUP2 SLOAD PUSH2 0x2C80 JUMP JUMPDEST DUP1 PUSH2 0x458 JUMPI JUMPDEST POP POP PUSH1 0x4 DUP3 ADD SSTORE DUP3 PUSH1 0x5 DUP3 ADD SSTORE DUP3 PUSH1 0x6 DUP3 ADD SSTORE DUP3 PUSH1 0x7 DUP3 ADD SSTORE ADD SSTORE CODESIZE DUP1 DUP1 PUSH2 0x3EA JUMP JUMPDEST PUSH1 0x1F DUP2 GT DUP9 EQ PUSH2 0x46D JUMPI POP SSTORE JUMPDEST DUP3 CODESIZE DUP1 PUSH2 0x435 JUMP JUMPDEST DUP2 DUP4 MSTORE PUSH1 0x20 DUP4 KECCAK256 PUSH2 0x488 SWAP2 PUSH1 0x1F ADD PUSH1 0x5 SHR DUP2 ADD SWAP1 DUP10 ADD PUSH2 0x31BB JUMP JUMPDEST DUP1 DUP3 MSTORE DUP2 PUSH1 0x20 DUP2 KECCAK256 SWAP2 SSTORE SSTORE PUSH2 0x465 JUMP JUMPDEST PUSH1 0x7 SWAP2 POP ADD SLOAD TIMESTAMP GT CODESIZE PUSH2 0x3E4 JUMP JUMPDEST DUP3 PUSH1 0x1 DUP2 SSTORE DUP1 RETURN JUMPDEST POP CALLVALUE PUSH2 0x1BF JUMPI PUSH1 0x20 CALLDATASIZE PUSH1 0x3 NOT ADD SLT PUSH2 0x1BF JUMPI PUSH1 0x4 CALLDATALOAD PUSH2 0x4CB PUSH2 0x3457 JUMP JUMPDEST PUSH1 0x3 SLOAD PUSH1 0x40 MLOAD PUSH4 0x4122BBB3 PUSH1 0xE1 SHL DUP2 MSTORE PUSH1 0x4 DUP2 ADD DUP4 SWAP1 MSTORE CALLER PUSH1 0x24 DUP3 ADD MSTORE SWAP1 DUP4 SWAP1 DUP3 SWAP1 PUSH1 0x44 SWAP1 DUP3 SWAP1 PUSH1 0x1 PUSH1 0x1 PUSH1 0xA0 SHL SUB AND GAS STATICCALL SWAP1 DUP2 ISZERO PUSH2 0x741 JUMPI DUP4 SWAP2 PUSH2 0x698 JUMPI JUMPDEST POP DUP3 SWAP1 CALLER DUP5 MSTORE PUSH1 0xC PUSH1 0x20 MSTORE PUSH1 0x40 DUP5 KECCAK256 DUP4 DUP6 MSTORE PUSH1 0x20 MSTORE PUSH1 0x40 DUP5 KECCAK256 SLOAD ISZERO PUSH1 0x0 EQ PUSH2 0x676 JUMPI PUSH2 0x12C PUSH2 0x55C PUSH1 0xC0 PUSH2 0x53E DUP5 PUSH2 0x3295 JUMP JUMPDEST MLOAD ADD MLOAD JUMPDEST TIMESTAMP PUSH1 0xE0 PUSH2 0x54E DUP7 PUSH2 0x3295 JUMP JUMPDEST MLOAD ADD MLOAD TIMESTAMP GT PUSH2 0x662 JUMPI PUSH2 0x30FB JUMP JUMPDEST DIV SWAP4 DUP1 SWAP3 JUMPDEST DUP3 MLOAD DUP5 LT ISZERO PUSH2 0x596 JUMPI PUSH2 0x58E PUSH1 0x1 SWAP2 PUSH2 0x588 DUP9 PUSH1 0x60 PUSH2 0x580 DUP10 DUP10 PUSH2 0x32A2 JUMP JUMPDEST MLOAD ADD MLOAD PUSH2 0x30D2 JUMP JUMPDEST SWAP1 PUSH2 0x318A JUMP JUMPDEST SWAP4 ADD SWAP3 PUSH2 0x561 JUMP JUMPDEST DUP5 SWAP1 CALLER DUP4 MSTORE PUSH1 0xC PUSH1 0x20 MSTORE PUSH1 0x40 DUP4 KECCAK256 DUP3 DUP5 MSTORE PUSH1 0x20 MSTORE TIMESTAMP PUSH1 0x40 DUP5 KECCAK256 SSTORE DUP3 PUSH1 0x1 DUP1 PUSH1 0xA0 SHL SUB PUSH1 0x4 SLOAD AND DUP1 EXTCODESIZE ISZERO PUSH2 0x65E JUMPI PUSH1 0x40 MLOAD PUSH4 0x7104A76D PUSH1 0xE1 SHL DUP2 MSTORE CALLER PUSH1 0x4 DUP3 ADD MSTORE PUSH1 0x24 DUP2 ADD DUP5 SWAP1 MSTORE SWAP1 DUP3 SWAP1 DUP3 SWAP1 PUSH1 0x44 SWAP1 DUP3 SWAP1 DUP5 SWAP1 GAS CALL DUP1 ISZERO PUSH2 0x653 JUMPI PUSH2 0x63A JUMPI JUMPDEST POP POP PUSH2 0x604 DUP2 PUSH1 0x2 SLOAD PUSH2 0x30FB JUMP JUMPDEST PUSH1 0x2 SSTORE PUSH1 0x40 MLOAD SWAP1 DUP2 MSTORE PUSH32 0x408E6E0B73DAF4C873106E95FD067260FBFF8BF9D1B499CAD563D4480D45BAC PUSH1 0x20 CALLER SWAP3 LOG3 PUSH1 0x1 DUP2 SSTORE DUP1 RETURN JUMPDEST DUP2 PUSH2 0x644 SWAP2 PUSH2 0x2D8B JUMP JUMPDEST PUSH2 0x64F JUMPI DUP3 DUP5 PUSH2 0x5F6 JUMP JUMPDEST DUP3 DUP1 REVERT JUMPDEST PUSH1 0x40 MLOAD RETURNDATASIZE DUP5 DUP3 RETURNDATACOPY RETURNDATASIZE SWAP1 REVERT JUMPDEST POP DUP1 REVERT JUMPDEST POP PUSH1 0xE0 PUSH2 0x66E DUP6 PUSH2 0x3295 JUMP JUMPDEST MLOAD ADD MLOAD PUSH2 0x30FB JUMP JUMPDEST CALLER DUP5 MSTORE PUSH1 0xC PUSH1 0x20 MSTORE PUSH1 0x40 DUP5 KECCAK256 DUP4 DUP6 MSTORE PUSH1 0x20 MSTORE PUSH2 0x12C PUSH2 0x55C PUSH1 0x40 DUP7 KECCAK256 SLOAD PUSH2 0x542 JUMP JUMPDEST SWAP1 POP RETURNDATASIZE DUP1 DUP5 DUP4 RETURNDATACOPY PUSH2 0x6A9 DUP2 DUP4 PUSH2 0x2D8B JUMP JUMPDEST DUP2 ADD SWAP1 PUSH1 0x20 DUP2 DUP4 SUB SLT PUSH2 0x739 JUMPI DUP1 MLOAD SWAP1 PUSH1 0x1 PUSH1 0x1 PUSH1 0x40 SHL SUB DUP3 GT PUSH2 0x73D JUMPI ADD DUP2 PUSH1 0x1F DUP3 ADD SLT ISZERO PUSH2 0x739 JUMPI DUP1 MLOAD PUSH2 0x6DE DUP2 PUSH2 0x323A JUMP JUMPDEST SWAP3 PUSH2 0x6EC PUSH1 0x40 MLOAD SWAP5 DUP6 PUSH2 0x2D8B JUMP JUMPDEST DUP2 DUP5 MSTORE PUSH1 0x20 PUSH2 0x120 DUP2 DUP7 ADD SWAP4 MUL DUP5 ADD ADD SWAP3 DUP2 DUP5 GT PUSH2 0x735 JUMPI PUSH1 0x20 ADD SWAP2 JUMPDEST DUP4 DUP4 LT PUSH2 0x71A JUMPI POP POP POP POP CODESIZE PUSH2 0x50B JUMP JUMPDEST PUSH1 0x20 PUSH2 0x120 SWAP2 PUSH2 0x72A DUP5 DUP7 PUSH2 0x3108 JUMP JUMPDEST DUP2 MSTORE ADD SWAP3 ADD SWAP2 PUSH2 0x709 JUMP JUMPDEST DUP7 DUP1 REVERT JUMPDEST DUP4 DUP1 REVERT JUMPDEST DUP5 DUP1 REVERT JUMPDEST PUSH1 0x40 MLOAD RETURNDATASIZE DUP6 DUP3 RETURNDATACOPY RETURNDATASIZE SWAP1 REVERT JUMPDEST POP CALLVALUE PUSH2 0x1BF JUMPI PUSH1 0x40 CALLDATASIZE PUSH1 0x3 NOT ADD SLT PUSH2 0x1BF JUMPI PUSH1 0x40 SWAP1 PUSH1 0x1 PUSH1 0x1 PUSH1 0xA0 SHL SUB PUSH2 0x771 PUSH2 0x2B0C JUMP JUMPDEST AND DUP2 MSTORE PUSH1 0xD PUSH1 0x20 MSTORE DUP2 DUP2 KECCAK256 PUSH1 0x24 CALLDATALOAD DUP3 MSTORE PUSH1 0x20 MSTORE KECCAK256 PUSH1 0x1 DUP1 PUSH1 0xA0 SHL SUB DUP2 SLOAD AND PUSH1 0x1 DUP3 ADD SLOAD SWAP2 PUSH1 0xFF PUSH1 0x2 DUP3 ADD SLOAD AND PUSH1 0x40 MLOAD SWAP2 PUSH2 0x7B9 DUP4 PUSH2 0x7B2 DUP2 PUSH1 0x3 DUP6 ADD PUSH2 0x2CBA JUMP JUMPDEST SUB DUP5 PUSH2 0x2D8B JUMP JUMPDEST PUSH1 0x4 DUP2 ADD SLOAD SWAP3 PUSH1 0x5 DUP3 ADD SLOAD PUSH2 0x808 PUSH1 0x6 DUP5 ADD SLOAD SWAP3 PUSH2 0x7F5 PUSH1 0xFF PUSH1 0x8 PUSH1 0x7 DUP9 ADD SLOAD SWAP8 ADD SLOAD AND SWAP7 PUSH1 0x40 MLOAD SWAP11 DUP12 SWAP11 DUP12 MSTORE PUSH1 0x20 DUP12 ADD MSTORE PUSH1 0x40 DUP11 ADD SWAP1 PUSH2 0x2BBB JUMP JUMPDEST PUSH2 0x120 PUSH1 0x60 DUP10 ADD MSTORE PUSH2 0x120 DUP9 ADD SWAP1 PUSH2 0x2B96 JUMP JUMPDEST SWAP5 PUSH1 0x80 DUP8 ADD MSTORE PUSH1 0xA0 DUP7 ADD MSTORE PUSH1 0xC0 DUP6 ADD MSTORE PUSH1 0xE0 DUP5 ADD MSTORE ISZERO ISZERO PUSH2 0x100 DUP4 ADD MSTORE SUB SWAP1 RETURN JUMPDEST POP CALLVALUE PUSH2 0x1BF JUMPI DUP1 PUSH1 0x3 NOT CALLDATASIZE ADD SLT PUSH2 0x1BF JUMPI PUSH1 0x6 SLOAD PUSH1 0x40 MLOAD PUSH1 0x1 PUSH1 0x1 PUSH1 0xA0 SHL SUB SWAP1 SWAP2 AND DUP2 MSTORE PUSH1 0x20 SWAP1 RETURN JUMPDEST POP CALLVALUE PUSH2 0x1BF JUMPI DUP1 PUSH1 0x3 NOT CALLDATASIZE ADD SLT PUSH2 0x1BF JUMPI PUSH1 0x5 SLOAD PUSH1 0x40 MLOAD PUSH1 0x1 PUSH1 0x1 PUSH1 0xA0 SHL SUB SWAP1 SWAP2 AND DUP2 MSTORE PUSH1 0x20 SWAP1 RETURN JUMPDEST POP CALLVALUE PUSH2 0x1BF JUMPI PUSH2 0x88A CALLDATASIZE PUSH2 0x2E89 JUMP JUMPDEST PUSH2 0x89A SWAP9 SWAP8 SWAP4 SWAP5 SWAP7 SWAP6 SWAP3 SWAP9 PUSH2 0x3479 JUMP JUMPDEST PUSH1 0x3 SLOAD PUSH1 0x40 MLOAD PUSH4 0x7EB111F PUSH1 0xE4 SHL DUP2 MSTORE PUSH1 0x4 DUP2 ADD DUP4 SWAP1 MSTORE SWAP6 PUSH1 0x1 PUSH1 0x1 PUSH1 0xA0 SHL SUB SWAP1 SWAP2 AND SWAP3 SWAP1 DUP10 DUP8 PUSH1 0x24 DUP2 DUP8 GAS STATICCALL SWAP7 DUP8 ISZERO PUSH2 0x1006 JUMPI DUP11 SWAP8 PUSH2 0xFE2 JUMPI JUMPDEST POP SWAP7 SWAP10 PUSH1 0x20 DUP10 ADD SWAP8 SWAP1 DUP11 JUMPDEST DUP9 MLOAD DUP2 LT ISZERO PUSH2 0x966 JUMPI PUSH1 0x20 PUSH2 0x8F5 DUP3 DUP12 PUSH2 0x32A2 JUMP JUMPDEST MLOAD ADD MLOAD PUSH1 0x40 MLOAD PUSH2 0x926 PUSH1 0x20 DUP3 DUP2 PUSH2 0x915 DUP2 DUP4 ADD SWAP7 DUP8 DUP2 MLOAD SWAP4 DUP5 SWAP3 ADD PUSH2 0x2B73 JUMP JUMPDEST DUP2 ADD SUB ADD PUSH1 0x1F NOT DUP2 ADD DUP4 MSTORE DUP3 PUSH2 0x2D8B JUMP JUMPDEST MLOAD SWAP1 KECCAK256 DUP11 DUP13 PUSH2 0x947 PUSH1 0x20 PUSH1 0x40 MLOAD DUP1 SWAP4 PUSH2 0x915 DUP4 DUP4 ADD SWAP7 DUP8 SWAP3 MLOAD SWAP3 DUP4 SWAP2 PUSH2 0x2B73 JUMP JUMPDEST MLOAD SWAP1 KECCAK256 EQ PUSH2 0x957 JUMPI PUSH1 0x1 ADD PUSH2 0x8E0 JUMP JUMPDEST PUSH4 0x3480A503 PUSH1 0xE2 SHL DUP13 MSTORE PUSH1 0x4 DUP13 REVERT JUMPDEST POP DUP11 SWAP9 POP DUP10 SWAP7 SWAP8 POP DUP12 PUSH1 0x40 MLOAD PUSH4 0x68BCD8D PUSH1 0xE0 SHL DUP2 MSTORE DUP6 PUSH1 0x4 DUP3 ADD MSTORE DUP11 DUP2 PUSH1 0x24 DUP2 DUP11 GAS STATICCALL SWAP1 DUP2 ISZERO PUSH2 0xFD7 JUMPI DUP12 SWAP2 PUSH2 0xFB5 JUMPI JUMPDEST POP PUSH1 0x40 DUP2 ADD MLOAD PUSH1 0x3 DUP2 LT ISZERO PUSH2 0xFA1 JUMPI PUSH1 0x3 DUP10 LT ISZERO PUSH2 0xFA1 JUMPI DUP9 EQ DUP1 ISZERO SWAP1 PUSH2 0xF93 JUMPI JUMPDEST PUSH2 0xF84 JUMPI PUSH1 0xA0 ADD MLOAD PUSH8 0xDE0B6B3A7640000 DUP4 MUL DUP4 DUP2 DIV PUSH8 0xDE0B6B3A7640000 EQ DUP5 ISZERO OR ISZERO PUSH2 0xF70 JUMPI PUSH2 0x9FA DUP13 SWAP3 PUSH1 0x64 PUSH8 0xDE0B6B3A7640000 SWAP4 DIV SWAP1 PUSH2 0x30D2 JUMP JUMPDEST DIV SWAP7 DUP1 EXTCODESIZE ISZERO PUSH2 0x65E JUMPI DUP2 DUP1 SWAP2 PUSH1 0x44 PUSH1 0x40 MLOAD DUP1 SWAP5 DUP2 SWAP4 PUSH4 0xA4948D85 PUSH1 0xE0 SHL DUP4 MSTORE DUP13 PUSH1 0x4 DUP5 ADD MSTORE DUP10 PUSH1 0x24 DUP5 ADD MSTORE GAS CALL DUP1 ISZERO PUSH2 0x653 JUMPI PUSH2 0xF57 JUMPI JUMPDEST POP POP PUSH2 0xA3F PUSH1 0xF SLOAD PUSH2 0x322B JUMP JUMPDEST PUSH1 0xF SSTORE PUSH1 0x40 MLOAD SWAP6 PUSH2 0xA4F DUP8 PUSH2 0x2D6F JUMP JUMPDEST DUP10 DUP8 MSTORE PUSH1 0x20 DUP8 ADD SWAP5 DUP10 DUP7 MSTORE PUSH1 0x40 DUP9 ADD SWAP4 PUSH2 0xA69 DUP11 DUP7 PUSH2 0x3197 JUMP JUMPDEST PUSH1 0x60 DUP10 ADD SWAP6 DUP7 MSTORE PUSH1 0x80 DUP10 ADD MSTORE PUSH1 0xA0 DUP9 ADD MSTORE DUP1 PUSH1 0xC0 DUP9 ADD MSTORE DUP11 PUSH1 0xE0 DUP9 ADD MSTORE PUSH2 0x100 DUP8 ADD MSTORE DUP5 PUSH2 0x120 DUP8 ADD MSTORE PUSH2 0x140 DUP7 ADD MSTORE DUP8 DUP10 MSTORE PUSH1 0xE PUSH1 0x20 MSTORE PUSH1 0x40 DUP10 KECCAK256 SWAP3 DUP6 MLOAD DUP5 SSTORE MLOAD DUP1 MLOAD SWAP1 PUSH1 0x1 PUSH1 0x1 PUSH1 0x40 SHL SUB DUP3 GT PUSH2 0xF43 JUMPI PUSH2 0xAC9 PUSH1 0x1 DUP7 ADD SLOAD PUSH2 0x2C80 JUMP JUMPDEST PUSH1 0x1F DUP2 GT PUSH2 0xF10 JUMPI JUMPDEST POP PUSH1 0x20 SWAP1 PUSH1 0x1F DUP4 GT PUSH1 0x1 EQ PUSH2 0xEA7 JUMPI PUSH2 0xB03 SWAP3 SWAP2 DUP13 SWAP2 DUP4 PUSH2 0xE9C JUMPI JUMPDEST POP POP DUP2 PUSH1 0x1 SHL SWAP2 PUSH1 0x0 NOT SWAP1 PUSH1 0x3 SHL SHR NOT AND OR SWAP1 JUMP JUMPDEST PUSH1 0x1 DUP5 ADD SSTORE JUMPDEST MLOAD PUSH1 0x3 DUP2 LT ISZERO PUSH2 0xE88 JUMPI PUSH2 0xB20 SWAP1 PUSH1 0x2 DUP5 ADD PUSH2 0x31A3 JUMP JUMPDEST MLOAD DUP1 MLOAD SWAP1 PUSH1 0x1 PUSH1 0x1 PUSH1 0x40 SHL SUB DUP3 GT PUSH2 0xDCA JUMPI PUSH2 0xB3F PUSH1 0x3 DUP5 ADD SLOAD PUSH2 0x2C80 JUMP JUMPDEST PUSH1 0x1F DUP2 GT PUSH2 0xE55 JUMPI JUMPDEST POP PUSH1 0x20 SWAP1 PUSH1 0x1F DUP4 GT PUSH1 0x1 EQ PUSH2 0xDE9 JUMPI SWAP2 DUP1 PUSH2 0xB7C SWAP3 PUSH1 0xA SWAP6 SWAP5 DUP13 SWAP3 PUSH2 0xDDE JUMPI POP POP DUP2 PUSH1 0x1 SHL SWAP2 PUSH1 0x0 NOT SWAP1 PUSH1 0x3 SHL SHR NOT AND OR SWAP1 JUMP JUMPDEST PUSH1 0x3 DUP3 ADD SSTORE JUMPDEST PUSH1 0x80 DUP5 ADD MLOAD PUSH1 0x4 DUP3 ADD SSTORE PUSH1 0xA0 DUP5 ADD MLOAD PUSH1 0x5 DUP3 ADD SSTORE PUSH1 0xC0 DUP5 ADD MLOAD PUSH1 0x6 DUP3 ADD SSTORE PUSH1 0xE0 DUP5 ADD MLOAD PUSH1 0x7 DUP3 ADD SSTORE PUSH2 0x100 DUP5 ADD MLOAD PUSH1 0x8 DUP3 ADD SSTORE PUSH2 0x120 DUP5 ADD MLOAD PUSH1 0x9 DUP3 ADD SSTORE ADD PUSH2 0x140 DUP4 ADD MLOAD DUP1 MLOAD SWAP1 PUSH1 0x1 PUSH1 0x1 PUSH1 0x40 SHL SUB DUP3 GT PUSH2 0xDCA JUMPI PUSH2 0xBE2 DUP4 SLOAD PUSH2 0x2C80 JUMP JUMPDEST PUSH1 0x1F DUP2 GT PUSH2 0xD8F JUMPI JUMPDEST POP PUSH1 0x20 SWAP1 PUSH1 0x1F DUP4 GT PUSH1 0x1 EQ PUSH2 0xD2C JUMPI PUSH2 0xC1B SWAP3 SWAP2 DUP11 SWAP2 DUP4 PUSH2 0xD21 JUMPI POP POP DUP2 PUSH1 0x1 SHL SWAP2 PUSH1 0x0 NOT SWAP1 PUSH1 0x3 SHL SHR NOT AND OR SWAP1 JUMP JUMPDEST SWAP1 SSTORE JUMPDEST PUSH1 0x10 SLOAD PUSH1 0x1 PUSH1 0x40 SHL DUP2 LT ISZERO PUSH2 0xD0D JUMPI SWAP1 PUSH2 0xC40 DUP3 PUSH1 0x1 DUP10 SWAP6 SWAP5 ADD PUSH1 0x10 SSTORE PUSH2 0x2B58 JUMP JUMPDEST DUP2 SLOAD PUSH1 0x3 SWAP2 DUP3 SHL DUP10 DUP2 SHL PUSH1 0x0 NOT SWAP1 SWAP2 SHL NOT SWAP1 SWAP2 AND OR SWAP1 SWAP2 SSTORE SLOAD PUSH1 0x1 PUSH1 0x1 PUSH1 0xA0 SHL SUB AND SWAP2 DUP3 EXTCODESIZE ISZERO PUSH2 0x739 JUMPI PUSH2 0xC9A SWAP3 DUP5 SWAP3 DUP4 PUSH1 0x40 MLOAD DUP1 SWAP7 DUP2 SWAP6 DUP3 SWAP5 PUSH4 0x31EAA61D PUSH1 0xE2 SHL DUP5 MSTORE PUSH1 0x4 DUP5 ADD MSTORE PUSH1 0x40 PUSH1 0x24 DUP5 ADD MSTORE PUSH1 0x44 DUP4 ADD SWAP1 PUSH2 0x2BDE JUMP JUMPDEST SUB SWAP3 GAS CALL DUP1 ISZERO PUSH2 0x653 JUMPI PUSH2 0xCF8 JUMPI JUMPDEST POP SWAP2 DUP4 PUSH32 0x5928D65CC6AE9F07A7673F1A5A2F98D81F1BB0C2BC53BCAA33D6F11CF426F25E SWAP4 MSTORE PUSH1 0xA PUSH1 0x20 MSTORE PUSH1 0x40 DUP6 KECCAK256 PUSH1 0x1 PUSH1 0xFF NOT DUP3 SLOAD AND OR SWAP1 SSTORE PUSH2 0xCF2 PUSH1 0x40 MLOAD SWAP3 DUP4 SWAP3 DUP4 PUSH2 0x3434 JUMP JUMPDEST SUB SWAP1 LOG2 DUP1 RETURN JUMPDEST DUP2 PUSH2 0xD02 SWAP2 PUSH2 0x2D8B JUMP JUMPDEST PUSH2 0x739 JUMPI DUP4 DUP6 PUSH2 0xCA9 JUMP JUMPDEST PUSH4 0x4E487B71 PUSH1 0xE0 SHL DUP8 MSTORE PUSH1 0x41 PUSH1 0x4 MSTORE PUSH1 0x24 DUP8 REVERT JUMPDEST ADD MLOAD SWAP1 POP DUP11 DUP1 PUSH2 0xAEE JUMP JUMPDEST DUP4 DUP11 MSTORE DUP2 DUP11 KECCAK256 SWAP2 SWAP1 PUSH1 0x1F NOT DUP5 AND DUP12 JUMPDEST DUP2 DUP2 LT PUSH2 0xD77 JUMPI POP SWAP1 DUP5 PUSH1 0x1 SWAP6 SWAP5 SWAP4 SWAP3 LT PUSH2 0xD5E JUMPI JUMPDEST POP POP POP DUP2 SHL ADD SWAP1 SSTORE PUSH2 0xC1E JUMP JUMPDEST ADD MLOAD PUSH1 0x0 NOT PUSH1 0xF8 DUP5 PUSH1 0x3 SHL AND SHR NOT AND SWAP1 SSTORE DUP10 DUP1 DUP1 PUSH2 0xD51 JUMP JUMPDEST SWAP3 SWAP4 PUSH1 0x20 PUSH1 0x1 DUP2 SWAP3 DUP8 DUP7 ADD MLOAD DUP2 SSTORE ADD SWAP6 ADD SWAP4 ADD PUSH2 0xD3B JUMP JUMPDEST PUSH2 0xDBA SWAP1 DUP5 DUP12 MSTORE PUSH1 0x20 DUP12 KECCAK256 PUSH1 0x1F DUP6 ADD PUSH1 0x5 SHR DUP2 ADD SWAP2 PUSH1 0x20 DUP7 LT PUSH2 0xDC0 JUMPI JUMPDEST PUSH1 0x1F ADD PUSH1 0x5 SHR ADD SWAP1 PUSH2 0x31BB JUMP JUMPDEST DUP10 PUSH2 0xBEB JUMP JUMPDEST SWAP1 SWAP2 POP DUP2 SWAP1 PUSH2 0xDAD JUMP JUMPDEST PUSH4 0x4E487B71 PUSH1 0xE0 SHL DUP10 MSTORE PUSH1 0x41 PUSH1 0x4 MSTORE PUSH1 0x24 DUP10 REVERT JUMPDEST ADD MLOAD SWAP1 POP DUP12 DUP1 PUSH2 0xAEE JUMP JUMPDEST PUSH1 0x3 DUP5 ADD DUP11 MSTORE DUP2 DUP11 KECCAK256 SWAP2 SWAP1 PUSH1 0x1F NOT DUP5 AND DUP12 JUMPDEST DUP2 DUP2 LT PUSH2 0xE3D JUMPI POP SWAP2 PUSH1 0x1 SWAP4 SWAP2 DUP6 PUSH1 0xA SWAP8 SWAP7 SWAP5 LT PUSH2 0xE24 JUMPI JUMPDEST POP POP POP DUP2 SHL ADD PUSH1 0x3 DUP3 ADD SSTORE PUSH2 0xB82 JUMP JUMPDEST ADD MLOAD PUSH1 0x0 NOT PUSH1 0xF8 DUP5 PUSH1 0x3 SHL AND SHR NOT AND SWAP1 SSTORE DUP11 DUP1 DUP1 PUSH2 0xE14 JUMP JUMPDEST SWAP3 SWAP4 PUSH1 0x20 PUSH1 0x1 DUP2 SWAP3 DUP8 DUP7 ADD MLOAD DUP2 SSTORE ADD SWAP6 ADD SWAP4 ADD PUSH2 0xDFB JUMP JUMPDEST PUSH2 0xE82 SWAP1 PUSH1 0x3 DUP6 ADD DUP12 MSTORE PUSH1 0x20 DUP12 KECCAK256 PUSH1 0x1F DUP6 ADD PUSH1 0x5 SHR DUP2 ADD SWAP2 PUSH1 0x20 DUP7 LT PUSH2 0xDC0 JUMPI PUSH1 0x1F ADD PUSH1 0x5 SHR ADD SWAP1 PUSH2 0x31BB JUMP JUMPDEST DUP10 PUSH2 0xB48 JUMP JUMPDEST PUSH4 0x4E487B71 PUSH1 0xE0 SHL DUP10 MSTORE PUSH1 0x21 PUSH1 0x4 MSTORE PUSH1 0x24 DUP10 REVERT JUMPDEST ADD MLOAD SWAP1 POP DUP13 DUP1 PUSH2 0xAEE JUMP JUMPDEST PUSH1 0x1 DUP7 ADD DUP13 MSTORE DUP2 DUP13 KECCAK256 SWAP2 SWAP1 PUSH1 0x1F NOT DUP5 AND DUP14 JUMPDEST DUP2 DUP2 LT PUSH2 0xEF8 JUMPI POP SWAP1 DUP5 PUSH1 0x1 SWAP6 SWAP5 SWAP4 SWAP3 LT PUSH2 0xEDF JUMPI JUMPDEST POP POP POP DUP2 SHL ADD PUSH1 0x1 DUP5 ADD SSTORE PUSH2 0xB09 JUMP JUMPDEST ADD MLOAD PUSH1 0x0 NOT PUSH1 0xF8 DUP5 PUSH1 0x3 SHL AND SHR NOT AND SWAP1 SSTORE DUP12 DUP1 DUP1 PUSH2 0xECF JUMP JUMPDEST SWAP3 SWAP4 PUSH1 0x20 PUSH1 0x1 DUP2 SWAP3 DUP8 DUP7 ADD MLOAD DUP2 SSTORE ADD SWAP6 ADD SWAP4 ADD PUSH2 0xEB9 JUMP JUMPDEST PUSH2 0xF3D SWAP1 PUSH1 0x1 DUP8 ADD DUP14 MSTORE PUSH1 0x20 DUP14 KECCAK256 PUSH1 0x1F DUP6 ADD PUSH1 0x5 SHR DUP2 ADD SWAP2 PUSH1 0x20 DUP7 LT PUSH2 0xDC0 JUMPI PUSH1 0x1F ADD PUSH1 0x5 SHR ADD SWAP1 PUSH2 0x31BB JUMP JUMPDEST DUP12 PUSH2 0xAD2 JUMP JUMPDEST PUSH4 0x4E487B71 PUSH1 0xE0 SHL DUP12 MSTORE PUSH1 0x41 PUSH1 0x4 MSTORE PUSH1 0x24 DUP12 REVERT JUMPDEST DUP2 PUSH2 0xF61 SWAP2 PUSH2 0x2D8B JUMP JUMPDEST PUSH2 0xF6C JUMPI DUP10 DUP12 PUSH2 0xA32 JUMP JUMPDEST DUP10 DUP1 REVERT JUMPDEST PUSH4 0x4E487B71 PUSH1 0xE0 SHL DUP13 MSTORE PUSH1 0x11 PUSH1 0x4 MSTORE PUSH1 0x24 DUP13 REVERT JUMPDEST PUSH4 0x69E489F5 PUSH1 0xE1 SHL DUP12 MSTORE PUSH1 0x4 DUP12 REVERT JUMPDEST POP PUSH2 0x140 DUP2 ADD MLOAD DUP4 GT PUSH2 0x9BA JUMP JUMPDEST PUSH4 0x4E487B71 PUSH1 0xE0 SHL DUP13 MSTORE PUSH1 0x21 PUSH1 0x4 MSTORE PUSH1 0x24 DUP13 REVERT JUMPDEST PUSH2 0xFD1 SWAP2 POP RETURNDATASIZE DUP1 DUP14 DUP4 RETURNDATACOPY PUSH2 0xFC9 DUP2 DUP4 PUSH2 0x2D8B JUMP JUMPDEST DUP2 ADD SWAP1 PUSH2 0x2FA5 JUMP JUMPDEST DUP12 PUSH2 0x998 JUMP JUMPDEST PUSH1 0x40 MLOAD RETURNDATASIZE DUP14 DUP3 RETURNDATACOPY RETURNDATASIZE SWAP1 REVERT JUMPDEST PUSH2 0xFFF SWAP2 SWAP8 POP RETURNDATASIZE DUP1 DUP13 DUP4 RETURNDATACOPY PUSH2 0xFF7 DUP2 DUP4 PUSH2 0x2D8B JUMP JUMPDEST DUP2 ADD SWAP1 PUSH2 0x32B6 JUMP JUMPDEST SWAP6 CODESIZE PUSH2 0x8D5 JUMP JUMPDEST PUSH1 0x40 MLOAD RETURNDATASIZE DUP13 DUP3 RETURNDATACOPY RETURNDATASIZE SWAP1 REVERT JUMPDEST POP CALLVALUE PUSH2 0x1BF JUMPI PUSH1 0x20 CALLDATASIZE PUSH1 0x3 NOT ADD SLT PUSH2 0x1BF JUMPI PUSH1 0x20 SWAP1 PUSH1 0x40 SWAP1 PUSH1 0x1 PUSH1 0x1 PUSH1 0xA0 SHL SUB PUSH2 0x1039 PUSH2 0x2B0C JUMP JUMPDEST AND DUP2 MSTORE PUSH1 0x9 DUP4 MSTORE KECCAK256 SLOAD PUSH1 0x40 MLOAD SWAP1 DUP2 MSTORE RETURN JUMPDEST POP CALLVALUE PUSH2 0x1BF JUMPI DUP1 PUSH1 0x3 NOT CALLDATASIZE ADD SLT PUSH2 0x1BF JUMPI DUP1 DUP2 PUSH1 0x10 SLOAD SWAP1 JUMPDEST DUP2 DUP2 LT PUSH2 0x1236 JUMPI POP PUSH2 0x1073 DUP3 PUSH2 0x323A JUMP JUMPDEST SWAP2 PUSH2 0x1081 PUSH1 0x40 MLOAD SWAP4 DUP5 PUSH2 0x2D8B JUMP JUMPDEST DUP1 DUP4 MSTORE PUSH2 0x1090 PUSH1 0x1F NOT SWAP2 PUSH2 0x323A JUMP JUMPDEST ADD DUP4 JUMPDEST DUP2 DUP2 LT PUSH2 0x121F JUMPI POP POP DUP3 DUP4 JUMPDEST DUP3 DUP2 LT PUSH2 0x110D JUMPI DUP4 DUP6 PUSH1 0x40 MLOAD SWAP2 DUP3 SWAP2 PUSH1 0x20 DUP4 ADD PUSH1 0x20 DUP5 MSTORE DUP3 MLOAD DUP1 SWAP2 MSTORE PUSH1 0x40 DUP5 ADD PUSH1 0x20 PUSH1 0x40 DUP4 PUSH1 0x5 SHL DUP8 ADD ADD SWAP5 ADD SWAP3 SWAP1 JUMPDEST DUP3 DUP3 LT PUSH2 0x10DE JUMPI POP POP POP POP SUB SWAP1 RETURN JUMPDEST SWAP2 SWAP4 PUSH1 0x1 SWAP2 SWAP4 SWAP6 POP PUSH1 0x20 PUSH2 0x10FD DUP2 SWAP3 PUSH1 0x3F NOT DUP11 DUP3 SUB ADD DUP7 MSTORE DUP9 MLOAD PUSH2 0x2BDE JUMP JUMPDEST SWAP7 ADD SWAP3 ADD SWAP3 ADD DUP6 SWAP5 SWAP4 SWAP2 SWAP3 PUSH2 0x10CF JUMP JUMPDEST PUSH2 0x1116 DUP2 PUSH2 0x2B58 JUMP JUMPDEST SWAP1 SLOAD SWAP1 PUSH1 0x3 SHL SHR DUP1 DUP7 MSTORE PUSH1 0xA PUSH1 0x20 MSTORE PUSH1 0xFF PUSH1 0x40 DUP8 KECCAK256 SLOAD AND PUSH2 0x113B JUMPI JUMPDEST POP PUSH1 0x1 ADD PUSH2 0x109F JUMP JUMPDEST PUSH1 0x1 SWAP2 SWAP3 PUSH2 0x1218 SWAP2 DUP8 MSTORE PUSH1 0xE PUSH1 0x20 MSTORE PUSH1 0x40 DUP8 KECCAK256 PUSH1 0xA PUSH2 0x11F7 PUSH1 0x40 MLOAD SWAP3 PUSH2 0x1160 DUP5 PUSH2 0x2D6F JUMP JUMPDEST DUP1 SLOAD DUP5 MSTORE PUSH1 0x40 MLOAD PUSH2 0x1177 DUP2 PUSH2 0x319 DUP2 DUP12 DUP7 ADD PUSH2 0x2CBA JUMP JUMPDEST PUSH1 0x20 DUP6 ADD MSTORE PUSH2 0x1190 PUSH1 0xFF PUSH1 0x2 DUP4 ADD SLOAD AND PUSH1 0x40 DUP7 ADD PUSH2 0x3197 JUMP JUMPDEST PUSH1 0x40 MLOAD PUSH2 0x11A4 DUP2 PUSH2 0x319 DUP2 PUSH1 0x3 DUP7 ADD PUSH2 0x2CBA JUMP JUMPDEST PUSH1 0x60 DUP6 ADD MSTORE PUSH1 0x4 DUP2 ADD SLOAD PUSH1 0x80 DUP6 ADD MSTORE PUSH1 0x5 DUP2 ADD SLOAD PUSH1 0xA0 DUP6 ADD MSTORE PUSH1 0x6 DUP2 ADD SLOAD PUSH1 0xC0 DUP6 ADD MSTORE PUSH1 0x7 DUP2 ADD SLOAD PUSH1 0xE0 DUP6 ADD MSTORE PUSH1 0x8 DUP2 ADD SLOAD PUSH2 0x100 DUP6 ADD MSTORE PUSH1 0x9 DUP2 ADD SLOAD PUSH2 0x120 DUP6 ADD MSTORE PUSH2 0x319 PUSH1 0x40 MLOAD DUP1 SWAP5 DUP2 SWAP4 ADD PUSH2 0x2CBA JUMP JUMPDEST PUSH2 0x140 DUP3 ADD MSTORE PUSH2 0x1207 DUP3 DUP9 PUSH2 0x32A2 JUMP JUMPDEST MSTORE PUSH2 0x1212 DUP2 DUP8 PUSH2 0x32A2 JUMP JUMPDEST POP PUSH2 0x322B JUMP JUMPDEST SWAP2 SWAP1 PUSH2 0x1132 JUMP JUMPDEST PUSH1 0x20 SWAP1 PUSH2 0x122A PUSH2 0x31D2 JUMP JUMPDEST DUP3 DUP3 DUP8 ADD ADD MSTORE ADD PUSH2 0x1093 JUMP JUMPDEST PUSH2 0x123F DUP2 PUSH2 0x2B58 JUMP JUMPDEST SWAP1 SLOAD SWAP1 PUSH1 0x3 SHL SHR DUP5 MSTORE PUSH1 0xA PUSH1 0x20 MSTORE PUSH1 0xFF PUSH1 0x40 DUP6 KECCAK256 SLOAD AND PUSH2 0x1262 JUMPI JUMPDEST PUSH1 0x1 ADD PUSH2 0x1062 JUMP JUMPDEST SWAP2 PUSH2 0x126E PUSH1 0x1 SWAP2 PUSH2 0x322B JUMP JUMPDEST SWAP3 SWAP1 POP PUSH2 0x125A JUMP JUMPDEST POP CALLVALUE PUSH2 0x1BF JUMPI PUSH1 0x24 PUSH2 0x1287 CALLDATASIZE PUSH2 0x2E89 JUMP JUMPDEST PUSH2 0x129A SWAP10 SWAP8 SWAP7 SWAP6 SWAP3 SWAP10 SWAP9 SWAP2 SWAP5 SWAP4 SWAP9 PUSH2 0x3479 JUMP JUMPDEST PUSH1 0x1 DUP1 PUSH1 0xA0 SHL SUB PUSH1 0x3 SLOAD AND SWAP10 DUP9 DUP12 PUSH1 0x40 MLOAD SWAP5 DUP6 DUP1 SWAP3 PUSH4 0x68BCD8D PUSH1 0xE0 SHL DUP3 MSTORE DUP7 PUSH1 0x4 DUP4 ADD MSTORE GAS STATICCALL SWAP3 DUP4 ISZERO PUSH2 0x1A4E JUMPI DUP10 SWAP4 PUSH2 0x1A32 JUMPI JUMPDEST POP PUSH1 0x40 DUP4 ADD MLOAD PUSH1 0x3 DUP2 LT ISZERO PUSH2 0x1A1E JUMPI PUSH1 0x3 DUP6 LT ISZERO PUSH2 0x1A1E JUMPI DUP5 EQ DUP1 ISZERO SWAP1 PUSH2 0x1A10 JUMPI JUMPDEST PUSH2 0x1A01 JUMPI DUP8 DUP10 MSTORE PUSH1 0xE PUSH1 0x20 MSTORE PUSH1 0xA0 PUSH1 0x40 DUP11 KECCAK256 SWAP4 ADD MLOAD PUSH8 0xDE0B6B3A7640000 DUP3 MUL DUP3 DUP2 DIV PUSH8 0xDE0B6B3A7640000 EQ DUP4 ISZERO OR ISZERO PUSH2 0x19ED JUMPI PUSH8 0xDE0B6B3A7640000 SWAP2 PUSH1 0x64 PUSH2 0x133D SWAP3 DIV SWAP1 PUSH2 0x30D2 JUMP JUMPDEST DIV SWAP1 DUP2 PUSH1 0x7 DUP6 ADD SLOAD GT PUSH2 0x19DE JUMPI DUP10 PUSH1 0x24 SWAP11 SWAP12 SWAP13 PUSH1 0x40 MLOAD SWAP12 DUP13 DUP1 SWAP3 PUSH4 0x7EB111F PUSH1 0xE4 SHL DUP3 MSTORE DUP8 PUSH1 0x4 DUP4 ADD MSTORE GAS STATICCALL SWAP10 DUP11 ISZERO PUSH2 0xFD7 JUMPI DUP12 SWAP11 PUSH2 0x19C2 JUMPI JUMPDEST POP SWAP6 SWAP11 PUSH1 0x20 DUP9 ADD SWAP7 SWAP1 DUP12 JUMPDEST DUP12 MLOAD DUP2 LT ISZERO PUSH2 0x141C JUMPI DUP12 DUP12 DUP3 DUP13 DUP13 PUSH1 0x20 PUSH2 0x139C DUP5 DUP8 PUSH2 0x32A2 JUMP JUMPDEST MLOAD ADD MLOAD PUSH1 0x40 MLOAD PUSH2 0x13BC PUSH1 0x20 DUP3 DUP2 PUSH2 0x915 DUP2 DUP4 ADD SWAP7 DUP8 DUP2 MLOAD SWAP4 DUP5 SWAP3 ADD PUSH2 0x2B73 JUMP JUMPDEST MLOAD SWAP1 KECCAK256 SWAP2 PUSH2 0x13DC PUSH1 0x20 PUSH1 0x40 MLOAD DUP1 SWAP4 PUSH2 0x915 DUP4 DUP4 ADD SWAP7 DUP8 SWAP3 MLOAD SWAP3 DUP4 SWAP2 PUSH2 0x2B73 JUMP JUMPDEST MLOAD SWAP1 KECCAK256 EQ SWAP3 DUP4 PUSH2 0x1405 JUMPI JUMPDEST POP POP POP PUSH2 0x13F6 JUMPI PUSH1 0x1 ADD PUSH2 0x1382 JUMP JUMPDEST PUSH4 0x3480A503 PUSH1 0xE2 SHL DUP14 MSTORE PUSH1 0x4 DUP14 REVERT JUMPDEST PUSH2 0x1410 SWAP3 SWAP4 POP PUSH2 0x32A2 JUMP JUMPDEST MLOAD MLOAD EQ ISZERO DUP12 DUP3 DUP15 PUSH2 0x13E7 JUMP JUMPDEST POP DUP12 SWAP9 SWAP7 SWAP10 SWAP8 POP DUP13 PUSH1 0x4 DUP7 ADD SLOAD SWAP2 DUP9 MLOAD PUSH1 0x1 PUSH1 0x1 PUSH1 0x40 SHL SUB DUP2 GT PUSH2 0x1906 JUMPI DUP12 PUSH2 0x1448 PUSH1 0x1 DUP11 ADD SLOAD PUSH2 0x2C80 JUMP JUMPDEST PUSH1 0x1F DUP2 GT PUSH2 0x198F JUMPI JUMPDEST POP POP PUSH1 0x20 DUP13 PUSH1 0x1F DUP4 GT PUSH1 0x1 EQ PUSH2 0x1925 JUMPI PUSH2 0x1480 SWAP3 SWAP2 DUP3 PUSH2 0x191A JUMPI JUMPDEST POP DUP2 PUSH1 0x1 SHL SWAP2 PUSH1 0x0 NOT SWAP1 PUSH1 0x3 SHL SHR NOT AND OR SWAP1 JUMP JUMPDEST PUSH1 0x1 DUP9 ADD SSTORE JUMPDEST DUP1 MLOAD PUSH1 0x1 PUSH1 0x1 PUSH1 0x40 SHL SUB DUP2 GT PUSH2 0x1906 JUMPI DUP12 PUSH2 0x14A4 PUSH1 0x3 DUP11 ADD SLOAD PUSH2 0x2C80 JUMP JUMPDEST PUSH1 0x1F DUP2 GT PUSH2 0x18D3 JUMPI JUMPDEST POP POP PUSH1 0x20 SWAP2 DUP13 PUSH1 0x1F DUP4 GT PUSH1 0x1 EQ PUSH2 0x1865 JUMPI PUSH2 0x14DE SWAP4 SWAP1 SWAP2 DUP4 PUSH2 0x185A JUMPI POP POP DUP2 PUSH1 0x1 SHL SWAP2 PUSH1 0x0 NOT SWAP1 PUSH1 0x3 SHL SHR NOT AND OR SWAP1 JUMP JUMPDEST PUSH1 0x3 DUP8 ADD SSTORE JUMPDEST DUP3 PUSH1 0x4 DUP8 ADD SSTORE PUSH1 0x5 DUP7 ADD SSTORE DUP10 MLOAD PUSH1 0x1 PUSH1 0x1 PUSH1 0x40 SHL SUB DUP2 GT PUSH2 0x1846 JUMPI PUSH2 0x150C PUSH1 0xA DUP8 ADD SLOAD PUSH2 0x2C80 JUMP JUMPDEST PUSH1 0x1F DUP2 GT PUSH2 0x1813 JUMPI JUMPDEST POP PUSH1 0x20 PUSH1 0x1F DUP3 GT PUSH1 0x1 EQ PUSH2 0x17A2 JUMPI SWAP1 DUP1 PUSH2 0x154A SWAP3 DUP13 SWAP14 DUP14 SWAP11 SWAP12 SWAP13 SWAP14 SWAP3 PUSH2 0x1797 JUMPI POP POP DUP2 PUSH1 0x1 SHL SWAP2 PUSH1 0x0 NOT SWAP1 PUSH1 0x3 SHL SHR NOT AND OR SWAP1 JUMP JUMPDEST PUSH1 0xA DUP7 ADD SSTORE JUMPDEST PUSH1 0x6 DUP6 ADD SWAP2 DUP4 DUP4 SSTORE PUSH2 0x156E PUSH1 0x9 DUP8 ADD SWAP5 DUP7 DUP7 SSTORE PUSH1 0x7 DUP9 ADD SLOAD SWAP1 PUSH2 0x30FB JUMP JUMPDEST PUSH1 0x8 DUP8 ADD SWAP1 DUP2 SSTORE SWAP2 DUP2 DUP2 GT ISZERO PUSH2 0x1723 JUMPI SWAP1 PUSH2 0x1588 SWAP2 PUSH2 0x30FB JUMP JUMPDEST PUSH1 0x3 SLOAD PUSH1 0x1 PUSH1 0x1 PUSH1 0xA0 SHL SUB AND SWAP1 DUP2 EXTCODESIZE ISZERO PUSH2 0x171F JUMPI DUP8 SWAP2 PUSH1 0x44 DUP4 SWAP3 PUSH1 0x40 MLOAD SWAP5 DUP6 SWAP4 DUP5 SWAP3 PUSH4 0x9FD36B15 PUSH1 0xE0 SHL DUP5 MSTORE DUP12 PUSH1 0x4 DUP6 ADD MSTORE PUSH1 0x24 DUP5 ADD MSTORE GAS CALL SWAP1 DUP2 ISZERO PUSH2 0x1714 JUMPI DUP8 SWAP2 PUSH2 0x16FB JUMPI JUMPDEST POP POP JUMPDEST PUSH1 0x3 SLOAD PUSH1 0x1 PUSH1 0x1 PUSH1 0xA0 SHL SUB AND SWAP2 DUP3 EXTCODESIZE ISZERO PUSH2 0x735 JUMPI DUP7 SWAP5 PUSH2 0x16A4 DUP7 SWAP3 PUSH1 0xA PUSH1 0x40 MLOAD SWAP10 DUP11 SWAP9 DUP10 SWAP8 DUP9 SWAP7 PUSH4 0xA14764D PUSH1 0xE4 SHL DUP9 MSTORE PUSH1 0x4 DUP9 ADD MSTORE PUSH1 0x40 PUSH1 0x24 DUP9 ADD MSTORE DUP3 SLOAD PUSH1 0x44 DUP9 ADD MSTORE PUSH2 0x160 PUSH1 0x64 DUP9 ADD MSTORE PUSH2 0x165C PUSH2 0x1632 PUSH2 0x1A4 DUP10 ADD PUSH1 0x1 DUP7 ADD PUSH2 0x2CBA JUMP JUMPDEST PUSH2 0x1647 PUSH1 0xFF PUSH1 0x2 DUP8 ADD SLOAD AND PUSH1 0x84 DUP12 ADD SWAP1 PUSH2 0x2BBB JUMP JUMPDEST DUP9 DUP2 SUB PUSH1 0x43 NOT ADD PUSH1 0xA4 DUP11 ADD MSTORE PUSH1 0x3 DUP6 ADD PUSH2 0x2CBA JUMP JUMPDEST PUSH1 0x4 DUP5 ADD SLOAD PUSH1 0xC4 DUP10 ADD MSTORE PUSH1 0x5 DUP5 ADD SLOAD PUSH1 0xE4 DUP10 ADD MSTORE SWAP5 SLOAD PUSH2 0x104 DUP9 ADD MSTORE PUSH1 0x7 DUP4 ADD SLOAD PUSH2 0x124 DUP9 ADD MSTORE SLOAD PUSH2 0x144 DUP8 ADD MSTORE SLOAD PUSH2 0x164 DUP7 ADD MSTORE DUP5 DUP4 SUB PUSH1 0x43 NOT ADD PUSH2 0x184 DUP7 ADD MSTORE ADD PUSH2 0x2CBA JUMP JUMPDEST SUB SWAP3 GAS CALL DUP1 ISZERO PUSH2 0x653 JUMPI PUSH2 0x16E6 JUMPI JUMPDEST POP POP PUSH32 0x758A67328BA53C1867C0272BBD2CA10D6FE71D37120188C523FE7AE7BDBBE469 SWAP2 PUSH2 0xCF2 PUSH1 0x40 MLOAD SWAP3 DUP4 SWAP3 DUP4 PUSH2 0x3434 JUMP JUMPDEST DUP2 PUSH2 0x16F0 SWAP2 PUSH2 0x2D8B JUMP JUMPDEST PUSH2 0x739 JUMPI DUP4 DUP6 PUSH2 0x16B3 JUMP JUMPDEST DUP2 PUSH2 0x1705 SWAP2 PUSH2 0x2D8B JUMP JUMPDEST PUSH2 0x1710 JUMPI DUP6 DUP12 PUSH2 0x15CF JUMP JUMPDEST DUP6 DUP1 REVERT JUMPDEST PUSH1 0x40 MLOAD RETURNDATASIZE DUP10 DUP3 RETURNDATACOPY RETURNDATASIZE SWAP1 REVERT JUMPDEST DUP8 DUP1 REVERT JUMPDEST DUP2 DUP2 LT PUSH2 0x1732 JUMPI JUMPDEST POP POP PUSH2 0x15D2 JUMP JUMPDEST PUSH2 0x173B SWAP2 PUSH2 0x30FB JUMP JUMPDEST PUSH1 0x3 SLOAD PUSH1 0x1 PUSH1 0x1 PUSH1 0xA0 SHL SUB AND SWAP1 DUP2 EXTCODESIZE ISZERO PUSH2 0x171F JUMPI DUP8 SWAP2 PUSH1 0x44 DUP4 SWAP3 PUSH1 0x40 MLOAD SWAP5 DUP6 SWAP4 DUP5 SWAP3 PUSH4 0xA4948D85 PUSH1 0xE0 SHL DUP5 MSTORE DUP12 PUSH1 0x4 DUP6 ADD MSTORE PUSH1 0x24 DUP5 ADD MSTORE GAS CALL SWAP1 DUP2 ISZERO PUSH2 0x1714 JUMPI DUP8 SWAP2 ISZERO PUSH2 0x172B JUMPI DUP2 PUSH2 0x178C SWAP2 PUSH2 0x2D8B JUMP JUMPDEST PUSH2 0x1710 JUMPI DUP6 DUP12 PUSH2 0x172B JUMP JUMPDEST ADD MLOAD SWAP1 POP DUP14 DUP1 PUSH2 0xAEE JUMP JUMPDEST PUSH1 0xA DUP8 ADD DUP12 MSTORE DUP1 DUP12 KECCAK256 SWAP12 DUP12 JUMPDEST PUSH1 0x1F NOT DUP5 AND DUP2 LT PUSH2 0x17FB JUMPI POP SWAP12 DUP3 SWAP2 DUP13 SWAP14 PUSH1 0x1 SWAP5 PUSH1 0x1F SWAP15 SWAP12 SWAP13 SWAP14 SWAP15 NOT DUP2 AND LT PUSH2 0x17E2 JUMPI JUMPDEST POP POP POP DUP2 SHL ADD PUSH1 0xA DUP7 ADD SSTORE PUSH2 0x1550 JUMP JUMPDEST ADD MLOAD PUSH1 0x0 NOT PUSH1 0xF8 DUP5 PUSH1 0x3 SHL AND SHR NOT AND SWAP1 SSTORE DUP13 DUP1 DUP1 PUSH2 0x17D2 JUMP JUMPDEST DUP3 DUP3 ADD MLOAD DUP15 SSTORE PUSH1 0x1 SWAP1 SWAP14 ADD SWAP13 PUSH1 0x20 SWAP3 DUP4 ADD SWAP3 ADD PUSH2 0x17AE JUMP JUMPDEST PUSH2 0x1840 SWAP1 PUSH1 0xA DUP9 ADD DUP13 MSTORE PUSH1 0x20 DUP13 KECCAK256 PUSH1 0x1F DUP5 ADD PUSH1 0x5 SHR DUP2 ADD SWAP2 PUSH1 0x20 DUP6 LT PUSH2 0xDC0 JUMPI PUSH1 0x1F ADD PUSH1 0x5 SHR ADD SWAP1 PUSH2 0x31BB JUMP JUMPDEST DUP12 PUSH2 0x1515 JUMP JUMPDEST PUSH4 0x4E487B71 PUSH1 0xE0 SHL DUP11 MSTORE PUSH1 0x41 PUSH1 0x4 MSTORE PUSH1 0x24 DUP11 REVERT JUMPDEST ADD MLOAD SWAP1 POP DUP15 DUP1 PUSH2 0xAEE JUMP JUMPDEST POP SWAP2 PUSH1 0x3 DUP10 ADD DUP14 MSTORE DUP1 DUP14 KECCAK256 SWAP1 DUP14 SWAP4 JUMPDEST PUSH1 0x1F NOT DUP5 AND DUP6 LT PUSH2 0x18B8 JUMPI PUSH1 0x1 SWAP5 POP DUP4 PUSH1 0x1F NOT DUP2 AND LT PUSH2 0x189F JUMPI JUMPDEST POP POP POP DUP2 SHL ADD PUSH1 0x3 DUP8 ADD SSTORE PUSH2 0x14E4 JUMP JUMPDEST ADD MLOAD PUSH1 0x0 NOT PUSH1 0xF8 DUP5 PUSH1 0x3 SHL AND SHR NOT AND SWAP1 SSTORE DUP14 DUP1 DUP1 PUSH2 0x188F JUMP JUMPDEST DUP2 DUP2 ADD MLOAD DUP4 SSTORE PUSH1 0x20 SWAP5 DUP6 ADD SWAP5 PUSH1 0x1 SWAP1 SWAP4 ADD SWAP3 SWAP1 SWAP2 ADD SWAP1 PUSH2 0x1874 JUMP JUMPDEST PUSH1 0x20 PUSH2 0x18FF SWAP3 PUSH1 0x3 DUP13 ADD DUP2 MSTORE KECCAK256 PUSH1 0x1F DUP5 ADD PUSH1 0x5 SHR DUP2 ADD SWAP2 PUSH1 0x20 DUP6 LT PUSH2 0xDC0 JUMPI PUSH1 0x1F ADD PUSH1 0x5 SHR ADD SWAP1 PUSH2 0x31BB JUMP JUMPDEST DUP12 DUP15 PUSH2 0x14AD JUMP JUMPDEST PUSH4 0x4E487B71 PUSH1 0xE0 SHL DUP13 MSTORE PUSH1 0x41 PUSH1 0x4 MSTORE PUSH1 0x24 DUP13 REVERT JUMPDEST SWAP1 POP DUP12 ADD MLOAD DUP16 PUSH2 0x146C JUMP JUMPDEST POP SWAP1 PUSH1 0x1 DUP10 ADD DUP14 MSTORE DUP2 DUP14 KECCAK256 DUP14 SWAP3 JUMPDEST DUP13 PUSH1 0x1F NOT DUP5 AND DUP6 LT PUSH2 0x1978 JUMPI POP PUSH1 0x1 SWAP4 POP DUP3 PUSH1 0x1F NOT DUP2 AND LT PUSH2 0x195F JUMPI JUMPDEST POP POP DUP2 SHL ADD PUSH1 0x1 DUP9 ADD SSTORE PUSH2 0x1486 JUMP JUMPDEST DUP13 ADD MLOAD PUSH1 0x0 NOT PUSH1 0xF8 DUP5 PUSH1 0x3 SHL AND SHR NOT AND SWAP1 SSTORE DUP15 DUP1 PUSH2 0x1950 JUMP JUMPDEST DUP2 ADD MLOAD DUP3 SSTORE PUSH1 0x20 SWAP4 DUP5 ADD SWAP4 PUSH1 0x1 SWAP1 SWAP3 ADD SWAP2 ADD PUSH2 0x1933 JUMP JUMPDEST PUSH1 0x20 PUSH2 0x19BB SWAP3 PUSH1 0x1 DUP13 ADD DUP2 MSTORE KECCAK256 PUSH1 0x1F DUP5 ADD PUSH1 0x5 SHR DUP2 ADD SWAP2 PUSH1 0x20 DUP6 LT PUSH2 0xDC0 JUMPI PUSH1 0x1F ADD PUSH1 0x5 SHR ADD SWAP1 PUSH2 0x31BB JUMP JUMPDEST DUP12 DUP15 PUSH2 0x1451 JUMP JUMPDEST PUSH2 0x19D7 SWAP2 SWAP11 POP RETURNDATASIZE DUP1 DUP14 DUP4 RETURNDATACOPY PUSH2 0xFF7 DUP2 DUP4 PUSH2 0x2D8B JUMP JUMPDEST SWAP9 CODESIZE PUSH2 0x1377 JUMP JUMPDEST PUSH4 0x69E489F5 PUSH1 0xE1 SHL DUP11 MSTORE PUSH1 0x4 DUP11 REVERT JUMPDEST PUSH4 0x4E487B71 PUSH1 0xE0 SHL DUP12 MSTORE PUSH1 0x11 PUSH1 0x4 MSTORE PUSH1 0x24 DUP12 REVERT JUMPDEST PUSH4 0x69E489F5 PUSH1 0xE1 SHL DUP10 MSTORE PUSH1 0x4 DUP10 REVERT JUMPDEST POP PUSH2 0x140 DUP4 ADD MLOAD DUP2 GT PUSH2 0x12F1 JUMP JUMPDEST PUSH4 0x4E487B71 PUSH1 0xE0 SHL DUP11 MSTORE PUSH1 0x21 PUSH1 0x4 MSTORE PUSH1 0x24 DUP11 REVERT JUMPDEST PUSH2 0x1A47 SWAP2 SWAP4 POP RETURNDATASIZE DUP1 DUP12 DUP4 RETURNDATACOPY PUSH2 0xFC9 DUP2 DUP4 PUSH2 0x2D8B JUMP JUMPDEST SWAP2 CODESIZE PUSH2 0x12CF JUMP JUMPDEST PUSH1 0x40 MLOAD RETURNDATASIZE DUP12 DUP3 RETURNDATACOPY RETURNDATASIZE SWAP1 REVERT JUMPDEST POP CALLVALUE PUSH2 0x1BF JUMPI DUP1 PUSH1 0x3 NOT CALLDATASIZE ADD SLT PUSH2 0x1BF JUMPI PUSH1 0x1 SLOAD PUSH1 0x40 MLOAD PUSH1 0x1 PUSH1 0x1 PUSH1 0xA0 SHL SUB SWAP1 SWAP2 AND DUP2 MSTORE PUSH1 0x20 SWAP1 RETURN JUMPDEST POP CALLVALUE PUSH2 0x1BF JUMPI DUP1 PUSH1 0x3 NOT CALLDATASIZE ADD SLT PUSH2 0x1BF JUMPI PUSH1 0x3 SLOAD PUSH1 0x40 MLOAD PUSH1 0x1 PUSH1 0x1 PUSH1 0xA0 SHL SUB SWAP1 SWAP2 AND DUP2 MSTORE PUSH1 0x20 SWAP1 RETURN JUMPDEST POP CALLVALUE PUSH2 0x1BF JUMPI PUSH1 0x60 CALLDATASIZE PUSH1 0x3 NOT ADD SLT PUSH2 0x1BF JUMPI PUSH2 0x1AC5 PUSH2 0x2B0C JUMP JUMPDEST PUSH1 0x24 CALLDATALOAD PUSH1 0x44 CALLDATALOAD SWAP2 PUSH2 0x1AE1 PUSH1 0x1 DUP1 PUSH1 0xA0 SHL SUB PUSH1 0x7 SLOAD AND CALLER EQ PUSH2 0x2F12 JUMP JUMPDEST PUSH2 0x1AE9 PUSH2 0x3457 JUMP JUMPDEST PUSH1 0x1 DUP1 PUSH1 0xA0 SHL SUB AND DUP1 DUP5 MSTORE PUSH1 0xD PUSH1 0x20 MSTORE PUSH1 0x40 DUP5 KECCAK256 DUP3 DUP6 MSTORE PUSH1 0x20 MSTORE PUSH1 0x4 PUSH1 0x40 DUP6 KECCAK256 ADD PUSH2 0x1B15 DUP5 DUP3 SLOAD PUSH2 0x30FB JUMP JUMPDEST SWAP1 SSTORE DUP4 MSTORE PUSH1 0xD PUSH1 0x20 MSTORE PUSH1 0x40 DUP4 KECCAK256 SWAP1 DUP4 MSTORE PUSH1 0x20 MSTORE PUSH2 0x1B3A PUSH1 0x5 PUSH1 0x40 DUP5 KECCAK256 ADD SWAP2 DUP3 SLOAD PUSH2 0x318A JUMP JUMPDEST SWAP1 SSTORE PUSH1 0x1 DUP2 SSTORE DUP1 RETURN JUMPDEST POP CALLVALUE PUSH2 0x1BF JUMPI PUSH1 0x40 CALLDATASIZE PUSH1 0x3 NOT ADD SLT PUSH2 0x1BF JUMPI PUSH1 0x20 SWAP1 PUSH1 0x40 SWAP1 PUSH1 0x1 PUSH1 0x1 PUSH1 0xA0 SHL SUB PUSH2 0x1B6B PUSH2 0x2B0C JUMP JUMPDEST AND DUP2 MSTORE PUSH1 0xB DUP4 MSTORE DUP2 DUP2 KECCAK256 PUSH1 0x24 CALLDATALOAD DUP3 MSTORE DUP4 MSTORE KECCAK256 SLOAD PUSH1 0x40 MLOAD SWAP1 DUP2 MSTORE RETURN JUMPDEST POP CALLVALUE PUSH2 0x1BF JUMPI PUSH1 0x20 CALLDATASIZE PUSH1 0x3 NOT ADD SLT PUSH2 0x1BF JUMPI PUSH1 0xFF PUSH1 0x40 PUSH1 0x20 SWAP3 PUSH1 0x4 CALLDATALOAD DUP2 MSTORE PUSH1 0xA DUP5 MSTORE KECCAK256 SLOAD AND PUSH1 0x40 MLOAD SWAP1 ISZERO ISZERO DUP2 MSTORE RETURN JUMPDEST POP CALLVALUE PUSH2 0x1BF JUMPI PUSH1 0x40 CALLDATASIZE PUSH1 0x3 NOT ADD SLT PUSH2 0x1BF JUMPI PUSH2 0x1BCF PUSH2 0x2B0C JUMP JUMPDEST PUSH1 0x3 SLOAD PUSH1 0x40 MLOAD PUSH4 0x13815491 PUSH1 0xE2 SHL DUP2 MSTORE PUSH1 0x24 DUP1 CALLDATALOAD PUSH1 0x4 DUP4 ADD DUP2 SWAP1 MSTORE PUSH1 0x1 PUSH1 0x1 PUSH1 0xA0 SHL SUB DUP6 DUP2 AND SWAP3 DUP5 ADD SWAP3 SWAP1 SWAP3 MSTORE SWAP2 SWAP4 SWAP2 SWAP3 PUSH2 0x120 SWAP2 DUP6 SWAP2 PUSH1 0x44 SWAP2 DUP4 SWAP2 AND GAS STATICCALL SWAP3 DUP4 ISZERO PUSH2 0x1CE2 JUMPI DUP5 SWAP4 PUSH2 0x1C96 JUMPI JUMPDEST POP PUSH1 0x1 PUSH1 0x1 PUSH1 0xA0 SHL SUB AND DUP1 DUP5 MSTORE PUSH1 0xB PUSH1 0x20 SWAP1 DUP2 MSTORE PUSH1 0x40 DUP1 DUP7 KECCAK256 DUP5 DUP8 MSTORE DUP3 MSTORE DUP6 KECCAK256 SLOAD SWAP1 SWAP5 PUSH2 0x12C SWAP5 PUSH2 0x1C6C SWAP5 SWAP1 SWAP4 SWAP3 PUSH2 0x1C7D JUMPI POP POP POP PUSH1 0xC0 DUP2 ADD MLOAD SWAP1 JUMPDEST PUSH1 0xE0 TIMESTAMP SWAP2 ADD MLOAD DUP1 TIMESTAMP GT PUSH2 0x1C75 JUMPI JUMPDEST POP PUSH2 0x30FB JUMP JUMPDEST DIV PUSH1 0x40 MLOAD SWAP1 DUP2 MSTORE RETURN JUMPDEST SWAP1 POP CODESIZE PUSH2 0x1C66 JUMP JUMPDEST PUSH1 0x40 SWAP3 DUP3 MSTORE PUSH1 0xB DUP8 MSTORE DUP3 DUP3 KECCAK256 SWAP1 DUP3 MSTORE DUP7 MSTORE KECCAK256 SLOAD SWAP1 PUSH2 0x1C58 JUMP JUMPDEST SWAP1 SWAP3 POP PUSH2 0x120 RETURNDATASIZE DUP2 GT PUSH2 0x1CDB JUMPI JUMPDEST PUSH2 0x1CAE DUP2 DUP4 PUSH2 0x2D8B JUMP JUMPDEST DUP2 ADD SWAP1 PUSH2 0x120 DUP2 DUP4 SUB SLT PUSH2 0x73D JUMPI SWAP2 PUSH1 0x20 SWAP5 PUSH2 0x1CD1 PUSH2 0x12C SWAP6 SWAP4 PUSH2 0x1C6C SWAP6 PUSH2 0x3108 JUMP JUMPDEST SWAP5 POP SWAP5 POP SWAP2 PUSH2 0x1C1C JUMP JUMPDEST POP RETURNDATASIZE PUSH2 0x1CA4 JUMP JUMPDEST PUSH1 0x40 MLOAD RETURNDATASIZE DUP7 DUP3 RETURNDATACOPY RETURNDATASIZE SWAP1 REVERT JUMPDEST POP CALLVALUE PUSH2 0x1BF JUMPI DUP1 PUSH1 0x3 NOT CALLDATASIZE ADD SLT PUSH2 0x1BF JUMPI PUSH2 0x1D06 PUSH2 0x3479 JUMP JUMPDEST PUSH1 0x1 DUP1 SLOAD PUSH1 0x1 PUSH1 0x1 PUSH1 0xA0 SHL SUB NOT DUP2 AND SWAP1 SWAP2 SSTORE DUP2 SWAP1 PUSH1 0x1 PUSH1 0x1 PUSH1 0xA0 SHL SUB AND PUSH32 0x8BE0079C531659141344CD1FD0A4F28419497F9722A3DAAFE3B4186F6B6457E0 DUP3 DUP1 LOG3 DUP1 RETURN JUMPDEST POP CALLVALUE PUSH2 0x1BF JUMPI PUSH1 0x20 CALLDATASIZE PUSH1 0x3 NOT ADD SLT PUSH2 0x1BF JUMPI PUSH2 0x1D64 PUSH2 0x2B0C JUMP JUMPDEST PUSH1 0x10 SLOAD DUP3 SWAP2 PUSH1 0x1 PUSH1 0x1 PUSH1 0xA0 SHL SUB AND DUP3 JUMPDEST DUP3 DUP2 LT PUSH2 0x1F2C JUMPI POP PUSH2 0x1D85 DUP4 PUSH2 0x323A JUMP JUMPDEST SWAP3 PUSH2 0x1D93 PUSH1 0x40 MLOAD SWAP5 DUP6 PUSH2 0x2D8B JUMP JUMPDEST DUP1 DUP5 MSTORE PUSH2 0x1DA2 PUSH1 0x1F NOT SWAP2 PUSH2 0x323A JUMP JUMPDEST ADD DUP5 JUMPDEST DUP2 DUP2 LT PUSH2 0x1F15 JUMPI POP POP DUP4 DUP5 JUMPDEST DUP4 DUP2 LT PUSH2 0x1E1F JUMPI DUP5 DUP7 PUSH1 0x40 MLOAD SWAP2 DUP3 SWAP2 PUSH1 0x20 DUP4 ADD PUSH1 0x20 DUP5 MSTORE DUP3 MLOAD DUP1 SWAP2 MSTORE PUSH1 0x40 DUP5 ADD PUSH1 0x20 PUSH1 0x40 DUP4 PUSH1 0x5 SHL DUP8 ADD ADD SWAP5 ADD SWAP3 SWAP1 JUMPDEST DUP3 DUP3 LT PUSH2 0x1DF0 JUMPI POP POP POP POP SUB SWAP1 RETURN JUMPDEST SWAP2 SWAP4 PUSH1 0x1 SWAP2 SWAP4 SWAP6 POP PUSH1 0x20 PUSH2 0x1E0F DUP2 SWAP3 PUSH1 0x3F NOT DUP11 DUP3 SUB ADD DUP7 MSTORE DUP9 MLOAD PUSH2 0x2DAC JUMP JUMPDEST SWAP7 ADD SWAP3 ADD SWAP3 ADD DUP6 SWAP5 SWAP4 SWAP2 SWAP3 PUSH2 0x1DE1 JUMP JUMPDEST PUSH2 0x1E28 DUP2 PUSH2 0x2B58 JUMP JUMPDEST SWAP1 SLOAD SWAP1 PUSH1 0x3 SHL SHR DUP4 DUP8 MSTORE PUSH1 0xD PUSH1 0x20 MSTORE PUSH1 0x40 DUP8 KECCAK256 DUP2 DUP9 MSTORE PUSH1 0x20 MSTORE PUSH1 0x4 PUSH1 0x40 DUP9 KECCAK256 ADD SLOAD PUSH2 0x1E57 JUMPI JUMPDEST POP PUSH1 0x1 ADD PUSH2 0x1DB1 JUMP JUMPDEST PUSH1 0x1 SWAP2 SWAP3 PUSH2 0x1F0E SWAP2 DUP6 DUP10 MSTORE PUSH1 0xD PUSH1 0x20 MSTORE PUSH1 0x40 DUP10 KECCAK256 SWAP1 DUP10 MSTORE PUSH1 0x20 MSTORE PUSH1 0x40 DUP9 KECCAK256 PUSH1 0xFF PUSH1 0x8 PUSH1 0x40 MLOAD SWAP3 PUSH2 0x1E86 DUP5 PUSH2 0x2D3D JUMP JUMPDEST DUP7 DUP1 PUSH1 0xA0 SHL SUB DUP2 SLOAD AND DUP5 MSTORE DUP7 DUP2 ADD SLOAD PUSH1 0x20 DUP6 ADD MSTORE PUSH2 0x1EAD DUP4 PUSH1 0x2 DUP4 ADD SLOAD AND PUSH1 0x40 DUP7 ADD PUSH2 0x3197 JUMP JUMPDEST PUSH1 0x40 MLOAD PUSH2 0x1EC1 DUP2 PUSH2 0x319 DUP2 PUSH1 0x3 DUP7 ADD PUSH2 0x2CBA JUMP JUMPDEST PUSH1 0x60 DUP6 ADD MSTORE PUSH1 0x4 DUP2 ADD SLOAD PUSH1 0x80 DUP6 ADD MSTORE PUSH1 0x5 DUP2 ADD SLOAD PUSH1 0xA0 DUP6 ADD MSTORE PUSH1 0x6 DUP2 ADD SLOAD PUSH1 0xC0 DUP6 ADD MSTORE PUSH1 0x7 DUP2 ADD SLOAD PUSH1 0xE0 DUP6 ADD MSTORE ADD SLOAD AND ISZERO ISZERO PUSH2 0x100 DUP3 ADD MSTORE PUSH2 0x1F03 DUP3 DUP10 PUSH2 0x32A2 JUMP JUMPDEST MSTORE PUSH2 0x1212 DUP2 DUP9 PUSH2 0x32A2 JUMP JUMPDEST SWAP2 SWAP1 PUSH2 0x1E4E JUMP JUMPDEST PUSH1 0x20 SWAP1 PUSH2 0x1F20 PUSH2 0x3251 JUMP JUMPDEST DUP3 DUP3 DUP9 ADD ADD MSTORE ADD PUSH2 0x1DA5 JUMP JUMPDEST PUSH2 0x1F35 DUP2 PUSH2 0x2B58 JUMP JUMPDEST SWAP1 SLOAD SWAP1 PUSH1 0x3 SHL SHR DUP3 DUP7 MSTORE PUSH1 0xD PUSH1 0x20 MSTORE PUSH1 0x40 DUP7 KECCAK256 SWAP1 DUP7 MSTORE PUSH1 0x20 MSTORE PUSH1 0x4 PUSH1 0x40 DUP7 KECCAK256 ADD SLOAD PUSH2 0x1F63 JUMPI JUMPDEST PUSH1 0x1 ADD PUSH2 0x1D74 JUMP JUMPDEST SWAP3 PUSH2 0x1F6F PUSH1 0x1 SWAP2 PUSH2 0x322B JUMP JUMPDEST SWAP4 SWAP1 POP PUSH2 0x1F5B JUMP JUMPDEST POP CALLVALUE PUSH2 0x1BF JUMPI PUSH1 0x20 CALLDATASIZE PUSH1 0x3 NOT ADD SLT PUSH2 0x1BF JUMPI PUSH1 0x4 CALLDATALOAD DUP2 MSTORE PUSH1 0xE PUSH1 0x20 MSTORE PUSH1 0x40 SWAP1 KECCAK256 DUP1 SLOAD PUSH1 0x40 MLOAD SWAP2 DUP3 DUP1 PUSH1 0x1 DUP4 ADD SWAP1 PUSH2 0x1FAD SWAP2 PUSH2 0x2CBA JUMP JUMPDEST SUB PUSH2 0x1FB8 SWAP1 DUP5 PUSH2 0x2D8B JUMP JUMPDEST PUSH1 0x2 DUP2 ADD SLOAD PUSH1 0x40 MLOAD SWAP1 PUSH1 0xFF AND DUP2 PUSH2 0x1FD2 DUP2 PUSH1 0x3 DUP7 ADD PUSH2 0x2CBA JUMP JUMPDEST SUB PUSH2 0x1FDD SWAP1 DUP4 PUSH2 0x2D8B JUMP JUMPDEST PUSH1 0x4 DUP4 ADD SLOAD SWAP2 PUSH1 0x5 DUP5 ADD SLOAD PUSH1 0x6 DUP6 ADD SLOAD PUSH1 0x7 DUP7 ADD SLOAD SWAP2 PUSH1 0x8 DUP8 ADD SLOAD SWAP4 PUSH1 0x9 DUP9 ADD SLOAD SWAP6 PUSH1 0x40 MLOAD DUP1 PUSH1 0xA DUP2 SWAP12 ADD SWAP1 PUSH2 0x2012 SWAP2 PUSH2 0x2CBA JUMP JUMPDEST SUB PUSH2 0x201D SWAP1 DUP11 PUSH2 0x2D8B JUMP JUMPDEST PUSH1 0x40 MLOAD SWAP11 DUP12 SWAP11 DUP12 MSTORE PUSH1 0x20 DUP12 ADD PUSH2 0x160 SWAP1 MSTORE PUSH2 0x160 DUP12 ADD PUSH2 0x203C SWAP2 PUSH2 0x2B96 JUMP JUMPDEST SWAP1 PUSH1 0x40 DUP12 ADD PUSH2 0x204A SWAP2 PUSH2 0x2BBB JUMP JUMPDEST DUP10 DUP2 SUB PUSH1 0x60 DUP12 ADD MSTORE PUSH2 0x205B SWAP2 PUSH2 0x2B96 JUMP JUMPDEST SWAP6 PUSH1 0x80 DUP10 ADD MSTORE PUSH1 0xA0 DUP9 ADD MSTORE PUSH1 0xC0 DUP8 ADD MSTORE PUSH1 0xE0 DUP7 ADD MSTORE PUSH2 0x100 DUP6 ADD MSTORE PUSH2 0x120 DUP5 ADD MSTORE DUP3 DUP2 SUB PUSH2 0x140 DUP5 ADD MSTORE PUSH2 0x36C SWAP2 PUSH2 0x2B96 JUMP JUMPDEST POP CALLVALUE PUSH2 0x1BF JUMPI PUSH1 0x20 CALLDATASIZE PUSH1 0x3 NOT ADD SLT PUSH2 0x1BF JUMPI PUSH1 0x40 PUSH2 0x36C SWAP2 PUSH2 0x20AE PUSH2 0x31D2 JUMP JUMPDEST POP PUSH1 0x4 CALLDATALOAD DUP2 MSTORE PUSH1 0xE PUSH1 0x20 MSTORE KECCAK256 PUSH1 0xA PUSH2 0x20E4 PUSH1 0x40 MLOAD SWAP3 PUSH2 0x20CC DUP5 PUSH2 0x2D6F JUMP JUMPDEST DUP1 SLOAD DUP5 MSTORE PUSH1 0x40 MLOAD PUSH2 0x1177 DUP2 PUSH2 0x319 DUP2 PUSH1 0x1 DUP7 ADD PUSH2 0x2CBA JUMP JUMPDEST PUSH2 0x140 DUP3 ADD MSTORE PUSH1 0x40 MLOAD SWAP2 DUP3 SWAP2 PUSH1 0x20 DUP4 MSTORE PUSH1 0x20 DUP4 ADD SWAP1 PUSH2 0x2BDE JUMP JUMPDEST POP CALLVALUE PUSH2 0x1BF JUMPI DUP1 PUSH1 0x3 NOT CALLDATASIZE ADD SLT PUSH2 0x1BF JUMPI PUSH1 0x20 PUSH1 0x2 SLOAD PUSH1 0x40 MLOAD SWAP1 DUP2 MSTORE RETURN JUMPDEST POP CALLVALUE PUSH2 0x1BF JUMPI PUSH1 0x80 CALLDATASIZE PUSH1 0x3 NOT ADD SLT PUSH2 0x1BF JUMPI PUSH1 0x44 CALLDATALOAD PUSH1 0x4 CALLDATALOAD PUSH2 0x213C PUSH2 0x3457 JUMP JUMPDEST PUSH1 0x64 CALLDATALOAD ISZERO PUSH2 0x2606 JUMPI PUSH1 0x1B DUP3 GT DUP1 ISZERO SWAP1 PUSH2 0x25FA JUMPI JUMPDEST PUSH2 0x25EB JUMPI DUP1 DUP4 MSTORE PUSH1 0xA PUSH1 0x20 MSTORE PUSH1 0xFF PUSH1 0x40 DUP5 KECCAK256 SLOAD AND ISZERO PUSH2 0x25DC JUMPI DUP1 DUP4 MSTORE PUSH1 0xE PUSH1 0x20 MSTORE PUSH1 0x40 DUP4 KECCAK256 SWAP2 PUSH1 0x8 DUP4 ADD DUP1 SLOAD PUSH1 0x24 CALLDATALOAD GT PUSH2 0x25CD JUMPI PUSH1 0x7 DUP5 ADD PUSH2 0x2195 PUSH1 0x24 CALLDATALOAD DUP3 SLOAD PUSH2 0x318A JUMP JUMPDEST PUSH1 0x6 DUP7 ADD DUP1 SLOAD DUP3 GT PUSH2 0x25BE JUMPI PUSH1 0x4 SLOAD DUP9 SWAP1 PUSH1 0x1 PUSH1 0x1 PUSH1 0xA0 SHL SUB AND DUP1 EXTCODESIZE ISZERO PUSH2 0x65E JUMPI PUSH1 0x40 MLOAD PUSH4 0x2770A7EB PUSH1 0xE2 SHL DUP2 MSTORE CALLER PUSH1 0x4 DUP3 ADD MSTORE PUSH1 0x64 CALLDATALOAD PUSH1 0x24 DUP3 ADD MSTORE SWAP1 DUP3 SWAP1 DUP3 SWAP1 PUSH1 0x44 SWAP1 DUP3 SWAP1 DUP5 SWAP1 GAS CALL DUP1 ISZERO PUSH2 0x653 JUMPI PUSH2 0x25A9 JUMPI JUMPDEST POP POP DUP2 PUSH2 0x21FD SWAP4 SSTORE SLOAD PUSH2 0x1C66 DUP3 DUP3 PUSH2 0x30FB JUMP JUMPDEST SWAP1 SSTORE CALLER DUP5 MSTORE PUSH1 0xD PUSH1 0x20 MSTORE PUSH1 0x40 DUP5 KECCAK256 DUP3 DUP6 MSTORE PUSH1 0x20 MSTORE PUSH1 0x4 PUSH1 0x40 DUP6 KECCAK256 ADD SLOAD ISZERO PUSH1 0x0 EQ PUSH2 0x259A JUMPI PUSH1 0xFF PUSH1 0x2 DUP5 ADD SLOAD AND SWAP1 PUSH3 0x15180 DUP2 MUL DUP2 DUP2 DIV PUSH3 0x15180 EQ DUP3 ISZERO OR ISZERO PUSH2 0x2586 JUMPI PUSH2 0x224A SWAP1 TIMESTAMP PUSH2 0x318A JUMP JUMPDEST PUSH1 0x40 MLOAD SWAP4 PUSH2 0x2257 DUP6 PUSH2 0x2D3D JUMP JUMPDEST CALLER DUP6 MSTORE PUSH1 0x20 DUP6 ADD SWAP4 DUP2 DUP6 MSTORE PUSH2 0x2270 PUSH1 0x40 DUP8 ADD SWAP2 DUP3 PUSH2 0x3197 JUMP JUMPDEST PUSH1 0x40 MLOAD SWAP1 PUSH2 0x228C DUP3 PUSH2 0x2285 DUP2 PUSH1 0x1 DUP13 ADD PUSH2 0x2CBA JUMP JUMPDEST SUB DUP4 PUSH2 0x2D8B JUMP JUMPDEST PUSH1 0x60 DUP8 ADD SWAP2 DUP3 MSTORE PUSH1 0x80 DUP8 ADD SWAP3 PUSH1 0x24 CALLDATALOAD DUP5 MSTORE PUSH1 0xA0 DUP9 ADD SWAP5 DUP11 DUP7 MSTORE PUSH1 0xC0 DUP10 ADD SWAP7 DUP8 MSTORE PUSH1 0xE0 DUP10 ADD MSTORE PUSH1 0x1 PUSH2 0x100 DUP10 ADD MSTORE CALLER DUP11 MSTORE PUSH1 0xD PUSH1 0x20 MSTORE PUSH1 0x40 DUP11 KECCAK256 SWAP1 DUP11 MSTORE PUSH1 0x20 MSTORE PUSH1 0x40 DUP10 KECCAK256 SWAP6 PUSH1 0x1 DUP1 PUSH1 0xA0 SHL SUB DUP9 MLOAD AND PUSH12 0xFFFFFFFFFFFFFFFFFFFFFFFF PUSH1 0xA0 SHL DUP9 SLOAD AND OR DUP8 SSTORE MLOAD PUSH1 0x1 DUP8 ADD SSTORE MLOAD PUSH1 0x3 DUP2 LT ISZERO PUSH2 0xE88 JUMPI PUSH2 0x230D SWAP1 PUSH1 0x2 DUP8 ADD PUSH2 0x31A3 JUMP JUMPDEST MLOAD DUP1 MLOAD SWAP1 PUSH1 0x1 PUSH1 0x1 PUSH1 0x40 SHL SUB DUP3 GT PUSH2 0xDCA JUMPI PUSH2 0x232C PUSH1 0x3 DUP8 ADD SLOAD PUSH2 0x2C80 JUMP JUMPDEST PUSH1 0x1F DUP2 GT PUSH2 0x2553 JUMPI JUMPDEST POP PUSH1 0x20 SWAP1 PUSH1 0x1F DUP4 GT PUSH1 0x1 EQ PUSH2 0x24DE JUMPI DUP3 PUSH2 0x100 SWAP8 SWAP6 SWAP4 PUSH1 0x8 SWAP8 SWAP6 SWAP4 PUSH2 0x236F SWAP4 DUP14 SWAP3 PUSH2 0x24D3 JUMPI POP POP DUP2 PUSH1 0x1 SHL SWAP2 PUSH1 0x0 NOT SWAP1 PUSH1 0x3 SHL SHR NOT AND OR SWAP1 JUMP JUMPDEST PUSH1 0x3 DUP6 ADD SSTORE JUMPDEST MLOAD PUSH1 0x4 DUP5 ADD SSTORE MLOAD PUSH1 0x5 DUP4 ADD SSTORE MLOAD PUSH1 0x6 DUP3 ADD SSTORE PUSH1 0xE0 DUP5 ADD MLOAD PUSH1 0x7 DUP3 ADD SSTORE ADD SWAP2 ADD MLOAD ISZERO ISZERO PUSH1 0xFF DUP1 NOT DUP4 SLOAD AND SWAP2 AND OR SWAP1 SSTORE DUP2 DUP3 SWAP1 PUSH1 0x8 SLOAD SWAP2 JUMPDEST DUP3 DUP2 LT PUSH2 0x24A0 JUMPI JUMPDEST POP ISZERO PUSH2 0x244E JUMPI JUMPDEST POP CALLER DUP3 MSTORE PUSH1 0x9 PUSH1 0x20 MSTORE PUSH1 0x40 DUP3 KECCAK256 DUP1 SLOAD SWAP1 PUSH1 0x1 DUP3 ADD DUP1 SWAP3 GT PUSH2 0x243A JUMPI SWAP2 PUSH1 0x2 SWAP2 PUSH1 0xFF SWAP4 SSTORE PUSH2 0x23EA PUSH1 0x64 CALLDATALOAD DUP4 SLOAD PUSH2 0x318A JUMP JUMPDEST DUP3 SSTORE ADD SLOAD AND PUSH2 0x240D PUSH1 0x40 MLOAD SWAP2 PUSH1 0x24 CALLDATALOAD DUP4 MSTORE PUSH1 0x64 CALLDATALOAD PUSH1 0x20 DUP5 ADD MSTORE PUSH1 0x40 DUP4 ADD SWAP1 PUSH2 0x2BBB JUMP JUMPDEST PUSH32 0x23B0F39E0762759FFB18632A1A2B79C9EB58571454E5F7C36E0A2F81759E0A34 PUSH1 0x60 CALLER SWAP3 LOG2 PUSH1 0x1 DUP2 SSTORE DUP1 RETURN JUMPDEST PUSH4 0x4E487B71 PUSH1 0xE0 SHL DUP5 MSTORE PUSH1 0x11 PUSH1 0x4 MSTORE PUSH1 0x24 DUP5 REVERT JUMPDEST PUSH1 0x1 PUSH1 0x40 SHL DUP2 LT ISZERO PUSH2 0x248C JUMPI DUP1 PUSH1 0x1 PUSH2 0x246A SWAP3 ADD PUSH1 0x8 SSTORE PUSH2 0x2B27 JUMP JUMPDEST DUP2 SLOAD PUSH1 0x1 PUSH1 0x1 PUSH1 0xA0 SHL SUB PUSH1 0x3 SWAP3 SWAP1 SWAP3 SHL SWAP2 DUP3 SHL NOT AND CALLER SWAP1 SWAP2 SHL OR SWAP1 SSTORE CODESIZE PUSH2 0x23BA JUMP JUMPDEST PUSH4 0x4E487B71 PUSH1 0xE0 SHL DUP4 MSTORE PUSH1 0x41 PUSH1 0x4 MSTORE PUSH1 0x24 DUP4 REVERT JUMPDEST PUSH2 0x24A9 DUP2 PUSH2 0x2B27 JUMP JUMPDEST SWAP1 SLOAD PUSH1 0x3 SWAP2 SWAP1 SWAP2 SHL SHR PUSH1 0x1 PUSH1 0x1 PUSH1 0xA0 SHL SUB AND CALLER EQ PUSH2 0x24C9 JUMPI PUSH1 0x1 ADD PUSH2 0x23AB JUMP JUMPDEST POP POP PUSH1 0x1 CODESIZE PUSH2 0x23B3 JUMP JUMPDEST ADD MLOAD SWAP1 POP CODESIZE DUP1 PUSH2 0xAEE JUMP JUMPDEST SWAP1 PUSH1 0x3 DUP8 ADD DUP11 MSTORE DUP1 DUP11 KECCAK256 SWAP2 DUP11 JUMPDEST PUSH1 0x1F NOT DUP6 AND DUP2 LT PUSH2 0x253B JUMPI POP SWAP3 PUSH1 0x8 SWAP7 SWAP5 SWAP3 PUSH1 0x1 SWAP3 PUSH2 0x100 SWAP10 SWAP8 SWAP6 DUP4 PUSH1 0x1F NOT DUP2 AND LT PUSH2 0x2522 JUMPI JUMPDEST POP POP POP DUP2 SHL ADD PUSH1 0x3 DUP6 ADD SSTORE PUSH2 0x2375 JUMP JUMPDEST ADD MLOAD PUSH1 0x0 NOT PUSH1 0xF8 DUP5 PUSH1 0x3 SHL AND SHR NOT AND SWAP1 SSTORE CODESIZE DUP1 DUP1 PUSH2 0x2512 JUMP JUMPDEST SWAP2 SWAP3 PUSH1 0x20 PUSH1 0x1 DUP2 SWAP3 DUP7 DUP6 ADD MLOAD DUP2 SSTORE ADD SWAP5 ADD SWAP3 ADD PUSH2 0x24EB JUMP JUMPDEST PUSH2 0x2580 SWAP1 PUSH1 0x3 DUP9 ADD DUP12 MSTORE PUSH1 0x20 DUP12 KECCAK256 PUSH1 0x1F DUP6 ADD PUSH1 0x5 SHR DUP2 ADD SWAP2 PUSH1 0x20 DUP7 LT PUSH2 0xDC0 JUMPI PUSH1 0x1F ADD PUSH1 0x5 SHR ADD SWAP1 PUSH2 0x31BB JUMP JUMPDEST CODESIZE PUSH2 0x2335 JUMP JUMPDEST PUSH4 0x4E487B71 PUSH1 0xE0 SHL DUP7 MSTORE PUSH1 0x11 PUSH1 0x4 MSTORE PUSH1 0x24 DUP7 REVERT JUMPDEST PUSH4 0x9857CBD9 PUSH1 0xE0 SHL DUP5 MSTORE PUSH1 0x4 DUP5 REVERT JUMPDEST DUP2 PUSH2 0x25B3 SWAP2 PUSH2 0x2D8B JUMP JUMPDEST PUSH2 0x171F JUMPI DUP8 CODESIZE PUSH2 0x21EA JUMP JUMPDEST PUSH4 0xBC6072F1 PUSH1 0xE0 SHL DUP9 MSTORE PUSH1 0x4 DUP9 REVERT JUMPDEST PUSH4 0xBC6072F1 PUSH1 0xE0 SHL DUP6 MSTORE PUSH1 0x4 DUP6 REVERT JUMPDEST PUSH4 0xBCCD4043 PUSH1 0xE0 SHL DUP4 MSTORE PUSH1 0x4 DUP4 REVERT JUMPDEST PUSH4 0x1F899589 PUSH1 0xE1 SHL DUP4 MSTORE PUSH1 0x4 DUP4 REVERT JUMPDEST POP PUSH2 0x16E DUP3 LT ISZERO PUSH2 0x2150 JUMP JUMPDEST PUSH4 0x162908E3 PUSH1 0xE1 SHL DUP4 MSTORE PUSH1 0x4 DUP4 REVERT JUMPDEST POP CALLVALUE PUSH2 0x1BF JUMPI DUP1 PUSH1 0x3 NOT CALLDATASIZE ADD SLT PUSH2 0x1BF JUMPI PUSH1 0x7 SLOAD PUSH1 0x40 MLOAD PUSH1 0x1 PUSH1 0x1 PUSH1 0xA0 SHL SUB SWAP1 SWAP2 AND DUP2 MSTORE PUSH1 0x20 SWAP1 RETURN JUMPDEST POP CALLVALUE PUSH2 0x1BF JUMPI PUSH1 0x20 CALLDATASIZE PUSH1 0x3 NOT ADD SLT PUSH2 0x1BF JUMPI PUSH1 0x4 CALLDATALOAD SWAP1 PUSH1 0x8 SLOAD DUP3 LT ISZERO PUSH2 0x1BF JUMPI PUSH1 0x20 PUSH2 0x2669 DUP4 PUSH2 0x2B27 JUMP JUMPDEST SWAP1 SLOAD PUSH1 0x40 MLOAD PUSH1 0x3 SWAP3 SWAP1 SWAP3 SHL SHR PUSH1 0x1 PUSH1 0x1 PUSH1 0xA0 SHL SUB AND DUP2 MSTORE RETURN JUMPDEST POP CALLVALUE PUSH2 0x1BF JUMPI DUP1 PUSH1 0x3 NOT CALLDATASIZE ADD SLT PUSH2 0x1BF JUMPI PUSH1 0x4 SLOAD PUSH1 0x40 MLOAD PUSH1 0x1 PUSH1 0x1 PUSH1 0xA0 SHL SUB SWAP1 SWAP2 AND DUP2 MSTORE PUSH1 0x20 SWAP1 RETURN JUMPDEST POP CALLVALUE PUSH2 0x1BF JUMPI PUSH1 0x20 CALLDATASIZE PUSH1 0x3 NOT ADD SLT PUSH2 0x1BF JUMPI PUSH1 0x4 CALLDATALOAD PUSH2 0x26C8 PUSH2 0x3457 JUMP JUMPDEST PUSH1 0x3 SLOAD PUSH1 0x40 MLOAD PUSH4 0x13815491 PUSH1 0xE2 SHL DUP2 MSTORE PUSH1 0x4 DUP2 ADD DUP4 SWAP1 MSTORE CALLER PUSH1 0x24 DUP3 ADD MSTORE SWAP1 PUSH2 0x120 SWAP1 DUP3 SWAP1 PUSH1 0x44 SWAP1 DUP3 SWAP1 PUSH1 0x1 PUSH1 0x1 PUSH1 0xA0 SHL SUB AND GAS STATICCALL SWAP1 DUP2 ISZERO PUSH2 0x741 JUMPI DUP4 SWAP2 PUSH2 0x285B JUMPI JUMPDEST POP PUSH1 0x80 DUP2 ADD MLOAD PUSH1 0x2 DUP2 LT ISZERO PUSH2 0x2847 JUMPI PUSH2 0x2838 JUMPI CALLER DUP4 MSTORE PUSH1 0xB PUSH1 0x20 MSTORE PUSH1 0x40 DUP4 KECCAK256 DUP3 DUP5 MSTORE PUSH1 0x20 MSTORE PUSH1 0x40 DUP4 KECCAK256 SLOAD ISZERO PUSH1 0x0 EQ PUSH2 0x2816 JUMPI PUSH2 0x12C PUSH2 0x275B PUSH1 0xC0 DUP4 ADD MLOAD JUMPDEST TIMESTAMP PUSH1 0xE0 DUP6 ADD MLOAD DUP1 TIMESTAMP GT PUSH2 0x1C75 JUMPI POP PUSH2 0x30FB JUMP JUMPDEST DIV SWAP1 DUP2 ISZERO PUSH2 0x2807 JUMPI SWAP1 PUSH1 0x60 PUSH2 0x2771 SWAP3 ADD MLOAD PUSH2 0x30D2 JUMP JUMPDEST PUSH1 0x2 SLOAD DUP2 GT PUSH2 0x27F8 JUMPI CALLER DUP4 MSTORE PUSH1 0xB PUSH1 0x20 MSTORE PUSH1 0x40 DUP4 KECCAK256 DUP3 DUP5 MSTORE PUSH1 0x20 MSTORE TIMESTAMP PUSH1 0x40 DUP5 KECCAK256 SSTORE PUSH1 0x1 DUP1 PUSH1 0xA0 SHL SUB PUSH1 0x4 SLOAD AND DUP1 EXTCODESIZE ISZERO PUSH2 0x739 JUMPI PUSH1 0x40 MLOAD PUSH4 0x7104A76D PUSH1 0xE1 SHL DUP2 MSTORE CALLER PUSH1 0x4 DUP3 ADD MSTORE PUSH1 0x24 DUP2 ADD DUP4 SWAP1 MSTORE SWAP1 DUP5 SWAP1 DUP3 SWAP1 PUSH1 0x44 SWAP1 DUP3 SWAP1 DUP5 SWAP1 GAS CALL DUP1 ISZERO PUSH2 0x1CE2 JUMPI PUSH2 0x27E4 JUMPI JUMPDEST POP PUSH2 0x604 DUP2 PUSH1 0x2 SLOAD PUSH2 0x30FB JUMP JUMPDEST DUP4 PUSH2 0x27F1 SWAP2 SWAP5 SWAP3 SWAP5 PUSH2 0x2D8B JUMP JUMPDEST SWAP2 CODESIZE PUSH2 0x27D7 JUMP JUMPDEST PUSH4 0xBC6072F1 PUSH1 0xE0 SHL DUP4 MSTORE PUSH1 0x4 DUP4 REVERT JUMPDEST PUSH4 0xED700A67 PUSH1 0xE0 SHL DUP5 MSTORE PUSH1 0x4 DUP5 REVERT JUMPDEST CALLER DUP4 MSTORE PUSH1 0xB PUSH1 0x20 MSTORE PUSH1 0x40 DUP4 KECCAK256 DUP3 DUP5 MSTORE PUSH1 0x20 MSTORE PUSH2 0x12C PUSH2 0x275B PUSH1 0x40 DUP6 KECCAK256 SLOAD PUSH2 0x2748 JUMP JUMPDEST PUSH4 0xE067835F PUSH1 0xE0 SHL DUP4 MSTORE PUSH1 0x4 DUP4 REVERT JUMPDEST PUSH4 0x4E487B71 PUSH1 0xE0 SHL DUP5 MSTORE PUSH1 0x21 PUSH1 0x4 MSTORE PUSH1 0x24 DUP5 REVERT JUMPDEST SWAP1 POP PUSH2 0x120 RETURNDATASIZE DUP2 GT PUSH2 0x288E JUMPI JUMPDEST PUSH2 0x2872 DUP2 DUP4 PUSH2 0x2D8B JUMP JUMPDEST DUP2 ADD PUSH2 0x120 DUP3 DUP3 SUB SLT PUSH2 0x739 JUMPI PUSH2 0x2888 SWAP2 PUSH2 0x3108 JUMP JUMPDEST CODESIZE PUSH2 0x270A JUMP JUMPDEST POP RETURNDATASIZE PUSH2 0x2868 JUMP JUMPDEST POP CALLVALUE PUSH2 0x1BF JUMPI DUP1 PUSH1 0x3 NOT CALLDATASIZE ADD SLT PUSH2 0x1BF JUMPI PUSH1 0x40 MLOAD DUP1 PUSH1 0x20 PUSH1 0x8 SLOAD SWAP2 DUP3 DUP2 MSTORE ADD DUP1 SWAP2 PUSH1 0x8 DUP6 MSTORE PUSH32 0xF3F7A9FE364FAAB93B216DA50A3214154F22A0A2B415B23A84C8169E8B636EE3 SWAP1 DUP6 JUMPDEST DUP2 DUP2 LT PUSH2 0x293E JUMPI POP POP POP DUP3 PUSH2 0x28F4 SWAP2 SUB DUP4 PUSH2 0x2D8B JUMP JUMPDEST PUSH1 0x40 MLOAD SWAP3 DUP4 SWAP3 PUSH1 0x20 DUP5 ADD SWAP1 PUSH1 0x20 DUP6 MSTORE MLOAD DUP1 SWAP2 MSTORE PUSH1 0x40 DUP5 ADD SWAP3 SWAP2 JUMPDEST DUP2 DUP2 LT PUSH2 0x291C JUMPI POP POP POP SUB SWAP1 RETURN JUMPDEST DUP3 MLOAD PUSH1 0x1 PUSH1 0x1 PUSH1 0xA0 SHL SUB AND DUP5 MSTORE DUP6 SWAP5 POP PUSH1 0x20 SWAP4 DUP5 ADD SWAP4 SWAP1 SWAP3 ADD SWAP2 PUSH1 0x1 ADD PUSH2 0x290E JUMP JUMPDEST DUP3 SLOAD PUSH1 0x1 PUSH1 0x1 PUSH1 0xA0 SHL SUB AND DUP5 MSTORE PUSH1 0x20 SWAP1 SWAP4 ADD SWAP3 PUSH1 0x1 SWAP3 DUP4 ADD SWAP3 ADD PUSH2 0x28DE JUMP JUMPDEST POP CALLVALUE PUSH2 0x1BF JUMPI PUSH1 0x20 CALLDATASIZE PUSH1 0x3 NOT ADD SLT PUSH2 0x1BF JUMPI PUSH1 0x4 CALLDATALOAD PUSH2 0x2987 PUSH1 0x1 DUP1 PUSH1 0xA0 SHL SUB PUSH1 0x6 SLOAD AND CALLER EQ PUSH2 0x2F12 JUMP JUMPDEST PUSH2 0x298F PUSH2 0x3457 JUMP JUMPDEST DUP1 DUP3 MSTORE PUSH1 0xE PUSH1 0x20 MSTORE PUSH1 0x40 DUP1 DUP4 KECCAK256 PUSH1 0x3 SLOAD PUSH1 0x9 DUP3 ADD SLOAD SWAP3 MLOAD PUSH4 0x68BCD8D PUSH1 0xE0 SHL DUP2 MSTORE PUSH1 0x4 DUP2 ADD SWAP4 SWAP1 SWAP4 MSTORE DUP5 SWAP1 DUP4 SWAP1 PUSH1 0x24 SWAP1 DUP3 SWAP1 PUSH1 0x1 PUSH1 0x1 PUSH1 0xA0 SHL SUB AND GAS STATICCALL SWAP2 DUP3 ISZERO PUSH2 0x1CE2 JUMPI DUP5 SWAP3 PUSH2 0x2AAD JUMPI JUMPDEST POP PUSH1 0x4 ADD SLOAD SWAP1 DUP2 ISZERO PUSH2 0x2A6F JUMPI PUSH1 0xA0 ADD MLOAD SWAP1 PUSH8 0xDE0B6B3A7640000 DUP2 MUL SWAP1 DUP2 DIV PUSH8 0xDE0B6B3A7640000 SUB PUSH2 0x243A JUMPI PUSH8 0xDE0B6B3A7640000 SWAP2 PUSH1 0x64 PUSH2 0x2A1E SWAP3 DIV SWAP1 PUSH2 0x30D2 JUMP JUMPDEST DIV DUP2 DUP4 MSTORE PUSH1 0xE PUSH1 0x20 MSTORE PUSH1 0x6 PUSH1 0x40 DUP5 KECCAK256 ADD SSTORE DUP1 DUP3 MSTORE PUSH1 0xE PUSH1 0x20 MSTORE PUSH2 0x2A58 PUSH1 0x6 PUSH1 0x40 DUP5 KECCAK256 ADD SLOAD DUP3 DUP5 MSTORE PUSH1 0xE PUSH1 0x20 MSTORE PUSH1 0x7 PUSH1 0x40 DUP6 KECCAK256 ADD SLOAD SWAP1 PUSH2 0x30FB JUMP JUMPDEST SWAP1 DUP3 MSTORE PUSH1 0xE PUSH1 0x20 MSTORE PUSH1 0x8 PUSH1 0x40 DUP4 KECCAK256 ADD SSTORE PUSH1 0x1 DUP2 SSTORE DUP1 RETURN JUMPDEST PUSH1 0x40 MLOAD PUSH3 0x461BCD PUSH1 0xE5 SHL DUP2 MSTORE PUSH1 0x20 PUSH1 0x4 DUP3 ADD MSTORE PUSH1 0x16 PUSH1 0x24 DUP3 ADD MSTORE PUSH22 0x496E76616C696420636F766572206361706163697479 PUSH1 0x50 SHL PUSH1 0x44 DUP3 ADD MSTORE PUSH1 0x64 SWAP1 REVERT JUMPDEST PUSH1 0x4 SWAP2 SWAP3 POP PUSH2 0x2AC5 SWAP1 RETURNDATASIZE DUP1 DUP8 DUP4 RETURNDATACOPY PUSH2 0xFC9 DUP2 DUP4 PUSH2 0x2D8B JUMP JUMPDEST SWAP2 SWAP1 PUSH2 0x29DA JUMP JUMPDEST SWAP1 POP CALLVALUE PUSH2 0x65E JUMPI PUSH1 0x40 CALLDATASIZE PUSH1 0x3 NOT ADD SLT PUSH2 0x65E JUMPI PUSH1 0x20 SWAP2 PUSH1 0x40 SWAP1 PUSH1 0x1 PUSH1 0x1 PUSH1 0xA0 SHL SUB PUSH2 0x2AF5 PUSH2 0x2B0C JUMP JUMPDEST AND DUP2 MSTORE PUSH1 0xC DUP5 MSTORE DUP2 DUP2 KECCAK256 PUSH1 0x24 CALLDATALOAD DUP3 MSTORE DUP5 MSTORE KECCAK256 SLOAD DUP2 MSTORE RETURN JUMPDEST PUSH1 0x4 CALLDATALOAD SWAP1 PUSH1 0x1 PUSH1 0x1 PUSH1 0xA0 SHL SUB DUP3 AND DUP3 SUB PUSH2 0x2B22 JUMPI JUMP JUMPDEST PUSH1 0x0 DUP1 REVERT JUMPDEST PUSH1 0x8 SLOAD DUP2 LT ISZERO PUSH2 0x2B42 JUMPI PUSH1 0x8 PUSH1 0x0 MSTORE PUSH1 0x20 PUSH1 0x0 KECCAK256 ADD SWAP1 PUSH1 0x0 SWAP1 JUMP JUMPDEST PUSH4 0x4E487B71 PUSH1 0xE0 SHL PUSH1 0x0 MSTORE PUSH1 0x32 PUSH1 0x4 MSTORE PUSH1 0x24 PUSH1 0x0 REVERT JUMPDEST PUSH1 0x10 SLOAD DUP2 LT ISZERO PUSH2 0x2B42 JUMPI PUSH1 0x10 PUSH1 0x0 MSTORE PUSH1 0x20 PUSH1 0x0 KECCAK256 ADD SWAP1 PUSH1 0x0 SWAP1 JUMP JUMPDEST PUSH1 0x0 JUMPDEST DUP4 DUP2 LT PUSH2 0x2B86 JUMPI POP POP PUSH1 0x0 SWAP2 ADD MSTORE JUMP JUMPDEST DUP2 DUP2 ADD MLOAD DUP4 DUP3 ADD MSTORE PUSH1 0x20 ADD PUSH2 0x2B76 JUMP JUMPDEST SWAP1 PUSH1 0x20 SWAP2 PUSH2 0x2BAF DUP2 MLOAD DUP1 SWAP3 DUP2 DUP6 MSTORE DUP6 DUP1 DUP7 ADD SWAP2 ADD PUSH2 0x2B73 JUMP JUMPDEST PUSH1 0x1F ADD PUSH1 0x1F NOT AND ADD ADD SWAP1 JUMP JUMPDEST SWAP1 PUSH1 0x3 DUP3 LT ISZERO PUSH2 0x2BC8 JUMPI MSTORE JUMP JUMPDEST PUSH4 0x4E487B71 PUSH1 0xE0 SHL PUSH1 0x0 MSTORE PUSH1 0x21 PUSH1 0x4 MSTORE PUSH1 0x24 PUSH1 0x0 REVERT JUMPDEST PUSH2 0x2C7D SWAP2 DUP2 MLOAD DUP2 MSTORE PUSH2 0x140 PUSH2 0x2C2B PUSH2 0x2C07 PUSH1 0x20 DUP6 ADD MLOAD PUSH2 0x160 PUSH1 0x20 DUP7 ADD MSTORE PUSH2 0x160 DUP6 ADD SWAP1 PUSH2 0x2B96 JUMP JUMPDEST PUSH2 0x2C19 PUSH1 0x40 DUP7 ADD MLOAD PUSH1 0x40 DUP7 ADD SWAP1 PUSH2 0x2BBB JUMP JUMPDEST PUSH1 0x60 DUP6 ADD MLOAD DUP5 DUP3 SUB PUSH1 0x60 DUP7 ADD MSTORE PUSH2 0x2B96 JUMP JUMPDEST SWAP3 PUSH1 0x80 DUP2 ADD MLOAD PUSH1 0x80 DUP5 ADD MSTORE PUSH1 0xA0 DUP2 ADD MLOAD PUSH1 0xA0 DUP5 ADD MSTORE PUSH1 0xC0 DUP2 ADD MLOAD PUSH1 0xC0 DUP5 ADD MSTORE PUSH1 0xE0 DUP2 ADD MLOAD PUSH1 0xE0 DUP5 ADD MSTORE PUSH2 0x100 DUP2 ADD MLOAD PUSH2 0x100 DUP5 ADD MSTORE PUSH2 0x120 DUP2 ADD MLOAD PUSH2 0x120 DUP5 ADD MSTORE ADD MLOAD SWAP1 PUSH2 0x140 DUP2 DUP5 SUB SWAP2 ADD MSTORE PUSH2 0x2B96 JUMP JUMPDEST SWAP1 JUMP JUMPDEST SWAP1 PUSH1 0x1 DUP3 DUP2 SHR SWAP3 AND DUP1 ISZERO PUSH2 0x2CB0 JUMPI JUMPDEST PUSH1 0x20 DUP4 LT EQ PUSH2 0x2C9A JUMPI JUMP JUMPDEST PUSH4 0x4E487B71 PUSH1 0xE0 SHL PUSH1 0x0 MSTORE PUSH1 0x22 PUSH1 0x4 MSTORE PUSH1 0x24 PUSH1 0x0 REVERT JUMPDEST SWAP2 PUSH1 0x7F AND SWAP2 PUSH2 0x2C8F JUMP JUMPDEST PUSH1 0x0 SWAP3 SWAP2 DUP2 SLOAD SWAP2 PUSH2 0x2CCA DUP4 PUSH2 0x2C80 JUMP JUMPDEST DUP1 DUP4 MSTORE SWAP3 PUSH1 0x1 DUP2 AND SWAP1 DUP2 ISZERO PUSH2 0x2D20 JUMPI POP PUSH1 0x1 EQ PUSH2 0x2CE6 JUMPI POP POP POP JUMP JUMPDEST PUSH1 0x0 SWAP1 DUP2 MSTORE PUSH1 0x20 DUP2 KECCAK256 SWAP4 SWAP5 POP SWAP2 SWAP3 JUMPDEST DUP4 DUP4 LT PUSH2 0x2D06 JUMPI POP PUSH1 0x20 SWAP3 POP ADD ADD SWAP1 JUMP JUMPDEST PUSH1 0x1 DUP2 PUSH1 0x20 SWAP3 SWAP5 SWAP4 SWAP5 SLOAD DUP4 DUP6 DUP8 ADD ADD MSTORE ADD SWAP2 ADD SWAP2 SWAP1 PUSH2 0x2CF5 JUMP JUMPDEST SWAP2 POP POP PUSH1 0x20 SWAP4 SWAP5 POP PUSH1 0xFF SWAP3 SWAP2 SWAP3 NOT AND DUP4 DUP4 ADD MSTORE ISZERO ISZERO PUSH1 0x5 SHL ADD ADD SWAP1 JUMP JUMPDEST PUSH2 0x120 DUP2 ADD SWAP1 DUP2 LT PUSH1 0x1 PUSH1 0x1 PUSH1 0x40 SHL SUB DUP3 GT OR PUSH2 0x2D59 JUMPI PUSH1 0x40 MSTORE JUMP JUMPDEST PUSH4 0x4E487B71 PUSH1 0xE0 SHL PUSH1 0x0 MSTORE PUSH1 0x41 PUSH1 0x4 MSTORE PUSH1 0x24 PUSH1 0x0 REVERT JUMPDEST PUSH2 0x160 DUP2 ADD SWAP1 DUP2 LT PUSH1 0x1 PUSH1 0x1 PUSH1 0x40 SHL SUB DUP3 GT OR PUSH2 0x2D59 JUMPI PUSH1 0x40 MSTORE JUMP JUMPDEST SWAP1 PUSH1 0x1F DUP1 NOT SWAP2 ADD AND DUP2 ADD SWAP1 DUP2 LT PUSH1 0x1 PUSH1 0x1 PUSH1 0x40 SHL SUB DUP3 GT OR PUSH2 0x2D59 JUMPI PUSH1 0x40 MSTORE JUMP JUMPDEST SWAP1 PUSH1 0x1 DUP1 PUSH1 0xA0 SHL SUB DUP3 MLOAD AND DUP2 MSTORE PUSH1 0x20 DUP3 ADD MLOAD PUSH1 0x20 DUP3 ADD MSTORE PUSH2 0x2DD5 PUSH1 0x40 DUP4 ADD MLOAD PUSH1 0x40 DUP4 ADD SWAP1 PUSH2 0x2BBB JUMP JUMPDEST PUSH2 0x100 DUP1 PUSH2 0x2DF4 PUSH1 0x60 DUP6 ADD MLOAD PUSH2 0x120 PUSH1 0x60 DUP7 ADD MSTORE PUSH2 0x120 DUP6 ADD SWAP1 PUSH2 0x2B96 JUMP JUMPDEST SWAP4 PUSH1 0x80 DUP2 ADD MLOAD PUSH1 0x80 DUP6 ADD MSTORE PUSH1 0xA0 DUP2 ADD MLOAD PUSH1 0xA0 DUP6 ADD MSTORE PUSH1 0xC0 DUP2 ADD MLOAD PUSH1 0xC0 DUP6 ADD MSTORE PUSH1 0xE0 DUP2 ADD MLOAD PUSH1 0xE0 DUP6 ADD MSTORE ADD MLOAD ISZERO ISZERO SWAP2 ADD MSTORE SWAP1 JUMP JUMPDEST PUSH1 0x1 PUSH1 0x1 PUSH1 0x40 SHL SUB DUP2 GT PUSH2 0x2D59 JUMPI PUSH1 0x1F ADD PUSH1 0x1F NOT AND PUSH1 0x20 ADD SWAP1 JUMP JUMPDEST DUP2 PUSH1 0x1F DUP3 ADD SLT ISZERO PUSH2 0x2B22 JUMPI DUP1 CALLDATALOAD SWAP1 PUSH2 0x2E59 DUP3 PUSH2 0x2E27 JUMP JUMPDEST SWAP3 PUSH2 0x2E67 PUSH1 0x40 MLOAD SWAP5 DUP6 PUSH2 0x2D8B JUMP JUMPDEST DUP3 DUP5 MSTORE PUSH1 0x20 DUP4 DUP4 ADD ADD GT PUSH2 0x2B22 JUMPI DUP2 PUSH1 0x0 SWAP3 PUSH1 0x20 DUP1 SWAP4 ADD DUP4 DUP7 ADD CALLDATACOPY DUP4 ADD ADD MSTORE SWAP1 JUMP JUMPDEST PUSH2 0x100 PUSH1 0x3 NOT DUP3 ADD SLT PUSH2 0x2B22 JUMPI PUSH1 0x4 CALLDATALOAD SWAP2 PUSH1 0x24 CALLDATALOAD PUSH1 0x1 PUSH1 0x1 PUSH1 0x40 SHL SUB DUP2 GT PUSH2 0x2B22 JUMPI DUP3 PUSH2 0x2EB8 SWAP2 PUSH1 0x4 ADD PUSH2 0x2E42 JUMP JUMPDEST SWAP2 PUSH1 0x44 CALLDATALOAD PUSH1 0x3 DUP2 LT ISZERO PUSH2 0x2B22 JUMPI SWAP2 PUSH1 0x64 CALLDATALOAD PUSH1 0x1 PUSH1 0x1 PUSH1 0x40 SHL SUB DUP2 GT PUSH2 0x2B22 JUMPI DUP3 PUSH2 0x2EE4 SWAP2 PUSH1 0x4 ADD PUSH2 0x2E42 JUMP JUMPDEST SWAP2 PUSH1 0x84 CALLDATALOAD SWAP1 PUSH1 0x1 PUSH1 0x1 PUSH1 0x40 SHL SUB DUP3 GT PUSH2 0x2B22 JUMPI PUSH2 0x2F03 SWAP2 PUSH1 0x4 ADD PUSH2 0x2E42 JUMP JUMPDEST SWAP1 PUSH1 0xA4 CALLDATALOAD SWAP1 PUSH1 0xC4 CALLDATALOAD SWAP1 PUSH1 0xE4 CALLDATALOAD SWAP1 JUMP JUMPDEST ISZERO PUSH2 0x2F19 JUMPI JUMP JUMPDEST PUSH1 0x40 MLOAD PUSH3 0x461BCD PUSH1 0xE5 SHL DUP2 MSTORE PUSH1 0x20 PUSH1 0x4 DUP3 ADD MSTORE PUSH1 0xE PUSH1 0x24 DUP3 ADD MSTORE PUSH14 0x139BDD08185D5D1A1BDC9A5E9959 PUSH1 0x92 SHL PUSH1 0x44 DUP3 ADD MSTORE PUSH1 0x64 SWAP1 REVERT JUMPDEST DUP2 PUSH1 0x1F DUP3 ADD SLT ISZERO PUSH2 0x2B22 JUMPI DUP1 MLOAD PUSH2 0x2F65 DUP2 PUSH2 0x2E27 JUMP JUMPDEST SWAP3 PUSH2 0x2F73 PUSH1 0x40 MLOAD SWAP5 DUP6 PUSH2 0x2D8B JUMP JUMPDEST DUP2 DUP5 MSTORE PUSH1 0x20 DUP3 DUP5 ADD ADD GT PUSH2 0x2B22 JUMPI PUSH2 0x2C7D SWAP2 PUSH1 0x20 DUP1 DUP6 ADD SWAP2 ADD PUSH2 0x2B73 JUMP JUMPDEST MLOAD SWAP1 PUSH1 0x1 PUSH1 0x1 PUSH1 0xA0 SHL SUB DUP3 AND DUP3 SUB PUSH2 0x2B22 JUMPI JUMP JUMPDEST PUSH1 0x20 DUP2 DUP4 SUB SLT PUSH2 0x2B22 JUMPI DUP1 MLOAD SWAP1 PUSH1 0x1 PUSH1 0x1 PUSH1 0x40 SHL SUB DUP3 GT PUSH2 0x2B22 JUMPI ADD PUSH2 0x1E0 DUP2 DUP4 SUB SLT PUSH2 0x2B22 JUMPI PUSH1 0x40 MLOAD SWAP2 PUSH2 0x1E0 DUP4 ADD DUP4 DUP2 LT PUSH1 0x1 PUSH1 0x1 PUSH1 0x40 SHL SUB DUP3 GT OR PUSH2 0x2D59 JUMPI PUSH1 0x40 MSTORE DUP2 MLOAD DUP4 MSTORE PUSH1 0x20 DUP3 ADD MLOAD SWAP1 PUSH1 0x1 PUSH1 0x1 PUSH1 0x40 SHL SUB DUP3 GT PUSH2 0x2B22 JUMPI PUSH2 0x300D SWAP2 DUP4 ADD PUSH2 0x2F4F JUMP JUMPDEST PUSH1 0x20 DUP4 ADD MSTORE PUSH1 0x40 DUP2 ADD MLOAD PUSH1 0x3 DUP2 LT ISZERO PUSH2 0x2B22 JUMPI PUSH1 0x40 DUP4 ADD MSTORE PUSH1 0x60 DUP2 ADD MLOAD PUSH1 0x60 DUP4 ADD MSTORE PUSH1 0x80 DUP2 ADD MLOAD PUSH1 0x80 DUP4 ADD MSTORE PUSH1 0xA0 DUP2 ADD MLOAD PUSH1 0xA0 DUP4 ADD MSTORE PUSH1 0xC0 DUP2 ADD MLOAD PUSH1 0xC0 DUP4 ADD MSTORE PUSH1 0xE0 DUP2 ADD MLOAD PUSH1 0xE0 DUP4 ADD MSTORE PUSH2 0x100 DUP2 ADD MLOAD PUSH2 0x100 DUP4 ADD MSTORE PUSH2 0x120 DUP2 ADD MLOAD DUP1 ISZERO ISZERO DUP2 SUB PUSH2 0x2B22 JUMPI PUSH2 0x120 DUP4 ADD MSTORE PUSH2 0x140 DUP2 ADD MLOAD PUSH2 0x140 DUP4 ADD MSTORE PUSH2 0x160 DUP2 ADD MLOAD PUSH2 0x160 DUP4 ADD MSTORE PUSH2 0x180 DUP2 ADD MLOAD SWAP1 PUSH1 0xFF DUP3 AND DUP3 SUB PUSH2 0x2B22 JUMPI PUSH2 0x1C0 SWAP2 PUSH2 0x180 DUP5 ADD MSTORE PUSH2 0x30B8 PUSH2 0x1A0 DUP3 ADD PUSH2 0x2F91 JUMP JUMPDEST PUSH2 0x1A0 DUP5 ADD MSTORE ADD MLOAD PUSH1 0x2 DUP2 LT ISZERO PUSH2 0x2B22 JUMPI PUSH2 0x1C0 DUP3 ADD MSTORE SWAP1 JUMP JUMPDEST DUP2 DUP2 MUL SWAP3 SWAP2 DUP2 ISZERO SWAP2 DUP5 DIV EQ OR ISZERO PUSH2 0x30E5 JUMPI JUMP JUMPDEST PUSH4 0x4E487B71 PUSH1 0xE0 SHL PUSH1 0x0 MSTORE PUSH1 0x11 PUSH1 0x4 MSTORE PUSH1 0x24 PUSH1 0x0 REVERT JUMPDEST SWAP2 SWAP1 DUP3 SUB SWAP2 DUP3 GT PUSH2 0x30E5 JUMPI JUMP JUMPDEST SWAP2 SWAP1 DUP3 PUSH2 0x120 SWAP2 SUB SLT PUSH2 0x2B22 JUMPI PUSH1 0x40 MLOAD PUSH2 0x3121 DUP2 PUSH2 0x2D3D JUMP JUMPDEST DUP1 SWAP3 PUSH2 0x312C DUP2 PUSH2 0x2F91 JUMP JUMPDEST DUP3 MSTORE PUSH1 0x20 DUP2 ADD MLOAD PUSH1 0x20 DUP4 ADD MSTORE PUSH1 0x40 DUP2 ADD MLOAD PUSH1 0x40 DUP4 ADD MSTORE PUSH1 0x60 DUP2 ADD MLOAD PUSH1 0x60 DUP4 ADD MSTORE PUSH1 0x80 DUP2 ADD MLOAD PUSH1 0x2 DUP2 LT ISZERO PUSH2 0x2B22 JUMPI PUSH2 0x100 SWAP2 DUP3 SWAP2 PUSH1 0x80 DUP6 ADD MSTORE PUSH1 0xA0 DUP2 ADD MLOAD PUSH1 0xA0 DUP6 ADD MSTORE PUSH1 0xC0 DUP2 ADD MLOAD PUSH1 0xC0 DUP6 ADD MSTORE PUSH1 0xE0 DUP2 ADD MLOAD PUSH1 0xE0 DUP6 ADD MSTORE ADD MLOAD SWAP2 ADD MSTORE JUMP JUMPDEST SWAP2 SWAP1 DUP3 ADD DUP1 SWAP3 GT PUSH2 0x30E5 JUMPI JUMP JUMPDEST PUSH1 0x3 DUP3 LT ISZERO PUSH2 0x2BC8 JUMPI MSTORE JUMP JUMPDEST SWAP1 PUSH1 0x3 DUP2 LT ISZERO PUSH2 0x2BC8 JUMPI PUSH1 0xFF DUP1 NOT DUP4 SLOAD AND SWAP2 AND OR SWAP1 SSTORE JUMP JUMPDEST DUP2 DUP2 LT PUSH2 0x31C6 JUMPI POP POP JUMP JUMPDEST PUSH1 0x0 DUP2 SSTORE PUSH1 0x1 ADD PUSH2 0x31BB JUMP JUMPDEST PUSH1 0x40 MLOAD SWAP1 PUSH2 0x31DF DUP3 PUSH2 0x2D6F JUMP JUMPDEST PUSH1 0x60 PUSH2 0x140 DUP4 PUSH1 0x0 DUP2 MSTORE DUP3 PUSH1 0x20 DUP3 ADD MSTORE PUSH1 0x0 PUSH1 0x40 DUP3 ADD MSTORE DUP3 DUP1 DUP3 ADD MSTORE PUSH1 0x0 PUSH1 0x80 DUP3 ADD MSTORE PUSH1 0x0 PUSH1 0xA0 DUP3 ADD MSTORE PUSH1 0x0 PUSH1 0xC0 DUP3 ADD MSTORE PUSH1 0x0 PUSH1 0xE0 DUP3 ADD MSTORE PUSH1 0x0 PUSH2 0x100 DUP3 ADD MSTORE PUSH1 0x0 PUSH2 0x120 DUP3 ADD MSTORE ADD MSTORE JUMP JUMPDEST PUSH1 0x0 NOT DUP2 EQ PUSH2 0x30E5 JUMPI PUSH1 0x1 ADD SWAP1 JUMP JUMPDEST PUSH1 0x1 PUSH1 0x1 PUSH1 0x40 SHL SUB DUP2 GT PUSH2 0x2D59 JUMPI PUSH1 0x5 SHL PUSH1 0x20 ADD SWAP1 JUMP JUMPDEST PUSH1 0x40 MLOAD SWAP1 PUSH2 0x325E DUP3 PUSH2 0x2D3D JUMP JUMPDEST PUSH1 0x0 PUSH2 0x100 DUP4 DUP3 DUP2 MSTORE DUP3 PUSH1 0x20 DUP3 ADD MSTORE DUP3 PUSH1 0x40 DUP3 ADD MSTORE PUSH1 0x60 DUP1 DUP3 ADD MSTORE DUP3 PUSH1 0x80 DUP3 ADD MSTORE DUP3 PUSH1 0xA0 DUP3 ADD MSTORE DUP3 PUSH1 0xC0 DUP3 ADD MSTORE DUP3 PUSH1 0xE0 DUP3 ADD MSTORE ADD MSTORE JUMP JUMPDEST DUP1 MLOAD ISZERO PUSH2 0x2B42 JUMPI PUSH1 0x20 ADD SWAP1 JUMP JUMPDEST DUP1 MLOAD DUP3 LT ISZERO PUSH2 0x2B42 JUMPI PUSH1 0x20 SWAP2 PUSH1 0x5 SHL ADD ADD SWAP1 JUMP JUMPDEST PUSH1 0x20 DUP2 DUP4 SUB SLT PUSH2 0x2B22 JUMPI DUP1 MLOAD SWAP1 PUSH1 0x1 PUSH1 0x1 PUSH1 0x40 SHL SUB DUP3 GT PUSH2 0x2B22 JUMPI ADD SWAP1 DUP1 PUSH1 0x1F DUP4 ADD SLT ISZERO PUSH2 0x2B22 JUMPI DUP2 MLOAD SWAP2 PUSH2 0x32EA DUP4 PUSH2 0x323A JUMP JUMPDEST SWAP3 PUSH2 0x32F8 PUSH1 0x40 MLOAD SWAP5 DUP6 PUSH2 0x2D8B JUMP JUMPDEST DUP1 DUP5 MSTORE PUSH1 0x20 DUP1 DUP6 ADD SWAP2 PUSH1 0x5 SHL DUP4 ADD ADD SWAP2 DUP4 DUP4 GT PUSH2 0x2B22 JUMPI PUSH1 0x20 DUP2 ADD SWAP2 JUMPDEST DUP4 DUP4 LT PUSH2 0x3324 JUMPI POP POP POP POP POP SWAP1 JUMP JUMPDEST DUP3 MLOAD PUSH1 0x1 PUSH1 0x1 PUSH1 0x40 SHL SUB DUP2 GT PUSH2 0x2B22 JUMPI DUP3 ADD SWAP1 PUSH2 0x160 DUP3 DUP8 SUB PUSH1 0x1F NOT ADD SLT PUSH2 0x2B22 JUMPI PUSH1 0x40 MLOAD SWAP1 PUSH2 0x3353 DUP3 PUSH2 0x2D6F JUMP JUMPDEST PUSH1 0x20 DUP4 ADD MLOAD DUP3 MSTORE PUSH1 0x40 DUP4 ADD MLOAD PUSH1 0x1 PUSH1 0x1 PUSH1 0x40 SHL SUB DUP2 GT PUSH2 0x2B22 JUMPI DUP8 PUSH1 0x20 PUSH2 0x337C SWAP3 DUP7 ADD ADD PUSH2 0x2F4F JUMP JUMPDEST PUSH1 0x20 DUP4 ADD MSTORE PUSH1 0x60 DUP4 ADD MLOAD PUSH1 0x3 DUP2 LT ISZERO PUSH2 0x2B22 JUMPI PUSH1 0x40 DUP4 ADD MSTORE PUSH1 0x80 DUP4 ADD MLOAD PUSH1 0x1 PUSH1 0x1 PUSH1 0x40 SHL SUB DUP2 GT PUSH2 0x2B22 JUMPI DUP8 PUSH1 0x20 PUSH2 0x33B6 SWAP3 DUP7 ADD ADD PUSH2 0x2F4F JUMP JUMPDEST PUSH1 0x60 DUP4 ADD MSTORE PUSH1 0xA0 DUP4 ADD MLOAD PUSH1 0x80 DUP4 ADD MSTORE PUSH1 0xC0 DUP4 ADD MLOAD PUSH1 0xA0 DUP4 ADD MSTORE PUSH1 0xE0 DUP4 ADD MLOAD PUSH1 0xC0 DUP4 ADD MSTORE PUSH2 0x100 DUP4 ADD MLOAD PUSH1 0xE0 DUP4 ADD MSTORE PUSH2 0x120 DUP4 ADD MLOAD PUSH2 0x100 DUP4 ADD MSTORE PUSH2 0x140 DUP4 ADD MLOAD PUSH2 0x120 DUP4 ADD MSTORE PUSH2 0x160 DUP4 ADD MLOAD SWAP2 PUSH1 0x1 PUSH1 0x1 PUSH1 0x40 SHL SUB DUP4 GT PUSH2 0x2B22 JUMPI PUSH2 0x3423 DUP9 PUSH1 0x20 DUP1 SWAP7 SWAP6 DUP2 SWAP7 ADD ADD PUSH2 0x2F4F JUMP JUMPDEST PUSH2 0x140 DUP3 ADD MSTORE DUP2 MSTORE ADD SWAP3 ADD SWAP2 PUSH2 0x3315 JUMP JUMPDEST SWAP3 SWAP2 PUSH1 0x20 PUSH2 0x344D PUSH2 0x3455 SWAP4 PUSH1 0x40 DUP8 MSTORE PUSH1 0x40 DUP8 ADD SWAP1 PUSH2 0x2B96 JUMP JUMPDEST SWAP5 ADD SWAP1 PUSH2 0x2BBB JUMP JUMPDEST JUMP JUMPDEST PUSH1 0x2 PUSH1 0x0 SLOAD EQ PUSH2 0x3468 JUMPI PUSH1 0x2 PUSH1 0x0 SSTORE JUMP JUMPDEST PUSH4 0x3EE5AEB5 PUSH1 0xE0 SHL PUSH1 0x0 MSTORE PUSH1 0x4 PUSH1 0x0 REVERT JUMPDEST PUSH1 0x1 SLOAD PUSH1 0x1 PUSH1 0x1 PUSH1 0xA0 SHL SUB AND CALLER SUB PUSH2 0x348D JUMPI JUMP JUMPDEST PUSH4 0x118CDAA7 PUSH1 0xE0 SHL PUSH1 0x0 MSTORE CALLER PUSH1 0x4 MSTORE PUSH1 0x24 PUSH1 0x0 REVERT INVALID LOG2 PUSH5 0x6970667358 0x22 SLT KECCAK256 EXTCODEHASH 0xC9 DUP8 SSTORE 0x4B PUSH8 0x26669D87EF1BE6B7 CALL TIMESTAMP PUSH6 0xF1BC16FA41B3 STATICCALL ORIGIN 0xF 0xBA 0xC 0xC CODESIZE 0xF6 CODECOPY PUSH5 0x736F6C6343 STOP ADDMOD SHR STOP CALLER "},"methodIdentifiers":{"LastVaultClaimTime(address,uint256)":"0db981a0","NextLpClaimTime(address,uint256)":"7a728e7f","bqBTC()":"34808ec3","bqBTCAddress()":"996b8a6f","claimPayoutForLP(uint256)":"2d8a340c","clamPayoutForVault(uint256)":"a650c232","coverCount()":"feb0b8f5","coverExists(uint256)":"782ea619","coverFeeBalance()":"357917b7","coverIds(uint256)":"fb643583","covers(uint256)":"6299df6c","createCover(uint256,string,uint8,string,string,uint256,uint256,uint256)":"9732bdb5","deleteExpiredUserCovers(address)":"bfc664f3","getAllAvailableCovers()":"93b1ad38","getAllParticipants()":"195ec9ee","getAllUserCovers(address)":"649718b2","getCoverFeeBalance()":"609c7604","getCoverInfo(uint256)":"62858bfa","getDepositClaimableDays(address,uint256)":"73cce3ee","getLastClaimTime(address,uint256)":"10525814","getUserCoverInfo(address,uint256)":"cadcb471","getUserParticipation(address)":"46f84795","governance()":"5aa6e675","lpAddress()":"9b4dc8cc","lpContract()":"8acee3cf","owner()":"8da5cb5b","participants(uint256)":"35c1d349","participation(address)":"96f3a8ad","purchaseCover(uint256,uint256,uint256,uint256)":"602710a4","renounceOwnership()":"715018a6","transferOwnership(address)":"f2fde38b","updateCover(uint256,string,uint8,string,string,uint256,uint256,uint256)":"8de4d101","updateMaxAmount(uint256)":"106b5da1","updateUserCoverValue(address,uint256,uint256)":"7ceb4a69","userCovers(address,uint256)":"9e7b399e"}}}}}