{"contracts/InsuranceCover.sol":{"InsuranceCover":{"abi":[{"inputs":[{"internalType":"address","name":"_lpContract","type":"address"},{"internalType":"address","name":"_initialOwner","type":"address"},{"internalType":"address","name":"_bqBTC","type":"address"}],"stateMutability":"nonpayable","type":"constructor"},{"inputs":[],"name":"CoverNotAvailable","type":"error"},{"inputs":[],"name":"InsufficientPoolBalance","type":"error"},{"inputs":[],"name":"InvalidAmount","type":"error"},{"inputs":[],"name":"InvalidCoverDuration","type":"error"},{"inputs":[],"name":"LpNotActive","type":"error"},{"inputs":[],"name":"NameAlreadyExists","type":"error"},{"inputs":[],"name":"NoClaimableReward","type":"error"},{"inputs":[{"internalType":"address","name":"owner","type":"address"}],"name":"OwnableInvalidOwner","type":"error"},{"inputs":[{"internalType":"address","name":"account","type":"address"}],"name":"OwnableUnauthorizedAccount","type":"error"},{"inputs":[],"name":"ReentrancyGuardReentrantCall","type":"error"},{"inputs":[],"name":"UnsupportedCoverType","type":"error"},{"inputs":[],"name":"UserHaveAlreadyPurchasedCover","type":"error"},{"inputs":[],"name":"WrongPool","type":"error"},{"anonymous":false,"inputs":[{"indexed":true,"internalType":"uint256","name":"coverId","type":"uint256"},{"indexed":false,"internalType":"string","name":"name","type":"string"},{"indexed":false,"internalType":"enum CoverLib.RiskType","name":"riskType","type":"uint8"}],"name":"CoverCreated","type":"event"},{"anonymous":false,"inputs":[{"indexed":true,"internalType":"address","name":"user","type":"address"},{"indexed":false,"internalType":"uint256","name":"coverValue","type":"uint256"},{"indexed":false,"internalType":"uint256","name":"coverFee","type":"uint256"},{"indexed":false,"internalType":"enum CoverLib.RiskType","name":"riskType","type":"uint8"}],"name":"CoverPurchased","type":"event"},{"anonymous":false,"inputs":[{"indexed":true,"internalType":"uint256","name":"coverId","type":"uint256"},{"indexed":false,"internalType":"string","name":"coverName","type":"string"},{"indexed":false,"internalType":"enum CoverLib.RiskType","name":"riskType","type":"uint8"}],"name":"CoverUpdated","type":"event"},{"anonymous":false,"inputs":[{"indexed":true,"internalType":"address","name":"previousOwner","type":"address"},{"indexed":true,"internalType":"address","name":"newOwner","type":"address"}],"name":"OwnershipTransferred","type":"event"},{"anonymous":false,"inputs":[{"indexed":true,"internalType":"address","name":"user","type":"address"},{"indexed":true,"internalType":"uint256","name":"poolId","type":"uint256"},{"indexed":false,"internalType":"uint256","name":"amount","type":"uint256"}],"name":"PayoutClaimed","type":"event"},{"inputs":[{"internalType":"address","name":"","type":"address"},{"internalType":"uint256","name":"","type":"uint256"}],"name":"LastVaultClaimTime","outputs":[{"internalType":"uint256","name":"","type":"uint256"}],"stateMutability":"view","type":"function"},{"inputs":[{"internalType":"address","name":"","type":"address"},{"internalType":"uint256","name":"","type":"uint256"}],"name":"NextLpClaimTime","outputs":[{"internalType":"uint256","name":"","type":"uint256"}],"stateMutability":"view","type":"function"},{"inputs":[],"name":"bqBTC","outputs":[{"internalType":"contract IbqBTC","name":"","type":"address"}],"stateMutability":"view","type":"function"},{"inputs":[],"name":"bqBTCAddress","outputs":[{"internalType":"address","name":"","type":"address"}],"stateMutability":"view","type":"function"},{"inputs":[{"internalType":"uint256","name":"_poolId","type":"uint256"}],"name":"claimPayoutForLP","outputs":[],"stateMutability":"nonpayable","type":"function"},{"inputs":[{"internalType":"uint256","name":"vaultId","type":"uint256"}],"name":"clamPayoutForVault","outputs":[],"stateMutability":"nonpayable","type":"function"},{"inputs":[],"name":"coverCount","outputs":[{"internalType":"uint256","name":"","type":"uint256"}],"stateMutability":"view","type":"function"},{"inputs":[{"internalType":"uint256","name":"","type":"uint256"}],"name":"coverExists","outputs":[{"internalType":"bool","name":"","type":"bool"}],"stateMutability":"view","type":"function"},{"inputs":[],"name":"coverFeeBalance","outputs":[{"internalType":"uint256","name":"","type":"uint256"}],"stateMutability":"view","type":"function"},{"inputs":[{"internalType":"uint256","name":"","type":"uint256"}],"name":"coverIds","outputs":[{"internalType":"uint256","name":"","type":"uint256"}],"stateMutability":"view","type":"function"},{"inputs":[{"internalType":"uint256","name":"","type":"uint256"}],"name":"covers","outputs":[{"internalType":"uint256","name":"id","type":"uint256"},{"internalType":"string","name":"coverName","type":"string"},{"internalType":"enum CoverLib.RiskType","name":"riskType","type":"uint8"},{"internalType":"string","name":"chains","type":"string"},{"internalType":"uint256","name":"capacity","type":"uint256"},{"internalType":"uint256","name":"cost","type":"uint256"},{"internalType":"uint256","name":"capacityAmount","type":"uint256"},{"internalType":"uint256","name":"coverValues","type":"uint256"},{"internalType":"uint256","name":"maxAmount","type":"uint256"},{"internalType":"uint256","name":"poolId","type":"uint256"},{"internalType":"string","name":"CID","type":"string"}],"stateMutability":"view","type":"function"},{"inputs":[{"internalType":"uint256","name":"coverId","type":"uint256"},{"internalType":"string","name":"_cid","type":"string"},{"internalType":"enum CoverLib.RiskType","name":"_riskType","type":"uint8"},{"internalType":"string","name":"_coverName","type":"string"},{"internalType":"string","name":"_chains","type":"string"},{"internalType":"uint256","name":"_capacity","type":"uint256"},{"internalType":"uint256","name":"_cost","type":"uint256"},{"internalType":"uint256","name":"_poolId","type":"uint256"}],"name":"createCover","outputs":[],"stateMutability":"nonpayable","type":"function"},{"inputs":[{"internalType":"address","name":"_user","type":"address"}],"name":"deleteExpiredUserCovers","outputs":[],"stateMutability":"nonpayable","type":"function"},{"inputs":[],"name":"getAllAvailableCovers","outputs":[{"components":[{"internalType":"uint256","name":"id","type":"uint256"},{"internalType":"string","name":"coverName","type":"string"},{"internalType":"enum CoverLib.RiskType","name":"riskType","type":"uint8"},{"internalType":"string","name":"chains","type":"string"},{"internalType":"uint256","name":"capacity","type":"uint256"},{"internalType":"uint256","name":"cost","type":"uint256"},{"internalType":"uint256","name":"capacityAmount","type":"uint256"},{"internalType":"uint256","name":"coverValues","type":"uint256"},{"internalType":"uint256","name":"maxAmount","type":"uint256"},{"internalType":"uint256","name":"poolId","type":"uint256"},{"internalType":"string","name":"CID","type":"string"}],"internalType":"struct CoverLib.Cover[]","name":"","type":"tuple[]"}],"stateMutability":"view","type":"function"},{"inputs":[],"name":"getAllParticipants","outputs":[{"internalType":"address[]","name":"","type":"address[]"}],"stateMutability":"view","type":"function"},{"inputs":[{"internalType":"address","name":"user","type":"address"}],"name":"getAllUserCovers","outputs":[{"components":[{"internalType":"address","name":"user","type":"address"},{"internalType":"uint256","name":"coverId","type":"uint256"},{"internalType":"enum CoverLib.RiskType","name":"riskType","type":"uint8"},{"internalType":"string","name":"coverName","type":"string"},{"internalType":"uint256","name":"coverValue","type":"uint256"},{"internalType":"uint256","name":"claimPaid","type":"uint256"},{"internalType":"uint256","name":"coverPeriod","type":"uint256"},{"internalType":"uint256","name":"endDay","type":"uint256"},{"internalType":"bool","name":"isActive","type":"bool"}],"internalType":"struct CoverLib.GenericCoverInfo[]","name":"","type":"tuple[]"}],"stateMutability":"view","type":"function"},{"inputs":[],"name":"getCoverFeeBalance","outputs":[{"internalType":"uint256","name":"","type":"uint256"}],"stateMutability":"view","type":"function"},{"inputs":[{"internalType":"uint256","name":"_coverId","type":"uint256"}],"name":"getCoverInfo","outputs":[{"components":[{"internalType":"uint256","name":"id","type":"uint256"},{"internalType":"string","name":"coverName","type":"string"},{"internalType":"enum CoverLib.RiskType","name":"riskType","type":"uint8"},{"internalType":"string","name":"chains","type":"string"},{"internalType":"uint256","name":"capacity","type":"uint256"},{"internalType":"uint256","name":"cost","type":"uint256"},{"internalType":"uint256","name":"capacityAmount","type":"uint256"},{"internalType":"uint256","name":"coverValues","type":"uint256"},{"internalType":"uint256","name":"maxAmount","type":"uint256"},{"internalType":"uint256","name":"poolId","type":"uint256"},{"internalType":"string","name":"CID","type":"string"}],"internalType":"struct CoverLib.Cover","name":"","type":"tuple"}],"stateMutability":"view","type":"function"},{"inputs":[{"internalType":"address","name":"user","type":"address"},{"internalType":"uint256","name":"_poolId","type":"uint256"}],"name":"getDepositClaimableDays","outputs":[{"internalType":"uint256","name":"","type":"uint256"}],"stateMutability":"view","type":"function"},{"inputs":[{"internalType":"address","name":"user","type":"address"},{"internalType":"uint256","name":"_poolId","type":"uint256"}],"name":"getLastClaimTime","outputs":[{"internalType":"uint256","name":"","type":"uint256"}],"stateMutability":"view","type":"function"},{"inputs":[{"internalType":"address","name":"user","type":"address"},{"internalType":"uint256","name":"_coverId","type":"uint256"}],"name":"getUserCoverInfo","outputs":[{"components":[{"internalType":"address","name":"user","type":"address"},{"internalType":"uint256","name":"coverId","type":"uint256"},{"internalType":"enum CoverLib.RiskType","name":"riskType","type":"uint8"},{"internalType":"string","name":"coverName","type":"string"},{"internalType":"uint256","name":"coverValue","type":"uint256"},{"internalType":"uint256","name":"claimPaid","type":"uint256"},{"internalType":"uint256","name":"coverPeriod","type":"uint256"},{"internalType":"uint256","name":"endDay","type":"uint256"},{"internalType":"bool","name":"isActive","type":"bool"}],"internalType":"struct CoverLib.GenericCoverInfo","name":"","type":"tuple"}],"stateMutability":"view","type":"function"},{"inputs":[{"internalType":"address","name":"user","type":"address"}],"name":"getUserParticipation","outputs":[{"internalType":"uint256","name":"","type":"uint256"}],"stateMutability":"view","type":"function"},{"inputs":[],"name":"governance","outputs":[{"internalType":"address","name":"","type":"address"}],"stateMutability":"view","type":"function"},{"inputs":[],"name":"lpAddress","outputs":[{"internalType":"address","name":"","type":"address"}],"stateMutability":"view","type":"function"},{"inputs":[],"name":"lpContract","outputs":[{"internalType":"contract ILP","name":"","type":"address"}],"stateMutability":"view","type":"function"},{"inputs":[],"name":"owner","outputs":[{"internalType":"address","name":"","type":"address"}],"stateMutability":"view","type":"function"},{"inputs":[{"internalType":"uint256","name":"","type":"uint256"}],"name":"participants","outputs":[{"internalType":"address","name":"","type":"address"}],"stateMutability":"view","type":"function"},{"inputs":[{"internalType":"address","name":"","type":"address"}],"name":"participation","outputs":[{"internalType":"uint256","name":"","type":"uint256"}],"stateMutability":"view","type":"function"},{"inputs":[{"internalType":"uint256","name":"_coverId","type":"uint256"},{"internalType":"uint256","name":"_coverValue","type":"uint256"},{"internalType":"uint256","name":"_coverPeriod","type":"uint256"},{"internalType":"uint256","name":"_coverFee","type":"uint256"}],"name":"purchaseCover","outputs":[],"stateMutability":"nonpayable","type":"function"},{"inputs":[],"name":"renounceOwnership","outputs":[],"stateMutability":"nonpayable","type":"function"},{"inputs":[{"internalType":"address","name":"newOwner","type":"address"}],"name":"transferOwnership","outputs":[],"stateMutability":"nonpayable","type":"function"},{"inputs":[{"internalType":"uint256","name":"_coverId","type":"uint256"},{"internalType":"string","name":"_coverName","type":"string"},{"internalType":"enum CoverLib.RiskType","name":"_riskType","type":"uint8"},{"internalType":"string","name":"_cid","type":"string"},{"internalType":"string","name":"_chains","type":"string"},{"internalType":"uint256","name":"_capacity","type":"uint256"},{"internalType":"uint256","name":"_cost","type":"uint256"},{"internalType":"uint256","name":"_poolId","type":"uint256"}],"name":"updateCover","outputs":[],"stateMutability":"nonpayable","type":"function"},{"inputs":[{"internalType":"uint256","name":"_coverId","type":"uint256"}],"name":"updateMaxAmount","outputs":[],"stateMutability":"nonpayable","type":"function"},{"inputs":[{"internalType":"address","name":"user","type":"address"},{"internalType":"uint256","name":"_coverId","type":"uint256"},{"internalType":"uint256","name":"_claimPaid","type":"uint256"}],"name":"updateUserCoverValue","outputs":[],"stateMutability":"nonpayable","type":"function"},{"inputs":[{"internalType":"address","name":"","type":"address"},{"internalType":"uint256","name":"","type":"uint256"}],"name":"userCovers","outputs":[{"internalType":"address","name":"user","type":"address"},{"internalType":"uint256","name":"coverId","type":"uint256"},{"internalType":"enum CoverLib.RiskType","name":"riskType","type":"uint8"},{"internalType":"string","name":"coverName","type":"string"},{"internalType":"uint256","name":"coverValue","type":"uint256"},{"internalType":"uint256","name":"claimPaid","type":"uint256"},{"internalType":"uint256","name":"coverPeriod","type":"uint256"},{"internalType":"uint256","name":"endDay","type":"uint256"},{"internalType":"bool","name":"isActive","type":"bool"}],"stateMutability":"view","type":"function"}],"evm":{"bytecode":{"linkReferences":{},"object":"60803461012857601f61356338819003918201601f19168301916001600160401b0383118484101761012d578084926060946040528339810103126101285761004781610143565b90610060604061005960208401610143565b9201610143565b60016000556001600160a01b0390911691821561011257600180546001600160a01b03198116851790915560405193906001600160a01b03167f8be0079c531659141344cd1fd0a4f28419497f9722a3daafe3b4186f6b6457e0600080a3600380546001600160a01b039283166001600160a01b031991821681179092556006805482169092179091556004805493909216928116831790915560058054909116909117905561340b90816101588239f35b631e4fbdf760e01b600052600060045260246000fd5b600080fd5b634e487b7160e01b600052604160045260246000fd5b51906001600160a01b03821682036101285756fe608080604052600436101561001357600080fd5b600090813560e01c9081630db981a014612ad5575080631052581414611b4b578063106b5da114612965578063195ec9ee1461289d5780632d8a340c146126b357806334808ec31461268a578063357917b71461210657806335c1d3491461264657806346f84795146110155780635aa6e6751461261d578063602710a414612124578063609c76041461210657806362858bfa146120965780636299df6c14611f7f578063649718b214611d52578063715018a614611cf557806373cce3ee14611bbd578063782ea61914611b8e5780637a728e7f14611b4b5780637ceb4a6914611ab35780638acee3cf14611a8a5780638da5cb5b14611a615780638de4d1011461127a57806393b1ad381461104e57806396f3a8ad146110155780639732bdb51461087b578063996b8a6f146108525780639b4dc8cc146108295780639e7b399e1461074c578063a650c232146104ae578063bfc664f314610370578063cadcb47114610285578063f2fde38b146101fc578063fb643583146101c25763feb0b8f5146101a257600080fd5b346101bf57806003193601126101bf576020600f54604051908152f35b80fd5b50346101bf5760203660031901126101bf57600435906010548210156101bf5760206101ed83612b61565b90549060031b1c604051908152f35b50346101bf5760203660031901126101bf57610216612b15565b61021e6133ac565b6001600160a01b0316801561027157600180546001600160a01b0319811683179091556001600160a01b03167f8be0079c531659141344cd1fd0a4f28419497f9722a3daafe3b4186f6b6457e08380a380f35b631e4fbdf760e01b82526004829052602482fd5b50346101bf5760403660031901126101bf57604061036c916102a5612b15565b6102ad613184565b5060018060a01b03168152600d60205281812060243582526020522060ff6008604051926102da84612d46565b80546001600160a01b03168452600181015460208501526002810154610305908416604086016130ca565b604051610320816103198160038601612cc3565b0382612d94565b606085015260048101546080850152600581015460a0850152600681015460c0850152600781015460e08501520154161515610100820152604051918291602083526020830190612db5565b0390f35b50346101bf5760203660031901126101bf5761038a612b15565b61039261338a565b6001600160a01b031660015b6010548110156104a657806103b4600192612b61565b90549060031b1c838552600d6020526040852081865260205260408520600881019081549060ff82169081610498575b506103f3575b5050500161039e565b60ff19169055838552600d60205260408520908552602052836008604082208281558285820155826002820155826003820161042f8154612c89565b80610458575b5050600482015582600582015582600682015582600782015501553880806103ea565b601f8111881461046d5750555b823880610435565b8183526020832061048891601f0160051c81019089016130ee565b8082528160208120915555610465565b6007915001544211386103e4565b826001815580f35b50346101bf5760203660031901126101bf576004356104cb61338a565b600354604051634122bbb360e11b815260048101839052336024820152908390829060449082906001600160a01b03165afa908115610741578391610698575b508290338452600c602052604084208385526020526040842054156000146106765761012c61055c60c061053e846131c8565b5101515b4260e061054e866131c8565b510151421161066257613023565b049380925b82518410156105965761058e60019161058888606061058089896131d5565b510151612ffa565b906130bd565b930192610561565b8490338352600c602052604083208284526020524260408420558260018060a01b0360045416803b1561065e57604051637104a76d60e11b8152336004820152602481018490529082908290604490829084905af180156106535761063a575b505061060481600254613023565b6002556040519081527f0408e6e0b73daf4c873106e95fd067260fbff8bf9d1b499cad563d4480d45bac60203392a36001815580f35b8161064491612d94565b61064f5782846105f6565b8280fd5b6040513d84823e3d90fd5b5080fd5b5060e061066e856131c8565b510151613023565b338452600c6020526040842083855260205261012c61055c6040862054610542565b90503d8084833e6106a98183612d94565b810190602081830312610739578051906001600160401b03821161073d570181601f820112156107395780516106de8161316d565b926106ec6040519485612d94565b818452602061012081860193028401019281841161073557602001915b83831061071a57505050503861050b565b60206101209161072a8486613030565b815201920191610709565b8680fd5b8380fd5b8480fd5b6040513d85823e3d90fd5b50346101bf5760403660031901126101bf576040906001600160a01b03610771612b15565b168152600d60205281812060243582526020522060018060a01b0381541660018201549160ff600282015416604051916107b9836107b28160038501612cc3565b0384612d94565b60048101549260058201546108086006840154926107f560ff6008600788015497015416966040519a8b9a8b5260208b015260408a0190612bc4565b6101206060890152610120880190612b9f565b94608087015260a086015260c085015260e084015215156101008301520390f35b50346101bf57806003193601126101bf576006546040516001600160a01b039091168152602090f35b50346101bf57806003193601126101bf576005546040516001600160a01b039091168152602090f35b50346101bf5761088a36612e92565b61089a98979394969592986133ac565b6003546040516307eb111f60e41b815260048101839052956001600160a01b0390911692908987602481875afa96871561100a578a97610fe6575b5096996020890197908a5b88518110156109665760206108f5828b6131d5565b510151604051610926602082816109158183019687815193849201612b7c565b81010301601f198101835282612d94565b5190208a8c6109476020604051809361091583830196879251928391612b7c565b51902014610957576001016108e0565b633480a50360e21b8c5260048cfd5b508a9850899697508b60405163068bcd8d60e01b81528560048201528a816024818a5afa8015610fdb578b8c928d92610fac575b5060038a1015610f98576003811015610f9857891490811591610f8e575b50610f7f57670de0b6b3a76400008302838104670de0b6b3a76400001484151715610f6b576109f58c926064670de0b6b3a7640000930490612ffa565b0496803b1561065e5781809160446040518094819363a4948d8560e01b83528c60048401528960248401525af1801561065357610f52575b5050610a3a600f5461315e565b600f5560405195610a4a87612d78565b89875260208701948986526040880193610a648a866130ca565b60608901958652608089015260a08801528060c08801528a60e088015261010087015284610120870152610140860152878952600e602052604089209285518455518051906001600160401b038211610f3e57610ac46001860154612c89565b601f8111610f0b575b50602090601f8311600114610ea257610afe92918c9183610e97575b50508160011b916000199060031b1c19161790565b60018401555b516003811015610e8357610b1b90600284016130d6565b518051906001600160401b038211610dc557610b3a6003840154612c89565b601f8111610e50575b50602090601f8311600114610de4579180610b7792600a95948c92610dd95750508160011b916000199060031b1c19161790565b60038201555b6080840151600482015560a0840151600582015560c0840151600682015560e0840151600782015561010084015160088201556101208401516009820155016101408301518051906001600160401b038211610dc557610bdd8354612c89565b601f8111610d8a575b50602090601f8311600114610d2757610c1692918a9183610d1c5750508160011b916000199060031b1c19161790565b90555b601054600160401b811015610d085790610c3b82600189959401601055612b61565b8154600391821b89811b60001990911b1990911617909155546001600160a01b031691823b1561073957610c95928492836040518096819582946331eaa61d60e21b84526004840152604060248401526044830190612be7565b03925af1801561065357610cf3575b5091837f5928d65cc6ae9f07a7673f1a5a2f98d81f1bb0c2bc53bcaa33d6f11cf426f25e9352600a60205260408520600160ff19825416179055610ced60405192839283613367565b0390a280f35b81610cfd91612d94565b610739578385610ca4565b634e487b7160e01b87526041600452602487fd5b015190508a80610ae9565b838a52818a209190601f1984168b5b818110610d725750908460019594939210610d59575b505050811b019055610c19565b015160001960f88460031b161c19169055898080610d4c565b92936020600181928786015181550195019301610d36565b610db590848b5260208b20601f850160051c81019160208610610dbb575b601f0160051c01906130ee565b89610be6565b9091508190610da8565b634e487b7160e01b89526041600452602489fd5b015190508b80610ae9565b600384018a52818a209190601f1984168b5b818110610e385750916001939185600a97969410610e1f575b505050811b016003820155610b7d565b015160001960f88460031b161c191690558a8080610e0f565b92936020600181928786015181550195019301610df6565b610e7d90600385018b5260208b20601f850160051c81019160208610610dbb57601f0160051c01906130ee565b89610b43565b634e487b7160e01b89526021600452602489fd5b015190508c80610ae9565b600186018c52818c209190601f1984168d5b818110610ef35750908460019594939210610eda575b505050811b016001840155610b04565b015160001960f88460031b161c191690558b8080610eca565b92936020600181928786015181550195019301610eb4565b610f3890600187018d5260208d20601f850160051c81019160208610610dbb57601f0160051c01906130ee565b8b610acd565b634e487b7160e01b8b52604160045260248bfd5b81610f5c91612d94565b610f6757898b610a2d565b8980fd5b634e487b7160e01b8c52601160045260248cfd5b6369e489f560e11b8b5260048bfd5b905083118c6109b8565b634e487b7160e01b8d52602160045260248dfd5b915050610fcb91503d808d833e610fc38183612d94565b810190612f9a565b955050929150509091908d61099a565b6040513d8d823e3d90fd5b6110039197503d808c833e610ffb8183612d94565b8101906131e9565b95386108d5565b6040513d8c823e3d90fd5b50346101bf5760203660031901126101bf576020906040906001600160a01b0361103d612b15565b168152600983522054604051908152f35b50346101bf57806003193601126101bf578081601054905b81811061123a57506110778261316d565b916110856040519384612d94565b808352611094601f199161316d565b01835b81811061122357505082835b8281106111115783856040519182916020830160208452825180915260408401602060408360051b870101940192905b8282106110e257505050500390f35b919360019193955060206111018192603f198a82030186528851612be7565b96019201920185949391926110d3565b61111a81612b61565b90549060031b1c808652600a60205260ff60408720541661113f575b506001016110a3565b6001919261121c918752600e60205260408720600a6111fb6040519261116484612d78565b8054845260405161117b81610319818b8601612cc3565b602085015261119460ff600283015416604086016130ca565b6040516111a8816103198160038601612cc3565b606085015260048101546080850152600581015460a0850152600681015460c0850152600781015460e0850152600881015461010085015260098101546101208501526103196040518094819301612cc3565b61014082015261120b82886131d5565b5261121681876131d5565b5061315e565b9190611136565b60209061122e613105565b82828701015201611097565b61124381612b61565b90549060031b1c8452600a60205260ff604085205416611266575b600101611066565b9161127260019161315e565b92905061125e565b50346101bf57602461128b36612e92565b61129e99979695929998919493986133ac565b60018060a01b036003541699888b6040519485809263068bcd8d60e01b82528660048301525afa8015611a5657898a948b92611a2d575b506003861015611a19576003811015611a1957851490811591611a0f575b50611a0057878952600e6020526040892092670de0b6b3a76400008202828104670de0b6b3a764000014831517156119ec57670de0b6b3a764000091606461133c920490612ffa565b0490816007850154116119dd578960249a9b9c6040519b8c80926307eb111f60e41b82528760048301525afa998a15610fdb578b9a6119c1575b50959a6020880196908b5b8b5181101561141b578b8b828c8c602061139b84876131d5565b5101516040516113bb602082816109158183019687815193849201612b7c565b519020916113db6020604051809361091583830196879251928391612b7c565b519020149283611404575b5050506113f557600101611381565b633480a50360e21b8d5260048dfd5b61140f9293506131d5565b515114158b828e6113e6565b508b98969997508c60048601549188516001600160401b038111611905578b61144760018a0154612c89565b601f811161198e575b505060208c601f83116001146119245761147f929182611919575b508160011b916000199060031b1c19161790565b60018801555b80516001600160401b038111611905578b6114a360038a0154612c89565b601f81116118d2575b50506020918c601f8311600114611864576114dd939091836118595750508160011b916000199060031b1c19161790565b60038701555b826004870155600586015589516001600160401b0381116118455761150b600a870154612c89565b601f8111611812575b506020601f82116001146117a1579080611549928c9d8d9a9b9c9d926117965750508160011b916000199060031b1c19161790565b600a8601555b600685019183835561156d6009870194868655600788015490613023565b600887019081559181811115611722579061158791613023565b6003546001600160a01b031690813b1561171e578791604483926040519485938492639fd36b1560e01b84528b600485015260248401525af19081156117135787916116fa575b50505b6003546001600160a01b031691823b156107355786946116a38692600a604051998a9889978896630a14764d60e41b885260048801526040602488015282546044880152610160606488015261165b6116316101a4890160018601612cc3565b61164660ff60028701541660848b0190612bc4565b8881036043190160a48a015260038501612cc3565b600484015460c4890152600584015460e48901529454610104880152600783015461012488015254610144870152546101648601528483036043190161018486015201612cc3565b03925af18015610653576116e5575b50507f758a67328ba53c1867c0272bbd2ca10d6fe71d37120188c523fe7ae7bdbbe46991610ced60405192839283613367565b816116ef91612d94565b6107395783856116b2565b8161170491612d94565b61170f57858b6115ce565b8580fd5b6040513d89823e3d90fd5b8780fd5b818110611731575b50506115d1565b61173a91613023565b6003546001600160a01b031690813b1561171e57879160448392604051948593849263a4948d8560e01b84528b600485015260248401525af19081156117135787911561172a578161178b91612d94565b61170f57858b61172a565b015190508d80610ae9565b600a87018b52808b209b8b5b601f19841681106117fa57509b82918c9d600194601f9e9b9c9d9e198116106117e1575b505050811b01600a86015561154f565b015160001960f88460031b161c191690558c80806117d1565b828201518e556001909d019c602092830192016117ad565b61183f90600a88018c5260208c20601f840160051c81019160208510610dbb57601f0160051c01906130ee565b8b611514565b634e487b7160e01b8a52604160045260248afd5b015190508e80610ae9565b5091600389018d52808d20908d935b601f19841685106118b7576001945083601f1981161061189e575b505050811b0160038701556114e3565b015160001960f88460031b161c191690558d808061188e565b81810151835560209485019460019093019290910190611873565b60206118fe9260038c01815220601f840160051c81019160208510610dbb57601f0160051c01906130ee565b8b8e6114ac565b634e487b7160e01b8c52604160045260248cfd5b90508b01518f61146b565b5090600189018d52818d208d925b8c601f198416851061197757506001935082601f1981161061195e575b5050811b016001880155611485565b8c015160001960f88460031b161c191690558e8061194f565b810151825560209384019360019092019101611932565b60206119ba9260018c01815220601f840160051c81019160208510610dbb57601f0160051c01906130ee565b8b8e611450565b6119d6919a503d808d833e610ffb8183612d94565b9838611376565b6369e489f560e11b8a5260048afd5b634e487b7160e01b8b52601160045260248bfd5b6369e489f560e11b8952600489fd5b90508111386112f3565b634e487b7160e01b8b52602160045260248bfd5b915050611a459193503d808b833e610fc38183612d94565b9795505092915050909390386112d5565b6040513d8b823e3d90fd5b50346101bf57806003193601126101bf576001546040516001600160a01b039091168152602090f35b50346101bf57806003193601126101bf576003546040516001600160a01b039091168152602090f35b50346101bf5760603660031901126101bf57611acd612b15565b60243560443591611ae960018060a01b03600754163314612f1b565b611af161338a565b60018060a01b0316808452600d6020526040842082855260205260046040852001611b1d848254613023565b90558352600d60205260408320908352602052611b42600560408420019182546130bd565b90556001815580f35b50346101bf5760403660031901126101bf576020906040906001600160a01b03611b73612b15565b168152600b8352818120602435825283522054604051908152f35b50346101bf5760203660031901126101bf5760ff60406020926004358152600a84522054166040519015158152f35b50346101bf5760403660031901126101bf57611bd7612b15565b600354604051631381549160e21b815260248035600483018190526001600160a01b0385811692840192909252919391926101209185916044918391165afa928315611cea578493611c9e575b506001600160a01b0316808452600b602090815260408086208487528252852054909461012c94611c7494909392611c855750505060c0810151905b60e042910151804211611c7d575b50613023565b04604051908152f35b905038611c6e565b6040928252600b87528282209082528652205490611c60565b9092506101203d8111611ce3575b611cb68183612d94565b8101906101208183031261073d5791602094611cd961012c9593611c7495613030565b9450945091611c24565b503d611cac565b6040513d86823e3d90fd5b50346101bf57806003193601126101bf57611d0e6133ac565b600180546001600160a01b0319811690915581906001600160a01b03167f8be0079c531659141344cd1fd0a4f28419497f9722a3daafe3b4186f6b6457e08280a380f35b50346101bf5760203660031901126101bf57611d6c612b15565b60105482916001600160a01b0316825b828110611f345750611d8d8361316d565b92611d9b6040519485612d94565b808452611daa601f199161316d565b01845b818110611f1d57505083845b838110611e275784866040519182916020830160208452825180915260408401602060408360051b870101940192905b828210611df857505050500390f35b91936001919395506020611e178192603f198a82030186528851612db5565b9601920192018594939192611de9565b611e3081612b61565b90549060031b1c838752600d602052604087208188526020526004604088200154611e5f575b50600101611db9565b60019192611f1691858952600d602052604089209089526020526040882060ff600860405192611e8e84612d46565b868060a01b038154168452868101546020850152611eb583600283015416604086016130ca565b604051611ec9816103198160038601612cc3565b606085015260048101546080850152600581015460a0850152600681015460c0850152600781015460e08501520154161515610100820152611f0b82896131d5565b5261121681886131d5565b9190611e56565b602090611f28613184565b82828801015201611dad565b611f3d81612b61565b90549060031b1c828652600d602052604086209086526020526004604086200154611f6b575b600101611d7c565b92611f7760019161315e565b939050611f63565b50346101bf5760203660031901126101bf576004358152600e6020526040902080546040519182806001830190611fb591612cc3565b03611fc09084612d94565b60028101546040519060ff1681611fda8160038601612cc3565b03611fe59083612d94565b6004830154916005840154600685015460078601549160088701549360098801549560405180600a819b019061201a91612cc3565b03612025908a612d94565b6040519a8b9a8b5260208b0161016090526101608b0161204491612b9f565b9060408b0161205291612bc4565b89810360608b015261206391612b9f565b95608089015260a088015260c087015260e086015261010085015261012084015282810361014084015261036c91612b9f565b50346101bf5760203660031901126101bf57604061036c916120b6613105565b506004358152600e60205220600a6120ec604051926120d484612d78565b8054845260405161117b816103198160018601612cc3565b610140820152604051918291602083526020830190612be7565b50346101bf57806003193601126101bf576020600254604051908152f35b50346101bf5760803660031901126101bf5760443560043561214461338a565b6064351561260e57601b8211801590612602575b6125f357808352600a60205260ff604084205416156125e457808352600e6020526040832091600883018054602435116125d5576007840161219d60243582546130bd565b60068601805482116125c65760045488906001600160a01b0316803b1561065e57604051632770a7eb60e21b815233600482015260643560248201529082908290604490829084905af18015610653576125b1575b505081612205935554611c6e8282613023565b9055338452600d602052604084208285526020526004604085200154156000146125a25760ff6002840154169062015180810281810462015180148215171561258e5761225290426130bd565b6040519361225f85612d46565b33855260208501938185526122786040870191826130ca565b604051906122948261228d8160018c01612cc3565b0383612d94565b606087019182526080870192602435845260a08801948a865260c0890196875260e08901526001610100890152338a52600d60205260408a20908a52602052604089209560018060a01b038851166bffffffffffffffffffffffff60a01b885416178755516001870155516003811015610e835761231590600287016130d6565b518051906001600160401b038211610dc5576123346003870154612c89565b601f811161255b575b50602090601f83116001146124e657826101009795936008979593612377938d926124db5750508160011b916000199060031b1c19161790565b60038501555b51600484015551600583015551600682015560e0840151600782015501910151151560ff80198354169116179055818290600854915b8281106124a8575b5015612456575b5033825260096020526040822080549060018201809211612442579160029160ff93556123f260643583546130bd565b825501541661241560405191602435835260643560208401526040830190612bc4565b7f23b0f39e0762759ffb18632a1a2b79c9eb58571454e5f7c36e0a2f81759e0a3460603392a26001815580f35b634e487b7160e01b84526011600452602484fd5b600160401b811015612494578060016124729201600855612b30565b81546001600160a01b0360039290921b91821b19163390911b179055386123c2565b634e487b7160e01b83526041600452602483fd5b6124b181612b30565b905460039190911b1c6001600160a01b031633146124d1576001016123b3565b50506001386123bb565b015190503880610ae9565b90600387018a52808a20918a5b601f1985168110612543575092600896949260019261010099979583601f1981161061252a575b505050811b01600385015561237d565b015160001960f88460031b161c1916905538808061251a565b919260206001819286850151815501940192016124f3565b61258890600388018b5260208b20601f850160051c81019160208610610dbb57601f0160051c01906130ee565b3861233d565b634e487b7160e01b86526011600452602486fd5b639857cbd960e01b8452600484fd5b816125bb91612d94565b61171e5787386121f2565b63bc6072f160e01b8852600488fd5b63bc6072f160e01b8552600485fd5b63bccd404360e01b8352600483fd5b631f89958960e11b8352600483fd5b5061016e821015612158565b63162908e360e11b8352600483fd5b50346101bf57806003193601126101bf576007546040516001600160a01b039091168152602090f35b50346101bf5760203660031901126101bf57600435906008548210156101bf57602061267183612b30565b905460405160039290921b1c6001600160a01b03168152f35b50346101bf57806003193601126101bf576004546040516001600160a01b039091168152602090f35b50346101bf5760203660031901126101bf576004356126d061338a565b600354604051631381549160e21b8152600481018390523360248201529061012090829060449082906001600160a01b03165afa908115610741578391612863575b506080810151600281101561284f5761284057338352600b6020526040832082845260205260408320541560001461281e5761012c61276360c08301515b4260e0850151804211611c7d5750613023565b0490811561280f57906060612779920151612ffa565b600254811161280057338352600b6020526040832082845260205242604084205560018060a01b0360045416803b1561073957604051637104a76d60e11b8152336004820152602481018390529084908290604490829084905af18015611cea576127ec575b5061060481600254613023565b836127f991949294612d94565b91386127df565b63bc6072f160e01b8352600483fd5b63ed700a6760e01b8452600484fd5b338352600b6020526040832082845260205261012c6127636040852054612750565b63e067835f60e01b8352600483fd5b634e487b7160e01b84526021600452602484fd5b90506101203d8111612896575b61287a8183612d94565b8101610120828203126107395761289091613030565b38612712565b503d612870565b50346101bf57806003193601126101bf5760405180602060085491828152018091600885527ff3f7a9fe364faab93b216da50a3214154f22a0a2b415b23a84c8169e8b636ee390855b81811061294657505050826128fc910383612d94565b604051928392602084019060208552518091526040840192915b818110612924575050500390f35b82516001600160a01b0316845285945060209384019390920191600101612916565b82546001600160a01b03168452602090930192600192830192016128e6565b50346101bf5760203660031901126101bf5760043561298f60018060a01b03600654163314612f1b565b61299761338a565b808252600e60205260408083206003546009820154925163068bcd8d60e01b815260048101939093528490839060249082906001600160a01b03165afa918215611cea578492612aaf575b50600401548015612a7157670de0b6b3a76400008102908104670de0b6b3a76400000361244257670de0b6b3a7640000916064612a20920490612ffa565b04818352600e6020526006604084200155808252600e602052612a5a6006604084200154828452600e602052600760408520015490613023565b908252600e60205260086040832001556001815580f35b60405162461bcd60e51b8152602060048201526016602482015275496e76616c696420636f76657220636170616369747960501b6044820152606490fd5b6004919250612ac7903d8087833e610fc38183612d94565b5050935050505091906129e2565b90503461065e57604036600319011261065e576020916040906001600160a01b03612afe612b15565b168152600c84528181206024358252845220548152f35b600435906001600160a01b0382168203612b2b57565b600080fd5b600854811015612b4b57600860005260206000200190600090565b634e487b7160e01b600052603260045260246000fd5b601054811015612b4b57601060005260206000200190600090565b60005b838110612b8f5750506000910152565b8181015183820152602001612b7f565b90602091612bb881518092818552858086019101612b7c565b601f01601f1916010190565b906003821015612bd15752565b634e487b7160e01b600052602160045260246000fd5b612c869181518152610140612c34612c1060208501516101606020860152610160850190612b9f565b612c2260408601516040860190612bc4565b60608501518482036060860152612b9f565b926080810151608084015260a081015160a084015260c081015160c084015260e081015160e0840152610100810151610100840152610120810151610120840152015190610140818403910152612b9f565b90565b90600182811c92168015612cb9575b6020831014612ca357565b634e487b7160e01b600052602260045260246000fd5b91607f1691612c98565b60009291815491612cd383612c89565b8083529260018116908115612d295750600114612cef57505050565b60009081526020812093945091925b838310612d0f575060209250010190565b600181602092949394548385870101520191019190612cfe565b915050602093945060ff929192191683830152151560051b010190565b61012081019081106001600160401b03821117612d6257604052565b634e487b7160e01b600052604160045260246000fd5b61016081019081106001600160401b03821117612d6257604052565b90601f801991011681019081106001600160401b03821117612d6257604052565b9060018060a01b03825116815260208201516020820152612dde60408301516040830190612bc4565b61010080612dfd60608501516101206060860152610120850190612b9f565b936080810151608085015260a081015160a085015260c081015160c085015260e081015160e08501520151151591015290565b6001600160401b038111612d6257601f01601f191660200190565b81601f82011215612b2b57803590612e6282612e30565b92612e706040519485612d94565b82845260208383010111612b2b57816000926020809301838601378301015290565b610100600319820112612b2b57600435916024356001600160401b038111612b2b5782612ec191600401612e4b565b916044356003811015612b2b57916064356001600160401b038111612b2b5782612eed91600401612e4b565b91608435906001600160401b038211612b2b57612f0c91600401612e4b565b9060a4359060c4359060e43590565b15612f2257565b60405162461bcd60e51b815260206004820152600e60248201526d139bdd08185d5d1a1bdc9a5e995960921b6044820152606490fd5b81601f82011215612b2b578051612f6e81612e30565b92612f7c6040519485612d94565b81845260208284010111612b2b57612c869160208085019101612b7c565b9060e082820312612b2b578151906001600160401b038211612b2b57612fc1918301612f58565b9160208201516003811015612b2b579160408101519160608201519160808101519160a08201518015158103612b2b5760c09092015190565b8181029291811591840414171561300d57565b634e487b7160e01b600052601160045260246000fd5b9190820391821161300d57565b919082610120910312612b2b5760405161304981612d46565b8251909283916001600160a01b0381168103612b2b57825260208101516020830152604081015160408301526060810151606083015260808101516002811015612b2b57610100918291608085015260a081015160a085015260c081015160c085015260e081015160e08501520151910152565b9190820180921161300d57565b6003821015612bd15752565b906003811015612bd15760ff80198354169116179055565b8181106130f9575050565b600081556001016130ee565b6040519061311282612d78565b6060610140836000815282602082015260006040820152828082015260006080820152600060a0820152600060c0820152600060e0820152600061010082015260006101208201520152565b600019811461300d5760010190565b6001600160401b038111612d625760051b60200190565b6040519061319182612d46565b6000610100838281528260208201528260408201526060808201528260808201528260a08201528260c08201528260e08201520152565b805115612b4b5760200190565b8051821015612b4b5760209160051b010190565b602081830312612b2b578051906001600160401b038211612b2b57019080601f83011215612b2b5781519161321d8361316d565b9261322b6040519485612d94565b80845260208085019160051b83010191838311612b2b5760208101915b83831061325757505050505090565b82516001600160401b038111612b2b57820190610160828703601f190112612b2b576040519061328682612d78565b6020830151825260408301516001600160401b038111612b2b578760206132af92860101612f58565b602083015260608301516003811015612b2b57604083015260808301516001600160401b038111612b2b578760206132e992860101612f58565b606083015260a0830151608083015260c083015160a083015260e083015160c083015261010083015160e0830152610120830151610100830152610140830151610120830152610160830151916001600160401b038311612b2b5761335688602080969581960101612f58565b610140820152815201920191613248565b9291602061338061338893604087526040870190612b9f565b940190612bc4565b565b60026000541461339b576002600055565b633ee5aeb560e01b60005260046000fd5b6001546001600160a01b031633036133c057565b63118cdaa760e01b6000523360045260246000fdfea26469706673582212204ba5e90a864aabc595a70d8cf2a28fb80900b274520893b96dfc36222a6fcbc464736f6c634300081b0033","opcodes":"PUSH1 0x80 CALLVALUE PUSH2 0x128 JUMPI PUSH1 0x1F PUSH2 0x3563 CODESIZE DUP2 SWAP1 SUB SWAP2 DUP3 ADD PUSH1 0x1F NOT AND DUP4 ADD SWAP2 PUSH1 0x1 PUSH1 0x1 PUSH1 0x40 SHL SUB DUP4 GT DUP5 DUP5 LT OR PUSH2 0x12D JUMPI DUP1 DUP5 SWAP3 PUSH1 0x60 SWAP5 PUSH1 0x40 MSTORE DUP4 CODECOPY DUP2 ADD SUB SLT PUSH2 0x128 JUMPI PUSH2 0x47 DUP2 PUSH2 0x143 JUMP JUMPDEST SWAP1 PUSH2 0x60 PUSH1 0x40 PUSH2 0x59 PUSH1 0x20 DUP5 ADD PUSH2 0x143 JUMP JUMPDEST SWAP3 ADD PUSH2 0x143 JUMP JUMPDEST PUSH1 0x1 PUSH1 0x0 SSTORE PUSH1 0x1 PUSH1 0x1 PUSH1 0xA0 SHL SUB SWAP1 SWAP2 AND SWAP2 DUP3 ISZERO PUSH2 0x112 JUMPI PUSH1 0x1 DUP1 SLOAD PUSH1 0x1 PUSH1 0x1 PUSH1 0xA0 SHL SUB NOT DUP2 AND DUP6 OR SWAP1 SWAP2 SSTORE PUSH1 0x40 MLOAD SWAP4 SWAP1 PUSH1 0x1 PUSH1 0x1 PUSH1 0xA0 SHL SUB AND PUSH32 0x8BE0079C531659141344CD1FD0A4F28419497F9722A3DAAFE3B4186F6B6457E0 PUSH1 0x0 DUP1 LOG3 PUSH1 0x3 DUP1 SLOAD PUSH1 0x1 PUSH1 0x1 PUSH1 0xA0 SHL SUB SWAP3 DUP4 AND PUSH1 0x1 PUSH1 0x1 PUSH1 0xA0 SHL SUB NOT SWAP2 DUP3 AND DUP2 OR SWAP1 SWAP3 SSTORE PUSH1 0x6 DUP1 SLOAD DUP3 AND SWAP1 SWAP3 OR SWAP1 SWAP2 SSTORE PUSH1 0x4 DUP1 SLOAD SWAP4 SWAP1 SWAP3 AND SWAP3 DUP2 AND DUP4 OR SWAP1 SWAP2 SSTORE PUSH1 0x5 DUP1 SLOAD SWAP1 SWAP2 AND SWAP1 SWAP2 OR SWAP1 SSTORE PUSH2 0x340B SWAP1 DUP2 PUSH2 0x158 DUP3 CODECOPY RETURN JUMPDEST PUSH4 0x1E4FBDF7 PUSH1 0xE0 SHL PUSH1 0x0 MSTORE PUSH1 0x0 PUSH1 0x4 MSTORE PUSH1 0x24 PUSH1 0x0 REVERT JUMPDEST PUSH1 0x0 DUP1 REVERT JUMPDEST PUSH4 0x4E487B71 PUSH1 0xE0 SHL PUSH1 0x0 MSTORE PUSH1 0x41 PUSH1 0x4 MSTORE PUSH1 0x24 PUSH1 0x0 REVERT JUMPDEST MLOAD SWAP1 PUSH1 0x1 PUSH1 0x1 PUSH1 0xA0 SHL SUB DUP3 AND DUP3 SUB PUSH2 0x128 JUMPI JUMP INVALID PUSH1 0x80 DUP1 PUSH1 0x40 MSTORE PUSH1 0x4 CALLDATASIZE LT ISZERO PUSH2 0x13 JUMPI PUSH1 0x0 DUP1 REVERT JUMPDEST PUSH1 0x0 SWAP1 DUP2 CALLDATALOAD PUSH1 0xE0 SHR SWAP1 DUP2 PUSH4 0xDB981A0 EQ PUSH2 0x2AD5 JUMPI POP DUP1 PUSH4 0x10525814 EQ PUSH2 0x1B4B JUMPI DUP1 PUSH4 0x106B5DA1 EQ PUSH2 0x2965 JUMPI DUP1 PUSH4 0x195EC9EE EQ PUSH2 0x289D JUMPI DUP1 PUSH4 0x2D8A340C EQ PUSH2 0x26B3 JUMPI DUP1 PUSH4 0x34808EC3 EQ PUSH2 0x268A JUMPI DUP1 PUSH4 0x357917B7 EQ PUSH2 0x2106 JUMPI DUP1 PUSH4 0x35C1D349 EQ PUSH2 0x2646 JUMPI DUP1 PUSH4 0x46F84795 EQ PUSH2 0x1015 JUMPI DUP1 PUSH4 0x5AA6E675 EQ PUSH2 0x261D JUMPI DUP1 PUSH4 0x602710A4 EQ PUSH2 0x2124 JUMPI DUP1 PUSH4 0x609C7604 EQ PUSH2 0x2106 JUMPI DUP1 PUSH4 0x62858BFA EQ PUSH2 0x2096 JUMPI DUP1 PUSH4 0x6299DF6C EQ PUSH2 0x1F7F JUMPI DUP1 PUSH4 0x649718B2 EQ PUSH2 0x1D52 JUMPI DUP1 PUSH4 0x715018A6 EQ PUSH2 0x1CF5 JUMPI DUP1 PUSH4 0x73CCE3EE EQ PUSH2 0x1BBD JUMPI DUP1 PUSH4 0x782EA619 EQ PUSH2 0x1B8E JUMPI DUP1 PUSH4 0x7A728E7F EQ PUSH2 0x1B4B JUMPI DUP1 PUSH4 0x7CEB4A69 EQ PUSH2 0x1AB3 JUMPI DUP1 PUSH4 0x8ACEE3CF EQ PUSH2 0x1A8A JUMPI DUP1 PUSH4 0x8DA5CB5B EQ PUSH2 0x1A61 JUMPI DUP1 PUSH4 0x8DE4D101 EQ PUSH2 0x127A JUMPI DUP1 PUSH4 0x93B1AD38 EQ PUSH2 0x104E JUMPI DUP1 PUSH4 0x96F3A8AD EQ PUSH2 0x1015 JUMPI DUP1 PUSH4 0x9732BDB5 EQ PUSH2 0x87B JUMPI DUP1 PUSH4 0x996B8A6F EQ PUSH2 0x852 JUMPI DUP1 PUSH4 0x9B4DC8CC EQ PUSH2 0x829 JUMPI DUP1 PUSH4 0x9E7B399E EQ PUSH2 0x74C JUMPI DUP1 PUSH4 0xA650C232 EQ PUSH2 0x4AE JUMPI DUP1 PUSH4 0xBFC664F3 EQ PUSH2 0x370 JUMPI DUP1 PUSH4 0xCADCB471 EQ PUSH2 0x285 JUMPI DUP1 PUSH4 0xF2FDE38B EQ PUSH2 0x1FC JUMPI DUP1 PUSH4 0xFB643583 EQ PUSH2 0x1C2 JUMPI PUSH4 0xFEB0B8F5 EQ PUSH2 0x1A2 JUMPI PUSH1 0x0 DUP1 REVERT JUMPDEST CALLVALUE PUSH2 0x1BF JUMPI DUP1 PUSH1 0x3 NOT CALLDATASIZE ADD SLT PUSH2 0x1BF JUMPI PUSH1 0x20 PUSH1 0xF SLOAD PUSH1 0x40 MLOAD SWAP1 DUP2 MSTORE RETURN JUMPDEST DUP1 REVERT JUMPDEST POP CALLVALUE PUSH2 0x1BF JUMPI PUSH1 0x20 CALLDATASIZE PUSH1 0x3 NOT ADD SLT PUSH2 0x1BF JUMPI PUSH1 0x4 CALLDATALOAD SWAP1 PUSH1 0x10 SLOAD DUP3 LT ISZERO PUSH2 0x1BF JUMPI PUSH1 0x20 PUSH2 0x1ED DUP4 PUSH2 0x2B61 JUMP JUMPDEST SWAP1 SLOAD SWAP1 PUSH1 0x3 SHL SHR PUSH1 0x40 MLOAD SWAP1 DUP2 MSTORE RETURN JUMPDEST POP CALLVALUE PUSH2 0x1BF JUMPI PUSH1 0x20 CALLDATASIZE PUSH1 0x3 NOT ADD SLT PUSH2 0x1BF JUMPI PUSH2 0x216 PUSH2 0x2B15 JUMP JUMPDEST PUSH2 0x21E PUSH2 0x33AC JUMP JUMPDEST PUSH1 0x1 PUSH1 0x1 PUSH1 0xA0 SHL SUB AND DUP1 ISZERO PUSH2 0x271 JUMPI PUSH1 0x1 DUP1 SLOAD PUSH1 0x1 PUSH1 0x1 PUSH1 0xA0 SHL SUB NOT DUP2 AND DUP4 OR SWAP1 SWAP2 SSTORE PUSH1 0x1 PUSH1 0x1 PUSH1 0xA0 SHL SUB AND PUSH32 0x8BE0079C531659141344CD1FD0A4F28419497F9722A3DAAFE3B4186F6B6457E0 DUP4 DUP1 LOG3 DUP1 RETURN JUMPDEST PUSH4 0x1E4FBDF7 PUSH1 0xE0 SHL DUP3 MSTORE PUSH1 0x4 DUP3 SWAP1 MSTORE PUSH1 0x24 DUP3 REVERT JUMPDEST POP CALLVALUE PUSH2 0x1BF JUMPI PUSH1 0x40 CALLDATASIZE PUSH1 0x3 NOT ADD SLT PUSH2 0x1BF JUMPI PUSH1 0x40 PUSH2 0x36C SWAP2 PUSH2 0x2A5 PUSH2 0x2B15 JUMP JUMPDEST PUSH2 0x2AD PUSH2 0x3184 JUMP JUMPDEST POP PUSH1 0x1 DUP1 PUSH1 0xA0 SHL SUB AND DUP2 MSTORE PUSH1 0xD PUSH1 0x20 MSTORE DUP2 DUP2 KECCAK256 PUSH1 0x24 CALLDATALOAD DUP3 MSTORE PUSH1 0x20 MSTORE KECCAK256 PUSH1 0xFF PUSH1 0x8 PUSH1 0x40 MLOAD SWAP3 PUSH2 0x2DA DUP5 PUSH2 0x2D46 JUMP JUMPDEST DUP1 SLOAD PUSH1 0x1 PUSH1 0x1 PUSH1 0xA0 SHL SUB AND DUP5 MSTORE PUSH1 0x1 DUP2 ADD SLOAD PUSH1 0x20 DUP6 ADD MSTORE PUSH1 0x2 DUP2 ADD SLOAD PUSH2 0x305 SWAP1 DUP5 AND PUSH1 0x40 DUP7 ADD PUSH2 0x30CA JUMP JUMPDEST PUSH1 0x40 MLOAD PUSH2 0x320 DUP2 PUSH2 0x319 DUP2 PUSH1 0x3 DUP7 ADD PUSH2 0x2CC3 JUMP JUMPDEST SUB DUP3 PUSH2 0x2D94 JUMP JUMPDEST PUSH1 0x60 DUP6 ADD MSTORE PUSH1 0x4 DUP2 ADD SLOAD PUSH1 0x80 DUP6 ADD MSTORE PUSH1 0x5 DUP2 ADD SLOAD PUSH1 0xA0 DUP6 ADD MSTORE PUSH1 0x6 DUP2 ADD SLOAD PUSH1 0xC0 DUP6 ADD MSTORE PUSH1 0x7 DUP2 ADD SLOAD PUSH1 0xE0 DUP6 ADD MSTORE ADD SLOAD AND ISZERO ISZERO PUSH2 0x100 DUP3 ADD MSTORE PUSH1 0x40 MLOAD SWAP2 DUP3 SWAP2 PUSH1 0x20 DUP4 MSTORE PUSH1 0x20 DUP4 ADD SWAP1 PUSH2 0x2DB5 JUMP JUMPDEST SUB SWAP1 RETURN JUMPDEST POP CALLVALUE PUSH2 0x1BF JUMPI PUSH1 0x20 CALLDATASIZE PUSH1 0x3 NOT ADD SLT PUSH2 0x1BF JUMPI PUSH2 0x38A PUSH2 0x2B15 JUMP JUMPDEST PUSH2 0x392 PUSH2 0x338A JUMP JUMPDEST PUSH1 0x1 PUSH1 0x1 PUSH1 0xA0 SHL SUB AND PUSH1 0x1 JUMPDEST PUSH1 0x10 SLOAD DUP2 LT ISZERO PUSH2 0x4A6 JUMPI DUP1 PUSH2 0x3B4 PUSH1 0x1 SWAP3 PUSH2 0x2B61 JUMP JUMPDEST SWAP1 SLOAD SWAP1 PUSH1 0x3 SHL SHR DUP4 DUP6 MSTORE PUSH1 0xD PUSH1 0x20 MSTORE PUSH1 0x40 DUP6 KECCAK256 DUP2 DUP7 MSTORE PUSH1 0x20 MSTORE PUSH1 0x40 DUP6 KECCAK256 PUSH1 0x8 DUP2 ADD SWAP1 DUP2 SLOAD SWAP1 PUSH1 0xFF DUP3 AND SWAP1 DUP2 PUSH2 0x498 JUMPI JUMPDEST POP PUSH2 0x3F3 JUMPI JUMPDEST POP POP POP ADD PUSH2 0x39E JUMP JUMPDEST PUSH1 0xFF NOT AND SWAP1 SSTORE DUP4 DUP6 MSTORE PUSH1 0xD PUSH1 0x20 MSTORE PUSH1 0x40 DUP6 KECCAK256 SWAP1 DUP6 MSTORE PUSH1 0x20 MSTORE DUP4 PUSH1 0x8 PUSH1 0x40 DUP3 KECCAK256 DUP3 DUP2 SSTORE DUP3 DUP6 DUP3 ADD SSTORE DUP3 PUSH1 0x2 DUP3 ADD SSTORE DUP3 PUSH1 0x3 DUP3 ADD PUSH2 0x42F DUP2 SLOAD PUSH2 0x2C89 JUMP JUMPDEST DUP1 PUSH2 0x458 JUMPI JUMPDEST POP POP PUSH1 0x4 DUP3 ADD SSTORE DUP3 PUSH1 0x5 DUP3 ADD SSTORE DUP3 PUSH1 0x6 DUP3 ADD SSTORE DUP3 PUSH1 0x7 DUP3 ADD SSTORE ADD SSTORE CODESIZE DUP1 DUP1 PUSH2 0x3EA JUMP JUMPDEST PUSH1 0x1F DUP2 GT DUP9 EQ PUSH2 0x46D JUMPI POP SSTORE JUMPDEST DUP3 CODESIZE DUP1 PUSH2 0x435 JUMP JUMPDEST DUP2 DUP4 MSTORE PUSH1 0x20 DUP4 KECCAK256 PUSH2 0x488 SWAP2 PUSH1 0x1F ADD PUSH1 0x5 SHR DUP2 ADD SWAP1 DUP10 ADD PUSH2 0x30EE JUMP JUMPDEST DUP1 DUP3 MSTORE DUP2 PUSH1 0x20 DUP2 KECCAK256 SWAP2 SSTORE SSTORE PUSH2 0x465 JUMP JUMPDEST PUSH1 0x7 SWAP2 POP ADD SLOAD TIMESTAMP GT CODESIZE PUSH2 0x3E4 JUMP JUMPDEST DUP3 PUSH1 0x1 DUP2 SSTORE DUP1 RETURN JUMPDEST POP CALLVALUE PUSH2 0x1BF JUMPI PUSH1 0x20 CALLDATASIZE PUSH1 0x3 NOT ADD SLT PUSH2 0x1BF JUMPI PUSH1 0x4 CALLDATALOAD PUSH2 0x4CB PUSH2 0x338A JUMP JUMPDEST PUSH1 0x3 SLOAD PUSH1 0x40 MLOAD PUSH4 0x4122BBB3 PUSH1 0xE1 SHL DUP2 MSTORE PUSH1 0x4 DUP2 ADD DUP4 SWAP1 MSTORE CALLER PUSH1 0x24 DUP3 ADD MSTORE SWAP1 DUP4 SWAP1 DUP3 SWAP1 PUSH1 0x44 SWAP1 DUP3 SWAP1 PUSH1 0x1 PUSH1 0x1 PUSH1 0xA0 SHL SUB AND GAS STATICCALL SWAP1 DUP2 ISZERO PUSH2 0x741 JUMPI DUP4 SWAP2 PUSH2 0x698 JUMPI JUMPDEST POP DUP3 SWAP1 CALLER DUP5 MSTORE PUSH1 0xC PUSH1 0x20 MSTORE PUSH1 0x40 DUP5 KECCAK256 DUP4 DUP6 MSTORE PUSH1 0x20 MSTORE PUSH1 0x40 DUP5 KECCAK256 SLOAD ISZERO PUSH1 0x0 EQ PUSH2 0x676 JUMPI PUSH2 0x12C PUSH2 0x55C PUSH1 0xC0 PUSH2 0x53E DUP5 PUSH2 0x31C8 JUMP JUMPDEST MLOAD ADD MLOAD JUMPDEST TIMESTAMP PUSH1 0xE0 PUSH2 0x54E DUP7 PUSH2 0x31C8 JUMP JUMPDEST MLOAD ADD MLOAD TIMESTAMP GT PUSH2 0x662 JUMPI PUSH2 0x3023 JUMP JUMPDEST DIV SWAP4 DUP1 SWAP3 JUMPDEST DUP3 MLOAD DUP5 LT ISZERO PUSH2 0x596 JUMPI PUSH2 0x58E PUSH1 0x1 SWAP2 PUSH2 0x588 DUP9 PUSH1 0x60 PUSH2 0x580 DUP10 DUP10 PUSH2 0x31D5 JUMP JUMPDEST MLOAD ADD MLOAD PUSH2 0x2FFA JUMP JUMPDEST SWAP1 PUSH2 0x30BD JUMP JUMPDEST SWAP4 ADD SWAP3 PUSH2 0x561 JUMP JUMPDEST DUP5 SWAP1 CALLER DUP4 MSTORE PUSH1 0xC PUSH1 0x20 MSTORE PUSH1 0x40 DUP4 KECCAK256 DUP3 DUP5 MSTORE PUSH1 0x20 MSTORE TIMESTAMP PUSH1 0x40 DUP5 KECCAK256 SSTORE DUP3 PUSH1 0x1 DUP1 PUSH1 0xA0 SHL SUB PUSH1 0x4 SLOAD AND DUP1 EXTCODESIZE ISZERO PUSH2 0x65E JUMPI PUSH1 0x40 MLOAD PUSH4 0x7104A76D PUSH1 0xE1 SHL DUP2 MSTORE CALLER PUSH1 0x4 DUP3 ADD MSTORE PUSH1 0x24 DUP2 ADD DUP5 SWAP1 MSTORE SWAP1 DUP3 SWAP1 DUP3 SWAP1 PUSH1 0x44 SWAP1 DUP3 SWAP1 DUP5 SWAP1 GAS CALL DUP1 ISZERO PUSH2 0x653 JUMPI PUSH2 0x63A JUMPI JUMPDEST POP POP PUSH2 0x604 DUP2 PUSH1 0x2 SLOAD PUSH2 0x3023 JUMP JUMPDEST PUSH1 0x2 SSTORE PUSH1 0x40 MLOAD SWAP1 DUP2 MSTORE PUSH32 0x408E6E0B73DAF4C873106E95FD067260FBFF8BF9D1B499CAD563D4480D45BAC PUSH1 0x20 CALLER SWAP3 LOG3 PUSH1 0x1 DUP2 SSTORE DUP1 RETURN JUMPDEST DUP2 PUSH2 0x644 SWAP2 PUSH2 0x2D94 JUMP JUMPDEST PUSH2 0x64F JUMPI DUP3 DUP5 PUSH2 0x5F6 JUMP JUMPDEST DUP3 DUP1 REVERT JUMPDEST PUSH1 0x40 MLOAD RETURNDATASIZE DUP5 DUP3 RETURNDATACOPY RETURNDATASIZE SWAP1 REVERT JUMPDEST POP DUP1 REVERT JUMPDEST POP PUSH1 0xE0 PUSH2 0x66E DUP6 PUSH2 0x31C8 JUMP JUMPDEST MLOAD ADD MLOAD PUSH2 0x3023 JUMP JUMPDEST CALLER DUP5 MSTORE PUSH1 0xC PUSH1 0x20 MSTORE PUSH1 0x40 DUP5 KECCAK256 DUP4 DUP6 MSTORE PUSH1 0x20 MSTORE PUSH2 0x12C PUSH2 0x55C PUSH1 0x40 DUP7 KECCAK256 SLOAD PUSH2 0x542 JUMP JUMPDEST SWAP1 POP RETURNDATASIZE DUP1 DUP5 DUP4 RETURNDATACOPY PUSH2 0x6A9 DUP2 DUP4 PUSH2 0x2D94 JUMP JUMPDEST DUP2 ADD SWAP1 PUSH1 0x20 DUP2 DUP4 SUB SLT PUSH2 0x739 JUMPI DUP1 MLOAD SWAP1 PUSH1 0x1 PUSH1 0x1 PUSH1 0x40 SHL SUB DUP3 GT PUSH2 0x73D JUMPI ADD DUP2 PUSH1 0x1F DUP3 ADD SLT ISZERO PUSH2 0x739 JUMPI DUP1 MLOAD PUSH2 0x6DE DUP2 PUSH2 0x316D JUMP JUMPDEST SWAP3 PUSH2 0x6EC PUSH1 0x40 MLOAD SWAP5 DUP6 PUSH2 0x2D94 JUMP JUMPDEST DUP2 DUP5 MSTORE PUSH1 0x20 PUSH2 0x120 DUP2 DUP7 ADD SWAP4 MUL DUP5 ADD ADD SWAP3 DUP2 DUP5 GT PUSH2 0x735 JUMPI PUSH1 0x20 ADD SWAP2 JUMPDEST DUP4 DUP4 LT PUSH2 0x71A JUMPI POP POP POP POP CODESIZE PUSH2 0x50B JUMP JUMPDEST PUSH1 0x20 PUSH2 0x120 SWAP2 PUSH2 0x72A DUP5 DUP7 PUSH2 0x3030 JUMP JUMPDEST DUP2 MSTORE ADD SWAP3 ADD SWAP2 PUSH2 0x709 JUMP JUMPDEST DUP7 DUP1 REVERT JUMPDEST DUP4 DUP1 REVERT JUMPDEST DUP5 DUP1 REVERT JUMPDEST PUSH1 0x40 MLOAD RETURNDATASIZE DUP6 DUP3 RETURNDATACOPY RETURNDATASIZE SWAP1 REVERT JUMPDEST POP CALLVALUE PUSH2 0x1BF JUMPI PUSH1 0x40 CALLDATASIZE PUSH1 0x3 NOT ADD SLT PUSH2 0x1BF JUMPI PUSH1 0x40 SWAP1 PUSH1 0x1 PUSH1 0x1 PUSH1 0xA0 SHL SUB PUSH2 0x771 PUSH2 0x2B15 JUMP JUMPDEST AND DUP2 MSTORE PUSH1 0xD PUSH1 0x20 MSTORE DUP2 DUP2 KECCAK256 PUSH1 0x24 CALLDATALOAD DUP3 MSTORE PUSH1 0x20 MSTORE KECCAK256 PUSH1 0x1 DUP1 PUSH1 0xA0 SHL SUB DUP2 SLOAD AND PUSH1 0x1 DUP3 ADD SLOAD SWAP2 PUSH1 0xFF PUSH1 0x2 DUP3 ADD SLOAD AND PUSH1 0x40 MLOAD SWAP2 PUSH2 0x7B9 DUP4 PUSH2 0x7B2 DUP2 PUSH1 0x3 DUP6 ADD PUSH2 0x2CC3 JUMP JUMPDEST SUB DUP5 PUSH2 0x2D94 JUMP JUMPDEST PUSH1 0x4 DUP2 ADD SLOAD SWAP3 PUSH1 0x5 DUP3 ADD SLOAD PUSH2 0x808 PUSH1 0x6 DUP5 ADD SLOAD SWAP3 PUSH2 0x7F5 PUSH1 0xFF PUSH1 0x8 PUSH1 0x7 DUP9 ADD SLOAD SWAP8 ADD SLOAD AND SWAP7 PUSH1 0x40 MLOAD SWAP11 DUP12 SWAP11 DUP12 MSTORE PUSH1 0x20 DUP12 ADD MSTORE PUSH1 0x40 DUP11 ADD SWAP1 PUSH2 0x2BC4 JUMP JUMPDEST PUSH2 0x120 PUSH1 0x60 DUP10 ADD MSTORE PUSH2 0x120 DUP9 ADD SWAP1 PUSH2 0x2B9F JUMP JUMPDEST SWAP5 PUSH1 0x80 DUP8 ADD MSTORE PUSH1 0xA0 DUP7 ADD MSTORE PUSH1 0xC0 DUP6 ADD MSTORE PUSH1 0xE0 DUP5 ADD MSTORE ISZERO ISZERO PUSH2 0x100 DUP4 ADD MSTORE SUB SWAP1 RETURN JUMPDEST POP CALLVALUE PUSH2 0x1BF JUMPI DUP1 PUSH1 0x3 NOT CALLDATASIZE ADD SLT PUSH2 0x1BF JUMPI PUSH1 0x6 SLOAD PUSH1 0x40 MLOAD PUSH1 0x1 PUSH1 0x1 PUSH1 0xA0 SHL SUB SWAP1 SWAP2 AND DUP2 MSTORE PUSH1 0x20 SWAP1 RETURN JUMPDEST POP CALLVALUE PUSH2 0x1BF JUMPI DUP1 PUSH1 0x3 NOT CALLDATASIZE ADD SLT PUSH2 0x1BF JUMPI PUSH1 0x5 SLOAD PUSH1 0x40 MLOAD PUSH1 0x1 PUSH1 0x1 PUSH1 0xA0 SHL SUB SWAP1 SWAP2 AND DUP2 MSTORE PUSH1 0x20 SWAP1 RETURN JUMPDEST POP CALLVALUE PUSH2 0x1BF JUMPI PUSH2 0x88A CALLDATASIZE PUSH2 0x2E92 JUMP JUMPDEST PUSH2 0x89A SWAP9 SWAP8 SWAP4 SWAP5 SWAP7 SWAP6 SWAP3 SWAP9 PUSH2 0x33AC JUMP JUMPDEST PUSH1 0x3 SLOAD PUSH1 0x40 MLOAD PUSH4 0x7EB111F PUSH1 0xE4 SHL DUP2 MSTORE PUSH1 0x4 DUP2 ADD DUP4 SWAP1 MSTORE SWAP6 PUSH1 0x1 PUSH1 0x1 PUSH1 0xA0 SHL SUB SWAP1 SWAP2 AND SWAP3 SWAP1 DUP10 DUP8 PUSH1 0x24 DUP2 DUP8 GAS STATICCALL SWAP7 DUP8 ISZERO PUSH2 0x100A JUMPI DUP11 SWAP8 PUSH2 0xFE6 JUMPI JUMPDEST POP SWAP7 SWAP10 PUSH1 0x20 DUP10 ADD SWAP8 SWAP1 DUP11 JUMPDEST DUP9 MLOAD DUP2 LT ISZERO PUSH2 0x966 JUMPI PUSH1 0x20 PUSH2 0x8F5 DUP3 DUP12 PUSH2 0x31D5 JUMP JUMPDEST MLOAD ADD MLOAD PUSH1 0x40 MLOAD PUSH2 0x926 PUSH1 0x20 DUP3 DUP2 PUSH2 0x915 DUP2 DUP4 ADD SWAP7 DUP8 DUP2 MLOAD SWAP4 DUP5 SWAP3 ADD PUSH2 0x2B7C JUMP JUMPDEST DUP2 ADD SUB ADD PUSH1 0x1F NOT DUP2 ADD DUP4 MSTORE DUP3 PUSH2 0x2D94 JUMP JUMPDEST MLOAD SWAP1 KECCAK256 DUP11 DUP13 PUSH2 0x947 PUSH1 0x20 PUSH1 0x40 MLOAD DUP1 SWAP4 PUSH2 0x915 DUP4 DUP4 ADD SWAP7 DUP8 SWAP3 MLOAD SWAP3 DUP4 SWAP2 PUSH2 0x2B7C JUMP JUMPDEST MLOAD SWAP1 KECCAK256 EQ PUSH2 0x957 JUMPI PUSH1 0x1 ADD PUSH2 0x8E0 JUMP JUMPDEST PUSH4 0x3480A503 PUSH1 0xE2 SHL DUP13 MSTORE PUSH1 0x4 DUP13 REVERT JUMPDEST POP DUP11 SWAP9 POP DUP10 SWAP7 SWAP8 POP DUP12 PUSH1 0x40 MLOAD PUSH4 0x68BCD8D PUSH1 0xE0 SHL DUP2 MSTORE DUP6 PUSH1 0x4 DUP3 ADD MSTORE DUP11 DUP2 PUSH1 0x24 DUP2 DUP11 GAS STATICCALL DUP1 ISZERO PUSH2 0xFDB JUMPI DUP12 DUP13 SWAP3 DUP14 SWAP3 PUSH2 0xFAC JUMPI JUMPDEST POP PUSH1 0x3 DUP11 LT ISZERO PUSH2 0xF98 JUMPI PUSH1 0x3 DUP2 LT ISZERO PUSH2 0xF98 JUMPI DUP10 EQ SWAP1 DUP2 ISZERO SWAP2 PUSH2 0xF8E JUMPI JUMPDEST POP PUSH2 0xF7F JUMPI PUSH8 0xDE0B6B3A7640000 DUP4 MUL DUP4 DUP2 DIV PUSH8 0xDE0B6B3A7640000 EQ DUP5 ISZERO OR ISZERO PUSH2 0xF6B JUMPI PUSH2 0x9F5 DUP13 SWAP3 PUSH1 0x64 PUSH8 0xDE0B6B3A7640000 SWAP4 DIV SWAP1 PUSH2 0x2FFA JUMP JUMPDEST DIV SWAP7 DUP1 EXTCODESIZE ISZERO PUSH2 0x65E JUMPI DUP2 DUP1 SWAP2 PUSH1 0x44 PUSH1 0x40 MLOAD DUP1 SWAP5 DUP2 SWAP4 PUSH4 0xA4948D85 PUSH1 0xE0 SHL DUP4 MSTORE DUP13 PUSH1 0x4 DUP5 ADD MSTORE DUP10 PUSH1 0x24 DUP5 ADD MSTORE GAS CALL DUP1 ISZERO PUSH2 0x653 JUMPI PUSH2 0xF52 JUMPI JUMPDEST POP POP PUSH2 0xA3A PUSH1 0xF SLOAD PUSH2 0x315E JUMP JUMPDEST PUSH1 0xF SSTORE PUSH1 0x40 MLOAD SWAP6 PUSH2 0xA4A DUP8 PUSH2 0x2D78 JUMP JUMPDEST DUP10 DUP8 MSTORE PUSH1 0x20 DUP8 ADD SWAP5 DUP10 DUP7 MSTORE PUSH1 0x40 DUP9 ADD SWAP4 PUSH2 0xA64 DUP11 DUP7 PUSH2 0x30CA JUMP JUMPDEST PUSH1 0x60 DUP10 ADD SWAP6 DUP7 MSTORE PUSH1 0x80 DUP10 ADD MSTORE PUSH1 0xA0 DUP9 ADD MSTORE DUP1 PUSH1 0xC0 DUP9 ADD MSTORE DUP11 PUSH1 0xE0 DUP9 ADD MSTORE PUSH2 0x100 DUP8 ADD MSTORE DUP5 PUSH2 0x120 DUP8 ADD MSTORE PUSH2 0x140 DUP7 ADD MSTORE DUP8 DUP10 MSTORE PUSH1 0xE PUSH1 0x20 MSTORE PUSH1 0x40 DUP10 KECCAK256 SWAP3 DUP6 MLOAD DUP5 SSTORE MLOAD DUP1 MLOAD SWAP1 PUSH1 0x1 PUSH1 0x1 PUSH1 0x40 SHL SUB DUP3 GT PUSH2 0xF3E JUMPI PUSH2 0xAC4 PUSH1 0x1 DUP7 ADD SLOAD PUSH2 0x2C89 JUMP JUMPDEST PUSH1 0x1F DUP2 GT PUSH2 0xF0B JUMPI JUMPDEST POP PUSH1 0x20 SWAP1 PUSH1 0x1F DUP4 GT PUSH1 0x1 EQ PUSH2 0xEA2 JUMPI PUSH2 0xAFE SWAP3 SWAP2 DUP13 SWAP2 DUP4 PUSH2 0xE97 JUMPI JUMPDEST POP POP DUP2 PUSH1 0x1 SHL SWAP2 PUSH1 0x0 NOT SWAP1 PUSH1 0x3 SHL SHR NOT AND OR SWAP1 JUMP JUMPDEST PUSH1 0x1 DUP5 ADD SSTORE JUMPDEST MLOAD PUSH1 0x3 DUP2 LT ISZERO PUSH2 0xE83 JUMPI PUSH2 0xB1B SWAP1 PUSH1 0x2 DUP5 ADD PUSH2 0x30D6 JUMP JUMPDEST MLOAD DUP1 MLOAD SWAP1 PUSH1 0x1 PUSH1 0x1 PUSH1 0x40 SHL SUB DUP3 GT PUSH2 0xDC5 JUMPI PUSH2 0xB3A PUSH1 0x3 DUP5 ADD SLOAD PUSH2 0x2C89 JUMP JUMPDEST PUSH1 0x1F DUP2 GT PUSH2 0xE50 JUMPI JUMPDEST POP PUSH1 0x20 SWAP1 PUSH1 0x1F DUP4 GT PUSH1 0x1 EQ PUSH2 0xDE4 JUMPI SWAP2 DUP1 PUSH2 0xB77 SWAP3 PUSH1 0xA SWAP6 SWAP5 DUP13 SWAP3 PUSH2 0xDD9 JUMPI POP POP DUP2 PUSH1 0x1 SHL SWAP2 PUSH1 0x0 NOT SWAP1 PUSH1 0x3 SHL SHR NOT AND OR SWAP1 JUMP JUMPDEST PUSH1 0x3 DUP3 ADD SSTORE JUMPDEST PUSH1 0x80 DUP5 ADD MLOAD PUSH1 0x4 DUP3 ADD SSTORE PUSH1 0xA0 DUP5 ADD MLOAD PUSH1 0x5 DUP3 ADD SSTORE PUSH1 0xC0 DUP5 ADD MLOAD PUSH1 0x6 DUP3 ADD SSTORE PUSH1 0xE0 DUP5 ADD MLOAD PUSH1 0x7 DUP3 ADD SSTORE PUSH2 0x100 DUP5 ADD MLOAD PUSH1 0x8 DUP3 ADD SSTORE PUSH2 0x120 DUP5 ADD MLOAD PUSH1 0x9 DUP3 ADD SSTORE ADD PUSH2 0x140 DUP4 ADD MLOAD DUP1 MLOAD SWAP1 PUSH1 0x1 PUSH1 0x1 PUSH1 0x40 SHL SUB DUP3 GT PUSH2 0xDC5 JUMPI PUSH2 0xBDD DUP4 SLOAD PUSH2 0x2C89 JUMP JUMPDEST PUSH1 0x1F DUP2 GT PUSH2 0xD8A JUMPI JUMPDEST POP PUSH1 0x20 SWAP1 PUSH1 0x1F DUP4 GT PUSH1 0x1 EQ PUSH2 0xD27 JUMPI PUSH2 0xC16 SWAP3 SWAP2 DUP11 SWAP2 DUP4 PUSH2 0xD1C JUMPI POP POP DUP2 PUSH1 0x1 SHL SWAP2 PUSH1 0x0 NOT SWAP1 PUSH1 0x3 SHL SHR NOT AND OR SWAP1 JUMP JUMPDEST SWAP1 SSTORE JUMPDEST PUSH1 0x10 SLOAD PUSH1 0x1 PUSH1 0x40 SHL DUP2 LT ISZERO PUSH2 0xD08 JUMPI SWAP1 PUSH2 0xC3B DUP3 PUSH1 0x1 DUP10 SWAP6 SWAP5 ADD PUSH1 0x10 SSTORE PUSH2 0x2B61 JUMP JUMPDEST DUP2 SLOAD PUSH1 0x3 SWAP2 DUP3 SHL DUP10 DUP2 SHL PUSH1 0x0 NOT SWAP1 SWAP2 SHL NOT SWAP1 SWAP2 AND OR SWAP1 SWAP2 SSTORE SLOAD PUSH1 0x1 PUSH1 0x1 PUSH1 0xA0 SHL SUB AND SWAP2 DUP3 EXTCODESIZE ISZERO PUSH2 0x739 JUMPI PUSH2 0xC95 SWAP3 DUP5 SWAP3 DUP4 PUSH1 0x40 MLOAD DUP1 SWAP7 DUP2 SWAP6 DUP3 SWAP5 PUSH4 0x31EAA61D PUSH1 0xE2 SHL DUP5 MSTORE PUSH1 0x4 DUP5 ADD MSTORE PUSH1 0x40 PUSH1 0x24 DUP5 ADD MSTORE PUSH1 0x44 DUP4 ADD SWAP1 PUSH2 0x2BE7 JUMP JUMPDEST SUB SWAP3 GAS CALL DUP1 ISZERO PUSH2 0x653 JUMPI PUSH2 0xCF3 JUMPI JUMPDEST POP SWAP2 DUP4 PUSH32 0x5928D65CC6AE9F07A7673F1A5A2F98D81F1BB0C2BC53BCAA33D6F11CF426F25E SWAP4 MSTORE PUSH1 0xA PUSH1 0x20 MSTORE PUSH1 0x40 DUP6 KECCAK256 PUSH1 0x1 PUSH1 0xFF NOT DUP3 SLOAD AND OR SWAP1 SSTORE PUSH2 0xCED PUSH1 0x40 MLOAD SWAP3 DUP4 SWAP3 DUP4 PUSH2 0x3367 JUMP JUMPDEST SUB SWAP1 LOG2 DUP1 RETURN JUMPDEST DUP2 PUSH2 0xCFD SWAP2 PUSH2 0x2D94 JUMP JUMPDEST PUSH2 0x739 JUMPI DUP4 DUP6 PUSH2 0xCA4 JUMP JUMPDEST PUSH4 0x4E487B71 PUSH1 0xE0 SHL DUP8 MSTORE PUSH1 0x41 PUSH1 0x4 MSTORE PUSH1 0x24 DUP8 REVERT JUMPDEST ADD MLOAD SWAP1 POP DUP11 DUP1 PUSH2 0xAE9 JUMP JUMPDEST DUP4 DUP11 MSTORE DUP2 DUP11 KECCAK256 SWAP2 SWAP1 PUSH1 0x1F NOT DUP5 AND DUP12 JUMPDEST DUP2 DUP2 LT PUSH2 0xD72 JUMPI POP SWAP1 DUP5 PUSH1 0x1 SWAP6 SWAP5 SWAP4 SWAP3 LT PUSH2 0xD59 JUMPI JUMPDEST POP POP POP DUP2 SHL ADD SWAP1 SSTORE PUSH2 0xC19 JUMP JUMPDEST ADD MLOAD PUSH1 0x0 NOT PUSH1 0xF8 DUP5 PUSH1 0x3 SHL AND SHR NOT AND SWAP1 SSTORE DUP10 DUP1 DUP1 PUSH2 0xD4C JUMP JUMPDEST SWAP3 SWAP4 PUSH1 0x20 PUSH1 0x1 DUP2 SWAP3 DUP8 DUP7 ADD MLOAD DUP2 SSTORE ADD SWAP6 ADD SWAP4 ADD PUSH2 0xD36 JUMP JUMPDEST PUSH2 0xDB5 SWAP1 DUP5 DUP12 MSTORE PUSH1 0x20 DUP12 KECCAK256 PUSH1 0x1F DUP6 ADD PUSH1 0x5 SHR DUP2 ADD SWAP2 PUSH1 0x20 DUP7 LT PUSH2 0xDBB JUMPI JUMPDEST PUSH1 0x1F ADD PUSH1 0x5 SHR ADD SWAP1 PUSH2 0x30EE JUMP JUMPDEST DUP10 PUSH2 0xBE6 JUMP JUMPDEST SWAP1 SWAP2 POP DUP2 SWAP1 PUSH2 0xDA8 JUMP JUMPDEST PUSH4 0x4E487B71 PUSH1 0xE0 SHL DUP10 MSTORE PUSH1 0x41 PUSH1 0x4 MSTORE PUSH1 0x24 DUP10 REVERT JUMPDEST ADD MLOAD SWAP1 POP DUP12 DUP1 PUSH2 0xAE9 JUMP JUMPDEST PUSH1 0x3 DUP5 ADD DUP11 MSTORE DUP2 DUP11 KECCAK256 SWAP2 SWAP1 PUSH1 0x1F NOT DUP5 AND DUP12 JUMPDEST DUP2 DUP2 LT PUSH2 0xE38 JUMPI POP SWAP2 PUSH1 0x1 SWAP4 SWAP2 DUP6 PUSH1 0xA SWAP8 SWAP7 SWAP5 LT PUSH2 0xE1F JUMPI JUMPDEST POP POP POP DUP2 SHL ADD PUSH1 0x3 DUP3 ADD SSTORE PUSH2 0xB7D JUMP JUMPDEST ADD MLOAD PUSH1 0x0 NOT PUSH1 0xF8 DUP5 PUSH1 0x3 SHL AND SHR NOT AND SWAP1 SSTORE DUP11 DUP1 DUP1 PUSH2 0xE0F JUMP JUMPDEST SWAP3 SWAP4 PUSH1 0x20 PUSH1 0x1 DUP2 SWAP3 DUP8 DUP7 ADD MLOAD DUP2 SSTORE ADD SWAP6 ADD SWAP4 ADD PUSH2 0xDF6 JUMP JUMPDEST PUSH2 0xE7D SWAP1 PUSH1 0x3 DUP6 ADD DUP12 MSTORE PUSH1 0x20 DUP12 KECCAK256 PUSH1 0x1F DUP6 ADD PUSH1 0x5 SHR DUP2 ADD SWAP2 PUSH1 0x20 DUP7 LT PUSH2 0xDBB JUMPI PUSH1 0x1F ADD PUSH1 0x5 SHR ADD SWAP1 PUSH2 0x30EE JUMP JUMPDEST DUP10 PUSH2 0xB43 JUMP JUMPDEST PUSH4 0x4E487B71 PUSH1 0xE0 SHL DUP10 MSTORE PUSH1 0x21 PUSH1 0x4 MSTORE PUSH1 0x24 DUP10 REVERT JUMPDEST ADD MLOAD SWAP1 POP DUP13 DUP1 PUSH2 0xAE9 JUMP JUMPDEST PUSH1 0x1 DUP7 ADD DUP13 MSTORE DUP2 DUP13 KECCAK256 SWAP2 SWAP1 PUSH1 0x1F NOT DUP5 AND DUP14 JUMPDEST DUP2 DUP2 LT PUSH2 0xEF3 JUMPI POP SWAP1 DUP5 PUSH1 0x1 SWAP6 SWAP5 SWAP4 SWAP3 LT PUSH2 0xEDA JUMPI JUMPDEST POP POP POP DUP2 SHL ADD PUSH1 0x1 DUP5 ADD SSTORE PUSH2 0xB04 JUMP JUMPDEST ADD MLOAD PUSH1 0x0 NOT PUSH1 0xF8 DUP5 PUSH1 0x3 SHL AND SHR NOT AND SWAP1 SSTORE DUP12 DUP1 DUP1 PUSH2 0xECA JUMP JUMPDEST SWAP3 SWAP4 PUSH1 0x20 PUSH1 0x1 DUP2 SWAP3 DUP8 DUP7 ADD MLOAD DUP2 SSTORE ADD SWAP6 ADD SWAP4 ADD PUSH2 0xEB4 JUMP JUMPDEST PUSH2 0xF38 SWAP1 PUSH1 0x1 DUP8 ADD DUP14 MSTORE PUSH1 0x20 DUP14 KECCAK256 PUSH1 0x1F DUP6 ADD PUSH1 0x5 SHR DUP2 ADD SWAP2 PUSH1 0x20 DUP7 LT PUSH2 0xDBB JUMPI PUSH1 0x1F ADD PUSH1 0x5 SHR ADD SWAP1 PUSH2 0x30EE JUMP JUMPDEST DUP12 PUSH2 0xACD JUMP JUMPDEST PUSH4 0x4E487B71 PUSH1 0xE0 SHL DUP12 MSTORE PUSH1 0x41 PUSH1 0x4 MSTORE PUSH1 0x24 DUP12 REVERT JUMPDEST DUP2 PUSH2 0xF5C SWAP2 PUSH2 0x2D94 JUMP JUMPDEST PUSH2 0xF67 JUMPI DUP10 DUP12 PUSH2 0xA2D JUMP JUMPDEST DUP10 DUP1 REVERT JUMPDEST PUSH4 0x4E487B71 PUSH1 0xE0 SHL DUP13 MSTORE PUSH1 0x11 PUSH1 0x4 MSTORE PUSH1 0x24 DUP13 REVERT JUMPDEST PUSH4 0x69E489F5 PUSH1 0xE1 SHL DUP12 MSTORE PUSH1 0x4 DUP12 REVERT JUMPDEST SWAP1 POP DUP4 GT DUP13 PUSH2 0x9B8 JUMP JUMPDEST PUSH4 0x4E487B71 PUSH1 0xE0 SHL DUP14 MSTORE PUSH1 0x21 PUSH1 0x4 MSTORE PUSH1 0x24 DUP14 REVERT JUMPDEST SWAP2 POP POP PUSH2 0xFCB SWAP2 POP RETURNDATASIZE DUP1 DUP14 DUP4 RETURNDATACOPY PUSH2 0xFC3 DUP2 DUP4 PUSH2 0x2D94 JUMP JUMPDEST DUP2 ADD SWAP1 PUSH2 0x2F9A JUMP JUMPDEST SWAP6 POP POP SWAP3 SWAP2 POP POP SWAP1 SWAP2 SWAP1 DUP14 PUSH2 0x99A JUMP JUMPDEST PUSH1 0x40 MLOAD RETURNDATASIZE DUP14 DUP3 RETURNDATACOPY RETURNDATASIZE SWAP1 REVERT JUMPDEST PUSH2 0x1003 SWAP2 SWAP8 POP RETURNDATASIZE DUP1 DUP13 DUP4 RETURNDATACOPY PUSH2 0xFFB DUP2 DUP4 PUSH2 0x2D94 JUMP JUMPDEST DUP2 ADD SWAP1 PUSH2 0x31E9 JUMP JUMPDEST SWAP6 CODESIZE PUSH2 0x8D5 JUMP JUMPDEST PUSH1 0x40 MLOAD RETURNDATASIZE DUP13 DUP3 RETURNDATACOPY RETURNDATASIZE SWAP1 REVERT JUMPDEST POP CALLVALUE PUSH2 0x1BF JUMPI PUSH1 0x20 CALLDATASIZE PUSH1 0x3 NOT ADD SLT PUSH2 0x1BF JUMPI PUSH1 0x20 SWAP1 PUSH1 0x40 SWAP1 PUSH1 0x1 PUSH1 0x1 PUSH1 0xA0 SHL SUB PUSH2 0x103D PUSH2 0x2B15 JUMP JUMPDEST AND DUP2 MSTORE PUSH1 0x9 DUP4 MSTORE KECCAK256 SLOAD PUSH1 0x40 MLOAD SWAP1 DUP2 MSTORE RETURN JUMPDEST POP CALLVALUE PUSH2 0x1BF JUMPI DUP1 PUSH1 0x3 NOT CALLDATASIZE ADD SLT PUSH2 0x1BF JUMPI DUP1 DUP2 PUSH1 0x10 SLOAD SWAP1 JUMPDEST DUP2 DUP2 LT PUSH2 0x123A JUMPI POP PUSH2 0x1077 DUP3 PUSH2 0x316D JUMP JUMPDEST SWAP2 PUSH2 0x1085 PUSH1 0x40 MLOAD SWAP4 DUP5 PUSH2 0x2D94 JUMP JUMPDEST DUP1 DUP4 MSTORE PUSH2 0x1094 PUSH1 0x1F NOT SWAP2 PUSH2 0x316D JUMP JUMPDEST ADD DUP4 JUMPDEST DUP2 DUP2 LT PUSH2 0x1223 JUMPI POP POP DUP3 DUP4 JUMPDEST DUP3 DUP2 LT PUSH2 0x1111 JUMPI DUP4 DUP6 PUSH1 0x40 MLOAD SWAP2 DUP3 SWAP2 PUSH1 0x20 DUP4 ADD PUSH1 0x20 DUP5 MSTORE DUP3 MLOAD DUP1 SWAP2 MSTORE PUSH1 0x40 DUP5 ADD PUSH1 0x20 PUSH1 0x40 DUP4 PUSH1 0x5 SHL DUP8 ADD ADD SWAP5 ADD SWAP3 SWAP1 JUMPDEST DUP3 DUP3 LT PUSH2 0x10E2 JUMPI POP POP POP POP SUB SWAP1 RETURN JUMPDEST SWAP2 SWAP4 PUSH1 0x1 SWAP2 SWAP4 SWAP6 POP PUSH1 0x20 PUSH2 0x1101 DUP2 SWAP3 PUSH1 0x3F NOT DUP11 DUP3 SUB ADD DUP7 MSTORE DUP9 MLOAD PUSH2 0x2BE7 JUMP JUMPDEST SWAP7 ADD SWAP3 ADD SWAP3 ADD DUP6 SWAP5 SWAP4 SWAP2 SWAP3 PUSH2 0x10D3 JUMP JUMPDEST PUSH2 0x111A DUP2 PUSH2 0x2B61 JUMP JUMPDEST SWAP1 SLOAD SWAP1 PUSH1 0x3 SHL SHR DUP1 DUP7 MSTORE PUSH1 0xA PUSH1 0x20 MSTORE PUSH1 0xFF PUSH1 0x40 DUP8 KECCAK256 SLOAD AND PUSH2 0x113F JUMPI JUMPDEST POP PUSH1 0x1 ADD PUSH2 0x10A3 JUMP JUMPDEST PUSH1 0x1 SWAP2 SWAP3 PUSH2 0x121C SWAP2 DUP8 MSTORE PUSH1 0xE PUSH1 0x20 MSTORE PUSH1 0x40 DUP8 KECCAK256 PUSH1 0xA PUSH2 0x11FB PUSH1 0x40 MLOAD SWAP3 PUSH2 0x1164 DUP5 PUSH2 0x2D78 JUMP JUMPDEST DUP1 SLOAD DUP5 MSTORE PUSH1 0x40 MLOAD PUSH2 0x117B DUP2 PUSH2 0x319 DUP2 DUP12 DUP7 ADD PUSH2 0x2CC3 JUMP JUMPDEST PUSH1 0x20 DUP6 ADD MSTORE PUSH2 0x1194 PUSH1 0xFF PUSH1 0x2 DUP4 ADD SLOAD AND PUSH1 0x40 DUP7 ADD PUSH2 0x30CA JUMP JUMPDEST PUSH1 0x40 MLOAD PUSH2 0x11A8 DUP2 PUSH2 0x319 DUP2 PUSH1 0x3 DUP7 ADD PUSH2 0x2CC3 JUMP JUMPDEST PUSH1 0x60 DUP6 ADD MSTORE PUSH1 0x4 DUP2 ADD SLOAD PUSH1 0x80 DUP6 ADD MSTORE PUSH1 0x5 DUP2 ADD SLOAD PUSH1 0xA0 DUP6 ADD MSTORE PUSH1 0x6 DUP2 ADD SLOAD PUSH1 0xC0 DUP6 ADD MSTORE PUSH1 0x7 DUP2 ADD SLOAD PUSH1 0xE0 DUP6 ADD MSTORE PUSH1 0x8 DUP2 ADD SLOAD PUSH2 0x100 DUP6 ADD MSTORE PUSH1 0x9 DUP2 ADD SLOAD PUSH2 0x120 DUP6 ADD MSTORE PUSH2 0x319 PUSH1 0x40 MLOAD DUP1 SWAP5 DUP2 SWAP4 ADD PUSH2 0x2CC3 JUMP JUMPDEST PUSH2 0x140 DUP3 ADD MSTORE PUSH2 0x120B DUP3 DUP9 PUSH2 0x31D5 JUMP JUMPDEST MSTORE PUSH2 0x1216 DUP2 DUP8 PUSH2 0x31D5 JUMP JUMPDEST POP PUSH2 0x315E JUMP JUMPDEST SWAP2 SWAP1 PUSH2 0x1136 JUMP JUMPDEST PUSH1 0x20 SWAP1 PUSH2 0x122E PUSH2 0x3105 JUMP JUMPDEST DUP3 DUP3 DUP8 ADD ADD MSTORE ADD PUSH2 0x1097 JUMP JUMPDEST PUSH2 0x1243 DUP2 PUSH2 0x2B61 JUMP JUMPDEST SWAP1 SLOAD SWAP1 PUSH1 0x3 SHL SHR DUP5 MSTORE PUSH1 0xA PUSH1 0x20 MSTORE PUSH1 0xFF PUSH1 0x40 DUP6 KECCAK256 SLOAD AND PUSH2 0x1266 JUMPI JUMPDEST PUSH1 0x1 ADD PUSH2 0x1066 JUMP JUMPDEST SWAP2 PUSH2 0x1272 PUSH1 0x1 SWAP2 PUSH2 0x315E JUMP JUMPDEST SWAP3 SWAP1 POP PUSH2 0x125E JUMP JUMPDEST POP CALLVALUE PUSH2 0x1BF JUMPI PUSH1 0x24 PUSH2 0x128B CALLDATASIZE PUSH2 0x2E92 JUMP JUMPDEST PUSH2 0x129E SWAP10 SWAP8 SWAP7 SWAP6 SWAP3 SWAP10 SWAP9 SWAP2 SWAP5 SWAP4 SWAP9 PUSH2 0x33AC JUMP JUMPDEST PUSH1 0x1 DUP1 PUSH1 0xA0 SHL SUB PUSH1 0x3 SLOAD AND SWAP10 DUP9 DUP12 PUSH1 0x40 MLOAD SWAP5 DUP6 DUP1 SWAP3 PUSH4 0x68BCD8D PUSH1 0xE0 SHL DUP3 MSTORE DUP7 PUSH1 0x4 DUP4 ADD MSTORE GAS STATICCALL DUP1 ISZERO PUSH2 0x1A56 JUMPI DUP10 DUP11 SWAP5 DUP12 SWAP3 PUSH2 0x1A2D JUMPI JUMPDEST POP PUSH1 0x3 DUP7 LT ISZERO PUSH2 0x1A19 JUMPI PUSH1 0x3 DUP2 LT ISZERO PUSH2 0x1A19 JUMPI DUP6 EQ SWAP1 DUP2 ISZERO SWAP2 PUSH2 0x1A0F JUMPI JUMPDEST POP PUSH2 0x1A00 JUMPI DUP8 DUP10 MSTORE PUSH1 0xE PUSH1 0x20 MSTORE PUSH1 0x40 DUP10 KECCAK256 SWAP3 PUSH8 0xDE0B6B3A7640000 DUP3 MUL DUP3 DUP2 DIV PUSH8 0xDE0B6B3A7640000 EQ DUP4 ISZERO OR ISZERO PUSH2 0x19EC JUMPI PUSH8 0xDE0B6B3A7640000 SWAP2 PUSH1 0x64 PUSH2 0x133C SWAP3 DIV SWAP1 PUSH2 0x2FFA JUMP JUMPDEST DIV SWAP1 DUP2 PUSH1 0x7 DUP6 ADD SLOAD GT PUSH2 0x19DD JUMPI DUP10 PUSH1 0x24 SWAP11 SWAP12 SWAP13 PUSH1 0x40 MLOAD SWAP12 DUP13 DUP1 SWAP3 PUSH4 0x7EB111F PUSH1 0xE4 SHL DUP3 MSTORE DUP8 PUSH1 0x4 DUP4 ADD MSTORE GAS STATICCALL SWAP10 DUP11 ISZERO PUSH2 0xFDB JUMPI DUP12 SWAP11 PUSH2 0x19C1 JUMPI JUMPDEST POP SWAP6 SWAP11 PUSH1 0x20 DUP9 ADD SWAP7 SWAP1 DUP12 JUMPDEST DUP12 MLOAD DUP2 LT ISZERO PUSH2 0x141B JUMPI DUP12 DUP12 DUP3 DUP13 DUP13 PUSH1 0x20 PUSH2 0x139B DUP5 DUP8 PUSH2 0x31D5 JUMP JUMPDEST MLOAD ADD MLOAD PUSH1 0x40 MLOAD PUSH2 0x13BB PUSH1 0x20 DUP3 DUP2 PUSH2 0x915 DUP2 DUP4 ADD SWAP7 DUP8 DUP2 MLOAD SWAP4 DUP5 SWAP3 ADD PUSH2 0x2B7C JUMP JUMPDEST MLOAD SWAP1 KECCAK256 SWAP2 PUSH2 0x13DB PUSH1 0x20 PUSH1 0x40 MLOAD DUP1 SWAP4 PUSH2 0x915 DUP4 DUP4 ADD SWAP7 DUP8 SWAP3 MLOAD SWAP3 DUP4 SWAP2 PUSH2 0x2B7C JUMP JUMPDEST MLOAD SWAP1 KECCAK256 EQ SWAP3 DUP4 PUSH2 0x1404 JUMPI JUMPDEST POP POP POP PUSH2 0x13F5 JUMPI PUSH1 0x1 ADD PUSH2 0x1381 JUMP JUMPDEST PUSH4 0x3480A503 PUSH1 0xE2 SHL DUP14 MSTORE PUSH1 0x4 DUP14 REVERT JUMPDEST PUSH2 0x140F SWAP3 SWAP4 POP PUSH2 0x31D5 JUMP JUMPDEST MLOAD MLOAD EQ ISZERO DUP12 DUP3 DUP15 PUSH2 0x13E6 JUMP JUMPDEST POP DUP12 SWAP9 SWAP7 SWAP10 SWAP8 POP DUP13 PUSH1 0x4 DUP7 ADD SLOAD SWAP2 DUP9 MLOAD PUSH1 0x1 PUSH1 0x1 PUSH1 0x40 SHL SUB DUP2 GT PUSH2 0x1905 JUMPI DUP12 PUSH2 0x1447 PUSH1 0x1 DUP11 ADD SLOAD PUSH2 0x2C89 JUMP JUMPDEST PUSH1 0x1F DUP2 GT PUSH2 0x198E JUMPI JUMPDEST POP POP PUSH1 0x20 DUP13 PUSH1 0x1F DUP4 GT PUSH1 0x1 EQ PUSH2 0x1924 JUMPI PUSH2 0x147F SWAP3 SWAP2 DUP3 PUSH2 0x1919 JUMPI JUMPDEST POP DUP2 PUSH1 0x1 SHL SWAP2 PUSH1 0x0 NOT SWAP1 PUSH1 0x3 SHL SHR NOT AND OR SWAP1 JUMP JUMPDEST PUSH1 0x1 DUP9 ADD SSTORE JUMPDEST DUP1 MLOAD PUSH1 0x1 PUSH1 0x1 PUSH1 0x40 SHL SUB DUP2 GT PUSH2 0x1905 JUMPI DUP12 PUSH2 0x14A3 PUSH1 0x3 DUP11 ADD SLOAD PUSH2 0x2C89 JUMP JUMPDEST PUSH1 0x1F DUP2 GT PUSH2 0x18D2 JUMPI JUMPDEST POP POP PUSH1 0x20 SWAP2 DUP13 PUSH1 0x1F DUP4 GT PUSH1 0x1 EQ PUSH2 0x1864 JUMPI PUSH2 0x14DD SWAP4 SWAP1 SWAP2 DUP4 PUSH2 0x1859 JUMPI POP POP DUP2 PUSH1 0x1 SHL SWAP2 PUSH1 0x0 NOT SWAP1 PUSH1 0x3 SHL SHR NOT AND OR SWAP1 JUMP JUMPDEST PUSH1 0x3 DUP8 ADD SSTORE JUMPDEST DUP3 PUSH1 0x4 DUP8 ADD SSTORE PUSH1 0x5 DUP7 ADD SSTORE DUP10 MLOAD PUSH1 0x1 PUSH1 0x1 PUSH1 0x40 SHL SUB DUP2 GT PUSH2 0x1845 JUMPI PUSH2 0x150B PUSH1 0xA DUP8 ADD SLOAD PUSH2 0x2C89 JUMP JUMPDEST PUSH1 0x1F DUP2 GT PUSH2 0x1812 JUMPI JUMPDEST POP PUSH1 0x20 PUSH1 0x1F DUP3 GT PUSH1 0x1 EQ PUSH2 0x17A1 JUMPI SWAP1 DUP1 PUSH2 0x1549 SWAP3 DUP13 SWAP14 DUP14 SWAP11 SWAP12 SWAP13 SWAP14 SWAP3 PUSH2 0x1796 JUMPI POP POP DUP2 PUSH1 0x1 SHL SWAP2 PUSH1 0x0 NOT SWAP1 PUSH1 0x3 SHL SHR NOT AND OR SWAP1 JUMP JUMPDEST PUSH1 0xA DUP7 ADD SSTORE JUMPDEST PUSH1 0x6 DUP6 ADD SWAP2 DUP4 DUP4 SSTORE PUSH2 0x156D PUSH1 0x9 DUP8 ADD SWAP5 DUP7 DUP7 SSTORE PUSH1 0x7 DUP9 ADD SLOAD SWAP1 PUSH2 0x3023 JUMP JUMPDEST PUSH1 0x8 DUP8 ADD SWAP1 DUP2 SSTORE SWAP2 DUP2 DUP2 GT ISZERO PUSH2 0x1722 JUMPI SWAP1 PUSH2 0x1587 SWAP2 PUSH2 0x3023 JUMP JUMPDEST PUSH1 0x3 SLOAD PUSH1 0x1 PUSH1 0x1 PUSH1 0xA0 SHL SUB AND SWAP1 DUP2 EXTCODESIZE ISZERO PUSH2 0x171E JUMPI DUP8 SWAP2 PUSH1 0x44 DUP4 SWAP3 PUSH1 0x40 MLOAD SWAP5 DUP6 SWAP4 DUP5 SWAP3 PUSH4 0x9FD36B15 PUSH1 0xE0 SHL DUP5 MSTORE DUP12 PUSH1 0x4 DUP6 ADD MSTORE PUSH1 0x24 DUP5 ADD MSTORE GAS CALL SWAP1 DUP2 ISZERO PUSH2 0x1713 JUMPI DUP8 SWAP2 PUSH2 0x16FA JUMPI JUMPDEST POP POP JUMPDEST PUSH1 0x3 SLOAD PUSH1 0x1 PUSH1 0x1 PUSH1 0xA0 SHL SUB AND SWAP2 DUP3 EXTCODESIZE ISZERO PUSH2 0x735 JUMPI DUP7 SWAP5 PUSH2 0x16A3 DUP7 SWAP3 PUSH1 0xA PUSH1 0x40 MLOAD SWAP10 DUP11 SWAP9 DUP10 SWAP8 DUP9 SWAP7 PUSH4 0xA14764D PUSH1 0xE4 SHL DUP9 MSTORE PUSH1 0x4 DUP9 ADD MSTORE PUSH1 0x40 PUSH1 0x24 DUP9 ADD MSTORE DUP3 SLOAD PUSH1 0x44 DUP9 ADD MSTORE PUSH2 0x160 PUSH1 0x64 DUP9 ADD MSTORE PUSH2 0x165B PUSH2 0x1631 PUSH2 0x1A4 DUP10 ADD PUSH1 0x1 DUP7 ADD PUSH2 0x2CC3 JUMP JUMPDEST PUSH2 0x1646 PUSH1 0xFF PUSH1 0x2 DUP8 ADD SLOAD AND PUSH1 0x84 DUP12 ADD SWAP1 PUSH2 0x2BC4 JUMP JUMPDEST DUP9 DUP2 SUB PUSH1 0x43 NOT ADD PUSH1 0xA4 DUP11 ADD MSTORE PUSH1 0x3 DUP6 ADD PUSH2 0x2CC3 JUMP JUMPDEST PUSH1 0x4 DUP5 ADD SLOAD PUSH1 0xC4 DUP10 ADD MSTORE PUSH1 0x5 DUP5 ADD SLOAD PUSH1 0xE4 DUP10 ADD MSTORE SWAP5 SLOAD PUSH2 0x104 DUP9 ADD MSTORE PUSH1 0x7 DUP4 ADD SLOAD PUSH2 0x124 DUP9 ADD MSTORE SLOAD PUSH2 0x144 DUP8 ADD MSTORE SLOAD PUSH2 0x164 DUP7 ADD MSTORE DUP5 DUP4 SUB PUSH1 0x43 NOT ADD PUSH2 0x184 DUP7 ADD MSTORE ADD PUSH2 0x2CC3 JUMP JUMPDEST SUB SWAP3 GAS CALL DUP1 ISZERO PUSH2 0x653 JUMPI PUSH2 0x16E5 JUMPI JUMPDEST POP POP PUSH32 0x758A67328BA53C1867C0272BBD2CA10D6FE71D37120188C523FE7AE7BDBBE469 SWAP2 PUSH2 0xCED PUSH1 0x40 MLOAD SWAP3 DUP4 SWAP3 DUP4 PUSH2 0x3367 JUMP JUMPDEST DUP2 PUSH2 0x16EF SWAP2 PUSH2 0x2D94 JUMP JUMPDEST PUSH2 0x739 JUMPI DUP4 DUP6 PUSH2 0x16B2 JUMP JUMPDEST DUP2 PUSH2 0x1704 SWAP2 PUSH2 0x2D94 JUMP JUMPDEST PUSH2 0x170F JUMPI DUP6 DUP12 PUSH2 0x15CE JUMP JUMPDEST DUP6 DUP1 REVERT JUMPDEST PUSH1 0x40 MLOAD RETURNDATASIZE DUP10 DUP3 RETURNDATACOPY RETURNDATASIZE SWAP1 REVERT JUMPDEST DUP8 DUP1 REVERT JUMPDEST DUP2 DUP2 LT PUSH2 0x1731 JUMPI JUMPDEST POP POP PUSH2 0x15D1 JUMP JUMPDEST PUSH2 0x173A SWAP2 PUSH2 0x3023 JUMP JUMPDEST PUSH1 0x3 SLOAD PUSH1 0x1 PUSH1 0x1 PUSH1 0xA0 SHL SUB AND SWAP1 DUP2 EXTCODESIZE ISZERO PUSH2 0x171E JUMPI DUP8 SWAP2 PUSH1 0x44 DUP4 SWAP3 PUSH1 0x40 MLOAD SWAP5 DUP6 SWAP4 DUP5 SWAP3 PUSH4 0xA4948D85 PUSH1 0xE0 SHL DUP5 MSTORE DUP12 PUSH1 0x4 DUP6 ADD MSTORE PUSH1 0x24 DUP5 ADD MSTORE GAS CALL SWAP1 DUP2 ISZERO PUSH2 0x1713 JUMPI DUP8 SWAP2 ISZERO PUSH2 0x172A JUMPI DUP2 PUSH2 0x178B SWAP2 PUSH2 0x2D94 JUMP JUMPDEST PUSH2 0x170F JUMPI DUP6 DUP12 PUSH2 0x172A JUMP JUMPDEST ADD MLOAD SWAP1 POP DUP14 DUP1 PUSH2 0xAE9 JUMP JUMPDEST PUSH1 0xA DUP8 ADD DUP12 MSTORE DUP1 DUP12 KECCAK256 SWAP12 DUP12 JUMPDEST PUSH1 0x1F NOT DUP5 AND DUP2 LT PUSH2 0x17FA JUMPI POP SWAP12 DUP3 SWAP2 DUP13 SWAP14 PUSH1 0x1 SWAP5 PUSH1 0x1F SWAP15 SWAP12 SWAP13 SWAP14 SWAP15 NOT DUP2 AND LT PUSH2 0x17E1 JUMPI JUMPDEST POP POP POP DUP2 SHL ADD PUSH1 0xA DUP7 ADD SSTORE PUSH2 0x154F JUMP JUMPDEST ADD MLOAD PUSH1 0x0 NOT PUSH1 0xF8 DUP5 PUSH1 0x3 SHL AND SHR NOT AND SWAP1 SSTORE DUP13 DUP1 DUP1 PUSH2 0x17D1 JUMP JUMPDEST DUP3 DUP3 ADD MLOAD DUP15 SSTORE PUSH1 0x1 SWAP1 SWAP14 ADD SWAP13 PUSH1 0x20 SWAP3 DUP4 ADD SWAP3 ADD PUSH2 0x17AD JUMP JUMPDEST PUSH2 0x183F SWAP1 PUSH1 0xA DUP9 ADD DUP13 MSTORE PUSH1 0x20 DUP13 KECCAK256 PUSH1 0x1F DUP5 ADD PUSH1 0x5 SHR DUP2 ADD SWAP2 PUSH1 0x20 DUP6 LT PUSH2 0xDBB JUMPI PUSH1 0x1F ADD PUSH1 0x5 SHR ADD SWAP1 PUSH2 0x30EE JUMP JUMPDEST DUP12 PUSH2 0x1514 JUMP JUMPDEST PUSH4 0x4E487B71 PUSH1 0xE0 SHL DUP11 MSTORE PUSH1 0x41 PUSH1 0x4 MSTORE PUSH1 0x24 DUP11 REVERT JUMPDEST ADD MLOAD SWAP1 POP DUP15 DUP1 PUSH2 0xAE9 JUMP JUMPDEST POP SWAP2 PUSH1 0x3 DUP10 ADD DUP14 MSTORE DUP1 DUP14 KECCAK256 SWAP1 DUP14 SWAP4 JUMPDEST PUSH1 0x1F NOT DUP5 AND DUP6 LT PUSH2 0x18B7 JUMPI PUSH1 0x1 SWAP5 POP DUP4 PUSH1 0x1F NOT DUP2 AND LT PUSH2 0x189E JUMPI JUMPDEST POP POP POP DUP2 SHL ADD PUSH1 0x3 DUP8 ADD SSTORE PUSH2 0x14E3 JUMP JUMPDEST ADD MLOAD PUSH1 0x0 NOT PUSH1 0xF8 DUP5 PUSH1 0x3 SHL AND SHR NOT AND SWAP1 SSTORE DUP14 DUP1 DUP1 PUSH2 0x188E JUMP JUMPDEST DUP2 DUP2 ADD MLOAD DUP4 SSTORE PUSH1 0x20 SWAP5 DUP6 ADD SWAP5 PUSH1 0x1 SWAP1 SWAP4 ADD SWAP3 SWAP1 SWAP2 ADD SWAP1 PUSH2 0x1873 JUMP JUMPDEST PUSH1 0x20 PUSH2 0x18FE SWAP3 PUSH1 0x3 DUP13 ADD DUP2 MSTORE KECCAK256 PUSH1 0x1F DUP5 ADD PUSH1 0x5 SHR DUP2 ADD SWAP2 PUSH1 0x20 DUP6 LT PUSH2 0xDBB JUMPI PUSH1 0x1F ADD PUSH1 0x5 SHR ADD SWAP1 PUSH2 0x30EE JUMP JUMPDEST DUP12 DUP15 PUSH2 0x14AC JUMP JUMPDEST PUSH4 0x4E487B71 PUSH1 0xE0 SHL DUP13 MSTORE PUSH1 0x41 PUSH1 0x4 MSTORE PUSH1 0x24 DUP13 REVERT JUMPDEST SWAP1 POP DUP12 ADD MLOAD DUP16 PUSH2 0x146B JUMP JUMPDEST POP SWAP1 PUSH1 0x1 DUP10 ADD DUP14 MSTORE DUP2 DUP14 KECCAK256 DUP14 SWAP3 JUMPDEST DUP13 PUSH1 0x1F NOT DUP5 AND DUP6 LT PUSH2 0x1977 JUMPI POP PUSH1 0x1 SWAP4 POP DUP3 PUSH1 0x1F NOT DUP2 AND LT PUSH2 0x195E JUMPI JUMPDEST POP POP DUP2 SHL ADD PUSH1 0x1 DUP9 ADD SSTORE PUSH2 0x1485 JUMP JUMPDEST DUP13 ADD MLOAD PUSH1 0x0 NOT PUSH1 0xF8 DUP5 PUSH1 0x3 SHL AND SHR NOT AND SWAP1 SSTORE DUP15 DUP1 PUSH2 0x194F JUMP JUMPDEST DUP2 ADD MLOAD DUP3 SSTORE PUSH1 0x20 SWAP4 DUP5 ADD SWAP4 PUSH1 0x1 SWAP1 SWAP3 ADD SWAP2 ADD PUSH2 0x1932 JUMP JUMPDEST PUSH1 0x20 PUSH2 0x19BA SWAP3 PUSH1 0x1 DUP13 ADD DUP2 MSTORE KECCAK256 PUSH1 0x1F DUP5 ADD PUSH1 0x5 SHR DUP2 ADD SWAP2 PUSH1 0x20 DUP6 LT PUSH2 0xDBB JUMPI PUSH1 0x1F ADD PUSH1 0x5 SHR ADD SWAP1 PUSH2 0x30EE JUMP JUMPDEST DUP12 DUP15 PUSH2 0x1450 JUMP JUMPDEST PUSH2 0x19D6 SWAP2 SWAP11 POP RETURNDATASIZE DUP1 DUP14 DUP4 RETURNDATACOPY PUSH2 0xFFB DUP2 DUP4 PUSH2 0x2D94 JUMP JUMPDEST SWAP9 CODESIZE PUSH2 0x1376 JUMP JUMPDEST PUSH4 0x69E489F5 PUSH1 0xE1 SHL DUP11 MSTORE PUSH1 0x4 DUP11 REVERT JUMPDEST PUSH4 0x4E487B71 PUSH1 0xE0 SHL DUP12 MSTORE PUSH1 0x11 PUSH1 0x4 MSTORE PUSH1 0x24 DUP12 REVERT JUMPDEST PUSH4 0x69E489F5 PUSH1 0xE1 SHL DUP10 MSTORE PUSH1 0x4 DUP10 REVERT JUMPDEST SWAP1 POP DUP2 GT CODESIZE PUSH2 0x12F3 JUMP JUMPDEST PUSH4 0x4E487B71 PUSH1 0xE0 SHL DUP12 MSTORE PUSH1 0x21 PUSH1 0x4 MSTORE PUSH1 0x24 DUP12 REVERT JUMPDEST SWAP2 POP POP PUSH2 0x1A45 SWAP2 SWAP4 POP RETURNDATASIZE DUP1 DUP12 DUP4 RETURNDATACOPY PUSH2 0xFC3 DUP2 DUP4 PUSH2 0x2D94 JUMP JUMPDEST SWAP8 SWAP6 POP POP SWAP3 SWAP2 POP POP SWAP1 SWAP4 SWAP1 CODESIZE PUSH2 0x12D5 JUMP JUMPDEST PUSH1 0x40 MLOAD RETURNDATASIZE DUP12 DUP3 RETURNDATACOPY RETURNDATASIZE SWAP1 REVERT JUMPDEST POP CALLVALUE PUSH2 0x1BF JUMPI DUP1 PUSH1 0x3 NOT CALLDATASIZE ADD SLT PUSH2 0x1BF JUMPI PUSH1 0x1 SLOAD PUSH1 0x40 MLOAD PUSH1 0x1 PUSH1 0x1 PUSH1 0xA0 SHL SUB SWAP1 SWAP2 AND DUP2 MSTORE PUSH1 0x20 SWAP1 RETURN JUMPDEST POP CALLVALUE PUSH2 0x1BF JUMPI DUP1 PUSH1 0x3 NOT CALLDATASIZE ADD SLT PUSH2 0x1BF JUMPI PUSH1 0x3 SLOAD PUSH1 0x40 MLOAD PUSH1 0x1 PUSH1 0x1 PUSH1 0xA0 SHL SUB SWAP1 SWAP2 AND DUP2 MSTORE PUSH1 0x20 SWAP1 RETURN JUMPDEST POP CALLVALUE PUSH2 0x1BF JUMPI PUSH1 0x60 CALLDATASIZE PUSH1 0x3 NOT ADD SLT PUSH2 0x1BF JUMPI PUSH2 0x1ACD PUSH2 0x2B15 JUMP JUMPDEST PUSH1 0x24 CALLDATALOAD PUSH1 0x44 CALLDATALOAD SWAP2 PUSH2 0x1AE9 PUSH1 0x1 DUP1 PUSH1 0xA0 SHL SUB PUSH1 0x7 SLOAD AND CALLER EQ PUSH2 0x2F1B JUMP JUMPDEST PUSH2 0x1AF1 PUSH2 0x338A JUMP JUMPDEST PUSH1 0x1 DUP1 PUSH1 0xA0 SHL SUB AND DUP1 DUP5 MSTORE PUSH1 0xD PUSH1 0x20 MSTORE PUSH1 0x40 DUP5 KECCAK256 DUP3 DUP6 MSTORE PUSH1 0x20 MSTORE PUSH1 0x4 PUSH1 0x40 DUP6 KECCAK256 ADD PUSH2 0x1B1D DUP5 DUP3 SLOAD PUSH2 0x3023 JUMP JUMPDEST SWAP1 SSTORE DUP4 MSTORE PUSH1 0xD PUSH1 0x20 MSTORE PUSH1 0x40 DUP4 KECCAK256 SWAP1 DUP4 MSTORE PUSH1 0x20 MSTORE PUSH2 0x1B42 PUSH1 0x5 PUSH1 0x40 DUP5 KECCAK256 ADD SWAP2 DUP3 SLOAD PUSH2 0x30BD JUMP JUMPDEST SWAP1 SSTORE PUSH1 0x1 DUP2 SSTORE DUP1 RETURN JUMPDEST POP CALLVALUE PUSH2 0x1BF JUMPI PUSH1 0x40 CALLDATASIZE PUSH1 0x3 NOT ADD SLT PUSH2 0x1BF JUMPI PUSH1 0x20 SWAP1 PUSH1 0x40 SWAP1 PUSH1 0x1 PUSH1 0x1 PUSH1 0xA0 SHL SUB PUSH2 0x1B73 PUSH2 0x2B15 JUMP JUMPDEST AND DUP2 MSTORE PUSH1 0xB DUP4 MSTORE DUP2 DUP2 KECCAK256 PUSH1 0x24 CALLDATALOAD DUP3 MSTORE DUP4 MSTORE KECCAK256 SLOAD PUSH1 0x40 MLOAD SWAP1 DUP2 MSTORE RETURN JUMPDEST POP CALLVALUE PUSH2 0x1BF JUMPI PUSH1 0x20 CALLDATASIZE PUSH1 0x3 NOT ADD SLT PUSH2 0x1BF JUMPI PUSH1 0xFF PUSH1 0x40 PUSH1 0x20 SWAP3 PUSH1 0x4 CALLDATALOAD DUP2 MSTORE PUSH1 0xA DUP5 MSTORE KECCAK256 SLOAD AND PUSH1 0x40 MLOAD SWAP1 ISZERO ISZERO DUP2 MSTORE RETURN JUMPDEST POP CALLVALUE PUSH2 0x1BF JUMPI PUSH1 0x40 CALLDATASIZE PUSH1 0x3 NOT ADD SLT PUSH2 0x1BF JUMPI PUSH2 0x1BD7 PUSH2 0x2B15 JUMP JUMPDEST PUSH1 0x3 SLOAD PUSH1 0x40 MLOAD PUSH4 0x13815491 PUSH1 0xE2 SHL DUP2 MSTORE PUSH1 0x24 DUP1 CALLDATALOAD PUSH1 0x4 DUP4 ADD DUP2 SWAP1 MSTORE PUSH1 0x1 PUSH1 0x1 PUSH1 0xA0 SHL SUB DUP6 DUP2 AND SWAP3 DUP5 ADD SWAP3 SWAP1 SWAP3 MSTORE SWAP2 SWAP4 SWAP2 SWAP3 PUSH2 0x120 SWAP2 DUP6 SWAP2 PUSH1 0x44 SWAP2 DUP4 SWAP2 AND GAS STATICCALL SWAP3 DUP4 ISZERO PUSH2 0x1CEA JUMPI DUP5 SWAP4 PUSH2 0x1C9E JUMPI JUMPDEST POP PUSH1 0x1 PUSH1 0x1 PUSH1 0xA0 SHL SUB AND DUP1 DUP5 MSTORE PUSH1 0xB PUSH1 0x20 SWAP1 DUP2 MSTORE PUSH1 0x40 DUP1 DUP7 KECCAK256 DUP5 DUP8 MSTORE DUP3 MSTORE DUP6 KECCAK256 SLOAD SWAP1 SWAP5 PUSH2 0x12C SWAP5 PUSH2 0x1C74 SWAP5 SWAP1 SWAP4 SWAP3 PUSH2 0x1C85 JUMPI POP POP POP PUSH1 0xC0 DUP2 ADD MLOAD SWAP1 JUMPDEST PUSH1 0xE0 TIMESTAMP SWAP2 ADD MLOAD DUP1 TIMESTAMP GT PUSH2 0x1C7D JUMPI JUMPDEST POP PUSH2 0x3023 JUMP JUMPDEST DIV PUSH1 0x40 MLOAD SWAP1 DUP2 MSTORE RETURN JUMPDEST SWAP1 POP CODESIZE PUSH2 0x1C6E JUMP JUMPDEST PUSH1 0x40 SWAP3 DUP3 MSTORE PUSH1 0xB DUP8 MSTORE DUP3 DUP3 KECCAK256 SWAP1 DUP3 MSTORE DUP7 MSTORE KECCAK256 SLOAD SWAP1 PUSH2 0x1C60 JUMP JUMPDEST SWAP1 SWAP3 POP PUSH2 0x120 RETURNDATASIZE DUP2 GT PUSH2 0x1CE3 JUMPI JUMPDEST PUSH2 0x1CB6 DUP2 DUP4 PUSH2 0x2D94 JUMP JUMPDEST DUP2 ADD SWAP1 PUSH2 0x120 DUP2 DUP4 SUB SLT PUSH2 0x73D JUMPI SWAP2 PUSH1 0x20 SWAP5 PUSH2 0x1CD9 PUSH2 0x12C SWAP6 SWAP4 PUSH2 0x1C74 SWAP6 PUSH2 0x3030 JUMP JUMPDEST SWAP5 POP SWAP5 POP SWAP2 PUSH2 0x1C24 JUMP JUMPDEST POP RETURNDATASIZE PUSH2 0x1CAC JUMP JUMPDEST PUSH1 0x40 MLOAD RETURNDATASIZE DUP7 DUP3 RETURNDATACOPY RETURNDATASIZE SWAP1 REVERT JUMPDEST POP CALLVALUE PUSH2 0x1BF JUMPI DUP1 PUSH1 0x3 NOT CALLDATASIZE ADD SLT PUSH2 0x1BF JUMPI PUSH2 0x1D0E PUSH2 0x33AC JUMP JUMPDEST PUSH1 0x1 DUP1 SLOAD PUSH1 0x1 PUSH1 0x1 PUSH1 0xA0 SHL SUB NOT DUP2 AND SWAP1 SWAP2 SSTORE DUP2 SWAP1 PUSH1 0x1 PUSH1 0x1 PUSH1 0xA0 SHL SUB AND PUSH32 0x8BE0079C531659141344CD1FD0A4F28419497F9722A3DAAFE3B4186F6B6457E0 DUP3 DUP1 LOG3 DUP1 RETURN JUMPDEST POP CALLVALUE PUSH2 0x1BF JUMPI PUSH1 0x20 CALLDATASIZE PUSH1 0x3 NOT ADD SLT PUSH2 0x1BF JUMPI PUSH2 0x1D6C PUSH2 0x2B15 JUMP JUMPDEST PUSH1 0x10 SLOAD DUP3 SWAP2 PUSH1 0x1 PUSH1 0x1 PUSH1 0xA0 SHL SUB AND DUP3 JUMPDEST DUP3 DUP2 LT PUSH2 0x1F34 JUMPI POP PUSH2 0x1D8D DUP4 PUSH2 0x316D JUMP JUMPDEST SWAP3 PUSH2 0x1D9B PUSH1 0x40 MLOAD SWAP5 DUP6 PUSH2 0x2D94 JUMP JUMPDEST DUP1 DUP5 MSTORE PUSH2 0x1DAA PUSH1 0x1F NOT SWAP2 PUSH2 0x316D JUMP JUMPDEST ADD DUP5 JUMPDEST DUP2 DUP2 LT PUSH2 0x1F1D JUMPI POP POP DUP4 DUP5 JUMPDEST DUP4 DUP2 LT PUSH2 0x1E27 JUMPI DUP5 DUP7 PUSH1 0x40 MLOAD SWAP2 DUP3 SWAP2 PUSH1 0x20 DUP4 ADD PUSH1 0x20 DUP5 MSTORE DUP3 MLOAD DUP1 SWAP2 MSTORE PUSH1 0x40 DUP5 ADD PUSH1 0x20 PUSH1 0x40 DUP4 PUSH1 0x5 SHL DUP8 ADD ADD SWAP5 ADD SWAP3 SWAP1 JUMPDEST DUP3 DUP3 LT PUSH2 0x1DF8 JUMPI POP POP POP POP SUB SWAP1 RETURN JUMPDEST SWAP2 SWAP4 PUSH1 0x1 SWAP2 SWAP4 SWAP6 POP PUSH1 0x20 PUSH2 0x1E17 DUP2 SWAP3 PUSH1 0x3F NOT DUP11 DUP3 SUB ADD DUP7 MSTORE DUP9 MLOAD PUSH2 0x2DB5 JUMP JUMPDEST SWAP7 ADD SWAP3 ADD SWAP3 ADD DUP6 SWAP5 SWAP4 SWAP2 SWAP3 PUSH2 0x1DE9 JUMP JUMPDEST PUSH2 0x1E30 DUP2 PUSH2 0x2B61 JUMP JUMPDEST SWAP1 SLOAD SWAP1 PUSH1 0x3 SHL SHR DUP4 DUP8 MSTORE PUSH1 0xD PUSH1 0x20 MSTORE PUSH1 0x40 DUP8 KECCAK256 DUP2 DUP9 MSTORE PUSH1 0x20 MSTORE PUSH1 0x4 PUSH1 0x40 DUP9 KECCAK256 ADD SLOAD PUSH2 0x1E5F JUMPI JUMPDEST POP PUSH1 0x1 ADD PUSH2 0x1DB9 JUMP JUMPDEST PUSH1 0x1 SWAP2 SWAP3 PUSH2 0x1F16 SWAP2 DUP6 DUP10 MSTORE PUSH1 0xD PUSH1 0x20 MSTORE PUSH1 0x40 DUP10 KECCAK256 SWAP1 DUP10 MSTORE PUSH1 0x20 MSTORE PUSH1 0x40 DUP9 KECCAK256 PUSH1 0xFF PUSH1 0x8 PUSH1 0x40 MLOAD SWAP3 PUSH2 0x1E8E DUP5 PUSH2 0x2D46 JUMP JUMPDEST DUP7 DUP1 PUSH1 0xA0 SHL SUB DUP2 SLOAD AND DUP5 MSTORE DUP7 DUP2 ADD SLOAD PUSH1 0x20 DUP6 ADD MSTORE PUSH2 0x1EB5 DUP4 PUSH1 0x2 DUP4 ADD SLOAD AND PUSH1 0x40 DUP7 ADD PUSH2 0x30CA JUMP JUMPDEST PUSH1 0x40 MLOAD PUSH2 0x1EC9 DUP2 PUSH2 0x319 DUP2 PUSH1 0x3 DUP7 ADD PUSH2 0x2CC3 JUMP JUMPDEST PUSH1 0x60 DUP6 ADD MSTORE PUSH1 0x4 DUP2 ADD SLOAD PUSH1 0x80 DUP6 ADD MSTORE PUSH1 0x5 DUP2 ADD SLOAD PUSH1 0xA0 DUP6 ADD MSTORE PUSH1 0x6 DUP2 ADD SLOAD PUSH1 0xC0 DUP6 ADD MSTORE PUSH1 0x7 DUP2 ADD SLOAD PUSH1 0xE0 DUP6 ADD MSTORE ADD SLOAD AND ISZERO ISZERO PUSH2 0x100 DUP3 ADD MSTORE PUSH2 0x1F0B DUP3 DUP10 PUSH2 0x31D5 JUMP JUMPDEST MSTORE PUSH2 0x1216 DUP2 DUP9 PUSH2 0x31D5 JUMP JUMPDEST SWAP2 SWAP1 PUSH2 0x1E56 JUMP JUMPDEST PUSH1 0x20 SWAP1 PUSH2 0x1F28 PUSH2 0x3184 JUMP JUMPDEST DUP3 DUP3 DUP9 ADD ADD MSTORE ADD PUSH2 0x1DAD JUMP JUMPDEST PUSH2 0x1F3D DUP2 PUSH2 0x2B61 JUMP JUMPDEST SWAP1 SLOAD SWAP1 PUSH1 0x3 SHL SHR DUP3 DUP7 MSTORE PUSH1 0xD PUSH1 0x20 MSTORE PUSH1 0x40 DUP7 KECCAK256 SWAP1 DUP7 MSTORE PUSH1 0x20 MSTORE PUSH1 0x4 PUSH1 0x40 DUP7 KECCAK256 ADD SLOAD PUSH2 0x1F6B JUMPI JUMPDEST PUSH1 0x1 ADD PUSH2 0x1D7C JUMP JUMPDEST SWAP3 PUSH2 0x1F77 PUSH1 0x1 SWAP2 PUSH2 0x315E JUMP JUMPDEST SWAP4 SWAP1 POP PUSH2 0x1F63 JUMP JUMPDEST POP CALLVALUE PUSH2 0x1BF JUMPI PUSH1 0x20 CALLDATASIZE PUSH1 0x3 NOT ADD SLT PUSH2 0x1BF JUMPI PUSH1 0x4 CALLDATALOAD DUP2 MSTORE PUSH1 0xE PUSH1 0x20 MSTORE PUSH1 0x40 SWAP1 KECCAK256 DUP1 SLOAD PUSH1 0x40 MLOAD SWAP2 DUP3 DUP1 PUSH1 0x1 DUP4 ADD SWAP1 PUSH2 0x1FB5 SWAP2 PUSH2 0x2CC3 JUMP JUMPDEST SUB PUSH2 0x1FC0 SWAP1 DUP5 PUSH2 0x2D94 JUMP JUMPDEST PUSH1 0x2 DUP2 ADD SLOAD PUSH1 0x40 MLOAD SWAP1 PUSH1 0xFF AND DUP2 PUSH2 0x1FDA DUP2 PUSH1 0x3 DUP7 ADD PUSH2 0x2CC3 JUMP JUMPDEST SUB PUSH2 0x1FE5 SWAP1 DUP4 PUSH2 0x2D94 JUMP JUMPDEST PUSH1 0x4 DUP4 ADD SLOAD SWAP2 PUSH1 0x5 DUP5 ADD SLOAD PUSH1 0x6 DUP6 ADD SLOAD PUSH1 0x7 DUP7 ADD SLOAD SWAP2 PUSH1 0x8 DUP8 ADD SLOAD SWAP4 PUSH1 0x9 DUP9 ADD SLOAD SWAP6 PUSH1 0x40 MLOAD DUP1 PUSH1 0xA DUP2 SWAP12 ADD SWAP1 PUSH2 0x201A SWAP2 PUSH2 0x2CC3 JUMP JUMPDEST SUB PUSH2 0x2025 SWAP1 DUP11 PUSH2 0x2D94 JUMP JUMPDEST PUSH1 0x40 MLOAD SWAP11 DUP12 SWAP11 DUP12 MSTORE PUSH1 0x20 DUP12 ADD PUSH2 0x160 SWAP1 MSTORE PUSH2 0x160 DUP12 ADD PUSH2 0x2044 SWAP2 PUSH2 0x2B9F JUMP JUMPDEST SWAP1 PUSH1 0x40 DUP12 ADD PUSH2 0x2052 SWAP2 PUSH2 0x2BC4 JUMP JUMPDEST DUP10 DUP2 SUB PUSH1 0x60 DUP12 ADD MSTORE PUSH2 0x2063 SWAP2 PUSH2 0x2B9F JUMP JUMPDEST SWAP6 PUSH1 0x80 DUP10 ADD MSTORE PUSH1 0xA0 DUP9 ADD MSTORE PUSH1 0xC0 DUP8 ADD MSTORE PUSH1 0xE0 DUP7 ADD MSTORE PUSH2 0x100 DUP6 ADD MSTORE PUSH2 0x120 DUP5 ADD MSTORE DUP3 DUP2 SUB PUSH2 0x140 DUP5 ADD MSTORE PUSH2 0x36C SWAP2 PUSH2 0x2B9F JUMP JUMPDEST POP CALLVALUE PUSH2 0x1BF JUMPI PUSH1 0x20 CALLDATASIZE PUSH1 0x3 NOT ADD SLT PUSH2 0x1BF JUMPI PUSH1 0x40 PUSH2 0x36C SWAP2 PUSH2 0x20B6 PUSH2 0x3105 JUMP JUMPDEST POP PUSH1 0x4 CALLDATALOAD DUP2 MSTORE PUSH1 0xE PUSH1 0x20 MSTORE KECCAK256 PUSH1 0xA PUSH2 0x20EC PUSH1 0x40 MLOAD SWAP3 PUSH2 0x20D4 DUP5 PUSH2 0x2D78 JUMP JUMPDEST DUP1 SLOAD DUP5 MSTORE PUSH1 0x40 MLOAD PUSH2 0x117B DUP2 PUSH2 0x319 DUP2 PUSH1 0x1 DUP7 ADD PUSH2 0x2CC3 JUMP JUMPDEST PUSH2 0x140 DUP3 ADD MSTORE PUSH1 0x40 MLOAD SWAP2 DUP3 SWAP2 PUSH1 0x20 DUP4 MSTORE PUSH1 0x20 DUP4 ADD SWAP1 PUSH2 0x2BE7 JUMP JUMPDEST POP CALLVALUE PUSH2 0x1BF JUMPI DUP1 PUSH1 0x3 NOT CALLDATASIZE ADD SLT PUSH2 0x1BF JUMPI PUSH1 0x20 PUSH1 0x2 SLOAD PUSH1 0x40 MLOAD SWAP1 DUP2 MSTORE RETURN JUMPDEST POP CALLVALUE PUSH2 0x1BF JUMPI PUSH1 0x80 CALLDATASIZE PUSH1 0x3 NOT ADD SLT PUSH2 0x1BF JUMPI PUSH1 0x44 CALLDATALOAD PUSH1 0x4 CALLDATALOAD PUSH2 0x2144 PUSH2 0x338A JUMP JUMPDEST PUSH1 0x64 CALLDATALOAD ISZERO PUSH2 0x260E JUMPI PUSH1 0x1B DUP3 GT DUP1 ISZERO SWAP1 PUSH2 0x2602 JUMPI JUMPDEST PUSH2 0x25F3 JUMPI DUP1 DUP4 MSTORE PUSH1 0xA PUSH1 0x20 MSTORE PUSH1 0xFF PUSH1 0x40 DUP5 KECCAK256 SLOAD AND ISZERO PUSH2 0x25E4 JUMPI DUP1 DUP4 MSTORE PUSH1 0xE PUSH1 0x20 MSTORE PUSH1 0x40 DUP4 KECCAK256 SWAP2 PUSH1 0x8 DUP4 ADD DUP1 SLOAD PUSH1 0x24 CALLDATALOAD GT PUSH2 0x25D5 JUMPI PUSH1 0x7 DUP5 ADD PUSH2 0x219D PUSH1 0x24 CALLDATALOAD DUP3 SLOAD PUSH2 0x30BD JUMP JUMPDEST PUSH1 0x6 DUP7 ADD DUP1 SLOAD DUP3 GT PUSH2 0x25C6 JUMPI PUSH1 0x4 SLOAD DUP9 SWAP1 PUSH1 0x1 PUSH1 0x1 PUSH1 0xA0 SHL SUB AND DUP1 EXTCODESIZE ISZERO PUSH2 0x65E JUMPI PUSH1 0x40 MLOAD PUSH4 0x2770A7EB PUSH1 0xE2 SHL DUP2 MSTORE CALLER PUSH1 0x4 DUP3 ADD MSTORE PUSH1 0x64 CALLDATALOAD PUSH1 0x24 DUP3 ADD MSTORE SWAP1 DUP3 SWAP1 DUP3 SWAP1 PUSH1 0x44 SWAP1 DUP3 SWAP1 DUP5 SWAP1 GAS CALL DUP1 ISZERO PUSH2 0x653 JUMPI PUSH2 0x25B1 JUMPI JUMPDEST POP POP DUP2 PUSH2 0x2205 SWAP4 SSTORE SLOAD PUSH2 0x1C6E DUP3 DUP3 PUSH2 0x3023 JUMP JUMPDEST SWAP1 SSTORE CALLER DUP5 MSTORE PUSH1 0xD PUSH1 0x20 MSTORE PUSH1 0x40 DUP5 KECCAK256 DUP3 DUP6 MSTORE PUSH1 0x20 MSTORE PUSH1 0x4 PUSH1 0x40 DUP6 KECCAK256 ADD SLOAD ISZERO PUSH1 0x0 EQ PUSH2 0x25A2 JUMPI PUSH1 0xFF PUSH1 0x2 DUP5 ADD SLOAD AND SWAP1 PUSH3 0x15180 DUP2 MUL DUP2 DUP2 DIV PUSH3 0x15180 EQ DUP3 ISZERO OR ISZERO PUSH2 0x258E JUMPI PUSH2 0x2252 SWAP1 TIMESTAMP PUSH2 0x30BD JUMP JUMPDEST PUSH1 0x40 MLOAD SWAP4 PUSH2 0x225F DUP6 PUSH2 0x2D46 JUMP JUMPDEST CALLER DUP6 MSTORE PUSH1 0x20 DUP6 ADD SWAP4 DUP2 DUP6 MSTORE PUSH2 0x2278 PUSH1 0x40 DUP8 ADD SWAP2 DUP3 PUSH2 0x30CA JUMP JUMPDEST PUSH1 0x40 MLOAD SWAP1 PUSH2 0x2294 DUP3 PUSH2 0x228D DUP2 PUSH1 0x1 DUP13 ADD PUSH2 0x2CC3 JUMP JUMPDEST SUB DUP4 PUSH2 0x2D94 JUMP JUMPDEST PUSH1 0x60 DUP8 ADD SWAP2 DUP3 MSTORE PUSH1 0x80 DUP8 ADD SWAP3 PUSH1 0x24 CALLDATALOAD DUP5 MSTORE PUSH1 0xA0 DUP9 ADD SWAP5 DUP11 DUP7 MSTORE PUSH1 0xC0 DUP10 ADD SWAP7 DUP8 MSTORE PUSH1 0xE0 DUP10 ADD MSTORE PUSH1 0x1 PUSH2 0x100 DUP10 ADD MSTORE CALLER DUP11 MSTORE PUSH1 0xD PUSH1 0x20 MSTORE PUSH1 0x40 DUP11 KECCAK256 SWAP1 DUP11 MSTORE PUSH1 0x20 MSTORE PUSH1 0x40 DUP10 KECCAK256 SWAP6 PUSH1 0x1 DUP1 PUSH1 0xA0 SHL SUB DUP9 MLOAD AND PUSH12 0xFFFFFFFFFFFFFFFFFFFFFFFF PUSH1 0xA0 SHL DUP9 SLOAD AND OR DUP8 SSTORE MLOAD PUSH1 0x1 DUP8 ADD SSTORE MLOAD PUSH1 0x3 DUP2 LT ISZERO PUSH2 0xE83 JUMPI PUSH2 0x2315 SWAP1 PUSH1 0x2 DUP8 ADD PUSH2 0x30D6 JUMP JUMPDEST MLOAD DUP1 MLOAD SWAP1 PUSH1 0x1 PUSH1 0x1 PUSH1 0x40 SHL SUB DUP3 GT PUSH2 0xDC5 JUMPI PUSH2 0x2334 PUSH1 0x3 DUP8 ADD SLOAD PUSH2 0x2C89 JUMP JUMPDEST PUSH1 0x1F DUP2 GT PUSH2 0x255B JUMPI JUMPDEST POP PUSH1 0x20 SWAP1 PUSH1 0x1F DUP4 GT PUSH1 0x1 EQ PUSH2 0x24E6 JUMPI DUP3 PUSH2 0x100 SWAP8 SWAP6 SWAP4 PUSH1 0x8 SWAP8 SWAP6 SWAP4 PUSH2 0x2377 SWAP4 DUP14 SWAP3 PUSH2 0x24DB JUMPI POP POP DUP2 PUSH1 0x1 SHL SWAP2 PUSH1 0x0 NOT SWAP1 PUSH1 0x3 SHL SHR NOT AND OR SWAP1 JUMP JUMPDEST PUSH1 0x3 DUP6 ADD SSTORE JUMPDEST MLOAD PUSH1 0x4 DUP5 ADD SSTORE MLOAD PUSH1 0x5 DUP4 ADD SSTORE MLOAD PUSH1 0x6 DUP3 ADD SSTORE PUSH1 0xE0 DUP5 ADD MLOAD PUSH1 0x7 DUP3 ADD SSTORE ADD SWAP2 ADD MLOAD ISZERO ISZERO PUSH1 0xFF DUP1 NOT DUP4 SLOAD AND SWAP2 AND OR SWAP1 SSTORE DUP2 DUP3 SWAP1 PUSH1 0x8 SLOAD SWAP2 JUMPDEST DUP3 DUP2 LT PUSH2 0x24A8 JUMPI JUMPDEST POP ISZERO PUSH2 0x2456 JUMPI JUMPDEST POP CALLER DUP3 MSTORE PUSH1 0x9 PUSH1 0x20 MSTORE PUSH1 0x40 DUP3 KECCAK256 DUP1 SLOAD SWAP1 PUSH1 0x1 DUP3 ADD DUP1 SWAP3 GT PUSH2 0x2442 JUMPI SWAP2 PUSH1 0x2 SWAP2 PUSH1 0xFF SWAP4 SSTORE PUSH2 0x23F2 PUSH1 0x64 CALLDATALOAD DUP4 SLOAD PUSH2 0x30BD JUMP JUMPDEST DUP3 SSTORE ADD SLOAD AND PUSH2 0x2415 PUSH1 0x40 MLOAD SWAP2 PUSH1 0x24 CALLDATALOAD DUP4 MSTORE PUSH1 0x64 CALLDATALOAD PUSH1 0x20 DUP5 ADD MSTORE PUSH1 0x40 DUP4 ADD SWAP1 PUSH2 0x2BC4 JUMP JUMPDEST PUSH32 0x23B0F39E0762759FFB18632A1A2B79C9EB58571454E5F7C36E0A2F81759E0A34 PUSH1 0x60 CALLER SWAP3 LOG2 PUSH1 0x1 DUP2 SSTORE DUP1 RETURN JUMPDEST PUSH4 0x4E487B71 PUSH1 0xE0 SHL DUP5 MSTORE PUSH1 0x11 PUSH1 0x4 MSTORE PUSH1 0x24 DUP5 REVERT JUMPDEST PUSH1 0x1 PUSH1 0x40 SHL DUP2 LT ISZERO PUSH2 0x2494 JUMPI DUP1 PUSH1 0x1 PUSH2 0x2472 SWAP3 ADD PUSH1 0x8 SSTORE PUSH2 0x2B30 JUMP JUMPDEST DUP2 SLOAD PUSH1 0x1 PUSH1 0x1 PUSH1 0xA0 SHL SUB PUSH1 0x3 SWAP3 SWAP1 SWAP3 SHL SWAP2 DUP3 SHL NOT AND CALLER SWAP1 SWAP2 SHL OR SWAP1 SSTORE CODESIZE PUSH2 0x23C2 JUMP JUMPDEST PUSH4 0x4E487B71 PUSH1 0xE0 SHL DUP4 MSTORE PUSH1 0x41 PUSH1 0x4 MSTORE PUSH1 0x24 DUP4 REVERT JUMPDEST PUSH2 0x24B1 DUP2 PUSH2 0x2B30 JUMP JUMPDEST SWAP1 SLOAD PUSH1 0x3 SWAP2 SWAP1 SWAP2 SHL SHR PUSH1 0x1 PUSH1 0x1 PUSH1 0xA0 SHL SUB AND CALLER EQ PUSH2 0x24D1 JUMPI PUSH1 0x1 ADD PUSH2 0x23B3 JUMP JUMPDEST POP POP PUSH1 0x1 CODESIZE PUSH2 0x23BB JUMP JUMPDEST ADD MLOAD SWAP1 POP CODESIZE DUP1 PUSH2 0xAE9 JUMP JUMPDEST SWAP1 PUSH1 0x3 DUP8 ADD DUP11 MSTORE DUP1 DUP11 KECCAK256 SWAP2 DUP11 JUMPDEST PUSH1 0x1F NOT DUP6 AND DUP2 LT PUSH2 0x2543 JUMPI POP SWAP3 PUSH1 0x8 SWAP7 SWAP5 SWAP3 PUSH1 0x1 SWAP3 PUSH2 0x100 SWAP10 SWAP8 SWAP6 DUP4 PUSH1 0x1F NOT DUP2 AND LT PUSH2 0x252A JUMPI JUMPDEST POP POP POP DUP2 SHL ADD PUSH1 0x3 DUP6 ADD SSTORE PUSH2 0x237D JUMP JUMPDEST ADD MLOAD PUSH1 0x0 NOT PUSH1 0xF8 DUP5 PUSH1 0x3 SHL AND SHR NOT AND SWAP1 SSTORE CODESIZE DUP1 DUP1 PUSH2 0x251A JUMP JUMPDEST SWAP2 SWAP3 PUSH1 0x20 PUSH1 0x1 DUP2 SWAP3 DUP7 DUP6 ADD MLOAD DUP2 SSTORE ADD SWAP5 ADD SWAP3 ADD PUSH2 0x24F3 JUMP JUMPDEST PUSH2 0x2588 SWAP1 PUSH1 0x3 DUP9 ADD DUP12 MSTORE PUSH1 0x20 DUP12 KECCAK256 PUSH1 0x1F DUP6 ADD PUSH1 0x5 SHR DUP2 ADD SWAP2 PUSH1 0x20 DUP7 LT PUSH2 0xDBB JUMPI PUSH1 0x1F ADD PUSH1 0x5 SHR ADD SWAP1 PUSH2 0x30EE JUMP JUMPDEST CODESIZE PUSH2 0x233D JUMP JUMPDEST PUSH4 0x4E487B71 PUSH1 0xE0 SHL DUP7 MSTORE PUSH1 0x11 PUSH1 0x4 MSTORE PUSH1 0x24 DUP7 REVERT JUMPDEST PUSH4 0x9857CBD9 PUSH1 0xE0 SHL DUP5 MSTORE PUSH1 0x4 DUP5 REVERT JUMPDEST DUP2 PUSH2 0x25BB SWAP2 PUSH2 0x2D94 JUMP JUMPDEST PUSH2 0x171E JUMPI DUP8 CODESIZE PUSH2 0x21F2 JUMP JUMPDEST PUSH4 0xBC6072F1 PUSH1 0xE0 SHL DUP9 MSTORE PUSH1 0x4 DUP9 REVERT JUMPDEST PUSH4 0xBC6072F1 PUSH1 0xE0 SHL DUP6 MSTORE PUSH1 0x4 DUP6 REVERT JUMPDEST PUSH4 0xBCCD4043 PUSH1 0xE0 SHL DUP4 MSTORE PUSH1 0x4 DUP4 REVERT JUMPDEST PUSH4 0x1F899589 PUSH1 0xE1 SHL DUP4 MSTORE PUSH1 0x4 DUP4 REVERT JUMPDEST POP PUSH2 0x16E DUP3 LT ISZERO PUSH2 0x2158 JUMP JUMPDEST PUSH4 0x162908E3 PUSH1 0xE1 SHL DUP4 MSTORE PUSH1 0x4 DUP4 REVERT JUMPDEST POP CALLVALUE PUSH2 0x1BF JUMPI DUP1 PUSH1 0x3 NOT CALLDATASIZE ADD SLT PUSH2 0x1BF JUMPI PUSH1 0x7 SLOAD PUSH1 0x40 MLOAD PUSH1 0x1 PUSH1 0x1 PUSH1 0xA0 SHL SUB SWAP1 SWAP2 AND DUP2 MSTORE PUSH1 0x20 SWAP1 RETURN JUMPDEST POP CALLVALUE PUSH2 0x1BF JUMPI PUSH1 0x20 CALLDATASIZE PUSH1 0x3 NOT ADD SLT PUSH2 0x1BF JUMPI PUSH1 0x4 CALLDATALOAD SWAP1 PUSH1 0x8 SLOAD DUP3 LT ISZERO PUSH2 0x1BF JUMPI PUSH1 0x20 PUSH2 0x2671 DUP4 PUSH2 0x2B30 JUMP JUMPDEST SWAP1 SLOAD PUSH1 0x40 MLOAD PUSH1 0x3 SWAP3 SWAP1 SWAP3 SHL SHR PUSH1 0x1 PUSH1 0x1 PUSH1 0xA0 SHL SUB AND DUP2 MSTORE RETURN JUMPDEST POP CALLVALUE PUSH2 0x1BF JUMPI DUP1 PUSH1 0x3 NOT CALLDATASIZE ADD SLT PUSH2 0x1BF JUMPI PUSH1 0x4 SLOAD PUSH1 0x40 MLOAD PUSH1 0x1 PUSH1 0x1 PUSH1 0xA0 SHL SUB SWAP1 SWAP2 AND DUP2 MSTORE PUSH1 0x20 SWAP1 RETURN JUMPDEST POP CALLVALUE PUSH2 0x1BF JUMPI PUSH1 0x20 CALLDATASIZE PUSH1 0x3 NOT ADD SLT PUSH2 0x1BF JUMPI PUSH1 0x4 CALLDATALOAD PUSH2 0x26D0 PUSH2 0x338A JUMP JUMPDEST PUSH1 0x3 SLOAD PUSH1 0x40 MLOAD PUSH4 0x13815491 PUSH1 0xE2 SHL DUP2 MSTORE PUSH1 0x4 DUP2 ADD DUP4 SWAP1 MSTORE CALLER PUSH1 0x24 DUP3 ADD MSTORE SWAP1 PUSH2 0x120 SWAP1 DUP3 SWAP1 PUSH1 0x44 SWAP1 DUP3 SWAP1 PUSH1 0x1 PUSH1 0x1 PUSH1 0xA0 SHL SUB AND GAS STATICCALL SWAP1 DUP2 ISZERO PUSH2 0x741 JUMPI DUP4 SWAP2 PUSH2 0x2863 JUMPI JUMPDEST POP PUSH1 0x80 DUP2 ADD MLOAD PUSH1 0x2 DUP2 LT ISZERO PUSH2 0x284F JUMPI PUSH2 0x2840 JUMPI CALLER DUP4 MSTORE PUSH1 0xB PUSH1 0x20 MSTORE PUSH1 0x40 DUP4 KECCAK256 DUP3 DUP5 MSTORE PUSH1 0x20 MSTORE PUSH1 0x40 DUP4 KECCAK256 SLOAD ISZERO PUSH1 0x0 EQ PUSH2 0x281E JUMPI PUSH2 0x12C PUSH2 0x2763 PUSH1 0xC0 DUP4 ADD MLOAD JUMPDEST TIMESTAMP PUSH1 0xE0 DUP6 ADD MLOAD DUP1 TIMESTAMP GT PUSH2 0x1C7D JUMPI POP PUSH2 0x3023 JUMP JUMPDEST DIV SWAP1 DUP2 ISZERO PUSH2 0x280F JUMPI SWAP1 PUSH1 0x60 PUSH2 0x2779 SWAP3 ADD MLOAD PUSH2 0x2FFA JUMP JUMPDEST PUSH1 0x2 SLOAD DUP2 GT PUSH2 0x2800 JUMPI CALLER DUP4 MSTORE PUSH1 0xB PUSH1 0x20 MSTORE PUSH1 0x40 DUP4 KECCAK256 DUP3 DUP5 MSTORE PUSH1 0x20 MSTORE TIMESTAMP PUSH1 0x40 DUP5 KECCAK256 SSTORE PUSH1 0x1 DUP1 PUSH1 0xA0 SHL SUB PUSH1 0x4 SLOAD AND DUP1 EXTCODESIZE ISZERO PUSH2 0x739 JUMPI PUSH1 0x40 MLOAD PUSH4 0x7104A76D PUSH1 0xE1 SHL DUP2 MSTORE CALLER PUSH1 0x4 DUP3 ADD MSTORE PUSH1 0x24 DUP2 ADD DUP4 SWAP1 MSTORE SWAP1 DUP5 SWAP1 DUP3 SWAP1 PUSH1 0x44 SWAP1 DUP3 SWAP1 DUP5 SWAP1 GAS CALL DUP1 ISZERO PUSH2 0x1CEA JUMPI PUSH2 0x27EC JUMPI JUMPDEST POP PUSH2 0x604 DUP2 PUSH1 0x2 SLOAD PUSH2 0x3023 JUMP JUMPDEST DUP4 PUSH2 0x27F9 SWAP2 SWAP5 SWAP3 SWAP5 PUSH2 0x2D94 JUMP JUMPDEST SWAP2 CODESIZE PUSH2 0x27DF JUMP JUMPDEST PUSH4 0xBC6072F1 PUSH1 0xE0 SHL DUP4 MSTORE PUSH1 0x4 DUP4 REVERT JUMPDEST PUSH4 0xED700A67 PUSH1 0xE0 SHL DUP5 MSTORE PUSH1 0x4 DUP5 REVERT JUMPDEST CALLER DUP4 MSTORE PUSH1 0xB PUSH1 0x20 MSTORE PUSH1 0x40 DUP4 KECCAK256 DUP3 DUP5 MSTORE PUSH1 0x20 MSTORE PUSH2 0x12C PUSH2 0x2763 PUSH1 0x40 DUP6 KECCAK256 SLOAD PUSH2 0x2750 JUMP JUMPDEST PUSH4 0xE067835F PUSH1 0xE0 SHL DUP4 MSTORE PUSH1 0x4 DUP4 REVERT JUMPDEST PUSH4 0x4E487B71 PUSH1 0xE0 SHL DUP5 MSTORE PUSH1 0x21 PUSH1 0x4 MSTORE PUSH1 0x24 DUP5 REVERT JUMPDEST SWAP1 POP PUSH2 0x120 RETURNDATASIZE DUP2 GT PUSH2 0x2896 JUMPI JUMPDEST PUSH2 0x287A DUP2 DUP4 PUSH2 0x2D94 JUMP JUMPDEST DUP2 ADD PUSH2 0x120 DUP3 DUP3 SUB SLT PUSH2 0x739 JUMPI PUSH2 0x2890 SWAP2 PUSH2 0x3030 JUMP JUMPDEST CODESIZE PUSH2 0x2712 JUMP JUMPDEST POP RETURNDATASIZE PUSH2 0x2870 JUMP JUMPDEST POP CALLVALUE PUSH2 0x1BF JUMPI DUP1 PUSH1 0x3 NOT CALLDATASIZE ADD SLT PUSH2 0x1BF JUMPI PUSH1 0x40 MLOAD DUP1 PUSH1 0x20 PUSH1 0x8 SLOAD SWAP2 DUP3 DUP2 MSTORE ADD DUP1 SWAP2 PUSH1 0x8 DUP6 MSTORE PUSH32 0xF3F7A9FE364FAAB93B216DA50A3214154F22A0A2B415B23A84C8169E8B636EE3 SWAP1 DUP6 JUMPDEST DUP2 DUP2 LT PUSH2 0x2946 JUMPI POP POP POP DUP3 PUSH2 0x28FC SWAP2 SUB DUP4 PUSH2 0x2D94 JUMP JUMPDEST PUSH1 0x40 MLOAD SWAP3 DUP4 SWAP3 PUSH1 0x20 DUP5 ADD SWAP1 PUSH1 0x20 DUP6 MSTORE MLOAD DUP1 SWAP2 MSTORE PUSH1 0x40 DUP5 ADD SWAP3 SWAP2 JUMPDEST DUP2 DUP2 LT PUSH2 0x2924 JUMPI POP POP POP SUB SWAP1 RETURN JUMPDEST DUP3 MLOAD PUSH1 0x1 PUSH1 0x1 PUSH1 0xA0 SHL SUB AND DUP5 MSTORE DUP6 SWAP5 POP PUSH1 0x20 SWAP4 DUP5 ADD SWAP4 SWAP1 SWAP3 ADD SWAP2 PUSH1 0x1 ADD PUSH2 0x2916 JUMP JUMPDEST DUP3 SLOAD PUSH1 0x1 PUSH1 0x1 PUSH1 0xA0 SHL SUB AND DUP5 MSTORE PUSH1 0x20 SWAP1 SWAP4 ADD SWAP3 PUSH1 0x1 SWAP3 DUP4 ADD SWAP3 ADD PUSH2 0x28E6 JUMP JUMPDEST POP CALLVALUE PUSH2 0x1BF JUMPI PUSH1 0x20 CALLDATASIZE PUSH1 0x3 NOT ADD SLT PUSH2 0x1BF JUMPI PUSH1 0x4 CALLDATALOAD PUSH2 0x298F PUSH1 0x1 DUP1 PUSH1 0xA0 SHL SUB PUSH1 0x6 SLOAD AND CALLER EQ PUSH2 0x2F1B JUMP JUMPDEST PUSH2 0x2997 PUSH2 0x338A JUMP JUMPDEST DUP1 DUP3 MSTORE PUSH1 0xE PUSH1 0x20 MSTORE PUSH1 0x40 DUP1 DUP4 KECCAK256 PUSH1 0x3 SLOAD PUSH1 0x9 DUP3 ADD SLOAD SWAP3 MLOAD PUSH4 0x68BCD8D PUSH1 0xE0 SHL DUP2 MSTORE PUSH1 0x4 DUP2 ADD SWAP4 SWAP1 SWAP4 MSTORE DUP5 SWAP1 DUP4 SWAP1 PUSH1 0x24 SWAP1 DUP3 SWAP1 PUSH1 0x1 PUSH1 0x1 PUSH1 0xA0 SHL SUB AND GAS STATICCALL SWAP2 DUP3 ISZERO PUSH2 0x1CEA JUMPI DUP5 SWAP3 PUSH2 0x2AAF JUMPI JUMPDEST POP PUSH1 0x4 ADD SLOAD DUP1 ISZERO PUSH2 0x2A71 JUMPI PUSH8 0xDE0B6B3A7640000 DUP2 MUL SWAP1 DUP2 DIV PUSH8 0xDE0B6B3A7640000 SUB PUSH2 0x2442 JUMPI PUSH8 0xDE0B6B3A7640000 SWAP2 PUSH1 0x64 PUSH2 0x2A20 SWAP3 DIV SWAP1 PUSH2 0x2FFA JUMP JUMPDEST DIV DUP2 DUP4 MSTORE PUSH1 0xE PUSH1 0x20 MSTORE PUSH1 0x6 PUSH1 0x40 DUP5 KECCAK256 ADD SSTORE DUP1 DUP3 MSTORE PUSH1 0xE PUSH1 0x20 MSTORE PUSH2 0x2A5A PUSH1 0x6 PUSH1 0x40 DUP5 KECCAK256 ADD SLOAD DUP3 DUP5 MSTORE PUSH1 0xE PUSH1 0x20 MSTORE PUSH1 0x7 PUSH1 0x40 DUP6 KECCAK256 ADD SLOAD SWAP1 PUSH2 0x3023 JUMP JUMPDEST SWAP1 DUP3 MSTORE PUSH1 0xE PUSH1 0x20 MSTORE PUSH1 0x8 PUSH1 0x40 DUP4 KECCAK256 ADD SSTORE PUSH1 0x1 DUP2 SSTORE DUP1 RETURN JUMPDEST PUSH1 0x40 MLOAD PUSH3 0x461BCD PUSH1 0xE5 SHL DUP2 MSTORE PUSH1 0x20 PUSH1 0x4 DUP3 ADD MSTORE PUSH1 0x16 PUSH1 0x24 DUP3 ADD MSTORE PUSH22 0x496E76616C696420636F766572206361706163697479 PUSH1 0x50 SHL PUSH1 0x44 DUP3 ADD MSTORE PUSH1 0x64 SWAP1 REVERT JUMPDEST PUSH1 0x4 SWAP2 SWAP3 POP PUSH2 0x2AC7 SWAP1 RETURNDATASIZE DUP1 DUP8 DUP4 RETURNDATACOPY PUSH2 0xFC3 DUP2 DUP4 PUSH2 0x2D94 JUMP JUMPDEST POP POP SWAP4 POP POP POP POP SWAP2 SWAP1 PUSH2 0x29E2 JUMP JUMPDEST SWAP1 POP CALLVALUE PUSH2 0x65E JUMPI PUSH1 0x40 CALLDATASIZE PUSH1 0x3 NOT ADD SLT PUSH2 0x65E JUMPI PUSH1 0x20 SWAP2 PUSH1 0x40 SWAP1 PUSH1 0x1 PUSH1 0x1 PUSH1 0xA0 SHL SUB PUSH2 0x2AFE PUSH2 0x2B15 JUMP JUMPDEST AND DUP2 MSTORE PUSH1 0xC DUP5 MSTORE DUP2 DUP2 KECCAK256 PUSH1 0x24 CALLDATALOAD DUP3 MSTORE DUP5 MSTORE KECCAK256 SLOAD DUP2 MSTORE RETURN JUMPDEST PUSH1 0x4 CALLDATALOAD SWAP1 PUSH1 0x1 PUSH1 0x1 PUSH1 0xA0 SHL SUB DUP3 AND DUP3 SUB PUSH2 0x2B2B JUMPI JUMP JUMPDEST PUSH1 0x0 DUP1 REVERT JUMPDEST PUSH1 0x8 SLOAD DUP2 LT ISZERO PUSH2 0x2B4B JUMPI PUSH1 0x8 PUSH1 0x0 MSTORE PUSH1 0x20 PUSH1 0x0 KECCAK256 ADD SWAP1 PUSH1 0x0 SWAP1 JUMP JUMPDEST PUSH4 0x4E487B71 PUSH1 0xE0 SHL PUSH1 0x0 MSTORE PUSH1 0x32 PUSH1 0x4 MSTORE PUSH1 0x24 PUSH1 0x0 REVERT JUMPDEST PUSH1 0x10 SLOAD DUP2 LT ISZERO PUSH2 0x2B4B JUMPI PUSH1 0x10 PUSH1 0x0 MSTORE PUSH1 0x20 PUSH1 0x0 KECCAK256 ADD SWAP1 PUSH1 0x0 SWAP1 JUMP JUMPDEST PUSH1 0x0 JUMPDEST DUP4 DUP2 LT PUSH2 0x2B8F JUMPI POP POP PUSH1 0x0 SWAP2 ADD MSTORE JUMP JUMPDEST DUP2 DUP2 ADD MLOAD DUP4 DUP3 ADD MSTORE PUSH1 0x20 ADD PUSH2 0x2B7F JUMP JUMPDEST SWAP1 PUSH1 0x20 SWAP2 PUSH2 0x2BB8 DUP2 MLOAD DUP1 SWAP3 DUP2 DUP6 MSTORE DUP6 DUP1 DUP7 ADD SWAP2 ADD PUSH2 0x2B7C JUMP JUMPDEST PUSH1 0x1F ADD PUSH1 0x1F NOT AND ADD ADD SWAP1 JUMP JUMPDEST SWAP1 PUSH1 0x3 DUP3 LT ISZERO PUSH2 0x2BD1 JUMPI MSTORE JUMP JUMPDEST PUSH4 0x4E487B71 PUSH1 0xE0 SHL PUSH1 0x0 MSTORE PUSH1 0x21 PUSH1 0x4 MSTORE PUSH1 0x24 PUSH1 0x0 REVERT JUMPDEST PUSH2 0x2C86 SWAP2 DUP2 MLOAD DUP2 MSTORE PUSH2 0x140 PUSH2 0x2C34 PUSH2 0x2C10 PUSH1 0x20 DUP6 ADD MLOAD PUSH2 0x160 PUSH1 0x20 DUP7 ADD MSTORE PUSH2 0x160 DUP6 ADD SWAP1 PUSH2 0x2B9F JUMP JUMPDEST PUSH2 0x2C22 PUSH1 0x40 DUP7 ADD MLOAD PUSH1 0x40 DUP7 ADD SWAP1 PUSH2 0x2BC4 JUMP JUMPDEST PUSH1 0x60 DUP6 ADD MLOAD DUP5 DUP3 SUB PUSH1 0x60 DUP7 ADD MSTORE PUSH2 0x2B9F JUMP JUMPDEST SWAP3 PUSH1 0x80 DUP2 ADD MLOAD PUSH1 0x80 DUP5 ADD MSTORE PUSH1 0xA0 DUP2 ADD MLOAD PUSH1 0xA0 DUP5 ADD MSTORE PUSH1 0xC0 DUP2 ADD MLOAD PUSH1 0xC0 DUP5 ADD MSTORE PUSH1 0xE0 DUP2 ADD MLOAD PUSH1 0xE0 DUP5 ADD MSTORE PUSH2 0x100 DUP2 ADD MLOAD PUSH2 0x100 DUP5 ADD MSTORE PUSH2 0x120 DUP2 ADD MLOAD PUSH2 0x120 DUP5 ADD MSTORE ADD MLOAD SWAP1 PUSH2 0x140 DUP2 DUP5 SUB SWAP2 ADD MSTORE PUSH2 0x2B9F JUMP JUMPDEST SWAP1 JUMP JUMPDEST SWAP1 PUSH1 0x1 DUP3 DUP2 SHR SWAP3 AND DUP1 ISZERO PUSH2 0x2CB9 JUMPI JUMPDEST PUSH1 0x20 DUP4 LT EQ PUSH2 0x2CA3 JUMPI JUMP JUMPDEST PUSH4 0x4E487B71 PUSH1 0xE0 SHL PUSH1 0x0 MSTORE PUSH1 0x22 PUSH1 0x4 MSTORE PUSH1 0x24 PUSH1 0x0 REVERT JUMPDEST SWAP2 PUSH1 0x7F AND SWAP2 PUSH2 0x2C98 JUMP JUMPDEST PUSH1 0x0 SWAP3 SWAP2 DUP2 SLOAD SWAP2 PUSH2 0x2CD3 DUP4 PUSH2 0x2C89 JUMP JUMPDEST DUP1 DUP4 MSTORE SWAP3 PUSH1 0x1 DUP2 AND SWAP1 DUP2 ISZERO PUSH2 0x2D29 JUMPI POP PUSH1 0x1 EQ PUSH2 0x2CEF JUMPI POP POP POP JUMP JUMPDEST PUSH1 0x0 SWAP1 DUP2 MSTORE PUSH1 0x20 DUP2 KECCAK256 SWAP4 SWAP5 POP SWAP2 SWAP3 JUMPDEST DUP4 DUP4 LT PUSH2 0x2D0F JUMPI POP PUSH1 0x20 SWAP3 POP ADD ADD SWAP1 JUMP JUMPDEST PUSH1 0x1 DUP2 PUSH1 0x20 SWAP3 SWAP5 SWAP4 SWAP5 SLOAD DUP4 DUP6 DUP8 ADD ADD MSTORE ADD SWAP2 ADD SWAP2 SWAP1 PUSH2 0x2CFE JUMP JUMPDEST SWAP2 POP POP PUSH1 0x20 SWAP4 SWAP5 POP PUSH1 0xFF SWAP3 SWAP2 SWAP3 NOT AND DUP4 DUP4 ADD MSTORE ISZERO ISZERO PUSH1 0x5 SHL ADD ADD SWAP1 JUMP JUMPDEST PUSH2 0x120 DUP2 ADD SWAP1 DUP2 LT PUSH1 0x1 PUSH1 0x1 PUSH1 0x40 SHL SUB DUP3 GT OR PUSH2 0x2D62 JUMPI PUSH1 0x40 MSTORE JUMP JUMPDEST PUSH4 0x4E487B71 PUSH1 0xE0 SHL PUSH1 0x0 MSTORE PUSH1 0x41 PUSH1 0x4 MSTORE PUSH1 0x24 PUSH1 0x0 REVERT JUMPDEST PUSH2 0x160 DUP2 ADD SWAP1 DUP2 LT PUSH1 0x1 PUSH1 0x1 PUSH1 0x40 SHL SUB DUP3 GT OR PUSH2 0x2D62 JUMPI PUSH1 0x40 MSTORE JUMP JUMPDEST SWAP1 PUSH1 0x1F DUP1 NOT SWAP2 ADD AND DUP2 ADD SWAP1 DUP2 LT PUSH1 0x1 PUSH1 0x1 PUSH1 0x40 SHL SUB DUP3 GT OR PUSH2 0x2D62 JUMPI PUSH1 0x40 MSTORE JUMP JUMPDEST SWAP1 PUSH1 0x1 DUP1 PUSH1 0xA0 SHL SUB DUP3 MLOAD AND DUP2 MSTORE PUSH1 0x20 DUP3 ADD MLOAD PUSH1 0x20 DUP3 ADD MSTORE PUSH2 0x2DDE PUSH1 0x40 DUP4 ADD MLOAD PUSH1 0x40 DUP4 ADD SWAP1 PUSH2 0x2BC4 JUMP JUMPDEST PUSH2 0x100 DUP1 PUSH2 0x2DFD PUSH1 0x60 DUP6 ADD MLOAD PUSH2 0x120 PUSH1 0x60 DUP7 ADD MSTORE PUSH2 0x120 DUP6 ADD SWAP1 PUSH2 0x2B9F JUMP JUMPDEST SWAP4 PUSH1 0x80 DUP2 ADD MLOAD PUSH1 0x80 DUP6 ADD MSTORE PUSH1 0xA0 DUP2 ADD MLOAD PUSH1 0xA0 DUP6 ADD MSTORE PUSH1 0xC0 DUP2 ADD MLOAD PUSH1 0xC0 DUP6 ADD MSTORE PUSH1 0xE0 DUP2 ADD MLOAD PUSH1 0xE0 DUP6 ADD MSTORE ADD MLOAD ISZERO ISZERO SWAP2 ADD MSTORE SWAP1 JUMP JUMPDEST PUSH1 0x1 PUSH1 0x1 PUSH1 0x40 SHL SUB DUP2 GT PUSH2 0x2D62 JUMPI PUSH1 0x1F ADD PUSH1 0x1F NOT AND PUSH1 0x20 ADD SWAP1 JUMP JUMPDEST DUP2 PUSH1 0x1F DUP3 ADD SLT ISZERO PUSH2 0x2B2B JUMPI DUP1 CALLDATALOAD SWAP1 PUSH2 0x2E62 DUP3 PUSH2 0x2E30 JUMP JUMPDEST SWAP3 PUSH2 0x2E70 PUSH1 0x40 MLOAD SWAP5 DUP6 PUSH2 0x2D94 JUMP JUMPDEST DUP3 DUP5 MSTORE PUSH1 0x20 DUP4 DUP4 ADD ADD GT PUSH2 0x2B2B JUMPI DUP2 PUSH1 0x0 SWAP3 PUSH1 0x20 DUP1 SWAP4 ADD DUP4 DUP7 ADD CALLDATACOPY DUP4 ADD ADD MSTORE SWAP1 JUMP JUMPDEST PUSH2 0x100 PUSH1 0x3 NOT DUP3 ADD SLT PUSH2 0x2B2B JUMPI PUSH1 0x4 CALLDATALOAD SWAP2 PUSH1 0x24 CALLDATALOAD PUSH1 0x1 PUSH1 0x1 PUSH1 0x40 SHL SUB DUP2 GT PUSH2 0x2B2B JUMPI DUP3 PUSH2 0x2EC1 SWAP2 PUSH1 0x4 ADD PUSH2 0x2E4B JUMP JUMPDEST SWAP2 PUSH1 0x44 CALLDATALOAD PUSH1 0x3 DUP2 LT ISZERO PUSH2 0x2B2B JUMPI SWAP2 PUSH1 0x64 CALLDATALOAD PUSH1 0x1 PUSH1 0x1 PUSH1 0x40 SHL SUB DUP2 GT PUSH2 0x2B2B JUMPI DUP3 PUSH2 0x2EED SWAP2 PUSH1 0x4 ADD PUSH2 0x2E4B JUMP JUMPDEST SWAP2 PUSH1 0x84 CALLDATALOAD SWAP1 PUSH1 0x1 PUSH1 0x1 PUSH1 0x40 SHL SUB DUP3 GT PUSH2 0x2B2B JUMPI PUSH2 0x2F0C SWAP2 PUSH1 0x4 ADD PUSH2 0x2E4B JUMP JUMPDEST SWAP1 PUSH1 0xA4 CALLDATALOAD SWAP1 PUSH1 0xC4 CALLDATALOAD SWAP1 PUSH1 0xE4 CALLDATALOAD SWAP1 JUMP JUMPDEST ISZERO PUSH2 0x2F22 JUMPI JUMP JUMPDEST PUSH1 0x40 MLOAD PUSH3 0x461BCD PUSH1 0xE5 SHL DUP2 MSTORE PUSH1 0x20 PUSH1 0x4 DUP3 ADD MSTORE PUSH1 0xE PUSH1 0x24 DUP3 ADD MSTORE PUSH14 0x139BDD08185D5D1A1BDC9A5E9959 PUSH1 0x92 SHL PUSH1 0x44 DUP3 ADD MSTORE PUSH1 0x64 SWAP1 REVERT JUMPDEST DUP2 PUSH1 0x1F DUP3 ADD SLT ISZERO PUSH2 0x2B2B JUMPI DUP1 MLOAD PUSH2 0x2F6E DUP2 PUSH2 0x2E30 JUMP JUMPDEST SWAP3 PUSH2 0x2F7C PUSH1 0x40 MLOAD SWAP5 DUP6 PUSH2 0x2D94 JUMP JUMPDEST DUP2 DUP5 MSTORE PUSH1 0x20 DUP3 DUP5 ADD ADD GT PUSH2 0x2B2B JUMPI PUSH2 0x2C86 SWAP2 PUSH1 0x20 DUP1 DUP6 ADD SWAP2 ADD PUSH2 0x2B7C JUMP JUMPDEST SWAP1 PUSH1 0xE0 DUP3 DUP3 SUB SLT PUSH2 0x2B2B JUMPI DUP2 MLOAD SWAP1 PUSH1 0x1 PUSH1 0x1 PUSH1 0x40 SHL SUB DUP3 GT PUSH2 0x2B2B JUMPI PUSH2 0x2FC1 SWAP2 DUP4 ADD PUSH2 0x2F58 JUMP JUMPDEST SWAP2 PUSH1 0x20 DUP3 ADD MLOAD PUSH1 0x3 DUP2 LT ISZERO PUSH2 0x2B2B JUMPI SWAP2 PUSH1 0x40 DUP2 ADD MLOAD SWAP2 PUSH1 0x60 DUP3 ADD MLOAD SWAP2 PUSH1 0x80 DUP2 ADD MLOAD SWAP2 PUSH1 0xA0 DUP3 ADD MLOAD DUP1 ISZERO ISZERO DUP2 SUB PUSH2 0x2B2B JUMPI PUSH1 0xC0 SWAP1 SWAP3 ADD MLOAD SWAP1 JUMP JUMPDEST DUP2 DUP2 MUL SWAP3 SWAP2 DUP2 ISZERO SWAP2 DUP5 DIV EQ OR ISZERO PUSH2 0x300D JUMPI JUMP JUMPDEST PUSH4 0x4E487B71 PUSH1 0xE0 SHL PUSH1 0x0 MSTORE PUSH1 0x11 PUSH1 0x4 MSTORE PUSH1 0x24 PUSH1 0x0 REVERT JUMPDEST SWAP2 SWAP1 DUP3 SUB SWAP2 DUP3 GT PUSH2 0x300D JUMPI JUMP JUMPDEST SWAP2 SWAP1 DUP3 PUSH2 0x120 SWAP2 SUB SLT PUSH2 0x2B2B JUMPI PUSH1 0x40 MLOAD PUSH2 0x3049 DUP2 PUSH2 0x2D46 JUMP JUMPDEST DUP3 MLOAD SWAP1 SWAP3 DUP4 SWAP2 PUSH1 0x1 PUSH1 0x1 PUSH1 0xA0 SHL SUB DUP2 AND DUP2 SUB PUSH2 0x2B2B JUMPI DUP3 MSTORE PUSH1 0x20 DUP2 ADD MLOAD PUSH1 0x20 DUP4 ADD MSTORE PUSH1 0x40 DUP2 ADD MLOAD PUSH1 0x40 DUP4 ADD MSTORE PUSH1 0x60 DUP2 ADD MLOAD PUSH1 0x60 DUP4 ADD MSTORE PUSH1 0x80 DUP2 ADD MLOAD PUSH1 0x2 DUP2 LT ISZERO PUSH2 0x2B2B JUMPI PUSH2 0x100 SWAP2 DUP3 SWAP2 PUSH1 0x80 DUP6 ADD MSTORE PUSH1 0xA0 DUP2 ADD MLOAD PUSH1 0xA0 DUP6 ADD MSTORE PUSH1 0xC0 DUP2 ADD MLOAD PUSH1 0xC0 DUP6 ADD MSTORE PUSH1 0xE0 DUP2 ADD MLOAD PUSH1 0xE0 DUP6 ADD MSTORE ADD MLOAD SWAP2 ADD MSTORE JUMP JUMPDEST SWAP2 SWAP1 DUP3 ADD DUP1 SWAP3 GT PUSH2 0x300D JUMPI JUMP JUMPDEST PUSH1 0x3 DUP3 LT ISZERO PUSH2 0x2BD1 JUMPI MSTORE JUMP JUMPDEST SWAP1 PUSH1 0x3 DUP2 LT ISZERO PUSH2 0x2BD1 JUMPI PUSH1 0xFF DUP1 NOT DUP4 SLOAD AND SWAP2 AND OR SWAP1 SSTORE JUMP JUMPDEST DUP2 DUP2 LT PUSH2 0x30F9 JUMPI POP POP JUMP JUMPDEST PUSH1 0x0 DUP2 SSTORE PUSH1 0x1 ADD PUSH2 0x30EE JUMP JUMPDEST PUSH1 0x40 MLOAD SWAP1 PUSH2 0x3112 DUP3 PUSH2 0x2D78 JUMP JUMPDEST PUSH1 0x60 PUSH2 0x140 DUP4 PUSH1 0x0 DUP2 MSTORE DUP3 PUSH1 0x20 DUP3 ADD MSTORE PUSH1 0x0 PUSH1 0x40 DUP3 ADD MSTORE DUP3 DUP1 DUP3 ADD MSTORE PUSH1 0x0 PUSH1 0x80 DUP3 ADD MSTORE PUSH1 0x0 PUSH1 0xA0 DUP3 ADD MSTORE PUSH1 0x0 PUSH1 0xC0 DUP3 ADD MSTORE PUSH1 0x0 PUSH1 0xE0 DUP3 ADD MSTORE PUSH1 0x0 PUSH2 0x100 DUP3 ADD MSTORE PUSH1 0x0 PUSH2 0x120 DUP3 ADD MSTORE ADD MSTORE JUMP JUMPDEST PUSH1 0x0 NOT DUP2 EQ PUSH2 0x300D JUMPI PUSH1 0x1 ADD SWAP1 JUMP JUMPDEST PUSH1 0x1 PUSH1 0x1 PUSH1 0x40 SHL SUB DUP2 GT PUSH2 0x2D62 JUMPI PUSH1 0x5 SHL PUSH1 0x20 ADD SWAP1 JUMP JUMPDEST PUSH1 0x40 MLOAD SWAP1 PUSH2 0x3191 DUP3 PUSH2 0x2D46 JUMP JUMPDEST PUSH1 0x0 PUSH2 0x100 DUP4 DUP3 DUP2 MSTORE DUP3 PUSH1 0x20 DUP3 ADD MSTORE DUP3 PUSH1 0x40 DUP3 ADD MSTORE PUSH1 0x60 DUP1 DUP3 ADD MSTORE DUP3 PUSH1 0x80 DUP3 ADD MSTORE DUP3 PUSH1 0xA0 DUP3 ADD MSTORE DUP3 PUSH1 0xC0 DUP3 ADD MSTORE DUP3 PUSH1 0xE0 DUP3 ADD MSTORE ADD MSTORE JUMP JUMPDEST DUP1 MLOAD ISZERO PUSH2 0x2B4B JUMPI PUSH1 0x20 ADD SWAP1 JUMP JUMPDEST DUP1 MLOAD DUP3 LT ISZERO PUSH2 0x2B4B JUMPI PUSH1 0x20 SWAP2 PUSH1 0x5 SHL ADD ADD SWAP1 JUMP JUMPDEST PUSH1 0x20 DUP2 DUP4 SUB SLT PUSH2 0x2B2B JUMPI DUP1 MLOAD SWAP1 PUSH1 0x1 PUSH1 0x1 PUSH1 0x40 SHL SUB DUP3 GT PUSH2 0x2B2B JUMPI ADD SWAP1 DUP1 PUSH1 0x1F DUP4 ADD SLT ISZERO PUSH2 0x2B2B JUMPI DUP2 MLOAD SWAP2 PUSH2 0x321D DUP4 PUSH2 0x316D JUMP JUMPDEST SWAP3 PUSH2 0x322B PUSH1 0x40 MLOAD SWAP5 DUP6 PUSH2 0x2D94 JUMP JUMPDEST DUP1 DUP5 MSTORE PUSH1 0x20 DUP1 DUP6 ADD SWAP2 PUSH1 0x5 SHL DUP4 ADD ADD SWAP2 DUP4 DUP4 GT PUSH2 0x2B2B JUMPI PUSH1 0x20 DUP2 ADD SWAP2 JUMPDEST DUP4 DUP4 LT PUSH2 0x3257 JUMPI POP POP POP POP POP SWAP1 JUMP JUMPDEST DUP3 MLOAD PUSH1 0x1 PUSH1 0x1 PUSH1 0x40 SHL SUB DUP2 GT PUSH2 0x2B2B JUMPI DUP3 ADD SWAP1 PUSH2 0x160 DUP3 DUP8 SUB PUSH1 0x1F NOT ADD SLT PUSH2 0x2B2B JUMPI PUSH1 0x40 MLOAD SWAP1 PUSH2 0x3286 DUP3 PUSH2 0x2D78 JUMP JUMPDEST PUSH1 0x20 DUP4 ADD MLOAD DUP3 MSTORE PUSH1 0x40 DUP4 ADD MLOAD PUSH1 0x1 PUSH1 0x1 PUSH1 0x40 SHL SUB DUP2 GT PUSH2 0x2B2B JUMPI DUP8 PUSH1 0x20 PUSH2 0x32AF SWAP3 DUP7 ADD ADD PUSH2 0x2F58 JUMP JUMPDEST PUSH1 0x20 DUP4 ADD MSTORE PUSH1 0x60 DUP4 ADD MLOAD PUSH1 0x3 DUP2 LT ISZERO PUSH2 0x2B2B JUMPI PUSH1 0x40 DUP4 ADD MSTORE PUSH1 0x80 DUP4 ADD MLOAD PUSH1 0x1 PUSH1 0x1 PUSH1 0x40 SHL SUB DUP2 GT PUSH2 0x2B2B JUMPI DUP8 PUSH1 0x20 PUSH2 0x32E9 SWAP3 DUP7 ADD ADD PUSH2 0x2F58 JUMP JUMPDEST PUSH1 0x60 DUP4 ADD MSTORE PUSH1 0xA0 DUP4 ADD MLOAD PUSH1 0x80 DUP4 ADD MSTORE PUSH1 0xC0 DUP4 ADD MLOAD PUSH1 0xA0 DUP4 ADD MSTORE PUSH1 0xE0 DUP4 ADD MLOAD PUSH1 0xC0 DUP4 ADD MSTORE PUSH2 0x100 DUP4 ADD MLOAD PUSH1 0xE0 DUP4 ADD MSTORE PUSH2 0x120 DUP4 ADD MLOAD PUSH2 0x100 DUP4 ADD MSTORE PUSH2 0x140 DUP4 ADD MLOAD PUSH2 0x120 DUP4 ADD MSTORE PUSH2 0x160 DUP4 ADD MLOAD SWAP2 PUSH1 0x1 PUSH1 0x1 PUSH1 0x40 SHL SUB DUP4 GT PUSH2 0x2B2B JUMPI PUSH2 0x3356 DUP9 PUSH1 0x20 DUP1 SWAP7 SWAP6 DUP2 SWAP7 ADD ADD PUSH2 0x2F58 JUMP JUMPDEST PUSH2 0x140 DUP3 ADD MSTORE DUP2 MSTORE ADD SWAP3 ADD SWAP2 PUSH2 0x3248 JUMP JUMPDEST SWAP3 SWAP2 PUSH1 0x20 PUSH2 0x3380 PUSH2 0x3388 SWAP4 PUSH1 0x40 DUP8 MSTORE PUSH1 0x40 DUP8 ADD SWAP1 PUSH2 0x2B9F JUMP JUMPDEST SWAP5 ADD SWAP1 PUSH2 0x2BC4 JUMP JUMPDEST JUMP JUMPDEST PUSH1 0x2 PUSH1 0x0 SLOAD EQ PUSH2 0x339B JUMPI PUSH1 0x2 PUSH1 0x0 SSTORE JUMP JUMPDEST PUSH4 0x3EE5AEB5 PUSH1 0xE0 SHL PUSH1 0x0 MSTORE PUSH1 0x4 PUSH1 0x0 REVERT JUMPDEST PUSH1 0x1 SLOAD PUSH1 0x1 PUSH1 0x1 PUSH1 0xA0 SHL SUB AND CALLER SUB PUSH2 0x33C0 JUMPI JUMP JUMPDEST PUSH4 0x118CDAA7 PUSH1 0xE0 SHL PUSH1 0x0 MSTORE CALLER PUSH1 0x4 MSTORE PUSH1 0x24 PUSH1 0x0 REVERT INVALID LOG2 PUSH5 0x6970667358 0x22 SLT KECCAK256 0x4B 0xA5 0xE9 EXP DUP7 BLOBBASEFEE 0xAB 0xC5 SWAP6 0xA7 0xD DUP13 CALLCODE LOG2 DUP16 0xB8 MULMOD STOP 0xB2 PUSH21 0x520893B96DFC36222A6FCBC464736F6C634300081B STOP CALLER "},"methodIdentifiers":{"LastVaultClaimTime(address,uint256)":"0db981a0","NextLpClaimTime(address,uint256)":"7a728e7f","bqBTC()":"34808ec3","bqBTCAddress()":"996b8a6f","claimPayoutForLP(uint256)":"2d8a340c","clamPayoutForVault(uint256)":"a650c232","coverCount()":"feb0b8f5","coverExists(uint256)":"782ea619","coverFeeBalance()":"357917b7","coverIds(uint256)":"fb643583","covers(uint256)":"6299df6c","createCover(uint256,string,uint8,string,string,uint256,uint256,uint256)":"9732bdb5","deleteExpiredUserCovers(address)":"bfc664f3","getAllAvailableCovers()":"93b1ad38","getAllParticipants()":"195ec9ee","getAllUserCovers(address)":"649718b2","getCoverFeeBalance()":"609c7604","getCoverInfo(uint256)":"62858bfa","getDepositClaimableDays(address,uint256)":"73cce3ee","getLastClaimTime(address,uint256)":"10525814","getUserCoverInfo(address,uint256)":"cadcb471","getUserParticipation(address)":"46f84795","governance()":"5aa6e675","lpAddress()":"9b4dc8cc","lpContract()":"8acee3cf","owner()":"8da5cb5b","participants(uint256)":"35c1d349","participation(address)":"96f3a8ad","purchaseCover(uint256,uint256,uint256,uint256)":"602710a4","renounceOwnership()":"715018a6","transferOwnership(address)":"f2fde38b","updateCover(uint256,string,uint8,string,string,uint256,uint256,uint256)":"8de4d101","updateMaxAmount(uint256)":"106b5da1","updateUserCoverValue(address,uint256,uint256)":"7ceb4a69","userCovers(address,uint256)":"9e7b399e"}}}}}