{"contracts/Vaults.sol":{"Vaults":{"abi":[{"inputs":[{"internalType":"address","name":"_initialOwner","type":"address"},{"internalType":"address","name":"_bqBTC","type":"address"}],"stateMutability":"nonpayable","type":"constructor"},{"inputs":[{"internalType":"address","name":"owner","type":"address"}],"name":"OwnableInvalidOwner","type":"error"},{"inputs":[{"internalType":"address","name":"account","type":"address"}],"name":"OwnableUnauthorizedAccount","type":"error"},{"inputs":[],"name":"ReentrancyGuardReentrantCall","type":"error"},{"anonymous":false,"inputs":[{"indexed":false,"internalType":"uint256","name":"","type":"uint256"},{"indexed":false,"internalType":"uint256","name":"","type":"uint256"},{"indexed":false,"internalType":"address","name":"","type":"address"}],"name":"ClaimAttempt","type":"event"},{"anonymous":false,"inputs":[{"indexed":true,"internalType":"address","name":"recipient","type":"address"},{"indexed":false,"internalType":"string","name":"pool","type":"string"},{"indexed":false,"internalType":"uint256","name":"amount","type":"uint256"}],"name":"ClaimPaid","type":"event"},{"anonymous":false,"inputs":[{"indexed":true,"internalType":"address","name":"user","type":"address"},{"indexed":false,"internalType":"uint256","name":"amount","type":"uint256"},{"indexed":false,"internalType":"string","name":"pool","type":"string"}],"name":"Deposited","type":"event"},{"anonymous":false,"inputs":[{"indexed":true,"internalType":"address","name":"previousOwner","type":"address"},{"indexed":true,"internalType":"address","name":"newOwner","type":"address"}],"name":"OwnershipTransferred","type":"event"},{"anonymous":false,"inputs":[{"indexed":true,"internalType":"uint256","name":"id","type":"uint256"},{"indexed":false,"internalType":"string","name":"poolName","type":"string"}],"name":"PoolCreated","type":"event"},{"anonymous":false,"inputs":[{"indexed":true,"internalType":"uint256","name":"poolId","type":"uint256"},{"indexed":false,"internalType":"uint256","name":"apy","type":"uint256"},{"indexed":false,"internalType":"uint256","name":"_minPeriod","type":"uint256"}],"name":"PoolUpdated","type":"event"},{"anonymous":false,"inputs":[{"indexed":true,"internalType":"address","name":"user","type":"address"},{"indexed":false,"internalType":"uint256","name":"amount","type":"uint256"},{"indexed":false,"internalType":"string","name":"pool","type":"string"}],"name":"Withdraw","type":"event"},{"inputs":[],"name":"ICoverContract","outputs":[{"internalType":"contract ICover","name":"","type":"address"}],"stateMutability":"view","type":"function"},{"inputs":[],"name":"IGovernanceContract","outputs":[{"internalType":"contract IGov","name":"","type":"address"}],"stateMutability":"view","type":"function"},{"inputs":[],"name":"IPoolContract","outputs":[{"internalType":"contract IPool","name":"","type":"address"}],"stateMutability":"view","type":"function"},{"inputs":[],"name":"bqBTC","outputs":[{"internalType":"contract IbqBTC","name":"","type":"address"}],"stateMutability":"view","type":"function"},{"inputs":[],"name":"bqBTCAddress","outputs":[{"internalType":"address","name":"","type":"address"}],"stateMutability":"view","type":"function"},{"inputs":[],"name":"coverContract","outputs":[{"internalType":"address","name":"","type":"address"}],"stateMutability":"view","type":"function"},{"inputs":[{"internalType":"string","name":"_vaultName","type":"string"},{"internalType":"uint256[]","name":"_poolIds","type":"uint256[]"},{"internalType":"uint256[]","name":"poolPercentageSplit","type":"uint256[]"},{"internalType":"uint256","name":"_minInv","type":"uint256"},{"internalType":"uint256","name":"_maxInv","type":"uint256"},{"internalType":"uint256","name":"_minPeriod","type":"uint256"},{"internalType":"enum CoverLib.AssetDepositType","name":"adt","type":"uint8"},{"internalType":"address","name":"asset","type":"address"}],"name":"createVault","outputs":[],"stateMutability":"nonpayable","type":"function"},{"inputs":[{"internalType":"uint256","name":"vaultId","type":"uint256"},{"internalType":"address","name":"user","type":"address"}],"name":"getUserVaultDeposit","outputs":[{"components":[{"internalType":"address","name":"lp","type":"address"},{"internalType":"uint256","name":"amount","type":"uint256"},{"internalType":"uint256","name":"vaultId","type":"uint256"},{"internalType":"uint256","name":"dailyPayout","type":"uint256"},{"internalType":"enum CoverLib.Status","name":"status","type":"uint8"},{"internalType":"uint256","name":"daysLeft","type":"uint256"},{"internalType":"uint256","name":"startDate","type":"uint256"},{"internalType":"uint256","name":"expiryDate","type":"uint256"},{"internalType":"uint256","name":"accruedPayout","type":"uint256"}],"internalType":"struct Vaults.VaultDeposit","name":"","type":"tuple"}],"stateMutability":"view","type":"function"},{"inputs":[{"internalType":"uint256","name":"vaultId","type":"uint256"},{"internalType":"address","name":"user","type":"address"}],"name":"getUserVaultPoolDeposits","outputs":[{"components":[{"internalType":"address","name":"lp","type":"address"},{"internalType":"uint256","name":"amount","type":"uint256"},{"internalType":"uint256","name":"poolId","type":"uint256"},{"internalType":"uint256","name":"dailyPayout","type":"uint256"},{"internalType":"enum CoverLib.Status","name":"status","type":"uint8"},{"internalType":"uint256","name":"daysLeft","type":"uint256"},{"internalType":"uint256","name":"startDate","type":"uint256"},{"internalType":"uint256","name":"expiryDate","type":"uint256"},{"internalType":"uint256","name":"accruedPayout","type":"uint256"}],"internalType":"struct Vaults.Deposits[]","name":"","type":"tuple[]"}],"stateMutability":"view","type":"function"},{"inputs":[{"internalType":"uint256","name":"vaultId","type":"uint256"}],"name":"getVault","outputs":[{"components":[{"internalType":"uint256","name":"id","type":"uint256"},{"internalType":"string","name":"vaultName","type":"string"},{"components":[{"internalType":"uint256","name":"id","type":"uint256"},{"internalType":"string","name":"poolName","type":"string"},{"internalType":"enum CoverLib.RiskType","name":"riskType","type":"uint8"},{"internalType":"uint256","name":"apy","type":"uint256"},{"internalType":"uint256","name":"minPeriod","type":"uint256"},{"internalType":"uint256","name":"tvl","type":"uint256"},{"internalType":"uint256","name":"baseValue","type":"uint256"},{"internalType":"uint256","name":"coverTvl","type":"uint256"},{"internalType":"uint256","name":"tcp","type":"uint256"},{"internalType":"bool","name":"isActive","type":"bool"},{"internalType":"uint256","name":"percentageSplitBalance","type":"uint256"},{"internalType":"uint256","name":"investmentArmPercent","type":"uint256"},{"internalType":"uint8","name":"leverage","type":"uint8"},{"internalType":"address","name":"asset","type":"address"},{"internalType":"enum CoverLib.AssetDepositType","name":"assetType","type":"uint8"}],"internalType":"struct CoverLib.Pool[]","name":"pools","type":"tuple[]"},{"internalType":"uint256","name":"minInv","type":"uint256"},{"internalType":"uint256","name":"maxInv","type":"uint256"},{"internalType":"uint256","name":"minPeriod","type":"uint256"},{"internalType":"enum CoverLib.AssetDepositType","name":"assetType","type":"uint8"},{"internalType":"address","name":"asset","type":"address"}],"internalType":"struct Vaults.Vault","name":"","type":"tuple"}],"stateMutability":"view","type":"function"},{"inputs":[{"internalType":"uint256","name":"vaultId","type":"uint256"}],"name":"getVaultPools","outputs":[{"components":[{"internalType":"uint256","name":"id","type":"uint256"},{"internalType":"string","name":"poolName","type":"string"},{"internalType":"enum CoverLib.RiskType","name":"riskType","type":"uint8"},{"internalType":"uint256","name":"apy","type":"uint256"},{"internalType":"uint256","name":"minPeriod","type":"uint256"},{"internalType":"uint256","name":"tvl","type":"uint256"},{"internalType":"uint256","name":"baseValue","type":"uint256"},{"internalType":"uint256","name":"coverTvl","type":"uint256"},{"internalType":"uint256","name":"tcp","type":"uint256"},{"internalType":"bool","name":"isActive","type":"bool"},{"internalType":"uint256","name":"percentageSplitBalance","type":"uint256"},{"internalType":"uint256","name":"investmentArmPercent","type":"uint256"},{"internalType":"uint8","name":"leverage","type":"uint8"},{"internalType":"address","name":"asset","type":"address"},{"internalType":"enum CoverLib.AssetDepositType","name":"assetType","type":"uint8"}],"internalType":"struct CoverLib.Pool[]","name":"","type":"tuple[]"}],"stateMutability":"view","type":"function"},{"inputs":[],"name":"getVaults","outputs":[{"components":[{"internalType":"uint256","name":"id","type":"uint256"},{"internalType":"string","name":"vaultName","type":"string"},{"components":[{"internalType":"uint256","name":"id","type":"uint256"},{"internalType":"string","name":"poolName","type":"string"},{"internalType":"enum CoverLib.RiskType","name":"riskType","type":"uint8"},{"internalType":"uint256","name":"apy","type":"uint256"},{"internalType":"uint256","name":"minPeriod","type":"uint256"},{"internalType":"uint256","name":"tvl","type":"uint256"},{"internalType":"uint256","name":"baseValue","type":"uint256"},{"internalType":"uint256","name":"coverTvl","type":"uint256"},{"internalType":"uint256","name":"tcp","type":"uint256"},{"internalType":"bool","name":"isActive","type":"bool"},{"internalType":"uint256","name":"percentageSplitBalance","type":"uint256"},{"internalType":"uint256","name":"investmentArmPercent","type":"uint256"},{"internalType":"uint8","name":"leverage","type":"uint8"},{"internalType":"address","name":"asset","type":"address"},{"internalType":"enum CoverLib.AssetDepositType","name":"assetType","type":"uint8"}],"internalType":"struct CoverLib.Pool[]","name":"pools","type":"tuple[]"},{"internalType":"uint256","name":"minInv","type":"uint256"},{"internalType":"uint256","name":"maxInv","type":"uint256"},{"internalType":"uint256","name":"minPeriod","type":"uint256"},{"internalType":"enum CoverLib.AssetDepositType","name":"assetType","type":"uint8"},{"internalType":"address","name":"asset","type":"address"}],"internalType":"struct Vaults.Vault[]","name":"","type":"tuple[]"}],"stateMutability":"view","type":"function"},{"inputs":[],"name":"governance","outputs":[{"internalType":"address","name":"","type":"address"}],"stateMutability":"view","type":"function"},{"inputs":[],"name":"initialOwner","outputs":[{"internalType":"address","name":"","type":"address"}],"stateMutability":"view","type":"function"},{"inputs":[{"internalType":"uint256","name":"_vaultId","type":"uint256"}],"name":"initialVaultWithdraw","outputs":[],"stateMutability":"nonpayable","type":"function"},{"inputs":[],"name":"owner","outputs":[{"internalType":"address","name":"","type":"address"}],"stateMutability":"view","type":"function"},{"inputs":[{"internalType":"uint256","name":"","type":"uint256"}],"name":"participants","outputs":[{"internalType":"address","name":"","type":"address"}],"stateMutability":"view","type":"function"},{"inputs":[{"internalType":"address","name":"","type":"address"}],"name":"participation","outputs":[{"internalType":"uint256","name":"","type":"uint256"}],"stateMutability":"view","type":"function"},{"inputs":[],"name":"poolContract","outputs":[{"internalType":"address","name":"","type":"address"}],"stateMutability":"view","type":"function"},{"inputs":[],"name":"renounceOwnership","outputs":[],"stateMutability":"nonpayable","type":"function"},{"inputs":[{"internalType":"address","name":"_coverContract","type":"address"}],"name":"setCover","outputs":[],"stateMutability":"nonpayable","type":"function"},{"inputs":[{"internalType":"address","name":"_governance","type":"address"}],"name":"setGovernance","outputs":[],"stateMutability":"nonpayable","type":"function"},{"inputs":[{"internalType":"uint256","name":"vaultId","type":"uint256"},{"internalType":"address","name":"user","type":"address"}],"name":"setUserVaultDepositToZero","outputs":[],"stateMutability":"nonpayable","type":"function"},{"inputs":[{"internalType":"address","name":"newOwner","type":"address"}],"name":"transferOwnership","outputs":[],"stateMutability":"nonpayable","type":"function"},{"inputs":[],"name":"vaultCount","outputs":[{"internalType":"uint256","name":"","type":"uint256"}],"stateMutability":"view","type":"function"},{"inputs":[{"internalType":"uint256","name":"_vaultId","type":"uint256"},{"internalType":"uint256","name":"_amount","type":"uint256"},{"internalType":"uint256","name":"_period","type":"uint256"}],"name":"vaultDeposit","outputs":[],"stateMutability":"payable","type":"function"}],"evm":{"bytecode":{"linkReferences":{},"object":"60803461010d57601f6121f938819003918201601f19168301916001600160401b0383118484101761011257808492604094855283398101031261010d57610052602061004b83610128565b9201610128565b60016000556001600160a01b039091169081156100f757600180546001600160a01b031981168417909155604051929081906001600160a01b03167f8be0079c531659141344cd1fd0a4f28419497f9722a3daafe3b4186f6b6457e0600080a3600f80546001600160a01b0319908116929092179055600b805482166001600160a01b03939093169283179055600d805490911690911790556120bc908161013d8239f35b631e4fbdf760e01b600052600060045260246000fd5b600080fd5b634e487b7160e01b600052604160045260246000fd5b51906001600160a01b038216820361010d5756fe6080604052600436101561001257600080fd5b60003560e01c80631f8be73c14611780578063248a75b71461175757806329ba7bb21461172e57806334808ec31461170557806335c1d349146116aa57806344d00f821461159057806357656486146115315780635aa6e6751461150857806360ebd718146114c5578063626cc0a914611177578063715018a61461111a57806372bafbde14610fd35780637c366cc614610f6a57806388d52ef714610f415780638da5cb5b14610f185780639403b63414610ecb57806396f3a8ad14610e91578063996b8a6f14610e68578063a7c6a10014610e4a578063ab033ea914610dd3578063b30703cd14610daa578063b5d90c2814610d81578063d000626514610b60578063f2fde38b14610ad6578063f339624b146101685763f6e805581461013a57600080fd5b34610163576000366003190112610163576008546040516001600160a01b039091168152602090f35b600080fd5b3461016357610100366003190112610163576004356001600160401b03811161016357366023820112156101635780600401356101a481611b64565b916101b26040519384611b43565b8183523660248383010111610163578160009260246020930183860137830101526024356001600160401b038111610163576101f2903690600401611b96565b6044356001600160401b03811161016357610211903690600401611b96565b9060a4359260c4359360028510156101635760e4356001600160a01b0381168082036101635761023f61205d565b8451865103610a8557610251876118e8565b8615908115610a7b575b5015610a36576006549260018401809411610a205783600655836000526003602052604060002093845560018401908051906001600160401b038211610669576102a58354611c46565b601f81116109d8575b50602090601f83116001146109695761032b949392916000918361095e575b50508160011b916000199060031b1c19161790559491945b6064356003850155608435600485015560068401610302886118e8565b80546001600160a81b03191660ff89161760089290921b610100600160a81b0316919091179055565b60009161016d9360009260028301935b8251811015610870576009546001600160a01b031695600061035d8386611c32565b516024604051809a819363068bcd8d60e01b835260048301525afa968715610864576000976106da575b506101c08701908a825161039a816118e8565b6103a3826118e8565b6103ac816118e8565b03610695576103c6906103bf8486611c32565b5190611f79565b966103d18385611c32565b518654600052600260205260406000206103eb8588611c32565b51600052602052604060002055865468010000000000000000811015610669576001810180895581101561067f5787600052600d602060002091020191815183556001830160208301518051906001600160401b0382116106695781906104528454611c46565b601f8111610616575b50602090601f83116001146105b1576000926105a6575b50508160011b916000199060031b1c19161790555b600283016040830151610499816118c8565b6104a2816118c8565b815460ff91821660ff199182161790925560608401516003860155608084018051600487015560a0850151600587015560c0850151600687015560e0850151600787015561010085015160088088019190915561012086015160098801805491151585169190951617909355610140850151600a870155610160850151600b870155610180850151600c90960180546101a0909601516001600160a81b031990961696909216959095179390911b610100600160a81b03169290921782555161056a816118e8565b610573816118e8565b815460ff60a81b191660a89190911b60ff60a81b161790555187811061059d575b5060010161033b565b96506001610594565b015190508f80610472565b60008581528281209350601f198516905b8181106105fe57509084600195949392106105e5575b505050811b019055610487565b015160001960f88460031b161c191690558f80806105d8565b929360206001819287860151815501950193016105c2565b909150836000526020600020601f840160051c8101916020851061065f575b90601f859493920160051c01905b818110610650575061045b565b60008155849350600101610643565b9091508190610635565b634e487b7160e01b600052604160045260246000fd5b634e487b7160e01b600052603260045260246000fd5b60405162461bcd60e51b815260206004820152601f60248201527f496e636f6d70617469626c65206173736574207479706520696e20706f6f6c006044820152606490fd5b90963d8082843e6106eb8184611b43565b820191602081840312610860578051906001600160401b03821161085457016101e081840312610860576040519261072284611b0b565b8151845260208201516001600160401b03811161085c57820181601f8201121561085c5780519061075282611b64565b926107606040519485611b43565b82845260208383010111610858579061077f9160208085019101611880565b602084015260408101516003811015610854576040840152606081015160608401526080810151608084015260a081015160a084015260c081015160c084015260e081015160e084015261010081015161010084015261012081015180151581036108545761012084015261014081015161014084015261016081015161016084015261018081015160ff81168103610854576101808401526101a08101516001600160a01b0381168103610854576101a08401526101c0015190600282101561085157506101c0820152958a610387565b80fd5b8280fd5b8480fd5b8380fd5b5080fd5b6040513d6000823e3d90fd5b8386898981106108cd57600560649301550361088857005b60405162461bcd60e51b815260206004820152601b60248201527f546f74616c2073706c6974206d75737420657175616c203130302500000000006044820152606490fd5b60405162461bcd60e51b815260206004820152606060248201527f4d696e696d756e20706572696f64206d7573742062652067726561746572207460448201527f68616e206f7220657175616c20746f20746865206d696e696d756d207065726960648201527f6f64206f6620616c6c20706f6f6c732077697468696e20746865207661756c74608482015260a490fd5b015190508a806102cd565b90601f1983169184600052816000209260005b8181106109c0575091600193918561032b98979694106109a7575b505050811b0190559491946102e5565b015160001960f88460031b161c191690558a8080610997565b9293602060018192878601518155019501930161097c565b836000526020600020601f840160051c81019160208510610a16575b601f0160051c01905b818110610a0a57506102ae565b600081556001016109fd565b90915081906109f4565b634e487b7160e01b600052601160045260246000fd5b60405162461bcd60e51b815260206004820152601e60248201527f496e76616c696420617373657420666f72206465706f736974207479706500006044820152606490fd5b905015158761025b565b60405162461bcd60e51b815260206004820152602360248201527f4d69736d61746368656420706f6f6c2049447320616e642070657263656e746160448201526267657360e81b6064820152608490fd5b3461016357602036600319011261016357610aef61186a565b610af761205d565b6001600160a01b03168015610b4a57600180546001600160a01b0319811683179091556001600160a01b03167f8be0079c531659141344cd1fd0a4f28419497f9722a3daafe3b4186f6b6457e0600080a3005b631e4fbdf760e01b600052600060045260246000fd5b3461016357602036600319011261016357600435610b7c61203b565b33600052600560205260406000208160005260205260406000206001810191825415610d3257600482019160ff835416610bb5816118c8565b610cf557600701544210610cb0576000526003602052610bd86040600020611e40565b604081019260005b84518051821015610c605781610bf591611c32565b51516009546001600160a01b03169190823b15610163576000926064849260405195869384926383bc635760e01b84523360048501526024840152600160448401525af191821561086457600192610c4f575b5001610be0565b6000610c5a91611b43565b86610c48565b845460ff191660011785558254602085015160405133927f485f1bb6524c663555797e00171a10f341656e59b02d6b557a0a38ba7d5d9751928291610ca6919083611f86565b0390a26001600055005b60405162461bcd60e51b815260206004820152601c60248201527f4465706f73697420706572696f6420686173206e6f7420656e646564000000006044820152606490fd5b60405162461bcd60e51b81526020600482015260156024820152744465706f736974206973206e6f742061637469766560581b6044820152606490fd5b60405162461bcd60e51b815260206004820152602160248201527f4e6f206465706f73697420666f756e6420666f722074686973206164647265736044820152607360f81b6064820152608490fd5b3461016357600036600319011261016357600a546040516001600160a01b039091168152602090f35b34610163576000366003190112610163576009546040516001600160a01b039091168152602090f35b3461016357602036600319011261016357610dec61186a565b610df461205d565b60075490610e0b6001600160a01b03831615611fa0565b6001600160a01b0316908190610e22821515611fe5565b6001600160601b0360a01b16176007556001600160601b0360a01b600a541617600a55600080f35b34610163576000366003190112610163576020600654604051908152f35b3461016357600036600319011261016357600d546040516001600160a01b039091168152602090f35b34610163576020366003190112610163576001600160a01b03610eb261186a565b1660005260116020526020604060002054604051908152f35b3461016357602036600319011261016357610ee4611bf3565b506004356000526003602052610f14610f006040600020611e40565b604051918291602083526020830190611a0d565b0390f35b34610163576000366003190112610163576001546040516001600160a01b039091168152602090f35b3461016357600036600319011261016357600c546040516001600160a01b039091168152602090f35b3461016357602036600319011261016357610f8361186a565b610f8b61205d565b600e5490610fa26001600160a01b03831615611fa0565b6001600160a01b031690610fb7821515611fe5565b600880546001600160a01b031990811684179091551617600e55005b3461016357604036600319011261016357610fec611854565b6004356000526003602052604061100581600020611e40565b01908151519161101483611b7f565b926110226040519485611b43565b808452611031601f1991611b7f565b0160005b818110611103575090916001600160a01b0316905060005b82519081518110156110b15761106581600193611c32565b51518360005260046020526040600020906000526020526040600020826000526020526110956040600020611f00565b61109f8287611c32565b526110aa8186611c32565b500161104d565b8460405180916020820160208352815180915260206040840192019060005b8181106110de575050500390f35b919350916020610120826110f56001948851611a88565b0194019101918493926110d0565b60209061110e611ebc565b82828801015201611035565b346101635760003660031901126101635761113361205d565b600180546001600160a01b031981169091556000906001600160a01b03167f8be0079c531659141344cd1fd0a4f28419497f9722a3daafe3b4186f6b6457e08280a3005b60603660031901126101635760243560443560043561119461203b565b8060005260036020526111aa6040600020611e40565b60a0810151831061146857919060008091600093604086019560c081019260e08201945b8851805189101561133857886111e391611c32565b51518551906111f1826118e8565b60018060a01b038851169060405160e08101908082106001600160401b03831117610669578e9460409460e49386523383526020830194855285830196875260608301918b8352608084016001815260a085019161124e816118e8565b825260c085019283526009548851632607b53960e01b815295516001600160a01b0390811660048801529751602487015298516044860152925160648501529151929687958694911692906112a2816118e8565b6084850152516112b1816118e8565b60a4840152516001600160a01b031660c483015234905af19182156108645760009182936112fa575b50906112eb6001936112f193611f79565b98611f79565b970196956111ce565b9250906040833d8211611330575b8161131560409383611b43565b810103126108515750815160209092015191906112eb6112da565b3d9150611308565b50868a938592620151808402848104620151801485151715610a20577f6f85d9948d6ca3dd6ce6ce7d175da22b4e865827ae6fcd530ec7edac1240f92895610ca69560209561138960089442611f79565b916040519561139787611aef565b33875288870192835260408701908582526060880190815260808801916000835260a0890193845260c089019442865260e08a019687526101008a0197600089523360005260058d526040600020906000528c5260406000209960018060a01b039051166001600160601b0360a01b8b5416178a555160018a015551600289015551600388015560048701905161142d816118c8565b611436816118c8565b60ff80198354169116179055516005860155516006850155516007840155519101550151604051918291339583611f86565b60405162461bcd60e51b815260206004820152602f60248201527f506572696f642063616e6e6f74206265206c657373207468616e20746865207660448201526e185d5b1d081b5a5b881c195c9a5bd9608a1b6064820152608490fd5b34610163576020366003190112610163576004356000526003602052610f146114f46002604060002001611d24565b6040519182916020835260208301906118f2565b34610163576000366003190112610163576007546040516001600160a01b039091168152602090f35b346101635760403660031901126101635761154a611854565b611552611ebc565b5060018060a01b0316600052600560205260406000206004356000526020526101206115816040600020611f00565b61158e6040518092611a88565bf35b34610163576000366003190112610163576006546115ad81611b7f565b906115bb6040519283611b43565b808252601f196115ca82611b7f565b0160005b81811061169357505060015b8181111561164a57826040518091602082016020835281518091526040830190602060408260051b8601019301916000905b82821061161b57505050500390f35b9193600191939550602061163a8192603f198a82030186528851611a0d565b960192019201859493919261160c565b80600052600360205260406000206000198201828111610a205761167061168192611e40565b61167a8287611c32565b5284611c32565b506000198114610a20576001016115da565b60209061169e611bf3565b828287010152016115ce565b34610163576020366003190112610163576004356010548110156101635760106000527f1b6847dc741a1b0cd08d278845f9d819d87b734759afb55fe2de5cb82a9ae67201546040516001600160a01b039091168152602090f35b3461016357600036600319011261016357600b546040516001600160a01b039091168152602090f35b3461016357600036600319011261016357600f546040516001600160a01b039091168152602090f35b3461016357600036600319011261016357600e546040516001600160a01b039091168152602090f35b3461016357604036600319011261016357611799611854565b6117a161203b565b600c546001600160a01b031633148015611840575b156117ed5760018060a01b031660005260056020526040600020600435600052602052600060016040822001556001600055600080f35b60405162461bcd60e51b815260206004820152602560248201527f43616c6c6572206973206e6f742074686520676f7665726e616e636520636f6e6044820152641d1c9858dd60da1b6064820152608490fd5b50600f546001600160a01b031633146117b6565b602435906001600160a01b038216820361016357565b600435906001600160a01b038216820361016357565b60005b8381106118935750506000910152565b8181015183820152602001611883565b906020916118bc81518092818552858086019101611880565b601f01601f1916010190565b600311156118d257565b634e487b7160e01b600052602160045260246000fd5b600211156118d257565b9080602083519182815201916020808360051b8301019401926000915b83831061191e57505050505090565b9091929394602080600192601f19858203018652885190815181526101c080611956858501516101e0878601526101e08501906118a3565b936040810151611965816118c8565b6040850152606081015160608501526080810151608085015260a081015160a085015260c081015160c085015260e081015160e0850152610100810151610100850152610120810151151561012085015261014081015161014085015261016081015161016085015260ff61018082015116610180850152878060a01b036101a0820151166101a08501520151916119fc836118e8565b01529701930193019193929061190f565b908151815260e0611a44611a32602085015161010060208601526101008501906118a3565b604085015184820360408601526118f2565b92606081015160608401526080810151608084015260a081015160a084015260c0810151611a71816118e8565b60c08401528101516001600160a01b031691015290565b610100809160018060a01b0381511684526020810151602085015260408101516040850152606081015160608501526080810151611ac5816118c8565b608085015260a081015160a085015260c081015160c085015260e081015160e08501520151910152565b61012081019081106001600160401b0382111761066957604052565b6101e081019081106001600160401b0382111761066957604052565b61010081019081106001600160401b0382111761066957604052565b90601f801991011681019081106001600160401b0382111761066957604052565b6001600160401b03811161066957601f01601f191660200190565b6001600160401b0381116106695760051b60200190565b9080601f83011215610163578135611bad81611b7f565b92611bbb6040519485611b43565b81845260208085019260051b82010192831161016357602001905b828210611be35750505090565b8135815260209182019101611bd6565b60405190611c0082611b27565b600060e08382815260606020820152606060408201528260608201528260808201528260a08201528260c08201520152565b805182101561067f5760209160051b010190565b90600182811c92168015611c76575b6020831014611c6057565b634e487b7160e01b600052602260045260246000fd5b91607f1691611c55565b9060405191826000825492611c9484611c46565b8084529360018116908115611d025750600114611cbb575b50611cb992500383611b43565b565b90506000929192526020600020906000915b818310611ce6575050906020611cb99282010138611cac565b6020919350806001915483858901015201910190918492611ccd565b905060209250611cb994915060ff191682840152151560051b82010138611cac565b908154611d3081611b7f565b92611d3e6040519485611b43565b818452602084019060005260206000206000915b838310611d5f5750505050565b600d6020600192604051611d7281611b0b565b85548152611d81858701611c80565b8382015260ff600287015416611d96816118c8565b60408201526003860154606082015260048601546080820152600586015460a0820152600686015460c0820152600786015460e0820152600886015461010082015260ff6009870154161515610120820152600a860154610140820152600b86015461016082015260ff600c870154818116610180840152868060a01b038160081c166101a084015260a81c16611e2c816118e8565b6101c0820152815201920192019190611d52565b90604051611e4d81611b27565b60e06006829480548452611e6360018201611c80565b6020850152611e7460028201611d24565b60408501526003810154606085015260048101546080850152600581015460a0850152015460ff8116611ea6816118e8565b60c084015260081c6001600160a01b0316910152565b60405190611ec982611aef565b6000610100838281528260208201528260408201528260608201528260808201528260a08201528260c08201528260e08201520152565b90604051611f0d81611aef565b6101006008829460018060a01b03815416845260018101546020850152600281015460408501526003810154606085015260ff600482015416611f4f816118c8565b6080850152600581015460a0850152600681015460c0850152600781015460e08501520154910152565b91908201809211610a2057565b604090611f9d9392815281602082015201906118a3565b90565b15611fa757565b60405162461bcd60e51b815260206004820152601660248201527511dbdd995c9b985b98d948185b1c9958591e481cd95d60521b6044820152606490fd5b15611fec57565b60405162461bcd60e51b815260206004820152602160248201527f476f7665726e616e636520616464726573732063616e6e6f74206265207a65726044820152606f60f81b6064820152608490fd5b60026000541461204c576002600055565b633ee5aeb560e01b60005260046000fd5b6001546001600160a01b0316330361207157565b63118cdaa760e01b6000523360045260246000fdfea26469706673582212209783b7298d4155c1e29e5dd6fdf65094dfc6de7e93c0133b6b44723e501055ac64736f6c634300081b0033","opcodes":"PUSH1 0x80 CALLVALUE PUSH2 0x10D JUMPI PUSH1 0x1F PUSH2 0x21F9 CODESIZE DUP2 SWAP1 SUB SWAP2 DUP3 ADD PUSH1 0x1F NOT AND DUP4 ADD SWAP2 PUSH1 0x1 PUSH1 0x1 PUSH1 0x40 SHL SUB DUP4 GT DUP5 DUP5 LT OR PUSH2 0x112 JUMPI DUP1 DUP5 SWAP3 PUSH1 0x40 SWAP5 DUP6 MSTORE DUP4 CODECOPY DUP2 ADD SUB SLT PUSH2 0x10D JUMPI PUSH2 0x52 PUSH1 0x20 PUSH2 0x4B DUP4 PUSH2 0x128 JUMP JUMPDEST SWAP3 ADD PUSH2 0x128 JUMP JUMPDEST PUSH1 0x1 PUSH1 0x0 SSTORE PUSH1 0x1 PUSH1 0x1 PUSH1 0xA0 SHL SUB SWAP1 SWAP2 AND SWAP1 DUP2 ISZERO PUSH2 0xF7 JUMPI PUSH1 0x1 DUP1 SLOAD PUSH1 0x1 PUSH1 0x1 PUSH1 0xA0 SHL SUB NOT DUP2 AND DUP5 OR SWAP1 SWAP2 SSTORE PUSH1 0x40 MLOAD SWAP3 SWAP1 DUP2 SWAP1 PUSH1 0x1 PUSH1 0x1 PUSH1 0xA0 SHL SUB AND PUSH32 0x8BE0079C531659141344CD1FD0A4F28419497F9722A3DAAFE3B4186F6B6457E0 PUSH1 0x0 DUP1 LOG3 PUSH1 0xF DUP1 SLOAD PUSH1 0x1 PUSH1 0x1 PUSH1 0xA0 SHL SUB NOT SWAP1 DUP2 AND SWAP3 SWAP1 SWAP3 OR SWAP1 SSTORE PUSH1 0xB DUP1 SLOAD DUP3 AND PUSH1 0x1 PUSH1 0x1 PUSH1 0xA0 SHL SUB SWAP4 SWAP1 SWAP4 AND SWAP3 DUP4 OR SWAP1 SSTORE PUSH1 0xD DUP1 SLOAD SWAP1 SWAP2 AND SWAP1 SWAP2 OR SWAP1 SSTORE PUSH2 0x20BC SWAP1 DUP2 PUSH2 0x13D DUP3 CODECOPY RETURN JUMPDEST PUSH4 0x1E4FBDF7 PUSH1 0xE0 SHL PUSH1 0x0 MSTORE PUSH1 0x0 PUSH1 0x4 MSTORE PUSH1 0x24 PUSH1 0x0 REVERT JUMPDEST PUSH1 0x0 DUP1 REVERT JUMPDEST PUSH4 0x4E487B71 PUSH1 0xE0 SHL PUSH1 0x0 MSTORE PUSH1 0x41 PUSH1 0x4 MSTORE PUSH1 0x24 PUSH1 0x0 REVERT JUMPDEST MLOAD SWAP1 PUSH1 0x1 PUSH1 0x1 PUSH1 0xA0 SHL SUB DUP3 AND DUP3 SUB PUSH2 0x10D JUMPI JUMP INVALID PUSH1 0x80 PUSH1 0x40 MSTORE PUSH1 0x4 CALLDATASIZE LT ISZERO PUSH2 0x12 JUMPI PUSH1 0x0 DUP1 REVERT JUMPDEST PUSH1 0x0 CALLDATALOAD PUSH1 0xE0 SHR DUP1 PUSH4 0x1F8BE73C EQ PUSH2 0x1780 JUMPI DUP1 PUSH4 0x248A75B7 EQ PUSH2 0x1757 JUMPI DUP1 PUSH4 0x29BA7BB2 EQ PUSH2 0x172E JUMPI DUP1 PUSH4 0x34808EC3 EQ PUSH2 0x1705 JUMPI DUP1 PUSH4 0x35C1D349 EQ PUSH2 0x16AA JUMPI DUP1 PUSH4 0x44D00F82 EQ PUSH2 0x1590 JUMPI DUP1 PUSH4 0x57656486 EQ PUSH2 0x1531 JUMPI DUP1 PUSH4 0x5AA6E675 EQ PUSH2 0x1508 JUMPI DUP1 PUSH4 0x60EBD718 EQ PUSH2 0x14C5 JUMPI DUP1 PUSH4 0x626CC0A9 EQ PUSH2 0x1177 JUMPI DUP1 PUSH4 0x715018A6 EQ PUSH2 0x111A JUMPI DUP1 PUSH4 0x72BAFBDE EQ PUSH2 0xFD3 JUMPI DUP1 PUSH4 0x7C366CC6 EQ PUSH2 0xF6A JUMPI DUP1 PUSH4 0x88D52EF7 EQ PUSH2 0xF41 JUMPI DUP1 PUSH4 0x8DA5CB5B EQ PUSH2 0xF18 JUMPI DUP1 PUSH4 0x9403B634 EQ PUSH2 0xECB JUMPI DUP1 PUSH4 0x96F3A8AD EQ PUSH2 0xE91 JUMPI DUP1 PUSH4 0x996B8A6F EQ PUSH2 0xE68 JUMPI DUP1 PUSH4 0xA7C6A100 EQ PUSH2 0xE4A JUMPI DUP1 PUSH4 0xAB033EA9 EQ PUSH2 0xDD3 JUMPI DUP1 PUSH4 0xB30703CD EQ PUSH2 0xDAA JUMPI DUP1 PUSH4 0xB5D90C28 EQ PUSH2 0xD81 JUMPI DUP1 PUSH4 0xD0006265 EQ PUSH2 0xB60 JUMPI DUP1 PUSH4 0xF2FDE38B EQ PUSH2 0xAD6 JUMPI DUP1 PUSH4 0xF339624B EQ PUSH2 0x168 JUMPI PUSH4 0xF6E80558 EQ PUSH2 0x13A JUMPI PUSH1 0x0 DUP1 REVERT JUMPDEST CALLVALUE PUSH2 0x163 JUMPI PUSH1 0x0 CALLDATASIZE PUSH1 0x3 NOT ADD SLT PUSH2 0x163 JUMPI PUSH1 0x8 SLOAD PUSH1 0x40 MLOAD PUSH1 0x1 PUSH1 0x1 PUSH1 0xA0 SHL SUB SWAP1 SWAP2 AND DUP2 MSTORE PUSH1 0x20 SWAP1 RETURN JUMPDEST PUSH1 0x0 DUP1 REVERT JUMPDEST CALLVALUE PUSH2 0x163 JUMPI PUSH2 0x100 CALLDATASIZE PUSH1 0x3 NOT ADD SLT PUSH2 0x163 JUMPI PUSH1 0x4 CALLDATALOAD PUSH1 0x1 PUSH1 0x1 PUSH1 0x40 SHL SUB DUP2 GT PUSH2 0x163 JUMPI CALLDATASIZE PUSH1 0x23 DUP3 ADD SLT ISZERO PUSH2 0x163 JUMPI DUP1 PUSH1 0x4 ADD CALLDATALOAD PUSH2 0x1A4 DUP2 PUSH2 0x1B64 JUMP JUMPDEST SWAP2 PUSH2 0x1B2 PUSH1 0x40 MLOAD SWAP4 DUP5 PUSH2 0x1B43 JUMP JUMPDEST DUP2 DUP4 MSTORE CALLDATASIZE PUSH1 0x24 DUP4 DUP4 ADD ADD GT PUSH2 0x163 JUMPI DUP2 PUSH1 0x0 SWAP3 PUSH1 0x24 PUSH1 0x20 SWAP4 ADD DUP4 DUP7 ADD CALLDATACOPY DUP4 ADD ADD MSTORE PUSH1 0x24 CALLDATALOAD PUSH1 0x1 PUSH1 0x1 PUSH1 0x40 SHL SUB DUP2 GT PUSH2 0x163 JUMPI PUSH2 0x1F2 SWAP1 CALLDATASIZE SWAP1 PUSH1 0x4 ADD PUSH2 0x1B96 JUMP JUMPDEST PUSH1 0x44 CALLDATALOAD PUSH1 0x1 PUSH1 0x1 PUSH1 0x40 SHL SUB DUP2 GT PUSH2 0x163 JUMPI PUSH2 0x211 SWAP1 CALLDATASIZE SWAP1 PUSH1 0x4 ADD PUSH2 0x1B96 JUMP JUMPDEST SWAP1 PUSH1 0xA4 CALLDATALOAD SWAP3 PUSH1 0xC4 CALLDATALOAD SWAP4 PUSH1 0x2 DUP6 LT ISZERO PUSH2 0x163 JUMPI PUSH1 0xE4 CALLDATALOAD PUSH1 0x1 PUSH1 0x1 PUSH1 0xA0 SHL SUB DUP2 AND DUP1 DUP3 SUB PUSH2 0x163 JUMPI PUSH2 0x23F PUSH2 0x205D JUMP JUMPDEST DUP5 MLOAD DUP7 MLOAD SUB PUSH2 0xA85 JUMPI PUSH2 0x251 DUP8 PUSH2 0x18E8 JUMP JUMPDEST DUP7 ISZERO SWAP1 DUP2 ISZERO PUSH2 0xA7B JUMPI JUMPDEST POP ISZERO PUSH2 0xA36 JUMPI PUSH1 0x6 SLOAD SWAP3 PUSH1 0x1 DUP5 ADD DUP1 SWAP5 GT PUSH2 0xA20 JUMPI DUP4 PUSH1 0x6 SSTORE DUP4 PUSH1 0x0 MSTORE PUSH1 0x3 PUSH1 0x20 MSTORE PUSH1 0x40 PUSH1 0x0 KECCAK256 SWAP4 DUP5 SSTORE PUSH1 0x1 DUP5 ADD SWAP1 DUP1 MLOAD SWAP1 PUSH1 0x1 PUSH1 0x1 PUSH1 0x40 SHL SUB DUP3 GT PUSH2 0x669 JUMPI PUSH2 0x2A5 DUP4 SLOAD PUSH2 0x1C46 JUMP JUMPDEST PUSH1 0x1F DUP2 GT PUSH2 0x9D8 JUMPI JUMPDEST POP PUSH1 0x20 SWAP1 PUSH1 0x1F DUP4 GT PUSH1 0x1 EQ PUSH2 0x969 JUMPI PUSH2 0x32B SWAP5 SWAP4 SWAP3 SWAP2 PUSH1 0x0 SWAP2 DUP4 PUSH2 0x95E JUMPI JUMPDEST POP POP DUP2 PUSH1 0x1 SHL SWAP2 PUSH1 0x0 NOT SWAP1 PUSH1 0x3 SHL SHR NOT AND OR SWAP1 SSTORE SWAP5 SWAP2 SWAP5 JUMPDEST PUSH1 0x64 CALLDATALOAD PUSH1 0x3 DUP6 ADD SSTORE PUSH1 0x84 CALLDATALOAD PUSH1 0x4 DUP6 ADD SSTORE PUSH1 0x6 DUP5 ADD PUSH2 0x302 DUP9 PUSH2 0x18E8 JUMP JUMPDEST DUP1 SLOAD PUSH1 0x1 PUSH1 0x1 PUSH1 0xA8 SHL SUB NOT AND PUSH1 0xFF DUP10 AND OR PUSH1 0x8 SWAP3 SWAP1 SWAP3 SHL PUSH2 0x100 PUSH1 0x1 PUSH1 0xA8 SHL SUB AND SWAP2 SWAP1 SWAP2 OR SWAP1 SSTORE JUMP JUMPDEST PUSH1 0x0 SWAP2 PUSH2 0x16D SWAP4 PUSH1 0x0 SWAP3 PUSH1 0x2 DUP4 ADD SWAP4 JUMPDEST DUP3 MLOAD DUP2 LT ISZERO PUSH2 0x870 JUMPI PUSH1 0x9 SLOAD PUSH1 0x1 PUSH1 0x1 PUSH1 0xA0 SHL SUB AND SWAP6 PUSH1 0x0 PUSH2 0x35D DUP4 DUP7 PUSH2 0x1C32 JUMP JUMPDEST MLOAD PUSH1 0x24 PUSH1 0x40 MLOAD DUP1 SWAP11 DUP2 SWAP4 PUSH4 0x68BCD8D PUSH1 0xE0 SHL DUP4 MSTORE PUSH1 0x4 DUP4 ADD MSTORE GAS STATICCALL SWAP7 DUP8 ISZERO PUSH2 0x864 JUMPI PUSH1 0x0 SWAP8 PUSH2 0x6DA JUMPI JUMPDEST POP PUSH2 0x1C0 DUP8 ADD SWAP1 DUP11 DUP3 MLOAD PUSH2 0x39A DUP2 PUSH2 0x18E8 JUMP JUMPDEST PUSH2 0x3A3 DUP3 PUSH2 0x18E8 JUMP JUMPDEST PUSH2 0x3AC DUP2 PUSH2 0x18E8 JUMP JUMPDEST SUB PUSH2 0x695 JUMPI PUSH2 0x3C6 SWAP1 PUSH2 0x3BF DUP5 DUP7 PUSH2 0x1C32 JUMP JUMPDEST MLOAD SWAP1 PUSH2 0x1F79 JUMP JUMPDEST SWAP7 PUSH2 0x3D1 DUP4 DUP6 PUSH2 0x1C32 JUMP JUMPDEST MLOAD DUP7 SLOAD PUSH1 0x0 MSTORE PUSH1 0x2 PUSH1 0x20 MSTORE PUSH1 0x40 PUSH1 0x0 KECCAK256 PUSH2 0x3EB DUP6 DUP9 PUSH2 0x1C32 JUMP JUMPDEST MLOAD PUSH1 0x0 MSTORE PUSH1 0x20 MSTORE PUSH1 0x40 PUSH1 0x0 KECCAK256 SSTORE DUP7 SLOAD PUSH9 0x10000000000000000 DUP2 LT ISZERO PUSH2 0x669 JUMPI PUSH1 0x1 DUP2 ADD DUP1 DUP10 SSTORE DUP2 LT ISZERO PUSH2 0x67F JUMPI DUP8 PUSH1 0x0 MSTORE PUSH1 0xD PUSH1 0x20 PUSH1 0x0 KECCAK256 SWAP2 MUL ADD SWAP2 DUP2 MLOAD DUP4 SSTORE PUSH1 0x1 DUP4 ADD PUSH1 0x20 DUP4 ADD MLOAD DUP1 MLOAD SWAP1 PUSH1 0x1 PUSH1 0x1 PUSH1 0x40 SHL SUB DUP3 GT PUSH2 0x669 JUMPI DUP2 SWAP1 PUSH2 0x452 DUP5 SLOAD PUSH2 0x1C46 JUMP JUMPDEST PUSH1 0x1F DUP2 GT PUSH2 0x616 JUMPI JUMPDEST POP PUSH1 0x20 SWAP1 PUSH1 0x1F DUP4 GT PUSH1 0x1 EQ PUSH2 0x5B1 JUMPI PUSH1 0x0 SWAP3 PUSH2 0x5A6 JUMPI JUMPDEST POP POP DUP2 PUSH1 0x1 SHL SWAP2 PUSH1 0x0 NOT SWAP1 PUSH1 0x3 SHL SHR NOT AND OR SWAP1 SSTORE JUMPDEST PUSH1 0x2 DUP4 ADD PUSH1 0x40 DUP4 ADD MLOAD PUSH2 0x499 DUP2 PUSH2 0x18C8 JUMP JUMPDEST PUSH2 0x4A2 DUP2 PUSH2 0x18C8 JUMP JUMPDEST DUP2 SLOAD PUSH1 0xFF SWAP2 DUP3 AND PUSH1 0xFF NOT SWAP2 DUP3 AND OR SWAP1 SWAP3 SSTORE PUSH1 0x60 DUP5 ADD MLOAD PUSH1 0x3 DUP7 ADD SSTORE PUSH1 0x80 DUP5 ADD DUP1 MLOAD PUSH1 0x4 DUP8 ADD SSTORE PUSH1 0xA0 DUP6 ADD MLOAD PUSH1 0x5 DUP8 ADD SSTORE PUSH1 0xC0 DUP6 ADD MLOAD PUSH1 0x6 DUP8 ADD SSTORE PUSH1 0xE0 DUP6 ADD MLOAD PUSH1 0x7 DUP8 ADD SSTORE PUSH2 0x100 DUP6 ADD MLOAD PUSH1 0x8 DUP1 DUP9 ADD SWAP2 SWAP1 SWAP2 SSTORE PUSH2 0x120 DUP7 ADD MLOAD PUSH1 0x9 DUP9 ADD DUP1 SLOAD SWAP2 ISZERO ISZERO DUP6 AND SWAP2 SWAP1 SWAP6 AND OR SWAP1 SWAP4 SSTORE PUSH2 0x140 DUP6 ADD MLOAD PUSH1 0xA DUP8 ADD SSTORE PUSH2 0x160 DUP6 ADD MLOAD PUSH1 0xB DUP8 ADD SSTORE PUSH2 0x180 DUP6 ADD MLOAD PUSH1 0xC SWAP1 SWAP7 ADD DUP1 SLOAD PUSH2 0x1A0 SWAP1 SWAP7 ADD MLOAD PUSH1 0x1 PUSH1 0x1 PUSH1 0xA8 SHL SUB NOT SWAP1 SWAP7 AND SWAP7 SWAP1 SWAP3 AND SWAP6 SWAP1 SWAP6 OR SWAP4 SWAP1 SWAP2 SHL PUSH2 0x100 PUSH1 0x1 PUSH1 0xA8 SHL SUB AND SWAP3 SWAP1 SWAP3 OR DUP3 SSTORE MLOAD PUSH2 0x56A DUP2 PUSH2 0x18E8 JUMP JUMPDEST PUSH2 0x573 DUP2 PUSH2 0x18E8 JUMP JUMPDEST DUP2 SLOAD PUSH1 0xFF PUSH1 0xA8 SHL NOT AND PUSH1 0xA8 SWAP2 SWAP1 SWAP2 SHL PUSH1 0xFF PUSH1 0xA8 SHL AND OR SWAP1 SSTORE MLOAD DUP8 DUP2 LT PUSH2 0x59D JUMPI JUMPDEST POP PUSH1 0x1 ADD PUSH2 0x33B JUMP JUMPDEST SWAP7 POP PUSH1 0x1 PUSH2 0x594 JUMP JUMPDEST ADD MLOAD SWAP1 POP DUP16 DUP1 PUSH2 0x472 JUMP JUMPDEST PUSH1 0x0 DUP6 DUP2 MSTORE DUP3 DUP2 KECCAK256 SWAP4 POP PUSH1 0x1F NOT DUP6 AND SWAP1 JUMPDEST DUP2 DUP2 LT PUSH2 0x5FE JUMPI POP SWAP1 DUP5 PUSH1 0x1 SWAP6 SWAP5 SWAP4 SWAP3 LT PUSH2 0x5E5 JUMPI JUMPDEST POP POP POP DUP2 SHL ADD SWAP1 SSTORE PUSH2 0x487 JUMP JUMPDEST ADD MLOAD PUSH1 0x0 NOT PUSH1 0xF8 DUP5 PUSH1 0x3 SHL AND SHR NOT AND SWAP1 SSTORE DUP16 DUP1 DUP1 PUSH2 0x5D8 JUMP JUMPDEST SWAP3 SWAP4 PUSH1 0x20 PUSH1 0x1 DUP2 SWAP3 DUP8 DUP7 ADD MLOAD DUP2 SSTORE ADD SWAP6 ADD SWAP4 ADD PUSH2 0x5C2 JUMP JUMPDEST SWAP1 SWAP2 POP DUP4 PUSH1 0x0 MSTORE PUSH1 0x20 PUSH1 0x0 KECCAK256 PUSH1 0x1F DUP5 ADD PUSH1 0x5 SHR DUP2 ADD SWAP2 PUSH1 0x20 DUP6 LT PUSH2 0x65F JUMPI JUMPDEST SWAP1 PUSH1 0x1F DUP6 SWAP5 SWAP4 SWAP3 ADD PUSH1 0x5 SHR ADD SWAP1 JUMPDEST DUP2 DUP2 LT PUSH2 0x650 JUMPI POP PUSH2 0x45B JUMP JUMPDEST PUSH1 0x0 DUP2 SSTORE DUP5 SWAP4 POP PUSH1 0x1 ADD PUSH2 0x643 JUMP JUMPDEST SWAP1 SWAP2 POP DUP2 SWAP1 PUSH2 0x635 JUMP JUMPDEST PUSH4 0x4E487B71 PUSH1 0xE0 SHL PUSH1 0x0 MSTORE PUSH1 0x41 PUSH1 0x4 MSTORE PUSH1 0x24 PUSH1 0x0 REVERT JUMPDEST PUSH4 0x4E487B71 PUSH1 0xE0 SHL PUSH1 0x0 MSTORE PUSH1 0x32 PUSH1 0x4 MSTORE PUSH1 0x24 PUSH1 0x0 REVERT JUMPDEST PUSH1 0x40 MLOAD PUSH3 0x461BCD PUSH1 0xE5 SHL DUP2 MSTORE PUSH1 0x20 PUSH1 0x4 DUP3 ADD MSTORE PUSH1 0x1F PUSH1 0x24 DUP3 ADD MSTORE PUSH32 0x496E636F6D70617469626C65206173736574207479706520696E20706F6F6C00 PUSH1 0x44 DUP3 ADD MSTORE PUSH1 0x64 SWAP1 REVERT JUMPDEST SWAP1 SWAP7 RETURNDATASIZE DUP1 DUP3 DUP5 RETURNDATACOPY PUSH2 0x6EB DUP2 DUP5 PUSH2 0x1B43 JUMP JUMPDEST DUP3 ADD SWAP2 PUSH1 0x20 DUP2 DUP5 SUB SLT PUSH2 0x860 JUMPI DUP1 MLOAD SWAP1 PUSH1 0x1 PUSH1 0x1 PUSH1 0x40 SHL SUB DUP3 GT PUSH2 0x854 JUMPI ADD PUSH2 0x1E0 DUP2 DUP5 SUB SLT PUSH2 0x860 JUMPI PUSH1 0x40 MLOAD SWAP3 PUSH2 0x722 DUP5 PUSH2 0x1B0B JUMP JUMPDEST DUP2 MLOAD DUP5 MSTORE PUSH1 0x20 DUP3 ADD MLOAD PUSH1 0x1 PUSH1 0x1 PUSH1 0x40 SHL SUB DUP2 GT PUSH2 0x85C JUMPI DUP3 ADD DUP2 PUSH1 0x1F DUP3 ADD SLT ISZERO PUSH2 0x85C JUMPI DUP1 MLOAD SWAP1 PUSH2 0x752 DUP3 PUSH2 0x1B64 JUMP JUMPDEST SWAP3 PUSH2 0x760 PUSH1 0x40 MLOAD SWAP5 DUP6 PUSH2 0x1B43 JUMP JUMPDEST DUP3 DUP5 MSTORE PUSH1 0x20 DUP4 DUP4 ADD ADD GT PUSH2 0x858 JUMPI SWAP1 PUSH2 0x77F SWAP2 PUSH1 0x20 DUP1 DUP6 ADD SWAP2 ADD PUSH2 0x1880 JUMP JUMPDEST PUSH1 0x20 DUP5 ADD MSTORE PUSH1 0x40 DUP2 ADD MLOAD PUSH1 0x3 DUP2 LT ISZERO PUSH2 0x854 JUMPI PUSH1 0x40 DUP5 ADD MSTORE PUSH1 0x60 DUP2 ADD MLOAD PUSH1 0x60 DUP5 ADD MSTORE PUSH1 0x80 DUP2 ADD MLOAD PUSH1 0x80 DUP5 ADD MSTORE PUSH1 0xA0 DUP2 ADD MLOAD PUSH1 0xA0 DUP5 ADD MSTORE PUSH1 0xC0 DUP2 ADD MLOAD PUSH1 0xC0 DUP5 ADD MSTORE PUSH1 0xE0 DUP2 ADD MLOAD PUSH1 0xE0 DUP5 ADD MSTORE PUSH2 0x100 DUP2 ADD MLOAD PUSH2 0x100 DUP5 ADD MSTORE PUSH2 0x120 DUP2 ADD MLOAD DUP1 ISZERO ISZERO DUP2 SUB PUSH2 0x854 JUMPI PUSH2 0x120 DUP5 ADD MSTORE PUSH2 0x140 DUP2 ADD MLOAD PUSH2 0x140 DUP5 ADD MSTORE PUSH2 0x160 DUP2 ADD MLOAD PUSH2 0x160 DUP5 ADD MSTORE PUSH2 0x180 DUP2 ADD MLOAD PUSH1 0xFF DUP2 AND DUP2 SUB PUSH2 0x854 JUMPI PUSH2 0x180 DUP5 ADD MSTORE PUSH2 0x1A0 DUP2 ADD MLOAD PUSH1 0x1 PUSH1 0x1 PUSH1 0xA0 SHL SUB DUP2 AND DUP2 SUB PUSH2 0x854 JUMPI PUSH2 0x1A0 DUP5 ADD MSTORE PUSH2 0x1C0 ADD MLOAD SWAP1 PUSH1 0x2 DUP3 LT ISZERO PUSH2 0x851 JUMPI POP PUSH2 0x1C0 DUP3 ADD MSTORE SWAP6 DUP11 PUSH2 0x387 JUMP JUMPDEST DUP1 REVERT JUMPDEST DUP3 DUP1 REVERT JUMPDEST DUP5 DUP1 REVERT JUMPDEST DUP4 DUP1 REVERT JUMPDEST POP DUP1 REVERT JUMPDEST PUSH1 0x40 MLOAD RETURNDATASIZE PUSH1 0x0 DUP3 RETURNDATACOPY RETURNDATASIZE SWAP1 REVERT JUMPDEST DUP4 DUP7 DUP10 DUP10 DUP2 LT PUSH2 0x8CD JUMPI PUSH1 0x5 PUSH1 0x64 SWAP4 ADD SSTORE SUB PUSH2 0x888 JUMPI STOP JUMPDEST PUSH1 0x40 MLOAD PUSH3 0x461BCD PUSH1 0xE5 SHL DUP2 MSTORE PUSH1 0x20 PUSH1 0x4 DUP3 ADD MSTORE PUSH1 0x1B PUSH1 0x24 DUP3 ADD MSTORE PUSH32 0x546F74616C2073706C6974206D75737420657175616C20313030250000000000 PUSH1 0x44 DUP3 ADD MSTORE PUSH1 0x64 SWAP1 REVERT JUMPDEST PUSH1 0x40 MLOAD PUSH3 0x461BCD PUSH1 0xE5 SHL DUP2 MSTORE PUSH1 0x20 PUSH1 0x4 DUP3 ADD MSTORE PUSH1 0x60 PUSH1 0x24 DUP3 ADD MSTORE PUSH32 0x4D696E696D756E20706572696F64206D75737420626520677265617465722074 PUSH1 0x44 DUP3 ADD MSTORE PUSH32 0x68616E206F7220657175616C20746F20746865206D696E696D756D2070657269 PUSH1 0x64 DUP3 ADD MSTORE PUSH32 0x6F64206F6620616C6C20706F6F6C732077697468696E20746865207661756C74 PUSH1 0x84 DUP3 ADD MSTORE PUSH1 0xA4 SWAP1 REVERT JUMPDEST ADD MLOAD SWAP1 POP DUP11 DUP1 PUSH2 0x2CD JUMP JUMPDEST SWAP1 PUSH1 0x1F NOT DUP4 AND SWAP2 DUP5 PUSH1 0x0 MSTORE DUP2 PUSH1 0x0 KECCAK256 SWAP3 PUSH1 0x0 JUMPDEST DUP2 DUP2 LT PUSH2 0x9C0 JUMPI POP SWAP2 PUSH1 0x1 SWAP4 SWAP2 DUP6 PUSH2 0x32B SWAP9 SWAP8 SWAP7 SWAP5 LT PUSH2 0x9A7 JUMPI JUMPDEST POP POP POP DUP2 SHL ADD SWAP1 SSTORE SWAP5 SWAP2 SWAP5 PUSH2 0x2E5 JUMP JUMPDEST ADD MLOAD PUSH1 0x0 NOT PUSH1 0xF8 DUP5 PUSH1 0x3 SHL AND SHR NOT AND SWAP1 SSTORE DUP11 DUP1 DUP1 PUSH2 0x997 JUMP JUMPDEST SWAP3 SWAP4 PUSH1 0x20 PUSH1 0x1 DUP2 SWAP3 DUP8 DUP7 ADD MLOAD DUP2 SSTORE ADD SWAP6 ADD SWAP4 ADD PUSH2 0x97C JUMP JUMPDEST DUP4 PUSH1 0x0 MSTORE PUSH1 0x20 PUSH1 0x0 KECCAK256 PUSH1 0x1F DUP5 ADD PUSH1 0x5 SHR DUP2 ADD SWAP2 PUSH1 0x20 DUP6 LT PUSH2 0xA16 JUMPI JUMPDEST PUSH1 0x1F ADD PUSH1 0x5 SHR ADD SWAP1 JUMPDEST DUP2 DUP2 LT PUSH2 0xA0A JUMPI POP PUSH2 0x2AE JUMP JUMPDEST PUSH1 0x0 DUP2 SSTORE PUSH1 0x1 ADD PUSH2 0x9FD JUMP JUMPDEST SWAP1 SWAP2 POP DUP2 SWAP1 PUSH2 0x9F4 JUMP JUMPDEST PUSH4 0x4E487B71 PUSH1 0xE0 SHL PUSH1 0x0 MSTORE PUSH1 0x11 PUSH1 0x4 MSTORE PUSH1 0x24 PUSH1 0x0 REVERT JUMPDEST PUSH1 0x40 MLOAD PUSH3 0x461BCD PUSH1 0xE5 SHL DUP2 MSTORE PUSH1 0x20 PUSH1 0x4 DUP3 ADD MSTORE PUSH1 0x1E PUSH1 0x24 DUP3 ADD MSTORE PUSH32 0x496E76616C696420617373657420666F72206465706F73697420747970650000 PUSH1 0x44 DUP3 ADD MSTORE PUSH1 0x64 SWAP1 REVERT JUMPDEST SWAP1 POP ISZERO ISZERO DUP8 PUSH2 0x25B JUMP JUMPDEST PUSH1 0x40 MLOAD PUSH3 0x461BCD PUSH1 0xE5 SHL DUP2 MSTORE PUSH1 0x20 PUSH1 0x4 DUP3 ADD MSTORE PUSH1 0x23 PUSH1 0x24 DUP3 ADD MSTORE PUSH32 0x4D69736D61746368656420706F6F6C2049447320616E642070657263656E7461 PUSH1 0x44 DUP3 ADD MSTORE PUSH3 0x676573 PUSH1 0xE8 SHL PUSH1 0x64 DUP3 ADD MSTORE PUSH1 0x84 SWAP1 REVERT JUMPDEST CALLVALUE PUSH2 0x163 JUMPI PUSH1 0x20 CALLDATASIZE PUSH1 0x3 NOT ADD SLT PUSH2 0x163 JUMPI PUSH2 0xAEF PUSH2 0x186A JUMP JUMPDEST PUSH2 0xAF7 PUSH2 0x205D JUMP JUMPDEST PUSH1 0x1 PUSH1 0x1 PUSH1 0xA0 SHL SUB AND DUP1 ISZERO PUSH2 0xB4A JUMPI PUSH1 0x1 DUP1 SLOAD PUSH1 0x1 PUSH1 0x1 PUSH1 0xA0 SHL SUB NOT DUP2 AND DUP4 OR SWAP1 SWAP2 SSTORE PUSH1 0x1 PUSH1 0x1 PUSH1 0xA0 SHL SUB AND PUSH32 0x8BE0079C531659141344CD1FD0A4F28419497F9722A3DAAFE3B4186F6B6457E0 PUSH1 0x0 DUP1 LOG3 STOP JUMPDEST PUSH4 0x1E4FBDF7 PUSH1 0xE0 SHL PUSH1 0x0 MSTORE PUSH1 0x0 PUSH1 0x4 MSTORE PUSH1 0x24 PUSH1 0x0 REVERT JUMPDEST CALLVALUE PUSH2 0x163 JUMPI PUSH1 0x20 CALLDATASIZE PUSH1 0x3 NOT ADD SLT PUSH2 0x163 JUMPI PUSH1 0x4 CALLDATALOAD PUSH2 0xB7C PUSH2 0x203B JUMP JUMPDEST CALLER PUSH1 0x0 MSTORE PUSH1 0x5 PUSH1 0x20 MSTORE PUSH1 0x40 PUSH1 0x0 KECCAK256 DUP2 PUSH1 0x0 MSTORE PUSH1 0x20 MSTORE PUSH1 0x40 PUSH1 0x0 KECCAK256 PUSH1 0x1 DUP2 ADD SWAP2 DUP3 SLOAD ISZERO PUSH2 0xD32 JUMPI PUSH1 0x4 DUP3 ADD SWAP2 PUSH1 0xFF DUP4 SLOAD AND PUSH2 0xBB5 DUP2 PUSH2 0x18C8 JUMP JUMPDEST PUSH2 0xCF5 JUMPI PUSH1 0x7 ADD SLOAD TIMESTAMP LT PUSH2 0xCB0 JUMPI PUSH1 0x0 MSTORE PUSH1 0x3 PUSH1 0x20 MSTORE PUSH2 0xBD8 PUSH1 0x40 PUSH1 0x0 KECCAK256 PUSH2 0x1E40 JUMP JUMPDEST PUSH1 0x40 DUP2 ADD SWAP3 PUSH1 0x0 JUMPDEST DUP5 MLOAD DUP1 MLOAD DUP3 LT ISZERO PUSH2 0xC60 JUMPI DUP2 PUSH2 0xBF5 SWAP2 PUSH2 0x1C32 JUMP JUMPDEST MLOAD MLOAD PUSH1 0x9 SLOAD PUSH1 0x1 PUSH1 0x1 PUSH1 0xA0 SHL SUB AND SWAP2 SWAP1 DUP3 EXTCODESIZE ISZERO PUSH2 0x163 JUMPI PUSH1 0x0 SWAP3 PUSH1 0x64 DUP5 SWAP3 PUSH1 0x40 MLOAD SWAP6 DUP7 SWAP4 DUP5 SWAP3 PUSH4 0x83BC6357 PUSH1 0xE0 SHL DUP5 MSTORE CALLER PUSH1 0x4 DUP6 ADD MSTORE PUSH1 0x24 DUP5 ADD MSTORE PUSH1 0x1 PUSH1 0x44 DUP5 ADD MSTORE GAS CALL SWAP2 DUP3 ISZERO PUSH2 0x864 JUMPI PUSH1 0x1 SWAP3 PUSH2 0xC4F JUMPI JUMPDEST POP ADD PUSH2 0xBE0 JUMP JUMPDEST PUSH1 0x0 PUSH2 0xC5A SWAP2 PUSH2 0x1B43 JUMP JUMPDEST DUP7 PUSH2 0xC48 JUMP JUMPDEST DUP5 SLOAD PUSH1 0xFF NOT AND PUSH1 0x1 OR DUP6 SSTORE DUP3 SLOAD PUSH1 0x20 DUP6 ADD MLOAD PUSH1 0x40 MLOAD CALLER SWAP3 PUSH32 0x485F1BB6524C663555797E00171A10F341656E59B02D6B557A0A38BA7D5D9751 SWAP3 DUP3 SWAP2 PUSH2 0xCA6 SWAP2 SWAP1 DUP4 PUSH2 0x1F86 JUMP JUMPDEST SUB SWAP1 LOG2 PUSH1 0x1 PUSH1 0x0 SSTORE STOP JUMPDEST PUSH1 0x40 MLOAD PUSH3 0x461BCD PUSH1 0xE5 SHL DUP2 MSTORE PUSH1 0x20 PUSH1 0x4 DUP3 ADD MSTORE PUSH1 0x1C PUSH1 0x24 DUP3 ADD MSTORE PUSH32 0x4465706F73697420706572696F6420686173206E6F7420656E64656400000000 PUSH1 0x44 DUP3 ADD MSTORE PUSH1 0x64 SWAP1 REVERT JUMPDEST PUSH1 0x40 MLOAD PUSH3 0x461BCD PUSH1 0xE5 SHL DUP2 MSTORE PUSH1 0x20 PUSH1 0x4 DUP3 ADD MSTORE PUSH1 0x15 PUSH1 0x24 DUP3 ADD MSTORE PUSH21 0x4465706F736974206973206E6F7420616374697665 PUSH1 0x58 SHL PUSH1 0x44 DUP3 ADD MSTORE PUSH1 0x64 SWAP1 REVERT JUMPDEST PUSH1 0x40 MLOAD PUSH3 0x461BCD PUSH1 0xE5 SHL DUP2 MSTORE PUSH1 0x20 PUSH1 0x4 DUP3 ADD MSTORE PUSH1 0x21 PUSH1 0x24 DUP3 ADD MSTORE PUSH32 0x4E6F206465706F73697420666F756E6420666F72207468697320616464726573 PUSH1 0x44 DUP3 ADD MSTORE PUSH1 0x73 PUSH1 0xF8 SHL PUSH1 0x64 DUP3 ADD MSTORE PUSH1 0x84 SWAP1 REVERT JUMPDEST CALLVALUE PUSH2 0x163 JUMPI PUSH1 0x0 CALLDATASIZE PUSH1 0x3 NOT ADD SLT PUSH2 0x163 JUMPI PUSH1 0xA SLOAD PUSH1 0x40 MLOAD PUSH1 0x1 PUSH1 0x1 PUSH1 0xA0 SHL SUB SWAP1 SWAP2 AND DUP2 MSTORE PUSH1 0x20 SWAP1 RETURN JUMPDEST CALLVALUE PUSH2 0x163 JUMPI PUSH1 0x0 CALLDATASIZE PUSH1 0x3 NOT ADD SLT PUSH2 0x163 JUMPI PUSH1 0x9 SLOAD PUSH1 0x40 MLOAD PUSH1 0x1 PUSH1 0x1 PUSH1 0xA0 SHL SUB SWAP1 SWAP2 AND DUP2 MSTORE PUSH1 0x20 SWAP1 RETURN JUMPDEST CALLVALUE PUSH2 0x163 JUMPI PUSH1 0x20 CALLDATASIZE PUSH1 0x3 NOT ADD SLT PUSH2 0x163 JUMPI PUSH2 0xDEC PUSH2 0x186A JUMP JUMPDEST PUSH2 0xDF4 PUSH2 0x205D JUMP JUMPDEST PUSH1 0x7 SLOAD SWAP1 PUSH2 0xE0B PUSH1 0x1 PUSH1 0x1 PUSH1 0xA0 SHL SUB DUP4 AND ISZERO PUSH2 0x1FA0 JUMP JUMPDEST PUSH1 0x1 PUSH1 0x1 PUSH1 0xA0 SHL SUB AND SWAP1 DUP2 SWAP1 PUSH2 0xE22 DUP3 ISZERO ISZERO PUSH2 0x1FE5 JUMP JUMPDEST PUSH1 0x1 PUSH1 0x1 PUSH1 0x60 SHL SUB PUSH1 0xA0 SHL AND OR PUSH1 0x7 SSTORE PUSH1 0x1 PUSH1 0x1 PUSH1 0x60 SHL SUB PUSH1 0xA0 SHL PUSH1 0xA SLOAD AND OR PUSH1 0xA SSTORE PUSH1 0x0 DUP1 RETURN JUMPDEST CALLVALUE PUSH2 0x163 JUMPI PUSH1 0x0 CALLDATASIZE PUSH1 0x3 NOT ADD SLT PUSH2 0x163 JUMPI PUSH1 0x20 PUSH1 0x6 SLOAD PUSH1 0x40 MLOAD SWAP1 DUP2 MSTORE RETURN JUMPDEST CALLVALUE PUSH2 0x163 JUMPI PUSH1 0x0 CALLDATASIZE PUSH1 0x3 NOT ADD SLT PUSH2 0x163 JUMPI PUSH1 0xD SLOAD PUSH1 0x40 MLOAD PUSH1 0x1 PUSH1 0x1 PUSH1 0xA0 SHL SUB SWAP1 SWAP2 AND DUP2 MSTORE PUSH1 0x20 SWAP1 RETURN JUMPDEST CALLVALUE PUSH2 0x163 JUMPI PUSH1 0x20 CALLDATASIZE PUSH1 0x3 NOT ADD SLT PUSH2 0x163 JUMPI PUSH1 0x1 PUSH1 0x1 PUSH1 0xA0 SHL SUB PUSH2 0xEB2 PUSH2 0x186A JUMP JUMPDEST AND PUSH1 0x0 MSTORE PUSH1 0x11 PUSH1 0x20 MSTORE PUSH1 0x20 PUSH1 0x40 PUSH1 0x0 KECCAK256 SLOAD PUSH1 0x40 MLOAD SWAP1 DUP2 MSTORE RETURN JUMPDEST CALLVALUE PUSH2 0x163 JUMPI PUSH1 0x20 CALLDATASIZE PUSH1 0x3 NOT ADD SLT PUSH2 0x163 JUMPI PUSH2 0xEE4 PUSH2 0x1BF3 JUMP JUMPDEST POP PUSH1 0x4 CALLDATALOAD PUSH1 0x0 MSTORE PUSH1 0x3 PUSH1 0x20 MSTORE PUSH2 0xF14 PUSH2 0xF00 PUSH1 0x40 PUSH1 0x0 KECCAK256 PUSH2 0x1E40 JUMP JUMPDEST PUSH1 0x40 MLOAD SWAP2 DUP3 SWAP2 PUSH1 0x20 DUP4 MSTORE PUSH1 0x20 DUP4 ADD SWAP1 PUSH2 0x1A0D JUMP JUMPDEST SUB SWAP1 RETURN JUMPDEST CALLVALUE PUSH2 0x163 JUMPI PUSH1 0x0 CALLDATASIZE PUSH1 0x3 NOT ADD SLT PUSH2 0x163 JUMPI PUSH1 0x1 SLOAD PUSH1 0x40 MLOAD PUSH1 0x1 PUSH1 0x1 PUSH1 0xA0 SHL SUB SWAP1 SWAP2 AND DUP2 MSTORE PUSH1 0x20 SWAP1 RETURN JUMPDEST CALLVALUE PUSH2 0x163 JUMPI PUSH1 0x0 CALLDATASIZE PUSH1 0x3 NOT ADD SLT PUSH2 0x163 JUMPI PUSH1 0xC SLOAD PUSH1 0x40 MLOAD PUSH1 0x1 PUSH1 0x1 PUSH1 0xA0 SHL SUB SWAP1 SWAP2 AND DUP2 MSTORE PUSH1 0x20 SWAP1 RETURN JUMPDEST CALLVALUE PUSH2 0x163 JUMPI PUSH1 0x20 CALLDATASIZE PUSH1 0x3 NOT ADD SLT PUSH2 0x163 JUMPI PUSH2 0xF83 PUSH2 0x186A JUMP JUMPDEST PUSH2 0xF8B PUSH2 0x205D JUMP JUMPDEST PUSH1 0xE SLOAD SWAP1 PUSH2 0xFA2 PUSH1 0x1 PUSH1 0x1 PUSH1 0xA0 SHL SUB DUP4 AND ISZERO PUSH2 0x1FA0 JUMP JUMPDEST PUSH1 0x1 PUSH1 0x1 PUSH1 0xA0 SHL SUB AND SWAP1 PUSH2 0xFB7 DUP3 ISZERO ISZERO PUSH2 0x1FE5 JUMP JUMPDEST PUSH1 0x8 DUP1 SLOAD PUSH1 0x1 PUSH1 0x1 PUSH1 0xA0 SHL SUB NOT SWAP1 DUP2 AND DUP5 OR SWAP1 SWAP2 SSTORE AND OR PUSH1 0xE SSTORE STOP JUMPDEST CALLVALUE PUSH2 0x163 JUMPI PUSH1 0x40 CALLDATASIZE PUSH1 0x3 NOT ADD SLT PUSH2 0x163 JUMPI PUSH2 0xFEC PUSH2 0x1854 JUMP JUMPDEST PUSH1 0x4 CALLDATALOAD PUSH1 0x0 MSTORE PUSH1 0x3 PUSH1 0x20 MSTORE PUSH1 0x40 PUSH2 0x1005 DUP2 PUSH1 0x0 KECCAK256 PUSH2 0x1E40 JUMP JUMPDEST ADD SWAP1 DUP2 MLOAD MLOAD SWAP2 PUSH2 0x1014 DUP4 PUSH2 0x1B7F JUMP JUMPDEST SWAP3 PUSH2 0x1022 PUSH1 0x40 MLOAD SWAP5 DUP6 PUSH2 0x1B43 JUMP JUMPDEST DUP1 DUP5 MSTORE PUSH2 0x1031 PUSH1 0x1F NOT SWAP2 PUSH2 0x1B7F JUMP JUMPDEST ADD PUSH1 0x0 JUMPDEST DUP2 DUP2 LT PUSH2 0x1103 JUMPI POP SWAP1 SWAP2 PUSH1 0x1 PUSH1 0x1 PUSH1 0xA0 SHL SUB AND SWAP1 POP PUSH1 0x0 JUMPDEST DUP3 MLOAD SWAP1 DUP2 MLOAD DUP2 LT ISZERO PUSH2 0x10B1 JUMPI PUSH2 0x1065 DUP2 PUSH1 0x1 SWAP4 PUSH2 0x1C32 JUMP JUMPDEST MLOAD MLOAD DUP4 PUSH1 0x0 MSTORE PUSH1 0x4 PUSH1 0x20 MSTORE PUSH1 0x40 PUSH1 0x0 KECCAK256 SWAP1 PUSH1 0x0 MSTORE PUSH1 0x20 MSTORE PUSH1 0x40 PUSH1 0x0 KECCAK256 DUP3 PUSH1 0x0 MSTORE PUSH1 0x20 MSTORE PUSH2 0x1095 PUSH1 0x40 PUSH1 0x0 KECCAK256 PUSH2 0x1F00 JUMP JUMPDEST PUSH2 0x109F DUP3 DUP8 PUSH2 0x1C32 JUMP JUMPDEST MSTORE PUSH2 0x10AA DUP2 DUP7 PUSH2 0x1C32 JUMP JUMPDEST POP ADD PUSH2 0x104D JUMP JUMPDEST DUP5 PUSH1 0x40 MLOAD DUP1 SWAP2 PUSH1 0x20 DUP3 ADD PUSH1 0x20 DUP4 MSTORE DUP2 MLOAD DUP1 SWAP2 MSTORE PUSH1 0x20 PUSH1 0x40 DUP5 ADD SWAP3 ADD SWAP1 PUSH1 0x0 JUMPDEST DUP2 DUP2 LT PUSH2 0x10DE JUMPI POP POP POP SUB SWAP1 RETURN JUMPDEST SWAP2 SWAP4 POP SWAP2 PUSH1 0x20 PUSH2 0x120 DUP3 PUSH2 0x10F5 PUSH1 0x1 SWAP5 DUP9 MLOAD PUSH2 0x1A88 JUMP JUMPDEST ADD SWAP5 ADD SWAP2 ADD SWAP2 DUP5 SWAP4 SWAP3 PUSH2 0x10D0 JUMP JUMPDEST PUSH1 0x20 SWAP1 PUSH2 0x110E PUSH2 0x1EBC JUMP JUMPDEST DUP3 DUP3 DUP9 ADD ADD MSTORE ADD PUSH2 0x1035 JUMP JUMPDEST CALLVALUE PUSH2 0x163 JUMPI PUSH1 0x0 CALLDATASIZE PUSH1 0x3 NOT ADD SLT PUSH2 0x163 JUMPI PUSH2 0x1133 PUSH2 0x205D JUMP JUMPDEST PUSH1 0x1 DUP1 SLOAD PUSH1 0x1 PUSH1 0x1 PUSH1 0xA0 SHL SUB NOT DUP2 AND SWAP1 SWAP2 SSTORE PUSH1 0x0 SWAP1 PUSH1 0x1 PUSH1 0x1 PUSH1 0xA0 SHL SUB AND PUSH32 0x8BE0079C531659141344CD1FD0A4F28419497F9722A3DAAFE3B4186F6B6457E0 DUP3 DUP1 LOG3 STOP JUMPDEST PUSH1 0x60 CALLDATASIZE PUSH1 0x3 NOT ADD SLT PUSH2 0x163 JUMPI PUSH1 0x24 CALLDATALOAD PUSH1 0x44 CALLDATALOAD PUSH1 0x4 CALLDATALOAD PUSH2 0x1194 PUSH2 0x203B JUMP JUMPDEST DUP1 PUSH1 0x0 MSTORE PUSH1 0x3 PUSH1 0x20 MSTORE PUSH2 0x11AA PUSH1 0x40 PUSH1 0x0 KECCAK256 PUSH2 0x1E40 JUMP JUMPDEST PUSH1 0xA0 DUP2 ADD MLOAD DUP4 LT PUSH2 0x1468 JUMPI SWAP2 SWAP1 PUSH1 0x0 DUP1 SWAP2 PUSH1 0x0 SWAP4 PUSH1 0x40 DUP7 ADD SWAP6 PUSH1 0xC0 DUP2 ADD SWAP3 PUSH1 0xE0 DUP3 ADD SWAP5 JUMPDEST DUP9 MLOAD DUP1 MLOAD DUP10 LT ISZERO PUSH2 0x1338 JUMPI DUP9 PUSH2 0x11E3 SWAP2 PUSH2 0x1C32 JUMP JUMPDEST MLOAD MLOAD DUP6 MLOAD SWAP1 PUSH2 0x11F1 DUP3 PUSH2 0x18E8 JUMP JUMPDEST PUSH1 0x1 DUP1 PUSH1 0xA0 SHL SUB DUP9 MLOAD AND SWAP1 PUSH1 0x40 MLOAD PUSH1 0xE0 DUP2 ADD SWAP1 DUP1 DUP3 LT PUSH1 0x1 PUSH1 0x1 PUSH1 0x40 SHL SUB DUP4 GT OR PUSH2 0x669 JUMPI DUP15 SWAP5 PUSH1 0x40 SWAP5 PUSH1 0xE4 SWAP4 DUP7 MSTORE CALLER DUP4 MSTORE PUSH1 0x20 DUP4 ADD SWAP5 DUP6 MSTORE DUP6 DUP4 ADD SWAP7 DUP8 MSTORE PUSH1 0x60 DUP4 ADD SWAP2 DUP12 DUP4 MSTORE PUSH1 0x80 DUP5 ADD PUSH1 0x1 DUP2 MSTORE PUSH1 0xA0 DUP6 ADD SWAP2 PUSH2 0x124E DUP2 PUSH2 0x18E8 JUMP JUMPDEST DUP3 MSTORE PUSH1 0xC0 DUP6 ADD SWAP3 DUP4 MSTORE PUSH1 0x9 SLOAD DUP9 MLOAD PUSH4 0x2607B539 PUSH1 0xE0 SHL DUP2 MSTORE SWAP6 MLOAD PUSH1 0x1 PUSH1 0x1 PUSH1 0xA0 SHL SUB SWAP1 DUP2 AND PUSH1 0x4 DUP9 ADD MSTORE SWAP8 MLOAD PUSH1 0x24 DUP8 ADD MSTORE SWAP9 MLOAD PUSH1 0x44 DUP7 ADD MSTORE SWAP3 MLOAD PUSH1 0x64 DUP6 ADD MSTORE SWAP2 MLOAD SWAP3 SWAP7 DUP8 SWAP6 DUP7 SWAP5 SWAP2 AND SWAP3 SWAP1 PUSH2 0x12A2 DUP2 PUSH2 0x18E8 JUMP JUMPDEST PUSH1 0x84 DUP6 ADD MSTORE MLOAD PUSH2 0x12B1 DUP2 PUSH2 0x18E8 JUMP JUMPDEST PUSH1 0xA4 DUP5 ADD MSTORE MLOAD PUSH1 0x1 PUSH1 0x1 PUSH1 0xA0 SHL SUB AND PUSH1 0xC4 DUP4 ADD MSTORE CALLVALUE SWAP1 GAS CALL SWAP2 DUP3 ISZERO PUSH2 0x864 JUMPI PUSH1 0x0 SWAP2 DUP3 SWAP4 PUSH2 0x12FA JUMPI JUMPDEST POP SWAP1 PUSH2 0x12EB PUSH1 0x1 SWAP4 PUSH2 0x12F1 SWAP4 PUSH2 0x1F79 JUMP JUMPDEST SWAP9 PUSH2 0x1F79 JUMP JUMPDEST SWAP8 ADD SWAP7 SWAP6 PUSH2 0x11CE JUMP JUMPDEST SWAP3 POP SWAP1 PUSH1 0x40 DUP4 RETURNDATASIZE DUP3 GT PUSH2 0x1330 JUMPI JUMPDEST DUP2 PUSH2 0x1315 PUSH1 0x40 SWAP4 DUP4 PUSH2 0x1B43 JUMP JUMPDEST DUP2 ADD SUB SLT PUSH2 0x851 JUMPI POP DUP2 MLOAD PUSH1 0x20 SWAP1 SWAP3 ADD MLOAD SWAP2 SWAP1 PUSH2 0x12EB PUSH2 0x12DA JUMP JUMPDEST RETURNDATASIZE SWAP2 POP PUSH2 0x1308 JUMP JUMPDEST POP DUP7 DUP11 SWAP4 DUP6 SWAP3 PUSH3 0x15180 DUP5 MUL DUP5 DUP2 DIV PUSH3 0x15180 EQ DUP6 ISZERO OR ISZERO PUSH2 0xA20 JUMPI PUSH32 0x6F85D9948D6CA3DD6CE6CE7D175DA22B4E865827AE6FCD530EC7EDAC1240F928 SWAP6 PUSH2 0xCA6 SWAP6 PUSH1 0x20 SWAP6 PUSH2 0x1389 PUSH1 0x8 SWAP5 TIMESTAMP PUSH2 0x1F79 JUMP JUMPDEST SWAP2 PUSH1 0x40 MLOAD SWAP6 PUSH2 0x1397 DUP8 PUSH2 0x1AEF JUMP JUMPDEST CALLER DUP8 MSTORE DUP9 DUP8 ADD SWAP3 DUP4 MSTORE PUSH1 0x40 DUP8 ADD SWAP1 DUP6 DUP3 MSTORE PUSH1 0x60 DUP9 ADD SWAP1 DUP2 MSTORE PUSH1 0x80 DUP9 ADD SWAP2 PUSH1 0x0 DUP4 MSTORE PUSH1 0xA0 DUP10 ADD SWAP4 DUP5 MSTORE PUSH1 0xC0 DUP10 ADD SWAP5 TIMESTAMP DUP7 MSTORE PUSH1 0xE0 DUP11 ADD SWAP7 DUP8 MSTORE PUSH2 0x100 DUP11 ADD SWAP8 PUSH1 0x0 DUP10 MSTORE CALLER PUSH1 0x0 MSTORE PUSH1 0x5 DUP14 MSTORE PUSH1 0x40 PUSH1 0x0 KECCAK256 SWAP1 PUSH1 0x0 MSTORE DUP13 MSTORE PUSH1 0x40 PUSH1 0x0 KECCAK256 SWAP10 PUSH1 0x1 DUP1 PUSH1 0xA0 SHL SUB SWAP1 MLOAD AND PUSH1 0x1 PUSH1 0x1 PUSH1 0x60 SHL SUB PUSH1 0xA0 SHL DUP12 SLOAD AND OR DUP11 SSTORE MLOAD PUSH1 0x1 DUP11 ADD SSTORE MLOAD PUSH1 0x2 DUP10 ADD SSTORE MLOAD PUSH1 0x3 DUP9 ADD SSTORE PUSH1 0x4 DUP8 ADD SWAP1 MLOAD PUSH2 0x142D DUP2 PUSH2 0x18C8 JUMP JUMPDEST PUSH2 0x1436 DUP2 PUSH2 0x18C8 JUMP JUMPDEST PUSH1 0xFF DUP1 NOT DUP4 SLOAD AND SWAP2 AND OR SWAP1 SSTORE MLOAD PUSH1 0x5 DUP7 ADD SSTORE MLOAD PUSH1 0x6 DUP6 ADD SSTORE MLOAD PUSH1 0x7 DUP5 ADD SSTORE MLOAD SWAP2 ADD SSTORE ADD MLOAD PUSH1 0x40 MLOAD SWAP2 DUP3 SWAP2 CALLER SWAP6 DUP4 PUSH2 0x1F86 JUMP JUMPDEST PUSH1 0x40 MLOAD PUSH3 0x461BCD PUSH1 0xE5 SHL DUP2 MSTORE PUSH1 0x20 PUSH1 0x4 DUP3 ADD MSTORE PUSH1 0x2F PUSH1 0x24 DUP3 ADD MSTORE PUSH32 0x506572696F642063616E6E6F74206265206C657373207468616E207468652076 PUSH1 0x44 DUP3 ADD MSTORE PUSH15 0x185D5B1D081B5A5B881C195C9A5BD9 PUSH1 0x8A SHL PUSH1 0x64 DUP3 ADD MSTORE PUSH1 0x84 SWAP1 REVERT JUMPDEST CALLVALUE PUSH2 0x163 JUMPI PUSH1 0x20 CALLDATASIZE PUSH1 0x3 NOT ADD SLT PUSH2 0x163 JUMPI PUSH1 0x4 CALLDATALOAD PUSH1 0x0 MSTORE PUSH1 0x3 PUSH1 0x20 MSTORE PUSH2 0xF14 PUSH2 0x14F4 PUSH1 0x2 PUSH1 0x40 PUSH1 0x0 KECCAK256 ADD PUSH2 0x1D24 JUMP JUMPDEST PUSH1 0x40 MLOAD SWAP2 DUP3 SWAP2 PUSH1 0x20 DUP4 MSTORE PUSH1 0x20 DUP4 ADD SWAP1 PUSH2 0x18F2 JUMP JUMPDEST CALLVALUE PUSH2 0x163 JUMPI PUSH1 0x0 CALLDATASIZE PUSH1 0x3 NOT ADD SLT PUSH2 0x163 JUMPI PUSH1 0x7 SLOAD PUSH1 0x40 MLOAD PUSH1 0x1 PUSH1 0x1 PUSH1 0xA0 SHL SUB SWAP1 SWAP2 AND DUP2 MSTORE PUSH1 0x20 SWAP1 RETURN JUMPDEST CALLVALUE PUSH2 0x163 JUMPI PUSH1 0x40 CALLDATASIZE PUSH1 0x3 NOT ADD SLT PUSH2 0x163 JUMPI PUSH2 0x154A PUSH2 0x1854 JUMP JUMPDEST PUSH2 0x1552 PUSH2 0x1EBC JUMP JUMPDEST POP PUSH1 0x1 DUP1 PUSH1 0xA0 SHL SUB AND PUSH1 0x0 MSTORE PUSH1 0x5 PUSH1 0x20 MSTORE PUSH1 0x40 PUSH1 0x0 KECCAK256 PUSH1 0x4 CALLDATALOAD PUSH1 0x0 MSTORE PUSH1 0x20 MSTORE PUSH2 0x120 PUSH2 0x1581 PUSH1 0x40 PUSH1 0x0 KECCAK256 PUSH2 0x1F00 JUMP JUMPDEST PUSH2 0x158E PUSH1 0x40 MLOAD DUP1 SWAP3 PUSH2 0x1A88 JUMP JUMPDEST RETURN JUMPDEST CALLVALUE PUSH2 0x163 JUMPI PUSH1 0x0 CALLDATASIZE PUSH1 0x3 NOT ADD SLT PUSH2 0x163 JUMPI PUSH1 0x6 SLOAD PUSH2 0x15AD DUP2 PUSH2 0x1B7F JUMP JUMPDEST SWAP1 PUSH2 0x15BB PUSH1 0x40 MLOAD SWAP3 DUP4 PUSH2 0x1B43 JUMP JUMPDEST DUP1 DUP3 MSTORE PUSH1 0x1F NOT PUSH2 0x15CA DUP3 PUSH2 0x1B7F JUMP JUMPDEST ADD PUSH1 0x0 JUMPDEST DUP2 DUP2 LT PUSH2 0x1693 JUMPI POP POP PUSH1 0x1 JUMPDEST DUP2 DUP2 GT ISZERO PUSH2 0x164A JUMPI DUP3 PUSH1 0x40 MLOAD DUP1 SWAP2 PUSH1 0x20 DUP3 ADD PUSH1 0x20 DUP4 MSTORE DUP2 MLOAD DUP1 SWAP2 MSTORE PUSH1 0x40 DUP4 ADD SWAP1 PUSH1 0x20 PUSH1 0x40 DUP3 PUSH1 0x5 SHL DUP7 ADD ADD SWAP4 ADD SWAP2 PUSH1 0x0 SWAP1 JUMPDEST DUP3 DUP3 LT PUSH2 0x161B JUMPI POP POP POP POP SUB SWAP1 RETURN JUMPDEST SWAP2 SWAP4 PUSH1 0x1 SWAP2 SWAP4 SWAP6 POP PUSH1 0x20 PUSH2 0x163A DUP2 SWAP3 PUSH1 0x3F NOT DUP11 DUP3 SUB ADD DUP7 MSTORE DUP9 MLOAD PUSH2 0x1A0D JUMP JUMPDEST SWAP7 ADD SWAP3 ADD SWAP3 ADD DUP6 SWAP5 SWAP4 SWAP2 SWAP3 PUSH2 0x160C JUMP JUMPDEST DUP1 PUSH1 0x0 MSTORE PUSH1 0x3 PUSH1 0x20 MSTORE PUSH1 0x40 PUSH1 0x0 KECCAK256 PUSH1 0x0 NOT DUP3 ADD DUP3 DUP2 GT PUSH2 0xA20 JUMPI PUSH2 0x1670 PUSH2 0x1681 SWAP3 PUSH2 0x1E40 JUMP JUMPDEST PUSH2 0x167A DUP3 DUP8 PUSH2 0x1C32 JUMP JUMPDEST MSTORE DUP5 PUSH2 0x1C32 JUMP JUMPDEST POP PUSH1 0x0 NOT DUP2 EQ PUSH2 0xA20 JUMPI PUSH1 0x1 ADD PUSH2 0x15DA JUMP JUMPDEST PUSH1 0x20 SWAP1 PUSH2 0x169E PUSH2 0x1BF3 JUMP JUMPDEST DUP3 DUP3 DUP8 ADD ADD MSTORE ADD PUSH2 0x15CE JUMP JUMPDEST CALLVALUE PUSH2 0x163 JUMPI PUSH1 0x20 CALLDATASIZE PUSH1 0x3 NOT ADD SLT PUSH2 0x163 JUMPI PUSH1 0x4 CALLDATALOAD PUSH1 0x10 SLOAD DUP2 LT ISZERO PUSH2 0x163 JUMPI PUSH1 0x10 PUSH1 0x0 MSTORE PUSH32 0x1B6847DC741A1B0CD08D278845F9D819D87B734759AFB55FE2DE5CB82A9AE672 ADD SLOAD PUSH1 0x40 MLOAD PUSH1 0x1 PUSH1 0x1 PUSH1 0xA0 SHL SUB SWAP1 SWAP2 AND DUP2 MSTORE PUSH1 0x20 SWAP1 RETURN JUMPDEST CALLVALUE PUSH2 0x163 JUMPI PUSH1 0x0 CALLDATASIZE PUSH1 0x3 NOT ADD SLT PUSH2 0x163 JUMPI PUSH1 0xB SLOAD PUSH1 0x40 MLOAD PUSH1 0x1 PUSH1 0x1 PUSH1 0xA0 SHL SUB SWAP1 SWAP2 AND DUP2 MSTORE PUSH1 0x20 SWAP1 RETURN JUMPDEST CALLVALUE PUSH2 0x163 JUMPI PUSH1 0x0 CALLDATASIZE PUSH1 0x3 NOT ADD SLT PUSH2 0x163 JUMPI PUSH1 0xF SLOAD PUSH1 0x40 MLOAD PUSH1 0x1 PUSH1 0x1 PUSH1 0xA0 SHL SUB SWAP1 SWAP2 AND DUP2 MSTORE PUSH1 0x20 SWAP1 RETURN JUMPDEST CALLVALUE PUSH2 0x163 JUMPI PUSH1 0x0 CALLDATASIZE PUSH1 0x3 NOT ADD SLT PUSH2 0x163 JUMPI PUSH1 0xE SLOAD PUSH1 0x40 MLOAD PUSH1 0x1 PUSH1 0x1 PUSH1 0xA0 SHL SUB SWAP1 SWAP2 AND DUP2 MSTORE PUSH1 0x20 SWAP1 RETURN JUMPDEST CALLVALUE PUSH2 0x163 JUMPI PUSH1 0x40 CALLDATASIZE PUSH1 0x3 NOT ADD SLT PUSH2 0x163 JUMPI PUSH2 0x1799 PUSH2 0x1854 JUMP JUMPDEST PUSH2 0x17A1 PUSH2 0x203B JUMP JUMPDEST PUSH1 0xC SLOAD PUSH1 0x1 PUSH1 0x1 PUSH1 0xA0 SHL SUB AND CALLER EQ DUP1 ISZERO PUSH2 0x1840 JUMPI JUMPDEST ISZERO PUSH2 0x17ED JUMPI PUSH1 0x1 DUP1 PUSH1 0xA0 SHL SUB AND PUSH1 0x0 MSTORE PUSH1 0x5 PUSH1 0x20 MSTORE PUSH1 0x40 PUSH1 0x0 KECCAK256 PUSH1 0x4 CALLDATALOAD PUSH1 0x0 MSTORE PUSH1 0x20 MSTORE PUSH1 0x0 PUSH1 0x1 PUSH1 0x40 DUP3 KECCAK256 ADD SSTORE PUSH1 0x1 PUSH1 0x0 SSTORE PUSH1 0x0 DUP1 RETURN JUMPDEST PUSH1 0x40 MLOAD PUSH3 0x461BCD PUSH1 0xE5 SHL DUP2 MSTORE PUSH1 0x20 PUSH1 0x4 DUP3 ADD MSTORE PUSH1 0x25 PUSH1 0x24 DUP3 ADD MSTORE PUSH32 0x43616C6C6572206973206E6F742074686520676F7665726E616E636520636F6E PUSH1 0x44 DUP3 ADD MSTORE PUSH5 0x1D1C9858DD PUSH1 0xDA SHL PUSH1 0x64 DUP3 ADD MSTORE PUSH1 0x84 SWAP1 REVERT JUMPDEST POP PUSH1 0xF SLOAD PUSH1 0x1 PUSH1 0x1 PUSH1 0xA0 SHL SUB AND CALLER EQ PUSH2 0x17B6 JUMP JUMPDEST PUSH1 0x24 CALLDATALOAD SWAP1 PUSH1 0x1 PUSH1 0x1 PUSH1 0xA0 SHL SUB DUP3 AND DUP3 SUB PUSH2 0x163 JUMPI JUMP JUMPDEST PUSH1 0x4 CALLDATALOAD SWAP1 PUSH1 0x1 PUSH1 0x1 PUSH1 0xA0 SHL SUB DUP3 AND DUP3 SUB PUSH2 0x163 JUMPI JUMP JUMPDEST PUSH1 0x0 JUMPDEST DUP4 DUP2 LT PUSH2 0x1893 JUMPI POP POP PUSH1 0x0 SWAP2 ADD MSTORE JUMP JUMPDEST DUP2 DUP2 ADD MLOAD DUP4 DUP3 ADD MSTORE PUSH1 0x20 ADD PUSH2 0x1883 JUMP JUMPDEST SWAP1 PUSH1 0x20 SWAP2 PUSH2 0x18BC DUP2 MLOAD DUP1 SWAP3 DUP2 DUP6 MSTORE DUP6 DUP1 DUP7 ADD SWAP2 ADD PUSH2 0x1880 JUMP JUMPDEST PUSH1 0x1F ADD PUSH1 0x1F NOT AND ADD ADD SWAP1 JUMP JUMPDEST PUSH1 0x3 GT ISZERO PUSH2 0x18D2 JUMPI JUMP JUMPDEST PUSH4 0x4E487B71 PUSH1 0xE0 SHL PUSH1 0x0 MSTORE PUSH1 0x21 PUSH1 0x4 MSTORE PUSH1 0x24 PUSH1 0x0 REVERT JUMPDEST PUSH1 0x2 GT ISZERO PUSH2 0x18D2 JUMPI JUMP JUMPDEST SWAP1 DUP1 PUSH1 0x20 DUP4 MLOAD SWAP2 DUP3 DUP2 MSTORE ADD SWAP2 PUSH1 0x20 DUP1 DUP4 PUSH1 0x5 SHL DUP4 ADD ADD SWAP5 ADD SWAP3 PUSH1 0x0 SWAP2 JUMPDEST DUP4 DUP4 LT PUSH2 0x191E JUMPI POP POP POP POP POP SWAP1 JUMP JUMPDEST SWAP1 SWAP2 SWAP3 SWAP4 SWAP5 PUSH1 0x20 DUP1 PUSH1 0x1 SWAP3 PUSH1 0x1F NOT DUP6 DUP3 SUB ADD DUP7 MSTORE DUP9 MLOAD SWAP1 DUP2 MLOAD DUP2 MSTORE PUSH2 0x1C0 DUP1 PUSH2 0x1956 DUP6 DUP6 ADD MLOAD PUSH2 0x1E0 DUP8 DUP7 ADD MSTORE PUSH2 0x1E0 DUP6 ADD SWAP1 PUSH2 0x18A3 JUMP JUMPDEST SWAP4 PUSH1 0x40 DUP2 ADD MLOAD PUSH2 0x1965 DUP2 PUSH2 0x18C8 JUMP JUMPDEST PUSH1 0x40 DUP6 ADD MSTORE PUSH1 0x60 DUP2 ADD MLOAD PUSH1 0x60 DUP6 ADD MSTORE PUSH1 0x80 DUP2 ADD MLOAD PUSH1 0x80 DUP6 ADD MSTORE PUSH1 0xA0 DUP2 ADD MLOAD PUSH1 0xA0 DUP6 ADD MSTORE PUSH1 0xC0 DUP2 ADD MLOAD PUSH1 0xC0 DUP6 ADD MSTORE PUSH1 0xE0 DUP2 ADD MLOAD PUSH1 0xE0 DUP6 ADD MSTORE PUSH2 0x100 DUP2 ADD MLOAD PUSH2 0x100 DUP6 ADD MSTORE PUSH2 0x120 DUP2 ADD MLOAD ISZERO ISZERO PUSH2 0x120 DUP6 ADD MSTORE PUSH2 0x140 DUP2 ADD MLOAD PUSH2 0x140 DUP6 ADD MSTORE PUSH2 0x160 DUP2 ADD MLOAD PUSH2 0x160 DUP6 ADD MSTORE PUSH1 0xFF PUSH2 0x180 DUP3 ADD MLOAD AND PUSH2 0x180 DUP6 ADD MSTORE DUP8 DUP1 PUSH1 0xA0 SHL SUB PUSH2 0x1A0 DUP3 ADD MLOAD AND PUSH2 0x1A0 DUP6 ADD MSTORE ADD MLOAD SWAP2 PUSH2 0x19FC DUP4 PUSH2 0x18E8 JUMP JUMPDEST ADD MSTORE SWAP8 ADD SWAP4 ADD SWAP4 ADD SWAP2 SWAP4 SWAP3 SWAP1 PUSH2 0x190F JUMP JUMPDEST SWAP1 DUP2 MLOAD DUP2 MSTORE PUSH1 0xE0 PUSH2 0x1A44 PUSH2 0x1A32 PUSH1 0x20 DUP6 ADD MLOAD PUSH2 0x100 PUSH1 0x20 DUP7 ADD MSTORE PUSH2 0x100 DUP6 ADD SWAP1 PUSH2 0x18A3 JUMP JUMPDEST PUSH1 0x40 DUP6 ADD MLOAD DUP5 DUP3 SUB PUSH1 0x40 DUP7 ADD MSTORE PUSH2 0x18F2 JUMP JUMPDEST SWAP3 PUSH1 0x60 DUP2 ADD MLOAD PUSH1 0x60 DUP5 ADD MSTORE PUSH1 0x80 DUP2 ADD MLOAD PUSH1 0x80 DUP5 ADD MSTORE PUSH1 0xA0 DUP2 ADD MLOAD PUSH1 0xA0 DUP5 ADD MSTORE PUSH1 0xC0 DUP2 ADD MLOAD PUSH2 0x1A71 DUP2 PUSH2 0x18E8 JUMP JUMPDEST PUSH1 0xC0 DUP5 ADD MSTORE DUP2 ADD MLOAD PUSH1 0x1 PUSH1 0x1 PUSH1 0xA0 SHL SUB AND SWAP2 ADD MSTORE SWAP1 JUMP JUMPDEST PUSH2 0x100 DUP1 SWAP2 PUSH1 0x1 DUP1 PUSH1 0xA0 SHL SUB DUP2 MLOAD AND DUP5 MSTORE PUSH1 0x20 DUP2 ADD MLOAD PUSH1 0x20 DUP6 ADD MSTORE PUSH1 0x40 DUP2 ADD MLOAD PUSH1 0x40 DUP6 ADD MSTORE PUSH1 0x60 DUP2 ADD MLOAD PUSH1 0x60 DUP6 ADD MSTORE PUSH1 0x80 DUP2 ADD MLOAD PUSH2 0x1AC5 DUP2 PUSH2 0x18C8 JUMP JUMPDEST PUSH1 0x80 DUP6 ADD MSTORE PUSH1 0xA0 DUP2 ADD MLOAD PUSH1 0xA0 DUP6 ADD MSTORE PUSH1 0xC0 DUP2 ADD MLOAD PUSH1 0xC0 DUP6 ADD MSTORE PUSH1 0xE0 DUP2 ADD MLOAD PUSH1 0xE0 DUP6 ADD MSTORE ADD MLOAD SWAP2 ADD MSTORE JUMP JUMPDEST PUSH2 0x120 DUP2 ADD SWAP1 DUP2 LT PUSH1 0x1 PUSH1 0x1 PUSH1 0x40 SHL SUB DUP3 GT OR PUSH2 0x669 JUMPI PUSH1 0x40 MSTORE JUMP JUMPDEST PUSH2 0x1E0 DUP2 ADD SWAP1 DUP2 LT PUSH1 0x1 PUSH1 0x1 PUSH1 0x40 SHL SUB DUP3 GT OR PUSH2 0x669 JUMPI PUSH1 0x40 MSTORE JUMP JUMPDEST PUSH2 0x100 DUP2 ADD SWAP1 DUP2 LT PUSH1 0x1 PUSH1 0x1 PUSH1 0x40 SHL SUB DUP3 GT OR PUSH2 0x669 JUMPI PUSH1 0x40 MSTORE JUMP JUMPDEST SWAP1 PUSH1 0x1F DUP1 NOT SWAP2 ADD AND DUP2 ADD SWAP1 DUP2 LT PUSH1 0x1 PUSH1 0x1 PUSH1 0x40 SHL SUB DUP3 GT OR PUSH2 0x669 JUMPI PUSH1 0x40 MSTORE JUMP JUMPDEST PUSH1 0x1 PUSH1 0x1 PUSH1 0x40 SHL SUB DUP2 GT PUSH2 0x669 JUMPI PUSH1 0x1F ADD PUSH1 0x1F NOT AND PUSH1 0x20 ADD SWAP1 JUMP JUMPDEST PUSH1 0x1 PUSH1 0x1 PUSH1 0x40 SHL SUB DUP2 GT PUSH2 0x669 JUMPI PUSH1 0x5 SHL PUSH1 0x20 ADD SWAP1 JUMP JUMPDEST SWAP1 DUP1 PUSH1 0x1F DUP4 ADD SLT ISZERO PUSH2 0x163 JUMPI DUP2 CALLDATALOAD PUSH2 0x1BAD DUP2 PUSH2 0x1B7F JUMP JUMPDEST SWAP3 PUSH2 0x1BBB PUSH1 0x40 MLOAD SWAP5 DUP6 PUSH2 0x1B43 JUMP JUMPDEST DUP2 DUP5 MSTORE PUSH1 0x20 DUP1 DUP6 ADD SWAP3 PUSH1 0x5 SHL DUP3 ADD ADD SWAP3 DUP4 GT PUSH2 0x163 JUMPI PUSH1 0x20 ADD SWAP1 JUMPDEST DUP3 DUP3 LT PUSH2 0x1BE3 JUMPI POP POP POP SWAP1 JUMP JUMPDEST DUP2 CALLDATALOAD DUP2 MSTORE PUSH1 0x20 SWAP2 DUP3 ADD SWAP2 ADD PUSH2 0x1BD6 JUMP JUMPDEST PUSH1 0x40 MLOAD SWAP1 PUSH2 0x1C00 DUP3 PUSH2 0x1B27 JUMP JUMPDEST PUSH1 0x0 PUSH1 0xE0 DUP4 DUP3 DUP2 MSTORE PUSH1 0x60 PUSH1 0x20 DUP3 ADD MSTORE PUSH1 0x60 PUSH1 0x40 DUP3 ADD MSTORE DUP3 PUSH1 0x60 DUP3 ADD MSTORE DUP3 PUSH1 0x80 DUP3 ADD MSTORE DUP3 PUSH1 0xA0 DUP3 ADD MSTORE DUP3 PUSH1 0xC0 DUP3 ADD MSTORE ADD MSTORE JUMP JUMPDEST DUP1 MLOAD DUP3 LT ISZERO PUSH2 0x67F JUMPI PUSH1 0x20 SWAP2 PUSH1 0x5 SHL ADD ADD SWAP1 JUMP JUMPDEST SWAP1 PUSH1 0x1 DUP3 DUP2 SHR SWAP3 AND DUP1 ISZERO PUSH2 0x1C76 JUMPI JUMPDEST PUSH1 0x20 DUP4 LT EQ PUSH2 0x1C60 JUMPI JUMP JUMPDEST PUSH4 0x4E487B71 PUSH1 0xE0 SHL PUSH1 0x0 MSTORE PUSH1 0x22 PUSH1 0x4 MSTORE PUSH1 0x24 PUSH1 0x0 REVERT JUMPDEST SWAP2 PUSH1 0x7F AND SWAP2 PUSH2 0x1C55 JUMP JUMPDEST SWAP1 PUSH1 0x40 MLOAD SWAP2 DUP3 PUSH1 0x0 DUP3 SLOAD SWAP3 PUSH2 0x1C94 DUP5 PUSH2 0x1C46 JUMP JUMPDEST DUP1 DUP5 MSTORE SWAP4 PUSH1 0x1 DUP2 AND SWAP1 DUP2 ISZERO PUSH2 0x1D02 JUMPI POP PUSH1 0x1 EQ PUSH2 0x1CBB JUMPI JUMPDEST POP PUSH2 0x1CB9 SWAP3 POP SUB DUP4 PUSH2 0x1B43 JUMP JUMPDEST JUMP JUMPDEST SWAP1 POP PUSH1 0x0 SWAP3 SWAP2 SWAP3 MSTORE PUSH1 0x20 PUSH1 0x0 KECCAK256 SWAP1 PUSH1 0x0 SWAP2 JUMPDEST DUP2 DUP4 LT PUSH2 0x1CE6 JUMPI POP POP SWAP1 PUSH1 0x20 PUSH2 0x1CB9 SWAP3 DUP3 ADD ADD CODESIZE PUSH2 0x1CAC JUMP JUMPDEST PUSH1 0x20 SWAP2 SWAP4 POP DUP1 PUSH1 0x1 SWAP2 SLOAD DUP4 DUP6 DUP10 ADD ADD MSTORE ADD SWAP2 ADD SWAP1 SWAP2 DUP5 SWAP3 PUSH2 0x1CCD JUMP JUMPDEST SWAP1 POP PUSH1 0x20 SWAP3 POP PUSH2 0x1CB9 SWAP5 SWAP2 POP PUSH1 0xFF NOT AND DUP3 DUP5 ADD MSTORE ISZERO ISZERO PUSH1 0x5 SHL DUP3 ADD ADD CODESIZE PUSH2 0x1CAC JUMP JUMPDEST SWAP1 DUP2 SLOAD PUSH2 0x1D30 DUP2 PUSH2 0x1B7F JUMP JUMPDEST SWAP3 PUSH2 0x1D3E PUSH1 0x40 MLOAD SWAP5 DUP6 PUSH2 0x1B43 JUMP JUMPDEST DUP2 DUP5 MSTORE PUSH1 0x20 DUP5 ADD SWAP1 PUSH1 0x0 MSTORE PUSH1 0x20 PUSH1 0x0 KECCAK256 PUSH1 0x0 SWAP2 JUMPDEST DUP4 DUP4 LT PUSH2 0x1D5F JUMPI POP POP POP POP JUMP JUMPDEST PUSH1 0xD PUSH1 0x20 PUSH1 0x1 SWAP3 PUSH1 0x40 MLOAD PUSH2 0x1D72 DUP2 PUSH2 0x1B0B JUMP JUMPDEST DUP6 SLOAD DUP2 MSTORE PUSH2 0x1D81 DUP6 DUP8 ADD PUSH2 0x1C80 JUMP JUMPDEST DUP4 DUP3 ADD MSTORE PUSH1 0xFF PUSH1 0x2 DUP8 ADD SLOAD AND PUSH2 0x1D96 DUP2 PUSH2 0x18C8 JUMP JUMPDEST PUSH1 0x40 DUP3 ADD MSTORE PUSH1 0x3 DUP7 ADD SLOAD PUSH1 0x60 DUP3 ADD MSTORE PUSH1 0x4 DUP7 ADD SLOAD PUSH1 0x80 DUP3 ADD MSTORE PUSH1 0x5 DUP7 ADD SLOAD PUSH1 0xA0 DUP3 ADD MSTORE PUSH1 0x6 DUP7 ADD SLOAD PUSH1 0xC0 DUP3 ADD MSTORE PUSH1 0x7 DUP7 ADD SLOAD PUSH1 0xE0 DUP3 ADD MSTORE PUSH1 0x8 DUP7 ADD SLOAD PUSH2 0x100 DUP3 ADD MSTORE PUSH1 0xFF PUSH1 0x9 DUP8 ADD SLOAD AND ISZERO ISZERO PUSH2 0x120 DUP3 ADD MSTORE PUSH1 0xA DUP7 ADD SLOAD PUSH2 0x140 DUP3 ADD MSTORE PUSH1 0xB DUP7 ADD SLOAD PUSH2 0x160 DUP3 ADD MSTORE PUSH1 0xFF PUSH1 0xC DUP8 ADD SLOAD DUP2 DUP2 AND PUSH2 0x180 DUP5 ADD MSTORE DUP7 DUP1 PUSH1 0xA0 SHL SUB DUP2 PUSH1 0x8 SHR AND PUSH2 0x1A0 DUP5 ADD MSTORE PUSH1 0xA8 SHR AND PUSH2 0x1E2C DUP2 PUSH2 0x18E8 JUMP JUMPDEST PUSH2 0x1C0 DUP3 ADD MSTORE DUP2 MSTORE ADD SWAP3 ADD SWAP3 ADD SWAP2 SWAP1 PUSH2 0x1D52 JUMP JUMPDEST SWAP1 PUSH1 0x40 MLOAD PUSH2 0x1E4D DUP2 PUSH2 0x1B27 JUMP JUMPDEST PUSH1 0xE0 PUSH1 0x6 DUP3 SWAP5 DUP1 SLOAD DUP5 MSTORE PUSH2 0x1E63 PUSH1 0x1 DUP3 ADD PUSH2 0x1C80 JUMP JUMPDEST PUSH1 0x20 DUP6 ADD MSTORE PUSH2 0x1E74 PUSH1 0x2 DUP3 ADD PUSH2 0x1D24 JUMP JUMPDEST PUSH1 0x40 DUP6 ADD MSTORE PUSH1 0x3 DUP2 ADD SLOAD PUSH1 0x60 DUP6 ADD MSTORE PUSH1 0x4 DUP2 ADD SLOAD PUSH1 0x80 DUP6 ADD MSTORE PUSH1 0x5 DUP2 ADD SLOAD PUSH1 0xA0 DUP6 ADD MSTORE ADD SLOAD PUSH1 0xFF DUP2 AND PUSH2 0x1EA6 DUP2 PUSH2 0x18E8 JUMP JUMPDEST PUSH1 0xC0 DUP5 ADD MSTORE PUSH1 0x8 SHR PUSH1 0x1 PUSH1 0x1 PUSH1 0xA0 SHL SUB AND SWAP2 ADD MSTORE JUMP JUMPDEST PUSH1 0x40 MLOAD SWAP1 PUSH2 0x1EC9 DUP3 PUSH2 0x1AEF JUMP JUMPDEST PUSH1 0x0 PUSH2 0x100 DUP4 DUP3 DUP2 MSTORE DUP3 PUSH1 0x20 DUP3 ADD MSTORE DUP3 PUSH1 0x40 DUP3 ADD MSTORE DUP3 PUSH1 0x60 DUP3 ADD MSTORE DUP3 PUSH1 0x80 DUP3 ADD MSTORE DUP3 PUSH1 0xA0 DUP3 ADD MSTORE DUP3 PUSH1 0xC0 DUP3 ADD MSTORE DUP3 PUSH1 0xE0 DUP3 ADD MSTORE ADD MSTORE JUMP JUMPDEST SWAP1 PUSH1 0x40 MLOAD PUSH2 0x1F0D DUP2 PUSH2 0x1AEF JUMP JUMPDEST PUSH2 0x100 PUSH1 0x8 DUP3 SWAP5 PUSH1 0x1 DUP1 PUSH1 0xA0 SHL SUB DUP2 SLOAD AND DUP5 MSTORE PUSH1 0x1 DUP2 ADD SLOAD PUSH1 0x20 DUP6 ADD MSTORE PUSH1 0x2 DUP2 ADD SLOAD PUSH1 0x40 DUP6 ADD MSTORE PUSH1 0x3 DUP2 ADD SLOAD PUSH1 0x60 DUP6 ADD MSTORE PUSH1 0xFF PUSH1 0x4 DUP3 ADD SLOAD AND PUSH2 0x1F4F DUP2 PUSH2 0x18C8 JUMP JUMPDEST PUSH1 0x80 DUP6 ADD MSTORE PUSH1 0x5 DUP2 ADD SLOAD PUSH1 0xA0 DUP6 ADD MSTORE PUSH1 0x6 DUP2 ADD SLOAD PUSH1 0xC0 DUP6 ADD MSTORE PUSH1 0x7 DUP2 ADD SLOAD PUSH1 0xE0 DUP6 ADD MSTORE ADD SLOAD SWAP2 ADD MSTORE JUMP JUMPDEST SWAP2 SWAP1 DUP3 ADD DUP1 SWAP3 GT PUSH2 0xA20 JUMPI JUMP JUMPDEST PUSH1 0x40 SWAP1 PUSH2 0x1F9D SWAP4 SWAP3 DUP2 MSTORE DUP2 PUSH1 0x20 DUP3 ADD MSTORE ADD SWAP1 PUSH2 0x18A3 JUMP JUMPDEST SWAP1 JUMP JUMPDEST ISZERO PUSH2 0x1FA7 JUMPI JUMP JUMPDEST PUSH1 0x40 MLOAD PUSH3 0x461BCD PUSH1 0xE5 SHL DUP2 MSTORE PUSH1 0x20 PUSH1 0x4 DUP3 ADD MSTORE PUSH1 0x16 PUSH1 0x24 DUP3 ADD MSTORE PUSH22 0x11DBDD995C9B985B98D948185B1C9958591E481CD95D PUSH1 0x52 SHL PUSH1 0x44 DUP3 ADD MSTORE PUSH1 0x64 SWAP1 REVERT JUMPDEST ISZERO PUSH2 0x1FEC JUMPI JUMP JUMPDEST PUSH1 0x40 MLOAD PUSH3 0x461BCD PUSH1 0xE5 SHL DUP2 MSTORE PUSH1 0x20 PUSH1 0x4 DUP3 ADD MSTORE PUSH1 0x21 PUSH1 0x24 DUP3 ADD MSTORE PUSH32 0x476F7665726E616E636520616464726573732063616E6E6F74206265207A6572 PUSH1 0x44 DUP3 ADD MSTORE PUSH1 0x6F PUSH1 0xF8 SHL PUSH1 0x64 DUP3 ADD MSTORE PUSH1 0x84 SWAP1 REVERT JUMPDEST PUSH1 0x2 PUSH1 0x0 SLOAD EQ PUSH2 0x204C JUMPI PUSH1 0x2 PUSH1 0x0 SSTORE JUMP JUMPDEST PUSH4 0x3EE5AEB5 PUSH1 0xE0 SHL PUSH1 0x0 MSTORE PUSH1 0x4 PUSH1 0x0 REVERT JUMPDEST PUSH1 0x1 SLOAD PUSH1 0x1 PUSH1 0x1 PUSH1 0xA0 SHL SUB AND CALLER SUB PUSH2 0x2071 JUMPI JUMP JUMPDEST PUSH4 0x118CDAA7 PUSH1 0xE0 SHL PUSH1 0x0 MSTORE CALLER PUSH1 0x4 MSTORE PUSH1 0x24 PUSH1 0x0 REVERT INVALID LOG2 PUSH5 0x6970667358 0x22 SLT KECCAK256 SWAP8 DUP4 0xB7 0x29 DUP14 COINBASE SSTORE 0xC1 0xE2 SWAP15 TSTORE 0xD6 REVERT 0xF6 POP SWAP5 0xDF 0xC6 0xDE PUSH31 0x93C0133B6B44723E501055AC64736F6C634300081B00330000000000000000 "},"methodIdentifiers":{"ICoverContract()":"f6e80558","IGovernanceContract()":"b5d90c28","IPoolContract()":"b30703cd","bqBTC()":"34808ec3","bqBTCAddress()":"996b8a6f","coverContract()":"248a75b7","createVault(string,uint256[],uint256[],uint256,uint256,uint256,uint8,address)":"f339624b","getUserVaultDeposit(uint256,address)":"57656486","getUserVaultPoolDeposits(uint256,address)":"72bafbde","getVault(uint256)":"9403b634","getVaultPools(uint256)":"60ebd718","getVaults()":"44d00f82","governance()":"5aa6e675","initialOwner()":"29ba7bb2","initialVaultWithdraw(uint256)":"d0006265","owner()":"8da5cb5b","participants(uint256)":"35c1d349","participation(address)":"96f3a8ad","poolContract()":"88d52ef7","renounceOwnership()":"715018a6","setCover(address)":"7c366cc6","setGovernance(address)":"ab033ea9","setUserVaultDepositToZero(uint256,address)":"1f8be73c","transferOwnership(address)":"f2fde38b","vaultCount()":"a7c6a100","vaultDeposit(uint256,uint256,uint256)":"626cc0a9"}}}}}