{"contracts/Vaults.sol":{"Vaults":{"abi":[{"inputs":[{"internalType":"address","name":"_initialOwner","type":"address"}],"stateMutability":"nonpayable","type":"constructor"},{"inputs":[{"internalType":"address","name":"owner","type":"address"}],"name":"OwnableInvalidOwner","type":"error"},{"inputs":[{"internalType":"address","name":"account","type":"address"}],"name":"OwnableUnauthorizedAccount","type":"error"},{"inputs":[],"name":"ReentrancyGuardReentrantCall","type":"error"},{"anonymous":false,"inputs":[{"indexed":false,"internalType":"uint256","name":"","type":"uint256"},{"indexed":false,"internalType":"uint256","name":"","type":"uint256"},{"indexed":false,"internalType":"address","name":"","type":"address"}],"name":"ClaimAttempt","type":"event"},{"anonymous":false,"inputs":[{"indexed":true,"internalType":"address","name":"recipient","type":"address"},{"indexed":false,"internalType":"string","name":"pool","type":"string"},{"indexed":false,"internalType":"uint256","name":"amount","type":"uint256"}],"name":"ClaimPaid","type":"event"},{"anonymous":false,"inputs":[{"indexed":true,"internalType":"address","name":"user","type":"address"},{"indexed":false,"internalType":"uint256","name":"amount","type":"uint256"},{"indexed":false,"internalType":"string","name":"pool","type":"string"}],"name":"Deposited","type":"event"},{"anonymous":false,"inputs":[{"indexed":true,"internalType":"address","name":"previousOwner","type":"address"},{"indexed":true,"internalType":"address","name":"newOwner","type":"address"}],"name":"OwnershipTransferred","type":"event"},{"anonymous":false,"inputs":[{"indexed":true,"internalType":"uint256","name":"id","type":"uint256"},{"indexed":false,"internalType":"string","name":"poolName","type":"string"}],"name":"PoolCreated","type":"event"},{"anonymous":false,"inputs":[{"indexed":true,"internalType":"uint256","name":"poolId","type":"uint256"},{"indexed":false,"internalType":"uint256","name":"apy","type":"uint256"},{"indexed":false,"internalType":"uint256","name":"_minPeriod","type":"uint256"}],"name":"PoolUpdated","type":"event"},{"anonymous":false,"inputs":[{"indexed":true,"internalType":"address","name":"user","type":"address"},{"indexed":false,"internalType":"uint256","name":"amount","type":"uint256"},{"indexed":false,"internalType":"string","name":"pool","type":"string"}],"name":"Withdraw","type":"event"},{"inputs":[],"name":"ICoverContract","outputs":[{"internalType":"contract ICover","name":"","type":"address"}],"stateMutability":"view","type":"function"},{"inputs":[],"name":"IGovernanceContract","outputs":[{"internalType":"contract IGov","name":"","type":"address"}],"stateMutability":"view","type":"function"},{"inputs":[],"name":"IPoolContract","outputs":[{"internalType":"contract IPool","name":"","type":"address"}],"stateMutability":"view","type":"function"},{"inputs":[],"name":"bqBTC","outputs":[{"internalType":"contract IbqBTC","name":"","type":"address"}],"stateMutability":"view","type":"function"},{"inputs":[],"name":"bqBTCAddress","outputs":[{"internalType":"address","name":"","type":"address"}],"stateMutability":"view","type":"function"},{"inputs":[],"name":"coverContract","outputs":[{"internalType":"address","name":"","type":"address"}],"stateMutability":"view","type":"function"},{"inputs":[{"internalType":"string","name":"_vaultName","type":"string"},{"internalType":"uint256[]","name":"_poolIds","type":"uint256[]"},{"internalType":"uint256[]","name":"poolPercentageSplit","type":"uint256[]"},{"internalType":"uint256","name":"_minInv","type":"uint256"},{"internalType":"uint256","name":"_maxInv","type":"uint256"},{"internalType":"uint256","name":"_minPeriod","type":"uint256"},{"internalType":"enum CoverLib.AssetDepositType","name":"adt","type":"uint8"},{"internalType":"address","name":"asset","type":"address"}],"name":"createVault","outputs":[],"stateMutability":"nonpayable","type":"function"},{"inputs":[{"internalType":"uint256","name":"vaultId","type":"uint256"},{"internalType":"address","name":"user","type":"address"}],"name":"getUserVaultDeposit","outputs":[{"components":[{"internalType":"address","name":"lp","type":"address"},{"internalType":"uint256","name":"amount","type":"uint256"},{"internalType":"uint256","name":"vaultId","type":"uint256"},{"internalType":"uint256","name":"dailyPayout","type":"uint256"},{"internalType":"enum CoverLib.Status","name":"status","type":"uint8"},{"internalType":"uint256","name":"daysLeft","type":"uint256"},{"internalType":"uint256","name":"startDate","type":"uint256"},{"internalType":"uint256","name":"expiryDate","type":"uint256"},{"internalType":"uint256","name":"accruedPayout","type":"uint256"}],"internalType":"struct Vaults.VaultDeposit","name":"","type":"tuple"}],"stateMutability":"view","type":"function"},{"inputs":[{"internalType":"uint256","name":"vaultId","type":"uint256"},{"internalType":"address","name":"user","type":"address"}],"name":"getUserVaultPoolDeposits","outputs":[{"components":[{"internalType":"address","name":"lp","type":"address"},{"internalType":"uint256","name":"amount","type":"uint256"},{"internalType":"uint256","name":"poolId","type":"uint256"},{"internalType":"uint256","name":"dailyPayout","type":"uint256"},{"internalType":"enum CoverLib.Status","name":"status","type":"uint8"},{"internalType":"uint256","name":"daysLeft","type":"uint256"},{"internalType":"uint256","name":"startDate","type":"uint256"},{"internalType":"uint256","name":"expiryDate","type":"uint256"},{"internalType":"uint256","name":"accruedPayout","type":"uint256"}],"internalType":"struct Vaults.Deposits[]","name":"","type":"tuple[]"}],"stateMutability":"view","type":"function"},{"inputs":[{"internalType":"uint256","name":"vaultId","type":"uint256"}],"name":"getVault","outputs":[{"components":[{"internalType":"uint256","name":"id","type":"uint256"},{"internalType":"string","name":"vaultName","type":"string"},{"components":[{"internalType":"uint256","name":"id","type":"uint256"},{"internalType":"string","name":"poolName","type":"string"},{"internalType":"enum CoverLib.RiskType","name":"riskType","type":"uint8"},{"internalType":"uint256","name":"apy","type":"uint256"},{"internalType":"uint256","name":"minPeriod","type":"uint256"},{"internalType":"uint256","name":"tvl","type":"uint256"},{"internalType":"uint256","name":"baseValue","type":"uint256"},{"internalType":"uint256","name":"coverTvl","type":"uint256"},{"internalType":"uint256","name":"tcp","type":"uint256"},{"internalType":"bool","name":"isActive","type":"bool"},{"internalType":"uint256","name":"percentageSplitBalance","type":"uint256"},{"internalType":"uint256","name":"investmentArmPercent","type":"uint256"},{"internalType":"uint8","name":"leverage","type":"uint8"},{"internalType":"address","name":"asset","type":"address"},{"internalType":"enum CoverLib.AssetDepositType","name":"assetType","type":"uint8"}],"internalType":"struct CoverLib.Pool[]","name":"pools","type":"tuple[]"},{"internalType":"uint256","name":"minInv","type":"uint256"},{"internalType":"uint256","name":"maxInv","type":"uint256"},{"internalType":"uint256","name":"minPeriod","type":"uint256"},{"internalType":"enum CoverLib.AssetDepositType","name":"assetType","type":"uint8"},{"internalType":"address","name":"asset","type":"address"}],"internalType":"struct Vaults.Vault","name":"","type":"tuple"}],"stateMutability":"view","type":"function"},{"inputs":[{"internalType":"uint256","name":"vaultId","type":"uint256"}],"name":"getVaultPools","outputs":[{"components":[{"internalType":"uint256","name":"id","type":"uint256"},{"internalType":"string","name":"poolName","type":"string"},{"internalType":"enum CoverLib.RiskType","name":"riskType","type":"uint8"},{"internalType":"uint256","name":"apy","type":"uint256"},{"internalType":"uint256","name":"minPeriod","type":"uint256"},{"internalType":"uint256","name":"tvl","type":"uint256"},{"internalType":"uint256","name":"baseValue","type":"uint256"},{"internalType":"uint256","name":"coverTvl","type":"uint256"},{"internalType":"uint256","name":"tcp","type":"uint256"},{"internalType":"bool","name":"isActive","type":"bool"},{"internalType":"uint256","name":"percentageSplitBalance","type":"uint256"},{"internalType":"uint256","name":"investmentArmPercent","type":"uint256"},{"internalType":"uint8","name":"leverage","type":"uint8"},{"internalType":"address","name":"asset","type":"address"},{"internalType":"enum CoverLib.AssetDepositType","name":"assetType","type":"uint8"}],"internalType":"struct CoverLib.Pool[]","name":"","type":"tuple[]"}],"stateMutability":"view","type":"function"},{"inputs":[],"name":"getVaults","outputs":[{"components":[{"internalType":"uint256","name":"id","type":"uint256"},{"internalType":"string","name":"vaultName","type":"string"},{"components":[{"internalType":"uint256","name":"id","type":"uint256"},{"internalType":"string","name":"poolName","type":"string"},{"internalType":"enum CoverLib.RiskType","name":"riskType","type":"uint8"},{"internalType":"uint256","name":"apy","type":"uint256"},{"internalType":"uint256","name":"minPeriod","type":"uint256"},{"internalType":"uint256","name":"tvl","type":"uint256"},{"internalType":"uint256","name":"baseValue","type":"uint256"},{"internalType":"uint256","name":"coverTvl","type":"uint256"},{"internalType":"uint256","name":"tcp","type":"uint256"},{"internalType":"bool","name":"isActive","type":"bool"},{"internalType":"uint256","name":"percentageSplitBalance","type":"uint256"},{"internalType":"uint256","name":"investmentArmPercent","type":"uint256"},{"internalType":"uint8","name":"leverage","type":"uint8"},{"internalType":"address","name":"asset","type":"address"},{"internalType":"enum CoverLib.AssetDepositType","name":"assetType","type":"uint8"}],"internalType":"struct CoverLib.Pool[]","name":"pools","type":"tuple[]"},{"internalType":"uint256","name":"minInv","type":"uint256"},{"internalType":"uint256","name":"maxInv","type":"uint256"},{"internalType":"uint256","name":"minPeriod","type":"uint256"},{"internalType":"enum CoverLib.AssetDepositType","name":"assetType","type":"uint8"},{"internalType":"address","name":"asset","type":"address"}],"internalType":"struct Vaults.Vault[]","name":"","type":"tuple[]"}],"stateMutability":"view","type":"function"},{"inputs":[],"name":"governance","outputs":[{"internalType":"address","name":"","type":"address"}],"stateMutability":"view","type":"function"},{"inputs":[],"name":"initialOwner","outputs":[{"internalType":"address","name":"","type":"address"}],"stateMutability":"view","type":"function"},{"inputs":[{"internalType":"uint256","name":"_vaultId","type":"uint256"}],"name":"initialVaultWithdraw","outputs":[],"stateMutability":"nonpayable","type":"function"},{"inputs":[],"name":"owner","outputs":[{"internalType":"address","name":"","type":"address"}],"stateMutability":"view","type":"function"},{"inputs":[{"internalType":"uint256","name":"","type":"uint256"}],"name":"participants","outputs":[{"internalType":"address","name":"","type":"address"}],"stateMutability":"view","type":"function"},{"inputs":[{"internalType":"address","name":"","type":"address"}],"name":"participation","outputs":[{"internalType":"uint256","name":"","type":"uint256"}],"stateMutability":"view","type":"function"},{"inputs":[],"name":"poolContract","outputs":[{"internalType":"address","name":"","type":"address"}],"stateMutability":"view","type":"function"},{"inputs":[],"name":"renounceOwnership","outputs":[],"stateMutability":"nonpayable","type":"function"},{"inputs":[{"internalType":"address","name":"_coverContract","type":"address"}],"name":"setCover","outputs":[],"stateMutability":"nonpayable","type":"function"},{"inputs":[{"internalType":"address","name":"_governance","type":"address"}],"name":"setGovernance","outputs":[],"stateMutability":"nonpayable","type":"function"},{"inputs":[{"internalType":"address","name":"_poolontract","type":"address"}],"name":"setPool","outputs":[],"stateMutability":"nonpayable","type":"function"},{"inputs":[{"internalType":"uint256","name":"vaultId","type":"uint256"},{"internalType":"address","name":"user","type":"address"}],"name":"setUserVaultDepositToZero","outputs":[],"stateMutability":"nonpayable","type":"function"},{"inputs":[{"internalType":"address","name":"newOwner","type":"address"}],"name":"transferOwnership","outputs":[],"stateMutability":"nonpayable","type":"function"},{"inputs":[],"name":"vaultCount","outputs":[{"internalType":"uint256","name":"","type":"uint256"}],"stateMutability":"view","type":"function"},{"inputs":[{"internalType":"uint256","name":"_vaultId","type":"uint256"},{"internalType":"uint256","name":"_amount","type":"uint256"},{"internalType":"uint256","name":"_period","type":"uint256"}],"name":"vaultDeposit","outputs":[],"stateMutability":"payable","type":"function"}],"evm":{"bytecode":{"linkReferences":{},"object":"60803460d657601f61226838819003918201601f19168301916001600160401b0383118484101760db5780849260209460405283398101031260d657516001600160a01b0381169081900360d6576001600055801560c057600180546001600160a01b031981168317909155604051919081906001600160a01b03167f8be0079c531659141344cd1fd0a4f28419497f9722a3daafe3b4186f6b6457e0600080a3600f80546001600160a01b03191691909117905561217690816100f28239f35b631e4fbdf760e01b600052600060045260246000fd5b600080fd5b634e487b7160e01b600052604160045260246000fdfe6080604052600436101561001257600080fd5b60003560e01c80631f8be73c14611827578063248a75b7146117fe57806329ba7bb2146117d557806334808ec3146117ac57806335c1d349146117515780634437152a146116e857806344d00f82146115ce578063576564861461156f5780635aa6e6751461154657806360ebd71814611503578063626cc0a914611182578063715018a61461112557806372bafbde14610fde5780637c366cc614610f7557806388d52ef714610f4c5780638da5cb5b14610f235780639403b63414610ed657806396f3a8ad14610e9c578063996b8a6f14610e73578063a7c6a10014610e55578063ab033ea914610dde578063b30703cd14610db5578063b5d90c2814610d8c578063d000626514610b6b578063f2fde38b14610ae1578063f339624b146101735763f6e805581461014557600080fd5b3461016e57600036600319011261016e576008546040516001600160a01b039091168152602090f35b600080fd5b3461016e5761010036600319011261016e576004356001600160401b03811161016e573660238201121561016e5780600401356101af81611c0b565b916101bd6040519384611bea565b818352366024838301011161016e578160009260246020930183860137830101526024356001600160401b03811161016e576101fd903690600401611c3d565b6044356001600160401b03811161016e5761021c903690600401611c3d565b9060a4359260c43593600285101561016e5760e4356001600160a01b03811680820361016e5761024a612117565b8451865103610a905761025c8761198f565b8615908115610a86575b5015610a41576006549260018401809411610a2b5783600655836000526003602052604060002093845560018401908051906001600160401b038211610674576102b08354611d88565b601f81116109e3575b50602090601f8311600114610974576103369493929160009183610969575b50508160011b916000199060031b1c19161790559491945b606435600385015560843560048501556006840161030d8861198f565b80546001600160a81b03191660ff89161760089290921b610100600160a81b0316919091179055565b60009161016d9360009260028301935b825181101561087b576009546001600160a01b03169560006103688386611d74565b516024604051809a819363068bcd8d60e01b835260048301525afa96871561086f576000976106e5575b506101c08701908a82516103a58161198f565b6103ae8261198f565b6103b78161198f565b036106a0576103d1906103ca8486611d74565b51906120ce565b966103dc8385611d74565b518654600052600260205260406000206103f68588611d74565b51600052602052604060002055865468010000000000000000811015610674576001810180895581101561068a5787600052600d602060002091020191815183556001830160208301518051906001600160401b03821161067457819061045d8454611d88565b601f8111610621575b50602090601f83116001146105bc576000926105b1575b50508160011b916000199060031b1c19161790555b6002830160408301516104a48161196f565b6104ad8161196f565b815460ff91821660ff199182161790925560608401516003860155608084018051600487015560a0850151600587015560c0850151600687015560e0850151600787015561010085015160088088019190915561012086015160098801805491151585169190951617909355610140850151600a870155610160850151600b870155610180850151600c90960180546101a0909601516001600160a81b031990961696909216959095179390911b610100600160a81b0316929092178255516105758161198f565b61057e8161198f565b815460ff60a81b191660a89190911b60ff60a81b16179055518781106105a8575b50600101610346565b9650600161059f565b015190508f8061047d565b60008581528281209350601f198516905b81811061060957509084600195949392106105f0575b505050811b019055610492565b015160001960f88460031b161c191690558f80806105e3565b929360206001819287860151815501950193016105cd565b909150836000526020600020601f840160051c8101916020851061066a575b90601f859493920160051c01905b81811061065b5750610466565b6000815584935060010161064e565b9091508190610640565b634e487b7160e01b600052604160045260246000fd5b634e487b7160e01b600052603260045260246000fd5b60405162461bcd60e51b815260206004820152601f60248201527f496e636f6d70617469626c65206173736574207479706520696e20706f6f6c006044820152606490fd5b90963d8082843e6106f68184611bea565b82019160208184031261086b578051906001600160401b03821161085f57016101e08184031261086b576040519261072d84611bb2565b8151845260208201516001600160401b03811161086757820181601f820112156108675780519061075d82611c0b565b9261076b6040519485611bea565b82845260208383010111610863579061078a9160208085019101611927565b60208401526040810151600381101561085f576040840152606081015160608401526080810151608084015260a081015160a084015260c081015160c084015260e081015160e0840152610100810151610100840152610120810151801515810361085f5761012084015261014081015161014084015261016081015161016084015261018081015160ff8116810361085f576101808401526101a08101516001600160a01b038116810361085f576101a08401526101c0015190600282101561085c57506101c0820152958a610392565b80fd5b8280fd5b8480fd5b8380fd5b5080fd5b6040513d6000823e3d90fd5b8386898981106108d857600560649301550361089357005b60405162461bcd60e51b815260206004820152601b60248201527f546f74616c2073706c6974206d75737420657175616c203130302500000000006044820152606490fd5b60405162461bcd60e51b815260206004820152606060248201527f4d696e696d756e20706572696f64206d7573742062652067726561746572207460448201527f68616e206f7220657175616c20746f20746865206d696e696d756d207065726960648201527f6f64206f6620616c6c20706f6f6c732077697468696e20746865207661756c74608482015260a490fd5b015190508a806102d8565b90601f1983169184600052816000209260005b8181106109cb575091600193918561033698979694106109b2575b505050811b0190559491946102f0565b015160001960f88460031b161c191690558a80806109a2565b92936020600181928786015181550195019301610987565b836000526020600020601f840160051c81019160208510610a21575b601f0160051c01905b818110610a1557506102b9565b60008155600101610a08565b90915081906109ff565b634e487b7160e01b600052601160045260246000fd5b60405162461bcd60e51b815260206004820152601e60248201527f496e76616c696420617373657420666f72206465706f736974207479706500006044820152606490fd5b9050151587610266565b60405162461bcd60e51b815260206004820152602360248201527f4d69736d61746368656420706f6f6c2049447320616e642070657263656e746160448201526267657360e81b6064820152608490fd5b3461016e57602036600319011261016e57610afa611911565b610b02612117565b6001600160a01b03168015610b5557600180546001600160a01b0319811683179091556001600160a01b03167f8be0079c531659141344cd1fd0a4f28419497f9722a3daafe3b4186f6b6457e0600080a3005b631e4fbdf760e01b600052600060045260246000fd5b3461016e57602036600319011261016e57600435610b876120f5565b33600052600560205260406000208160005260205260406000206001810191825415610d3d57600482019160ff835416610bc08161196f565b610d0057600701544210610cbb576000526003602052610be36040600020611f82565b604081019260005b84518051821015610c6b5781610c0091611d74565b51516009546001600160a01b03169190823b1561016e576000926064849260405195869384926383bc635760e01b84523360048501526024840152600160448401525af191821561086f57600192610c5a575b5001610beb565b6000610c6591611bea565b86610c53565b845460ff191660011785558254602085015160405133927f485f1bb6524c663555797e00171a10f341656e59b02d6b557a0a38ba7d5d9751928291610cb19190836120db565b0390a26001600055005b60405162461bcd60e51b815260206004820152601c60248201527f4465706f73697420706572696f6420686173206e6f7420656e646564000000006044820152606490fd5b60405162461bcd60e51b81526020600482015260156024820152744465706f736974206973206e6f742061637469766560581b6044820152606490fd5b60405162461bcd60e51b815260206004820152602160248201527f4e6f206465706f73697420666f756e6420666f722074686973206164647265736044820152607360f81b6064820152608490fd5b3461016e57600036600319011261016e57600a546040516001600160a01b039091168152602090f35b3461016e57600036600319011261016e576009546040516001600160a01b039091168152602090f35b3461016e57602036600319011261016e57610df7611911565b610dff612117565b60075490610e166001600160a01b03831615611c9a565b6001600160a01b0316908190610e2d821515611cdf565b6001600160601b0360a01b16176007556001600160601b0360a01b600a541617600a55600080f35b3461016e57600036600319011261016e576020600654604051908152f35b3461016e57600036600319011261016e57600d546040516001600160a01b039091168152602090f35b3461016e57602036600319011261016e576001600160a01b03610ebd611911565b1660005260116020526020604060002054604051908152f35b3461016e57602036600319011261016e57610eef611d35565b506004356000526003602052610f1f610f0b6040600020611f82565b604051918291602083526020830190611ab4565b0390f35b3461016e57600036600319011261016e576001546040516001600160a01b039091168152602090f35b3461016e57600036600319011261016e57600c546040516001600160a01b039091168152602090f35b3461016e57602036600319011261016e57610f8e611911565b610f96612117565b600e5490610fad6001600160a01b03831615611c9a565b6001600160a01b031690610fc2821515611cdf565b600880546001600160a01b031990811684179091551617600e55005b3461016e57604036600319011261016e57610ff76118fb565b6004356000526003602052604061101081600020611f82565b01908151519161101f83611c26565b9261102d6040519485611bea565b80845261103c601f1991611c26565b0160005b81811061110e575090916001600160a01b0316905060005b82519081518110156110bc5761107081600193611d74565b51518360005260046020526040600020906000526020526040600020826000526020526110a06040600020612042565b6110aa8287611d74565b526110b58186611d74565b5001611058565b8460405180916020820160208352815180915260206040840192019060005b8181106110e9575050500390f35b919350916020610120826111006001948851611b2f565b0194019101918493926110db565b602090611119611ffe565b82828801015201611040565b3461016e57600036600319011261016e5761113e612117565b600180546001600160a01b031981169091556000906001600160a01b03167f8be0079c531659141344cd1fd0a4f28419497f9722a3daafe3b4186f6b6457e08280a3005b606036600319011261016e5760243560443560043561119f6120f5565b8060005260036020526111b56040600020611f82565b9160a083015181106114a6576040830192600092839260e083019260c081019190855b89895180518a101561137657896111ee91611d74565b515186600052600260205260406000208160005260205260646112238161121b60406000205495866120bb565b0493346120bb565b049086516112308161198f565b89516040516001600160a01b039091169360e08201928284106001600160401b038511176106745760409560e49487523384526020840195865286840197885260608401918b8352608085016001815260a086019161128e8161198f565b825260c086019283526009548951632607b53960e01b815296516001600160a01b0390811660048901529851602488015299516044870152925160648601529151939788968795911692906112e28161198f565b6084860152516112f18161198f565b60a4850152516001600160a01b031660c48401525af191821561086f576000918293611338575b509061132960019361132f936120ce565b986120ce565b970196956111d8565b9250906040833d821161136e575b8161135360409383611bea565b8101031261085c575081516020909201519190611329611318565b3d9150611346565b508584898585620151808402848104620151801485151715610a2b577f6f85d9948d6ca3dd6ce6ce7d175da22b4e865827ae6fcd530ec7edac1240f92895610cb1956020956113c7600894426120ce565b91604051956113d587611b96565b33875288870192835260408701908582526060880190815260808801916000835260a0890193845260c089019442865260e08a019687526101008a0197600089523360005260058d526040600020906000528c5260406000209960018060a01b039051166001600160601b0360a01b8b5416178a555160018a015551600289015551600388015560048701905161146b8161196f565b6114748161196f565b60ff801983541691161790555160058601555160068501555160078401555191015501516040519182913395836120db565b60405162461bcd60e51b815260206004820152602f60248201527f506572696f642063616e6e6f74206265206c657373207468616e20746865207660448201526e185d5b1d081b5a5b881c195c9a5bd9608a1b6064820152608490fd5b3461016e57602036600319011261016e576004356000526003602052610f1f6115326002604060002001611e66565b604051918291602083526020830190611999565b3461016e57600036600319011261016e576007546040516001600160a01b039091168152602090f35b3461016e57604036600319011261016e576115886118fb565b611590611ffe565b5060018060a01b0316600052600560205260406000206004356000526020526101206115bf6040600020612042565b6115cc6040518092611b2f565bf35b3461016e57600036600319011261016e576006546115eb81611c26565b906115f96040519283611bea565b808252601f1961160882611c26565b0160005b8181106116d157505060015b8181111561168857826040518091602082016020835281518091526040830190602060408260051b8601019301916000905b82821061165957505050500390f35b919360019193955060206116788192603f198a82030186528851611ab4565b960192019201859493919261164a565b80600052600360205260406000206000198201828111610a2b576116ae6116bf92611f82565b6116b88287611d74565b5284611d74565b506000198114610a2b57600101611618565b6020906116dc611d35565b8282870101520161160c565b3461016e57602036600319011261016e57611701611911565b611709612117565b600c54906117206001600160a01b03831615611c9a565b6001600160a01b031690611735821515611cdf565b600980546001600160a01b031990811684179091551617600c55005b3461016e57602036600319011261016e5760043560105481101561016e5760106000527f1b6847dc741a1b0cd08d278845f9d819d87b734759afb55fe2de5cb82a9ae67201546040516001600160a01b039091168152602090f35b3461016e57600036600319011261016e57600b546040516001600160a01b039091168152602090f35b3461016e57600036600319011261016e57600f546040516001600160a01b039091168152602090f35b3461016e57600036600319011261016e57600e546040516001600160a01b039091168152602090f35b3461016e57604036600319011261016e576118406118fb565b6118486120f5565b600c546001600160a01b0316331480156118e7575b156118945760018060a01b031660005260056020526040600020600435600052602052600060016040822001556001600055600080f35b60405162461bcd60e51b815260206004820152602560248201527f43616c6c6572206973206e6f742074686520676f7665726e616e636520636f6e6044820152641d1c9858dd60da1b6064820152608490fd5b50600f546001600160a01b0316331461185d565b602435906001600160a01b038216820361016e57565b600435906001600160a01b038216820361016e57565b60005b83811061193a5750506000910152565b818101518382015260200161192a565b9060209161196381518092818552858086019101611927565b601f01601f1916010190565b6003111561197957565b634e487b7160e01b600052602160045260246000fd5b6002111561197957565b9080602083519182815201916020808360051b8301019401926000915b8383106119c557505050505090565b9091929394602080600192601f19858203018652885190815181526101c0806119fd858501516101e0878601526101e085019061194a565b936040810151611a0c8161196f565b6040850152606081015160608501526080810151608085015260a081015160a085015260c081015160c085015260e081015160e0850152610100810151610100850152610120810151151561012085015261014081015161014085015261016081015161016085015260ff61018082015116610180850152878060a01b036101a0820151166101a0850152015191611aa38361198f565b0152970193019301919392906119b6565b908151815260e0611aeb611ad96020850151610100602086015261010085019061194a565b60408501518482036040860152611999565b92606081015160608401526080810151608084015260a081015160a084015260c0810151611b188161198f565b60c08401528101516001600160a01b031691015290565b610100809160018060a01b0381511684526020810151602085015260408101516040850152606081015160608501526080810151611b6c8161196f565b608085015260a081015160a085015260c081015160c085015260e081015160e08501520151910152565b61012081019081106001600160401b0382111761067457604052565b6101e081019081106001600160401b0382111761067457604052565b61010081019081106001600160401b0382111761067457604052565b90601f801991011681019081106001600160401b0382111761067457604052565b6001600160401b03811161067457601f01601f191660200190565b6001600160401b0381116106745760051b60200190565b9080601f8301121561016e578135611c5481611c26565b92611c626040519485611bea565b81845260208085019260051b82010192831161016e57602001905b828210611c8a5750505090565b8135815260209182019101611c7d565b15611ca157565b60405162461bcd60e51b815260206004820152601660248201527511dbdd995c9b985b98d948185b1c9958591e481cd95d60521b6044820152606490fd5b15611ce657565b60405162461bcd60e51b815260206004820152602160248201527f476f7665726e616e636520616464726573732063616e6e6f74206265207a65726044820152606f60f81b6064820152608490fd5b60405190611d4282611bce565b600060e08382815260606020820152606060408201528260608201528260808201528260a08201528260c08201520152565b805182101561068a5760209160051b010190565b90600182811c92168015611db8575b6020831014611da257565b634e487b7160e01b600052602260045260246000fd5b91607f1691611d97565b9060405191826000825492611dd684611d88565b8084529360018116908115611e445750600114611dfd575b50611dfb92500383611bea565b565b90506000929192526020600020906000915b818310611e28575050906020611dfb9282010138611dee565b6020919350806001915483858901015201910190918492611e0f565b905060209250611dfb94915060ff191682840152151560051b82010138611dee565b908154611e7281611c26565b92611e806040519485611bea565b818452602084019060005260206000206000915b838310611ea15750505050565b600d6020600192604051611eb481611bb2565b85548152611ec3858701611dc2565b8382015260ff600287015416611ed88161196f565b60408201526003860154606082015260048601546080820152600586015460a0820152600686015460c0820152600786015460e0820152600886015461010082015260ff6009870154161515610120820152600a860154610140820152600b86015461016082015260ff600c870154818116610180840152868060a01b038160081c166101a084015260a81c16611f6e8161198f565b6101c0820152815201920192019190611e94565b90604051611f8f81611bce565b60e06006829480548452611fa560018201611dc2565b6020850152611fb660028201611e66565b60408501526003810154606085015260048101546080850152600581015460a0850152015460ff8116611fe88161198f565b60c084015260081c6001600160a01b0316910152565b6040519061200b82611b96565b6000610100838281528260208201528260408201528260608201528260808201528260a08201528260c08201528260e08201520152565b9060405161204f81611b96565b6101006008829460018060a01b03815416845260018101546020850152600281015460408501526003810154606085015260ff6004820154166120918161196f565b6080850152600581015460a0850152600681015460c0850152600781015460e08501520154910152565b81810292918115918404141715610a2b57565b91908201809211610a2b57565b6040906120f293928152816020820152019061194a565b90565b600260005414612106576002600055565b633ee5aeb560e01b60005260046000fd5b6001546001600160a01b0316330361212b57565b63118cdaa760e01b6000523360045260246000fdfea2646970667358221220456aaca0f2d07ceed9c0ed0da1d1ebb2cc9058129e81d178439f65fc91194fe964736f6c634300081c0033","opcodes":"PUSH1 0x80 CALLVALUE PUSH1 0xD6 JUMPI PUSH1 0x1F PUSH2 0x2268 CODESIZE DUP2 SWAP1 SUB SWAP2 DUP3 ADD PUSH1 0x1F NOT AND DUP4 ADD SWAP2 PUSH1 0x1 PUSH1 0x1 PUSH1 0x40 SHL SUB DUP4 GT DUP5 DUP5 LT OR PUSH1 0xDB JUMPI DUP1 DUP5 SWAP3 PUSH1 0x20 SWAP5 PUSH1 0x40 MSTORE DUP4 CODECOPY DUP2 ADD SUB SLT PUSH1 0xD6 JUMPI MLOAD PUSH1 0x1 PUSH1 0x1 PUSH1 0xA0 SHL SUB DUP2 AND SWAP1 DUP2 SWAP1 SUB PUSH1 0xD6 JUMPI PUSH1 0x1 PUSH1 0x0 SSTORE DUP1 ISZERO PUSH1 0xC0 JUMPI PUSH1 0x1 DUP1 SLOAD PUSH1 0x1 PUSH1 0x1 PUSH1 0xA0 SHL SUB NOT DUP2 AND DUP4 OR SWAP1 SWAP2 SSTORE PUSH1 0x40 MLOAD SWAP2 SWAP1 DUP2 SWAP1 PUSH1 0x1 PUSH1 0x1 PUSH1 0xA0 SHL SUB AND PUSH32 0x8BE0079C531659141344CD1FD0A4F28419497F9722A3DAAFE3B4186F6B6457E0 PUSH1 0x0 DUP1 LOG3 PUSH1 0xF DUP1 SLOAD PUSH1 0x1 PUSH1 0x1 PUSH1 0xA0 SHL SUB NOT AND SWAP2 SWAP1 SWAP2 OR SWAP1 SSTORE PUSH2 0x2176 SWAP1 DUP2 PUSH2 0xF2 DUP3 CODECOPY RETURN JUMPDEST PUSH4 0x1E4FBDF7 PUSH1 0xE0 SHL PUSH1 0x0 MSTORE PUSH1 0x0 PUSH1 0x4 MSTORE PUSH1 0x24 PUSH1 0x0 REVERT JUMPDEST PUSH1 0x0 DUP1 REVERT JUMPDEST PUSH4 0x4E487B71 PUSH1 0xE0 SHL PUSH1 0x0 MSTORE PUSH1 0x41 PUSH1 0x4 MSTORE PUSH1 0x24 PUSH1 0x0 REVERT INVALID PUSH1 0x80 PUSH1 0x40 MSTORE PUSH1 0x4 CALLDATASIZE LT ISZERO PUSH2 0x12 JUMPI PUSH1 0x0 DUP1 REVERT JUMPDEST PUSH1 0x0 CALLDATALOAD PUSH1 0xE0 SHR DUP1 PUSH4 0x1F8BE73C EQ PUSH2 0x1827 JUMPI DUP1 PUSH4 0x248A75B7 EQ PUSH2 0x17FE JUMPI DUP1 PUSH4 0x29BA7BB2 EQ PUSH2 0x17D5 JUMPI DUP1 PUSH4 0x34808EC3 EQ PUSH2 0x17AC JUMPI DUP1 PUSH4 0x35C1D349 EQ PUSH2 0x1751 JUMPI DUP1 PUSH4 0x4437152A EQ PUSH2 0x16E8 JUMPI DUP1 PUSH4 0x44D00F82 EQ PUSH2 0x15CE JUMPI DUP1 PUSH4 0x57656486 EQ PUSH2 0x156F JUMPI DUP1 PUSH4 0x5AA6E675 EQ PUSH2 0x1546 JUMPI DUP1 PUSH4 0x60EBD718 EQ PUSH2 0x1503 JUMPI DUP1 PUSH4 0x626CC0A9 EQ PUSH2 0x1182 JUMPI DUP1 PUSH4 0x715018A6 EQ PUSH2 0x1125 JUMPI DUP1 PUSH4 0x72BAFBDE EQ PUSH2 0xFDE JUMPI DUP1 PUSH4 0x7C366CC6 EQ PUSH2 0xF75 JUMPI DUP1 PUSH4 0x88D52EF7 EQ PUSH2 0xF4C JUMPI DUP1 PUSH4 0x8DA5CB5B EQ PUSH2 0xF23 JUMPI DUP1 PUSH4 0x9403B634 EQ PUSH2 0xED6 JUMPI DUP1 PUSH4 0x96F3A8AD EQ PUSH2 0xE9C JUMPI DUP1 PUSH4 0x996B8A6F EQ PUSH2 0xE73 JUMPI DUP1 PUSH4 0xA7C6A100 EQ PUSH2 0xE55 JUMPI DUP1 PUSH4 0xAB033EA9 EQ PUSH2 0xDDE JUMPI DUP1 PUSH4 0xB30703CD EQ PUSH2 0xDB5 JUMPI DUP1 PUSH4 0xB5D90C28 EQ PUSH2 0xD8C JUMPI DUP1 PUSH4 0xD0006265 EQ PUSH2 0xB6B JUMPI DUP1 PUSH4 0xF2FDE38B EQ PUSH2 0xAE1 JUMPI DUP1 PUSH4 0xF339624B EQ PUSH2 0x173 JUMPI PUSH4 0xF6E80558 EQ PUSH2 0x145 JUMPI PUSH1 0x0 DUP1 REVERT JUMPDEST CALLVALUE PUSH2 0x16E JUMPI PUSH1 0x0 CALLDATASIZE PUSH1 0x3 NOT ADD SLT PUSH2 0x16E JUMPI PUSH1 0x8 SLOAD PUSH1 0x40 MLOAD PUSH1 0x1 PUSH1 0x1 PUSH1 0xA0 SHL SUB SWAP1 SWAP2 AND DUP2 MSTORE PUSH1 0x20 SWAP1 RETURN JUMPDEST PUSH1 0x0 DUP1 REVERT JUMPDEST CALLVALUE PUSH2 0x16E JUMPI PUSH2 0x100 CALLDATASIZE PUSH1 0x3 NOT ADD SLT PUSH2 0x16E JUMPI PUSH1 0x4 CALLDATALOAD PUSH1 0x1 PUSH1 0x1 PUSH1 0x40 SHL SUB DUP2 GT PUSH2 0x16E JUMPI CALLDATASIZE PUSH1 0x23 DUP3 ADD SLT ISZERO PUSH2 0x16E JUMPI DUP1 PUSH1 0x4 ADD CALLDATALOAD PUSH2 0x1AF DUP2 PUSH2 0x1C0B JUMP JUMPDEST SWAP2 PUSH2 0x1BD PUSH1 0x40 MLOAD SWAP4 DUP5 PUSH2 0x1BEA JUMP JUMPDEST DUP2 DUP4 MSTORE CALLDATASIZE PUSH1 0x24 DUP4 DUP4 ADD ADD GT PUSH2 0x16E JUMPI DUP2 PUSH1 0x0 SWAP3 PUSH1 0x24 PUSH1 0x20 SWAP4 ADD DUP4 DUP7 ADD CALLDATACOPY DUP4 ADD ADD MSTORE PUSH1 0x24 CALLDATALOAD PUSH1 0x1 PUSH1 0x1 PUSH1 0x40 SHL SUB DUP2 GT PUSH2 0x16E JUMPI PUSH2 0x1FD SWAP1 CALLDATASIZE SWAP1 PUSH1 0x4 ADD PUSH2 0x1C3D JUMP JUMPDEST PUSH1 0x44 CALLDATALOAD PUSH1 0x1 PUSH1 0x1 PUSH1 0x40 SHL SUB DUP2 GT PUSH2 0x16E JUMPI PUSH2 0x21C SWAP1 CALLDATASIZE SWAP1 PUSH1 0x4 ADD PUSH2 0x1C3D JUMP JUMPDEST SWAP1 PUSH1 0xA4 CALLDATALOAD SWAP3 PUSH1 0xC4 CALLDATALOAD SWAP4 PUSH1 0x2 DUP6 LT ISZERO PUSH2 0x16E JUMPI PUSH1 0xE4 CALLDATALOAD PUSH1 0x1 PUSH1 0x1 PUSH1 0xA0 SHL SUB DUP2 AND DUP1 DUP3 SUB PUSH2 0x16E JUMPI PUSH2 0x24A PUSH2 0x2117 JUMP JUMPDEST DUP5 MLOAD DUP7 MLOAD SUB PUSH2 0xA90 JUMPI PUSH2 0x25C DUP8 PUSH2 0x198F JUMP JUMPDEST DUP7 ISZERO SWAP1 DUP2 ISZERO PUSH2 0xA86 JUMPI JUMPDEST POP ISZERO PUSH2 0xA41 JUMPI PUSH1 0x6 SLOAD SWAP3 PUSH1 0x1 DUP5 ADD DUP1 SWAP5 GT PUSH2 0xA2B JUMPI DUP4 PUSH1 0x6 SSTORE DUP4 PUSH1 0x0 MSTORE PUSH1 0x3 PUSH1 0x20 MSTORE PUSH1 0x40 PUSH1 0x0 KECCAK256 SWAP4 DUP5 SSTORE PUSH1 0x1 DUP5 ADD SWAP1 DUP1 MLOAD SWAP1 PUSH1 0x1 PUSH1 0x1 PUSH1 0x40 SHL SUB DUP3 GT PUSH2 0x674 JUMPI PUSH2 0x2B0 DUP4 SLOAD PUSH2 0x1D88 JUMP JUMPDEST PUSH1 0x1F DUP2 GT PUSH2 0x9E3 JUMPI JUMPDEST POP PUSH1 0x20 SWAP1 PUSH1 0x1F DUP4 GT PUSH1 0x1 EQ PUSH2 0x974 JUMPI PUSH2 0x336 SWAP5 SWAP4 SWAP3 SWAP2 PUSH1 0x0 SWAP2 DUP4 PUSH2 0x969 JUMPI JUMPDEST POP POP DUP2 PUSH1 0x1 SHL SWAP2 PUSH1 0x0 NOT SWAP1 PUSH1 0x3 SHL SHR NOT AND OR SWAP1 SSTORE SWAP5 SWAP2 SWAP5 JUMPDEST PUSH1 0x64 CALLDATALOAD PUSH1 0x3 DUP6 ADD SSTORE PUSH1 0x84 CALLDATALOAD PUSH1 0x4 DUP6 ADD SSTORE PUSH1 0x6 DUP5 ADD PUSH2 0x30D DUP9 PUSH2 0x198F JUMP JUMPDEST DUP1 SLOAD PUSH1 0x1 PUSH1 0x1 PUSH1 0xA8 SHL SUB NOT AND PUSH1 0xFF DUP10 AND OR PUSH1 0x8 SWAP3 SWAP1 SWAP3 SHL PUSH2 0x100 PUSH1 0x1 PUSH1 0xA8 SHL SUB AND SWAP2 SWAP1 SWAP2 OR SWAP1 SSTORE JUMP JUMPDEST PUSH1 0x0 SWAP2 PUSH2 0x16D SWAP4 PUSH1 0x0 SWAP3 PUSH1 0x2 DUP4 ADD SWAP4 JUMPDEST DUP3 MLOAD DUP2 LT ISZERO PUSH2 0x87B JUMPI PUSH1 0x9 SLOAD PUSH1 0x1 PUSH1 0x1 PUSH1 0xA0 SHL SUB AND SWAP6 PUSH1 0x0 PUSH2 0x368 DUP4 DUP7 PUSH2 0x1D74 JUMP JUMPDEST MLOAD PUSH1 0x24 PUSH1 0x40 MLOAD DUP1 SWAP11 DUP2 SWAP4 PUSH4 0x68BCD8D PUSH1 0xE0 SHL DUP4 MSTORE PUSH1 0x4 DUP4 ADD MSTORE GAS STATICCALL SWAP7 DUP8 ISZERO PUSH2 0x86F JUMPI PUSH1 0x0 SWAP8 PUSH2 0x6E5 JUMPI JUMPDEST POP PUSH2 0x1C0 DUP8 ADD SWAP1 DUP11 DUP3 MLOAD PUSH2 0x3A5 DUP2 PUSH2 0x198F JUMP JUMPDEST PUSH2 0x3AE DUP3 PUSH2 0x198F JUMP JUMPDEST PUSH2 0x3B7 DUP2 PUSH2 0x198F JUMP JUMPDEST SUB PUSH2 0x6A0 JUMPI PUSH2 0x3D1 SWAP1 PUSH2 0x3CA DUP5 DUP7 PUSH2 0x1D74 JUMP JUMPDEST MLOAD SWAP1 PUSH2 0x20CE JUMP JUMPDEST SWAP7 PUSH2 0x3DC DUP4 DUP6 PUSH2 0x1D74 JUMP JUMPDEST MLOAD DUP7 SLOAD PUSH1 0x0 MSTORE PUSH1 0x2 PUSH1 0x20 MSTORE PUSH1 0x40 PUSH1 0x0 KECCAK256 PUSH2 0x3F6 DUP6 DUP9 PUSH2 0x1D74 JUMP JUMPDEST MLOAD PUSH1 0x0 MSTORE PUSH1 0x20 MSTORE PUSH1 0x40 PUSH1 0x0 KECCAK256 SSTORE DUP7 SLOAD PUSH9 0x10000000000000000 DUP2 LT ISZERO PUSH2 0x674 JUMPI PUSH1 0x1 DUP2 ADD DUP1 DUP10 SSTORE DUP2 LT ISZERO PUSH2 0x68A JUMPI DUP8 PUSH1 0x0 MSTORE PUSH1 0xD PUSH1 0x20 PUSH1 0x0 KECCAK256 SWAP2 MUL ADD SWAP2 DUP2 MLOAD DUP4 SSTORE PUSH1 0x1 DUP4 ADD PUSH1 0x20 DUP4 ADD MLOAD DUP1 MLOAD SWAP1 PUSH1 0x1 PUSH1 0x1 PUSH1 0x40 SHL SUB DUP3 GT PUSH2 0x674 JUMPI DUP2 SWAP1 PUSH2 0x45D DUP5 SLOAD PUSH2 0x1D88 JUMP JUMPDEST PUSH1 0x1F DUP2 GT PUSH2 0x621 JUMPI JUMPDEST POP PUSH1 0x20 SWAP1 PUSH1 0x1F DUP4 GT PUSH1 0x1 EQ PUSH2 0x5BC JUMPI PUSH1 0x0 SWAP3 PUSH2 0x5B1 JUMPI JUMPDEST POP POP DUP2 PUSH1 0x1 SHL SWAP2 PUSH1 0x0 NOT SWAP1 PUSH1 0x3 SHL SHR NOT AND OR SWAP1 SSTORE JUMPDEST PUSH1 0x2 DUP4 ADD PUSH1 0x40 DUP4 ADD MLOAD PUSH2 0x4A4 DUP2 PUSH2 0x196F JUMP JUMPDEST PUSH2 0x4AD DUP2 PUSH2 0x196F JUMP JUMPDEST DUP2 SLOAD PUSH1 0xFF SWAP2 DUP3 AND PUSH1 0xFF NOT SWAP2 DUP3 AND OR SWAP1 SWAP3 SSTORE PUSH1 0x60 DUP5 ADD MLOAD PUSH1 0x3 DUP7 ADD SSTORE PUSH1 0x80 DUP5 ADD DUP1 MLOAD PUSH1 0x4 DUP8 ADD SSTORE PUSH1 0xA0 DUP6 ADD MLOAD PUSH1 0x5 DUP8 ADD SSTORE PUSH1 0xC0 DUP6 ADD MLOAD PUSH1 0x6 DUP8 ADD SSTORE PUSH1 0xE0 DUP6 ADD MLOAD PUSH1 0x7 DUP8 ADD SSTORE PUSH2 0x100 DUP6 ADD MLOAD PUSH1 0x8 DUP1 DUP9 ADD SWAP2 SWAP1 SWAP2 SSTORE PUSH2 0x120 DUP7 ADD MLOAD PUSH1 0x9 DUP9 ADD DUP1 SLOAD SWAP2 ISZERO ISZERO DUP6 AND SWAP2 SWAP1 SWAP6 AND OR SWAP1 SWAP4 SSTORE PUSH2 0x140 DUP6 ADD MLOAD PUSH1 0xA DUP8 ADD SSTORE PUSH2 0x160 DUP6 ADD MLOAD PUSH1 0xB DUP8 ADD SSTORE PUSH2 0x180 DUP6 ADD MLOAD PUSH1 0xC SWAP1 SWAP7 ADD DUP1 SLOAD PUSH2 0x1A0 SWAP1 SWAP7 ADD MLOAD PUSH1 0x1 PUSH1 0x1 PUSH1 0xA8 SHL SUB NOT SWAP1 SWAP7 AND SWAP7 SWAP1 SWAP3 AND SWAP6 SWAP1 SWAP6 OR SWAP4 SWAP1 SWAP2 SHL PUSH2 0x100 PUSH1 0x1 PUSH1 0xA8 SHL SUB AND SWAP3 SWAP1 SWAP3 OR DUP3 SSTORE MLOAD PUSH2 0x575 DUP2 PUSH2 0x198F JUMP JUMPDEST PUSH2 0x57E DUP2 PUSH2 0x198F JUMP JUMPDEST DUP2 SLOAD PUSH1 0xFF PUSH1 0xA8 SHL NOT AND PUSH1 0xA8 SWAP2 SWAP1 SWAP2 SHL PUSH1 0xFF PUSH1 0xA8 SHL AND OR SWAP1 SSTORE MLOAD DUP8 DUP2 LT PUSH2 0x5A8 JUMPI JUMPDEST POP PUSH1 0x1 ADD PUSH2 0x346 JUMP JUMPDEST SWAP7 POP PUSH1 0x1 PUSH2 0x59F JUMP JUMPDEST ADD MLOAD SWAP1 POP DUP16 DUP1 PUSH2 0x47D JUMP JUMPDEST PUSH1 0x0 DUP6 DUP2 MSTORE DUP3 DUP2 KECCAK256 SWAP4 POP PUSH1 0x1F NOT DUP6 AND SWAP1 JUMPDEST DUP2 DUP2 LT PUSH2 0x609 JUMPI POP SWAP1 DUP5 PUSH1 0x1 SWAP6 SWAP5 SWAP4 SWAP3 LT PUSH2 0x5F0 JUMPI JUMPDEST POP POP POP DUP2 SHL ADD SWAP1 SSTORE PUSH2 0x492 JUMP JUMPDEST ADD MLOAD PUSH1 0x0 NOT PUSH1 0xF8 DUP5 PUSH1 0x3 SHL AND SHR NOT AND SWAP1 SSTORE DUP16 DUP1 DUP1 PUSH2 0x5E3 JUMP JUMPDEST SWAP3 SWAP4 PUSH1 0x20 PUSH1 0x1 DUP2 SWAP3 DUP8 DUP7 ADD MLOAD DUP2 SSTORE ADD SWAP6 ADD SWAP4 ADD PUSH2 0x5CD JUMP JUMPDEST SWAP1 SWAP2 POP DUP4 PUSH1 0x0 MSTORE PUSH1 0x20 PUSH1 0x0 KECCAK256 PUSH1 0x1F DUP5 ADD PUSH1 0x5 SHR DUP2 ADD SWAP2 PUSH1 0x20 DUP6 LT PUSH2 0x66A JUMPI JUMPDEST SWAP1 PUSH1 0x1F DUP6 SWAP5 SWAP4 SWAP3 ADD PUSH1 0x5 SHR ADD SWAP1 JUMPDEST DUP2 DUP2 LT PUSH2 0x65B JUMPI POP PUSH2 0x466 JUMP JUMPDEST PUSH1 0x0 DUP2 SSTORE DUP5 SWAP4 POP PUSH1 0x1 ADD PUSH2 0x64E JUMP JUMPDEST SWAP1 SWAP2 POP DUP2 SWAP1 PUSH2 0x640 JUMP JUMPDEST PUSH4 0x4E487B71 PUSH1 0xE0 SHL PUSH1 0x0 MSTORE PUSH1 0x41 PUSH1 0x4 MSTORE PUSH1 0x24 PUSH1 0x0 REVERT JUMPDEST PUSH4 0x4E487B71 PUSH1 0xE0 SHL PUSH1 0x0 MSTORE PUSH1 0x32 PUSH1 0x4 MSTORE PUSH1 0x24 PUSH1 0x0 REVERT JUMPDEST PUSH1 0x40 MLOAD PUSH3 0x461BCD PUSH1 0xE5 SHL DUP2 MSTORE PUSH1 0x20 PUSH1 0x4 DUP3 ADD MSTORE PUSH1 0x1F PUSH1 0x24 DUP3 ADD MSTORE PUSH32 0x496E636F6D70617469626C65206173736574207479706520696E20706F6F6C00 PUSH1 0x44 DUP3 ADD MSTORE PUSH1 0x64 SWAP1 REVERT JUMPDEST SWAP1 SWAP7 RETURNDATASIZE DUP1 DUP3 DUP5 RETURNDATACOPY PUSH2 0x6F6 DUP2 DUP5 PUSH2 0x1BEA JUMP JUMPDEST DUP3 ADD SWAP2 PUSH1 0x20 DUP2 DUP5 SUB SLT PUSH2 0x86B JUMPI DUP1 MLOAD SWAP1 PUSH1 0x1 PUSH1 0x1 PUSH1 0x40 SHL SUB DUP3 GT PUSH2 0x85F JUMPI ADD PUSH2 0x1E0 DUP2 DUP5 SUB SLT PUSH2 0x86B JUMPI PUSH1 0x40 MLOAD SWAP3 PUSH2 0x72D DUP5 PUSH2 0x1BB2 JUMP JUMPDEST DUP2 MLOAD DUP5 MSTORE PUSH1 0x20 DUP3 ADD MLOAD PUSH1 0x1 PUSH1 0x1 PUSH1 0x40 SHL SUB DUP2 GT PUSH2 0x867 JUMPI DUP3 ADD DUP2 PUSH1 0x1F DUP3 ADD SLT ISZERO PUSH2 0x867 JUMPI DUP1 MLOAD SWAP1 PUSH2 0x75D DUP3 PUSH2 0x1C0B JUMP JUMPDEST SWAP3 PUSH2 0x76B PUSH1 0x40 MLOAD SWAP5 DUP6 PUSH2 0x1BEA JUMP JUMPDEST DUP3 DUP5 MSTORE PUSH1 0x20 DUP4 DUP4 ADD ADD GT PUSH2 0x863 JUMPI SWAP1 PUSH2 0x78A SWAP2 PUSH1 0x20 DUP1 DUP6 ADD SWAP2 ADD PUSH2 0x1927 JUMP JUMPDEST PUSH1 0x20 DUP5 ADD MSTORE PUSH1 0x40 DUP2 ADD MLOAD PUSH1 0x3 DUP2 LT ISZERO PUSH2 0x85F JUMPI PUSH1 0x40 DUP5 ADD MSTORE PUSH1 0x60 DUP2 ADD MLOAD PUSH1 0x60 DUP5 ADD MSTORE PUSH1 0x80 DUP2 ADD MLOAD PUSH1 0x80 DUP5 ADD MSTORE PUSH1 0xA0 DUP2 ADD MLOAD PUSH1 0xA0 DUP5 ADD MSTORE PUSH1 0xC0 DUP2 ADD MLOAD PUSH1 0xC0 DUP5 ADD MSTORE PUSH1 0xE0 DUP2 ADD MLOAD PUSH1 0xE0 DUP5 ADD MSTORE PUSH2 0x100 DUP2 ADD MLOAD PUSH2 0x100 DUP5 ADD MSTORE PUSH2 0x120 DUP2 ADD MLOAD DUP1 ISZERO ISZERO DUP2 SUB PUSH2 0x85F JUMPI PUSH2 0x120 DUP5 ADD MSTORE PUSH2 0x140 DUP2 ADD MLOAD PUSH2 0x140 DUP5 ADD MSTORE PUSH2 0x160 DUP2 ADD MLOAD PUSH2 0x160 DUP5 ADD MSTORE PUSH2 0x180 DUP2 ADD MLOAD PUSH1 0xFF DUP2 AND DUP2 SUB PUSH2 0x85F JUMPI PUSH2 0x180 DUP5 ADD MSTORE PUSH2 0x1A0 DUP2 ADD MLOAD PUSH1 0x1 PUSH1 0x1 PUSH1 0xA0 SHL SUB DUP2 AND DUP2 SUB PUSH2 0x85F JUMPI PUSH2 0x1A0 DUP5 ADD MSTORE PUSH2 0x1C0 ADD MLOAD SWAP1 PUSH1 0x2 DUP3 LT ISZERO PUSH2 0x85C JUMPI POP PUSH2 0x1C0 DUP3 ADD MSTORE SWAP6 DUP11 PUSH2 0x392 JUMP JUMPDEST DUP1 REVERT JUMPDEST DUP3 DUP1 REVERT JUMPDEST DUP5 DUP1 REVERT JUMPDEST DUP4 DUP1 REVERT JUMPDEST POP DUP1 REVERT JUMPDEST PUSH1 0x40 MLOAD RETURNDATASIZE PUSH1 0x0 DUP3 RETURNDATACOPY RETURNDATASIZE SWAP1 REVERT JUMPDEST DUP4 DUP7 DUP10 DUP10 DUP2 LT PUSH2 0x8D8 JUMPI PUSH1 0x5 PUSH1 0x64 SWAP4 ADD SSTORE SUB PUSH2 0x893 JUMPI STOP JUMPDEST PUSH1 0x40 MLOAD PUSH3 0x461BCD PUSH1 0xE5 SHL DUP2 MSTORE PUSH1 0x20 PUSH1 0x4 DUP3 ADD MSTORE PUSH1 0x1B PUSH1 0x24 DUP3 ADD MSTORE PUSH32 0x546F74616C2073706C6974206D75737420657175616C20313030250000000000 PUSH1 0x44 DUP3 ADD MSTORE PUSH1 0x64 SWAP1 REVERT JUMPDEST PUSH1 0x40 MLOAD PUSH3 0x461BCD PUSH1 0xE5 SHL DUP2 MSTORE PUSH1 0x20 PUSH1 0x4 DUP3 ADD MSTORE PUSH1 0x60 PUSH1 0x24 DUP3 ADD MSTORE PUSH32 0x4D696E696D756E20706572696F64206D75737420626520677265617465722074 PUSH1 0x44 DUP3 ADD MSTORE PUSH32 0x68616E206F7220657175616C20746F20746865206D696E696D756D2070657269 PUSH1 0x64 DUP3 ADD MSTORE PUSH32 0x6F64206F6620616C6C20706F6F6C732077697468696E20746865207661756C74 PUSH1 0x84 DUP3 ADD MSTORE PUSH1 0xA4 SWAP1 REVERT JUMPDEST ADD MLOAD SWAP1 POP DUP11 DUP1 PUSH2 0x2D8 JUMP JUMPDEST SWAP1 PUSH1 0x1F NOT DUP4 AND SWAP2 DUP5 PUSH1 0x0 MSTORE DUP2 PUSH1 0x0 KECCAK256 SWAP3 PUSH1 0x0 JUMPDEST DUP2 DUP2 LT PUSH2 0x9CB JUMPI POP SWAP2 PUSH1 0x1 SWAP4 SWAP2 DUP6 PUSH2 0x336 SWAP9 SWAP8 SWAP7 SWAP5 LT PUSH2 0x9B2 JUMPI JUMPDEST POP POP POP DUP2 SHL ADD SWAP1 SSTORE SWAP5 SWAP2 SWAP5 PUSH2 0x2F0 JUMP JUMPDEST ADD MLOAD PUSH1 0x0 NOT PUSH1 0xF8 DUP5 PUSH1 0x3 SHL AND SHR NOT AND SWAP1 SSTORE DUP11 DUP1 DUP1 PUSH2 0x9A2 JUMP JUMPDEST SWAP3 SWAP4 PUSH1 0x20 PUSH1 0x1 DUP2 SWAP3 DUP8 DUP7 ADD MLOAD DUP2 SSTORE ADD SWAP6 ADD SWAP4 ADD PUSH2 0x987 JUMP JUMPDEST DUP4 PUSH1 0x0 MSTORE PUSH1 0x20 PUSH1 0x0 KECCAK256 PUSH1 0x1F DUP5 ADD PUSH1 0x5 SHR DUP2 ADD SWAP2 PUSH1 0x20 DUP6 LT PUSH2 0xA21 JUMPI JUMPDEST PUSH1 0x1F ADD PUSH1 0x5 SHR ADD SWAP1 JUMPDEST DUP2 DUP2 LT PUSH2 0xA15 JUMPI POP PUSH2 0x2B9 JUMP JUMPDEST PUSH1 0x0 DUP2 SSTORE PUSH1 0x1 ADD PUSH2 0xA08 JUMP JUMPDEST SWAP1 SWAP2 POP DUP2 SWAP1 PUSH2 0x9FF JUMP JUMPDEST PUSH4 0x4E487B71 PUSH1 0xE0 SHL PUSH1 0x0 MSTORE PUSH1 0x11 PUSH1 0x4 MSTORE PUSH1 0x24 PUSH1 0x0 REVERT JUMPDEST PUSH1 0x40 MLOAD PUSH3 0x461BCD PUSH1 0xE5 SHL DUP2 MSTORE PUSH1 0x20 PUSH1 0x4 DUP3 ADD MSTORE PUSH1 0x1E PUSH1 0x24 DUP3 ADD MSTORE PUSH32 0x496E76616C696420617373657420666F72206465706F73697420747970650000 PUSH1 0x44 DUP3 ADD MSTORE PUSH1 0x64 SWAP1 REVERT JUMPDEST SWAP1 POP ISZERO ISZERO DUP8 PUSH2 0x266 JUMP JUMPDEST PUSH1 0x40 MLOAD PUSH3 0x461BCD PUSH1 0xE5 SHL DUP2 MSTORE PUSH1 0x20 PUSH1 0x4 DUP3 ADD MSTORE PUSH1 0x23 PUSH1 0x24 DUP3 ADD MSTORE PUSH32 0x4D69736D61746368656420706F6F6C2049447320616E642070657263656E7461 PUSH1 0x44 DUP3 ADD MSTORE PUSH3 0x676573 PUSH1 0xE8 SHL PUSH1 0x64 DUP3 ADD MSTORE PUSH1 0x84 SWAP1 REVERT JUMPDEST CALLVALUE PUSH2 0x16E JUMPI PUSH1 0x20 CALLDATASIZE PUSH1 0x3 NOT ADD SLT PUSH2 0x16E JUMPI PUSH2 0xAFA PUSH2 0x1911 JUMP JUMPDEST PUSH2 0xB02 PUSH2 0x2117 JUMP JUMPDEST PUSH1 0x1 PUSH1 0x1 PUSH1 0xA0 SHL SUB AND DUP1 ISZERO PUSH2 0xB55 JUMPI PUSH1 0x1 DUP1 SLOAD PUSH1 0x1 PUSH1 0x1 PUSH1 0xA0 SHL SUB NOT DUP2 AND DUP4 OR SWAP1 SWAP2 SSTORE PUSH1 0x1 PUSH1 0x1 PUSH1 0xA0 SHL SUB AND PUSH32 0x8BE0079C531659141344CD1FD0A4F28419497F9722A3DAAFE3B4186F6B6457E0 PUSH1 0x0 DUP1 LOG3 STOP JUMPDEST PUSH4 0x1E4FBDF7 PUSH1 0xE0 SHL PUSH1 0x0 MSTORE PUSH1 0x0 PUSH1 0x4 MSTORE PUSH1 0x24 PUSH1 0x0 REVERT JUMPDEST CALLVALUE PUSH2 0x16E JUMPI PUSH1 0x20 CALLDATASIZE PUSH1 0x3 NOT ADD SLT PUSH2 0x16E JUMPI PUSH1 0x4 CALLDATALOAD PUSH2 0xB87 PUSH2 0x20F5 JUMP JUMPDEST CALLER PUSH1 0x0 MSTORE PUSH1 0x5 PUSH1 0x20 MSTORE PUSH1 0x40 PUSH1 0x0 KECCAK256 DUP2 PUSH1 0x0 MSTORE PUSH1 0x20 MSTORE PUSH1 0x40 PUSH1 0x0 KECCAK256 PUSH1 0x1 DUP2 ADD SWAP2 DUP3 SLOAD ISZERO PUSH2 0xD3D JUMPI PUSH1 0x4 DUP3 ADD SWAP2 PUSH1 0xFF DUP4 SLOAD AND PUSH2 0xBC0 DUP2 PUSH2 0x196F JUMP JUMPDEST PUSH2 0xD00 JUMPI PUSH1 0x7 ADD SLOAD TIMESTAMP LT PUSH2 0xCBB JUMPI PUSH1 0x0 MSTORE PUSH1 0x3 PUSH1 0x20 MSTORE PUSH2 0xBE3 PUSH1 0x40 PUSH1 0x0 KECCAK256 PUSH2 0x1F82 JUMP JUMPDEST PUSH1 0x40 DUP2 ADD SWAP3 PUSH1 0x0 JUMPDEST DUP5 MLOAD DUP1 MLOAD DUP3 LT ISZERO PUSH2 0xC6B JUMPI DUP2 PUSH2 0xC00 SWAP2 PUSH2 0x1D74 JUMP JUMPDEST MLOAD MLOAD PUSH1 0x9 SLOAD PUSH1 0x1 PUSH1 0x1 PUSH1 0xA0 SHL SUB AND SWAP2 SWAP1 DUP3 EXTCODESIZE ISZERO PUSH2 0x16E JUMPI PUSH1 0x0 SWAP3 PUSH1 0x64 DUP5 SWAP3 PUSH1 0x40 MLOAD SWAP6 DUP7 SWAP4 DUP5 SWAP3 PUSH4 0x83BC6357 PUSH1 0xE0 SHL DUP5 MSTORE CALLER PUSH1 0x4 DUP6 ADD MSTORE PUSH1 0x24 DUP5 ADD MSTORE PUSH1 0x1 PUSH1 0x44 DUP5 ADD MSTORE GAS CALL SWAP2 DUP3 ISZERO PUSH2 0x86F JUMPI PUSH1 0x1 SWAP3 PUSH2 0xC5A JUMPI JUMPDEST POP ADD PUSH2 0xBEB JUMP JUMPDEST PUSH1 0x0 PUSH2 0xC65 SWAP2 PUSH2 0x1BEA JUMP JUMPDEST DUP7 PUSH2 0xC53 JUMP JUMPDEST DUP5 SLOAD PUSH1 0xFF NOT AND PUSH1 0x1 OR DUP6 SSTORE DUP3 SLOAD PUSH1 0x20 DUP6 ADD MLOAD PUSH1 0x40 MLOAD CALLER SWAP3 PUSH32 0x485F1BB6524C663555797E00171A10F341656E59B02D6B557A0A38BA7D5D9751 SWAP3 DUP3 SWAP2 PUSH2 0xCB1 SWAP2 SWAP1 DUP4 PUSH2 0x20DB JUMP JUMPDEST SUB SWAP1 LOG2 PUSH1 0x1 PUSH1 0x0 SSTORE STOP JUMPDEST PUSH1 0x40 MLOAD PUSH3 0x461BCD PUSH1 0xE5 SHL DUP2 MSTORE PUSH1 0x20 PUSH1 0x4 DUP3 ADD MSTORE PUSH1 0x1C PUSH1 0x24 DUP3 ADD MSTORE PUSH32 0x4465706F73697420706572696F6420686173206E6F7420656E64656400000000 PUSH1 0x44 DUP3 ADD MSTORE PUSH1 0x64 SWAP1 REVERT JUMPDEST PUSH1 0x40 MLOAD PUSH3 0x461BCD PUSH1 0xE5 SHL DUP2 MSTORE PUSH1 0x20 PUSH1 0x4 DUP3 ADD MSTORE PUSH1 0x15 PUSH1 0x24 DUP3 ADD MSTORE PUSH21 0x4465706F736974206973206E6F7420616374697665 PUSH1 0x58 SHL PUSH1 0x44 DUP3 ADD MSTORE PUSH1 0x64 SWAP1 REVERT JUMPDEST PUSH1 0x40 MLOAD PUSH3 0x461BCD PUSH1 0xE5 SHL DUP2 MSTORE PUSH1 0x20 PUSH1 0x4 DUP3 ADD MSTORE PUSH1 0x21 PUSH1 0x24 DUP3 ADD MSTORE PUSH32 0x4E6F206465706F73697420666F756E6420666F72207468697320616464726573 PUSH1 0x44 DUP3 ADD MSTORE PUSH1 0x73 PUSH1 0xF8 SHL PUSH1 0x64 DUP3 ADD MSTORE PUSH1 0x84 SWAP1 REVERT JUMPDEST CALLVALUE PUSH2 0x16E JUMPI PUSH1 0x0 CALLDATASIZE PUSH1 0x3 NOT ADD SLT PUSH2 0x16E JUMPI PUSH1 0xA SLOAD PUSH1 0x40 MLOAD PUSH1 0x1 PUSH1 0x1 PUSH1 0xA0 SHL SUB SWAP1 SWAP2 AND DUP2 MSTORE PUSH1 0x20 SWAP1 RETURN JUMPDEST CALLVALUE PUSH2 0x16E JUMPI PUSH1 0x0 CALLDATASIZE PUSH1 0x3 NOT ADD SLT PUSH2 0x16E JUMPI PUSH1 0x9 SLOAD PUSH1 0x40 MLOAD PUSH1 0x1 PUSH1 0x1 PUSH1 0xA0 SHL SUB SWAP1 SWAP2 AND DUP2 MSTORE PUSH1 0x20 SWAP1 RETURN JUMPDEST CALLVALUE PUSH2 0x16E JUMPI PUSH1 0x20 CALLDATASIZE PUSH1 0x3 NOT ADD SLT PUSH2 0x16E JUMPI PUSH2 0xDF7 PUSH2 0x1911 JUMP JUMPDEST PUSH2 0xDFF PUSH2 0x2117 JUMP JUMPDEST PUSH1 0x7 SLOAD SWAP1 PUSH2 0xE16 PUSH1 0x1 PUSH1 0x1 PUSH1 0xA0 SHL SUB DUP4 AND ISZERO PUSH2 0x1C9A JUMP JUMPDEST PUSH1 0x1 PUSH1 0x1 PUSH1 0xA0 SHL SUB AND SWAP1 DUP2 SWAP1 PUSH2 0xE2D DUP3 ISZERO ISZERO PUSH2 0x1CDF JUMP JUMPDEST PUSH1 0x1 PUSH1 0x1 PUSH1 0x60 SHL SUB PUSH1 0xA0 SHL AND OR PUSH1 0x7 SSTORE PUSH1 0x1 PUSH1 0x1 PUSH1 0x60 SHL SUB PUSH1 0xA0 SHL PUSH1 0xA SLOAD AND OR PUSH1 0xA SSTORE PUSH1 0x0 DUP1 RETURN JUMPDEST CALLVALUE PUSH2 0x16E JUMPI PUSH1 0x0 CALLDATASIZE PUSH1 0x3 NOT ADD SLT PUSH2 0x16E JUMPI PUSH1 0x20 PUSH1 0x6 SLOAD PUSH1 0x40 MLOAD SWAP1 DUP2 MSTORE RETURN JUMPDEST CALLVALUE PUSH2 0x16E JUMPI PUSH1 0x0 CALLDATASIZE PUSH1 0x3 NOT ADD SLT PUSH2 0x16E JUMPI PUSH1 0xD SLOAD PUSH1 0x40 MLOAD PUSH1 0x1 PUSH1 0x1 PUSH1 0xA0 SHL SUB SWAP1 SWAP2 AND DUP2 MSTORE PUSH1 0x20 SWAP1 RETURN JUMPDEST CALLVALUE PUSH2 0x16E JUMPI PUSH1 0x20 CALLDATASIZE PUSH1 0x3 NOT ADD SLT PUSH2 0x16E JUMPI PUSH1 0x1 PUSH1 0x1 PUSH1 0xA0 SHL SUB PUSH2 0xEBD PUSH2 0x1911 JUMP JUMPDEST AND PUSH1 0x0 MSTORE PUSH1 0x11 PUSH1 0x20 MSTORE PUSH1 0x20 PUSH1 0x40 PUSH1 0x0 KECCAK256 SLOAD PUSH1 0x40 MLOAD SWAP1 DUP2 MSTORE RETURN JUMPDEST CALLVALUE PUSH2 0x16E JUMPI PUSH1 0x20 CALLDATASIZE PUSH1 0x3 NOT ADD SLT PUSH2 0x16E JUMPI PUSH2 0xEEF PUSH2 0x1D35 JUMP JUMPDEST POP PUSH1 0x4 CALLDATALOAD PUSH1 0x0 MSTORE PUSH1 0x3 PUSH1 0x20 MSTORE PUSH2 0xF1F PUSH2 0xF0B PUSH1 0x40 PUSH1 0x0 KECCAK256 PUSH2 0x1F82 JUMP JUMPDEST PUSH1 0x40 MLOAD SWAP2 DUP3 SWAP2 PUSH1 0x20 DUP4 MSTORE PUSH1 0x20 DUP4 ADD SWAP1 PUSH2 0x1AB4 JUMP JUMPDEST SUB SWAP1 RETURN JUMPDEST CALLVALUE PUSH2 0x16E JUMPI PUSH1 0x0 CALLDATASIZE PUSH1 0x3 NOT ADD SLT PUSH2 0x16E JUMPI PUSH1 0x1 SLOAD PUSH1 0x40 MLOAD PUSH1 0x1 PUSH1 0x1 PUSH1 0xA0 SHL SUB SWAP1 SWAP2 AND DUP2 MSTORE PUSH1 0x20 SWAP1 RETURN JUMPDEST CALLVALUE PUSH2 0x16E JUMPI PUSH1 0x0 CALLDATASIZE PUSH1 0x3 NOT ADD SLT PUSH2 0x16E JUMPI PUSH1 0xC SLOAD PUSH1 0x40 MLOAD PUSH1 0x1 PUSH1 0x1 PUSH1 0xA0 SHL SUB SWAP1 SWAP2 AND DUP2 MSTORE PUSH1 0x20 SWAP1 RETURN JUMPDEST CALLVALUE PUSH2 0x16E JUMPI PUSH1 0x20 CALLDATASIZE PUSH1 0x3 NOT ADD SLT PUSH2 0x16E JUMPI PUSH2 0xF8E PUSH2 0x1911 JUMP JUMPDEST PUSH2 0xF96 PUSH2 0x2117 JUMP JUMPDEST PUSH1 0xE SLOAD SWAP1 PUSH2 0xFAD PUSH1 0x1 PUSH1 0x1 PUSH1 0xA0 SHL SUB DUP4 AND ISZERO PUSH2 0x1C9A JUMP JUMPDEST PUSH1 0x1 PUSH1 0x1 PUSH1 0xA0 SHL SUB AND SWAP1 PUSH2 0xFC2 DUP3 ISZERO ISZERO PUSH2 0x1CDF JUMP JUMPDEST PUSH1 0x8 DUP1 SLOAD PUSH1 0x1 PUSH1 0x1 PUSH1 0xA0 SHL SUB NOT SWAP1 DUP2 AND DUP5 OR SWAP1 SWAP2 SSTORE AND OR PUSH1 0xE SSTORE STOP JUMPDEST CALLVALUE PUSH2 0x16E JUMPI PUSH1 0x40 CALLDATASIZE PUSH1 0x3 NOT ADD SLT PUSH2 0x16E JUMPI PUSH2 0xFF7 PUSH2 0x18FB JUMP JUMPDEST PUSH1 0x4 CALLDATALOAD PUSH1 0x0 MSTORE PUSH1 0x3 PUSH1 0x20 MSTORE PUSH1 0x40 PUSH2 0x1010 DUP2 PUSH1 0x0 KECCAK256 PUSH2 0x1F82 JUMP JUMPDEST ADD SWAP1 DUP2 MLOAD MLOAD SWAP2 PUSH2 0x101F DUP4 PUSH2 0x1C26 JUMP JUMPDEST SWAP3 PUSH2 0x102D PUSH1 0x40 MLOAD SWAP5 DUP6 PUSH2 0x1BEA JUMP JUMPDEST DUP1 DUP5 MSTORE PUSH2 0x103C PUSH1 0x1F NOT SWAP2 PUSH2 0x1C26 JUMP JUMPDEST ADD PUSH1 0x0 JUMPDEST DUP2 DUP2 LT PUSH2 0x110E JUMPI POP SWAP1 SWAP2 PUSH1 0x1 PUSH1 0x1 PUSH1 0xA0 SHL SUB AND SWAP1 POP PUSH1 0x0 JUMPDEST DUP3 MLOAD SWAP1 DUP2 MLOAD DUP2 LT ISZERO PUSH2 0x10BC JUMPI PUSH2 0x1070 DUP2 PUSH1 0x1 SWAP4 PUSH2 0x1D74 JUMP JUMPDEST MLOAD MLOAD DUP4 PUSH1 0x0 MSTORE PUSH1 0x4 PUSH1 0x20 MSTORE PUSH1 0x40 PUSH1 0x0 KECCAK256 SWAP1 PUSH1 0x0 MSTORE PUSH1 0x20 MSTORE PUSH1 0x40 PUSH1 0x0 KECCAK256 DUP3 PUSH1 0x0 MSTORE PUSH1 0x20 MSTORE PUSH2 0x10A0 PUSH1 0x40 PUSH1 0x0 KECCAK256 PUSH2 0x2042 JUMP JUMPDEST PUSH2 0x10AA DUP3 DUP8 PUSH2 0x1D74 JUMP JUMPDEST MSTORE PUSH2 0x10B5 DUP2 DUP7 PUSH2 0x1D74 JUMP JUMPDEST POP ADD PUSH2 0x1058 JUMP JUMPDEST DUP5 PUSH1 0x40 MLOAD DUP1 SWAP2 PUSH1 0x20 DUP3 ADD PUSH1 0x20 DUP4 MSTORE DUP2 MLOAD DUP1 SWAP2 MSTORE PUSH1 0x20 PUSH1 0x40 DUP5 ADD SWAP3 ADD SWAP1 PUSH1 0x0 JUMPDEST DUP2 DUP2 LT PUSH2 0x10E9 JUMPI POP POP POP SUB SWAP1 RETURN JUMPDEST SWAP2 SWAP4 POP SWAP2 PUSH1 0x20 PUSH2 0x120 DUP3 PUSH2 0x1100 PUSH1 0x1 SWAP5 DUP9 MLOAD PUSH2 0x1B2F JUMP JUMPDEST ADD SWAP5 ADD SWAP2 ADD SWAP2 DUP5 SWAP4 SWAP3 PUSH2 0x10DB JUMP JUMPDEST PUSH1 0x20 SWAP1 PUSH2 0x1119 PUSH2 0x1FFE JUMP JUMPDEST DUP3 DUP3 DUP9 ADD ADD MSTORE ADD PUSH2 0x1040 JUMP JUMPDEST CALLVALUE PUSH2 0x16E JUMPI PUSH1 0x0 CALLDATASIZE PUSH1 0x3 NOT ADD SLT PUSH2 0x16E JUMPI PUSH2 0x113E PUSH2 0x2117 JUMP JUMPDEST PUSH1 0x1 DUP1 SLOAD PUSH1 0x1 PUSH1 0x1 PUSH1 0xA0 SHL SUB NOT DUP2 AND SWAP1 SWAP2 SSTORE PUSH1 0x0 SWAP1 PUSH1 0x1 PUSH1 0x1 PUSH1 0xA0 SHL SUB AND PUSH32 0x8BE0079C531659141344CD1FD0A4F28419497F9722A3DAAFE3B4186F6B6457E0 DUP3 DUP1 LOG3 STOP JUMPDEST PUSH1 0x60 CALLDATASIZE PUSH1 0x3 NOT ADD SLT PUSH2 0x16E JUMPI PUSH1 0x24 CALLDATALOAD PUSH1 0x44 CALLDATALOAD PUSH1 0x4 CALLDATALOAD PUSH2 0x119F PUSH2 0x20F5 JUMP JUMPDEST DUP1 PUSH1 0x0 MSTORE PUSH1 0x3 PUSH1 0x20 MSTORE PUSH2 0x11B5 PUSH1 0x40 PUSH1 0x0 KECCAK256 PUSH2 0x1F82 JUMP JUMPDEST SWAP2 PUSH1 0xA0 DUP4 ADD MLOAD DUP2 LT PUSH2 0x14A6 JUMPI PUSH1 0x40 DUP4 ADD SWAP3 PUSH1 0x0 SWAP3 DUP4 SWAP3 PUSH1 0xE0 DUP4 ADD SWAP3 PUSH1 0xC0 DUP2 ADD SWAP2 SWAP1 DUP6 JUMPDEST DUP10 DUP10 MLOAD DUP1 MLOAD DUP11 LT ISZERO PUSH2 0x1376 JUMPI DUP10 PUSH2 0x11EE SWAP2 PUSH2 0x1D74 JUMP JUMPDEST MLOAD MLOAD DUP7 PUSH1 0x0 MSTORE PUSH1 0x2 PUSH1 0x20 MSTORE PUSH1 0x40 PUSH1 0x0 KECCAK256 DUP2 PUSH1 0x0 MSTORE PUSH1 0x20 MSTORE PUSH1 0x64 PUSH2 0x1223 DUP2 PUSH2 0x121B PUSH1 0x40 PUSH1 0x0 KECCAK256 SLOAD SWAP6 DUP7 PUSH2 0x20BB JUMP JUMPDEST DIV SWAP4 CALLVALUE PUSH2 0x20BB JUMP JUMPDEST DIV SWAP1 DUP7 MLOAD PUSH2 0x1230 DUP2 PUSH2 0x198F JUMP JUMPDEST DUP10 MLOAD PUSH1 0x40 MLOAD PUSH1 0x1 PUSH1 0x1 PUSH1 0xA0 SHL SUB SWAP1 SWAP2 AND SWAP4 PUSH1 0xE0 DUP3 ADD SWAP3 DUP3 DUP5 LT PUSH1 0x1 PUSH1 0x1 PUSH1 0x40 SHL SUB DUP6 GT OR PUSH2 0x674 JUMPI PUSH1 0x40 SWAP6 PUSH1 0xE4 SWAP5 DUP8 MSTORE CALLER DUP5 MSTORE PUSH1 0x20 DUP5 ADD SWAP6 DUP7 MSTORE DUP7 DUP5 ADD SWAP8 DUP9 MSTORE PUSH1 0x60 DUP5 ADD SWAP2 DUP12 DUP4 MSTORE PUSH1 0x80 DUP6 ADD PUSH1 0x1 DUP2 MSTORE PUSH1 0xA0 DUP7 ADD SWAP2 PUSH2 0x128E DUP2 PUSH2 0x198F JUMP JUMPDEST DUP3 MSTORE PUSH1 0xC0 DUP7 ADD SWAP3 DUP4 MSTORE PUSH1 0x9 SLOAD DUP10 MLOAD PUSH4 0x2607B539 PUSH1 0xE0 SHL DUP2 MSTORE SWAP7 MLOAD PUSH1 0x1 PUSH1 0x1 PUSH1 0xA0 SHL SUB SWAP1 DUP2 AND PUSH1 0x4 DUP10 ADD MSTORE SWAP9 MLOAD PUSH1 0x24 DUP9 ADD MSTORE SWAP10 MLOAD PUSH1 0x44 DUP8 ADD MSTORE SWAP3 MLOAD PUSH1 0x64 DUP7 ADD MSTORE SWAP2 MLOAD SWAP4 SWAP8 DUP9 SWAP7 DUP8 SWAP6 SWAP2 AND SWAP3 SWAP1 PUSH2 0x12E2 DUP2 PUSH2 0x198F JUMP JUMPDEST PUSH1 0x84 DUP7 ADD MSTORE MLOAD PUSH2 0x12F1 DUP2 PUSH2 0x198F JUMP JUMPDEST PUSH1 0xA4 DUP6 ADD MSTORE MLOAD PUSH1 0x1 PUSH1 0x1 PUSH1 0xA0 SHL SUB AND PUSH1 0xC4 DUP5 ADD MSTORE GAS CALL SWAP2 DUP3 ISZERO PUSH2 0x86F JUMPI PUSH1 0x0 SWAP2 DUP3 SWAP4 PUSH2 0x1338 JUMPI JUMPDEST POP SWAP1 PUSH2 0x1329 PUSH1 0x1 SWAP4 PUSH2 0x132F SWAP4 PUSH2 0x20CE JUMP JUMPDEST SWAP9 PUSH2 0x20CE JUMP JUMPDEST SWAP8 ADD SWAP7 SWAP6 PUSH2 0x11D8 JUMP JUMPDEST SWAP3 POP SWAP1 PUSH1 0x40 DUP4 RETURNDATASIZE DUP3 GT PUSH2 0x136E JUMPI JUMPDEST DUP2 PUSH2 0x1353 PUSH1 0x40 SWAP4 DUP4 PUSH2 0x1BEA JUMP JUMPDEST DUP2 ADD SUB SLT PUSH2 0x85C JUMPI POP DUP2 MLOAD PUSH1 0x20 SWAP1 SWAP3 ADD MLOAD SWAP2 SWAP1 PUSH2 0x1329 PUSH2 0x1318 JUMP JUMPDEST RETURNDATASIZE SWAP2 POP PUSH2 0x1346 JUMP JUMPDEST POP DUP6 DUP5 DUP10 DUP6 DUP6 PUSH3 0x15180 DUP5 MUL DUP5 DUP2 DIV PUSH3 0x15180 EQ DUP6 ISZERO OR ISZERO PUSH2 0xA2B JUMPI PUSH32 0x6F85D9948D6CA3DD6CE6CE7D175DA22B4E865827AE6FCD530EC7EDAC1240F928 SWAP6 PUSH2 0xCB1 SWAP6 PUSH1 0x20 SWAP6 PUSH2 0x13C7 PUSH1 0x8 SWAP5 TIMESTAMP PUSH2 0x20CE JUMP JUMPDEST SWAP2 PUSH1 0x40 MLOAD SWAP6 PUSH2 0x13D5 DUP8 PUSH2 0x1B96 JUMP JUMPDEST CALLER DUP8 MSTORE DUP9 DUP8 ADD SWAP3 DUP4 MSTORE PUSH1 0x40 DUP8 ADD SWAP1 DUP6 DUP3 MSTORE PUSH1 0x60 DUP9 ADD SWAP1 DUP2 MSTORE PUSH1 0x80 DUP9 ADD SWAP2 PUSH1 0x0 DUP4 MSTORE PUSH1 0xA0 DUP10 ADD SWAP4 DUP5 MSTORE PUSH1 0xC0 DUP10 ADD SWAP5 TIMESTAMP DUP7 MSTORE PUSH1 0xE0 DUP11 ADD SWAP7 DUP8 MSTORE PUSH2 0x100 DUP11 ADD SWAP8 PUSH1 0x0 DUP10 MSTORE CALLER PUSH1 0x0 MSTORE PUSH1 0x5 DUP14 MSTORE PUSH1 0x40 PUSH1 0x0 KECCAK256 SWAP1 PUSH1 0x0 MSTORE DUP13 MSTORE PUSH1 0x40 PUSH1 0x0 KECCAK256 SWAP10 PUSH1 0x1 DUP1 PUSH1 0xA0 SHL SUB SWAP1 MLOAD AND PUSH1 0x1 PUSH1 0x1 PUSH1 0x60 SHL SUB PUSH1 0xA0 SHL DUP12 SLOAD AND OR DUP11 SSTORE MLOAD PUSH1 0x1 DUP11 ADD SSTORE MLOAD PUSH1 0x2 DUP10 ADD SSTORE MLOAD PUSH1 0x3 DUP9 ADD SSTORE PUSH1 0x4 DUP8 ADD SWAP1 MLOAD PUSH2 0x146B DUP2 PUSH2 0x196F JUMP JUMPDEST PUSH2 0x1474 DUP2 PUSH2 0x196F JUMP JUMPDEST PUSH1 0xFF DUP1 NOT DUP4 SLOAD AND SWAP2 AND OR SWAP1 SSTORE MLOAD PUSH1 0x5 DUP7 ADD SSTORE MLOAD PUSH1 0x6 DUP6 ADD SSTORE MLOAD PUSH1 0x7 DUP5 ADD SSTORE MLOAD SWAP2 ADD SSTORE ADD MLOAD PUSH1 0x40 MLOAD SWAP2 DUP3 SWAP2 CALLER SWAP6 DUP4 PUSH2 0x20DB JUMP JUMPDEST PUSH1 0x40 MLOAD PUSH3 0x461BCD PUSH1 0xE5 SHL DUP2 MSTORE PUSH1 0x20 PUSH1 0x4 DUP3 ADD MSTORE PUSH1 0x2F PUSH1 0x24 DUP3 ADD MSTORE PUSH32 0x506572696F642063616E6E6F74206265206C657373207468616E207468652076 PUSH1 0x44 DUP3 ADD MSTORE PUSH15 0x185D5B1D081B5A5B881C195C9A5BD9 PUSH1 0x8A SHL PUSH1 0x64 DUP3 ADD MSTORE PUSH1 0x84 SWAP1 REVERT JUMPDEST CALLVALUE PUSH2 0x16E JUMPI PUSH1 0x20 CALLDATASIZE PUSH1 0x3 NOT ADD SLT PUSH2 0x16E JUMPI PUSH1 0x4 CALLDATALOAD PUSH1 0x0 MSTORE PUSH1 0x3 PUSH1 0x20 MSTORE PUSH2 0xF1F PUSH2 0x1532 PUSH1 0x2 PUSH1 0x40 PUSH1 0x0 KECCAK256 ADD PUSH2 0x1E66 JUMP JUMPDEST PUSH1 0x40 MLOAD SWAP2 DUP3 SWAP2 PUSH1 0x20 DUP4 MSTORE PUSH1 0x20 DUP4 ADD SWAP1 PUSH2 0x1999 JUMP JUMPDEST CALLVALUE PUSH2 0x16E JUMPI PUSH1 0x0 CALLDATASIZE PUSH1 0x3 NOT ADD SLT PUSH2 0x16E JUMPI PUSH1 0x7 SLOAD PUSH1 0x40 MLOAD PUSH1 0x1 PUSH1 0x1 PUSH1 0xA0 SHL SUB SWAP1 SWAP2 AND DUP2 MSTORE PUSH1 0x20 SWAP1 RETURN JUMPDEST CALLVALUE PUSH2 0x16E JUMPI PUSH1 0x40 CALLDATASIZE PUSH1 0x3 NOT ADD SLT PUSH2 0x16E JUMPI PUSH2 0x1588 PUSH2 0x18FB JUMP JUMPDEST PUSH2 0x1590 PUSH2 0x1FFE JUMP JUMPDEST POP PUSH1 0x1 DUP1 PUSH1 0xA0 SHL SUB AND PUSH1 0x0 MSTORE PUSH1 0x5 PUSH1 0x20 MSTORE PUSH1 0x40 PUSH1 0x0 KECCAK256 PUSH1 0x4 CALLDATALOAD PUSH1 0x0 MSTORE PUSH1 0x20 MSTORE PUSH2 0x120 PUSH2 0x15BF PUSH1 0x40 PUSH1 0x0 KECCAK256 PUSH2 0x2042 JUMP JUMPDEST PUSH2 0x15CC PUSH1 0x40 MLOAD DUP1 SWAP3 PUSH2 0x1B2F JUMP JUMPDEST RETURN JUMPDEST CALLVALUE PUSH2 0x16E JUMPI PUSH1 0x0 CALLDATASIZE PUSH1 0x3 NOT ADD SLT PUSH2 0x16E JUMPI PUSH1 0x6 SLOAD PUSH2 0x15EB DUP2 PUSH2 0x1C26 JUMP JUMPDEST SWAP1 PUSH2 0x15F9 PUSH1 0x40 MLOAD SWAP3 DUP4 PUSH2 0x1BEA JUMP JUMPDEST DUP1 DUP3 MSTORE PUSH1 0x1F NOT PUSH2 0x1608 DUP3 PUSH2 0x1C26 JUMP JUMPDEST ADD PUSH1 0x0 JUMPDEST DUP2 DUP2 LT PUSH2 0x16D1 JUMPI POP POP PUSH1 0x1 JUMPDEST DUP2 DUP2 GT ISZERO PUSH2 0x1688 JUMPI DUP3 PUSH1 0x40 MLOAD DUP1 SWAP2 PUSH1 0x20 DUP3 ADD PUSH1 0x20 DUP4 MSTORE DUP2 MLOAD DUP1 SWAP2 MSTORE PUSH1 0x40 DUP4 ADD SWAP1 PUSH1 0x20 PUSH1 0x40 DUP3 PUSH1 0x5 SHL DUP7 ADD ADD SWAP4 ADD SWAP2 PUSH1 0x0 SWAP1 JUMPDEST DUP3 DUP3 LT PUSH2 0x1659 JUMPI POP POP POP POP SUB SWAP1 RETURN JUMPDEST SWAP2 SWAP4 PUSH1 0x1 SWAP2 SWAP4 SWAP6 POP PUSH1 0x20 PUSH2 0x1678 DUP2 SWAP3 PUSH1 0x3F NOT DUP11 DUP3 SUB ADD DUP7 MSTORE DUP9 MLOAD PUSH2 0x1AB4 JUMP JUMPDEST SWAP7 ADD SWAP3 ADD SWAP3 ADD DUP6 SWAP5 SWAP4 SWAP2 SWAP3 PUSH2 0x164A JUMP JUMPDEST DUP1 PUSH1 0x0 MSTORE PUSH1 0x3 PUSH1 0x20 MSTORE PUSH1 0x40 PUSH1 0x0 KECCAK256 PUSH1 0x0 NOT DUP3 ADD DUP3 DUP2 GT PUSH2 0xA2B JUMPI PUSH2 0x16AE PUSH2 0x16BF SWAP3 PUSH2 0x1F82 JUMP JUMPDEST PUSH2 0x16B8 DUP3 DUP8 PUSH2 0x1D74 JUMP JUMPDEST MSTORE DUP5 PUSH2 0x1D74 JUMP JUMPDEST POP PUSH1 0x0 NOT DUP2 EQ PUSH2 0xA2B JUMPI PUSH1 0x1 ADD PUSH2 0x1618 JUMP JUMPDEST PUSH1 0x20 SWAP1 PUSH2 0x16DC PUSH2 0x1D35 JUMP JUMPDEST DUP3 DUP3 DUP8 ADD ADD MSTORE ADD PUSH2 0x160C JUMP JUMPDEST CALLVALUE PUSH2 0x16E JUMPI PUSH1 0x20 CALLDATASIZE PUSH1 0x3 NOT ADD SLT PUSH2 0x16E JUMPI PUSH2 0x1701 PUSH2 0x1911 JUMP JUMPDEST PUSH2 0x1709 PUSH2 0x2117 JUMP JUMPDEST PUSH1 0xC SLOAD SWAP1 PUSH2 0x1720 PUSH1 0x1 PUSH1 0x1 PUSH1 0xA0 SHL SUB DUP4 AND ISZERO PUSH2 0x1C9A JUMP JUMPDEST PUSH1 0x1 PUSH1 0x1 PUSH1 0xA0 SHL SUB AND SWAP1 PUSH2 0x1735 DUP3 ISZERO ISZERO PUSH2 0x1CDF JUMP JUMPDEST PUSH1 0x9 DUP1 SLOAD PUSH1 0x1 PUSH1 0x1 PUSH1 0xA0 SHL SUB NOT SWAP1 DUP2 AND DUP5 OR SWAP1 SWAP2 SSTORE AND OR PUSH1 0xC SSTORE STOP JUMPDEST CALLVALUE PUSH2 0x16E JUMPI PUSH1 0x20 CALLDATASIZE PUSH1 0x3 NOT ADD SLT PUSH2 0x16E JUMPI PUSH1 0x4 CALLDATALOAD PUSH1 0x10 SLOAD DUP2 LT ISZERO PUSH2 0x16E JUMPI PUSH1 0x10 PUSH1 0x0 MSTORE PUSH32 0x1B6847DC741A1B0CD08D278845F9D819D87B734759AFB55FE2DE5CB82A9AE672 ADD SLOAD PUSH1 0x40 MLOAD PUSH1 0x1 PUSH1 0x1 PUSH1 0xA0 SHL SUB SWAP1 SWAP2 AND DUP2 MSTORE PUSH1 0x20 SWAP1 RETURN JUMPDEST CALLVALUE PUSH2 0x16E JUMPI PUSH1 0x0 CALLDATASIZE PUSH1 0x3 NOT ADD SLT PUSH2 0x16E JUMPI PUSH1 0xB SLOAD PUSH1 0x40 MLOAD PUSH1 0x1 PUSH1 0x1 PUSH1 0xA0 SHL SUB SWAP1 SWAP2 AND DUP2 MSTORE PUSH1 0x20 SWAP1 RETURN JUMPDEST CALLVALUE PUSH2 0x16E JUMPI PUSH1 0x0 CALLDATASIZE PUSH1 0x3 NOT ADD SLT PUSH2 0x16E JUMPI PUSH1 0xF SLOAD PUSH1 0x40 MLOAD PUSH1 0x1 PUSH1 0x1 PUSH1 0xA0 SHL SUB SWAP1 SWAP2 AND DUP2 MSTORE PUSH1 0x20 SWAP1 RETURN JUMPDEST CALLVALUE PUSH2 0x16E JUMPI PUSH1 0x0 CALLDATASIZE PUSH1 0x3 NOT ADD SLT PUSH2 0x16E JUMPI PUSH1 0xE SLOAD PUSH1 0x40 MLOAD PUSH1 0x1 PUSH1 0x1 PUSH1 0xA0 SHL SUB SWAP1 SWAP2 AND DUP2 MSTORE PUSH1 0x20 SWAP1 RETURN JUMPDEST CALLVALUE PUSH2 0x16E JUMPI PUSH1 0x40 CALLDATASIZE PUSH1 0x3 NOT ADD SLT PUSH2 0x16E JUMPI PUSH2 0x1840 PUSH2 0x18FB JUMP JUMPDEST PUSH2 0x1848 PUSH2 0x20F5 JUMP JUMPDEST PUSH1 0xC SLOAD PUSH1 0x1 PUSH1 0x1 PUSH1 0xA0 SHL SUB AND CALLER EQ DUP1 ISZERO PUSH2 0x18E7 JUMPI JUMPDEST ISZERO PUSH2 0x1894 JUMPI PUSH1 0x1 DUP1 PUSH1 0xA0 SHL SUB AND PUSH1 0x0 MSTORE PUSH1 0x5 PUSH1 0x20 MSTORE PUSH1 0x40 PUSH1 0x0 KECCAK256 PUSH1 0x4 CALLDATALOAD PUSH1 0x0 MSTORE PUSH1 0x20 MSTORE PUSH1 0x0 PUSH1 0x1 PUSH1 0x40 DUP3 KECCAK256 ADD SSTORE PUSH1 0x1 PUSH1 0x0 SSTORE PUSH1 0x0 DUP1 RETURN JUMPDEST PUSH1 0x40 MLOAD PUSH3 0x461BCD PUSH1 0xE5 SHL DUP2 MSTORE PUSH1 0x20 PUSH1 0x4 DUP3 ADD MSTORE PUSH1 0x25 PUSH1 0x24 DUP3 ADD MSTORE PUSH32 0x43616C6C6572206973206E6F742074686520676F7665726E616E636520636F6E PUSH1 0x44 DUP3 ADD MSTORE PUSH5 0x1D1C9858DD PUSH1 0xDA SHL PUSH1 0x64 DUP3 ADD MSTORE PUSH1 0x84 SWAP1 REVERT JUMPDEST POP PUSH1 0xF SLOAD PUSH1 0x1 PUSH1 0x1 PUSH1 0xA0 SHL SUB AND CALLER EQ PUSH2 0x185D JUMP JUMPDEST PUSH1 0x24 CALLDATALOAD SWAP1 PUSH1 0x1 PUSH1 0x1 PUSH1 0xA0 SHL SUB DUP3 AND DUP3 SUB PUSH2 0x16E JUMPI JUMP JUMPDEST PUSH1 0x4 CALLDATALOAD SWAP1 PUSH1 0x1 PUSH1 0x1 PUSH1 0xA0 SHL SUB DUP3 AND DUP3 SUB PUSH2 0x16E JUMPI JUMP JUMPDEST PUSH1 0x0 JUMPDEST DUP4 DUP2 LT PUSH2 0x193A JUMPI POP POP PUSH1 0x0 SWAP2 ADD MSTORE JUMP JUMPDEST DUP2 DUP2 ADD MLOAD DUP4 DUP3 ADD MSTORE PUSH1 0x20 ADD PUSH2 0x192A JUMP JUMPDEST SWAP1 PUSH1 0x20 SWAP2 PUSH2 0x1963 DUP2 MLOAD DUP1 SWAP3 DUP2 DUP6 MSTORE DUP6 DUP1 DUP7 ADD SWAP2 ADD PUSH2 0x1927 JUMP JUMPDEST PUSH1 0x1F ADD PUSH1 0x1F NOT AND ADD ADD SWAP1 JUMP JUMPDEST PUSH1 0x3 GT ISZERO PUSH2 0x1979 JUMPI JUMP JUMPDEST PUSH4 0x4E487B71 PUSH1 0xE0 SHL PUSH1 0x0 MSTORE PUSH1 0x21 PUSH1 0x4 MSTORE PUSH1 0x24 PUSH1 0x0 REVERT JUMPDEST PUSH1 0x2 GT ISZERO PUSH2 0x1979 JUMPI JUMP JUMPDEST SWAP1 DUP1 PUSH1 0x20 DUP4 MLOAD SWAP2 DUP3 DUP2 MSTORE ADD SWAP2 PUSH1 0x20 DUP1 DUP4 PUSH1 0x5 SHL DUP4 ADD ADD SWAP5 ADD SWAP3 PUSH1 0x0 SWAP2 JUMPDEST DUP4 DUP4 LT PUSH2 0x19C5 JUMPI POP POP POP POP POP SWAP1 JUMP JUMPDEST SWAP1 SWAP2 SWAP3 SWAP4 SWAP5 PUSH1 0x20 DUP1 PUSH1 0x1 SWAP3 PUSH1 0x1F NOT DUP6 DUP3 SUB ADD DUP7 MSTORE DUP9 MLOAD SWAP1 DUP2 MLOAD DUP2 MSTORE PUSH2 0x1C0 DUP1 PUSH2 0x19FD DUP6 DUP6 ADD MLOAD PUSH2 0x1E0 DUP8 DUP7 ADD MSTORE PUSH2 0x1E0 DUP6 ADD SWAP1 PUSH2 0x194A JUMP JUMPDEST SWAP4 PUSH1 0x40 DUP2 ADD MLOAD PUSH2 0x1A0C DUP2 PUSH2 0x196F JUMP JUMPDEST PUSH1 0x40 DUP6 ADD MSTORE PUSH1 0x60 DUP2 ADD MLOAD PUSH1 0x60 DUP6 ADD MSTORE PUSH1 0x80 DUP2 ADD MLOAD PUSH1 0x80 DUP6 ADD MSTORE PUSH1 0xA0 DUP2 ADD MLOAD PUSH1 0xA0 DUP6 ADD MSTORE PUSH1 0xC0 DUP2 ADD MLOAD PUSH1 0xC0 DUP6 ADD MSTORE PUSH1 0xE0 DUP2 ADD MLOAD PUSH1 0xE0 DUP6 ADD MSTORE PUSH2 0x100 DUP2 ADD MLOAD PUSH2 0x100 DUP6 ADD MSTORE PUSH2 0x120 DUP2 ADD MLOAD ISZERO ISZERO PUSH2 0x120 DUP6 ADD MSTORE PUSH2 0x140 DUP2 ADD MLOAD PUSH2 0x140 DUP6 ADD MSTORE PUSH2 0x160 DUP2 ADD MLOAD PUSH2 0x160 DUP6 ADD MSTORE PUSH1 0xFF PUSH2 0x180 DUP3 ADD MLOAD AND PUSH2 0x180 DUP6 ADD MSTORE DUP8 DUP1 PUSH1 0xA0 SHL SUB PUSH2 0x1A0 DUP3 ADD MLOAD AND PUSH2 0x1A0 DUP6 ADD MSTORE ADD MLOAD SWAP2 PUSH2 0x1AA3 DUP4 PUSH2 0x198F JUMP JUMPDEST ADD MSTORE SWAP8 ADD SWAP4 ADD SWAP4 ADD SWAP2 SWAP4 SWAP3 SWAP1 PUSH2 0x19B6 JUMP JUMPDEST SWAP1 DUP2 MLOAD DUP2 MSTORE PUSH1 0xE0 PUSH2 0x1AEB PUSH2 0x1AD9 PUSH1 0x20 DUP6 ADD MLOAD PUSH2 0x100 PUSH1 0x20 DUP7 ADD MSTORE PUSH2 0x100 DUP6 ADD SWAP1 PUSH2 0x194A JUMP JUMPDEST PUSH1 0x40 DUP6 ADD MLOAD DUP5 DUP3 SUB PUSH1 0x40 DUP7 ADD MSTORE PUSH2 0x1999 JUMP JUMPDEST SWAP3 PUSH1 0x60 DUP2 ADD MLOAD PUSH1 0x60 DUP5 ADD MSTORE PUSH1 0x80 DUP2 ADD MLOAD PUSH1 0x80 DUP5 ADD MSTORE PUSH1 0xA0 DUP2 ADD MLOAD PUSH1 0xA0 DUP5 ADD MSTORE PUSH1 0xC0 DUP2 ADD MLOAD PUSH2 0x1B18 DUP2 PUSH2 0x198F JUMP JUMPDEST PUSH1 0xC0 DUP5 ADD MSTORE DUP2 ADD MLOAD PUSH1 0x1 PUSH1 0x1 PUSH1 0xA0 SHL SUB AND SWAP2 ADD MSTORE SWAP1 JUMP JUMPDEST PUSH2 0x100 DUP1 SWAP2 PUSH1 0x1 DUP1 PUSH1 0xA0 SHL SUB DUP2 MLOAD AND DUP5 MSTORE PUSH1 0x20 DUP2 ADD MLOAD PUSH1 0x20 DUP6 ADD MSTORE PUSH1 0x40 DUP2 ADD MLOAD PUSH1 0x40 DUP6 ADD MSTORE PUSH1 0x60 DUP2 ADD MLOAD PUSH1 0x60 DUP6 ADD MSTORE PUSH1 0x80 DUP2 ADD MLOAD PUSH2 0x1B6C DUP2 PUSH2 0x196F JUMP JUMPDEST PUSH1 0x80 DUP6 ADD MSTORE PUSH1 0xA0 DUP2 ADD MLOAD PUSH1 0xA0 DUP6 ADD MSTORE PUSH1 0xC0 DUP2 ADD MLOAD PUSH1 0xC0 DUP6 ADD MSTORE PUSH1 0xE0 DUP2 ADD MLOAD PUSH1 0xE0 DUP6 ADD MSTORE ADD MLOAD SWAP2 ADD MSTORE JUMP JUMPDEST PUSH2 0x120 DUP2 ADD SWAP1 DUP2 LT PUSH1 0x1 PUSH1 0x1 PUSH1 0x40 SHL SUB DUP3 GT OR PUSH2 0x674 JUMPI PUSH1 0x40 MSTORE JUMP JUMPDEST PUSH2 0x1E0 DUP2 ADD SWAP1 DUP2 LT PUSH1 0x1 PUSH1 0x1 PUSH1 0x40 SHL SUB DUP3 GT OR PUSH2 0x674 JUMPI PUSH1 0x40 MSTORE JUMP JUMPDEST PUSH2 0x100 DUP2 ADD SWAP1 DUP2 LT PUSH1 0x1 PUSH1 0x1 PUSH1 0x40 SHL SUB DUP3 GT OR PUSH2 0x674 JUMPI PUSH1 0x40 MSTORE JUMP JUMPDEST SWAP1 PUSH1 0x1F DUP1 NOT SWAP2 ADD AND DUP2 ADD SWAP1 DUP2 LT PUSH1 0x1 PUSH1 0x1 PUSH1 0x40 SHL SUB DUP3 GT OR PUSH2 0x674 JUMPI PUSH1 0x40 MSTORE JUMP JUMPDEST PUSH1 0x1 PUSH1 0x1 PUSH1 0x40 SHL SUB DUP2 GT PUSH2 0x674 JUMPI PUSH1 0x1F ADD PUSH1 0x1F NOT AND PUSH1 0x20 ADD SWAP1 JUMP JUMPDEST PUSH1 0x1 PUSH1 0x1 PUSH1 0x40 SHL SUB DUP2 GT PUSH2 0x674 JUMPI PUSH1 0x5 SHL PUSH1 0x20 ADD SWAP1 JUMP JUMPDEST SWAP1 DUP1 PUSH1 0x1F DUP4 ADD SLT ISZERO PUSH2 0x16E JUMPI DUP2 CALLDATALOAD PUSH2 0x1C54 DUP2 PUSH2 0x1C26 JUMP JUMPDEST SWAP3 PUSH2 0x1C62 PUSH1 0x40 MLOAD SWAP5 DUP6 PUSH2 0x1BEA JUMP JUMPDEST DUP2 DUP5 MSTORE PUSH1 0x20 DUP1 DUP6 ADD SWAP3 PUSH1 0x5 SHL DUP3 ADD ADD SWAP3 DUP4 GT PUSH2 0x16E JUMPI PUSH1 0x20 ADD SWAP1 JUMPDEST DUP3 DUP3 LT PUSH2 0x1C8A JUMPI POP POP POP SWAP1 JUMP JUMPDEST DUP2 CALLDATALOAD DUP2 MSTORE PUSH1 0x20 SWAP2 DUP3 ADD SWAP2 ADD PUSH2 0x1C7D JUMP JUMPDEST ISZERO PUSH2 0x1CA1 JUMPI JUMP JUMPDEST PUSH1 0x40 MLOAD PUSH3 0x461BCD PUSH1 0xE5 SHL DUP2 MSTORE PUSH1 0x20 PUSH1 0x4 DUP3 ADD MSTORE PUSH1 0x16 PUSH1 0x24 DUP3 ADD MSTORE PUSH22 0x11DBDD995C9B985B98D948185B1C9958591E481CD95D PUSH1 0x52 SHL PUSH1 0x44 DUP3 ADD MSTORE PUSH1 0x64 SWAP1 REVERT JUMPDEST ISZERO PUSH2 0x1CE6 JUMPI JUMP JUMPDEST PUSH1 0x40 MLOAD PUSH3 0x461BCD PUSH1 0xE5 SHL DUP2 MSTORE PUSH1 0x20 PUSH1 0x4 DUP3 ADD MSTORE PUSH1 0x21 PUSH1 0x24 DUP3 ADD MSTORE PUSH32 0x476F7665726E616E636520616464726573732063616E6E6F74206265207A6572 PUSH1 0x44 DUP3 ADD MSTORE PUSH1 0x6F PUSH1 0xF8 SHL PUSH1 0x64 DUP3 ADD MSTORE PUSH1 0x84 SWAP1 REVERT JUMPDEST PUSH1 0x40 MLOAD SWAP1 PUSH2 0x1D42 DUP3 PUSH2 0x1BCE JUMP JUMPDEST PUSH1 0x0 PUSH1 0xE0 DUP4 DUP3 DUP2 MSTORE PUSH1 0x60 PUSH1 0x20 DUP3 ADD MSTORE PUSH1 0x60 PUSH1 0x40 DUP3 ADD MSTORE DUP3 PUSH1 0x60 DUP3 ADD MSTORE DUP3 PUSH1 0x80 DUP3 ADD MSTORE DUP3 PUSH1 0xA0 DUP3 ADD MSTORE DUP3 PUSH1 0xC0 DUP3 ADD MSTORE ADD MSTORE JUMP JUMPDEST DUP1 MLOAD DUP3 LT ISZERO PUSH2 0x68A JUMPI PUSH1 0x20 SWAP2 PUSH1 0x5 SHL ADD ADD SWAP1 JUMP JUMPDEST SWAP1 PUSH1 0x1 DUP3 DUP2 SHR SWAP3 AND DUP1 ISZERO PUSH2 0x1DB8 JUMPI JUMPDEST PUSH1 0x20 DUP4 LT EQ PUSH2 0x1DA2 JUMPI JUMP JUMPDEST PUSH4 0x4E487B71 PUSH1 0xE0 SHL PUSH1 0x0 MSTORE PUSH1 0x22 PUSH1 0x4 MSTORE PUSH1 0x24 PUSH1 0x0 REVERT JUMPDEST SWAP2 PUSH1 0x7F AND SWAP2 PUSH2 0x1D97 JUMP JUMPDEST SWAP1 PUSH1 0x40 MLOAD SWAP2 DUP3 PUSH1 0x0 DUP3 SLOAD SWAP3 PUSH2 0x1DD6 DUP5 PUSH2 0x1D88 JUMP JUMPDEST DUP1 DUP5 MSTORE SWAP4 PUSH1 0x1 DUP2 AND SWAP1 DUP2 ISZERO PUSH2 0x1E44 JUMPI POP PUSH1 0x1 EQ PUSH2 0x1DFD JUMPI JUMPDEST POP PUSH2 0x1DFB SWAP3 POP SUB DUP4 PUSH2 0x1BEA JUMP JUMPDEST JUMP JUMPDEST SWAP1 POP PUSH1 0x0 SWAP3 SWAP2 SWAP3 MSTORE PUSH1 0x20 PUSH1 0x0 KECCAK256 SWAP1 PUSH1 0x0 SWAP2 JUMPDEST DUP2 DUP4 LT PUSH2 0x1E28 JUMPI POP POP SWAP1 PUSH1 0x20 PUSH2 0x1DFB SWAP3 DUP3 ADD ADD CODESIZE PUSH2 0x1DEE JUMP JUMPDEST PUSH1 0x20 SWAP2 SWAP4 POP DUP1 PUSH1 0x1 SWAP2 SLOAD DUP4 DUP6 DUP10 ADD ADD MSTORE ADD SWAP2 ADD SWAP1 SWAP2 DUP5 SWAP3 PUSH2 0x1E0F JUMP JUMPDEST SWAP1 POP PUSH1 0x20 SWAP3 POP PUSH2 0x1DFB SWAP5 SWAP2 POP PUSH1 0xFF NOT AND DUP3 DUP5 ADD MSTORE ISZERO ISZERO PUSH1 0x5 SHL DUP3 ADD ADD CODESIZE PUSH2 0x1DEE JUMP JUMPDEST SWAP1 DUP2 SLOAD PUSH2 0x1E72 DUP2 PUSH2 0x1C26 JUMP JUMPDEST SWAP3 PUSH2 0x1E80 PUSH1 0x40 MLOAD SWAP5 DUP6 PUSH2 0x1BEA JUMP JUMPDEST DUP2 DUP5 MSTORE PUSH1 0x20 DUP5 ADD SWAP1 PUSH1 0x0 MSTORE PUSH1 0x20 PUSH1 0x0 KECCAK256 PUSH1 0x0 SWAP2 JUMPDEST DUP4 DUP4 LT PUSH2 0x1EA1 JUMPI POP POP POP POP JUMP JUMPDEST PUSH1 0xD PUSH1 0x20 PUSH1 0x1 SWAP3 PUSH1 0x40 MLOAD PUSH2 0x1EB4 DUP2 PUSH2 0x1BB2 JUMP JUMPDEST DUP6 SLOAD DUP2 MSTORE PUSH2 0x1EC3 DUP6 DUP8 ADD PUSH2 0x1DC2 JUMP JUMPDEST DUP4 DUP3 ADD MSTORE PUSH1 0xFF PUSH1 0x2 DUP8 ADD SLOAD AND PUSH2 0x1ED8 DUP2 PUSH2 0x196F JUMP JUMPDEST PUSH1 0x40 DUP3 ADD MSTORE PUSH1 0x3 DUP7 ADD SLOAD PUSH1 0x60 DUP3 ADD MSTORE PUSH1 0x4 DUP7 ADD SLOAD PUSH1 0x80 DUP3 ADD MSTORE PUSH1 0x5 DUP7 ADD SLOAD PUSH1 0xA0 DUP3 ADD MSTORE PUSH1 0x6 DUP7 ADD SLOAD PUSH1 0xC0 DUP3 ADD MSTORE PUSH1 0x7 DUP7 ADD SLOAD PUSH1 0xE0 DUP3 ADD MSTORE PUSH1 0x8 DUP7 ADD SLOAD PUSH2 0x100 DUP3 ADD MSTORE PUSH1 0xFF PUSH1 0x9 DUP8 ADD SLOAD AND ISZERO ISZERO PUSH2 0x120 DUP3 ADD MSTORE PUSH1 0xA DUP7 ADD SLOAD PUSH2 0x140 DUP3 ADD MSTORE PUSH1 0xB DUP7 ADD SLOAD PUSH2 0x160 DUP3 ADD MSTORE PUSH1 0xFF PUSH1 0xC DUP8 ADD SLOAD DUP2 DUP2 AND PUSH2 0x180 DUP5 ADD MSTORE DUP7 DUP1 PUSH1 0xA0 SHL SUB DUP2 PUSH1 0x8 SHR AND PUSH2 0x1A0 DUP5 ADD MSTORE PUSH1 0xA8 SHR AND PUSH2 0x1F6E DUP2 PUSH2 0x198F JUMP JUMPDEST PUSH2 0x1C0 DUP3 ADD MSTORE DUP2 MSTORE ADD SWAP3 ADD SWAP3 ADD SWAP2 SWAP1 PUSH2 0x1E94 JUMP JUMPDEST SWAP1 PUSH1 0x40 MLOAD PUSH2 0x1F8F DUP2 PUSH2 0x1BCE JUMP JUMPDEST PUSH1 0xE0 PUSH1 0x6 DUP3 SWAP5 DUP1 SLOAD DUP5 MSTORE PUSH2 0x1FA5 PUSH1 0x1 DUP3 ADD PUSH2 0x1DC2 JUMP JUMPDEST PUSH1 0x20 DUP6 ADD MSTORE PUSH2 0x1FB6 PUSH1 0x2 DUP3 ADD PUSH2 0x1E66 JUMP JUMPDEST PUSH1 0x40 DUP6 ADD MSTORE PUSH1 0x3 DUP2 ADD SLOAD PUSH1 0x60 DUP6 ADD MSTORE PUSH1 0x4 DUP2 ADD SLOAD PUSH1 0x80 DUP6 ADD MSTORE PUSH1 0x5 DUP2 ADD SLOAD PUSH1 0xA0 DUP6 ADD MSTORE ADD SLOAD PUSH1 0xFF DUP2 AND PUSH2 0x1FE8 DUP2 PUSH2 0x198F JUMP JUMPDEST PUSH1 0xC0 DUP5 ADD MSTORE PUSH1 0x8 SHR PUSH1 0x1 PUSH1 0x1 PUSH1 0xA0 SHL SUB AND SWAP2 ADD MSTORE JUMP JUMPDEST PUSH1 0x40 MLOAD SWAP1 PUSH2 0x200B DUP3 PUSH2 0x1B96 JUMP JUMPDEST PUSH1 0x0 PUSH2 0x100 DUP4 DUP3 DUP2 MSTORE DUP3 PUSH1 0x20 DUP3 ADD MSTORE DUP3 PUSH1 0x40 DUP3 ADD MSTORE DUP3 PUSH1 0x60 DUP3 ADD MSTORE DUP3 PUSH1 0x80 DUP3 ADD MSTORE DUP3 PUSH1 0xA0 DUP3 ADD MSTORE DUP3 PUSH1 0xC0 DUP3 ADD MSTORE DUP3 PUSH1 0xE0 DUP3 ADD MSTORE ADD MSTORE JUMP JUMPDEST SWAP1 PUSH1 0x40 MLOAD PUSH2 0x204F DUP2 PUSH2 0x1B96 JUMP JUMPDEST PUSH2 0x100 PUSH1 0x8 DUP3 SWAP5 PUSH1 0x1 DUP1 PUSH1 0xA0 SHL SUB DUP2 SLOAD AND DUP5 MSTORE PUSH1 0x1 DUP2 ADD SLOAD PUSH1 0x20 DUP6 ADD MSTORE PUSH1 0x2 DUP2 ADD SLOAD PUSH1 0x40 DUP6 ADD MSTORE PUSH1 0x3 DUP2 ADD SLOAD PUSH1 0x60 DUP6 ADD MSTORE PUSH1 0xFF PUSH1 0x4 DUP3 ADD SLOAD AND PUSH2 0x2091 DUP2 PUSH2 0x196F JUMP JUMPDEST PUSH1 0x80 DUP6 ADD MSTORE PUSH1 0x5 DUP2 ADD SLOAD PUSH1 0xA0 DUP6 ADD MSTORE PUSH1 0x6 DUP2 ADD SLOAD PUSH1 0xC0 DUP6 ADD MSTORE PUSH1 0x7 DUP2 ADD SLOAD PUSH1 0xE0 DUP6 ADD MSTORE ADD SLOAD SWAP2 ADD MSTORE JUMP JUMPDEST DUP2 DUP2 MUL SWAP3 SWAP2 DUP2 ISZERO SWAP2 DUP5 DIV EQ OR ISZERO PUSH2 0xA2B JUMPI JUMP JUMPDEST SWAP2 SWAP1 DUP3 ADD DUP1 SWAP3 GT PUSH2 0xA2B JUMPI JUMP JUMPDEST PUSH1 0x40 SWAP1 PUSH2 0x20F2 SWAP4 SWAP3 DUP2 MSTORE DUP2 PUSH1 0x20 DUP3 ADD MSTORE ADD SWAP1 PUSH2 0x194A JUMP JUMPDEST SWAP1 JUMP JUMPDEST PUSH1 0x2 PUSH1 0x0 SLOAD EQ PUSH2 0x2106 JUMPI PUSH1 0x2 PUSH1 0x0 SSTORE JUMP JUMPDEST PUSH4 0x3EE5AEB5 PUSH1 0xE0 SHL PUSH1 0x0 MSTORE PUSH1 0x4 PUSH1 0x0 REVERT JUMPDEST PUSH1 0x1 SLOAD PUSH1 0x1 PUSH1 0x1 PUSH1 0xA0 SHL SUB AND CALLER SUB PUSH2 0x212B JUMPI JUMP JUMPDEST PUSH4 0x118CDAA7 PUSH1 0xE0 SHL PUSH1 0x0 MSTORE CALLER PUSH1 0x4 MSTORE PUSH1 0x24 PUSH1 0x0 REVERT INVALID LOG2 PUSH5 0x6970667358 0x22 SLT KECCAK256 GASLIMIT PUSH11 0xACA0F2D07CEED9C0ED0DA1 0xD1 0xEB 0xB2 0xCC SWAP1 PC SLT SWAP15 DUP2 0xD1 PUSH25 0x439F65FC91194FE964736F6C634300081C0033000000000000 "},"methodIdentifiers":{"ICoverContract()":"f6e80558","IGovernanceContract()":"b5d90c28","IPoolContract()":"b30703cd","bqBTC()":"34808ec3","bqBTCAddress()":"996b8a6f","coverContract()":"248a75b7","createVault(string,uint256[],uint256[],uint256,uint256,uint256,uint8,address)":"f339624b","getUserVaultDeposit(uint256,address)":"57656486","getUserVaultPoolDeposits(uint256,address)":"72bafbde","getVault(uint256)":"9403b634","getVaultPools(uint256)":"60ebd718","getVaults()":"44d00f82","governance()":"5aa6e675","initialOwner()":"29ba7bb2","initialVaultWithdraw(uint256)":"d0006265","owner()":"8da5cb5b","participants(uint256)":"35c1d349","participation(address)":"96f3a8ad","poolContract()":"88d52ef7","renounceOwnership()":"715018a6","setCover(address)":"7c366cc6","setGovernance(address)":"ab033ea9","setPool(address)":"4437152a","setUserVaultDepositToZero(uint256,address)":"1f8be73c","transferOwnership(address)":"f2fde38b","vaultCount()":"a7c6a100","vaultDeposit(uint256,uint256,uint256)":"626cc0a9"}}}}}