{
  "_format": "hh-sol-artifact-1",
  "contractName": "InsurancePool",
  "sourceName": "contracts/InsurancePool.sol",
  "abi": [
    {
      "inputs": [
        {
          "internalType": "address",
          "name": "_initialOwner",
          "type": "address"
        },
        {
          "internalType": "address",
          "name": "bq",
          "type": "address"
        }
      ],
      "stateMutability": "nonpayable",
      "type": "constructor"
    },
    {
      "inputs": [
        {
          "internalType": "address",
          "name": "owner",
          "type": "address"
        }
      ],
      "name": "OwnableInvalidOwner",
      "type": "error"
    },
    {
      "inputs": [
        {
          "internalType": "address",
          "name": "account",
          "type": "address"
        }
      ],
      "name": "OwnableUnauthorizedAccount",
      "type": "error"
    },
    {
      "inputs": [],
      "name": "ReentrancyGuardReentrantCall",
      "type": "error"
    },
    {
      "anonymous": false,
      "inputs": [
        {
          "indexed": false,
          "internalType": "uint256",
          "name": "",
          "type": "uint256"
        },
        {
          "indexed": false,
          "internalType": "uint256",
          "name": "",
          "type": "uint256"
        },
        {
          "indexed": false,
          "internalType": "address",
          "name": "",
          "type": "address"
        }
      ],
      "name": "ClaimAttempt",
      "type": "event"
    },
    {
      "anonymous": false,
      "inputs": [
        {
          "indexed": true,
          "internalType": "address",
          "name": "recipient",
          "type": "address"
        },
        {
          "indexed": false,
          "internalType": "string",
          "name": "pool",
          "type": "string"
        },
        {
          "indexed": false,
          "internalType": "uint256",
          "name": "amount",
          "type": "uint256"
        }
      ],
      "name": "ClaimPaid",
      "type": "event"
    },
    {
      "anonymous": false,
      "inputs": [
        {
          "indexed": true,
          "internalType": "address",
          "name": "user",
          "type": "address"
        },
        {
          "indexed": false,
          "internalType": "uint256",
          "name": "amount",
          "type": "uint256"
        },
        {
          "indexed": false,
          "internalType": "string",
          "name": "pool",
          "type": "string"
        }
      ],
      "name": "Deposited",
      "type": "event"
    },
    {
      "anonymous": false,
      "inputs": [
        {
          "indexed": true,
          "internalType": "address",
          "name": "previousOwner",
          "type": "address"
        },
        {
          "indexed": true,
          "internalType": "address",
          "name": "newOwner",
          "type": "address"
        }
      ],
      "name": "OwnershipTransferred",
      "type": "event"
    },
    {
      "anonymous": false,
      "inputs": [
        {
          "indexed": true,
          "internalType": "uint256",
          "name": "id",
          "type": "uint256"
        },
        {
          "indexed": false,
          "internalType": "string",
          "name": "poolName",
          "type": "string"
        }
      ],
      "name": "PoolCreated",
      "type": "event"
    },
    {
      "anonymous": false,
      "inputs": [
        {
          "indexed": true,
          "internalType": "uint256",
          "name": "poolId",
          "type": "uint256"
        },
        {
          "indexed": false,
          "internalType": "uint256",
          "name": "apy",
          "type": "uint256"
        },
        {
          "indexed": false,
          "internalType": "uint256",
          "name": "_minPeriod",
          "type": "uint256"
        }
      ],
      "name": "PoolUpdated",
      "type": "event"
    },
    {
      "anonymous": false,
      "inputs": [
        {
          "indexed": true,
          "internalType": "address",
          "name": "user",
          "type": "address"
        },
        {
          "indexed": false,
          "internalType": "uint256",
          "name": "amount",
          "type": "uint256"
        },
        {
          "indexed": false,
          "internalType": "string",
          "name": "pool",
          "type": "string"
        }
      ],
      "name": "Withdraw",
      "type": "event"
    },
    {
      "inputs": [],
      "name": "ICoverContract",
      "outputs": [
        {
          "internalType": "contract ICover",
          "name": "",
          "type": "address"
        }
      ],
      "stateMutability": "view",
      "type": "function"
    },
    {
      "inputs": [],
      "name": "IGovernanceContract",
      "outputs": [
        {
          "internalType": "contract IGov",
          "name": "",
          "type": "address"
        }
      ],
      "stateMutability": "view",
      "type": "function"
    },
    {
      "inputs": [],
      "name": "IVaultContract",
      "outputs": [
        {
          "internalType": "contract IVault",
          "name": "",
          "type": "address"
        }
      ],
      "stateMutability": "view",
      "type": "function"
    },
    {
      "inputs": [
        {
          "internalType": "uint256",
          "name": "_poolId",
          "type": "uint256"
        },
        {
          "components": [
            {
              "internalType": "uint256",
              "name": "id",
              "type": "uint256"
            },
            {
              "internalType": "string",
              "name": "coverName",
              "type": "string"
            },
            {
              "internalType": "enum CoverLib.RiskType",
              "name": "riskType",
              "type": "uint8"
            },
            {
              "internalType": "string",
              "name": "chains",
              "type": "string"
            },
            {
              "internalType": "uint256",
              "name": "capacity",
              "type": "uint256"
            },
            {
              "internalType": "uint256",
              "name": "capacityAmount",
              "type": "uint256"
            },
            {
              "internalType": "uint256",
              "name": "coverValues",
              "type": "uint256"
            },
            {
              "internalType": "uint256",
              "name": "maxAmount",
              "type": "uint256"
            },
            {
              "internalType": "uint256",
              "name": "poolId",
              "type": "uint256"
            },
            {
              "internalType": "string",
              "name": "CID",
              "type": "string"
            },
            {
              "internalType": "enum CoverLib.AssetDepositType",
              "name": "adt",
              "type": "uint8"
            },
            {
              "internalType": "address",
              "name": "asset",
              "type": "address"
            }
          ],
          "internalType": "struct CoverLib.Cover",
          "name": "_cover",
          "type": "tuple"
        }
      ],
      "name": "addPoolCover",
      "outputs": [],
      "stateMutability": "nonpayable",
      "type": "function"
    },
    {
      "inputs": [],
      "name": "bqBTC",
      "outputs": [
        {
          "internalType": "contract IbqBTC",
          "name": "",
          "type": "address"
        }
      ],
      "stateMutability": "view",
      "type": "function"
    },
    {
      "inputs": [],
      "name": "bqBTCAddress",
      "outputs": [
        {
          "internalType": "address",
          "name": "",
          "type": "address"
        }
      ],
      "stateMutability": "view",
      "type": "function"
    },
    {
      "inputs": [],
      "name": "coverContract",
      "outputs": [
        {
          "internalType": "address",
          "name": "",
          "type": "address"
        }
      ],
      "stateMutability": "view",
      "type": "function"
    },
    {
      "inputs": [
        {
          "components": [
            {
              "internalType": "uint256",
              "name": "poolId",
              "type": "uint256"
            },
            {
              "internalType": "enum CoverLib.RiskType",
              "name": "riskType",
              "type": "uint8"
            },
            {
              "internalType": "string",
              "name": "poolName",
              "type": "string"
            },
            {
              "internalType": "uint256",
              "name": "apy",
              "type": "uint256"
            },
            {
              "internalType": "uint256",
              "name": "minPeriod",
              "type": "uint256"
            },
            {
              "internalType": "uint8",
              "name": "leverage",
              "type": "uint8"
            },
            {
              "internalType": "uint256",
              "name": "investmentArm",
              "type": "uint256"
            },
            {
              "internalType": "enum CoverLib.AssetDepositType",
              "name": "adt",
              "type": "uint8"
            },
            {
              "internalType": "address",
              "name": "asset",
              "type": "address"
            }
          ],
          "internalType": "struct CoverLib.PoolParams",
          "name": "params",
          "type": "tuple"
        }
      ],
      "name": "createPool",
      "outputs": [],
      "stateMutability": "nonpayable",
      "type": "function"
    },
    {
      "inputs": [
        {
          "internalType": "uint256",
          "name": "_poolId",
          "type": "uint256"
        }
      ],
      "name": "deactivatePool",
      "outputs": [],
      "stateMutability": "nonpayable",
      "type": "function"
    },
    {
      "inputs": [
        {
          "components": [
            {
              "internalType": "address",
              "name": "depositor",
              "type": "address"
            },
            {
              "internalType": "uint256",
              "name": "poolId",
              "type": "uint256"
            },
            {
              "internalType": "uint256",
              "name": "amount",
              "type": "uint256"
            },
            {
              "internalType": "uint256",
              "name": "period",
              "type": "uint256"
            },
            {
              "internalType": "enum CoverLib.DepositType",
              "name": "pdt",
              "type": "uint8"
            },
            {
              "internalType": "enum CoverLib.AssetDepositType",
              "name": "adt",
              "type": "uint8"
            },
            {
              "internalType": "address",
              "name": "asset",
              "type": "address"
            }
          ],
          "internalType": "struct CoverLib.DepositParams",
          "name": "depositParam",
          "type": "tuple"
        }
      ],
      "name": "deposit",
      "outputs": [
        {
          "internalType": "uint256",
          "name": "",
          "type": "uint256"
        },
        {
          "internalType": "uint256",
          "name": "",
          "type": "uint256"
        }
      ],
      "stateMutability": "payable",
      "type": "function"
    },
    {
      "inputs": [
        {
          "internalType": "uint256",
          "name": "_proposalId",
          "type": "uint256"
        },
        {
          "internalType": "address",
          "name": "user",
          "type": "address"
        }
      ],
      "name": "finalizeProposalClaim",
      "outputs": [],
      "stateMutability": "nonpayable",
      "type": "function"
    },
    {
      "inputs": [],
      "name": "getAllParticipants",
      "outputs": [
        {
          "internalType": "address[]",
          "name": "",
          "type": "address[]"
        }
      ],
      "stateMutability": "view",
      "type": "function"
    },
    {
      "inputs": [],
      "name": "getAllPools",
      "outputs": [
        {
          "components": [
            {
              "internalType": "uint256",
              "name": "id",
              "type": "uint256"
            },
            {
              "internalType": "string",
              "name": "poolName",
              "type": "string"
            },
            {
              "internalType": "enum CoverLib.RiskType",
              "name": "riskType",
              "type": "uint8"
            },
            {
              "internalType": "uint256",
              "name": "apy",
              "type": "uint256"
            },
            {
              "internalType": "uint256",
              "name": "minPeriod",
              "type": "uint256"
            },
            {
              "internalType": "uint256",
              "name": "totalUnit",
              "type": "uint256"
            },
            {
              "internalType": "uint256",
              "name": "tvl",
              "type": "uint256"
            },
            {
              "internalType": "uint256",
              "name": "baseValue",
              "type": "uint256"
            },
            {
              "internalType": "uint256",
              "name": "coverUnits",
              "type": "uint256"
            },
            {
              "internalType": "uint256",
              "name": "tcp",
              "type": "uint256"
            },
            {
              "internalType": "bool",
              "name": "isActive",
              "type": "bool"
            },
            {
              "internalType": "uint256",
              "name": "percentageSplitBalance",
              "type": "uint256"
            },
            {
              "internalType": "uint256",
              "name": "investmentArmPercent",
              "type": "uint256"
            },
            {
              "internalType": "uint8",
              "name": "leverage",
              "type": "uint8"
            },
            {
              "internalType": "address",
              "name": "asset",
              "type": "address"
            },
            {
              "internalType": "enum CoverLib.AssetDepositType",
              "name": "assetType",
              "type": "uint8"
            }
          ],
          "internalType": "struct CoverLib.Pool[]",
          "name": "",
          "type": "tuple[]"
        }
      ],
      "stateMutability": "view",
      "type": "function"
    },
    {
      "inputs": [
        {
          "internalType": "uint256",
          "name": "_poolId",
          "type": "uint256"
        }
      ],
      "name": "getPool",
      "outputs": [
        {
          "components": [
            {
              "internalType": "uint256",
              "name": "id",
              "type": "uint256"
            },
            {
              "internalType": "string",
              "name": "poolName",
              "type": "string"
            },
            {
              "internalType": "enum CoverLib.RiskType",
              "name": "riskType",
              "type": "uint8"
            },
            {
              "internalType": "uint256",
              "name": "apy",
              "type": "uint256"
            },
            {
              "internalType": "uint256",
              "name": "minPeriod",
              "type": "uint256"
            },
            {
              "internalType": "uint256",
              "name": "totalUnit",
              "type": "uint256"
            },
            {
              "internalType": "uint256",
              "name": "tvl",
              "type": "uint256"
            },
            {
              "internalType": "uint256",
              "name": "baseValue",
              "type": "uint256"
            },
            {
              "internalType": "uint256",
              "name": "coverUnits",
              "type": "uint256"
            },
            {
              "internalType": "uint256",
              "name": "tcp",
              "type": "uint256"
            },
            {
              "internalType": "bool",
              "name": "isActive",
              "type": "bool"
            },
            {
              "internalType": "uint256",
              "name": "percentageSplitBalance",
              "type": "uint256"
            },
            {
              "internalType": "uint256",
              "name": "investmentArmPercent",
              "type": "uint256"
            },
            {
              "internalType": "uint8",
              "name": "leverage",
              "type": "uint8"
            },
            {
              "internalType": "address",
              "name": "asset",
              "type": "address"
            },
            {
              "internalType": "enum CoverLib.AssetDepositType",
              "name": "assetType",
              "type": "uint8"
            }
          ],
          "internalType": "struct CoverLib.Pool",
          "name": "",
          "type": "tuple"
        }
      ],
      "stateMutability": "view",
      "type": "function"
    },
    {
      "inputs": [
        {
          "internalType": "uint256",
          "name": "_poolId",
          "type": "uint256"
        }
      ],
      "name": "getPoolCovers",
      "outputs": [
        {
          "components": [
            {
              "internalType": "uint256",
              "name": "id",
              "type": "uint256"
            },
            {
              "internalType": "string",
              "name": "coverName",
              "type": "string"
            },
            {
              "internalType": "enum CoverLib.RiskType",
              "name": "riskType",
              "type": "uint8"
            },
            {
              "internalType": "string",
              "name": "chains",
              "type": "string"
            },
            {
              "internalType": "uint256",
              "name": "capacity",
              "type": "uint256"
            },
            {
              "internalType": "uint256",
              "name": "capacityAmount",
              "type": "uint256"
            },
            {
              "internalType": "uint256",
              "name": "coverValues",
              "type": "uint256"
            },
            {
              "internalType": "uint256",
              "name": "maxAmount",
              "type": "uint256"
            },
            {
              "internalType": "uint256",
              "name": "poolId",
              "type": "uint256"
            },
            {
              "internalType": "string",
              "name": "CID",
              "type": "string"
            },
            {
              "internalType": "enum CoverLib.AssetDepositType",
              "name": "adt",
              "type": "uint8"
            },
            {
              "internalType": "address",
              "name": "asset",
              "type": "address"
            }
          ],
          "internalType": "struct CoverLib.Cover[]",
          "name": "",
          "type": "tuple[]"
        }
      ],
      "stateMutability": "view",
      "type": "function"
    },
    {
      "inputs": [
        {
          "internalType": "uint256",
          "name": "_poolId",
          "type": "uint256"
        }
      ],
      "name": "getPoolTVL",
      "outputs": [
        {
          "internalType": "uint256",
          "name": "",
          "type": "uint256"
        }
      ],
      "stateMutability": "view",
      "type": "function"
    },
    {
      "inputs": [
        {
          "internalType": "address",
          "name": "_userAddress",
          "type": "address"
        }
      ],
      "name": "getPoolsByAddress",
      "outputs": [
        {
          "components": [
            {
              "internalType": "string",
              "name": "poolName",
              "type": "string"
            },
            {
              "internalType": "uint256",
              "name": "poolId",
              "type": "uint256"
            },
            {
              "internalType": "uint256",
              "name": "dailyPayout",
              "type": "uint256"
            },
            {
              "internalType": "uint256",
              "name": "depositAmount",
              "type": "uint256"
            },
            {
              "internalType": "uint256",
              "name": "apy",
              "type": "uint256"
            },
            {
              "internalType": "uint256",
              "name": "minPeriod",
              "type": "uint256"
            },
            {
              "internalType": "uint256",
              "name": "totalUnit",
              "type": "uint256"
            },
            {
              "internalType": "uint256",
              "name": "tcp",
              "type": "uint256"
            },
            {
              "internalType": "bool",
              "name": "isActive",
              "type": "bool"
            },
            {
              "internalType": "uint256",
              "name": "accruedPayout",
              "type": "uint256"
            }
          ],
          "internalType": "struct CoverLib.PoolInfo[]",
          "name": "",
          "type": "tuple[]"
        }
      ],
      "stateMutability": "view",
      "type": "function"
    },
    {
      "inputs": [
        {
          "internalType": "uint256",
          "name": "_poolId",
          "type": "uint256"
        },
        {
          "internalType": "address",
          "name": "_user",
          "type": "address"
        },
        {
          "internalType": "enum CoverLib.DepositType",
          "name": "pdt",
          "type": "uint8"
        }
      ],
      "name": "getUserGenericDeposit",
      "outputs": [
        {
          "components": [
            {
              "internalType": "address",
              "name": "lp",
              "type": "address"
            },
            {
              "internalType": "uint256",
              "name": "amount",
              "type": "uint256"
            },
            {
              "internalType": "uint256",
              "name": "poolId",
              "type": "uint256"
            },
            {
              "internalType": "uint256",
              "name": "dailyPayout",
              "type": "uint256"
            },
            {
              "internalType": "enum CoverLib.Status",
              "name": "status",
              "type": "uint8"
            },
            {
              "internalType": "uint256",
              "name": "daysLeft",
              "type": "uint256"
            },
            {
              "internalType": "uint256",
              "name": "startDate",
              "type": "uint256"
            },
            {
              "internalType": "uint256",
              "name": "expiryDate",
              "type": "uint256"
            },
            {
              "internalType": "uint256",
              "name": "accruedPayout",
              "type": "uint256"
            },
            {
              "internalType": "enum CoverLib.DepositType",
              "name": "pdt",
              "type": "uint8"
            },
            {
              "internalType": "enum CoverLib.AssetDepositType",
              "name": "adt",
              "type": "uint8"
            },
            {
              "internalType": "address",
              "name": "asset",
              "type": "address"
            }
          ],
          "internalType": "struct CoverLib.GenericDepositDetails",
          "name": "",
          "type": "tuple"
        }
      ],
      "stateMutability": "view",
      "type": "function"
    },
    {
      "inputs": [
        {
          "internalType": "address",
          "name": "user",
          "type": "address"
        }
      ],
      "name": "getUserParticipation",
      "outputs": [
        {
          "internalType": "uint256",
          "name": "",
          "type": "uint256"
        }
      ],
      "stateMutability": "view",
      "type": "function"
    },
    {
      "inputs": [
        {
          "internalType": "uint256",
          "name": "_poolId",
          "type": "uint256"
        },
        {
          "internalType": "address",
          "name": "_user",
          "type": "address"
        }
      ],
      "name": "getUserPoolDeposit",
      "outputs": [
        {
          "components": [
            {
              "internalType": "address",
              "name": "lp",
              "type": "address"
            },
            {
              "internalType": "uint256",
              "name": "amount",
              "type": "uint256"
            },
            {
              "internalType": "uint256",
              "name": "poolId",
              "type": "uint256"
            },
            {
              "internalType": "uint256",
              "name": "dailyPayout",
              "type": "uint256"
            },
            {
              "internalType": "enum CoverLib.Status",
              "name": "status",
              "type": "uint8"
            },
            {
              "internalType": "uint256",
              "name": "daysLeft",
              "type": "uint256"
            },
            {
              "internalType": "uint256",
              "name": "startDate",
              "type": "uint256"
            },
            {
              "internalType": "uint256",
              "name": "expiryDate",
              "type": "uint256"
            },
            {
              "internalType": "uint256",
              "name": "accruedPayout",
              "type": "uint256"
            },
            {
              "internalType": "enum CoverLib.DepositType",
              "name": "pdt",
              "type": "uint8"
            }
          ],
          "internalType": "struct CoverLib.Deposits",
          "name": "",
          "type": "tuple"
        }
      ],
      "stateMutability": "view",
      "type": "function"
    },
    {
      "inputs": [],
      "name": "governance",
      "outputs": [
        {
          "internalType": "address",
          "name": "",
          "type": "address"
        }
      ],
      "stateMutability": "view",
      "type": "function"
    },
    {
      "inputs": [
        {
          "internalType": "uint256",
          "name": "_poolId",
          "type": "uint256"
        },
        {
          "internalType": "uint256",
          "name": "__poolPercentageSplit",
          "type": "uint256"
        }
      ],
      "name": "increasePercentageSplit",
      "outputs": [],
      "stateMutability": "nonpayable",
      "type": "function"
    },
    {
      "inputs": [],
      "name": "initialOwner",
      "outputs": [
        {
          "internalType": "address",
          "name": "",
          "type": "address"
        }
      ],
      "stateMutability": "view",
      "type": "function"
    },
    {
      "inputs": [],
      "name": "owner",
      "outputs": [
        {
          "internalType": "address",
          "name": "",
          "type": "address"
        }
      ],
      "stateMutability": "view",
      "type": "function"
    },
    {
      "inputs": [
        {
          "internalType": "uint256",
          "name": "",
          "type": "uint256"
        }
      ],
      "name": "participants",
      "outputs": [
        {
          "internalType": "address",
          "name": "",
          "type": "address"
        }
      ],
      "stateMutability": "view",
      "type": "function"
    },
    {
      "inputs": [
        {
          "internalType": "address",
          "name": "",
          "type": "address"
        }
      ],
      "name": "participation",
      "outputs": [
        {
          "internalType": "uint256",
          "name": "",
          "type": "uint256"
        }
      ],
      "stateMutability": "view",
      "type": "function"
    },
    {
      "inputs": [
        {
          "internalType": "uint256",
          "name": "poolId",
          "type": "uint256"
        }
      ],
      "name": "poolActive",
      "outputs": [
        {
          "internalType": "bool",
          "name": "",
          "type": "bool"
        }
      ],
      "stateMutability": "view",
      "type": "function"
    },
    {
      "inputs": [],
      "name": "poolCanister",
      "outputs": [
        {
          "internalType": "address",
          "name": "",
          "type": "address"
        }
      ],
      "stateMutability": "view",
      "type": "function"
    },
    {
      "inputs": [],
      "name": "poolCount",
      "outputs": [
        {
          "internalType": "uint256",
          "name": "",
          "type": "uint256"
        }
      ],
      "stateMutability": "view",
      "type": "function"
    },
    {
      "inputs": [
        {
          "internalType": "uint256",
          "name": "_poolId",
          "type": "uint256"
        }
      ],
      "name": "poolWithdraw",
      "outputs": [],
      "stateMutability": "nonpayable",
      "type": "function"
    },
    {
      "inputs": [
        {
          "internalType": "uint256",
          "name": "",
          "type": "uint256"
        }
      ],
      "name": "pools",
      "outputs": [
        {
          "internalType": "uint256",
          "name": "id",
          "type": "uint256"
        },
        {
          "internalType": "string",
          "name": "poolName",
          "type": "string"
        },
        {
          "internalType": "enum CoverLib.RiskType",
          "name": "riskType",
          "type": "uint8"
        },
        {
          "internalType": "uint256",
          "name": "apy",
          "type": "uint256"
        },
        {
          "internalType": "uint256",
          "name": "minPeriod",
          "type": "uint256"
        },
        {
          "internalType": "uint256",
          "name": "totalUnit",
          "type": "uint256"
        },
        {
          "internalType": "uint256",
          "name": "tvl",
          "type": "uint256"
        },
        {
          "internalType": "uint256",
          "name": "baseValue",
          "type": "uint256"
        },
        {
          "internalType": "uint256",
          "name": "coverUnits",
          "type": "uint256"
        },
        {
          "internalType": "uint256",
          "name": "tcp",
          "type": "uint256"
        },
        {
          "internalType": "bool",
          "name": "isActive",
          "type": "bool"
        },
        {
          "internalType": "uint256",
          "name": "percentageSplitBalance",
          "type": "uint256"
        },
        {
          "internalType": "uint256",
          "name": "investmentArmPercent",
          "type": "uint256"
        },
        {
          "internalType": "uint8",
          "name": "leverage",
          "type": "uint8"
        },
        {
          "internalType": "address",
          "name": "asset",
          "type": "address"
        },
        {
          "internalType": "enum CoverLib.AssetDepositType",
          "name": "assetType",
          "type": "uint8"
        }
      ],
      "stateMutability": "view",
      "type": "function"
    },
    {
      "inputs": [
        {
          "internalType": "uint256",
          "name": "_poolId",
          "type": "uint256"
        },
        {
          "internalType": "uint256",
          "name": "__poolPercentageSplit",
          "type": "uint256"
        }
      ],
      "name": "reducePercentageSplit",
      "outputs": [],
      "stateMutability": "nonpayable",
      "type": "function"
    },
    {
      "inputs": [],
      "name": "renounceOwnership",
      "outputs": [],
      "stateMutability": "nonpayable",
      "type": "function"
    },
    {
      "inputs": [
        {
          "internalType": "address",
          "name": "_coverContract",
          "type": "address"
        }
      ],
      "name": "setCover",
      "outputs": [],
      "stateMutability": "nonpayable",
      "type": "function"
    },
    {
      "inputs": [
        {
          "internalType": "address",
          "name": "_governance",
          "type": "address"
        }
      ],
      "name": "setGovernance",
      "outputs": [],
      "stateMutability": "nonpayable",
      "type": "function"
    },
    {
      "inputs": [
        {
          "internalType": "address",
          "name": "_poolcanister",
          "type": "address"
        }
      ],
      "name": "setPoolCanister",
      "outputs": [],
      "stateMutability": "nonpayable",
      "type": "function"
    },
    {
      "inputs": [
        {
          "internalType": "uint256",
          "name": "poolId",
          "type": "uint256"
        },
        {
          "internalType": "address",
          "name": "user",
          "type": "address"
        },
        {
          "internalType": "enum CoverLib.DepositType",
          "name": "pdt",
          "type": "uint8"
        }
      ],
      "name": "setUserDepositToZero",
      "outputs": [],
      "stateMutability": "nonpayable",
      "type": "function"
    },
    {
      "inputs": [
        {
          "internalType": "address",
          "name": "_vaultContract",
          "type": "address"
        }
      ],
      "name": "setVault",
      "outputs": [],
      "stateMutability": "nonpayable",
      "type": "function"
    },
    {
      "inputs": [
        {
          "internalType": "address",
          "name": "newOwner",
          "type": "address"
        }
      ],
      "name": "transferOwnership",
      "outputs": [],
      "stateMutability": "nonpayable",
      "type": "function"
    },
    {
      "inputs": [
        {
          "internalType": "uint256",
          "name": "_poolId",
          "type": "uint256"
        },
        {
          "internalType": "uint256",
          "name": "_apy",
          "type": "uint256"
        },
        {
          "internalType": "uint256",
          "name": "_minPeriod",
          "type": "uint256"
        }
      ],
      "name": "updatePool",
      "outputs": [],
      "stateMutability": "nonpayable",
      "type": "function"
    },
    {
      "inputs": [
        {
          "internalType": "uint256",
          "name": "_poolId",
          "type": "uint256"
        },
        {
          "components": [
            {
              "internalType": "uint256",
              "name": "id",
              "type": "uint256"
            },
            {
              "internalType": "string",
              "name": "coverName",
              "type": "string"
            },
            {
              "internalType": "enum CoverLib.RiskType",
              "name": "riskType",
              "type": "uint8"
            },
            {
              "internalType": "string",
              "name": "chains",
              "type": "string"
            },
            {
              "internalType": "uint256",
              "name": "capacity",
              "type": "uint256"
            },
            {
              "internalType": "uint256",
              "name": "capacityAmount",
              "type": "uint256"
            },
            {
              "internalType": "uint256",
              "name": "coverValues",
              "type": "uint256"
            },
            {
              "internalType": "uint256",
              "name": "maxAmount",
              "type": "uint256"
            },
            {
              "internalType": "uint256",
              "name": "poolId",
              "type": "uint256"
            },
            {
              "internalType": "string",
              "name": "CID",
              "type": "string"
            },
            {
              "internalType": "enum CoverLib.AssetDepositType",
              "name": "adt",
              "type": "uint8"
            },
            {
              "internalType": "address",
              "name": "asset",
              "type": "address"
            }
          ],
          "internalType": "struct CoverLib.Cover",
          "name": "_cover",
          "type": "tuple"
        }
      ],
      "name": "updatePoolCovers",
      "outputs": [],
      "stateMutability": "nonpayable",
      "type": "function"
    },
    {
      "inputs": [],
      "name": "vaultContract",
      "outputs": [
        {
          "internalType": "address",
          "name": "",
          "type": "address"
        }
      ],
      "stateMutability": "view",
      "type": "function"
    },
    {
      "inputs": [
        {
          "internalType": "address",
          "name": "depositor",
          "type": "address"
        },
        {
          "internalType": "uint256",
          "name": "_poolId",
          "type": "uint256"
        },
        {
          "internalType": "enum CoverLib.DepositType",
          "name": "pdt",
          "type": "uint8"
        }
      ],
      "name": "withdrawUpdate",
      "outputs": [],
      "stateMutability": "nonpayable",
      "type": "function"
    }
  ],
  "bytecode": "0x60803461010d57601f61468238819003918201601f19168301916001600160401b0383118484101761011257808492604094855283398101031261010d57610052602061004b83610128565b9201610128565b60016000556001600160a01b039091169081156100f757600180546001600160a01b031981168417909155604051929081906001600160a01b03167f8be0079c531659141344cd1fd0a4f28419497f9722a3daafe3b4186f6b6457e0600080a3600f80546001600160a01b0319908116929092179055600a805482166001600160a01b03939093169283179055600b80549091169091179055614545908161013d8239f35b631e4fbdf760e01b600052600060045260246000fd5b600080fd5b634e487b7160e01b600052604160045260246000fd5b51906001600160a01b038216820361010d5756fe60e0604052600436101561001257600080fd5b60003560e01c8063068bcd8d14613668578063195ec9ee1461359c5780632274346b14613573578063248a75b71461354a57806325f11e8d146135165780632607b53914612bbf57806329ba7bb214612b96578063318667631461272d57806334808ec31461270457806335c1d349146126c25780633dc66ad3146123c457806346f847951461145b5780634f7210eb146120455780635aa6e6751461201c5780635cfab35c14611c815780635f267c5514611c585780636817031b14611b7b5780636d00696c14611ae05780636f60537d14611ab7578063715018a614611a5a5780637c366cc61461197d5780637eb111f01461184a57806383bc6357146114ed5780638da5cb5b146114c45780638f2446301461149557806396f3a8ad1461145b578063996b8a6f146114325780639abd9b05146113a75780639fd36b151461134c578063a2a8baaf14610eba578063a4948d8514610e5b578063a69ddee614610d72578063ab033ea914610c83578063ac4afa3814610b58578063b5d90c2814610b2f578063c039a53f14610aa0578063d86c044414610941578063d88ff1f41461062b578063e9e0c8b614610359578063f2fde38b146102cf578063f525cb68146102b1578063f6e80558146102885763fee721ed146101f557600080fd5b346102835761020336613a5d565b9060018060a01b03600c54163314801561026f575b61022190613f21565b6000526003602052604060002090815491600160401b831015610259578261025191600161025795018155613f6c565b90613f88565b005b634e487b7160e01b600052604160045260246000fd5b50600f546001600160a01b03163314610218565b600080fd5b34610283576000366003190112610283576007546040516001600160a01b039091168152602090f35b34610283576000366003190112610283576020600554604051908152f35b34610283576020366003190112610283576102e861398a565b6102f06144e6565b6001600160a01b0316801561034357600180546001600160a01b0319811683179091556001600160a01b03167f8be0079c531659141344cd1fd0a4f28419497f9722a3daafe3b4186f6b6457e0600080a3005b631e4fbdf760e01b600052600060045260246000fd5b34610283576040366003190112610283576004356103756139a0565b600061012060405161038681613915565b8281528260208201528260408201528260608201528260808201528260a08201528260c08201528260e082015282610100820152015260018060a01b038116600052600260205260406000208260005260205260406000206000805260205260406000209060405180926103f982613915565b80546001600160a01b03168252600181015460208301908152600282015460408401908152600383015460608501908152600484015492979260808601919060ff16610444816137d8565b825260058501549260a087019384526104d3602060068801549660c08a0197885260ff600960078b01549a60e08d019b8c5261010060088201549d019c8d520154169a6101208d019b610496816137f8565b8c52600754604051630414960560e21b81526001600160a01b03928316600482015260248101939093529193849290911690829081906044820190565b03915afa90811561061f576000916105ea575b50806105da57506105136201518061050b87515b428a518042116105d2575b50613d34565b048351613d21565b87528551428111610586575061014099600085525b604080519a516001600160a01b03168b52905160208b015290519089015251606088015251610556816137d8565b60808701525160a08601525160c08501525160e0840152516101008301525161057e816137f8565b610120820152f35b610591904290613d34565b99620151808b019a8b81116105bc576201517f019a8b116105bc57620151806101409b048552610528565b634e487b7160e01b600052601160045260246000fd5b90508f610505565b6201518061050b610513926104fa565b906020823d602011610617575b8161060460209383613969565b810103126106145750518b6104e6565b80fd5b3d91506105f7565b6040513d6000823e3d90fd5b346102835760003660031901126102835760055461064881613d96565b906106566040519283613969565b808252601f1961066582613d96565b0160005b81811061092a57505060016080525b8060805111156106ea57506040518091602082016020835281518091526040830190602060408260051b8601019301916000905b8282106106bb57505050500390f35b919360019193955060206106da8192603f198a82030186528851613802565b96019201920185949391926106ac565b60805160005260046020526040600020604051610706816138de565b815481526040518061071b8160018601613c0e565b036107269082613969565b60208201908152600283015460ff16906040830191610744816137d8565b825260038401549360608401948552600481015460808501908152600582015460a08601908152600683015460c08701908152600784015460e0880190815260088501549061010089019182526009860154926101208a01938452600a87015460ff16946101408b019515158652600b880154966101608c01978852600c890154986101808d01998a52600d01549a8b9a8d6101a081019c60ff168d526101c0019c8d600160a01b600190038260081c16905260a81c60ff169d6101e0019d8e61080d826137f8565b525160c052519c61081d8e6137d8565b519051915192519351945195519651151597519851995160ff169a600160a01b600190039051169b519c6108508e6137f8565b60405160a05260a051610862906138de565b60805160a0515260c05160a0516020015261087c816137d8565b60a0516040015260a0516060015260a0516080015260a05160a0015260a05160c0015260a05160e0015260a051610100015260a051610120015260a051610140015260a051610160015260a051610180015260a0516101a0015260a0516101c001526108e7816137f8565b60a0516101e0015260805160001981019081116105bc576109169060a05161090f8286613d59565b5283613d59565b50610922608051613d87565b608052610678565b602090610935613c91565b82828701015201610669565b34610283576060366003190112610283576004356024356044356109636144e6565b82600052600460205260ff600a604060002001541615610a50578115610a1d5780156109df577f17b8644f386d1c7c7138ef98b3c8035622bbe94d7be9b26f71d2654a547c29439160409184600052600460205281600384600020015584600052600460205280600484600020015582519182526020820152a2005b60405162461bcd60e51b8152602060048201526016602482015275125b9d985b1a59081b5a5b9a5b5d5b481c195c9a5bd960521b6044820152606490fd5b60405162461bcd60e51b815260206004820152600b60248201526a496e76616c69642041505960a81b6044820152606490fd5b60405162461bcd60e51b815260206004820152602260248201527f506f6f6c20646f6573206e6f74206578697374206f7220697320696e61637469604482015261766560f01b6064820152608490fd5b3461028357610aae36613ba1565b9190610ab86144c4565b600e546001600160a01b031633148015610b1b575b610ad690613e93565b60018060a01b03166000526002602052604060002090600052602052604060002090610b01816137f8565b600052602052600060016040822001556001600055600080f35b50600f546001600160a01b03163314610acd565b34610283576000366003190112610283576009546040516001600160a01b039091168152602090f35b3461028357602036600319011261028357600435600052600460205260406000208054906040519081806001830190610b9091613c0e565b03610b9b9083613969565b600281015460ff16906003810154906004810154906005810154600682015460078301546008840154600985015491600a86015460ff1693600b87015495600c88015497600d0154988960a81c60ff169a6040519e8f9e8f9182526020820161020090526102008201610c0d916137b3565b9d610c17816137d8565b60408201526060015260808d015260a08c015260c08b015260e08a0152610100890152610120880152151561014087015261016086015261018085015260ff81166101a085015260081c6001600160a01b03166101c0840152610c79816137f8565b6101e08301520390f35b3461028357602036600319011261028357610c9c61398a565b610ca46144e6565b600654906001600160a01b038216610d34576001600160a01b0316908115610ce5576001600160a01b03199081168217600655600980549091169091179055005b60405162461bcd60e51b815260206004820152602160248201527f476f7665726e616e636520616464726573732063616e6e6f74206265207a65726044820152606f60f81b6064820152608490fd5b60405162461bcd60e51b815260206004820152601660248201527511dbdd995c9b985b98d948185b1c9958591e481cd95d60521b6044820152606490fd5b3461028357602036600319011261028357610d8b61398a565b610d936144e6565b600e54906001600160a01b038216610e16576001600160a01b0316908115610dc5576001600160a01b03191617600e55005b60405162461bcd60e51b8152602060048201526024808201527f506f6f6c2043616e697374657220616464726573732063616e6e6f74206265206044820152637a65726f60e01b6064820152608490fd5b60405162461bcd60e51b815260206004820152601960248201527f506f6f6c2043616e697374657220616c726561647920736574000000000000006044820152606490fd5b3461028357610e6936613b8b565b9060018060a01b03600c541633148015610ea6575b610e8790613f21565b6000526004602052610ea2600b604060002001918254613d34565b9055005b50600f546001600160a01b03163314610e7e565b3461028357610ec836613ba1565b604051610ed481613931565b600080825260208083018290526040808401839052606084018390526080840183905260a0840183905260c0840183905260e084018390526101008401839052610120840183905261014084018390526101609093018290526001600160a01b03851682526002815282822086835290522090610f50816137f8565b600052602052604060002060405192610f6884613915565b600160a01b600190038254168452600182015492602085019384526002830154926040860193845260038101549060608701918252600481015460ff166080880190610fb3816137d8565b8152600582015460a0890190815260068301549060c08a0191825260078401549260e08b019384526008850154946101008c019586526009015460ff16956101208c0196611000816137f8565b87528860005260046020526040600020976040519861101e8a6138de565b80548a52604051806110338160018501613c0e565b0361103e9082613969565b60208b0152600281015460ff16611054816137d8565b60408b0152600381015460608b0152600481015460808b0152600581015460a08b0152600681015460c08b0152600781015460e08b015260088101546101008b015260098101546101208b0152600a81015460ff1615156101408b0152600b8101546101608b0152600c8101546101808b0152600d01549960ff8b166101a08b01526101c08a019a600160a01b600190038160081c168c5260a81c60ff16996101e00199611101816137f8565b8a52600754604051630414960560e21b81526001600160a01b0393841660048201526024810192909252909116816044815a93602094fa90811561061f5760009161131a575b508061130a57506111736201518061116b86515b4289518042116113025750613d34565b048251613d21565b865284514281116112cc57506101809b600084525b519a519951905191516001600160a01b03909b169a926111a7846137d8565b519351945195519651976111ba896137f8565b51986111c58a6137f8565b516040519b6001600160a01b039091169a906111e08d613931565b8c5260208c0190815260408c0191825260608c0192835260808c0193611205816137d8565b845260a08c0194855260c08c0195865260e08c019687526101008c019788526101208c0198611233816137f8565b89526101408c0199611244816137f8565b8a526101608c019a8b52604080519c516001600160a01b03168d52905160208d01529051908b01525160608a01525161127c816137d8565b60808901525160a08801525160c08701525160e086015251610100850152516112a4816137f8565b610120840152516112b4816137f8565b610140830152516001600160a01b0316610160820152f35b6112d7904290613d34565b9b620151808d019c8d81116105bc576201517f019c8d116105bc57620151806101809d048452611188565b905038610505565b6201518061116b6111739261115b565b906020823d602011611344575b8161133460209383613969565b810103126106145750518d611147565b3d9150611327565b346102835761135a36613b8b565b9060018060a01b03600c541633148015611393575b61137890613f21565b6000526004602052610ea2600b604060002001918254613d07565b50600f546001600160a01b0316331461136f565b34610283576020366003190112610283576004356113c36144e6565b80600052600460205260ff600a6040600020015416156113f8576000908152600460205260409020600a01805460ff19169055005b60405162461bcd60e51b8152602060048201526012602482015271506f6f6c206973206e6f742061637469766560701b6044820152606490fd5b3461028357600036600319011261028357600b546040516001600160a01b039091168152602090f35b34610283576020366003190112610283576001600160a01b0361147c61398a565b1660005260116020526020604060002054604051908152f35b346102835760203660031901126102835760043560005260046020526020600660406000200154604051908152f35b34610283576000366003190112610283576001546040516001600160a01b039091168152602090f35b346102835760603660031901126102835761150661398a565b60243560443560028110156102835761151d6144c4565b600d546001600160a01b031633148015611836575b156117f25781600052600460205260406000209260018060a01b031690816000526002602052604060002083600052602052604060002090611573816137f8565b6000526020526040600020916115f46001840193845490611595821515613dad565b600160048201916115c460078454926115ba60ff85166115b4816137d8565b15613e03565b0154421015613e47565b60ff19161790556115da60068701918254613d34565b80915560646115ed82600c890154613d21565b0490613d34565b61160560ff600d8701541682613d21565b600886015560078501556000526003602052604060002092835461162881613d96565b946116366040519687613969565b818652602086019060005260206000206000915b83831061170a575050505060005b84518110156116c8576007546001600160a01b0316906116788187613d59565b5151823b156102835760009260248492604051958693849263106b5da160e01b845260048401525af191821561061f576001926116b7575b5001611658565b60006116c291613969565b866116b0565b5060017f485f1bb6524c663555797e00171a10f341656e59b02d6b557a0a38ba7d5d9751916117008554604051938493019083613d6d565b0390a26001600055005b600b602060019260405161171d81613931565b8554815260405161173b8161173481898b01613c0e565b0382613969565b8382015260ff600287015416611750816137d8565b6040820152604051611769816117348160038b01613c0e565b606082015260048601546080820152600586015460a0820152600686015460c0820152600786015460e082015260088601546101008201526040516117b5816117348160098b01613c0e565b610120820152600a86015460ff81166117cd816137f8565b610140830152858060a01b039060081c1661016082015281520192019201919061164a565b606460405162461bcd60e51b815260206004820152602060248201527f43616c6c6572206973206e6f7420746865207661756c7420636f6e74726163746044820152fd5b50600f546001600160a01b03163314611532565b346102835760203660031901126102835761186660043561439b565b6040518091602082016020835281518091526040830190602060408260051b8601019301916000905b82821061189e57505050500390f35b919360019193955060208091603f19898203018552875190815181526101606119496119016118dc86860151610180888701526101808601906137b3565b60408601516118ea816137d8565b6040860152606086015185820360608701526137b3565b6080850151608085015260a085015160a085015260c085015160c085015260e085015160e08501526101008501516101008501526101208501518482036101208601526137b3565b92610140810151611959816137f8565b61014084015281878060a01b0391015116910152960192019201859493919261188f565b346102835760203660031901126102835761199661398a565b61199e6144e6565b600c54906001600160a01b038216611a21576001600160a01b03169081156119dc57600780546001600160a01b031990811684179091551617600c55005b60405162461bcd60e51b815260206004820152601c60248201527f436f76657220616464726573732063616e6e6f74206265207a65726f000000006044820152606490fd5b60405162461bcd60e51b815260206004820152601160248201527010dbdd995c88185b1c9958591e481cd95d607a1b6044820152606490fd5b3461028357600036600319011261028357611a736144e6565b600180546001600160a01b031981169091556000906001600160a01b03167f8be0079c531659141344cd1fd0a4f28419497f9722a3daafe3b4186f6b6457e08280a3005b34610283576000366003190112610283576008546040516001600160a01b039091168152602090f35b3461028357611aee36613a5d565b600c546001600160a01b031633148015611b67575b611b0c90613f21565b60005b82600052600360205260406000205481101561025757826000526003602052611b3c816040600020613f6c565b5054825114611b4d57600101611b0f565b610251906102579360005260036020526040600020613f6c565b50600f546001600160a01b03163314611b03565b3461028357602036600319011261028357611b9461398a565b611b9c6144e6565b600d54906001600160a01b038216611c1f576001600160a01b0316908115611bda57600880546001600160a01b031990811684179091551617600d55005b60405162461bcd60e51b815260206004820152601c60248201527f5661756c7420616464726573732063616e6e6f74206265207a65726f000000006044820152606490fd5b60405162461bcd60e51b815260206004820152601160248201527015985d5b1d08185b1c9958591e481cd95d607a1b6044820152606490fd5b3461028357600036600319011261028357600e546040516001600160a01b039091168152602090f35b34610283576020366003190112610283576004356001600160401b0381116102835761012060031982360301126102835760405190611cbf8261394d565b8060040135825260248101356003811015610283576020830190815260448201356001600160401b03811161028357611cfe9060043691850101613a16565b9260408101938452606081019160648401358352608082016084850135815260a48501359160ff831683036102835760a0840192835260c084019160c4870135835260e487013596600288101561028357610104611d639160e08801998a52016139b6565b6101008601908152611d736144e6565b8751611d7e816137f8565b611d87816137f8565b15908115612008575b5015611fc357600554600181018091116105bc576005558451600052600460205260406000209585518755885160018801908051906001600160401b03821161025957611ddd8354613bd4565b601f8111611f7b575b50602090601f8311600114611f0a579180611e6996949260ff99989694600092611eff575b50508160011b916000199060031b1c19161790555b51600389015560006005890155516004880155600060068801556000600888015560006007880155600a87016001851982541617905551611e60816137d8565b60028701613d41565b519182600c860155511690600d84019182549160640395606487116105bc577ff01906dc0ac306fa816e50166a7ed46af1f05721cb90cea30beebdd8dede3a6d96600b611efa97015551611ebc816137f8565b611ec5816137f8565b60ff60ff60a81b01199092161760a89190911b60ff60a81b1617905551925160405160208082529092839290918301906137b3565b0390a2005b015190508e80611e0b565b90601f1983169184600052816000209260005b818110611f63575092600192859260ff9b9a9896611e699a989610611f4a575b505050811b019055611e20565b015160001960f88460031b161c191690558e8080611f3d565b92936020600181928786015181550195019301611f1d565b836000526020600020601f840160051c81019160208510611fb9575b601f0160051c01905b818110611fad5750611de6565b60008155600101611fa0565b9091508190611f97565b60405162461bcd60e51b815260206004820152601760248201527f57726f6e6720417373657420666f72204465706f7369740000000000000000006044820152606490fd5b516001600160a01b03161515905089611d90565b34610283576000366003190112610283576006546040516001600160a01b039091168152602090f35b34610283576040366003190112610283576004356120616139a0565b6120696144c4565b600e546001600160a01b0316331480156123b0575b61208790613e93565b600954604051633b4d01a760e01b815260048101849052906000908290602490829084906001600160a01b03165af1801561061f57600090612238575b610100915001519060a08201928351600052600460205261211460c0604060002094019485516120f960098701918254613d07565b9055855161210c60068701918254613d34565b90555161439b565b9360005b8551811015612188576007546001600160a01b0316906121388188613d59565b5151823b156102835760009260248492604051958693849263106b5da160e01b845260048401525af191821561061f57600192612177575b5001612118565b600061218291613969565b87612170565b506009546001600160a01b0316918490833b156102835760009360248592604051968793849263f1b4bf9d60e01b845260048401525af191821561061f577f415071086c9ea63f7f39884c21a8af430af53bfd511a362dff69cabcb1b8bcc19361220b93612227575b505193604051928392604084526001604085019101613c0e565b60208301959095526001600160a01b0316930390a26001600055005b600061223291613969565b856121f1565b3d8082843e6122478184613969565b8201916020818403126123a4578051906001600160401b0382116123a8570191610120838203126123a4576040519261227f8461394d565b805184526020810151602085015260408101516040850152606081015160608501526080810151608085015260a081015160a085015260c081015160058110156123ac5760c08501526122d460e08201613d14565b60e0850152610100810151906001600160401b0382116123ac57019060e0828203126123a85760405192612307846138fa565b82516001600160a01b03811681036123a4578452602083015160038110156123a45760208501526040830151604085015260608301516001600160401b0381116123a45782612357918501613edf565b60608501526080830151906001600160401b03821161061457509161238560c0926101009695948301613edf565b608084015260a081015160a0840152015160c0820152828201526120c4565b5080fd5b8280fd5b8380fd5b50600f546001600160a01b0316331461207e565b34610283576020366003190112610283576004356123e06144c4565b806000526004602052604060002090336000526002602052604060002081600052602052604060002060008052602052604060002090612474600183019283549061242c821515613dad565b6002600482019161244b60078454926115ba60ff85166115b4816137d8565b60ff191617905561246160058601918254613d34565b80915560646115ed82600c880154613d21565b61248560ff600d8601541682613d21565b60088501556007840155600052600360205260406000209182546124a881613d96565b936124b66040519586613969565b818552602085019060005260206000206000915b8383106125e1575050505060005b8351811015612548576007546001600160a01b0316906124f88186613d59565b5151823b156102835760009260248492604051958693849263106b5da160e01b845260048401525af191821561061f57600192612537575b50016124d8565b600061254291613969565b85612530565b50600a5482549192906001600160a01b0316803b1561028357604051632770a7eb60e21b815233600482015260248101939093526000908390604490829084905af190811561061f577f485f1bb6524c663555797e00171a10f341656e59b02d6b557a0a38ba7d5d975192611700926125d0575b505460405191829160013396019083613d6d565b60006125db91613969565b846125bc565b600b60206001926040516125f481613931565b8554815260405161260b8161173481898b01613c0e565b8382015260ff600287015416612620816137d8565b6040820152604051612639816117348160038b01613c0e565b606082015260048601546080820152600586015460a0820152600686015460c0820152600786015460e08201526008860154610100820152604051612685816117348160098b01613c0e565b610120820152600a86015460ff811661269d816137f8565b610140830152858060a01b039060081c166101608201528152019201920191906124ca565b3461028357602036600319011261028357600435601054811015610283576126eb6020916139ca565b905460405160039290921b1c6001600160a01b03168152f35b3461028357600036600319011261028357600a546040516001600160a01b039091168152602090f35b346102835760203660031901126102835761274661398a565b600554600091906001600160a01b03821660015b82811115612b3e575061276c84613d96565b9361277a6040519586613969565b808552612789601f1991613d96565b0160005b818110612ad95750506007546001600160a01b03169260009060015b8481111561288357866040518091602082016020835281518091526040830190602060408260051b8601019301916000905b8282106127ea57505050500390f35b919360019193955060208091603f198982030185528751906101208061281b845161014085526101408501906137b3565b93858101518685015260408101516040850152606081015160608501526080810151608085015260a081015160a085015260c081015160c085015260e081015160e08501526101008101511515610100850152015191015296019201920185949391926127db565b806000526004602052604060002084600052600260205260406000208260005260205260406000206000805260205260406000206040516128c381613915565b60018060a01b038254168152600182015460208201526002820154604082015261012060ff60096003850154946060850195865282600482015416612907816137d8565b6080860152600581015460a0860152600681015460c0860152600781015460e0860152600881015461010086015201541691612942836137f8565b01526040516339e671f760e11b81526001600160a01b0385166004820152602481018490526020816044818c5afa90811561061f57600091612aa6575b5061298a9151613d21565b8560005260026020526040600020836000526020526040600020600080526020526001604060002001546129c9575b50506129c490613d87565b6127a9565b600086815260026020908152604080832086845282528083208380529091529081902060038082015460019092015490850154600486015460058701546009880154600a89015496519b9860ff90971696909591949293929190612a2c8d613915565b60405180600181930190612a3f91613c0e565b03612a4a9082613969565b8c528960208d015260408c015260608b015260808a015260a089015260c088015260e0870152151561010086015261012085015280612a8890613d87565b93612a93828a613d59565b52612a9e9088613d59565b5087806129b9565b906020823d8211612ad1575b81612abf60209383613969565b8101031261061457505161298a61297f565b3d9150612ab2565b602090604095949551612aeb81613915565b60608152600083820152600060408201526000606082015260006080820152600060a0820152600060c0820152600060e0820152600061010082015260006101208201528282890101520193929361278d565b816000949394526002602052604060002081600052602052604060002060008052602052600160406000200154612b81575b612b7990613d87565b92919261275a565b93612b8e612b7991613d87565b949050612b70565b3461028357600036600319011261028357600f546040516001600160a01b039091168152602090f35b60e0366003190112610283576040516000612bd9826138fa565b612be161398a565b825260208201916024358352604081016044358152606082019060643582526084356002811015613512576080840190815260a43591600283101561350e5760a0850192835260c435936001600160a01b038516850361350a5760c08601948552612c4a6144c4565b875187526004602052604087209460ff600a87015416156134ba57600d860194855460ff8160a81c169151612c7e816137f8565b612c87816137f8565b612c90836137f8565b820361346657835160048901541161342e5782516001600160a01b0390811660089290921c16036133e95787516001600160a01b03168952600260209081526040808b208c518c5290915289208551612ce8816137f8565b612cf1816137f8565b8a52602052600160408a20015461339257600190612d0e816137f8565b036132a05782511561325b57518651600e5484516040516323b872dd60e01b81526001600160a01b0393841660048201529183166024830152604482015291602091839160649183918d91165af18015612fa157613220575b508151612d7960058701918254613d07565b90558151935b612da560ff612d9c600689015460646115ed82600c8d0154613d21565b92541682613d21565b6008870155600786015561016d6064612dc2600388015487613d21565b04049260018060a01b0387511690895192518080046001148115171561320c57899a92612f2e9492828b612dfb6009959e9d9e42613d07565b918d8c8c865199612e0b8b6137f8565b60405198612e188a613915565b8952602089019283526040890190815260608901918252608089019284845260a08a019586528c60c08b019742895260e08c01998a526101008c019a878c526101208d019e8f612e67826137f8565b5251612e72816137f8565b612e7b816137f8565b61316957516001600160a01b039081168752600260208181526040808a2094518a529381528389208980529052919096209a518b546001600160a01b0319169616959095178a555160018a015551928801929092559051600387015551612eee90612ee5816137d8565b60048701613d41565b516005850155516006840155516007830155516008820155019051612f12816137f8565b612f1b816137f8565b60ff801983541691161790555b5161439b565b93855b8551811015612fb0576007546001600160a01b031690612f518188613d59565b5151823b15612fac57889260248492604051958693849263106b5da160e01b845260048401525af1918215612fa15788600193612f91575b505001612f31565b612f9a91613969565b8a88612f89565b6040513d8a823e3d90fd5b8880fd5b50601054869550879086805b828110613131575b50156130d1575b5080516001600160a01b03168652601160205260408620805460018101919082106130bd5755600a5481516001600160a01b0391821691889116823b156123a457604051637104a76d60e11b81526001600160a01b0391909116600482015260248101889052918290604490829084905af180156130b2578793613092600196947f6f85d9948d6ca3dd6ce6ce7d175da22b4e865827ae6fcd530ec7edac1240f9289460409b89956130a2575b5050838060a01b0390511694518a51938493019083613d6d565b0390a25582519182526020820152f35b6130ab91613969565b8b87613078565b6040513d89823e3d90fd5b634e487b7160e01b88526011600452602488fd5b81516001600160a01b031690600160401b81101561311d578060016130f992016010556139ca565b81546001600160a01b0360039290921b91821b191692901b91909117905586612fcb565b634e487b7160e01b88526041600452602488fd5b61313a816139ca565b9054855160039290921b1c6001600160a01b0390811691161461315f57600101612fbc565b5050600188612fc4565b516001600160a01b039081168752600260208181526040808a2094518a529381528389206001808b529152929097209b518c546001600160a01b0319169116178b559051908a0155519288019290925590516003870155516131ce90612ee5816137d8565b5160058501555160068401555160078301555160088201550190516131f2816137f8565b6131fb816137f8565b60ff80198354169116179055612f28565b634e487b7160e01b8a52601160045260248afd5b6020813d602011613253575b8161323960209383613969565b8101031261324f5761324a90613d14565b612d67565b8780fd5b3d915061322c565b60405162461bcd60e51b815260206004820152601d60248201527f416d6f756e74206d7573742062652067726561746572207468616e20300000006044820152606490fd5b50341561335457868080803460018060a01b03600e54165af13d1561334f573d6132c9816139fb565b906132d76040519283613969565b81528860203d92013e5b156132fe57600585016132f5348254613d07565b90553493612d7f565b60405162461bcd60e51b8152602060048201526024808201527f4661696c656420746f2073656e6420457468657220746f20706f6f6c43616e6960448201526339ba32b960e11b6064820152608490fd5b6132e1565b60405162461bcd60e51b81526020600482015260166024820152754465706f7369742063616e6e6f74206265207a65726f60501b6044820152606490fd5b60405162461bcd60e51b815260206004820152602960248201527f557365722068617320616c7265616479206465706f736974656420696e746f206044820152681d1a1a5cc81c1bdbdb60ba1b6064820152608490fd5b60405162461bcd60e51b815260206004820152601f60248201527f506f6f6c20646f6573206e6f74206163636570742074686973206173736574006044820152606490fd5b60405162461bcd60e51b815260206004820152601060248201526f14195c9a5bd9081d1bdbc81cda1bdc9d60821b6044820152606490fd5b60405162461bcd60e51b815260206004820152602660248201527f506f6f6c20646f6573206e6f74206163636570742074686973206465706f736960448201526574207479706560d01b6064820152608490fd5b60405162461bcd60e51b815260206004820152602260248201527f506f6f6c20697320696e616374697665206f7220646f6573206e6f74206578696044820152611cdd60f21b6064820152608490fd5b8680fd5b8580fd5b8480fd5b34610283576020366003190112610283576004356000526004602052602060ff600a60406000200154166040519015158152f35b3461028357600036600319011261028357600c546040516001600160a01b039091168152602090f35b3461028357600036600319011261028357600d546040516001600160a01b039091168152602090f35b34610283576000366003190112610283576040518060206010549283815201809260106000527f1b6847dc741a1b0cd08d278845f9d819d87b734759afb55fe2de5cb82a9ae6729060005b81811061364957505050816135fd910382613969565b6040519182916020830190602084525180915260408301919060005b818110613627575050500390f35b82516001600160a01b0316845285945060209384019390920191600101613619565b82546001600160a01b03168452602090930192600192830192016135e7565b3461028357602036600319011261028357613681613c91565b50600435600052600460205261378c604060002060ff600d604051926136a6846138de565b805484526040516136be816117348160018601613c0e565b6020850152826002820154166136d3816137d8565b60408501526003810154606085015260048101546080850152600581015460a0850152600681015460c0850152600781015460e08501526008808201546101008601526009820154610120860152600a82015484161515610140860152600b820154610160860152600c8201546101808601529101548083166101a08501529081901c6001600160a01b03166101c084015260a81c16613772816137f8565b6101e0820152604051918291602083526020830190613802565b0390f35b60005b8381106137a35750506000910152565b8181015183820152602001613793565b906020916137cc81518092818552858086019101613790565b601f01601f1916010190565b600311156137e257565b634e487b7160e01b600052602160045260246000fd5b600211156137e257565b90815181526101e080613826602085015161020060208601526102008501906137b3565b936040810151613835816137d8565b6040850152606081015160608501526080810151608085015260a081015160a085015260c081015160c085015260e081015160e0850152610100810151610100850152610120810151610120850152610140810151151561014085015261016081015161016085015261018081015161018085015260ff6101a0820151166101a085015260018060a01b036101c0820151166101c08501520151916138d9836137f8565b015290565b61020081019081106001600160401b0382111761025957604052565b60e081019081106001600160401b0382111761025957604052565b61014081019081106001600160401b0382111761025957604052565b61018081019081106001600160401b0382111761025957604052565b61012081019081106001600160401b0382111761025957604052565b90601f801991011681019081106001600160401b0382111761025957604052565b600435906001600160a01b038216820361028357565b602435906001600160a01b038216820361028357565b35906001600160a01b038216820361028357565b6010548110156139e557601060005260206000200190600090565b634e487b7160e01b600052603260045260246000fd5b6001600160401b03811161025957601f01601f191660200190565b81601f8201121561028357803590613a2d826139fb565b92613a3b6040519485613969565b8284526020838301011161028357816000926020809301838601378301015290565b90604060031983011261028357600435916024356001600160401b0381116102835761018081830360031901126102835760405191613a9b83613931565b8160040135835260248201356001600160401b03811161028357816004613ac492850101613a16565b60208401526044820135600381101561028357604084015260648201356001600160401b03811161028357816004613afe92850101613a16565b60608401526084820135608084015260a482013560a084015260c482013560c084015260e482013560e0840152610104820135610100840152610124820135906001600160401b038211610283576004613b5a92840101613a16565b610120830152610144810135600281101561028357610140830152613b8290610164016139b6565b61016082015290565b6040906003190112610283576004359060243590565b606090600319011261028357600435906024356001600160a01b0381168103610283579060443560028110156102835790565b90600182811c92168015613c04575b6020831014613bee57565b634e487b7160e01b600052602260045260246000fd5b91607f1691613be3565b60009291815491613c1e83613bd4565b8083529260018116908115613c745750600114613c3a57505050565b60009081526020812093945091925b838310613c5a575060209250010190565b600181602092949394548385870101520191019190613c49565b915050602093945060ff929192191683830152151560051b010190565b60405190613c9e826138de565b60006101e083828152606060208201528260408201528260608201528260808201528260a08201528260c08201528260e08201528261010082015282610120820152826101408201528261016082015282610180820152826101a0820152826101c08201520152565b919082018092116105bc57565b5190811515820361028357565b818102929181159184041417156105bc57565b919082039182116105bc57565b90613d4b816137d8565b60ff80198354169116179055565b80518210156139e55760209160051b010190565b604090613d84939281528160208201520190613c0e565b90565b60001981146105bc5760010190565b6001600160401b0381116102595760051b60200190565b15613db457565b60405162461bcd60e51b815260206004820152602160248201527f4e6f206465706f73697420666f756e6420666f722074686973206164647265736044820152607360f81b6064820152608490fd5b15613e0a57565b60405162461bcd60e51b81526020600482015260156024820152744465706f736974206973206e6f742061637469766560581b6044820152606490fd5b15613e4e57565b60405162461bcd60e51b815260206004820152601c60248201527f4465706f73697420706572696f6420686173206e6f7420656e646564000000006044820152606490fd5b15613e9a57565b60405162461bcd60e51b815260206004820152601f60248201527f43616c6c6572206973206e6f742074686520706f6f6c2063616e6973746572006044820152606490fd5b81601f82011215610283578051613ef5816139fb565b92613f036040519485613969565b8184526020828401011161028357613d849160208085019101613790565b15613f2857565b606460405162461bcd60e51b815260206004820152602060248201527f43616c6c6572206973206e6f742074686520636f76657220636f6e74726163746044820152fd5b80548210156139e557600052600b602060002091020190600090565b9061438557815181556001810160208301518051906001600160401b038211610259578190613fb78454613bd4565b601f8111614332575b50602090601f83116001146142cd576000926142c2575b50508160011b916000199060031b1c19161790555b6140066040830151613ffd816137d8565b60028301613d41565b6003810160608301518051906001600160401b03821161025957819061402c8454613bd4565b601f811161426f575b50602090601f831160011461420a576000926141ff575b50508160011b916000199060031b1c19161790555b6080820151600482015560a0820151600582015560c0820151600682015560e082015160078201556101008201516008820155600981016101208301518051906001600160401b038211610259576140b98354613bd4565b601f81116141b7575b50602090601f831160011461414c57600a9493929160009183614141575b50508160011b916000199060031b1c19161790555b019061014081015190614107826137f8565b614110826137f8565b60ff835491610160610100600160a81b0391015160081b169216906affffffffffffffffffffff60a81b1617179055565b0151905038806140e0565b90601f1983169184600052816000209260005b81811061419f5750916001939185600a9897969410614186575b505050811b0190556140f5565b015160001960f88460031b161c19169055388080614179565b9293602060018192878601518155019501930161415f565b836000526020600020601f840160051c810191602085106141f5575b601f0160051c01905b8181106141e957506140c2565b600081556001016141dc565b90915081906141d3565b01519050388061404c565b60008581528281209350601f198516905b818110614257575090846001959493921061423e575b505050811b019055614061565b015160001960f88460031b161c19169055388080614231565b9293602060018192878601518155019501930161421b565b909150836000526020600020601f840160051c810191602085106142b8575b90601f859493920160051c01905b8181106142a95750614035565b6000815584935060010161429c565b909150819061428e565b015190503880613fd7565b60008581528281209350601f198516905b81811061431a5750908460019594939210614301575b505050811b019055613fec565b015160001960f88460031b161c191690553880806142f4565b929360206001819287860151815501950193016142de565b909150836000526020600020601f840160051c8101916020851061437b575b90601f859493920160051c01905b81811061436c5750613fc0565b6000815584935060010161435f565b9091508190614351565b634e487b7160e01b600052600060045260246000fd5b6000526003602052604060002080546143b381613d96565b916143c16040519384613969565b818352602083019060005260206000206000915b8383106143e3575050505090565b600b60206001926040516143f681613931565b8554815260405161440d8161173481898b01613c0e565b8382015260ff600287015416614422816137d8565b604082015260405161443b816117348160038b01613c0e565b606082015260048601546080820152600586015460a0820152600686015460c0820152600786015460e08201526008860154610100820152604051614487816117348160098b01613c0e565b610120820152600a86015460ff811661449f816137f8565b610140830152858060a01b039060081c166101608201528152019201920191906143d5565b6002600054146144d5576002600055565b633ee5aeb560e01b60005260046000fd5b6001546001600160a01b031633036144fa57565b63118cdaa760e01b6000523360045260246000fdfea2646970667358221220dceae5f903f468445d7f8b3bf0665a6bc7f87127c63c91607245180f25fe9c3064736f6c634300081c0033",
  "linkReferences": {},
  "deployedLinkReferences": {}
}