{
  "_format": "hh-sol-artifact-1",
  "contractName": "InsurancePool",
  "sourceName": "contracts/InsurancePool.sol",
  "abi": [
    {
      "inputs": [
        {
          "internalType": "address",
          "name": "_initialOwner",
          "type": "address"
        },
        {
          "internalType": "address",
          "name": "bq",
          "type": "address"
        }
      ],
      "stateMutability": "nonpayable",
      "type": "constructor"
    },
    {
      "inputs": [
        {
          "internalType": "address",
          "name": "owner",
          "type": "address"
        }
      ],
      "name": "OwnableInvalidOwner",
      "type": "error"
    },
    {
      "inputs": [
        {
          "internalType": "address",
          "name": "account",
          "type": "address"
        }
      ],
      "name": "OwnableUnauthorizedAccount",
      "type": "error"
    },
    {
      "inputs": [],
      "name": "ReentrancyGuardReentrantCall",
      "type": "error"
    },
    {
      "anonymous": false,
      "inputs": [
        {
          "indexed": false,
          "internalType": "uint256",
          "name": "",
          "type": "uint256"
        },
        {
          "indexed": false,
          "internalType": "uint256",
          "name": "",
          "type": "uint256"
        },
        {
          "indexed": false,
          "internalType": "address",
          "name": "",
          "type": "address"
        }
      ],
      "name": "ClaimAttempt",
      "type": "event"
    },
    {
      "anonymous": false,
      "inputs": [
        {
          "indexed": true,
          "internalType": "address",
          "name": "recipient",
          "type": "address"
        },
        {
          "indexed": false,
          "internalType": "string",
          "name": "pool",
          "type": "string"
        },
        {
          "indexed": false,
          "internalType": "uint256",
          "name": "amount",
          "type": "uint256"
        }
      ],
      "name": "ClaimPaid",
      "type": "event"
    },
    {
      "anonymous": false,
      "inputs": [
        {
          "indexed": true,
          "internalType": "address",
          "name": "user",
          "type": "address"
        },
        {
          "indexed": false,
          "internalType": "uint256",
          "name": "amount",
          "type": "uint256"
        },
        {
          "indexed": false,
          "internalType": "string",
          "name": "pool",
          "type": "string"
        }
      ],
      "name": "Deposited",
      "type": "event"
    },
    {
      "anonymous": false,
      "inputs": [
        {
          "indexed": true,
          "internalType": "address",
          "name": "previousOwner",
          "type": "address"
        },
        {
          "indexed": true,
          "internalType": "address",
          "name": "newOwner",
          "type": "address"
        }
      ],
      "name": "OwnershipTransferred",
      "type": "event"
    },
    {
      "anonymous": false,
      "inputs": [
        {
          "indexed": true,
          "internalType": "uint256",
          "name": "id",
          "type": "uint256"
        },
        {
          "indexed": false,
          "internalType": "string",
          "name": "poolName",
          "type": "string"
        }
      ],
      "name": "PoolCreated",
      "type": "event"
    },
    {
      "anonymous": false,
      "inputs": [
        {
          "indexed": true,
          "internalType": "uint256",
          "name": "poolId",
          "type": "uint256"
        },
        {
          "indexed": false,
          "internalType": "uint256",
          "name": "apy",
          "type": "uint256"
        },
        {
          "indexed": false,
          "internalType": "uint256",
          "name": "_minPeriod",
          "type": "uint256"
        }
      ],
      "name": "PoolUpdated",
      "type": "event"
    },
    {
      "anonymous": false,
      "inputs": [
        {
          "indexed": true,
          "internalType": "address",
          "name": "user",
          "type": "address"
        },
        {
          "indexed": false,
          "internalType": "uint256",
          "name": "amount",
          "type": "uint256"
        },
        {
          "indexed": false,
          "internalType": "string",
          "name": "pool",
          "type": "string"
        }
      ],
      "name": "Withdraw",
      "type": "event"
    },
    {
      "inputs": [],
      "name": "ICoverContract",
      "outputs": [
        {
          "internalType": "contract ICover",
          "name": "",
          "type": "address"
        }
      ],
      "stateMutability": "view",
      "type": "function"
    },
    {
      "inputs": [],
      "name": "IGovernanceContract",
      "outputs": [
        {
          "internalType": "contract IGov",
          "name": "",
          "type": "address"
        }
      ],
      "stateMutability": "view",
      "type": "function"
    },
    {
      "inputs": [],
      "name": "IVaultContract",
      "outputs": [
        {
          "internalType": "contract IVault",
          "name": "",
          "type": "address"
        }
      ],
      "stateMutability": "view",
      "type": "function"
    },
    {
      "inputs": [
        {
          "internalType": "uint256",
          "name": "_poolId",
          "type": "uint256"
        },
        {
          "components": [
            {
              "internalType": "uint256",
              "name": "id",
              "type": "uint256"
            },
            {
              "internalType": "string",
              "name": "coverName",
              "type": "string"
            },
            {
              "internalType": "enum CoverLib.RiskType",
              "name": "riskType",
              "type": "uint8"
            },
            {
              "internalType": "string",
              "name": "chains",
              "type": "string"
            },
            {
              "internalType": "uint256",
              "name": "capacity",
              "type": "uint256"
            },
            {
              "internalType": "uint256",
              "name": "capacityAmount",
              "type": "uint256"
            },
            {
              "internalType": "uint256",
              "name": "coverValues",
              "type": "uint256"
            },
            {
              "internalType": "uint256",
              "name": "maxAmount",
              "type": "uint256"
            },
            {
              "internalType": "uint256",
              "name": "poolId",
              "type": "uint256"
            },
            {
              "internalType": "string",
              "name": "CID",
              "type": "string"
            },
            {
              "internalType": "enum CoverLib.AssetDepositType",
              "name": "adt",
              "type": "uint8"
            },
            {
              "internalType": "address",
              "name": "asset",
              "type": "address"
            }
          ],
          "internalType": "struct CoverLib.Cover",
          "name": "_cover",
          "type": "tuple"
        }
      ],
      "name": "addPoolCover",
      "outputs": [],
      "stateMutability": "nonpayable",
      "type": "function"
    },
    {
      "inputs": [],
      "name": "bqBTC",
      "outputs": [
        {
          "internalType": "contract IbqBTC",
          "name": "",
          "type": "address"
        }
      ],
      "stateMutability": "view",
      "type": "function"
    },
    {
      "inputs": [],
      "name": "bqBTCAddress",
      "outputs": [
        {
          "internalType": "address",
          "name": "",
          "type": "address"
        }
      ],
      "stateMutability": "view",
      "type": "function"
    },
    {
      "inputs": [],
      "name": "coverContract",
      "outputs": [
        {
          "internalType": "address",
          "name": "",
          "type": "address"
        }
      ],
      "stateMutability": "view",
      "type": "function"
    },
    {
      "inputs": [
        {
          "components": [
            {
              "internalType": "uint256",
              "name": "poolId",
              "type": "uint256"
            },
            {
              "internalType": "enum CoverLib.RiskType",
              "name": "riskType",
              "type": "uint8"
            },
            {
              "internalType": "string",
              "name": "poolName",
              "type": "string"
            },
            {
              "internalType": "uint256",
              "name": "apy",
              "type": "uint256"
            },
            {
              "internalType": "uint256",
              "name": "minPeriod",
              "type": "uint256"
            },
            {
              "internalType": "uint8",
              "name": "leverage",
              "type": "uint8"
            },
            {
              "internalType": "uint256",
              "name": "investmentArm",
              "type": "uint256"
            },
            {
              "internalType": "enum CoverLib.AssetDepositType",
              "name": "adt",
              "type": "uint8"
            },
            {
              "internalType": "address",
              "name": "asset",
              "type": "address"
            }
          ],
          "internalType": "struct CoverLib.PoolParams",
          "name": "params",
          "type": "tuple"
        }
      ],
      "name": "createPool",
      "outputs": [],
      "stateMutability": "nonpayable",
      "type": "function"
    },
    {
      "inputs": [
        {
          "internalType": "uint256",
          "name": "_poolId",
          "type": "uint256"
        }
      ],
      "name": "deactivatePool",
      "outputs": [],
      "stateMutability": "nonpayable",
      "type": "function"
    },
    {
      "inputs": [
        {
          "components": [
            {
              "internalType": "address",
              "name": "depositor",
              "type": "address"
            },
            {
              "internalType": "uint256",
              "name": "poolId",
              "type": "uint256"
            },
            {
              "internalType": "uint256",
              "name": "amount",
              "type": "uint256"
            },
            {
              "internalType": "uint256",
              "name": "period",
              "type": "uint256"
            },
            {
              "internalType": "enum CoverLib.DepositType",
              "name": "pdt",
              "type": "uint8"
            },
            {
              "internalType": "enum CoverLib.AssetDepositType",
              "name": "adt",
              "type": "uint8"
            },
            {
              "internalType": "address",
              "name": "asset",
              "type": "address"
            }
          ],
          "internalType": "struct CoverLib.DepositParams",
          "name": "depositParam",
          "type": "tuple"
        }
      ],
      "name": "deposit",
      "outputs": [
        {
          "internalType": "uint256",
          "name": "",
          "type": "uint256"
        },
        {
          "internalType": "uint256",
          "name": "",
          "type": "uint256"
        }
      ],
      "stateMutability": "payable",
      "type": "function"
    },
    {
      "inputs": [
        {
          "internalType": "uint256",
          "name": "_proposalId",
          "type": "uint256"
        },
        {
          "internalType": "address",
          "name": "user",
          "type": "address"
        }
      ],
      "name": "finalizeProposalClaim",
      "outputs": [],
      "stateMutability": "nonpayable",
      "type": "function"
    },
    {
      "inputs": [],
      "name": "getAllParticipants",
      "outputs": [
        {
          "internalType": "address[]",
          "name": "",
          "type": "address[]"
        }
      ],
      "stateMutability": "view",
      "type": "function"
    },
    {
      "inputs": [],
      "name": "getAllPools",
      "outputs": [
        {
          "components": [
            {
              "internalType": "uint256",
              "name": "id",
              "type": "uint256"
            },
            {
              "internalType": "string",
              "name": "poolName",
              "type": "string"
            },
            {
              "internalType": "enum CoverLib.RiskType",
              "name": "riskType",
              "type": "uint8"
            },
            {
              "internalType": "uint256",
              "name": "apy",
              "type": "uint256"
            },
            {
              "internalType": "uint256",
              "name": "minPeriod",
              "type": "uint256"
            },
            {
              "internalType": "uint256",
              "name": "totalUnit",
              "type": "uint256"
            },
            {
              "internalType": "uint256",
              "name": "tvl",
              "type": "uint256"
            },
            {
              "internalType": "uint256",
              "name": "baseValue",
              "type": "uint256"
            },
            {
              "internalType": "uint256",
              "name": "coverUnits",
              "type": "uint256"
            },
            {
              "internalType": "uint256",
              "name": "tcp",
              "type": "uint256"
            },
            {
              "internalType": "bool",
              "name": "isActive",
              "type": "bool"
            },
            {
              "internalType": "uint256",
              "name": "percentageSplitBalance",
              "type": "uint256"
            },
            {
              "internalType": "uint256",
              "name": "investmentArmPercent",
              "type": "uint256"
            },
            {
              "internalType": "uint8",
              "name": "leverage",
              "type": "uint8"
            },
            {
              "internalType": "address",
              "name": "asset",
              "type": "address"
            },
            {
              "internalType": "enum CoverLib.AssetDepositType",
              "name": "assetType",
              "type": "uint8"
            }
          ],
          "internalType": "struct CoverLib.Pool[]",
          "name": "",
          "type": "tuple[]"
        }
      ],
      "stateMutability": "view",
      "type": "function"
    },
    {
      "inputs": [
        {
          "internalType": "uint256",
          "name": "_poolId",
          "type": "uint256"
        }
      ],
      "name": "getPool",
      "outputs": [
        {
          "components": [
            {
              "internalType": "uint256",
              "name": "id",
              "type": "uint256"
            },
            {
              "internalType": "string",
              "name": "poolName",
              "type": "string"
            },
            {
              "internalType": "enum CoverLib.RiskType",
              "name": "riskType",
              "type": "uint8"
            },
            {
              "internalType": "uint256",
              "name": "apy",
              "type": "uint256"
            },
            {
              "internalType": "uint256",
              "name": "minPeriod",
              "type": "uint256"
            },
            {
              "internalType": "uint256",
              "name": "totalUnit",
              "type": "uint256"
            },
            {
              "internalType": "uint256",
              "name": "tvl",
              "type": "uint256"
            },
            {
              "internalType": "uint256",
              "name": "baseValue",
              "type": "uint256"
            },
            {
              "internalType": "uint256",
              "name": "coverUnits",
              "type": "uint256"
            },
            {
              "internalType": "uint256",
              "name": "tcp",
              "type": "uint256"
            },
            {
              "internalType": "bool",
              "name": "isActive",
              "type": "bool"
            },
            {
              "internalType": "uint256",
              "name": "percentageSplitBalance",
              "type": "uint256"
            },
            {
              "internalType": "uint256",
              "name": "investmentArmPercent",
              "type": "uint256"
            },
            {
              "internalType": "uint8",
              "name": "leverage",
              "type": "uint8"
            },
            {
              "internalType": "address",
              "name": "asset",
              "type": "address"
            },
            {
              "internalType": "enum CoverLib.AssetDepositType",
              "name": "assetType",
              "type": "uint8"
            }
          ],
          "internalType": "struct CoverLib.Pool",
          "name": "",
          "type": "tuple"
        }
      ],
      "stateMutability": "view",
      "type": "function"
    },
    {
      "inputs": [
        {
          "internalType": "uint256",
          "name": "_poolId",
          "type": "uint256"
        }
      ],
      "name": "getPoolCovers",
      "outputs": [
        {
          "components": [
            {
              "internalType": "uint256",
              "name": "id",
              "type": "uint256"
            },
            {
              "internalType": "string",
              "name": "coverName",
              "type": "string"
            },
            {
              "internalType": "enum CoverLib.RiskType",
              "name": "riskType",
              "type": "uint8"
            },
            {
              "internalType": "string",
              "name": "chains",
              "type": "string"
            },
            {
              "internalType": "uint256",
              "name": "capacity",
              "type": "uint256"
            },
            {
              "internalType": "uint256",
              "name": "capacityAmount",
              "type": "uint256"
            },
            {
              "internalType": "uint256",
              "name": "coverValues",
              "type": "uint256"
            },
            {
              "internalType": "uint256",
              "name": "maxAmount",
              "type": "uint256"
            },
            {
              "internalType": "uint256",
              "name": "poolId",
              "type": "uint256"
            },
            {
              "internalType": "string",
              "name": "CID",
              "type": "string"
            },
            {
              "internalType": "enum CoverLib.AssetDepositType",
              "name": "adt",
              "type": "uint8"
            },
            {
              "internalType": "address",
              "name": "asset",
              "type": "address"
            }
          ],
          "internalType": "struct CoverLib.Cover[]",
          "name": "",
          "type": "tuple[]"
        }
      ],
      "stateMutability": "view",
      "type": "function"
    },
    {
      "inputs": [
        {
          "internalType": "uint256",
          "name": "_poolId",
          "type": "uint256"
        }
      ],
      "name": "getPoolTVL",
      "outputs": [
        {
          "internalType": "uint256",
          "name": "",
          "type": "uint256"
        }
      ],
      "stateMutability": "view",
      "type": "function"
    },
    {
      "inputs": [
        {
          "internalType": "address",
          "name": "_userAddress",
          "type": "address"
        }
      ],
      "name": "getPoolsByAddress",
      "outputs": [
        {
          "components": [
            {
              "internalType": "string",
              "name": "poolName",
              "type": "string"
            },
            {
              "internalType": "uint256",
              "name": "poolId",
              "type": "uint256"
            },
            {
              "internalType": "uint256",
              "name": "dailyPayout",
              "type": "uint256"
            },
            {
              "internalType": "uint256",
              "name": "depositAmount",
              "type": "uint256"
            },
            {
              "internalType": "uint256",
              "name": "apy",
              "type": "uint256"
            },
            {
              "internalType": "uint256",
              "name": "minPeriod",
              "type": "uint256"
            },
            {
              "internalType": "uint256",
              "name": "totalUnit",
              "type": "uint256"
            },
            {
              "internalType": "uint256",
              "name": "tcp",
              "type": "uint256"
            },
            {
              "internalType": "bool",
              "name": "isActive",
              "type": "bool"
            },
            {
              "internalType": "uint256",
              "name": "accruedPayout",
              "type": "uint256"
            }
          ],
          "internalType": "struct CoverLib.PoolInfo[]",
          "name": "",
          "type": "tuple[]"
        }
      ],
      "stateMutability": "view",
      "type": "function"
    },
    {
      "inputs": [
        {
          "internalType": "uint256",
          "name": "_poolId",
          "type": "uint256"
        },
        {
          "internalType": "address",
          "name": "_user",
          "type": "address"
        },
        {
          "internalType": "enum CoverLib.DepositType",
          "name": "pdt",
          "type": "uint8"
        }
      ],
      "name": "getUserGenericDeposit",
      "outputs": [
        {
          "components": [
            {
              "internalType": "address",
              "name": "lp",
              "type": "address"
            },
            {
              "internalType": "uint256",
              "name": "amount",
              "type": "uint256"
            },
            {
              "internalType": "uint256",
              "name": "poolId",
              "type": "uint256"
            },
            {
              "internalType": "uint256",
              "name": "dailyPayout",
              "type": "uint256"
            },
            {
              "internalType": "enum CoverLib.Status",
              "name": "status",
              "type": "uint8"
            },
            {
              "internalType": "uint256",
              "name": "daysLeft",
              "type": "uint256"
            },
            {
              "internalType": "uint256",
              "name": "startDate",
              "type": "uint256"
            },
            {
              "internalType": "uint256",
              "name": "expiryDate",
              "type": "uint256"
            },
            {
              "internalType": "uint256",
              "name": "accruedPayout",
              "type": "uint256"
            },
            {
              "internalType": "enum CoverLib.DepositType",
              "name": "pdt",
              "type": "uint8"
            },
            {
              "internalType": "enum CoverLib.AssetDepositType",
              "name": "adt",
              "type": "uint8"
            },
            {
              "internalType": "address",
              "name": "asset",
              "type": "address"
            }
          ],
          "internalType": "struct CoverLib.GenericDepositDetails",
          "name": "",
          "type": "tuple"
        }
      ],
      "stateMutability": "view",
      "type": "function"
    },
    {
      "inputs": [
        {
          "internalType": "address",
          "name": "user",
          "type": "address"
        }
      ],
      "name": "getUserParticipation",
      "outputs": [
        {
          "internalType": "uint256",
          "name": "",
          "type": "uint256"
        }
      ],
      "stateMutability": "view",
      "type": "function"
    },
    {
      "inputs": [
        {
          "internalType": "uint256",
          "name": "_poolId",
          "type": "uint256"
        },
        {
          "internalType": "address",
          "name": "_user",
          "type": "address"
        }
      ],
      "name": "getUserPoolDeposit",
      "outputs": [
        {
          "components": [
            {
              "internalType": "address",
              "name": "lp",
              "type": "address"
            },
            {
              "internalType": "uint256",
              "name": "amount",
              "type": "uint256"
            },
            {
              "internalType": "uint256",
              "name": "poolId",
              "type": "uint256"
            },
            {
              "internalType": "uint256",
              "name": "dailyPayout",
              "type": "uint256"
            },
            {
              "internalType": "enum CoverLib.Status",
              "name": "status",
              "type": "uint8"
            },
            {
              "internalType": "uint256",
              "name": "daysLeft",
              "type": "uint256"
            },
            {
              "internalType": "uint256",
              "name": "startDate",
              "type": "uint256"
            },
            {
              "internalType": "uint256",
              "name": "expiryDate",
              "type": "uint256"
            },
            {
              "internalType": "uint256",
              "name": "accruedPayout",
              "type": "uint256"
            },
            {
              "internalType": "enum CoverLib.DepositType",
              "name": "pdt",
              "type": "uint8"
            }
          ],
          "internalType": "struct CoverLib.Deposits",
          "name": "",
          "type": "tuple"
        }
      ],
      "stateMutability": "view",
      "type": "function"
    },
    {
      "inputs": [],
      "name": "governance",
      "outputs": [
        {
          "internalType": "address",
          "name": "",
          "type": "address"
        }
      ],
      "stateMutability": "view",
      "type": "function"
    },
    {
      "inputs": [
        {
          "internalType": "uint256",
          "name": "_poolId",
          "type": "uint256"
        },
        {
          "internalType": "uint256",
          "name": "__poolPercentageSplit",
          "type": "uint256"
        }
      ],
      "name": "increasePercentageSplit",
      "outputs": [],
      "stateMutability": "nonpayable",
      "type": "function"
    },
    {
      "inputs": [],
      "name": "initialOwner",
      "outputs": [
        {
          "internalType": "address",
          "name": "",
          "type": "address"
        }
      ],
      "stateMutability": "view",
      "type": "function"
    },
    {
      "inputs": [],
      "name": "owner",
      "outputs": [
        {
          "internalType": "address",
          "name": "",
          "type": "address"
        }
      ],
      "stateMutability": "view",
      "type": "function"
    },
    {
      "inputs": [
        {
          "internalType": "uint256",
          "name": "",
          "type": "uint256"
        }
      ],
      "name": "participants",
      "outputs": [
        {
          "internalType": "address",
          "name": "",
          "type": "address"
        }
      ],
      "stateMutability": "view",
      "type": "function"
    },
    {
      "inputs": [
        {
          "internalType": "address",
          "name": "",
          "type": "address"
        }
      ],
      "name": "participation",
      "outputs": [
        {
          "internalType": "uint256",
          "name": "",
          "type": "uint256"
        }
      ],
      "stateMutability": "view",
      "type": "function"
    },
    {
      "inputs": [
        {
          "internalType": "uint256",
          "name": "poolId",
          "type": "uint256"
        }
      ],
      "name": "poolActive",
      "outputs": [
        {
          "internalType": "bool",
          "name": "",
          "type": "bool"
        }
      ],
      "stateMutability": "view",
      "type": "function"
    },
    {
      "inputs": [],
      "name": "poolCanister",
      "outputs": [
        {
          "internalType": "address",
          "name": "",
          "type": "address"
        }
      ],
      "stateMutability": "view",
      "type": "function"
    },
    {
      "inputs": [],
      "name": "poolCount",
      "outputs": [
        {
          "internalType": "uint256",
          "name": "",
          "type": "uint256"
        }
      ],
      "stateMutability": "view",
      "type": "function"
    },
    {
      "inputs": [
        {
          "internalType": "uint256",
          "name": "_poolId",
          "type": "uint256"
        }
      ],
      "name": "poolWithdraw",
      "outputs": [],
      "stateMutability": "nonpayable",
      "type": "function"
    },
    {
      "inputs": [
        {
          "internalType": "uint256",
          "name": "",
          "type": "uint256"
        }
      ],
      "name": "pools",
      "outputs": [
        {
          "internalType": "uint256",
          "name": "id",
          "type": "uint256"
        },
        {
          "internalType": "string",
          "name": "poolName",
          "type": "string"
        },
        {
          "internalType": "enum CoverLib.RiskType",
          "name": "riskType",
          "type": "uint8"
        },
        {
          "internalType": "uint256",
          "name": "apy",
          "type": "uint256"
        },
        {
          "internalType": "uint256",
          "name": "minPeriod",
          "type": "uint256"
        },
        {
          "internalType": "uint256",
          "name": "totalUnit",
          "type": "uint256"
        },
        {
          "internalType": "uint256",
          "name": "tvl",
          "type": "uint256"
        },
        {
          "internalType": "uint256",
          "name": "baseValue",
          "type": "uint256"
        },
        {
          "internalType": "uint256",
          "name": "coverUnits",
          "type": "uint256"
        },
        {
          "internalType": "uint256",
          "name": "tcp",
          "type": "uint256"
        },
        {
          "internalType": "bool",
          "name": "isActive",
          "type": "bool"
        },
        {
          "internalType": "uint256",
          "name": "percentageSplitBalance",
          "type": "uint256"
        },
        {
          "internalType": "uint256",
          "name": "investmentArmPercent",
          "type": "uint256"
        },
        {
          "internalType": "uint8",
          "name": "leverage",
          "type": "uint8"
        },
        {
          "internalType": "address",
          "name": "asset",
          "type": "address"
        },
        {
          "internalType": "enum CoverLib.AssetDepositType",
          "name": "assetType",
          "type": "uint8"
        }
      ],
      "stateMutability": "view",
      "type": "function"
    },
    {
      "inputs": [
        {
          "internalType": "uint256",
          "name": "_poolId",
          "type": "uint256"
        },
        {
          "internalType": "uint256",
          "name": "__poolPercentageSplit",
          "type": "uint256"
        }
      ],
      "name": "reducePercentageSplit",
      "outputs": [],
      "stateMutability": "nonpayable",
      "type": "function"
    },
    {
      "inputs": [],
      "name": "renounceOwnership",
      "outputs": [],
      "stateMutability": "nonpayable",
      "type": "function"
    },
    {
      "inputs": [
        {
          "internalType": "address",
          "name": "_coverContract",
          "type": "address"
        }
      ],
      "name": "setCover",
      "outputs": [],
      "stateMutability": "nonpayable",
      "type": "function"
    },
    {
      "inputs": [
        {
          "internalType": "address",
          "name": "_governance",
          "type": "address"
        }
      ],
      "name": "setGovernance",
      "outputs": [],
      "stateMutability": "nonpayable",
      "type": "function"
    },
    {
      "inputs": [
        {
          "internalType": "address",
          "name": "_poolcanister",
          "type": "address"
        }
      ],
      "name": "setPoolCanister",
      "outputs": [],
      "stateMutability": "nonpayable",
      "type": "function"
    },
    {
      "inputs": [
        {
          "internalType": "uint256",
          "name": "poolId",
          "type": "uint256"
        },
        {
          "internalType": "address",
          "name": "user",
          "type": "address"
        },
        {
          "internalType": "enum CoverLib.DepositType",
          "name": "pdt",
          "type": "uint8"
        }
      ],
      "name": "setUserDepositToZero",
      "outputs": [],
      "stateMutability": "nonpayable",
      "type": "function"
    },
    {
      "inputs": [
        {
          "internalType": "address",
          "name": "_vaultContract",
          "type": "address"
        }
      ],
      "name": "setVault",
      "outputs": [],
      "stateMutability": "nonpayable",
      "type": "function"
    },
    {
      "inputs": [
        {
          "internalType": "address",
          "name": "newOwner",
          "type": "address"
        }
      ],
      "name": "transferOwnership",
      "outputs": [],
      "stateMutability": "nonpayable",
      "type": "function"
    },
    {
      "inputs": [
        {
          "internalType": "uint256",
          "name": "_poolId",
          "type": "uint256"
        },
        {
          "internalType": "uint256",
          "name": "_apy",
          "type": "uint256"
        },
        {
          "internalType": "uint256",
          "name": "_minPeriod",
          "type": "uint256"
        }
      ],
      "name": "updatePool",
      "outputs": [],
      "stateMutability": "nonpayable",
      "type": "function"
    },
    {
      "inputs": [
        {
          "internalType": "address",
          "name": "_poolcanister",
          "type": "address"
        }
      ],
      "name": "updatePoolCanister",
      "outputs": [],
      "stateMutability": "nonpayable",
      "type": "function"
    },
    {
      "inputs": [
        {
          "internalType": "uint256",
          "name": "_poolId",
          "type": "uint256"
        },
        {
          "components": [
            {
              "internalType": "uint256",
              "name": "id",
              "type": "uint256"
            },
            {
              "internalType": "string",
              "name": "coverName",
              "type": "string"
            },
            {
              "internalType": "enum CoverLib.RiskType",
              "name": "riskType",
              "type": "uint8"
            },
            {
              "internalType": "string",
              "name": "chains",
              "type": "string"
            },
            {
              "internalType": "uint256",
              "name": "capacity",
              "type": "uint256"
            },
            {
              "internalType": "uint256",
              "name": "capacityAmount",
              "type": "uint256"
            },
            {
              "internalType": "uint256",
              "name": "coverValues",
              "type": "uint256"
            },
            {
              "internalType": "uint256",
              "name": "maxAmount",
              "type": "uint256"
            },
            {
              "internalType": "uint256",
              "name": "poolId",
              "type": "uint256"
            },
            {
              "internalType": "string",
              "name": "CID",
              "type": "string"
            },
            {
              "internalType": "enum CoverLib.AssetDepositType",
              "name": "adt",
              "type": "uint8"
            },
            {
              "internalType": "address",
              "name": "asset",
              "type": "address"
            }
          ],
          "internalType": "struct CoverLib.Cover",
          "name": "_cover",
          "type": "tuple"
        }
      ],
      "name": "updatePoolCovers",
      "outputs": [],
      "stateMutability": "nonpayable",
      "type": "function"
    },
    {
      "inputs": [],
      "name": "vaultContract",
      "outputs": [
        {
          "internalType": "address",
          "name": "",
          "type": "address"
        }
      ],
      "stateMutability": "view",
      "type": "function"
    },
    {
      "inputs": [
        {
          "internalType": "address",
          "name": "depositor",
          "type": "address"
        },
        {
          "internalType": "uint256",
          "name": "_poolId",
          "type": "uint256"
        },
        {
          "internalType": "enum CoverLib.DepositType",
          "name": "pdt",
          "type": "uint8"
        }
      ],
      "name": "withdrawUpdate",
      "outputs": [],
      "stateMutability": "nonpayable",
      "type": "function"
    }
  ],
  "bytecode": "0x60803461010d57601f6148a238819003918201601f19168301916001600160401b0383118484101761011257808492604094855283398101031261010d57610052602061004b83610128565b9201610128565b60016000556001600160a01b039091169081156100f757600180546001600160a01b031981168417909155604051929081906001600160a01b03167f8be0079c531659141344cd1fd0a4f28419497f9722a3daafe3b4186f6b6457e0600080a3600f80546001600160a01b0319908116929092179055600a805482166001600160a01b03939093169283179055600b80549091169091179055614765908161013d8239f35b631e4fbdf760e01b600052600060045260246000fd5b600080fd5b634e487b7160e01b600052604160045260246000fd5b51906001600160a01b038216820361010d5756fe60e0604052600436101561001257600080fd5b60003560e01c8063068bcd8d14613825578063195ec9ee146137595780632274346b14613730578063248a75b71461370757806325f11e8d146136d35780632607b53914612d5657806329ba7bb214612d2d578063318667631461277857806334808ec31461274f57806335c1d3491461270d5780633dc66ad3146123fc57806346f847951461141a578063494bdf4e146123aa5780634f7210eb1461202b5780635aa6e675146120025780635cfab35c14611c405780635f267c5514611c175780636817031b14611b3a5780636d00696c14611a9f5780636f60537d14611a76578063715018a614611a195780637c366cc61461193c5780637eb111f01461180957806383bc6357146114ac5780638da5cb5b146114835780638f2446301461145457806396f3a8ad1461141a578063996b8a6f146113f15780639abd9b05146113665780639fd36b151461130b578063a2a8baaf14610e79578063a4948d8514610e1a578063a69ddee614610d7d578063ab033ea914610c8e578063ac4afa3814610b63578063b5d90c2814610b3a578063c039a53f14610aab578063d86c04441461094c578063d88ff1f414610636578063e9e0c8b614610364578063f2fde38b146102da578063f525cb68146102bc578063f6e80558146102935763fee721ed1461020057600080fd5b3461028e5761020e36613c1a565b9060018060a01b03600c54163314801561027a575b61022c90614136565b6000526003602052604060002090815491600160401b831015610264578261025c91600161026295018155614181565b9061419d565b005b634e487b7160e01b600052604160045260246000fd5b50600f546001600160a01b03163314610223565b600080fd5b3461028e57600036600319011261028e576007546040516001600160a01b039091168152602090f35b3461028e57600036600319011261028e576020600554604051908152f35b3461028e57602036600319011261028e576102f3613b47565b6102fb614706565b6001600160a01b0316801561034e57600180546001600160a01b0319811683179091556001600160a01b03167f8be0079c531659141344cd1fd0a4f28419497f9722a3daafe3b4186f6b6457e0600080a3005b631e4fbdf760e01b600052600060045260246000fd5b3461028e57604036600319011261028e57600435610380613b5d565b600061012060405161039181613ad2565b8281528260208201528260408201528260608201528260808201528260a08201528260c08201528260e082015282610100820152015260018060a01b0381166000526002602052604060002082600052602052604060002060008052602052604060002090604051809261040482613ad2565b80546001600160a01b03168252600181015460208301908152600282015460408401908152600383015460608501908152600484015492979260808601919060ff1661044f81613995565b825260058501549260a087019384526104de602060068801549660c08a0197885260ff600960078b01549a60e08d019b8c5261010060088201549d019c8d520154169a6101208d019b6104a1816139b5565b8c52600754604051630414960560e21b81526001600160a01b03928316600482015260248101939093529193849290911690829081906044820190565b03915afa90811561062a576000916105f5575b50806105e5575061051e6201518061051687515b428a518042116105dd575b50613ef1565b048351613ede565b87528551428111610591575061014099600085525b604080519a516001600160a01b03168b52905160208b01529051908901525160608801525161056181613995565b60808701525160a08601525160c08501525160e08401525161010083015251610589816139b5565b610120820152f35b61059c904290613ef1565b99620151808b019a8b81116105c7576201517f019a8b116105c757620151806101409b048552610533565b634e487b7160e01b600052601160045260246000fd5b90508f610510565b6201518061051661051e92610505565b906020823d602011610622575b8161060f60209383613b26565b8101031261061f5750518b6104f1565b80fd5b3d9150610602565b6040513d6000823e3d90fd5b3461028e57600036600319011261028e5760055461065381613f53565b906106616040519283613b26565b808252601f1961067082613f53565b0160005b81811061093557505060016080525b8060805111156106f557506040518091602082016020835281518091526040830190602060408260051b8601019301916000905b8282106106c657505050500390f35b919360019193955060206106e58192603f198a820301865288516139bf565b96019201920185949391926106b7565b6080516000526004602052604060002060405161071181613a9b565b81548152604051806107268160018601613dcb565b036107319082613b26565b60208201908152600283015460ff1690604083019161074f81613995565b825260038401549360608401948552600481015460808501908152600582015460a08601908152600683015460c08701908152600784015460e0880190815260088501549061010089019182526009860154926101208a01938452600a87015460ff16946101408b019515158652600b880154966101608c01978852600c890154986101808d01998a52600d01549a8b9a8d6101a081019c60ff168d526101c0019c8d600160a01b600190038260081c16905260a81c60ff169d6101e0019d8e610818826139b5565b525160c052519c6108288e613995565b519051915192519351945195519651151597519851995160ff169a600160a01b600190039051169b519c61085b8e6139b5565b60405160a05260a05161086d90613a9b565b60805160a0515260c05160a0516020015261088781613995565b60a0516040015260a0516060015260a0516080015260a05160a0015260a05160c0015260a05160e0015260a051610100015260a051610120015260a051610140015260a051610160015260a051610180015260a0516101a0015260a0516101c001526108f2816139b5565b60a0516101e0015260805160001981019081116105c7576109219060a05161091a8286613f16565b5283613f16565b5061092d608051613f44565b608052610683565b602090610940613e4e565b82828701015201610674565b3461028e57606036600319011261028e5760043560243560443561096e614706565b82600052600460205260ff600a604060002001541615610a5b578115610a285780156109ea577f17b8644f386d1c7c7138ef98b3c8035622bbe94d7be9b26f71d2654a547c29439160409184600052600460205281600384600020015584600052600460205280600484600020015582519182526020820152a2005b60405162461bcd60e51b8152602060048201526016602482015275125b9d985b1a59081b5a5b9a5b5d5b481c195c9a5bd960521b6044820152606490fd5b60405162461bcd60e51b815260206004820152600b60248201526a496e76616c69642041505960a81b6044820152606490fd5b60405162461bcd60e51b815260206004820152602260248201527f506f6f6c20646f6573206e6f74206578697374206f7220697320696e61637469604482015261766560f01b6064820152608490fd5b3461028e57610ab936613d5e565b9190610ac36146e4565b600e546001600160a01b031633148015610b26575b610ae1906140a8565b60018060a01b03166000526002602052604060002090600052602052604060002090610b0c816139b5565b600052602052600060016040822001556001600055600080f35b50600f546001600160a01b03163314610ad8565b3461028e57600036600319011261028e576009546040516001600160a01b039091168152602090f35b3461028e57602036600319011261028e57600435600052600460205260406000208054906040519081806001830190610b9b91613dcb565b03610ba69083613b26565b600281015460ff16906003810154906004810154906005810154600682015460078301546008840154600985015491600a86015460ff1693600b87015495600c88015497600d0154988960a81c60ff169a6040519e8f9e8f9182526020820161020090526102008201610c1891613970565b9d610c2281613995565b60408201526060015260808d015260a08c015260c08b015260e08a0152610100890152610120880152151561014087015261016086015261018085015260ff81166101a085015260081c6001600160a01b03166101c0840152610c84816139b5565b6101e08301520390f35b3461028e57602036600319011261028e57610ca7613b47565b610caf614706565b600654906001600160a01b038216610d3f576001600160a01b0316908115610cf0576001600160a01b03199081168217600655600980549091169091179055005b60405162461bcd60e51b815260206004820152602160248201527f476f7665726e616e636520616464726573732063616e6e6f74206265207a65726044820152606f60f81b6064820152608490fd5b60405162461bcd60e51b815260206004820152601660248201527511dbdd995c9b985b98d948185b1c9958591e481cd95d60521b6044820152606490fd5b3461028e57602036600319011261028e57610d96613b47565b610d9e614706565b600e54906001600160a01b038216610dd5576001600160a01b031690610dc5821515614050565b6001600160a01b03191617600e55005b60405162461bcd60e51b815260206004820152601960248201527f506f6f6c2043616e697374657220616c726561647920736574000000000000006044820152606490fd5b3461028e57610e2836613d48565b9060018060a01b03600c541633148015610e65575b610e4690614136565b6000526004602052610e61600b604060002001918254613ef1565b9055005b50600f546001600160a01b03163314610e3d565b3461028e57610e8736613d5e565b604051610e9381613aee565b600080825260208083018290526040808401839052606084018390526080840183905260a0840183905260c0840183905260e084018390526101008401839052610120840183905261014084018390526101609093018290526001600160a01b03851682526002815282822086835290522090610f0f816139b5565b600052602052604060002060405192610f2784613ad2565b600160a01b600190038254168452600182015492602085019384526002830154926040860193845260038101549060608701918252600481015460ff166080880190610f7281613995565b8152600582015460a0890190815260068301549060c08a0191825260078401549260e08b019384526008850154946101008c019586526009015460ff16956101208c0196610fbf816139b5565b875288600052600460205260406000209760405198610fdd8a613a9b565b80548a5260405180610ff28160018501613dcb565b03610ffd9082613b26565b60208b0152600281015460ff1661101381613995565b60408b0152600381015460608b0152600481015460808b0152600581015460a08b0152600681015460c08b0152600781015460e08b015260088101546101008b015260098101546101208b0152600a81015460ff1615156101408b0152600b8101546101608b0152600c8101546101808b0152600d01549960ff8b166101a08b01526101c08a019a600160a01b600190038160081c168c5260a81c60ff16996101e001996110c0816139b5565b8a52600754604051630414960560e21b81526001600160a01b0393841660048201526024810192909252909116816044815a93602094fa90811561062a576000916112d9575b50806112c957506111326201518061112a86515b4289518042116112c15750613ef1565b048251613ede565b8652845142811161128b57506101809b600084525b519a519951905191516001600160a01b03909b169a9261116684613995565b51935194519551965197611179896139b5565b51986111848a6139b5565b516040519b6001600160a01b039091169a9061119f8d613aee565b8c5260208c0190815260408c0191825260608c0192835260808c01936111c481613995565b845260a08c0194855260c08c0195865260e08c019687526101008c019788526101208c01986111f2816139b5565b89526101408c0199611203816139b5565b8a526101608c019a8b52604080519c516001600160a01b03168d52905160208d01529051908b01525160608a01525161123b81613995565b60808901525160a08801525160c08701525160e08601525161010085015251611263816139b5565b61012084015251611273816139b5565b610140830152516001600160a01b0316610160820152f35b611296904290613ef1565b9b620151808d019c8d81116105c7576201517f019c8d116105c757620151806101809d048452611147565b905038610510565b6201518061112a6111329261111a565b906020823d602011611303575b816112f360209383613b26565b8101031261061f5750518d611106565b3d91506112e6565b3461028e5761131936613d48565b9060018060a01b03600c541633148015611352575b61133790614136565b6000526004602052610e61600b604060002001918254613ec4565b50600f546001600160a01b0316331461132e565b3461028e57602036600319011261028e57600435611382614706565b80600052600460205260ff600a6040600020015416156113b7576000908152600460205260409020600a01805460ff19169055005b60405162461bcd60e51b8152602060048201526012602482015271506f6f6c206973206e6f742061637469766560701b6044820152606490fd5b3461028e57600036600319011261028e57600b546040516001600160a01b039091168152602090f35b3461028e57602036600319011261028e576001600160a01b0361143b613b47565b1660005260116020526020604060002054604051908152f35b3461028e57602036600319011261028e5760043560005260046020526020600660406000200154604051908152f35b3461028e57600036600319011261028e576001546040516001600160a01b039091168152602090f35b3461028e57606036600319011261028e576114c5613b47565b602435604435600281101561028e576114dc6146e4565b600d546001600160a01b0316331480156117f5575b156117b15781600052600460205260406000209260018060a01b031690816000526002602052604060002083600052602052604060002090611532816139b5565b6000526020526040600020916115b36001840193845490611554821515613f6a565b60016004820191611583600784549261157960ff851661157381613995565b15613fc0565b0154421015614004565b60ff191617905561159960068701918254613ef1565b80915560646115ac82600c890154613ede565b0490613ef1565b6115c460ff600d8701541682613ede565b60088601556007850155600052600360205260406000209283546115e781613f53565b946115f56040519687613b26565b818652602086019060005260206000206000915b8383106116c9575050505060005b8451811015611687576007546001600160a01b0316906116378187613f16565b5151823b1561028e5760009260248492604051958693849263106b5da160e01b845260048401525af191821561062a57600192611676575b5001611617565b600061168191613b26565b8661166f565b5060017f485f1bb6524c663555797e00171a10f341656e59b02d6b557a0a38ba7d5d9751916116bf8554604051938493019083613f2a565b0390a26001600055005b600b60206001926040516116dc81613aee565b855481526040516116fa816116f381898b01613dcb565b0382613b26565b8382015260ff60028701541661170f81613995565b6040820152604051611728816116f38160038b01613dcb565b606082015260048601546080820152600586015460a0820152600686015460c0820152600786015460e08201526008860154610100820152604051611774816116f38160098b01613dcb565b610120820152600a86015460ff811661178c816139b5565b610140830152858060a01b039060081c16610160820152815201920192019190611609565b606460405162461bcd60e51b815260206004820152602060248201527f43616c6c6572206973206e6f7420746865207661756c7420636f6e74726163746044820152fd5b50600f546001600160a01b031633146114f1565b3461028e57602036600319011261028e576118256004356145bb565b6040518091602082016020835281518091526040830190602060408260051b8601019301916000905b82821061185d57505050500390f35b919360019193955060208091603f19898203018552875190815181526101606119086118c061189b8686015161018088870152610180860190613970565b60408601516118a981613995565b604086015260608601518582036060870152613970565b6080850151608085015260a085015160a085015260c085015160c085015260e085015160e0850152610100850151610100850152610120850151848203610120860152613970565b92610140810151611918816139b5565b61014084015281878060a01b0391015116910152960192019201859493919261184e565b3461028e57602036600319011261028e57611955613b47565b61195d614706565b600c54906001600160a01b0382166119e0576001600160a01b031690811561199b57600780546001600160a01b031990811684179091551617600c55005b60405162461bcd60e51b815260206004820152601c60248201527f436f76657220616464726573732063616e6e6f74206265207a65726f000000006044820152606490fd5b60405162461bcd60e51b815260206004820152601160248201527010dbdd995c88185b1c9958591e481cd95d607a1b6044820152606490fd5b3461028e57600036600319011261028e57611a32614706565b600180546001600160a01b031981169091556000906001600160a01b03167f8be0079c531659141344cd1fd0a4f28419497f9722a3daafe3b4186f6b6457e08280a3005b3461028e57600036600319011261028e576008546040516001600160a01b039091168152602090f35b3461028e57611aad36613c1a565b600c546001600160a01b031633148015611b26575b611acb90614136565b60005b82600052600360205260406000205481101561026257826000526003602052611afb816040600020614181565b5054825114611b0c57600101611ace565b61025c906102629360005260036020526040600020614181565b50600f546001600160a01b03163314611ac2565b3461028e57602036600319011261028e57611b53613b47565b611b5b614706565b600d54906001600160a01b038216611bde576001600160a01b0316908115611b9957600880546001600160a01b031990811684179091551617600d55005b60405162461bcd60e51b815260206004820152601c60248201527f5661756c7420616464726573732063616e6e6f74206265207a65726f000000006044820152606490fd5b60405162461bcd60e51b815260206004820152601160248201527015985d5b1d08185b1c9958591e481cd95d607a1b6044820152606490fd5b3461028e57600036600319011261028e57600e546040516001600160a01b039091168152602090f35b3461028e57602036600319011261028e576004356001600160401b03811161028e57610120600319823603011261028e5760405190611c7e82613b0a565b806004013582526024810135600381101561028e576020830190815260448201356001600160401b03811161028e57611cbd9060043691850101613bd3565b9260408101938452606081016064840135815260808201926084850135845260a48501359060ff8216820361028e5760a0840191825260c084019060c4870135825260e487013596600288101561028e57610104611d229160e08801998a5201613b73565b956101008601968752611d33614706565b8751611d3e816139b5565b611d47816139b5565b158015611fef575b15611faa57600554600181018091116105c7576005558551600052600460205260406000209486518655895160018701908051906001600160401b03821161026457611d9b8354613d91565b601f8111611f62575b50602090601f8311600114611ef1579180611e2796949260ff99989694600092611ee6575b50508160011b916000199060031b1c19161790555b51600388015560006005880155516004870155600060068701556000600887015560006007870155600a86016001851982541617905551611e1e81613995565b60028601613efe565b519182600c850155511693600d83019182549060640395606487116105c7577ff01906dc0ac306fa816e50166a7ed46af1f05721cb90cea30beebdd8dede3a6d97611ee197600b611eca97015551611e7e816139b5565b611e87816139b5565b9251610100600160a81b0360089190911b1660ff60a81b60a89490941b939093166001600160b01b031992909216610100600160a81b0319919091161717179055565b519251604051918291602083526020830190613970565b0390a2005b015190508f80611dc9565b90601f1983169184600052816000209260005b818110611f4a575092600192859260ff9b9a9896611e279a989610611f31575b505050811b019055611dde565b015160001960f88460031b161c191690558f8080611f24565b92936020600181928786015181550195019301611f04565b836000526020600020601f840160051c81019160208510611fa0575b601f0160051c01905b818110611f945750611da4565b60008155600101611f87565b9091508190611f7e565b60405162461bcd60e51b815260206004820152601760248201527f57726f6e6720417373657420666f72204465706f7369740000000000000000006044820152606490fd5b5086516001600160a01b03161515611d4f565b3461028e57600036600319011261028e576006546040516001600160a01b039091168152602090f35b3461028e57604036600319011261028e57600435612047613b5d565b61204f6146e4565b600e546001600160a01b031633148015612396575b61206d906140a8565b600954604051633b4d01a760e01b815260048101849052906000908290602490829084906001600160a01b03165af1801561062a5760009061221e575b610100915001519060a0820192835160005260046020526120fa60c0604060002094019485516120df60098701918254613ec4565b905585516120f260068701918254613ef1565b9055516145bb565b9360005b855181101561216e576007546001600160a01b03169061211e8188613f16565b5151823b1561028e5760009260248492604051958693849263106b5da160e01b845260048401525af191821561062a5760019261215d575b50016120fe565b600061216891613b26565b87612156565b506009546001600160a01b0316918490833b1561028e5760009360248592604051968793849263f1b4bf9d60e01b845260048401525af191821561062a577f415071086c9ea63f7f39884c21a8af430af53bfd511a362dff69cabcb1b8bcc1936121f19361220d575b505193604051928392604084526001604085019101613dcb565b60208301959095526001600160a01b0316930390a26001600055005b600061221891613b26565b856121d7565b3d8082843e61222d8184613b26565b82019160208184031261238a578051906001600160401b03821161238e5701916101208382031261238a576040519261226584613b0a565b805184526020810151602085015260408101516040850152606081015160608501526080810151608085015260a081015160a085015260c081015160058110156123925760c08501526122ba60e08201613ed1565b60e0850152610100810151906001600160401b03821161239257019060e08282031261238e57604051926122ed84613ab7565b82516001600160a01b038116810361238a5784526020830151600381101561238a5760208501526040830151604085015260608301516001600160401b03811161238a578261233d9185016140f4565b60608501526080830151906001600160401b03821161061f57509161236b60c09261010096959483016140f4565b608084015260a081015160a0840152015160c0820152828201526120aa565b5080fd5b8280fd5b8380fd5b50600f546001600160a01b03163314612064565b3461028e57602036600319011261028e576123c3613b47565b6123cb614706565b6001600160a01b03166123df811515614050565b6bffffffffffffffffffffffff60a01b600e541617600e55600080f35b3461028e57602036600319011261028e576004356124186146e4565b8060005260046020526040600020903360005260026020526040600020816000526020526040600020600080526020526040600020906124bf6001830192835490612464821515613f6a565b60026004820191612483600784549261157960ff851661157381613995565b60ff191617905561249960058601918254613ef1565b80915583546124ad60068701918254613ef1565b905560646115ac82600c880154613ede565b6124d060ff600d8601541682613ede565b60088501556007840155600052600360205260406000209182546124f381613f53565b936125016040519586613b26565b818552602085019060005260206000206000915b83831061262c575050505060005b8351811015612593576007546001600160a01b0316906125438186613f16565b5151823b1561028e5760009260248492604051958693849263106b5da160e01b845260048401525af191821561062a57600192612582575b5001612523565b600061258d91613b26565b8561257b565b50600a5482549192906001600160a01b0316803b1561028e57604051632770a7eb60e21b815233600482015260248101939093526000908390604490829084905af190811561062a577f485f1bb6524c663555797e00171a10f341656e59b02d6b557a0a38ba7d5d9751926116bf9261261b575b505460405191829160013396019083613f2a565b600061262691613b26565b84612607565b600b602060019260405161263f81613aee565b85548152604051612656816116f381898b01613dcb565b8382015260ff60028701541661266b81613995565b6040820152604051612684816116f38160038b01613dcb565b606082015260048601546080820152600586015460a0820152600686015460c0820152600786015460e082015260088601546101008201526040516126d0816116f38160098b01613dcb565b610120820152600a86015460ff81166126e8816139b5565b610140830152858060a01b039060081c16610160820152815201920192019190612515565b3461028e57602036600319011261028e5760043560105481101561028e57612736602091613b87565b905460405160039290921b1c6001600160a01b03168152f35b3461028e57600036600319011261028e57600a546040516001600160a01b039091168152602090f35b3461028e57602036600319011261028e57612791613b47565b6005546001600160a01b038216916000919060015b82811115612cdb57506127b883613f53565b936127c66040519586613b26565b838552601f196127d585613f53565b0160005b818110612c7c5750508315612c375760009360015b848111156128c857866040518091602082016020835281518091526040830190602060408260051b8601019301916000905b82821061282f57505050500390f35b919360019193955060208091603f198982030185528751906101208061286084516101408552610140850190613970565b93858101518685015260408101516040850152606081015160608501526080810151608085015260a081015160a085015260c081015160c085015260e081015160e0850152610100810151151561010085015201519101529601920192018594939192612820565b826000526002602052604060002081600052602052604060002060008052602052600160406000200154612905575b61290090613f44565b6127ee565b81861015612bfc5780600052600460205260406000209560405161292881613a9b565b8754815260405190612948826129418160018d01613dcb565b0383613b26565b6020810191825260ff60028a01541661296081613995565b604082015260038901549860608201998a5260048101549160808101928352600582015460a08201908152600683015460c0830152600783015460e0830152600883015461010083015260098301549161012081019283526101e060ff600d81600a880154169661014085019715158852600b810154610160860152600c81015461018086015201548181166101a085015260018060a01b038160081c166101c085015260a81c1691612a12836139b5565b0152886000526002602052604060002087600052602052604060002060008052602052612b056040600020604051612a4981613ad2565b60018060a01b038254168152600182015460208201526002820154604082015261012060ff60096003850154946060850195865282600482015416612a8d81613995565b6080860152600581015460a0860152600681015460c0860152600781015460e0860152600881015461010086015201541691612ac8836139b5565b01526007546040516339e671f760e11b81526001600160a01b03808f166004830152602482018c9052909360209285921690829081906044820190565b03915afa91821561062a57600092612bc9575b505190612b2491613ede565b945160008a81526002602090815260408083208b845282528083208380529091529081902060038101546001909101549e51965193519451955191519e91151596928f9190612b7283613ad2565b82528a602083015260408201526060015260808d015260a08c015260c08b015260e08a015261010089015261012088015280612bad90613f44565b96612bb8828a613f16565b52612bc39088613f16565b506128f7565b90916020823d8211612bf4575b81612be360209383613b26565b8101031261061f575051908f612b18565b3d9150612bd6565b60405162461bcd60e51b8152602060048201526013602482015272496e646578206f7574206f6620626f756e647360681b6044820152606490fd5b60405162461bcd60e51b815260206004820152601a60248201527f4e6f20706f6f6c7320666f756e6420666f7220616464726573730000000000006044820152606490fd5b602090604051612c8b81613ad2565b60608152600083820152600060408201526000606082015260006080820152600060a0820152600060c0820152600060e08201526000610100820152600061012082015282828a010152016127d9565b846000526002602052604060002081600052602052604060002060008052602052600160406000200154612d18575b612d1390613f44565b6127a6565b92612d25612d1391613f44565b939050612d0a565b3461028e57600036600319011261028e57600f546040516001600160a01b039091168152602090f35b60e036600319011261028e576040516000612d7082613ab7565b612d78613b47565b8252602082019160243583526040810160443581526060820190606435825260843560028110156136cf576080840190815260a4359160028310156136cb5760a0850192835260c435936001600160a01b03851685036136c75760c08601948552612de16146e4565b875187526004602052604087209460ff600a870154161561367757600d860194855460ff8160a81c169151612e15816139b5565b612e1e816139b5565b612e27836139b5565b82036136235783516004890154116135eb5782516001600160a01b0390811660089290921c16036135a65787516001600160a01b03168952600260209081526040808b208c518c5290915289208551612e7f816139b5565b612e88816139b5565b8a52602052600160408a20015461354f57600190612ea5816139b5565b0361344a5782511561340557518651600e5484516040516323b872dd60e01b81526001600160a01b0393841660048201529183166024830152604482015291602091839160649183918d91165af1801561314b576133ca575b508151612f1060058701918254613ec4565b90558151612f2360068701918254613ec4565b90558151935b612f4f60ff612f46600689015460646115ac82600c8d0154613ede565b92541682613ede565b6008870155600786015561016d6064612f6c600388015487613ede565b04049260018060a01b038751169089519251808004600114811517156133b657899a926130d89492828b612fa56009959e9d9e42613ec4565b918d8c8c865199612fb58b6139b5565b60405198612fc28a613ad2565b8952602089019283526040890190815260608901918252608089019284845260a08a019586528c60c08b019742895260e08c01998a526101008c019a878c526101208d019e8f613011826139b5565b525161301c816139b5565b613025816139b5565b61331357516001600160a01b039081168752600260208181526040808a2094518a529381528389208980529052919096209a518b546001600160a01b0319169616959095178a555160018a0155519288019290925590516003870155516130989061308f81613995565b60048701613efe565b5160058501555160068401555160078301555160088201550190516130bc816139b5565b6130c5816139b5565b60ff801983541691161790555b516145bb565b93855b855181101561315a576007546001600160a01b0316906130fb8188613f16565b5151823b1561315657889260248492604051958693849263106b5da160e01b845260048401525af191821561314b578860019361313b575b5050016130db565b61314491613b26565b8a88613133565b6040513d8a823e3d90fd5b8880fd5b50601054869550879086805b8281106132db575b501561327b575b5080516001600160a01b03168652601160205260408620805460018101919082106132675755600a5481516001600160a01b0391821691889116823b1561238a57604051637104a76d60e11b81526001600160a01b0391909116600482015260248101889052918290604490829084905af1801561325c57879361323c600196947f6f85d9948d6ca3dd6ce6ce7d175da22b4e865827ae6fcd530ec7edac1240f9289460409b899561324c575b5050838060a01b0390511694518a51938493019083613f2a565b0390a25582519182526020820152f35b61325591613b26565b8b87613222565b6040513d89823e3d90fd5b634e487b7160e01b88526011600452602488fd5b81516001600160a01b031690600160401b8110156132c7578060016132a39201601055613b87565b81546001600160a01b0360039290921b91821b191692901b91909117905586613175565b634e487b7160e01b88526041600452602488fd5b6132e481613b87565b9054855160039290921b1c6001600160a01b0390811691161461330957600101613166565b505060018861316e565b516001600160a01b039081168752600260208181526040808a2094518a529381528389206001808b529152929097209b518c546001600160a01b0319169116178b559051908a0155519288019290925590516003870155516133789061308f81613995565b51600585015551600684015551600783015551600882015501905161339c816139b5565b6133a5816139b5565b60ff801983541691161790556130d2565b634e487b7160e01b8a52601160045260248afd5b6020813d6020116133fd575b816133e360209383613b26565b810103126133f9576133f490613ed1565b612efe565b8780fd5b3d91506133d6565b60405162461bcd60e51b815260206004820152601d60248201527f416d6f756e74206d7573742062652067726561746572207468616e20300000006044820152606490fd5b50341561351157868080803460018060a01b03600e54165af13d1561350c573d61347381613bb8565b906134816040519283613b26565b81528860203d92013e5b156134bb576005850161349f348254613ec4565b905581516134b260068701918254613ec4565b90553493612f29565b60405162461bcd60e51b8152602060048201526024808201527f4661696c656420746f2073656e6420457468657220746f20706f6f6c43616e6960448201526339ba32b960e11b6064820152608490fd5b61348b565b60405162461bcd60e51b81526020600482015260166024820152754465706f7369742063616e6e6f74206265207a65726f60501b6044820152606490fd5b60405162461bcd60e51b815260206004820152602960248201527f557365722068617320616c7265616479206465706f736974656420696e746f206044820152681d1a1a5cc81c1bdbdb60ba1b6064820152608490fd5b60405162461bcd60e51b815260206004820152601f60248201527f506f6f6c20646f6573206e6f74206163636570742074686973206173736574006044820152606490fd5b60405162461bcd60e51b815260206004820152601060248201526f14195c9a5bd9081d1bdbc81cda1bdc9d60821b6044820152606490fd5b60405162461bcd60e51b815260206004820152602660248201527f506f6f6c20646f6573206e6f74206163636570742074686973206465706f736960448201526574207479706560d01b6064820152608490fd5b60405162461bcd60e51b815260206004820152602260248201527f506f6f6c20697320696e616374697665206f7220646f6573206e6f74206578696044820152611cdd60f21b6064820152608490fd5b8680fd5b8580fd5b8480fd5b3461028e57602036600319011261028e576004356000526004602052602060ff600a60406000200154166040519015158152f35b3461028e57600036600319011261028e57600c546040516001600160a01b039091168152602090f35b3461028e57600036600319011261028e57600d546040516001600160a01b039091168152602090f35b3461028e57600036600319011261028e576040518060206010549283815201809260106000527f1b6847dc741a1b0cd08d278845f9d819d87b734759afb55fe2de5cb82a9ae6729060005b81811061380657505050816137ba910382613b26565b6040519182916020830190602084525180915260408301919060005b8181106137e4575050500390f35b82516001600160a01b03168452859450602093840193909201916001016137d6565b82546001600160a01b03168452602090930192600192830192016137a4565b3461028e57602036600319011261028e5761383e613e4e565b506004356000526004602052613949604060002060ff600d6040519261386384613a9b565b8054845260405161387b816116f38160018601613dcb565b60208501528260028201541661389081613995565b60408501526003810154606085015260048101546080850152600581015460a0850152600681015460c0850152600781015460e08501526008808201546101008601526009820154610120860152600a82015484161515610140860152600b820154610160860152600c8201546101808601529101548083166101a08501529081901c6001600160a01b03166101c084015260a81c1661392f816139b5565b6101e08201526040519182916020835260208301906139bf565b0390f35b60005b8381106139605750506000910152565b8181015183820152602001613950565b906020916139898151809281855285808601910161394d565b601f01601f1916010190565b6003111561399f57565b634e487b7160e01b600052602160045260246000fd5b6002111561399f57565b90815181526101e0806139e360208501516102006020860152610200850190613970565b9360408101516139f281613995565b6040850152606081015160608501526080810151608085015260a081015160a085015260c081015160c085015260e081015160e0850152610100810151610100850152610120810151610120850152610140810151151561014085015261016081015161016085015261018081015161018085015260ff6101a0820151166101a085015260018060a01b036101c0820151166101c0850152015191613a96836139b5565b015290565b61020081019081106001600160401b0382111761026457604052565b60e081019081106001600160401b0382111761026457604052565b61014081019081106001600160401b0382111761026457604052565b61018081019081106001600160401b0382111761026457604052565b61012081019081106001600160401b0382111761026457604052565b90601f801991011681019081106001600160401b0382111761026457604052565b600435906001600160a01b038216820361028e57565b602435906001600160a01b038216820361028e57565b35906001600160a01b038216820361028e57565b601054811015613ba257601060005260206000200190600090565b634e487b7160e01b600052603260045260246000fd5b6001600160401b03811161026457601f01601f191660200190565b81601f8201121561028e57803590613bea82613bb8565b92613bf86040519485613b26565b8284526020838301011161028e57816000926020809301838601378301015290565b90604060031983011261028e57600435916024356001600160401b03811161028e57610180818303600319011261028e5760405191613c5883613aee565b8160040135835260248201356001600160401b03811161028e57816004613c8192850101613bd3565b60208401526044820135600381101561028e57604084015260648201356001600160401b03811161028e57816004613cbb92850101613bd3565b60608401526084820135608084015260a482013560a084015260c482013560c084015260e482013560e0840152610104820135610100840152610124820135906001600160401b03821161028e576004613d1792840101613bd3565b610120830152610144810135600281101561028e57610140830152613d3f9061016401613b73565b61016082015290565b604090600319011261028e576004359060243590565b606090600319011261028e57600435906024356001600160a01b038116810361028e5790604435600281101561028e5790565b90600182811c92168015613dc1575b6020831014613dab57565b634e487b7160e01b600052602260045260246000fd5b91607f1691613da0565b60009291815491613ddb83613d91565b8083529260018116908115613e315750600114613df757505050565b60009081526020812093945091925b838310613e17575060209250010190565b600181602092949394548385870101520191019190613e06565b915050602093945060ff929192191683830152151560051b010190565b60405190613e5b82613a9b565b60006101e083828152606060208201528260408201528260608201528260808201528260a08201528260c08201528260e08201528261010082015282610120820152826101408201528261016082015282610180820152826101a0820152826101c08201520152565b919082018092116105c757565b5190811515820361028e57565b818102929181159184041417156105c757565b919082039182116105c757565b90613f0881613995565b60ff80198354169116179055565b8051821015613ba25760209160051b010190565b604090613f41939281528160208201520190613dcb565b90565b60001981146105c75760010190565b6001600160401b0381116102645760051b60200190565b15613f7157565b60405162461bcd60e51b815260206004820152602160248201527f4e6f206465706f73697420666f756e6420666f722074686973206164647265736044820152607360f81b6064820152608490fd5b15613fc757565b60405162461bcd60e51b81526020600482015260156024820152744465706f736974206973206e6f742061637469766560581b6044820152606490fd5b1561400b57565b60405162461bcd60e51b815260206004820152601c60248201527f4465706f73697420706572696f6420686173206e6f7420656e646564000000006044820152606490fd5b1561405757565b60405162461bcd60e51b8152602060048201526024808201527f506f6f6c2043616e697374657220616464726573732063616e6e6f74206265206044820152637a65726f60e01b6064820152608490fd5b156140af57565b60405162461bcd60e51b815260206004820152601f60248201527f43616c6c6572206973206e6f742074686520706f6f6c2063616e6973746572006044820152606490fd5b81601f8201121561028e57805161410a81613bb8565b926141186040519485613b26565b8184526020828401011161028e57613f41916020808501910161394d565b1561413d57565b606460405162461bcd60e51b815260206004820152602060248201527f43616c6c6572206973206e6f742074686520636f76657220636f6e74726163746044820152fd5b8054821015613ba257600052600b602060002091020190600090565b906145a557815181556001810160208301518051906001600160401b0382116102645781906141cc8454613d91565b601f8111614552575b50602090601f83116001146144ed576000926144e2575b50508160011b916000199060031b1c19161790555b61421b604083015161421281613995565b60028301613efe565b6003810160608301518051906001600160401b0382116102645781906142418454613d91565b601f811161448f575b50602090601f831160011461442a5760009261441f575b50508160011b916000199060031b1c19161790555b6080820151600482015560a0820151600582015560c0820151600682015560e082015160078201556101008201516008820155600981016101208301518051906001600160401b038211610264576142ce8354613d91565b601f81116143d7575b50602090601f8311600114614368579180600a949261435b97969460009261435d575b50508160011b916000199060031b1c19161790555b0190610140810151614320816139b5565b614329816139b5565b825461016092909201516001600160a81b031990921660ff919091161760089190911b610100600160a81b0316179055565b565b0151905038806142fa565b90601f1983169184600052816000209260005b8181106143bf575092600192859261435b999896600a9896106143a6575b505050811b01905561430f565b015160001960f88460031b161c19169055388080614399565b9293602060018192878601518155019501930161437b565b836000526020600020601f840160051c81019160208510614415575b601f0160051c01905b81811061440957506142d7565b600081556001016143fc565b90915081906143f3565b015190503880614261565b60008581528281209350601f198516905b818110614477575090846001959493921061445e575b505050811b019055614276565b015160001960f88460031b161c19169055388080614451565b9293602060018192878601518155019501930161443b565b909150836000526020600020601f840160051c810191602085106144d8575b90601f859493920160051c01905b8181106144c9575061424a565b600081558493506001016144bc565b90915081906144ae565b0151905038806141ec565b60008581528281209350601f198516905b81811061453a5750908460019594939210614521575b505050811b019055614201565b015160001960f88460031b161c19169055388080614514565b929360206001819287860151815501950193016144fe565b909150836000526020600020601f840160051c8101916020851061459b575b90601f859493920160051c01905b81811061458c57506141d5565b6000815584935060010161457f565b9091508190614571565b634e487b7160e01b600052600060045260246000fd5b6000526003602052604060002080546145d381613f53565b916145e16040519384613b26565b818352602083019060005260206000206000915b838310614603575050505090565b600b602060019260405161461681613aee565b8554815260405161462d816116f381898b01613dcb565b8382015260ff60028701541661464281613995565b604082015260405161465b816116f38160038b01613dcb565b606082015260048601546080820152600586015460a0820152600686015460c0820152600786015460e082015260088601546101008201526040516146a7816116f38160098b01613dcb565b610120820152600a86015460ff81166146bf816139b5565b610140830152858060a01b039060081c166101608201528152019201920191906145f5565b6002600054146146f5576002600055565b633ee5aeb560e01b60005260046000fd5b6001546001600160a01b0316330361471a57565b63118cdaa760e01b6000523360045260246000fdfea264697066735822122030f6faceedf7026a7c4078da24d227799d00e81ef4704604a7a765a87e2d090c64736f6c634300081c0033",
  "linkReferences": {},
  "deployedLinkReferences": {}
}