{
  "_format": "hh-sol-artifact-1",
  "contractName": "InsurancePool",
  "sourceName": "contracts/InsurancePool.sol",
  "abi": [
    {
      "inputs": [
        {
          "internalType": "address",
          "name": "_initialOwner",
          "type": "address"
        },
        {
          "internalType": "address",
          "name": "_bqBTC",
          "type": "address"
        }
      ],
      "stateMutability": "nonpayable",
      "type": "constructor"
    },
    {
      "inputs": [
        {
          "internalType": "address",
          "name": "owner",
          "type": "address"
        }
      ],
      "name": "OwnableInvalidOwner",
      "type": "error"
    },
    {
      "inputs": [
        {
          "internalType": "address",
          "name": "account",
          "type": "address"
        }
      ],
      "name": "OwnableUnauthorizedAccount",
      "type": "error"
    },
    {
      "inputs": [],
      "name": "ReentrancyGuardReentrantCall",
      "type": "error"
    },
    {
      "anonymous": false,
      "inputs": [
        {
          "indexed": false,
          "internalType": "uint256",
          "name": "",
          "type": "uint256"
        },
        {
          "indexed": false,
          "internalType": "uint256",
          "name": "",
          "type": "uint256"
        },
        {
          "indexed": false,
          "internalType": "address",
          "name": "",
          "type": "address"
        }
      ],
      "name": "ClaimAttempt",
      "type": "event"
    },
    {
      "anonymous": false,
      "inputs": [
        {
          "indexed": true,
          "internalType": "address",
          "name": "recipient",
          "type": "address"
        },
        {
          "indexed": false,
          "internalType": "string",
          "name": "pool",
          "type": "string"
        },
        {
          "indexed": false,
          "internalType": "uint256",
          "name": "amount",
          "type": "uint256"
        }
      ],
      "name": "ClaimPaid",
      "type": "event"
    },
    {
      "anonymous": false,
      "inputs": [
        {
          "indexed": true,
          "internalType": "address",
          "name": "user",
          "type": "address"
        },
        {
          "indexed": false,
          "internalType": "uint256",
          "name": "amount",
          "type": "uint256"
        },
        {
          "indexed": false,
          "internalType": "string",
          "name": "pool",
          "type": "string"
        }
      ],
      "name": "Deposited",
      "type": "event"
    },
    {
      "anonymous": false,
      "inputs": [
        {
          "indexed": true,
          "internalType": "address",
          "name": "previousOwner",
          "type": "address"
        },
        {
          "indexed": true,
          "internalType": "address",
          "name": "newOwner",
          "type": "address"
        }
      ],
      "name": "OwnershipTransferred",
      "type": "event"
    },
    {
      "anonymous": false,
      "inputs": [
        {
          "indexed": true,
          "internalType": "uint256",
          "name": "id",
          "type": "uint256"
        },
        {
          "indexed": false,
          "internalType": "string",
          "name": "poolName",
          "type": "string"
        }
      ],
      "name": "PoolCreated",
      "type": "event"
    },
    {
      "anonymous": false,
      "inputs": [
        {
          "indexed": true,
          "internalType": "uint256",
          "name": "poolId",
          "type": "uint256"
        },
        {
          "indexed": false,
          "internalType": "uint256",
          "name": "apy",
          "type": "uint256"
        },
        {
          "indexed": false,
          "internalType": "uint256",
          "name": "_minPeriod",
          "type": "uint256"
        }
      ],
      "name": "PoolUpdated",
      "type": "event"
    },
    {
      "anonymous": false,
      "inputs": [
        {
          "indexed": true,
          "internalType": "address",
          "name": "user",
          "type": "address"
        },
        {
          "indexed": false,
          "internalType": "uint256",
          "name": "amount",
          "type": "uint256"
        },
        {
          "indexed": false,
          "internalType": "string",
          "name": "pool",
          "type": "string"
        }
      ],
      "name": "Withdraw",
      "type": "event"
    },
    {
      "inputs": [],
      "name": "ICoverContract",
      "outputs": [
        {
          "internalType": "contract ICover",
          "name": "",
          "type": "address"
        }
      ],
      "stateMutability": "view",
      "type": "function"
    },
    {
      "inputs": [],
      "name": "IGovernanceContract",
      "outputs": [
        {
          "internalType": "contract IGov",
          "name": "",
          "type": "address"
        }
      ],
      "stateMutability": "view",
      "type": "function"
    },
    {
      "inputs": [],
      "name": "IVaultContract",
      "outputs": [
        {
          "internalType": "contract IVault",
          "name": "",
          "type": "address"
        }
      ],
      "stateMutability": "view",
      "type": "function"
    },
    {
      "inputs": [
        {
          "internalType": "uint256",
          "name": "_poolId",
          "type": "uint256"
        },
        {
          "components": [
            {
              "internalType": "uint256",
              "name": "id",
              "type": "uint256"
            },
            {
              "internalType": "string",
              "name": "coverName",
              "type": "string"
            },
            {
              "internalType": "enum CoverLib.RiskType",
              "name": "riskType",
              "type": "uint8"
            },
            {
              "internalType": "string",
              "name": "chains",
              "type": "string"
            },
            {
              "internalType": "uint256",
              "name": "capacity",
              "type": "uint256"
            },
            {
              "internalType": "uint256",
              "name": "cost",
              "type": "uint256"
            },
            {
              "internalType": "uint256",
              "name": "capacityAmount",
              "type": "uint256"
            },
            {
              "internalType": "uint256",
              "name": "coverValues",
              "type": "uint256"
            },
            {
              "internalType": "uint256",
              "name": "maxAmount",
              "type": "uint256"
            },
            {
              "internalType": "uint256",
              "name": "poolId",
              "type": "uint256"
            },
            {
              "internalType": "string",
              "name": "CID",
              "type": "string"
            }
          ],
          "internalType": "struct CoverLib.Cover",
          "name": "_cover",
          "type": "tuple"
        }
      ],
      "name": "addPoolCover",
      "outputs": [],
      "stateMutability": "nonpayable",
      "type": "function"
    },
    {
      "inputs": [],
      "name": "bqBTC",
      "outputs": [
        {
          "internalType": "contract IbqBTC",
          "name": "",
          "type": "address"
        }
      ],
      "stateMutability": "view",
      "type": "function"
    },
    {
      "inputs": [],
      "name": "bqBTCAddress",
      "outputs": [
        {
          "internalType": "address",
          "name": "",
          "type": "address"
        }
      ],
      "stateMutability": "view",
      "type": "function"
    },
    {
      "inputs": [
        {
          "internalType": "uint256",
          "name": "_proposalId",
          "type": "uint256"
        }
      ],
      "name": "claimProposalFunds",
      "outputs": [],
      "stateMutability": "nonpayable",
      "type": "function"
    },
    {
      "inputs": [],
      "name": "coverContract",
      "outputs": [
        {
          "internalType": "address",
          "name": "",
          "type": "address"
        }
      ],
      "stateMutability": "view",
      "type": "function"
    },
    {
      "inputs": [
        {
          "internalType": "uint256",
          "name": "poolId",
          "type": "uint256"
        },
        {
          "internalType": "enum CoverLib.RiskType",
          "name": "_riskType",
          "type": "uint8"
        },
        {
          "internalType": "string",
          "name": "_poolName",
          "type": "string"
        },
        {
          "internalType": "uint256",
          "name": "_apy",
          "type": "uint256"
        },
        {
          "internalType": "uint256",
          "name": "_minPeriod",
          "type": "uint256"
        },
        {
          "internalType": "uint8",
          "name": "_leverage",
          "type": "uint8"
        },
        {
          "internalType": "uint256",
          "name": "investmentarm",
          "type": "uint256"
        },
        {
          "internalType": "enum CoverLib.AssetDepositType",
          "name": "adt",
          "type": "uint8"
        },
        {
          "internalType": "address",
          "name": "asset",
          "type": "address"
        }
      ],
      "name": "createPool",
      "outputs": [],
      "stateMutability": "nonpayable",
      "type": "function"
    },
    {
      "inputs": [
        {
          "internalType": "uint256",
          "name": "_poolId",
          "type": "uint256"
        }
      ],
      "name": "deactivatePool",
      "outputs": [],
      "stateMutability": "nonpayable",
      "type": "function"
    },
    {
      "inputs": [
        {
          "components": [
            {
              "internalType": "address",
              "name": "depositor",
              "type": "address"
            },
            {
              "internalType": "uint256",
              "name": "poolId",
              "type": "uint256"
            },
            {
              "internalType": "uint256",
              "name": "amount",
              "type": "uint256"
            },
            {
              "internalType": "uint256",
              "name": "period",
              "type": "uint256"
            },
            {
              "internalType": "enum CoverLib.DepositType",
              "name": "pdt",
              "type": "uint8"
            },
            {
              "internalType": "enum CoverLib.AssetDepositType",
              "name": "adt",
              "type": "uint8"
            },
            {
              "internalType": "address",
              "name": "asset",
              "type": "address"
            }
          ],
          "internalType": "struct CoverLib.DepositParams",
          "name": "depositParam",
          "type": "tuple"
        }
      ],
      "name": "deposit",
      "outputs": [
        {
          "internalType": "uint256",
          "name": "",
          "type": "uint256"
        },
        {
          "internalType": "uint256",
          "name": "",
          "type": "uint256"
        }
      ],
      "stateMutability": "payable",
      "type": "function"
    },
    {
      "inputs": [],
      "name": "getAllParticipants",
      "outputs": [
        {
          "internalType": "address[]",
          "name": "",
          "type": "address[]"
        }
      ],
      "stateMutability": "view",
      "type": "function"
    },
    {
      "inputs": [],
      "name": "getAllPools",
      "outputs": [
        {
          "components": [
            {
              "internalType": "uint256",
              "name": "id",
              "type": "uint256"
            },
            {
              "internalType": "string",
              "name": "poolName",
              "type": "string"
            },
            {
              "internalType": "enum CoverLib.RiskType",
              "name": "riskType",
              "type": "uint8"
            },
            {
              "internalType": "uint256",
              "name": "apy",
              "type": "uint256"
            },
            {
              "internalType": "uint256",
              "name": "minPeriod",
              "type": "uint256"
            },
            {
              "internalType": "uint256",
              "name": "tvl",
              "type": "uint256"
            },
            {
              "internalType": "uint256",
              "name": "baseValue",
              "type": "uint256"
            },
            {
              "internalType": "uint256",
              "name": "coverTvl",
              "type": "uint256"
            },
            {
              "internalType": "uint256",
              "name": "tcp",
              "type": "uint256"
            },
            {
              "internalType": "bool",
              "name": "isActive",
              "type": "bool"
            },
            {
              "internalType": "uint256",
              "name": "percentageSplitBalance",
              "type": "uint256"
            },
            {
              "internalType": "uint256",
              "name": "investmentArmPercent",
              "type": "uint256"
            },
            {
              "internalType": "uint8",
              "name": "leverage",
              "type": "uint8"
            },
            {
              "internalType": "address",
              "name": "asset",
              "type": "address"
            },
            {
              "internalType": "enum CoverLib.AssetDepositType",
              "name": "assetType",
              "type": "uint8"
            }
          ],
          "internalType": "struct CoverLib.Pool[]",
          "name": "",
          "type": "tuple[]"
        }
      ],
      "stateMutability": "view",
      "type": "function"
    },
    {
      "inputs": [
        {
          "internalType": "uint256",
          "name": "_poolId",
          "type": "uint256"
        }
      ],
      "name": "getPool",
      "outputs": [
        {
          "components": [
            {
              "internalType": "uint256",
              "name": "id",
              "type": "uint256"
            },
            {
              "internalType": "string",
              "name": "poolName",
              "type": "string"
            },
            {
              "internalType": "enum CoverLib.RiskType",
              "name": "riskType",
              "type": "uint8"
            },
            {
              "internalType": "uint256",
              "name": "apy",
              "type": "uint256"
            },
            {
              "internalType": "uint256",
              "name": "minPeriod",
              "type": "uint256"
            },
            {
              "internalType": "uint256",
              "name": "tvl",
              "type": "uint256"
            },
            {
              "internalType": "uint256",
              "name": "baseValue",
              "type": "uint256"
            },
            {
              "internalType": "uint256",
              "name": "coverTvl",
              "type": "uint256"
            },
            {
              "internalType": "uint256",
              "name": "tcp",
              "type": "uint256"
            },
            {
              "internalType": "bool",
              "name": "isActive",
              "type": "bool"
            },
            {
              "internalType": "uint256",
              "name": "percentageSplitBalance",
              "type": "uint256"
            },
            {
              "internalType": "uint256",
              "name": "investmentArmPercent",
              "type": "uint256"
            },
            {
              "internalType": "uint8",
              "name": "leverage",
              "type": "uint8"
            },
            {
              "internalType": "address",
              "name": "asset",
              "type": "address"
            },
            {
              "internalType": "enum CoverLib.AssetDepositType",
              "name": "assetType",
              "type": "uint8"
            }
          ],
          "internalType": "struct CoverLib.Pool",
          "name": "",
          "type": "tuple"
        }
      ],
      "stateMutability": "view",
      "type": "function"
    },
    {
      "inputs": [
        {
          "internalType": "uint256",
          "name": "_poolId",
          "type": "uint256"
        }
      ],
      "name": "getPoolCovers",
      "outputs": [
        {
          "components": [
            {
              "internalType": "uint256",
              "name": "id",
              "type": "uint256"
            },
            {
              "internalType": "string",
              "name": "coverName",
              "type": "string"
            },
            {
              "internalType": "enum CoverLib.RiskType",
              "name": "riskType",
              "type": "uint8"
            },
            {
              "internalType": "string",
              "name": "chains",
              "type": "string"
            },
            {
              "internalType": "uint256",
              "name": "capacity",
              "type": "uint256"
            },
            {
              "internalType": "uint256",
              "name": "cost",
              "type": "uint256"
            },
            {
              "internalType": "uint256",
              "name": "capacityAmount",
              "type": "uint256"
            },
            {
              "internalType": "uint256",
              "name": "coverValues",
              "type": "uint256"
            },
            {
              "internalType": "uint256",
              "name": "maxAmount",
              "type": "uint256"
            },
            {
              "internalType": "uint256",
              "name": "poolId",
              "type": "uint256"
            },
            {
              "internalType": "string",
              "name": "CID",
              "type": "string"
            }
          ],
          "internalType": "struct CoverLib.Cover[]",
          "name": "",
          "type": "tuple[]"
        }
      ],
      "stateMutability": "view",
      "type": "function"
    },
    {
      "inputs": [
        {
          "internalType": "uint256",
          "name": "_poolId",
          "type": "uint256"
        }
      ],
      "name": "getPoolTVL",
      "outputs": [
        {
          "internalType": "uint256",
          "name": "",
          "type": "uint256"
        }
      ],
      "stateMutability": "view",
      "type": "function"
    },
    {
      "inputs": [
        {
          "internalType": "address",
          "name": "_userAddress",
          "type": "address"
        }
      ],
      "name": "getPoolsByAddress",
      "outputs": [
        {
          "components": [
            {
              "internalType": "string",
              "name": "poolName",
              "type": "string"
            },
            {
              "internalType": "uint256",
              "name": "poolId",
              "type": "uint256"
            },
            {
              "internalType": "uint256",
              "name": "dailyPayout",
              "type": "uint256"
            },
            {
              "internalType": "uint256",
              "name": "depositAmount",
              "type": "uint256"
            },
            {
              "internalType": "uint256",
              "name": "apy",
              "type": "uint256"
            },
            {
              "internalType": "uint256",
              "name": "minPeriod",
              "type": "uint256"
            },
            {
              "internalType": "uint256",
              "name": "tvl",
              "type": "uint256"
            },
            {
              "internalType": "uint256",
              "name": "tcp",
              "type": "uint256"
            },
            {
              "internalType": "bool",
              "name": "isActive",
              "type": "bool"
            },
            {
              "internalType": "uint256",
              "name": "accruedPayout",
              "type": "uint256"
            }
          ],
          "internalType": "struct InsurancePool.PoolInfo[]",
          "name": "",
          "type": "tuple[]"
        }
      ],
      "stateMutability": "view",
      "type": "function"
    },
    {
      "inputs": [
        {
          "internalType": "uint256",
          "name": "_poolId",
          "type": "uint256"
        },
        {
          "internalType": "address",
          "name": "_user",
          "type": "address"
        }
      ],
      "name": "getUserDeposit",
      "outputs": [
        {
          "components": [
            {
              "internalType": "address",
              "name": "lp",
              "type": "address"
            },
            {
              "internalType": "uint256",
              "name": "amount",
              "type": "uint256"
            },
            {
              "internalType": "uint256",
              "name": "poolId",
              "type": "uint256"
            },
            {
              "internalType": "uint256",
              "name": "dailyPayout",
              "type": "uint256"
            },
            {
              "internalType": "enum CoverLib.Status",
              "name": "status",
              "type": "uint8"
            },
            {
              "internalType": "uint256",
              "name": "daysLeft",
              "type": "uint256"
            },
            {
              "internalType": "uint256",
              "name": "startDate",
              "type": "uint256"
            },
            {
              "internalType": "uint256",
              "name": "expiryDate",
              "type": "uint256"
            },
            {
              "internalType": "uint256",
              "name": "accruedPayout",
              "type": "uint256"
            },
            {
              "internalType": "enum CoverLib.DepositType",
              "name": "pdt",
              "type": "uint8"
            }
          ],
          "internalType": "struct InsurancePool.Deposits",
          "name": "",
          "type": "tuple"
        }
      ],
      "stateMutability": "view",
      "type": "function"
    },
    {
      "inputs": [
        {
          "internalType": "address",
          "name": "user",
          "type": "address"
        }
      ],
      "name": "getUserParticipation",
      "outputs": [
        {
          "internalType": "uint256",
          "name": "",
          "type": "uint256"
        }
      ],
      "stateMutability": "view",
      "type": "function"
    },
    {
      "inputs": [],
      "name": "governance",
      "outputs": [
        {
          "internalType": "address",
          "name": "",
          "type": "address"
        }
      ],
      "stateMutability": "view",
      "type": "function"
    },
    {
      "inputs": [
        {
          "internalType": "uint256",
          "name": "_poolId",
          "type": "uint256"
        },
        {
          "internalType": "uint256",
          "name": "__poolPercentageSplit",
          "type": "uint256"
        }
      ],
      "name": "increasePercentageSplit",
      "outputs": [],
      "stateMutability": "nonpayable",
      "type": "function"
    },
    {
      "inputs": [],
      "name": "initialOwner",
      "outputs": [
        {
          "internalType": "address",
          "name": "",
          "type": "address"
        }
      ],
      "stateMutability": "view",
      "type": "function"
    },
    {
      "inputs": [],
      "name": "owner",
      "outputs": [
        {
          "internalType": "address",
          "name": "",
          "type": "address"
        }
      ],
      "stateMutability": "view",
      "type": "function"
    },
    {
      "inputs": [
        {
          "internalType": "uint256",
          "name": "",
          "type": "uint256"
        }
      ],
      "name": "participants",
      "outputs": [
        {
          "internalType": "address",
          "name": "",
          "type": "address"
        }
      ],
      "stateMutability": "view",
      "type": "function"
    },
    {
      "inputs": [
        {
          "internalType": "address",
          "name": "",
          "type": "address"
        }
      ],
      "name": "participation",
      "outputs": [
        {
          "internalType": "uint256",
          "name": "",
          "type": "uint256"
        }
      ],
      "stateMutability": "view",
      "type": "function"
    },
    {
      "inputs": [
        {
          "internalType": "uint256",
          "name": "poolId",
          "type": "uint256"
        }
      ],
      "name": "poolActive",
      "outputs": [
        {
          "internalType": "bool",
          "name": "",
          "type": "bool"
        }
      ],
      "stateMutability": "view",
      "type": "function"
    },
    {
      "inputs": [],
      "name": "poolCount",
      "outputs": [
        {
          "internalType": "uint256",
          "name": "",
          "type": "uint256"
        }
      ],
      "stateMutability": "view",
      "type": "function"
    },
    {
      "inputs": [
        {
          "internalType": "uint256",
          "name": "_poolId",
          "type": "uint256"
        }
      ],
      "name": "poolWithdraw",
      "outputs": [],
      "stateMutability": "nonpayable",
      "type": "function"
    },
    {
      "inputs": [
        {
          "internalType": "uint256",
          "name": "",
          "type": "uint256"
        }
      ],
      "name": "pools",
      "outputs": [
        {
          "internalType": "uint256",
          "name": "id",
          "type": "uint256"
        },
        {
          "internalType": "string",
          "name": "poolName",
          "type": "string"
        },
        {
          "internalType": "enum CoverLib.RiskType",
          "name": "riskType",
          "type": "uint8"
        },
        {
          "internalType": "uint256",
          "name": "apy",
          "type": "uint256"
        },
        {
          "internalType": "uint256",
          "name": "minPeriod",
          "type": "uint256"
        },
        {
          "internalType": "uint256",
          "name": "tvl",
          "type": "uint256"
        },
        {
          "internalType": "uint256",
          "name": "baseValue",
          "type": "uint256"
        },
        {
          "internalType": "uint256",
          "name": "coverTvl",
          "type": "uint256"
        },
        {
          "internalType": "uint256",
          "name": "tcp",
          "type": "uint256"
        },
        {
          "internalType": "bool",
          "name": "isActive",
          "type": "bool"
        },
        {
          "internalType": "uint256",
          "name": "percentageSplitBalance",
          "type": "uint256"
        },
        {
          "internalType": "uint256",
          "name": "investmentArmPercent",
          "type": "uint256"
        },
        {
          "internalType": "uint8",
          "name": "leverage",
          "type": "uint8"
        },
        {
          "internalType": "address",
          "name": "asset",
          "type": "address"
        },
        {
          "internalType": "enum CoverLib.AssetDepositType",
          "name": "assetType",
          "type": "uint8"
        }
      ],
      "stateMutability": "view",
      "type": "function"
    },
    {
      "inputs": [
        {
          "internalType": "uint256",
          "name": "_poolId",
          "type": "uint256"
        },
        {
          "internalType": "uint256",
          "name": "__poolPercentageSplit",
          "type": "uint256"
        }
      ],
      "name": "reducePercentageSplit",
      "outputs": [],
      "stateMutability": "nonpayable",
      "type": "function"
    },
    {
      "inputs": [],
      "name": "renounceOwnership",
      "outputs": [],
      "stateMutability": "nonpayable",
      "type": "function"
    },
    {
      "inputs": [
        {
          "internalType": "address",
          "name": "_coverContract",
          "type": "address"
        }
      ],
      "name": "setCover",
      "outputs": [],
      "stateMutability": "nonpayable",
      "type": "function"
    },
    {
      "inputs": [
        {
          "internalType": "address",
          "name": "_governance",
          "type": "address"
        }
      ],
      "name": "setGovernance",
      "outputs": [],
      "stateMutability": "nonpayable",
      "type": "function"
    },
    {
      "inputs": [
        {
          "internalType": "address",
          "name": "_vaultContract",
          "type": "address"
        }
      ],
      "name": "setVault",
      "outputs": [],
      "stateMutability": "nonpayable",
      "type": "function"
    },
    {
      "inputs": [
        {
          "internalType": "address",
          "name": "newOwner",
          "type": "address"
        }
      ],
      "name": "transferOwnership",
      "outputs": [],
      "stateMutability": "nonpayable",
      "type": "function"
    },
    {
      "inputs": [
        {
          "internalType": "uint256",
          "name": "_poolId",
          "type": "uint256"
        },
        {
          "internalType": "uint256",
          "name": "_apy",
          "type": "uint256"
        },
        {
          "internalType": "uint256",
          "name": "_minPeriod",
          "type": "uint256"
        }
      ],
      "name": "updatePool",
      "outputs": [],
      "stateMutability": "nonpayable",
      "type": "function"
    },
    {
      "inputs": [
        {
          "internalType": "uint256",
          "name": "_poolId",
          "type": "uint256"
        },
        {
          "components": [
            {
              "internalType": "uint256",
              "name": "id",
              "type": "uint256"
            },
            {
              "internalType": "string",
              "name": "coverName",
              "type": "string"
            },
            {
              "internalType": "enum CoverLib.RiskType",
              "name": "riskType",
              "type": "uint8"
            },
            {
              "internalType": "string",
              "name": "chains",
              "type": "string"
            },
            {
              "internalType": "uint256",
              "name": "capacity",
              "type": "uint256"
            },
            {
              "internalType": "uint256",
              "name": "cost",
              "type": "uint256"
            },
            {
              "internalType": "uint256",
              "name": "capacityAmount",
              "type": "uint256"
            },
            {
              "internalType": "uint256",
              "name": "coverValues",
              "type": "uint256"
            },
            {
              "internalType": "uint256",
              "name": "maxAmount",
              "type": "uint256"
            },
            {
              "internalType": "uint256",
              "name": "poolId",
              "type": "uint256"
            },
            {
              "internalType": "string",
              "name": "CID",
              "type": "string"
            }
          ],
          "internalType": "struct CoverLib.Cover",
          "name": "_cover",
          "type": "tuple"
        }
      ],
      "name": "updatePoolCovers",
      "outputs": [],
      "stateMutability": "nonpayable",
      "type": "function"
    },
    {
      "inputs": [],
      "name": "vaultContract",
      "outputs": [
        {
          "internalType": "address",
          "name": "",
          "type": "address"
        }
      ],
      "stateMutability": "view",
      "type": "function"
    },
    {
      "inputs": [
        {
          "internalType": "uint256",
          "name": "_vaultId",
          "type": "uint256"
        }
      ],
      "name": "vaultWithdraw",
      "outputs": [],
      "stateMutability": "nonpayable",
      "type": "function"
    },
    {
      "inputs": [
        {
          "internalType": "address",
          "name": "depositor",
          "type": "address"
        },
        {
          "internalType": "uint256",
          "name": "_poolId",
          "type": "uint256"
        },
        {
          "internalType": "enum CoverLib.DepositType",
          "name": "pdt",
          "type": "uint8"
        }
      ],
      "name": "withdrawUpdate",
      "outputs": [],
      "stateMutability": "nonpayable",
      "type": "function"
    }
  ],
  "bytecode": "0x60803461010d57601f6143f338819003918201601f19168301916001600160401b0383118484101761011257808492604094855283398101031261010d57610052602061004b83610128565b9201610128565b60016000556001600160a01b039091169081156100f757600180546001600160a01b031981168417909155604051929081906001600160a01b03167f8be0079c531659141344cd1fd0a4f28419497f9722a3daafe3b4186f6b6457e0600080a3600f80546001600160a01b0319908116929092179055600b805482166001600160a01b03939093169283179055600c805490911690911790556142b6908161013d8239f35b631e4fbdf760e01b600052600060045260246000fd5b600080fd5b634e487b7160e01b600052604160045260246000fd5b51906001600160a01b038216820361010d5756fe6080604052600436101561001257600080fd5b60003560e01c8063068bcd8d14613382578063195ec9ee146132b65780632274346b1461328d578063248a75b71461326457806325f11e8d146132305780632607b539146129f657806329ba7bb2146129cd578063318667631461256757806334808ec31461253e57806335c1d349146124fc5780633dc66ad31461219c57806346f84795146114b75780634e05524414611eee5780635aa6e67514611ec55780636817031b14611dd15780636d8e657414611af25780636f60537d14611ac9578063715018a614611a6c5780637c366cc61461198f5780637eb111f01461187657806383bc6357146115495780638da5cb5b146115205780638f244630146114f157806396f3a8ad146114b7578063996b8a6f1461148e5780639abd9b051461143a5780639fd36b15146113df578063a14764d014611344578063a4948d85146112e5578063ab033ea9146111f6578063ac4afa38146110d8578063b5d90c28146110af578063c7aa987414611021578063d86c044414610ec9578063d88ff1f414610cb9578063e35f81291461079d578063f2fde38b14610713578063f525cb68146106f5578063f6e80558146106cc5763fb839dda146101d457600080fd5b346103ab5760203660031901126103ab576004356101f0614215565b600954604051632bb2b24360e11b8152600481018390523360248201526001600160a01b039091169061012081604481855afa8015610360576020916000916106ad575b50019081511561066857600060249160405192838092632500ed8d60e21b82528760048301525afa908115610360576000916103e0575b50600160c082015161027c816134f1565b610285816134f1565b036103b85760e00151905160405163a9059cbb60e01b8152336004820152602481019190915290602090829060449082906000906001600160a01b03165af19081156103605760009161036c575b5061031b916102e461012092613b7b565b600954604051632bb2b24360e11b81526004810192909252336024830152909283916001600160a01b031690829081906044820190565b03915afa801561036057610331575b6001600055005b610352906101203d8111610359575b61034a8183613656565b810190614192565b503861032a565b503d610340565b6040513d6000823e3d90fd5b90506020813d6020116103b0575b8161038760209383613656565b810103126103ab5761031b916102e46103a261012093613980565b925050916102d3565b600080fd5b3d915061037a565b5061031b916103db60008080806101209651335af16103d5613aff565b50613b2f565b6102e4565b903d8082843e6103f08184613656565b820191602081840312610664578051906001600160401b03821161064c57019061010082840312610514576040519261010084018481106001600160401b03821117610650576040528251845260208301516001600160401b03811161064c578161045c918501614150565b602085015260408301516001600160401b03811161064c5783019080601f8301121561064c5781519161048e83613a02565b9261049c6040519485613656565b80845260208085019160051b830101918383116106485760208101915b8383106105175750505050506040840152606082015160608401526080820151608084015260a082015160a084015260c0820151906002821015610514575060c08301526105099060e00161413c565b60e08201523861026b565b80fd5b82516001600160401b0381116106445782016101e0818703601f1901126106445760405190610545826135cb565b6020810151825260408101516001600160401b0381116106405787602061056e92840101614150565b6020830152606081015160038110156106405760408301526080810151606083015260a0810151608083015260c081015160a083015260e081015160c083015261010081015160e08301526101208101516101008301526105d26101408201613980565b6101208301526101608101516101408301526101808101516101608301526101a081015160ff81168103610640576101808301526101e0906106176101c0820161413c565b6101a08401520151600281101561063c576101c08201528152602092830192016104b9565b8880fd5b8980fd5b8780fd5b8580fd5b8280fd5b634e487b7160e01b83526041600452602483fd5b5080fd5b60405162461bcd60e51b815260206004820152601d60248201527f4e6f20616374697665207769746864726177616c20666f7220757365720000006044820152606490fd5b6106c691506101203d81116103595761034a8183613656565b38610234565b346103ab5760003660031901126103ab576008546040516001600160a01b039091168152602090f35b346103ab5760003660031901126103ab576020600654604051908152f35b346103ab5760203660031901126103ab5761072c613677565b610734614237565b6001600160a01b0316801561078757600180546001600160a01b0319811683179091556001600160a01b03167f8be0079c531659141344cd1fd0a4f28419497f9722a3daafe3b4186f6b6457e0600080a3005b631e4fbdf760e01b600052600060045260246000fd5b346103ab5760203660031901126103ab5760006004356107bb614215565b600a54604051633b4d01a760e01b81526004810183905292908390602490829084906001600160a01b03165af191821561036057600092610b55575b506101008201519060c0830151926005841015610b3f576002600094149081610b31575b5015610af45760a082018051845260056020526040842083516001600160a01b03163303610ab85761085360ff600983015416613cca565b6005810180549360c086019182518610610a73576108878896845161087d60088801918254613973565b90558451906139a0565b90556108938451613bbf565b93855b8551811015610911576008546001600160a01b0316906108b681886139c5565b5151823b1561063c57889260248492604051958693849263106b5da160e01b845260048401525af191821561090657886001936108f6575b505001610896565b6108ff91613656565b8a886108ee565b6040513d8a823e3d90fd5b50919350919460018060a01b03600a541692833b1561064857859360248592604051968793849263f1b4bf9d60e01b845260048401525af1918215610a68577feef4955e8b18dcb6d1c19905b7b86e5fe56138ad1ce2c5e540ce4e959312f5119386606094610a58575b5050519084519060018060a01b039051169060405192835260208301526040820152a160018060a01b03600b54168151813b15610a5457604051637104a76d60e11b8152336004820152602481019190915292908390604490829084905af191848315610a48577f415071086c9ea63f7f39884c21a8af430af53bfd511a362dff69cabcb1b8bcc193610a38575b50505191610a2560405191604083526001604084019101613881565b9260208201528033930390a26001815580f35b610a4191613656565b8484610a09565b604051903d90823e3d90fd5b8380fd5b610a6191613656565b888661097b565b6040513d87823e3d90fd5b60405162461bcd60e51b815260206004820152601c60248201527f4e6f7420656e6f7567682066756e647320696e2074686520706f6f6c000000006044820152606490fd5b60405162461bcd60e51b8152602060048201526014602482015273139bdd0818481d985b1a59081c1c9bdc1bdcd85b60621b6044820152606490fd5b60405162461bcd60e51b8152602060048201526015602482015274141c9bdc1bdcd85b081b9bdd08185c1c1c9bdd9959605a1b6044820152606490fd5b60e09150015115158461081b565b634e487b7160e01b600052602160045260246000fd5b90913d8082843e610b668184613656565b820191602081840312610664578051906001600160401b03821161064c570191610120838203126106645760405192610b9e8461363a565b805184526020810151602085015260408101516040850152606081015160608501526080810151608085015260a081015160a085015260c08101516005811015610a545760c0850152610bf360e08201613980565b60e0850152610100810151906001600160401b038211610a5457019060e08282031261064c5760405192610c26846135e7565b610c2f8361413c565b8452602083015160038110156106645760208501526040830151604085015260608301516001600160401b0381116106645782610c6d918501614150565b60608501526080830151906001600160401b03821161051457508291610c969160c09401614150565b608084015260a081015160a0840152015160c082015261010082015290826107f7565b346103ab5760003660031901126103ab57600654610cd681613a02565b90610ce46040519283613656565b808252601f19610cf382613a02565b0160005b818110610eb257505060015b81811115610d7357826040518091602082016020835281518091526040830190602060408260051b8601019301916000905b828210610d4457505050500390f35b91936001919395506020610d638192603f198a820301865288516134fb565b9601920192018594939192610d35565b806000526005602052806040600020600281015460ff1660038201546004830154600584015460068501546007860154600887015491600988015460ff1693600a89015495600b8a015497600c8b0154998a60a81c60ff169b6040519e8f90610ddb826135cb565b815260405180600181940190610df091613881565b03610dfb9083613656565b602001528d610e09826134e7565b6040015260608d015260808c015260a08b015260c08a015260e0890152610100880152151561012087015261014086015261016085015260ff811661018085015260081c6001600160a01b03166101a0840152610e65816134f1565b6101c0830152600019810191818311610e9c5782610e9191610e8a610e9795886139c5565b52856139c5565b506139f3565b610d03565b634e487b7160e01b600052601160045260246000fd5b602090610ebd613904565b82828701015201610cf7565b346103ab5760603660031901126103ab57600435602435604435610eeb614237565b82600052600560205260ff6009604060002001541615610fd1578115610f9e578015610f60576000838152600560209081526040918290206003810185905560040183905581519384528301919091527f17b8644f386d1c7c7138ef98b3c8035622bbe94d7be9b26f71d2654a547c294391a2005b60405162461bcd60e51b8152602060048201526016602482015275125b9d985b1a59081b5a5b9a5b5d5b481c195c9a5bd960521b6044820152606490fd5b60405162461bcd60e51b815260206004820152600b60248201526a496e76616c69642041505960a81b6044820152606490fd5b60405162461bcd60e51b815260206004820152602260248201527f506f6f6c20646f6573206e6f74206578697374206f7220697320696e61637469604482015261766560f01b6064820152608490fd5b346103ab5761102f36613736565b9060018060a01b03600d54163314801561109b575b61104d90613d0b565b6000526004602052604060002090815491600160401b831015611085578261107d91600161108395018155613d56565b90613d72565b005b634e487b7160e01b600052604160045260246000fd5b50600f546001600160a01b03163314611044565b346103ab5760003660031901126103ab57600a546040516001600160a01b039091168152602090f35b346103ab5760203660031901126103ab57600435600052600560205260406000208054604051918280600183019061110f91613881565b0361111a9084613656565b600281015460ff1690600381015490600481015490600581015460068201546007830154600884015490600985015460ff1692600a86015494600b87015496600c0154978860a81c60ff16996040519d8e9d8e528d602081016101e090526101e001611185916134c2565b9b8d611190826134e7565b6040015260608d015260808c015260a08b015260c08a015260e0890152610100880152151561012087015261014086015261016085015260ff811661018085015260081c6001600160a01b03166101a08401526111ec816134f1565b6101c08301520390f35b346103ab5760203660031901126103ab5761120f613677565b611217614237565b600754906001600160a01b0382166112a7576001600160a01b0316908115611258576001600160a01b03199081168217600755600a80549091169091179055005b60405162461bcd60e51b815260206004820152602160248201527f476f7665726e616e636520616464726573732063616e6e6f74206265207a65726044820152606f60f81b6064820152608490fd5b60405162461bcd60e51b815260206004820152601660248201527511dbdd995c9b985b98d948185b1c9958591e481cd95d60521b6044820152606490fd5b346103ab576112f336613720565b9060018060a01b03600d541633148015611330575b61131190613d0b565b600052600560205261132c600a6040600020019182546139a0565b9055005b50600f546001600160a01b03163314611308565b346103ab5761135236613736565b600d546001600160a01b0316331480156113cb575b61137090613d0b565b60005b826000526004602052604060002054811015611083578260005260046020526113a0816040600020613d56565b50548251146113b157600101611373565b61107d906110839360005260046020526040600020613d56565b50600f546001600160a01b03163314611367565b346103ab576113ed36613720565b9060018060a01b03600d541633148015611426575b61140b90613d0b565b600052600560205261132c600a604060002001918254613973565b50600f546001600160a01b03163314611402565b346103ab5760203660031901126103ab57600435611456614237565b80600052600560205261147360ff60096040600020015416613cca565b6000908152600560205260409020600901805460ff19169055005b346103ab5760003660031901126103ab57600c546040516001600160a01b039091168152602090f35b346103ab5760203660031901126103ab576001600160a01b036114d8613677565b1660005260116020526020604060002054604051908152f35b346103ab5760203660031901126103ab5760043560005260056020526020600560406000200154604051908152f35b346103ab5760003660031901126103ab576001546040516001600160a01b039091168152602090f35b346103ab5760603660031901126103ab57611562613677565b60243560443560028110156103ab57611579614215565b600e546001600160a01b031633148015611862575b1561181e5781600052600560205260406000209260018060a01b0316908160005260036020526040600020836000526020526040600020906115cf816134f1565b60005260205260406000209161165060018401938454906115f1821515613a19565b60016004820191611620600784549261161660ff8516611610816134e7565b15613a6f565b0154421015613ab3565b60ff1916179055611636600587019182546139a0565b809155606461164982600b89015461398d565b04906139a0565b61166160ff600c870154168261398d565b600786015560068501556000526004602052604060002092835461168481613a02565b946116926040519687613656565b818652602086019060005260206000206000915b838310611754575050505060005b8451811015611724576008546001600160a01b0316906116d481876139c5565b5151823b156103ab5760009260248492604051958693849263106b5da160e01b845260048401525af191821561036057600192611713575b50016116b4565b600061171e91613656565b8661170c565b5060016000805160206142618339815191529161174a85546040519384930190836139d9565b0390a26001600055005b600b60206001926040516117678161361e565b855481526040516117858161177e81898b01613881565b0382613656565b8382015260ff60028701541661179a816134e7565b60408201526040516117b38161177e8160038b01613881565b606082015260048601546080820152600586015460a0820152600686015460c0820152600786015460e08201526008860154610100820152600986015461012082015260405161180a8161177e81600a8b01613881565b6101408201528152019201920191906116a6565b606460405162461bcd60e51b815260206004820152602060248201527f43616c6c6572206973206e6f7420746865207661756c7420636f6e74726163746044820152fd5b50600f546001600160a01b0316331461158e565b346103ab5760203660031901126103ab57611892600435613bbf565b6040518091602082016020835281518091526040830190602060408260051b8601019301916000905b8282106118ca57505050500390f35b9193600191939550602061197f8192603f198a82030186528851908151815261014061192d61190886850151610160888601526101608501906134c2565b6040850151611916816134e7565b6040850152606085015184820360608601526134c2565b926080810151608084015260a081015160a084015260c081015160c084015260e081015160e08401526101008101516101008401526101208101516101208401520151906101408184039101526134c2565b96019201920185949391926118bb565b346103ab5760203660031901126103ab576119a8613677565b6119b0614237565b600d54906001600160a01b038216611a33576001600160a01b03169081156119ee57600880546001600160a01b031990811684179091551617600d55005b60405162461bcd60e51b815260206004820152601c60248201527f436f76657220616464726573732063616e6e6f74206265207a65726f000000006044820152606490fd5b60405162461bcd60e51b815260206004820152601160248201527010dbdd995c88185b1c9958591e481cd95d607a1b6044820152606490fd5b346103ab5760003660031901126103ab57611a85614237565b600180546001600160a01b031981169091556000906001600160a01b03167f8be0079c531659141344cd1fd0a4f28419497f9722a3daafe3b4186f6b6457e08280a3005b346103ab5760003660031901126103ab576009546040516001600160a01b039091168152602090f35b346103ab576101203660031901126103ab5760043560243560038110156103ab576044356001600160401b0381116103ab57611b329036906004016136d9565b9060a4359160ff83168093036103ab5760e4359260c43560028510156103ab57610104356001600160a01b038116908190036103ab57611b70614237565b611b79866134f1565b8515908115611dc7575b5015611d825760065460018101809111610e9c576006558560005260056020526040600020938685556001850184516001600160401b03811161108557611bca8254613847565b601f8111611d3a575b506020601f8211600114611cd1579080611c42949392600091611cc6575b508160011b916000199060031b1c19161790555b6064356003870155608435600487015560006005870155600060078701556000600687015560098601600160ff19825416179055600286016139ad565b80600b850155600c8401918254916064039560648711610e9c577ff01906dc0ac306fa816e50166a7ed46af1f05721cb90cea30beebdd8dede3a6d96600a611cc1970155611c8f816134f1565b60ff60ff60a81b01199092161760a89190911b60ff60a81b1617905560405160208082529092839290918301906134c2565b0390a2005b90508701518b611bf1565b601f1982169083600052806000209160005b818110611d225750918391611c4296959460019410611d09575b5050811b019055611c05565b89015160001960f88460031b161c191690558b80611cfd565b9192602060018192868d015181550194019201611ce3565b826000526020600020601f830160051c81019160208410611d78575b601f0160051c01905b818110611d6c5750611bd3565b60008155600101611d5f565b9091508190611d56565b60405162461bcd60e51b815260206004820152601760248201527f57726f6e6720417373657420666f72204465706f7369740000000000000000006044820152606490fd5b9050151587611b83565b346103ab5760203660031901126103ab57611dea613677565b611df2614237565b600e546001600160a01b0316611e8c576001600160a01b03168015611e4757806bffffffffffffffffffffffff60a01b60095416176009556bffffffffffffffffffffffff60a01b600d541617600d55600080f35b60405162461bcd60e51b815260206004820152601c60248201527f5661756c7420616464726573732063616e6e6f74206265207a65726f000000006044820152606490fd5b60405162461bcd60e51b815260206004820152601160248201527015985d5b1d08185b1c9958591e481cd95d607a1b6044820152606490fd5b346103ab5760003660031901126103ab576007546040516001600160a01b039091168152602090f35b346103ab5760403660031901126103ab576004356024356001600160a01b0381168082036103ab576000610120604051611f2781613602565b8281528260208201528260408201528260608201528260808201528260a08201528260c08201528260e082015282610100820152015260005260036020526040600020826000526020526040600020600080526020526040600020906040518092611f9182613602565b80546001600160a01b03168252600181015460208301908152600282015460408401908152600383015460608501908152600484015492979260808601919060ff16611fdc816134e7565b825260058501549260a0870193845261206b602060068801549660c08a0197885260ff600960078b01549a60e08d019b8c5261010060088201549d019c8d520154169a6101208d019b61202e816134f1565b8c52600854604051630414960560e21b81526001600160a01b03928316600482015260248101939093529193849290911690829081906044820190565b03915afa9081156103605760009161216a575b508061215b57506120aa61012c6120a287515b428a51804211612153575b506139a0565b04835161398d565b8752855142811161211d575061014099600085525b604080519a516001600160a01b03168b52905160208b0152905190890152516060880152516120ed816134e7565b60808701525160a08601525160c08501525160e08401525161010083015251612115816134f1565b610120820152f35b6121289042906139a0565b99620151808b019a8b8111610e9c576201517f019a8b11610e9c57620151806101409b0485526120bf565b90508f61209c565b61012c6120a26120aa92612091565b906020823d602011612194575b8161218460209383613656565b810103126105145750518b61207e565b3d9150612177565b346103ab5760203660031901126103ab576004356121b8614215565b80600052600560205260406000209033600052600360205260406000208160005260205260406000206000805260205260406000209161224c6001840193845490612204821515613a19565b60026004820191612223600784549261161660ff8516611610816134e7565b60ff1916179055612239600584019182546139a0565b809155606461164982600b86015461398d565b91600c82019261226060ff8554168261398d565b600784015560068301556000526004602052604060002092835461228381613a02565b946122916040519687613656565b818652602086019060005260206000206000915b838310612439575050505060005b8451811015612323576008546001600160a01b0316906122d381876139c5565b5151823b156103ab5760009260248492604051958693849263106b5da160e01b845260048401525af191821561036057600192612312575b50016122b3565b600061231d91613656565b8661230b565b5082600160ff825460a81c16612338816134f1565b0361240b5754815460405163a9059cbb60e01b8152336004820152602481019190915290602090829060081c6001600160a01b0316816000816044810103925af1908115610360576000916123b8575b50600080516020614261833981519152916123a561174a92613b7b565b54604051918291600133960190836139d9565b90506020813d602011612403575b816123d360209383613656565b810103126103ab57600080516020614261833981519152916123a56123fa61174a93613980565b92505091612388565b3d91506123c6565b5061174a8161243460008080806000805160206142618339815191529754335af16103d5613aff565b6123a5565b600b602060019260405161244c8161361e565b855481526040516124638161177e81898b01613881565b8382015260ff600287015416612478816134e7565b60408201526040516124918161177e8160038b01613881565b606082015260048601546080820152600586015460a0820152600686015460c0820152600786015460e0820152600886015461010082015260098601546101208201526040516124e88161177e81600a8b01613881565b6101408201528152019201920191906122a5565b346103ab5760203660031901126103ab576004356010548110156103ab5761252560209161368d565b905460405160039290921b1c6001600160a01b03168152f35b346103ab5760003660031901126103ab57600b546040516001600160a01b039091168152602090f35b346103ab5760203660031901126103ab57612580613677565b600654600091906001600160a01b03821660015b8281111561297557506125a684613a02565b936125b46040519586613656565b8085526125c3601f1991613a02565b0160005b8181106129105750506008546001600160a01b03169260009060015b848111156126bd57866040518091602082016020835281518091526040830190602060408260051b8601019301916000905b82821061262457505050500390f35b919360019193955060208091603f1989820301855287519061012080612655845161014085526101408501906134c2565b93858101518685015260408101516040850152606081015160608501526080810151608085015260a081015160a085015260c081015160c085015260e081015160e0850152610100810151151561010085015201519101529601920192018594939192612615565b806000526005602052604060002084600052600360205260406000208260005260205260406000206000805260205260406000206040516126fd81613602565b60018060a01b038254168152600182015460208201526002820154604082015261012060ff60096003850154946060850195865282600482015416612741816134e7565b6080860152600581015460a0860152600681015460c0860152600781015460e086015260088101546101008601520154169161277c836134f1565b01526040516339e671f760e11b81526001600160a01b0385166004820152602481018490526020816044818c5afa908115610360576000916128dd575b506127c4915161398d565b856000526003602052604060002083600052602052604060002060008052602052600160406000200154612803575b50506127fe906139f3565b6125e3565b60008681526003602081815260408084208785528252808420848052909152918290208082015460019091015491850154600486015460058701546008880154600989015496519b9860ff9097169690959194929392906128638d613602565b6040518060018193019061287691613881565b036128819082613656565b8c528960208d015260408c015260608b015260808a015260a089015260c088015260e08701521515610100860152610120850152806128bf906139f3565b936128ca828a6139c5565b526128d590886139c5565b5087806127f3565b906020823d8211612908575b816128f660209383613656565b810103126105145750516127c46127b9565b3d91506128e9565b60209060409594955161292281613602565b60608152600083820152600060408201526000606082015260006080820152600060a0820152600060c0820152600060e082015260006101008201526000610120820152828289010152019392936125c7565b8160009493945260036020526040600020816000526020526040600020600080526020526001604060002001546129b8575b6129b0906139f3565b929192612594565b936129c56129b0916139f3565b9490506129a7565b346103ab5760003660031901126103ab57600f546040516001600160a01b039091168152602090f35b60e03660031901126103ab576040516000612a10826135e7565b612a18613677565b82526020820191602435835260408101604435815260608201906064358252608435600281101561322c576080840190815260a4359160028310156106485760a0850192835260c435936001600160a01b03851685036132285760c08601948552612a81614215565b875187526005602052604087209460ff600987015416156131d857600c860194855460ff8160a81c169151612ab5816134f1565b612abe816134f1565b612ac7836134f1565b820361318457835160048901541061314c5782516001600160a01b0390811660089290921c16036131075787516001600160a01b03168952600360209081526040808b208c518c5290915289208551612b1f816134f1565b612b28816134f1565b8a52602052600160408a2001546130b057600190612b45816134f1565b036130535782511561300e5751865183516040516323b872dd60e01b81526001600160a01b039283166004820152306024820152604481019190915291602091839160649183918d91165af1801561090657612fd7575b508151612bae60058701918254613973565b90558151935b612bda60ff612bd16005890154606461164982600b8d015461398d565b9254168261398d565b6007870155600686015561016d6064612bf760038801548761398d565b04049260018060a01b038751169089519251620151808102818104620151801482151715612fc35792612d6a94926009928b612c388e9f979e9d9e42613973565b918d8c8c865199612c488b6134f1565b60405198612c558a613602565b8952602089019283526040890190815260608901918252608089019284845260a08a019586528c60c08b019742895260e08c01998a526101008c019a878c526101208d019e8f612ca4826134f1565b5251612caf816134f1565b612cb8816134f1565b612f2157516001600160a01b039081168752600360208181526040808a2094518a529381528389208980529052919096209a518b546001600160a01b0319169616959095178a555160018a0155516002890155519187019190915551612d2a90612d21816134e7565b600487016139ad565b516005850155516006840155516007830155516008820155019051612d4e816134f1565b612d57816134f1565b60ff801983541691161790555b51613bbf565b93855b8551811015612ddd576008546001600160a01b031690612d8d81886139c5565b5151823b1561063c57889260248492604051958693849263106b5da160e01b845260048401525af19182156109065788600193612dcd575b505001612d6d565b612dd691613656565b8a88612dc5565b50601054869550879086805b828110612ee9575b5015612e89575b5080516001600160a01b0316865260116020526040862080546001810191908210612e755760409793612e65600196947f6f85d9948d6ca3dd6ce6ce7d175da22b4e865827ae6fcd530ec7edac1240f92894889455838060a01b0390511694518a519384930190836139d9565b0390a25582519182526020820152f35b634e487b7160e01b88526011600452602488fd5b81516001600160a01b031690600160401b811015612ed557806001612eb1920160105561368d565b81546001600160a01b0360039290921b91821b191692901b91909117905586612df8565b634e487b7160e01b88526041600452602488fd5b612ef28161368d565b9054855160039290921b1c6001600160a01b03908116911614612f1757600101612de9565b5050600188612df1565b516001600160a01b039081168752600360208181526040808a2094518a529381528389206001808b529152929097209b518c546001600160a01b0319169116178b559051908a0155516002890155519187019190915551612f8590612d21816134e7565b516005850155516006840155516007830155516008820155019051612fa9816134f1565b612fb2816134f1565b60ff80198354169116179055612d64565b634e487b7160e01b8b52601160045260248bfd5b6020813d602011613006575b81612ff060209383613656565b810103126106445761300190613980565b612b9c565b3d9150612fe3565b60405162461bcd60e51b815260206004820152601d60248201527f416d6f756e74206d7573742062652067726561746572207468616e20300000006044820152606490fd5b5034156130725760058501613069348254613973565b90553493612bb4565b60405162461bcd60e51b81526020600482015260166024820152754465706f7369742063616e6e6f74206265207a65726f60501b6044820152606490fd5b60405162461bcd60e51b815260206004820152602960248201527f557365722068617320616c7265616479206465706f736974656420696e746f206044820152681d1a1a5cc81c1bdbdb60ba1b6064820152608490fd5b60405162461bcd60e51b815260206004820152601f60248201527f506f6f6c20646f6573206e6f74206163636570742074686973206173736574006044820152606490fd5b60405162461bcd60e51b815260206004820152601060248201526f14195c9a5bd9081d1bdbc81cda1bdc9d60821b6044820152606490fd5b60405162461bcd60e51b815260206004820152602660248201527f506f6f6c20646f6573206e6f74206163636570742074686973206465706f736960448201526574207479706560d01b6064820152608490fd5b60405162461bcd60e51b815260206004820152602260248201527f506f6f6c20697320696e616374697665206f7220646f6573206e6f74206578696044820152611cdd60f21b6064820152608490fd5b8680fd5b8480fd5b346103ab5760203660031901126103ab576004356000526005602052602060ff600960406000200154166040519015158152f35b346103ab5760003660031901126103ab57600d546040516001600160a01b039091168152602090f35b346103ab5760003660031901126103ab57600e546040516001600160a01b039091168152602090f35b346103ab5760003660031901126103ab576040518060206010549283815201809260106000527f1b6847dc741a1b0cd08d278845f9d819d87b734759afb55fe2de5cb82a9ae6729060005b8181106133635750505081613317910382613656565b6040519182916020830190602084525180915260408301919060005b818110613341575050500390f35b82516001600160a01b0316845285945060209384019390920191600101613333565b82546001600160a01b0316845260209093019260019283019201613301565b346103ab5760203660031901126103ab5761339b613904565b50600435600052600560205261349b604060002060ff600c604051926133c0846135cb565b805484526040516133d88161177e8160018601613881565b6020850152826002820154166133ed816134e7565b60408501526003810154606085015260048101546080850152600581015460a0850152600681015460c0850152600781015460e0850152600880820154610100860152600982015484161515610120860152600a820154610140860152600b8201546101608601529101548083166101808501529081901c6001600160a01b03166101a084015260a81c16613481816134f1565b6101c08201526040519182916020835260208301906134fb565b0390f35b60005b8381106134b25750506000910152565b81810151838201526020016134a2565b906020916134db8151809281855285808601910161349f565b601f01601f1916010190565b60031115610b3f57565b60021115610b3f57565b90815181526101c08061351f60208501516101e060208601526101e08501906134c2565b93604081015161352e816134e7565b6040850152606081015160608501526080810151608085015260a081015160a085015260c081015160c085015260e081015160e0850152610100810151610100850152610120810151151561012085015261014081015161014085015261016081015161016085015260ff6101808201511661018085015260018060a01b036101a0820151166101a08501520151916135c6836134f1565b015290565b6101e081019081106001600160401b0382111761108557604052565b60e081019081106001600160401b0382111761108557604052565b61014081019081106001600160401b0382111761108557604052565b61016081019081106001600160401b0382111761108557604052565b61012081019081106001600160401b0382111761108557604052565b90601f801991011681019081106001600160401b0382111761108557604052565b600435906001600160a01b03821682036103ab57565b6010548110156136a857601060005260206000200190600090565b634e487b7160e01b600052603260045260246000fd5b6001600160401b03811161108557601f01601f191660200190565b81601f820112156103ab578035906136f0826136be565b926136fe6040519485613656565b828452602083830101116103ab57816000926020809301838601378301015290565b60409060031901126103ab576004359060243590565b9060406003198301126103ab57600435916024356001600160401b0381116103ab5761016081830360031901126103ab57604051916137748361361e565b8160040135835260248201356001600160401b0381116103ab5781600461379d928501016136d9565b6020840152604482013560038110156103ab57604084015260648201356001600160401b0381116103ab578160046137d7928501016136d9565b60608401526084820135608084015260a482013560a084015260c482013560c084015260e482013560e0840152610104820135610100840152610124820135610120840152610144820135916001600160401b0383116103ab5761383e92016004016136d9565b61014082015290565b90600182811c92168015613877575b602083101461386157565b634e487b7160e01b600052602260045260246000fd5b91607f1691613856565b6000929181549161389183613847565b80835292600181169081156138e757506001146138ad57505050565b60009081526020812093945091925b8383106138cd575060209250010190565b6001816020929493945483858701015201910191906138bc565b915050602093945060ff929192191683830152151560051b010190565b60405190613911826135cb565b60006101c083828152606060208201528260408201528260608201528260808201528260a08201528260c08201528260e08201528261010082015282610120820152826101408201528261016082015282610180820152826101a08201520152565b91908201809211610e9c57565b519081151582036103ab57565b81810292918115918404141715610e9c57565b91908203918211610e9c57565b906139b7816134e7565b60ff80198354169116179055565b80518210156136a85760209160051b010190565b6040906139f0939281528160208201520190613881565b90565b6000198114610e9c5760010190565b6001600160401b0381116110855760051b60200190565b15613a2057565b60405162461bcd60e51b815260206004820152602160248201527f4e6f206465706f73697420666f756e6420666f722074686973206164647265736044820152607360f81b6064820152608490fd5b15613a7657565b60405162461bcd60e51b81526020600482015260156024820152744465706f736974206973206e6f742061637469766560581b6044820152606490fd5b15613aba57565b60405162461bcd60e51b815260206004820152601c60248201527f4465706f73697420706572696f6420686173206e6f7420656e646564000000006044820152606490fd5b3d15613b2a573d90613b10826136be565b91613b1e6040519384613656565b82523d6000602084013e565b606090565b15613b3657565b60405162461bcd60e51b815260206004820152601c60248201527f4e6174697665206173736574207472616e73666572206661696c6564000000006044820152606490fd5b15613b8257565b60405162461bcd60e51b8152602060048201526015602482015274115490cc8c081d1c985b9cd9995c8819985a5b1959605a1b6044820152606490fd5b600052600460205260406000208054613bd781613a02565b91613be56040519384613656565b818352602083019060005260206000206000915b838310613c07575050505090565b600b6020600192604051613c1a8161361e565b85548152604051613c318161177e81898b01613881565b8382015260ff600287015416613c46816134e7565b6040820152604051613c5f8161177e8160038b01613881565b606082015260048601546080820152600586015460a0820152600686015460c0820152600786015460e082015260088601546101008201526009860154610120820152604051613cb68161177e81600a8b01613881565b610140820152815201920192019190613bf9565b15613cd157565b60405162461bcd60e51b8152602060048201526012602482015271506f6f6c206973206e6f742061637469766560701b6044820152606490fd5b15613d1257565b606460405162461bcd60e51b815260206004820152602060248201527f43616c6c6572206973206e6f742074686520636f76657220636f6e74726163746044820152fd5b80548210156136a857600052600b602060002091020190600090565b9092919261412657825181556001810160208401518051906001600160401b038211611085578190613da48454613847565b601f81116140d3575b50602090601f831160011461406e57600092614063575b50508160011b916000199060031b1c19161790555b613df36040840151613dea816134e7565b600283016139ad565b6003810160608401518051906001600160401b03821161108557613e178354613847565b601f811161401b575b50602090601f8311600114613fad579180600a94926101409694600092613fa2575b50508160011b916000199060031b1c19161790555b6080850151600482015560a0850151600582015560c0850151600682015560e0850151600782015561010085015160088201556101208501516009820155019201519182516001600160401b03811161108557613eb48254613847565b601f8111613f5a575b506020601f8211600114613ef85781929394600092613eed575b50508160011b916000199060031b1c1916179055565b015190503880613ed7565b601f1982169083600052806000209160005b818110613f4257509583600195969710613f29575b505050811b019055565b015160001960f88460031b161c19169055388080613f1f565b9192602060018192868b015181550194019201613f0a565b826000526020600020601f830160051c81019160208410613f98575b601f0160051c01905b818110613f8c5750613ebd565b60008155600101613f7f565b9091508190613f76565b015190503880613e42565b90601f1983169184600052816000209260005b81811061400357509260019285926101409896600a989610613fea575b505050811b019055613e57565b015160001960f88460031b161c19169055388080613fdd565b92936020600181928786015181550195019301613fc0565b836000526020600020601f840160051c81019160208510614059575b601f0160051c01905b81811061404d5750613e20565b60008155600101614040565b9091508190614037565b015190503880613dc4565b60008581528281209350601f198516905b8181106140bb57509084600195949392106140a2575b505050811b019055613dd9565b015160001960f88460031b161c19169055388080614095565b9293602060018192878601518155019501930161407f565b909150836000526020600020601f840160051c8101916020851061411c575b90601f859493920160051c01905b81811061410d5750613dad565b60008155849350600101614100565b90915081906140f2565b634e487b7160e01b600052600060045260246000fd5b51906001600160a01b03821682036103ab57565b81601f820112156103ab578051614166816136be565b926141746040519485613656565b818452602082840101116103ab576139f0916020808501910161349f565b90816101209103126103ab57604051906141ab8261363a565b6141b48161413c565b825260208101516020830152604081015160408301526060810151606083015260808101519060038210156103ab5761010091608084015260a081015160a084015260c081015160c084015260e081015160e0840152015161010082015290565b600260005414614226576002600055565b633ee5aeb560e01b60005260046000fd5b6001546001600160a01b0316330361424b57565b63118cdaa760e01b6000523360045260246000fdfe485f1bb6524c663555797e00171a10f341656e59b02d6b557a0a38ba7d5d9751a2646970667358221220fc0f18f9a583883457f7a6a9cd2ea8774512bb24f47dc3467a6fec3ada49e10464736f6c634300081b0033",
  "linkReferences": {},
  "deployedLinkReferences": {}
}