{
  "_format": "hh-sol-artifact-1",
  "contractName": "bqBTC",
  "sourceName": "contracts/bqBTC.sol",
  "abi": [
    {
      "inputs": [
        {
          "internalType": "string",
          "name": "name",
          "type": "string"
        },
        {
          "internalType": "string",
          "name": "symbol",
          "type": "string"
        },
        {
          "internalType": "uint8",
          "name": "decimals_",
          "type": "uint8"
        },
        {
          "internalType": "uint256",
          "name": "initialSupply",
          "type": "uint256"
        },
        {
          "internalType": "address",
          "name": "_initialOwner",
          "type": "address"
        },
        {
          "internalType": "address",
          "name": "_alternativeToken",
          "type": "address"
        },
        {
          "internalType": "uint256",
          "name": "_multiplier",
          "type": "uint256"
        }
      ],
      "stateMutability": "nonpayable",
      "type": "constructor"
    },
    {
      "inputs": [
        {
          "internalType": "address",
          "name": "spender",
          "type": "address"
        },
        {
          "internalType": "uint256",
          "name": "allowance",
          "type": "uint256"
        },
        {
          "internalType": "uint256",
          "name": "needed",
          "type": "uint256"
        }
      ],
      "name": "ERC20InsufficientAllowance",
      "type": "error"
    },
    {
      "inputs": [
        {
          "internalType": "address",
          "name": "sender",
          "type": "address"
        },
        {
          "internalType": "uint256",
          "name": "balance",
          "type": "uint256"
        },
        {
          "internalType": "uint256",
          "name": "needed",
          "type": "uint256"
        }
      ],
      "name": "ERC20InsufficientBalance",
      "type": "error"
    },
    {
      "inputs": [
        {
          "internalType": "address",
          "name": "approver",
          "type": "address"
        }
      ],
      "name": "ERC20InvalidApprover",
      "type": "error"
    },
    {
      "inputs": [
        {
          "internalType": "address",
          "name": "receiver",
          "type": "address"
        }
      ],
      "name": "ERC20InvalidReceiver",
      "type": "error"
    },
    {
      "inputs": [
        {
          "internalType": "address",
          "name": "sender",
          "type": "address"
        }
      ],
      "name": "ERC20InvalidSender",
      "type": "error"
    },
    {
      "inputs": [
        {
          "internalType": "address",
          "name": "spender",
          "type": "address"
        }
      ],
      "name": "ERC20InvalidSpender",
      "type": "error"
    },
    {
      "inputs": [
        {
          "internalType": "address",
          "name": "owner",
          "type": "address"
        }
      ],
      "name": "OwnableInvalidOwner",
      "type": "error"
    },
    {
      "inputs": [
        {
          "internalType": "address",
          "name": "account",
          "type": "address"
        }
      ],
      "name": "OwnableUnauthorizedAccount",
      "type": "error"
    },
    {
      "inputs": [
        {
          "internalType": "address",
          "name": "token",
          "type": "address"
        }
      ],
      "name": "SafeERC20FailedOperation",
      "type": "error"
    },
    {
      "anonymous": false,
      "inputs": [
        {
          "indexed": true,
          "internalType": "address",
          "name": "owner",
          "type": "address"
        },
        {
          "indexed": true,
          "internalType": "address",
          "name": "spender",
          "type": "address"
        },
        {
          "indexed": false,
          "internalType": "uint256",
          "name": "value",
          "type": "uint256"
        }
      ],
      "name": "Approval",
      "type": "event"
    },
    {
      "anonymous": false,
      "inputs": [
        {
          "indexed": true,
          "internalType": "address",
          "name": "account",
          "type": "address"
        },
        {
          "indexed": false,
          "internalType": "uint256",
          "name": "amount",
          "type": "uint256"
        },
        {
          "indexed": false,
          "internalType": "uint256",
          "name": "chainId",
          "type": "uint256"
        },
        {
          "indexed": false,
          "internalType": "bool",
          "name": "native",
          "type": "bool"
        }
      ],
      "name": "Mint",
      "type": "event"
    },
    {
      "anonymous": false,
      "inputs": [
        {
          "indexed": true,
          "internalType": "address",
          "name": "previousOwner",
          "type": "address"
        },
        {
          "indexed": true,
          "internalType": "address",
          "name": "newOwner",
          "type": "address"
        }
      ],
      "name": "OwnershipTransferred",
      "type": "event"
    },
    {
      "anonymous": false,
      "inputs": [
        {
          "indexed": true,
          "internalType": "address",
          "name": "from",
          "type": "address"
        },
        {
          "indexed": true,
          "internalType": "address",
          "name": "to",
          "type": "address"
        },
        {
          "indexed": false,
          "internalType": "uint256",
          "name": "value",
          "type": "uint256"
        }
      ],
      "name": "Transfer",
      "type": "event"
    },
    {
      "inputs": [
        {
          "internalType": "address",
          "name": "owner",
          "type": "address"
        },
        {
          "internalType": "address",
          "name": "spender",
          "type": "address"
        }
      ],
      "name": "allowance",
      "outputs": [
        {
          "internalType": "uint256",
          "name": "",
          "type": "uint256"
        }
      ],
      "stateMutability": "view",
      "type": "function"
    },
    {
      "inputs": [],
      "name": "alternativeToken",
      "outputs": [
        {
          "internalType": "contract IERC20",
          "name": "",
          "type": "address"
        }
      ],
      "stateMutability": "view",
      "type": "function"
    },
    {
      "inputs": [
        {
          "internalType": "address",
          "name": "spender",
          "type": "address"
        },
        {
          "internalType": "uint256",
          "name": "amount",
          "type": "uint256"
        }
      ],
      "name": "approve",
      "outputs": [
        {
          "internalType": "bool",
          "name": "",
          "type": "bool"
        }
      ],
      "stateMutability": "nonpayable",
      "type": "function"
    },
    {
      "inputs": [
        {
          "internalType": "address",
          "name": "account",
          "type": "address"
        }
      ],
      "name": "balanceOf",
      "outputs": [
        {
          "internalType": "uint256",
          "name": "",
          "type": "uint256"
        }
      ],
      "stateMutability": "view",
      "type": "function"
    },
    {
      "inputs": [
        {
          "internalType": "address",
          "name": "account",
          "type": "address"
        },
        {
          "internalType": "uint256",
          "name": "amount",
          "type": "uint256"
        }
      ],
      "name": "bqMint",
      "outputs": [],
      "stateMutability": "nonpayable",
      "type": "function"
    },
    {
      "inputs": [
        {
          "internalType": "address",
          "name": "account",
          "type": "address"
        },
        {
          "internalType": "uint256",
          "name": "amount",
          "type": "uint256"
        }
      ],
      "name": "burn",
      "outputs": [],
      "stateMutability": "nonpayable",
      "type": "function"
    },
    {
      "inputs": [],
      "name": "coverAddress",
      "outputs": [
        {
          "internalType": "address",
          "name": "",
          "type": "address"
        }
      ],
      "stateMutability": "view",
      "type": "function"
    },
    {
      "inputs": [],
      "name": "decimals",
      "outputs": [
        {
          "internalType": "uint8",
          "name": "",
          "type": "uint8"
        }
      ],
      "stateMutability": "view",
      "type": "function"
    },
    {
      "inputs": [],
      "name": "initialOwner",
      "outputs": [
        {
          "internalType": "address",
          "name": "",
          "type": "address"
        }
      ],
      "stateMutability": "view",
      "type": "function"
    },
    {
      "inputs": [
        {
          "internalType": "address",
          "name": "account",
          "type": "address"
        },
        {
          "internalType": "uint256",
          "name": "btcAmount",
          "type": "uint256"
        }
      ],
      "name": "mint",
      "outputs": [],
      "stateMutability": "payable",
      "type": "function"
    },
    {
      "inputs": [],
      "name": "name",
      "outputs": [
        {
          "internalType": "string",
          "name": "",
          "type": "string"
        }
      ],
      "stateMutability": "view",
      "type": "function"
    },
    {
      "inputs": [
        {
          "internalType": "uint256",
          "name": "chainId",
          "type": "uint256"
        }
      ],
      "name": "networkMultipliers",
      "outputs": [
        {
          "internalType": "uint256",
          "name": "multiplier",
          "type": "uint256"
        }
      ],
      "stateMutability": "view",
      "type": "function"
    },
    {
      "inputs": [],
      "name": "owner",
      "outputs": [
        {
          "internalType": "address",
          "name": "",
          "type": "address"
        }
      ],
      "stateMutability": "view",
      "type": "function"
    },
    {
      "inputs": [],
      "name": "poolAddress",
      "outputs": [
        {
          "internalType": "address",
          "name": "",
          "type": "address"
        }
      ],
      "stateMutability": "view",
      "type": "function"
    },
    {
      "inputs": [],
      "name": "renounceOwnership",
      "outputs": [],
      "stateMutability": "nonpayable",
      "type": "function"
    },
    {
      "inputs": [
        {
          "internalType": "address",
          "name": "pool",
          "type": "address"
        },
        {
          "internalType": "address",
          "name": "cover",
          "type": "address"
        },
        {
          "internalType": "address",
          "name": "vault",
          "type": "address"
        }
      ],
      "name": "setContracts",
      "outputs": [],
      "stateMutability": "nonpayable",
      "type": "function"
    },
    {
      "inputs": [
        {
          "internalType": "uint256",
          "name": "chainId",
          "type": "uint256"
        },
        {
          "internalType": "uint256",
          "name": "multiplier",
          "type": "uint256"
        }
      ],
      "name": "setNetworkMultiplier",
      "outputs": [],
      "stateMutability": "nonpayable",
      "type": "function"
    },
    {
      "inputs": [],
      "name": "symbol",
      "outputs": [
        {
          "internalType": "string",
          "name": "",
          "type": "string"
        }
      ],
      "stateMutability": "view",
      "type": "function"
    },
    {
      "inputs": [],
      "name": "totalSupply",
      "outputs": [
        {
          "internalType": "uint256",
          "name": "",
          "type": "uint256"
        }
      ],
      "stateMutability": "view",
      "type": "function"
    },
    {
      "inputs": [
        {
          "internalType": "address",
          "name": "to",
          "type": "address"
        },
        {
          "internalType": "uint256",
          "name": "amount",
          "type": "uint256"
        }
      ],
      "name": "transfer",
      "outputs": [
        {
          "internalType": "bool",
          "name": "",
          "type": "bool"
        }
      ],
      "stateMutability": "nonpayable",
      "type": "function"
    },
    {
      "inputs": [
        {
          "internalType": "address",
          "name": "from",
          "type": "address"
        },
        {
          "internalType": "address",
          "name": "to",
          "type": "address"
        },
        {
          "internalType": "uint256",
          "name": "amount",
          "type": "uint256"
        }
      ],
      "name": "transferFrom",
      "outputs": [
        {
          "internalType": "bool",
          "name": "",
          "type": "bool"
        }
      ],
      "stateMutability": "nonpayable",
      "type": "function"
    },
    {
      "inputs": [
        {
          "internalType": "address",
          "name": "newOwner",
          "type": "address"
        }
      ],
      "name": "transferOwnership",
      "outputs": [],
      "stateMutability": "nonpayable",
      "type": "function"
    }
  ],
  "bytecode": "0x60806040523461055f5761164f8038038061001981610564565b92833981019060e08183031261055f5780516001600160401b03811161055f5782610045918301610589565b602082015190926001600160401b03821161055f57610065918301610589565b604082015160ff8116810361055f57606083015191610086608085016105f4565b9060c061009560a087016105f4565b950151865190966001600160401b03821161045c5760035490600182811c92168015610555575b602083101461043c5781601f8493116104e5575b50602090601f831160011461047d57600092610472575b50508160011b916000199060031b1c1916176003555b8051906001600160401b03821161045c5760045490600182811c92168015610452575b602083101461043c5781601f8493116103cc575b50602090601f831160011461036457600092610359575b50508160011b916000199060031b1c1916176004555b6001600160a01b031692831561034357600554604051909190856001600160a01b0384167f8be0079c531659141344cd1fd0a4f28419497f9722a3daafe3b4186f6b6457e0600080a386151580610338575b156102ea57506001600160a01b03169182156102a5576001600160a81b0319909116841760a09190911b60ff60a01b1617600555331561028f576002549282840180941161027957604093600255600092338452836020528484208181540190558451908152837fddf252ad1be2c89b69c2b068fc378daa952ba7f163c4a11628f55a4df523b3ef60203393a360018060a01b0319600854161760085560018060a01b0319600a541617600a554681526009602052205560405161104690816106098239f35b634e487b7160e01b600052601160045260246000fd5b63ec442f0560e01b600052600060045260246000fd5b60405162461bcd60e51b815260206004820152601560248201527f496e76616c696420746f6b656e206164647265737300000000000000000000006044820152606490fd5b62461bcd60e51b8152602060048201526024808201527f4d756c7469706c696572206d7573742062652067726561746572207468616e206044820152637a65726f60e01b6064820152608490fd5b5061044c87106101b3565b631e4fbdf760e01b600052600060045260246000fd5b01519050388061014b565b600460009081528281209350601f198516905b8181106103b4575090846001959493921061039b575b505050811b01600455610161565b015160001960f88460031b161c1916905538808061038d565b92936020600181928786015181550195019301610377565b60046000529091507f8a35acfbc15ff81a39ae7d344fd709f28e8600b4aa8c65c6b64bfe7fe36bd19b601f840160051c81019160208510610432575b90601f859493920160051c01905b8181106104235750610134565b60008155849350600101610416565b9091508190610408565b634e487b7160e01b600052602260045260246000fd5b91607f1691610120565b634e487b7160e01b600052604160045260246000fd5b0151905038806100e7565b600360009081528281209350601f198516905b8181106104cd57509084600195949392106104b4575b505050811b016003556100fd565b015160001960f88460031b161c191690553880806104a6565b92936020600181928786015181550195019301610490565b60036000529091507fc2575a0e9e593c00f959f8c92f12db2869c3395a3b0502d05e2516446f71f85b601f840160051c8101916020851061054b575b90601f859493920160051c01905b81811061053c57506100d0565b6000815584935060010161052f565b9091508190610521565b91607f16916100bc565b600080fd5b6040519190601f01601f191682016001600160401b0381118382101761045c57604052565b81601f8201121561055f578051906001600160401b03821161045c576105b8601f8301601f1916602001610564565b928284526020838301011161055f5760005b8281106105df57505060206000918301015290565b806020809284010151828287010152016105ca565b51906001600160a01b038216820361055f5756fe608080604052600436101561001357600080fd5b60003560e01c9081630278289014610ddb5750806306fdde0314610d1c578063095ea7b314610c965780631755ff2114610c6d57806318160ddd14610c4f57806321ced86b14610bb357806323b872dd14610ac657806329ba7bb214610a9d578063313ce56714610a7957806340c10f19146107ed57806370a08231146107b3578063715018a6146107565780638da5cb5b1461072d57806395d89b41146106255780639dc29fac146104d6578063a1572ade146104ad578063a9059cbb1461047c578063b3066d49146102f9578063c743c4c6146102d0578063dd62ed3e1461027f578063e2094eda146101a05763f2fde38b1461011157600080fd5b3461019b57602036600319011261019b5761012a610e4c565b610132610ed9565b6001600160a01b0316801561018557600580546001600160a01b0319811683179091556001600160a01b03167f8be0079c531659141344cd1fd0a4f28419497f9722a3daafe3b4186f6b6457e0600080a3005b631e4fbdf760e01b600052600060045260246000fd5b600080fd5b3461019b57604036600319011261019b576101b9610e4c565b6007546001600160a01b03163314801561026b575b8015610257575b8015610243575b156101f0576101ee9060243590610f02565b005b60405162461bcd60e51b815260206004820152602560248201527f43616c6c6572206973206e6f742074686520676f7665726e616e636520636f6e6044820152641d1c9858dd60da1b6064820152608490fd5b506006546001600160a01b031633146101dc565b50600b546001600160a01b031633146101d5565b506008546001600160a01b031633146101ce565b3461019b57604036600319011261019b57610298610e4c565b6102a0610e62565b6001600160a01b039182166000908152600160209081526040808320949093168252928352819020549051908152f35b3461019b57600036600319011261019b576007546040516001600160a01b039091168152602090f35b3461019b57606036600319011261019b57610312610e4c565b61031a610e62565b6044356001600160a01b038116929083900361019b57610338610ed9565b6001600160a01b0316908115158061046a575b80610461575b1561042457600654906001600160a01b0382161580610411575b806103fe575b156103b95760018060a01b03166001600160601b0360a01b60075416176007556001600160601b0360a01b16176006556001600160601b0360a01b600b541617600b55600080f35b60405162461bcd60e51b815260206004820152601860248201527f506f6f6c206164647265737320616c72656164792073657400000000000000006044820152606490fd5b50600b546001600160a01b031615610371565b506007546001600160a01b03161561036b565b60405162461bcd60e51b8152602060048201526015602482015274416464726573732063616e7420626520656d70747960581b6044820152606490fd5b50821515610351565b506001600160a01b038116151561034b565b3461019b57604036600319011261019b576104a2610498610e4c565b6024359033610f77565b602060405160018152f35b3461019b57600036600319011261019b57600a546040516001600160a01b039091168152602090f35b3461019b57604036600319011261019b576104ef610e4c565b6024359060018060a01b036008541633148015610611575b80156105fd575b156105ad576001600160a01b03169081156105975760009082825281602052604082205481811061057f5760208285937fddf252ad1be2c89b69c2b068fc378daa952ba7f163c4a11628f55a4df523b3ef93869787528684520360408620558060025403600255604051908152a380f35b60649363391434e360e21b8452600452602452604452fd5b634b637e8f60e11b600052600060045260246000fd5b60405162461bcd60e51b815260206004820152602260248201527f6e6f7420617574686f72697a656420746f2063616c6c2068652066756e63746960448201526137b760f11b6064820152608490fd5b506007546001600160a01b0316331461050e565b506006546001600160a01b03163314610507565b3461019b57600036600319011261019b5760405160006004548060011c90600181168015610723575b60208310811461070f578285529081156106eb575060011461068b575b6106878361067b81850382610e78565b60405191829182610e03565b0390f35b91905060046000527f8a35acfbc15ff81a39ae7d344fd709f28e8600b4aa8c65c6b64bfe7fe36bd19b916000905b8082106106d15750909150810160200161067b61066b565b9192600181602092548385880101520191019092916106b9565b60ff191660208086019190915291151560051b8401909101915061067b905061066b565b634e487b7160e01b84526022600452602484fd5b91607f169161064e565b3461019b57600036600319011261019b576005546040516001600160a01b039091168152602090f35b3461019b57600036600319011261019b5761076f610ed9565b600580546001600160a01b031981169091556000906001600160a01b03167f8be0079c531659141344cd1fd0a4f28419497f9722a3daafe3b4186f6b6457e08280a3005b3461019b57602036600319011261019b576001600160a01b036107d4610e4c565b1660005260006020526020604060002054604051908152f35b604036600319011261019b57610801610e4c565b60243590466000526009602052604060002054908115610a34576001600160a01b0381169283156109ef5734158015936000928391866109d1575b836108df575b505084916108d7575b5015610893577fcd2127828092f586df56003faf212897e901bb47f89a227e1acd3a0738f1fe5f9261087f82606094610f02565b6040519182524660208301526040820152a2005b606460405162461bcd60e51b815260206004820152602060248201527f496e73756666696369656e7420746f6b656e732073656e7420746f206d696e746044820152fd5b90508561084b565b8194506108f590670de0b6b3a764000092610eb0565b0492801561098c5760208260018060a01b03600a541692604051838101916323b872dd60e01b835233602483015230604483015260648201526064815261093d608482610e78565b519082855af11561097f5781513d6109765750803b155b61096357505060018680610842565b635274afe760e01b825260045260249150fd5b60011415610954565b50604051903d90823e3d90fd5b60405162461bcd60e51b815260206004820152601d60248201527f616d6f756e74206d7573742062652067726561746572207468616e20300000006044820152606490fd5b839450670de0b6b3a76400006109e78234610eb0565b04945061083c565b60405162461bcd60e51b815260206004820152601760248201527f496e76616c6964206163636f756e7420616464726573730000000000000000006044820152606490fd5b60405162461bcd60e51b815260206004820152601e60248201527f4e6f206d756c7469706c69657220666f722074686973206e6574776f726b00006044820152606490fd5b3461019b57600036600319011261019b57602060ff60055460a01c16604051908152f35b3461019b57600036600319011261019b576008546040516001600160a01b039091168152602090f35b3461019b57606036600319011261019b57610adf610e4c565b610ae7610e62565b6001600160a01b0382166000818152600160208181526040808420338552909152909120549193604435939290918101610b27575b506104a29350610f77565b838110610b96578415610b80573315610b6a576104a2946000526001602052604060002060018060a01b0333166000526020528360406000209103905584610b1c565b634a1406b160e11b600052600060045260246000fd5b63e602df0560e01b600052600060045260246000fd5b8390637dc7a0d960e11b6000523360045260245260445260646000fd5b3461019b57604036600319011261019b57602435610bcf610ed9565b80151580610c44575b15610bf3576004356000526009602052604060002055600080f35b60405162461bcd60e51b8152602060048201526024808201527f4d756c7469706c696572206d7573742062652067726561746572207468616e206044820152637a65726f60e01b6064820152608490fd5b5061044c8110610bd8565b3461019b57600036600319011261019b576020600254604051908152f35b3461019b57600036600319011261019b576006546040516001600160a01b039091168152602090f35b3461019b57604036600319011261019b57610caf610e4c565b602435903315610b80576001600160a01b0316908115610b6a57336000526001602052604060002082600052602052806040600020556040519081527f8c5be1e5ebec7d5bd14f71427d1e84f3dd0314c0f7b2291e5b200ac8c7c3b92560203392a3602060405160018152f35b3461019b57600036600319011261019b5760405160006003548060011c90600181168015610dd1575b60208310811461070f578285529081156106eb5750600114610d71576106878361067b81850382610e78565b91905060036000527fc2575a0e9e593c00f959f8c92f12db2869c3395a3b0502d05e2516446f71f85b916000905b808210610db75750909150810160200161067b61066b565b919260018160209254838588010152019101909291610d9f565b91607f1691610d45565b3461019b57602036600319011261019b57602090600435600052600982526040600020548152f35b91909160208152825180602083015260005b818110610e36575060409293506000838284010152601f8019910116010190565b8060208092870101516040828601015201610e15565b600435906001600160a01b038216820361019b57565b602435906001600160a01b038216820361019b57565b90601f8019910116810190811067ffffffffffffffff821117610e9a57604052565b634e487b7160e01b600052604160045260246000fd5b81810292918115918404141715610ec357565b634e487b7160e01b600052601160045260246000fd5b6005546001600160a01b03163303610eed57565b63118cdaa760e01b6000523360045260246000fd5b6001600160a01b0316908115610f6157600254818101809111610ec3576002557fddf252ad1be2c89b69c2b068fc378daa952ba7f163c4a11628f55a4df523b3ef602060009284845283825260408420818154019055604051908152a3565b63ec442f0560e01b600052600060045260246000fd5b6001600160a01b0316908115610597576001600160a01b0316918215610f61576000828152806020526040812054828110610ff65791604082827fddf252ad1be2c89b69c2b068fc378daa952ba7f163c4a11628f55a4df523b3ef958760209652828652038282205586815280845220818154019055604051908152a3565b916064928463391434e360e21b8452600452602452604452fdfea2646970667358221220f657b92ab82254fd23fe20d81d2580c58660da7fa1525e4925f3c66d8dda3fac64736f6c634300081c0033",
  "linkReferences": {},
  "deployedLinkReferences": {}
}