{
  "_format": "hh-sol-artifact-1",
  "contractName": "InsuranceCover",
  "sourceName": "contracts/InsuranceCover.sol",
  "abi": [
    {
      "inputs": [
        {
          "internalType": "address",
          "name": "_lpContract",
          "type": "address"
        },
        {
          "internalType": "address",
          "name": "_initialOwner",
          "type": "address"
        },
        {
          "internalType": "address",
          "name": "_bqBTC",
          "type": "address"
        }
      ],
      "stateMutability": "nonpayable",
      "type": "constructor"
    },
    {
      "inputs": [],
      "name": "CoverNotAvailable",
      "type": "error"
    },
    {
      "inputs": [],
      "name": "InsufficientPoolBalance",
      "type": "error"
    },
    {
      "inputs": [],
      "name": "InvalidAmount",
      "type": "error"
    },
    {
      "inputs": [],
      "name": "InvalidCoverDuration",
      "type": "error"
    },
    {
      "inputs": [],
      "name": "LpNotActive",
      "type": "error"
    },
    {
      "inputs": [],
      "name": "NameAlreadyExists",
      "type": "error"
    },
    {
      "inputs": [],
      "name": "NoClaimableReward",
      "type": "error"
    },
    {
      "inputs": [
        {
          "internalType": "address",
          "name": "owner",
          "type": "address"
        }
      ],
      "name": "OwnableInvalidOwner",
      "type": "error"
    },
    {
      "inputs": [
        {
          "internalType": "address",
          "name": "account",
          "type": "address"
        }
      ],
      "name": "OwnableUnauthorizedAccount",
      "type": "error"
    },
    {
      "inputs": [],
      "name": "ReentrancyGuardReentrantCall",
      "type": "error"
    },
    {
      "inputs": [],
      "name": "UnsupportedCoverType",
      "type": "error"
    },
    {
      "inputs": [],
      "name": "UserHaveAlreadyPurchasedCover",
      "type": "error"
    },
    {
      "inputs": [],
      "name": "WrongPool",
      "type": "error"
    },
    {
      "anonymous": false,
      "inputs": [
        {
          "indexed": true,
          "internalType": "uint256",
          "name": "coverId",
          "type": "uint256"
        },
        {
          "indexed": false,
          "internalType": "string",
          "name": "name",
          "type": "string"
        },
        {
          "indexed": false,
          "internalType": "enum CoverLib.RiskType",
          "name": "riskType",
          "type": "uint8"
        }
      ],
      "name": "CoverCreated",
      "type": "event"
    },
    {
      "anonymous": false,
      "inputs": [
        {
          "indexed": true,
          "internalType": "address",
          "name": "user",
          "type": "address"
        },
        {
          "indexed": false,
          "internalType": "uint256",
          "name": "coverValue",
          "type": "uint256"
        },
        {
          "indexed": false,
          "internalType": "uint256",
          "name": "coverFee",
          "type": "uint256"
        },
        {
          "indexed": false,
          "internalType": "enum CoverLib.RiskType",
          "name": "riskType",
          "type": "uint8"
        }
      ],
      "name": "CoverPurchased",
      "type": "event"
    },
    {
      "anonymous": false,
      "inputs": [
        {
          "indexed": true,
          "internalType": "uint256",
          "name": "coverId",
          "type": "uint256"
        },
        {
          "indexed": false,
          "internalType": "string",
          "name": "coverName",
          "type": "string"
        },
        {
          "indexed": false,
          "internalType": "enum CoverLib.RiskType",
          "name": "riskType",
          "type": "uint8"
        }
      ],
      "name": "CoverUpdated",
      "type": "event"
    },
    {
      "anonymous": false,
      "inputs": [
        {
          "indexed": true,
          "internalType": "address",
          "name": "previousOwner",
          "type": "address"
        },
        {
          "indexed": true,
          "internalType": "address",
          "name": "newOwner",
          "type": "address"
        }
      ],
      "name": "OwnershipTransferred",
      "type": "event"
    },
    {
      "anonymous": false,
      "inputs": [
        {
          "indexed": true,
          "internalType": "address",
          "name": "user",
          "type": "address"
        },
        {
          "indexed": true,
          "internalType": "uint256",
          "name": "poolId",
          "type": "uint256"
        },
        {
          "indexed": false,
          "internalType": "uint256",
          "name": "amount",
          "type": "uint256"
        }
      ],
      "name": "PayoutClaimed",
      "type": "event"
    },
    {
      "inputs": [
        {
          "internalType": "address",
          "name": "",
          "type": "address"
        },
        {
          "internalType": "uint256",
          "name": "",
          "type": "uint256"
        }
      ],
      "name": "LastVaultClaimTime",
      "outputs": [
        {
          "internalType": "uint256",
          "name": "",
          "type": "uint256"
        }
      ],
      "stateMutability": "view",
      "type": "function"
    },
    {
      "inputs": [
        {
          "internalType": "address",
          "name": "",
          "type": "address"
        },
        {
          "internalType": "uint256",
          "name": "",
          "type": "uint256"
        }
      ],
      "name": "NextLpClaimTime",
      "outputs": [
        {
          "internalType": "uint256",
          "name": "",
          "type": "uint256"
        }
      ],
      "stateMutability": "view",
      "type": "function"
    },
    {
      "inputs": [],
      "name": "bqBTC",
      "outputs": [
        {
          "internalType": "contract IbqBTC",
          "name": "",
          "type": "address"
        }
      ],
      "stateMutability": "view",
      "type": "function"
    },
    {
      "inputs": [],
      "name": "bqBTCAddress",
      "outputs": [
        {
          "internalType": "address",
          "name": "",
          "type": "address"
        }
      ],
      "stateMutability": "view",
      "type": "function"
    },
    {
      "inputs": [
        {
          "internalType": "uint256",
          "name": "_poolId",
          "type": "uint256"
        }
      ],
      "name": "claimPayoutForLP",
      "outputs": [],
      "stateMutability": "nonpayable",
      "type": "function"
    },
    {
      "inputs": [
        {
          "internalType": "uint256",
          "name": "vaultId",
          "type": "uint256"
        }
      ],
      "name": "clamPayoutForVault",
      "outputs": [],
      "stateMutability": "nonpayable",
      "type": "function"
    },
    {
      "inputs": [],
      "name": "coverCount",
      "outputs": [
        {
          "internalType": "uint256",
          "name": "",
          "type": "uint256"
        }
      ],
      "stateMutability": "view",
      "type": "function"
    },
    {
      "inputs": [
        {
          "internalType": "uint256",
          "name": "",
          "type": "uint256"
        }
      ],
      "name": "coverExists",
      "outputs": [
        {
          "internalType": "bool",
          "name": "",
          "type": "bool"
        }
      ],
      "stateMutability": "view",
      "type": "function"
    },
    {
      "inputs": [],
      "name": "coverFeeBalance",
      "outputs": [
        {
          "internalType": "uint256",
          "name": "",
          "type": "uint256"
        }
      ],
      "stateMutability": "view",
      "type": "function"
    },
    {
      "inputs": [
        {
          "internalType": "uint256",
          "name": "",
          "type": "uint256"
        }
      ],
      "name": "coverIds",
      "outputs": [
        {
          "internalType": "uint256",
          "name": "",
          "type": "uint256"
        }
      ],
      "stateMutability": "view",
      "type": "function"
    },
    {
      "inputs": [
        {
          "internalType": "uint256",
          "name": "",
          "type": "uint256"
        }
      ],
      "name": "covers",
      "outputs": [
        {
          "internalType": "uint256",
          "name": "id",
          "type": "uint256"
        },
        {
          "internalType": "string",
          "name": "coverName",
          "type": "string"
        },
        {
          "internalType": "enum CoverLib.RiskType",
          "name": "riskType",
          "type": "uint8"
        },
        {
          "internalType": "string",
          "name": "chains",
          "type": "string"
        },
        {
          "internalType": "uint256",
          "name": "capacity",
          "type": "uint256"
        },
        {
          "internalType": "uint256",
          "name": "capacityAmount",
          "type": "uint256"
        },
        {
          "internalType": "uint256",
          "name": "coverValues",
          "type": "uint256"
        },
        {
          "internalType": "uint256",
          "name": "maxAmount",
          "type": "uint256"
        },
        {
          "internalType": "uint256",
          "name": "poolId",
          "type": "uint256"
        },
        {
          "internalType": "string",
          "name": "CID",
          "type": "string"
        },
        {
          "internalType": "enum CoverLib.AssetDepositType",
          "name": "adt",
          "type": "uint8"
        },
        {
          "internalType": "address",
          "name": "asset",
          "type": "address"
        }
      ],
      "stateMutability": "view",
      "type": "function"
    },
    {
      "inputs": [
        {
          "internalType": "uint256",
          "name": "coverId",
          "type": "uint256"
        },
        {
          "internalType": "string",
          "name": "_cid",
          "type": "string"
        },
        {
          "internalType": "enum CoverLib.RiskType",
          "name": "_riskType",
          "type": "uint8"
        },
        {
          "internalType": "string",
          "name": "_coverName",
          "type": "string"
        },
        {
          "internalType": "string",
          "name": "_chains",
          "type": "string"
        },
        {
          "internalType": "uint256",
          "name": "_capacity",
          "type": "uint256"
        },
        {
          "internalType": "uint256",
          "name": "_poolId",
          "type": "uint256"
        }
      ],
      "name": "createCover",
      "outputs": [],
      "stateMutability": "nonpayable",
      "type": "function"
    },
    {
      "inputs": [
        {
          "internalType": "address",
          "name": "_user",
          "type": "address"
        }
      ],
      "name": "deleteExpiredUserCovers",
      "outputs": [],
      "stateMutability": "nonpayable",
      "type": "function"
    },
    {
      "inputs": [],
      "name": "getAllAvailableCovers",
      "outputs": [
        {
          "components": [
            {
              "internalType": "uint256",
              "name": "id",
              "type": "uint256"
            },
            {
              "internalType": "string",
              "name": "coverName",
              "type": "string"
            },
            {
              "internalType": "enum CoverLib.RiskType",
              "name": "riskType",
              "type": "uint8"
            },
            {
              "internalType": "string",
              "name": "chains",
              "type": "string"
            },
            {
              "internalType": "uint256",
              "name": "capacity",
              "type": "uint256"
            },
            {
              "internalType": "uint256",
              "name": "capacityAmount",
              "type": "uint256"
            },
            {
              "internalType": "uint256",
              "name": "coverValues",
              "type": "uint256"
            },
            {
              "internalType": "uint256",
              "name": "maxAmount",
              "type": "uint256"
            },
            {
              "internalType": "uint256",
              "name": "poolId",
              "type": "uint256"
            },
            {
              "internalType": "string",
              "name": "CID",
              "type": "string"
            },
            {
              "internalType": "enum CoverLib.AssetDepositType",
              "name": "adt",
              "type": "uint8"
            },
            {
              "internalType": "address",
              "name": "asset",
              "type": "address"
            }
          ],
          "internalType": "struct CoverLib.Cover[]",
          "name": "",
          "type": "tuple[]"
        }
      ],
      "stateMutability": "view",
      "type": "function"
    },
    {
      "inputs": [],
      "name": "getAllParticipants",
      "outputs": [
        {
          "internalType": "address[]",
          "name": "",
          "type": "address[]"
        }
      ],
      "stateMutability": "view",
      "type": "function"
    },
    {
      "inputs": [
        {
          "internalType": "address",
          "name": "user",
          "type": "address"
        }
      ],
      "name": "getAllUserCovers",
      "outputs": [
        {
          "components": [
            {
              "internalType": "address",
              "name": "user",
              "type": "address"
            },
            {
              "internalType": "uint256",
              "name": "coverId",
              "type": "uint256"
            },
            {
              "internalType": "enum CoverLib.RiskType",
              "name": "riskType",
              "type": "uint8"
            },
            {
              "internalType": "string",
              "name": "coverName",
              "type": "string"
            },
            {
              "internalType": "uint256",
              "name": "coverValue",
              "type": "uint256"
            },
            {
              "internalType": "uint256",
              "name": "claimPaid",
              "type": "uint256"
            },
            {
              "internalType": "uint256",
              "name": "coverPeriod",
              "type": "uint256"
            },
            {
              "internalType": "uint256",
              "name": "endDay",
              "type": "uint256"
            },
            {
              "internalType": "bool",
              "name": "isActive",
              "type": "bool"
            }
          ],
          "internalType": "struct CoverLib.GenericCoverInfo[]",
          "name": "",
          "type": "tuple[]"
        }
      ],
      "stateMutability": "view",
      "type": "function"
    },
    {
      "inputs": [],
      "name": "getCoverFeeBalance",
      "outputs": [
        {
          "internalType": "uint256",
          "name": "",
          "type": "uint256"
        }
      ],
      "stateMutability": "view",
      "type": "function"
    },
    {
      "inputs": [
        {
          "internalType": "uint256",
          "name": "_coverId",
          "type": "uint256"
        }
      ],
      "name": "getCoverInfo",
      "outputs": [
        {
          "components": [
            {
              "internalType": "uint256",
              "name": "id",
              "type": "uint256"
            },
            {
              "internalType": "string",
              "name": "coverName",
              "type": "string"
            },
            {
              "internalType": "enum CoverLib.RiskType",
              "name": "riskType",
              "type": "uint8"
            },
            {
              "internalType": "string",
              "name": "chains",
              "type": "string"
            },
            {
              "internalType": "uint256",
              "name": "capacity",
              "type": "uint256"
            },
            {
              "internalType": "uint256",
              "name": "capacityAmount",
              "type": "uint256"
            },
            {
              "internalType": "uint256",
              "name": "coverValues",
              "type": "uint256"
            },
            {
              "internalType": "uint256",
              "name": "maxAmount",
              "type": "uint256"
            },
            {
              "internalType": "uint256",
              "name": "poolId",
              "type": "uint256"
            },
            {
              "internalType": "string",
              "name": "CID",
              "type": "string"
            },
            {
              "internalType": "enum CoverLib.AssetDepositType",
              "name": "adt",
              "type": "uint8"
            },
            {
              "internalType": "address",
              "name": "asset",
              "type": "address"
            }
          ],
          "internalType": "struct CoverLib.Cover",
          "name": "",
          "type": "tuple"
        }
      ],
      "stateMutability": "view",
      "type": "function"
    },
    {
      "inputs": [
        {
          "internalType": "address",
          "name": "user",
          "type": "address"
        },
        {
          "internalType": "uint256",
          "name": "_poolId",
          "type": "uint256"
        }
      ],
      "name": "getDepositClaimableDays",
      "outputs": [
        {
          "internalType": "uint256",
          "name": "",
          "type": "uint256"
        }
      ],
      "stateMutability": "view",
      "type": "function"
    },
    {
      "inputs": [
        {
          "internalType": "address",
          "name": "user",
          "type": "address"
        },
        {
          "internalType": "uint256",
          "name": "_poolId",
          "type": "uint256"
        }
      ],
      "name": "getLastClaimTime",
      "outputs": [
        {
          "internalType": "uint256",
          "name": "",
          "type": "uint256"
        }
      ],
      "stateMutability": "view",
      "type": "function"
    },
    {
      "inputs": [
        {
          "internalType": "address",
          "name": "user",
          "type": "address"
        },
        {
          "internalType": "uint256",
          "name": "_coverId",
          "type": "uint256"
        }
      ],
      "name": "getUserCoverInfo",
      "outputs": [
        {
          "components": [
            {
              "internalType": "address",
              "name": "user",
              "type": "address"
            },
            {
              "internalType": "uint256",
              "name": "coverId",
              "type": "uint256"
            },
            {
              "internalType": "enum CoverLib.RiskType",
              "name": "riskType",
              "type": "uint8"
            },
            {
              "internalType": "string",
              "name": "coverName",
              "type": "string"
            },
            {
              "internalType": "uint256",
              "name": "coverValue",
              "type": "uint256"
            },
            {
              "internalType": "uint256",
              "name": "claimPaid",
              "type": "uint256"
            },
            {
              "internalType": "uint256",
              "name": "coverPeriod",
              "type": "uint256"
            },
            {
              "internalType": "uint256",
              "name": "endDay",
              "type": "uint256"
            },
            {
              "internalType": "bool",
              "name": "isActive",
              "type": "bool"
            }
          ],
          "internalType": "struct CoverLib.GenericCoverInfo",
          "name": "",
          "type": "tuple"
        }
      ],
      "stateMutability": "view",
      "type": "function"
    },
    {
      "inputs": [
        {
          "internalType": "address",
          "name": "user",
          "type": "address"
        }
      ],
      "name": "getUserParticipation",
      "outputs": [
        {
          "internalType": "uint256",
          "name": "",
          "type": "uint256"
        }
      ],
      "stateMutability": "view",
      "type": "function"
    },
    {
      "inputs": [],
      "name": "governance",
      "outputs": [
        {
          "internalType": "address",
          "name": "",
          "type": "address"
        }
      ],
      "stateMutability": "view",
      "type": "function"
    },
    {
      "inputs": [],
      "name": "lpAddress",
      "outputs": [
        {
          "internalType": "address",
          "name": "",
          "type": "address"
        }
      ],
      "stateMutability": "view",
      "type": "function"
    },
    {
      "inputs": [],
      "name": "lpContract",
      "outputs": [
        {
          "internalType": "contract ILP",
          "name": "",
          "type": "address"
        }
      ],
      "stateMutability": "view",
      "type": "function"
    },
    {
      "inputs": [],
      "name": "owner",
      "outputs": [
        {
          "internalType": "address",
          "name": "",
          "type": "address"
        }
      ],
      "stateMutability": "view",
      "type": "function"
    },
    {
      "inputs": [
        {
          "internalType": "uint256",
          "name": "",
          "type": "uint256"
        }
      ],
      "name": "participants",
      "outputs": [
        {
          "internalType": "address",
          "name": "",
          "type": "address"
        }
      ],
      "stateMutability": "view",
      "type": "function"
    },
    {
      "inputs": [
        {
          "internalType": "address",
          "name": "",
          "type": "address"
        }
      ],
      "name": "participation",
      "outputs": [
        {
          "internalType": "uint256",
          "name": "",
          "type": "uint256"
        }
      ],
      "stateMutability": "view",
      "type": "function"
    },
    {
      "inputs": [
        {
          "internalType": "uint256",
          "name": "_coverId",
          "type": "uint256"
        },
        {
          "internalType": "uint256",
          "name": "_coverValue",
          "type": "uint256"
        },
        {
          "internalType": "uint256",
          "name": "_coverPeriod",
          "type": "uint256"
        },
        {
          "internalType": "uint256",
          "name": "_coverFee",
          "type": "uint256"
        }
      ],
      "name": "purchaseCover",
      "outputs": [],
      "stateMutability": "nonpayable",
      "type": "function"
    },
    {
      "inputs": [],
      "name": "renounceOwnership",
      "outputs": [],
      "stateMutability": "nonpayable",
      "type": "function"
    },
    {
      "inputs": [
        {
          "internalType": "address",
          "name": "newOwner",
          "type": "address"
        }
      ],
      "name": "transferOwnership",
      "outputs": [],
      "stateMutability": "nonpayable",
      "type": "function"
    },
    {
      "inputs": [
        {
          "internalType": "uint256",
          "name": "_coverId",
          "type": "uint256"
        },
        {
          "internalType": "string",
          "name": "_coverName",
          "type": "string"
        },
        {
          "internalType": "enum CoverLib.RiskType",
          "name": "_riskType",
          "type": "uint8"
        },
        {
          "internalType": "string",
          "name": "_cid",
          "type": "string"
        },
        {
          "internalType": "string",
          "name": "_chains",
          "type": "string"
        },
        {
          "internalType": "uint256",
          "name": "_capacity",
          "type": "uint256"
        },
        {
          "internalType": "uint256",
          "name": "_poolId",
          "type": "uint256"
        }
      ],
      "name": "updateCover",
      "outputs": [],
      "stateMutability": "nonpayable",
      "type": "function"
    },
    {
      "inputs": [
        {
          "internalType": "uint256",
          "name": "_coverId",
          "type": "uint256"
        }
      ],
      "name": "updateMaxAmount",
      "outputs": [],
      "stateMutability": "nonpayable",
      "type": "function"
    },
    {
      "inputs": [
        {
          "internalType": "address",
          "name": "user",
          "type": "address"
        },
        {
          "internalType": "uint256",
          "name": "_coverId",
          "type": "uint256"
        },
        {
          "internalType": "uint256",
          "name": "_claimPaid",
          "type": "uint256"
        }
      ],
      "name": "updateUserCoverValue",
      "outputs": [],
      "stateMutability": "nonpayable",
      "type": "function"
    },
    {
      "inputs": [
        {
          "internalType": "address",
          "name": "",
          "type": "address"
        },
        {
          "internalType": "uint256",
          "name": "",
          "type": "uint256"
        }
      ],
      "name": "userCovers",
      "outputs": [
        {
          "internalType": "address",
          "name": "user",
          "type": "address"
        },
        {
          "internalType": "uint256",
          "name": "coverId",
          "type": "uint256"
        },
        {
          "internalType": "enum CoverLib.RiskType",
          "name": "riskType",
          "type": "uint8"
        },
        {
          "internalType": "string",
          "name": "coverName",
          "type": "string"
        },
        {
          "internalType": "uint256",
          "name": "coverValue",
          "type": "uint256"
        },
        {
          "internalType": "uint256",
          "name": "claimPaid",
          "type": "uint256"
        },
        {
          "internalType": "uint256",
          "name": "coverPeriod",
          "type": "uint256"
        },
        {
          "internalType": "uint256",
          "name": "endDay",
          "type": "uint256"
        },
        {
          "internalType": "bool",
          "name": "isActive",
          "type": "bool"
        }
      ],
      "stateMutability": "view",
      "type": "function"
    }
  ],
  "bytecode": "0x60803461012857601f61376c38819003918201601f19168301916001600160401b0383118484101761012d578084926060946040528339810103126101285761004781610143565b90610060604061005960208401610143565b9201610143565b60016000556001600160a01b0390911691821561011257600180546001600160a01b03198116851790915560405193906001600160a01b03167f8be0079c531659141344cd1fd0a4f28419497f9722a3daafe3b4186f6b6457e0600080a3600380546001600160a01b039283166001600160a01b031991821681179092556006805482169092179091556004805493909216928116831790915560058054909116909117905561361490816101588239f35b631e4fbdf760e01b600052600060045260246000fd5b600080fd5b634e487b7160e01b600052604160045260246000fd5b51906001600160a01b03821682036101285756fe608080604052600436101561001357600080fd5b600090813560e01c9081630db981a014612b8d575080630e0e96fd146123cd57806310525814146113c7578063106b5da114612286578063195ec9ee146121be5780632d8a340c14611fdb57806334808ec314611fb2578063357917b714611a2f57806335c1d34914611f6e57806346f847951461105c5780635aa6e67514611f45578063602710a414611a4d578063609c760414611a2f57806362858bfa146119205780636299df6c146117fd578063649718b2146115ce578063715018a61461157157806373cce3ee14611439578063782ea6191461140a5780637a728e7f146113c75780637ceb4a691461132f5780638acee3cf146113065780638da5cb5b146112dd57806393b1ad381461109557806396f3a8ad1461105c578063996b8a6f146110335780639b4dc8cc1461100a5780639e7b399e14610f2c578063a650c23214610ca1578063bfc664f314610b63578063cadcb47114610a77578063eabe6d6714610285578063f2fde38b146101fc578063fb643583146101c25763feb0b8f5146101a257600080fd5b346101bf57806003193601126101bf576020600f54604051908152f35b80fd5b50346101bf5760203660031901126101bf57600435906010548210156101bf5760206101ed83612d6e565b90549060031b1c604051908152f35b50346101bf5760203660031901126101bf57610216612bcd565b61021e613593565b6001600160a01b0316801561027157600180546001600160a01b0319811683179091556001600160a01b03167f8be0079c531659141344cd1fd0a4f28419497f9722a3daafe3b4186f6b6457e08380a380f35b631e4fbdf760e01b82526004829052602482fd5b50346101bf5761029436612cb9565b92946102a597969297949194613593565b6003546040516307eb111f60e41b81526004810186905294906001600160a01b03168886602481845afa958615610a6c578996610a48575b509598602088019690895b875181101561036e5760206102fd828a613370565b51015160405161032e6020828161031d8183019687815193849201612d89565b81010301601f198101835282612c36565b519020898b61034f6020604051809361031d83830196879251928391612d89565b5190201461035f576001016102e8565b633480a50360e21b8b5260048bfd5b50899750889596508a60405163068bcd8d60e01b81528460048201528981602481875afa908115610a3d578a91610a1b575b508660408201516103b081612dd1565b6103b982612dd1565b6103c281612dd1565b14801590610a0d575b6109fe5760646103df8360c0840151613189565b04936101e060018060a01b036101c0840151169201519060028210156109ea57808c913b156109e65781809160446040518094819363a4948d8560e01b83528d60048401528a60248401525af1801561075e576109cd575b50506104a890610448600f54613540565b600f556040519761045889612c1a565b8b895260208901968b885260408a01956104718c612dd1565b8b875260608b0197885260808b01528060a08b01528d60c08b015260e08a0152876101008a01526101208901526101408801613534565b610160860152878952600e602052604089209285518455518051906001600160401b0382116109b9576104de6001860154612ebb565b601f8111610986575b506020908b601f841160011461091857610536949361051d9390928361090d575b50508160011b916000199060031b1c19161790565b60018501555b5161052d81612dd1565b600284016134c1565b518051906001600160401b0382116108f9576105556003840154612ebb565b601f81116108c6575b50602090601f831160011461085d5761058e92918a91836108525750508160011b916000199060031b1c19161790565b60038201555b6080830151600482015560a0830151600582015560c0830151600682015560e083015160078201556101008301516008820155600981016101208401518051906001600160401b03821161083e576105ec8354612ebb565b601f8111610803575b50602090601f831160011461079c57918061062a92600a9695948d926107915750508160011b916000199060031b1c19161790565b90555b01610140830151600281101561077d57815460ff610100600160a81b0361016087015160081b169216906affffffffffffffffffffff60a81b1617179055601054600160401b811015610769579061068d82600189959401601055612d6e565b8154600391821b89811b60001990911b1990911617909155546001600160a01b031691823b1561075a576106e79284928360405180968195829463fee721ed60e01b84526004840152604060248401526044830190612dfe565b03925af1801561075e57610745575b5091837f5928d65cc6ae9f07a7673f1a5a2f98d81f1bb0c2bc53bcaa33d6f11cf426f25e9352600a60205260408520600160ff1982541617905561073f604051928392836133a8565b0390a280f35b8161074f91612c36565b61075a5783856106f6565b8380fd5b6040513d84823e3d90fd5b634e487b7160e01b87526041600452602487fd5b634e487b7160e01b88526021600452602488fd5b015190508c80610508565b838b52818b209190601f1984168c5b8181106107eb5750916001939185600a98979694106107d2575b505050811b01905561062d565b015160001960f88460031b161c191690558b80806107c5565b929360206001819287860151815501950193016107ab565b61082e90848c5260208c20601f850160051c81019160208610610834575b601f0160051c0190613384565b8a6105f5565b9091508190610821565b634e487b7160e01b8a52604160045260248afd5b015190508a80610508565b600384018a52818a209190601f1984168b5b8181106108ae5750908460019594939210610895575b505050811b016003820155610594565b015160001960f88460031b161c19169055898080610885565b9293602060018192878601518155019501930161086f565b6108f390600385018b5260208b20601f850160051c8101916020861061083457601f0160051c0190613384565b8961055e565b634e487b7160e01b89526041600452602489fd5b015190508d80610508565b50600186018c52818c209190601f1984168d5b81811061096e575091600193918561053697969410610955575b505050811b016001850155610523565b015160001960f88460031b161c191690558c8080610945565b9293602060018192878601518155019501930161092b565b6109b390600187018d5260208d20601f850160051c8101916020861061083457601f0160051c0190613384565b8b6104e7565b634e487b7160e01b8b52604160045260248bfd5b816109d791612c36565b6109e2578a8c610437565b8a80fd5b5080fd5b634e487b7160e01b8c52602160045260248cfd5b6369e489f560e11b8a5260048afd5b5061016081015182116103cb565b610a3791503d808c833e610a2f8183612c36565b810190613050565b8a6103a0565b6040513d8c823e3d90fd5b610a659196503d808b833e610a5d8183612c36565b8101906131c9565b94386102dd565b6040513d8b823e3d90fd5b50346101bf5760403660031901126101bf576040610b5f91610a97612bcd565b610a9f61354f565b5060018060a01b03168152600d60205281812060243582526020522060ff600860405192610acc84612be8565b80546001600160a01b031684526001810154602085015260028101548316610af381612dd1565b6040850152604051610b1381610b0c8160038601612ef5565b0382612c36565b606085015260048101546080850152600581015460a0850152600681015460c0850152600781015460e08501520154161515610100820152604051918291602083526020830190612f78565b0390f35b50346101bf5760203660031901126101bf57610b7d612bcd565b610b856135bc565b6001600160a01b031660015b601054811015610c995780610ba7600192612d6e565b90549060031b1c838552600d6020526040852081865260205260408520600881019081549060ff82169081610c8b575b50610be6575b50505001610b91565b60ff19169055838552600d602052604085209085526020528360086040822082815582858201558260028201558260038201610c228154612ebb565b80610c4b575b505060048201558260058201558260068201558260078201550155388080610bdd565b601f81118814610c605750555b823880610c28565b81835260208320610c7b91601f0160051c8101908901613384565b8082528160208120915555610c58565b600791500154421138610bd7565b826001815580f35b50346101bf5760203660031901126101bf57600435610cbe6135bc565b60035460405163395d7def60e11b815260048101839052336024820152908390829060449082906001600160a01b03165afa908115610f21578391610e7c575b508290338452600c60205260408420838552602052604084205415600014610e5a5761012c610d4f60c0610d3184613363565b5101515b4260e0610d4186613363565b5101514211610e465761339b565b049380925b8251841015610d8957610d81600191610d7b886060610d738989613370565b510151613189565b906134b4565b930192610d54565b8490338352600c602052604083208284526020524260408420558260018060a01b0360045416803b156109e657604051637104a76d60e11b8152336004820152602481018490529082908290604490829084905af1801561075e57610e2d575b5050610df78160025461339b565b6002556040519081527f0408e6e0b73daf4c873106e95fd067260fbff8bf9d1b499cad563d4480d45bac60203392a36001815580f35b81610e3791612c36565b610e42578284610de9565b8280fd5b5060e0610e5285613363565b51015161339b565b338452600c6020526040842083855260205261012c610d4f6040862054610d35565b90503d8084833e610e8d8183612c36565b81019060208183031261075a578051906001600160401b038211610f1d570181601f8201121561075a578051610ec2816131b2565b92610ed06040519485612c36565b8184526020610140818601930284010192818411610f1957602001915b838310610efe575050505038610cfe565b602061014091610f0e848661340a565b815201920191610eed565b8680fd5b8480fd5b6040513d85823e3d90fd5b50346101bf5760403660031901126101bf576040906001600160a01b03610f51612bcd565b168152600d60205281812060243582526020522060018060a01b0381541660018201549160ff60028201541660405191610f9983610f928160038501612ef5565b0384612c36565b6004810154926005820154610fe960068401549260ff600860078701549601541695604051998a998a5260208a0152610fd181612dd1565b60408901526101206060890152610120880190612dac565b94608087015260a086015260c085015260e084015215156101008301520390f35b50346101bf57806003193601126101bf576006546040516001600160a01b039091168152602090f35b50346101bf57806003193601126101bf576005546040516001600160a01b039091168152602090f35b50346101bf5760203660031901126101bf576020906040906001600160a01b03611084612bcd565b168152600983522054604051908152f35b50346101bf57806003193601126101bf578081601054905b81811061129d57506110be826131b2565b916110cc6040519384612c36565b8083526110db601f19916131b2565b01835b81811061128657505082835b8281106111585783856040519182916020830160208452825180915260408401602060408360051b870101940192905b82821061112957505050500390f35b919360019193955060206111488192603f198a82030186528851612dfe565b960192019201859493919261111a565b61116181612d6e565b90549060031b1c808652600a60205260ff604087205416611186575b506001016110ea565b6001919261127f918752600e60205260408720600a604051916111a883612c1a565b805483526040516111bf81610b0c818a8601612ef5565b602084015260ff6002820154166111d581612dd1565b60408401526040516111ee81610b0c8160038601612ef5565b606084015260048101546080840152600581015460a0840152600681015460c0840152600781015460e0840152600881015461010084015260405161123a81610b0c8160098601612ef5565b610120840152015461125360ff82166101408401613534565b848060a01b039060081c1661016082015261126e8288613370565b526112798187613370565b50613540565b919061117d565b6020906112916134d9565b828287010152016110de565b6112a681612d6e565b90549060031b1c8452600a60205260ff6040852054166112c9575b6001016110ad565b916112d5600191613540565b9290506112c1565b50346101bf57806003193601126101bf576001546040516001600160a01b039091168152602090f35b50346101bf57806003193601126101bf576003546040516001600160a01b039091168152602090f35b50346101bf5760603660031901126101bf57611349612bcd565b6024356044359161136560018060a01b036007541633146133cd565b61136d6135bc565b60018060a01b0316808452600d602052604084208285526020526004604085200161139984825461339b565b90558352600d602052604083209083526020526113be600560408420019182546134b4565b90556001815580f35b50346101bf5760403660031901126101bf576020906040906001600160a01b036113ef612bcd565b168152600b8352818120602435825283522054604051908152f35b50346101bf5760203660031901126101bf5760ff60406020926004358152600a84522054166040519015158152f35b50346101bf5760403660031901126101bf57611453612bcd565b6003546040516374f0645b60e11b815260248035600483018190526001600160a01b0385811692840192909252919391926101409185916044918391165afa92831561156657849361151a575b506001600160a01b0316808452600b602090815260408086208487528252852054909461012c946114f0949093926115015750505060c0810151905b60e0429101518042116114f9575b5061339b565b04604051908152f35b9050386114ea565b6040928252600b875282822090825286522054906114dc565b9092506101403d811161155f575b6115328183612c36565b81019061014081830312610f1d579160209461155561012c95936114f09561340a565b94509450916114a0565b503d611528565b6040513d86823e3d90fd5b50346101bf57806003193601126101bf5761158a613593565b600180546001600160a01b0319811690915581906001600160a01b03167f8be0079c531659141344cd1fd0a4f28419497f9722a3daafe3b4186f6b6457e08280a380f35b50346101bf5760203660031901126101bf576115e8612bcd565b60105482916001600160a01b0316825b8281106117b25750611609836131b2565b926116176040519485612c36565b808452611626601f19916131b2565b01845b81811061179b57505083845b8381106116a35784866040519182916020830160208452825180915260408401602060408360051b870101940192905b82821061167457505050500390f35b919360019193955060206116938192603f198a82030186528851612f78565b9601920192018594939192611665565b6116ac81612d6e565b90549060031b1c838752600d6020526040872081885260205260046040882001546116db575b50600101611635565b6001919261179491858952600d602052604089209089526020526040882060ff60086040519261170a84612be8565b868060a01b0381541684528681015460208501528260028201541661172e81612dd1565b604085015260405161174781610b0c8160038601612ef5565b606085015260048101546080850152600581015460a0850152600681015460c0850152600781015460e085015201541615156101008201526117898289613370565b526112798188613370565b91906116d2565b6020906117a661354f565b82828801015201611629565b6117bb81612d6e565b90549060031b1c828652600d6020526040862090865260205260046040862001546117e9575b6001016115f8565b926117f5600191613540565b9390506117e1565b50346101bf5760203660031901126101bf576040610180916004358152600e602052208054906118f86040519161183b83610f928160018501612ef5565b60ff6002820154169060405161185881610b0c8160038601612ef5565b60048201549260058301546006840154906118cf6007860154936008870154956118b3600a604051996118998b6118928160098501612ef5565b038c612c36565b01549b6040519e8f9e8f9081528160208201520190612dac565b916118bd81612dd1565b60408d01528b820360608d0152612dac565b9560808a015260a089015260c088015260e0870152610100860152848203610120860152612dac565b9061190a610140840160ff8316612df1565b60081c6001600160a01b03166101608301520390f35b50346101bf5760203660031901126101bf576040610b5f916119406134d9565b506004358152600e60205220600a6040519161195b83612c1a565b8054835260405161197381610b0c8160018601612ef5565b602084015260ff60028201541661198981612dd1565b60408401526040516119a281610b0c8160038601612ef5565b606084015260048101546080840152600581015460a0840152600681015460c0840152600781015460e084015260088101546101008401526040516119ee81610b0c8160098601612ef5565b6101208401520154611a0760ff82166101408401613534565b60081c6001600160a01b03166101608201526040516020808252909283929091830190612dfe565b50346101bf57806003193601126101bf576020600254604051908152f35b50346101bf5760803660031901126101bf57604435600435611a6d6135bc565b60643515611f3657601b8211801590611f2a575b611f1b57808352600a60205260ff60408420541615611f0c57808352600e602052604083209160078301805460243511611efd5760068401611ac660243582546134b4565b6005860180548211611eee5760045488906001600160a01b0316803b156109e657604051632770a7eb60e21b815233600482015260643560248201529082908290604490829084905af1801561075e57611ed5575b505081611b2e9355546114ea828261339b565b9055338452600d60205260408420828552602052600460408520015415600014611ec65760ff60028401541690620151808102818104620151801482151715611eb257611b7b90426134b4565b60405193611b8885612be8565b33855260208501938185526040860190611ba181612dd1565b8152611c3860405191611bbb83610f928160018d01612ef5565b606088019283526080880193602435855260a08901958b875260c08a0197885260e08a015260016101008a0152338b52600d60205260408b20908b5260205260408a209660018060a01b038951166bffffffffffffffffffffffff60a01b89541617885551600188015551611c2f81612dd1565b600287016134c1565b518051906001600160401b0382116108f957611c576003870154612ebb565b601f8111611e7f575b50602090601f8311600114611e0a57826101009795936008979593611c9a938d92611dff5750508160011b916000199060031b1c19161790565b60038501555b51600484015551600583015551600682015560e0840151600782015501910151151560ff80198354169116179055818290600854915b828110611dcc575b5015611d7a575b5033825260096020526040822080549060018201809211611d66579160029160ff9355611d1560643583546134b4565b82550154166040519060243582526064356020830152611d3481612dd1565b60408201527f23b0f39e0762759ffb18632a1a2b79c9eb58571454e5f7c36e0a2f81759e0a3460603392a26001815580f35b634e487b7160e01b84526011600452602484fd5b600160401b811015611db857806001611d969201600855612d3d565b81546001600160a01b0360039290921b91821b19163390911b17905538611ce5565b634e487b7160e01b83526041600452602483fd5b611dd581612d3d565b905460039190911b1c6001600160a01b03163314611df557600101611cd6565b5050600138611cde565b015190503880610508565b90600387018a52808a20918a5b601f1985168110611e67575092600896949260019261010099979583601f19811610611e4e575b505050811b016003850155611ca0565b015160001960f88460031b161c19169055388080611e3e565b91926020600181928685015181550194019201611e17565b611eac90600388018b5260208b20601f850160051c8101916020861061083457601f0160051c0190613384565b38611c60565b634e487b7160e01b86526011600452602486fd5b639857cbd960e01b8452600484fd5b81611edf91612c36565b611eea578738611b1b565b8780fd5b63bc6072f160e01b8852600488fd5b63bc6072f160e01b8552600485fd5b63bccd404360e01b8352600483fd5b631f89958960e11b8352600483fd5b5061016e821015611a81565b63162908e360e11b8352600483fd5b50346101bf57806003193601126101bf576007546040516001600160a01b039091168152602090f35b50346101bf5760203660031901126101bf57600435906008548210156101bf576020611f9983612d3d565b905460405160039290921b1c6001600160a01b03168152f35b50346101bf57806003193601126101bf576004546040516001600160a01b039091168152602090f35b50346101bf5760203660031901126101bf57600435611ff86135bc565b6003546040516374f0645b60e11b8152600481018390523360248201529061014090829060449082906001600160a01b03165afa908115610f21578391612184575b50608081015161204981612dd1565b61205281612dd1565b61217557338352600b60205260408320828452602052604083205415600014612152576201518061209560c08301515b4260e08501518042116114f9575061339b565b04908115612143579060606120ab920151613189565b600254811161213457338352600b602052604083208284526020524260408420558260018060a01b0360045416803b156109e657604051637104a76d60e11b8152336004820152602481018490529082908290604490829084905af1801561075e5761211f575050610df78160025461339b565b8161212991612c36565b610e42578238610de9565b63bc6072f160e01b8352600483fd5b63ed700a6760e01b8452600484fd5b338352600b60205260408320828452602052620151806120956040852054612082565b63e067835f60e01b8352600483fd5b90506101403d81116121b7575b61219b8183612c36565b81016101408282031261075a576121b19161340a565b3861203a565b503d612191565b50346101bf57806003193601126101bf5760405180602060085491828152018091600885527ff3f7a9fe364faab93b216da50a3214154f22a0a2b415b23a84c8169e8b636ee390855b818110612267575050508261221d910383612c36565b604051928392602084019060208552518091526040840192915b818110612245575050500390f35b82516001600160a01b0316845285945060209384019390920191600101612237565b82546001600160a01b0316845260209093019260019283019201612207565b50346101bf5760203660031901126101bf576004356122b060018060a01b036006541633146133cd565b6122b86135bc565b808252600e60205260408083206003546008820154925163068bcd8d60e01b815260048101939093528490839060249082906001600160a01b03165afa9182156115665784926123ae575b50600401549081156123705760649160a061231f920151613189565b04818352600e6020526005604084200155808252600e6020526123596005604084200154828452600e60205260066040852001549061339b565b908252600e60205260076040832001556001815580f35b60405162461bcd60e51b8152602060048201526016602482015275496e76616c696420636f76657220636170616369747960501b6044820152606490fd5b60049192506123c6903d8087833e610a2f8183612c36565b9190612303565b50346101bf576123dc36612cb9565b9096949295936123ea613593565b60035460405163068bcd8d60e01b8152600481018490526001600160a01b0390911698909787896024818d5afa988915612b82578899612b66575b508260408a015161243581612dd1565b61243e82612dd1565b61244781612dd1565b14801590612b58575b612b4957868852600e60205260c060408920990151670de0b6b3a76400008302838104670de0b6b3a76400001484151715612b3557670de0b6b3a764000091606461249c920490613189565b04918260068b015411612b2657886024999a9b6040519a8b80926307eb111f60e41b82528960048301525afa988915610a3d578a99612b0a575b5094996020870195908a5b8a518110156125715760206124f6828d613370565b5101516040516125166020828161031d8183019687815193849201612d89565b519020888a6125376020604051809361031d83830196879251928391612d89565b519020148061255c575b61254d576001016124e1565b633480a50360e21b8c5260048cfd5b5089612568828d613370565b51511415612541565b508a97959896508b600482015493600183019188516001600160401b0381116129b8578b61259f8554612ebb565b601f8111612ada575b505060208c601f8311600114612a78576125d7929182612a6d575b508160011b916000199060031b1c19161790565b83555b80516001600160401b0381116129b8578b6125f86003870154612ebb565b601f8111612a3a575b50506020918c601f83116001146129cc576126329390918361291a5750508160011b916000199060031b1c19161790565b60038401555b836004840155600983019080516001600160401b0381116129b8578b61265e8454612ebb565b601f8111612988575b505060208c601f83116001146129255790612696938361291a5750508160011b916000199060031b1c19161790565b81555b60058301938685556126b760088501978d895560068601549061339b565b600785019081559581811115612883578b9c916126d8919c999a9b9c61339b565b6003546001600160a01b031690813b1561287f578991604483926040519485938492639fd36b1560e01b845288600485015260248401525af1908115610a6c57899161286a575b50505b6003546001600160a01b031693843b1561286657600a6127e9612782978b99956127ad9b8b976040519d8e9c8d9b8c9a631b401a5b60e21b8c5260048c0152604060248c0152895460448c015261018060648c01526101c48b0190612ef5565b60ff60028a01541661279381612dd1565b60848b01528981036043190160a48b015260038901612ef5565b600488015460c48a0152935460e48901526006870154610104890152546101248801525461014487015285820360431901610164870152612ef5565b9101546127fd610184840160ff8316612df1565b60081c6001600160a01b03166101a483015203925af1801561075e57612851575b50507f758a67328ba53c1867c0272bbd2ca10d6fe71d37120188c523fe7ae7bdbbe4699161073f604051928392836133a8565b8161285b91612c36565b61075a57838561281e565b8880fd5b8161287491612c36565b611eea57878d61271f565b8980fd5b9080821061289a575b5050899a9996979899612722565b906128a49161339b565b6003546001600160a01b03169b908c3b15612916578b906040519d8e9163a4948d8560e01b8352846004840152602483015281835a92604493f1801561290b576128f0575b9a8061288c565b96979899909a8161290091612c36565b989796958a906128e9565b6040513d8d823e3d90fd5b8b80fd5b015190508e80610508565b9192601f198416858452828420935b8181106129705750908460019594939210612957575b505050811b018155612699565b015160001960f88460031b161c191690558d808061294a565b92936020600181928786015181550195019301612934565b602082866129b1945220601f840160051c8101916020851061083457601f0160051c0190613384565b8b8e612667565b634e487b7160e01b8c52604160045260248cfd5b5091600386018d52808d20908d935b601f1984168510612a1f576001945083601f19811610612a06575b505050811b016003840155612638565b015160001960f88460031b161c191690558d80806129f6565b818101518355602094850194600190930192909101906129db565b6020612a669260038901815220601f840160051c8101916020851061083457601f0160051c0190613384565b8b8e612601565b90508b01518f6125c3565b90601f198316868352818320925b8d828210612ac25750509083600194939210612aa9575b5050811b0183556125da565b8c015160001960f88460031b161c191690558e80612a9d565b60018495602093958493015181550194019201612a86565b60208287612b03945220601f840160051c8101916020851061083457601f0160051c0190613384565b8b8e6125a8565b612b1f9199503d808c833e610a5d8183612c36565b97386124d6565b6369e489f560e11b8952600489fd5b634e487b7160e01b8a52601160045260248afd5b6369e489f560e11b8852600488fd5b506101608901518211612450565b612b7b9199503d808a833e610a2f8183612c36565b9738612425565b6040513d8a823e3d90fd5b9050346109e65760403660031901126109e6576020916040906001600160a01b03612bb6612bcd565b168152600c84528181206024358252845220548152f35b600435906001600160a01b0382168203612be357565b600080fd5b61012081019081106001600160401b03821117612c0457604052565b634e487b7160e01b600052604160045260246000fd5b61018081019081106001600160401b03821117612c0457604052565b90601f801991011681019081106001600160401b03821117612c0457604052565b6001600160401b038111612c0457601f01601f191660200190565b81601f82011215612be357803590612c8982612c57565b92612c976040519485612c36565b82845260208383010111612be357816000926020809301838601378301015290565b60e0600319820112612be357600435916024356001600160401b038111612be35782612ce791600401612c72565b916044356003811015612be357916064356001600160401b038111612be35782612d1391600401612c72565b91608435906001600160401b038211612be357612d3291600401612c72565b9060a4359060c43590565b600854811015612d5857600860005260206000200190600090565b634e487b7160e01b600052603260045260246000fd5b601054811015612d5857601060005260206000200190600090565b60005b838110612d9c5750506000910152565b8181015183820152602001612d8c565b90602091612dc581518092818552858086019101612d89565b601f01601f1916010190565b60031115612ddb57565b634e487b7160e01b600052602160045260246000fd5b906002821015612ddb5752565b9081518152610160612e94612e4c612e2760208601516101806020870152610180860190612dac565b6040860151612e3581612dd1565b604086015260608601518582036060870152612dac565b6080850151608085015260a085015160a085015260c085015160c085015260e085015160e0850152610100850151610100850152610120850151848203610120860152612dac565b92612ea9610140820151610140850190612df1565b8101516001600160a01b031691015290565b90600182811c92168015612eeb575b6020831014612ed557565b634e487b7160e01b600052602260045260246000fd5b91607f1691612eca565b60009291815491612f0583612ebb565b8083529260018116908115612f5b5750600114612f2157505050565b60009081526020812093945091925b838310612f41575060209250010190565b600181602092949394548385870101520191019190612f30565b915050602093945060ff929192191683830152151560051b010190565b80516001600160a01b03168252602080820151908301526040810151909190612fa081612dd1565b604082015261010080612fc460608501516101206060860152610120850190612dac565b936080810151608085015260a081015160a085015260c081015160c085015260e081015160e08501520151151591015290565b81601f82011215612be357805161300d81612c57565b9261301b6040519485612c36565b81845260208284010111612be3576130399160208085019101612d89565b90565b51906001600160a01b0382168203612be357565b602081830312612be3578051906001600160401b038211612be3570161020081830312612be3576040519161020083018381106001600160401b03821117612c0457604052815183526020820151906001600160401b038211612be3576130b8918301612ff7565b602083015260408101516003811015612be3576040830152606081015160608301526080810151608083015260a081015160a083015260c081015160c083015260e081015160e08301526101008101516101008301526101208101516101208301526101408101518015158103612be3576101408301526101608101516101608301526101808101516101808301526101a08101519060ff82168203612be3576101e0916101a084015261316f6101c0820161303c565b6101c084015201516002811015612be3576101e082015290565b8181029291811591840414171561319c57565b634e487b7160e01b600052601160045260246000fd5b6001600160401b038111612c045760051b60200190565b602081830312612be3578051906001600160401b038211612be3570181601f82011215612be3578051906131fc826131b2565b9261320a6040519485612c36565b82845260208085019360051b83010191818311612be35760208101935b83851061323657505050505090565b84516001600160401b038111612be357820190610180828503601f190112612be3576040519061326582612c1a565b6020830151825260408301516001600160401b038111612be35785602061328e92860101612ff7565b602083015260608301516003811015612be357604083015260808301516001600160401b038111612be3578560206132c892860101612ff7565b606083015260a0830151608083015260c083015160a083015260e083015160c083015261010083015160e08301526101208301516101008301526101408301516001600160401b038111612be35785602061332592860101612ff7565b610120830152610160830151916002831015612be35761335261018060209586956101408501520161303c565b610160820152815201940193613227565b805115612d585760200190565b8051821015612d585760209160051b010190565b81811061338f575050565b60008155600101613384565b9190820391821161319c57565b9291906133bf602091604086526040860190612dac565b936133c983612dd1565b0152565b156133d457565b60405162461bcd60e51b815260206004820152600e60248201526d139bdd08185d5d1a1bdc9a5e995960921b6044820152606490fd5b919082610140910312612be35760405161014081018181106001600160401b03821117612c0457604052809261343f8161303c565b82526020810151602083015260408101516040830152606081015160608301526080810151906003821015612be35761012091608084015260a081015160a084015260c081015160c084015260e081015160e08401526101008101516101008401520151906002821015612be3576101200152565b9190820180921161319c57565b906134cb81612dd1565b60ff80198354169116179055565b604051906134e682612c1a565b600061016083828152606060208201528260408201526060808201528260808201528260a08201528260c08201528260e0820152826101008201526060610120820152826101408201520152565b6002821015612ddb5752565b600019811461319c5760010190565b6040519061355c82612be8565b6000610100838281528260208201528260408201526060808201528260808201528260a08201528260c08201528260e08201520152565b6001546001600160a01b031633036135a757565b63118cdaa760e01b6000523360045260246000fd5b6002600054146135cd576002600055565b633ee5aeb560e01b60005260046000fdfea26469706673582212202b2c479e5db7996db547ff77bf1bb7d45c0f9bb1c12163e954016d38c66635c064736f6c634300081c0033",
  "linkReferences": {},
  "deployedLinkReferences": {}
}