{
  "_format": "hh-sol-artifact-1",
  "contractName": "InsuranceCover",
  "sourceName": "contracts/InsuranceCover.sol",
  "abi": [
    {
      "inputs": [
        {
          "internalType": "address",
          "name": "_lpContract",
          "type": "address"
        },
        {
          "internalType": "address",
          "name": "_initialOwner",
          "type": "address"
        },
        {
          "internalType": "address",
          "name": "_bqBTC",
          "type": "address"
        }
      ],
      "stateMutability": "nonpayable",
      "type": "constructor"
    },
    {
      "inputs": [],
      "name": "CoverNotAvailable",
      "type": "error"
    },
    {
      "inputs": [],
      "name": "InsufficientPoolBalance",
      "type": "error"
    },
    {
      "inputs": [],
      "name": "InvalidAmount",
      "type": "error"
    },
    {
      "inputs": [],
      "name": "InvalidCoverDuration",
      "type": "error"
    },
    {
      "inputs": [],
      "name": "LpNotActive",
      "type": "error"
    },
    {
      "inputs": [],
      "name": "NameAlreadyExists",
      "type": "error"
    },
    {
      "inputs": [],
      "name": "NoClaimableReward",
      "type": "error"
    },
    {
      "inputs": [
        {
          "internalType": "address",
          "name": "owner",
          "type": "address"
        }
      ],
      "name": "OwnableInvalidOwner",
      "type": "error"
    },
    {
      "inputs": [
        {
          "internalType": "address",
          "name": "account",
          "type": "address"
        }
      ],
      "name": "OwnableUnauthorizedAccount",
      "type": "error"
    },
    {
      "inputs": [],
      "name": "ReentrancyGuardReentrantCall",
      "type": "error"
    },
    {
      "inputs": [],
      "name": "UnsupportedCoverType",
      "type": "error"
    },
    {
      "inputs": [],
      "name": "UserHaveAlreadyPurchasedCover",
      "type": "error"
    },
    {
      "inputs": [],
      "name": "WrongPool",
      "type": "error"
    },
    {
      "anonymous": false,
      "inputs": [
        {
          "indexed": true,
          "internalType": "uint256",
          "name": "coverId",
          "type": "uint256"
        },
        {
          "indexed": false,
          "internalType": "string",
          "name": "name",
          "type": "string"
        },
        {
          "indexed": false,
          "internalType": "enum CoverLib.RiskType",
          "name": "riskType",
          "type": "uint8"
        }
      ],
      "name": "CoverCreated",
      "type": "event"
    },
    {
      "anonymous": false,
      "inputs": [
        {
          "indexed": true,
          "internalType": "address",
          "name": "user",
          "type": "address"
        },
        {
          "indexed": false,
          "internalType": "uint256",
          "name": "coverValue",
          "type": "uint256"
        },
        {
          "indexed": false,
          "internalType": "uint256",
          "name": "coverFee",
          "type": "uint256"
        },
        {
          "indexed": false,
          "internalType": "enum CoverLib.RiskType",
          "name": "riskType",
          "type": "uint8"
        }
      ],
      "name": "CoverPurchased",
      "type": "event"
    },
    {
      "anonymous": false,
      "inputs": [
        {
          "indexed": true,
          "internalType": "uint256",
          "name": "coverId",
          "type": "uint256"
        },
        {
          "indexed": false,
          "internalType": "string",
          "name": "coverName",
          "type": "string"
        },
        {
          "indexed": false,
          "internalType": "enum CoverLib.RiskType",
          "name": "riskType",
          "type": "uint8"
        }
      ],
      "name": "CoverUpdated",
      "type": "event"
    },
    {
      "anonymous": false,
      "inputs": [
        {
          "indexed": true,
          "internalType": "address",
          "name": "previousOwner",
          "type": "address"
        },
        {
          "indexed": true,
          "internalType": "address",
          "name": "newOwner",
          "type": "address"
        }
      ],
      "name": "OwnershipTransferred",
      "type": "event"
    },
    {
      "anonymous": false,
      "inputs": [
        {
          "indexed": true,
          "internalType": "address",
          "name": "user",
          "type": "address"
        },
        {
          "indexed": true,
          "internalType": "uint256",
          "name": "poolId",
          "type": "uint256"
        },
        {
          "indexed": false,
          "internalType": "uint256",
          "name": "amount",
          "type": "uint256"
        }
      ],
      "name": "PayoutClaimed",
      "type": "event"
    },
    {
      "inputs": [
        {
          "internalType": "address",
          "name": "",
          "type": "address"
        },
        {
          "internalType": "uint256",
          "name": "",
          "type": "uint256"
        }
      ],
      "name": "LastVaultClaimTime",
      "outputs": [
        {
          "internalType": "uint256",
          "name": "",
          "type": "uint256"
        }
      ],
      "stateMutability": "view",
      "type": "function"
    },
    {
      "inputs": [
        {
          "internalType": "address",
          "name": "",
          "type": "address"
        },
        {
          "internalType": "uint256",
          "name": "",
          "type": "uint256"
        }
      ],
      "name": "NextLpClaimTime",
      "outputs": [
        {
          "internalType": "uint256",
          "name": "",
          "type": "uint256"
        }
      ],
      "stateMutability": "view",
      "type": "function"
    },
    {
      "inputs": [],
      "name": "bqBTC",
      "outputs": [
        {
          "internalType": "contract IbqBTC",
          "name": "",
          "type": "address"
        }
      ],
      "stateMutability": "view",
      "type": "function"
    },
    {
      "inputs": [],
      "name": "bqBTCAddress",
      "outputs": [
        {
          "internalType": "address",
          "name": "",
          "type": "address"
        }
      ],
      "stateMutability": "view",
      "type": "function"
    },
    {
      "inputs": [
        {
          "internalType": "uint256",
          "name": "_poolId",
          "type": "uint256"
        }
      ],
      "name": "claimPayoutForLP",
      "outputs": [],
      "stateMutability": "nonpayable",
      "type": "function"
    },
    {
      "inputs": [
        {
          "internalType": "uint256",
          "name": "vaultId",
          "type": "uint256"
        }
      ],
      "name": "clamPayoutForVault",
      "outputs": [],
      "stateMutability": "nonpayable",
      "type": "function"
    },
    {
      "inputs": [],
      "name": "coverCount",
      "outputs": [
        {
          "internalType": "uint256",
          "name": "",
          "type": "uint256"
        }
      ],
      "stateMutability": "view",
      "type": "function"
    },
    {
      "inputs": [
        {
          "internalType": "uint256",
          "name": "",
          "type": "uint256"
        }
      ],
      "name": "coverExists",
      "outputs": [
        {
          "internalType": "bool",
          "name": "",
          "type": "bool"
        }
      ],
      "stateMutability": "view",
      "type": "function"
    },
    {
      "inputs": [],
      "name": "coverFeeBalance",
      "outputs": [
        {
          "internalType": "uint256",
          "name": "",
          "type": "uint256"
        }
      ],
      "stateMutability": "view",
      "type": "function"
    },
    {
      "inputs": [
        {
          "internalType": "uint256",
          "name": "",
          "type": "uint256"
        }
      ],
      "name": "coverIds",
      "outputs": [
        {
          "internalType": "uint256",
          "name": "",
          "type": "uint256"
        }
      ],
      "stateMutability": "view",
      "type": "function"
    },
    {
      "inputs": [
        {
          "internalType": "uint256",
          "name": "",
          "type": "uint256"
        }
      ],
      "name": "covers",
      "outputs": [
        {
          "internalType": "uint256",
          "name": "id",
          "type": "uint256"
        },
        {
          "internalType": "string",
          "name": "coverName",
          "type": "string"
        },
        {
          "internalType": "enum CoverLib.RiskType",
          "name": "riskType",
          "type": "uint8"
        },
        {
          "internalType": "string",
          "name": "chains",
          "type": "string"
        },
        {
          "internalType": "uint256",
          "name": "capacity",
          "type": "uint256"
        },
        {
          "internalType": "uint256",
          "name": "capacityAmount",
          "type": "uint256"
        },
        {
          "internalType": "uint256",
          "name": "coverValues",
          "type": "uint256"
        },
        {
          "internalType": "uint256",
          "name": "maxAmount",
          "type": "uint256"
        },
        {
          "internalType": "uint256",
          "name": "poolId",
          "type": "uint256"
        },
        {
          "internalType": "string",
          "name": "CID",
          "type": "string"
        },
        {
          "internalType": "enum CoverLib.AssetDepositType",
          "name": "adt",
          "type": "uint8"
        },
        {
          "internalType": "address",
          "name": "asset",
          "type": "address"
        }
      ],
      "stateMutability": "view",
      "type": "function"
    },
    {
      "inputs": [
        {
          "internalType": "uint256",
          "name": "coverId",
          "type": "uint256"
        },
        {
          "internalType": "string",
          "name": "_cid",
          "type": "string"
        },
        {
          "internalType": "enum CoverLib.RiskType",
          "name": "_riskType",
          "type": "uint8"
        },
        {
          "internalType": "string",
          "name": "_coverName",
          "type": "string"
        },
        {
          "internalType": "string",
          "name": "_chains",
          "type": "string"
        },
        {
          "internalType": "uint256",
          "name": "_capacity",
          "type": "uint256"
        },
        {
          "internalType": "uint256",
          "name": "_poolId",
          "type": "uint256"
        }
      ],
      "name": "createCover",
      "outputs": [],
      "stateMutability": "nonpayable",
      "type": "function"
    },
    {
      "inputs": [
        {
          "internalType": "address",
          "name": "_user",
          "type": "address"
        }
      ],
      "name": "deleteExpiredUserCovers",
      "outputs": [],
      "stateMutability": "nonpayable",
      "type": "function"
    },
    {
      "inputs": [],
      "name": "getAllAvailableCovers",
      "outputs": [
        {
          "components": [
            {
              "internalType": "uint256",
              "name": "id",
              "type": "uint256"
            },
            {
              "internalType": "string",
              "name": "coverName",
              "type": "string"
            },
            {
              "internalType": "enum CoverLib.RiskType",
              "name": "riskType",
              "type": "uint8"
            },
            {
              "internalType": "string",
              "name": "chains",
              "type": "string"
            },
            {
              "internalType": "uint256",
              "name": "capacity",
              "type": "uint256"
            },
            {
              "internalType": "uint256",
              "name": "capacityAmount",
              "type": "uint256"
            },
            {
              "internalType": "uint256",
              "name": "coverValues",
              "type": "uint256"
            },
            {
              "internalType": "uint256",
              "name": "maxAmount",
              "type": "uint256"
            },
            {
              "internalType": "uint256",
              "name": "poolId",
              "type": "uint256"
            },
            {
              "internalType": "string",
              "name": "CID",
              "type": "string"
            },
            {
              "internalType": "enum CoverLib.AssetDepositType",
              "name": "adt",
              "type": "uint8"
            },
            {
              "internalType": "address",
              "name": "asset",
              "type": "address"
            }
          ],
          "internalType": "struct CoverLib.Cover[]",
          "name": "",
          "type": "tuple[]"
        }
      ],
      "stateMutability": "view",
      "type": "function"
    },
    {
      "inputs": [],
      "name": "getAllParticipants",
      "outputs": [
        {
          "internalType": "address[]",
          "name": "",
          "type": "address[]"
        }
      ],
      "stateMutability": "view",
      "type": "function"
    },
    {
      "inputs": [
        {
          "internalType": "address",
          "name": "user",
          "type": "address"
        }
      ],
      "name": "getAllUserCovers",
      "outputs": [
        {
          "components": [
            {
              "internalType": "address",
              "name": "user",
              "type": "address"
            },
            {
              "internalType": "uint256",
              "name": "coverId",
              "type": "uint256"
            },
            {
              "internalType": "enum CoverLib.RiskType",
              "name": "riskType",
              "type": "uint8"
            },
            {
              "internalType": "string",
              "name": "coverName",
              "type": "string"
            },
            {
              "internalType": "uint256",
              "name": "coverValue",
              "type": "uint256"
            },
            {
              "internalType": "uint256",
              "name": "claimPaid",
              "type": "uint256"
            },
            {
              "internalType": "uint256",
              "name": "coverPeriod",
              "type": "uint256"
            },
            {
              "internalType": "uint256",
              "name": "endDay",
              "type": "uint256"
            },
            {
              "internalType": "bool",
              "name": "isActive",
              "type": "bool"
            }
          ],
          "internalType": "struct CoverLib.GenericCoverInfo[]",
          "name": "",
          "type": "tuple[]"
        }
      ],
      "stateMutability": "view",
      "type": "function"
    },
    {
      "inputs": [],
      "name": "getCoverFeeBalance",
      "outputs": [
        {
          "internalType": "uint256",
          "name": "",
          "type": "uint256"
        }
      ],
      "stateMutability": "view",
      "type": "function"
    },
    {
      "inputs": [
        {
          "internalType": "uint256",
          "name": "_coverId",
          "type": "uint256"
        }
      ],
      "name": "getCoverInfo",
      "outputs": [
        {
          "components": [
            {
              "internalType": "uint256",
              "name": "id",
              "type": "uint256"
            },
            {
              "internalType": "string",
              "name": "coverName",
              "type": "string"
            },
            {
              "internalType": "enum CoverLib.RiskType",
              "name": "riskType",
              "type": "uint8"
            },
            {
              "internalType": "string",
              "name": "chains",
              "type": "string"
            },
            {
              "internalType": "uint256",
              "name": "capacity",
              "type": "uint256"
            },
            {
              "internalType": "uint256",
              "name": "capacityAmount",
              "type": "uint256"
            },
            {
              "internalType": "uint256",
              "name": "coverValues",
              "type": "uint256"
            },
            {
              "internalType": "uint256",
              "name": "maxAmount",
              "type": "uint256"
            },
            {
              "internalType": "uint256",
              "name": "poolId",
              "type": "uint256"
            },
            {
              "internalType": "string",
              "name": "CID",
              "type": "string"
            },
            {
              "internalType": "enum CoverLib.AssetDepositType",
              "name": "adt",
              "type": "uint8"
            },
            {
              "internalType": "address",
              "name": "asset",
              "type": "address"
            }
          ],
          "internalType": "struct CoverLib.Cover",
          "name": "",
          "type": "tuple"
        }
      ],
      "stateMutability": "view",
      "type": "function"
    },
    {
      "inputs": [
        {
          "internalType": "address",
          "name": "user",
          "type": "address"
        },
        {
          "internalType": "uint256",
          "name": "_poolId",
          "type": "uint256"
        }
      ],
      "name": "getDepositClaimableDays",
      "outputs": [
        {
          "internalType": "uint256",
          "name": "",
          "type": "uint256"
        }
      ],
      "stateMutability": "view",
      "type": "function"
    },
    {
      "inputs": [
        {
          "internalType": "address",
          "name": "user",
          "type": "address"
        },
        {
          "internalType": "uint256",
          "name": "_poolId",
          "type": "uint256"
        }
      ],
      "name": "getLastClaimTime",
      "outputs": [
        {
          "internalType": "uint256",
          "name": "",
          "type": "uint256"
        }
      ],
      "stateMutability": "view",
      "type": "function"
    },
    {
      "inputs": [
        {
          "internalType": "address",
          "name": "user",
          "type": "address"
        },
        {
          "internalType": "uint256",
          "name": "_coverId",
          "type": "uint256"
        }
      ],
      "name": "getUserCoverInfo",
      "outputs": [
        {
          "components": [
            {
              "internalType": "address",
              "name": "user",
              "type": "address"
            },
            {
              "internalType": "uint256",
              "name": "coverId",
              "type": "uint256"
            },
            {
              "internalType": "enum CoverLib.RiskType",
              "name": "riskType",
              "type": "uint8"
            },
            {
              "internalType": "string",
              "name": "coverName",
              "type": "string"
            },
            {
              "internalType": "uint256",
              "name": "coverValue",
              "type": "uint256"
            },
            {
              "internalType": "uint256",
              "name": "claimPaid",
              "type": "uint256"
            },
            {
              "internalType": "uint256",
              "name": "coverPeriod",
              "type": "uint256"
            },
            {
              "internalType": "uint256",
              "name": "endDay",
              "type": "uint256"
            },
            {
              "internalType": "bool",
              "name": "isActive",
              "type": "bool"
            }
          ],
          "internalType": "struct CoverLib.GenericCoverInfo",
          "name": "",
          "type": "tuple"
        }
      ],
      "stateMutability": "view",
      "type": "function"
    },
    {
      "inputs": [
        {
          "internalType": "address",
          "name": "user",
          "type": "address"
        }
      ],
      "name": "getUserParticipation",
      "outputs": [
        {
          "internalType": "uint256",
          "name": "",
          "type": "uint256"
        }
      ],
      "stateMutability": "view",
      "type": "function"
    },
    {
      "inputs": [],
      "name": "governance",
      "outputs": [
        {
          "internalType": "address",
          "name": "",
          "type": "address"
        }
      ],
      "stateMutability": "view",
      "type": "function"
    },
    {
      "inputs": [],
      "name": "lpAddress",
      "outputs": [
        {
          "internalType": "address",
          "name": "",
          "type": "address"
        }
      ],
      "stateMutability": "view",
      "type": "function"
    },
    {
      "inputs": [],
      "name": "lpContract",
      "outputs": [
        {
          "internalType": "contract ILP",
          "name": "",
          "type": "address"
        }
      ],
      "stateMutability": "view",
      "type": "function"
    },
    {
      "inputs": [],
      "name": "owner",
      "outputs": [
        {
          "internalType": "address",
          "name": "",
          "type": "address"
        }
      ],
      "stateMutability": "view",
      "type": "function"
    },
    {
      "inputs": [
        {
          "internalType": "uint256",
          "name": "",
          "type": "uint256"
        }
      ],
      "name": "participants",
      "outputs": [
        {
          "internalType": "address",
          "name": "",
          "type": "address"
        }
      ],
      "stateMutability": "view",
      "type": "function"
    },
    {
      "inputs": [
        {
          "internalType": "address",
          "name": "",
          "type": "address"
        }
      ],
      "name": "participation",
      "outputs": [
        {
          "internalType": "uint256",
          "name": "",
          "type": "uint256"
        }
      ],
      "stateMutability": "view",
      "type": "function"
    },
    {
      "inputs": [
        {
          "internalType": "uint256",
          "name": "_coverId",
          "type": "uint256"
        },
        {
          "internalType": "uint256",
          "name": "_coverValue",
          "type": "uint256"
        },
        {
          "internalType": "uint256",
          "name": "_coverPeriod",
          "type": "uint256"
        },
        {
          "internalType": "uint256",
          "name": "_coverFee",
          "type": "uint256"
        }
      ],
      "name": "purchaseCover",
      "outputs": [],
      "stateMutability": "nonpayable",
      "type": "function"
    },
    {
      "inputs": [],
      "name": "renounceOwnership",
      "outputs": [],
      "stateMutability": "nonpayable",
      "type": "function"
    },
    {
      "inputs": [
        {
          "internalType": "address",
          "name": "newOwner",
          "type": "address"
        }
      ],
      "name": "transferOwnership",
      "outputs": [],
      "stateMutability": "nonpayable",
      "type": "function"
    },
    {
      "inputs": [
        {
          "internalType": "uint256",
          "name": "_coverId",
          "type": "uint256"
        },
        {
          "internalType": "string",
          "name": "_coverName",
          "type": "string"
        },
        {
          "internalType": "enum CoverLib.RiskType",
          "name": "_riskType",
          "type": "uint8"
        },
        {
          "internalType": "string",
          "name": "_cid",
          "type": "string"
        },
        {
          "internalType": "string",
          "name": "_chains",
          "type": "string"
        },
        {
          "internalType": "uint256",
          "name": "_capacity",
          "type": "uint256"
        },
        {
          "internalType": "uint256",
          "name": "_poolId",
          "type": "uint256"
        }
      ],
      "name": "updateCover",
      "outputs": [],
      "stateMutability": "nonpayable",
      "type": "function"
    },
    {
      "inputs": [
        {
          "internalType": "uint256",
          "name": "_coverId",
          "type": "uint256"
        }
      ],
      "name": "updateMaxAmount",
      "outputs": [],
      "stateMutability": "nonpayable",
      "type": "function"
    },
    {
      "inputs": [
        {
          "internalType": "address",
          "name": "user",
          "type": "address"
        },
        {
          "internalType": "uint256",
          "name": "_coverId",
          "type": "uint256"
        },
        {
          "internalType": "uint256",
          "name": "_claimPaid",
          "type": "uint256"
        }
      ],
      "name": "updateUserCoverValue",
      "outputs": [],
      "stateMutability": "nonpayable",
      "type": "function"
    },
    {
      "inputs": [
        {
          "internalType": "address",
          "name": "",
          "type": "address"
        },
        {
          "internalType": "uint256",
          "name": "",
          "type": "uint256"
        }
      ],
      "name": "userCovers",
      "outputs": [
        {
          "internalType": "address",
          "name": "user",
          "type": "address"
        },
        {
          "internalType": "uint256",
          "name": "coverId",
          "type": "uint256"
        },
        {
          "internalType": "enum CoverLib.RiskType",
          "name": "riskType",
          "type": "uint8"
        },
        {
          "internalType": "string",
          "name": "coverName",
          "type": "string"
        },
        {
          "internalType": "uint256",
          "name": "coverValue",
          "type": "uint256"
        },
        {
          "internalType": "uint256",
          "name": "claimPaid",
          "type": "uint256"
        },
        {
          "internalType": "uint256",
          "name": "coverPeriod",
          "type": "uint256"
        },
        {
          "internalType": "uint256",
          "name": "endDay",
          "type": "uint256"
        },
        {
          "internalType": "bool",
          "name": "isActive",
          "type": "bool"
        }
      ],
      "stateMutability": "view",
      "type": "function"
    }
  ],
  "bytecode": "0x60803461012857601f61373e38819003918201601f19168301916001600160401b0383118484101761012d578084926060946040528339810103126101285761004781610143565b90610060604061005960208401610143565b9201610143565b60016000556001600160a01b0390911691821561011257600180546001600160a01b03198116851790915560405193906001600160a01b03167f8be0079c531659141344cd1fd0a4f28419497f9722a3daafe3b4186f6b6457e0600080a3600380546001600160a01b039283166001600160a01b03199182168117909255600680548216909217909155600480549390921692811683179091556005805490911690911790556135e690816101588239f35b631e4fbdf760e01b600052600060045260246000fd5b600080fd5b634e487b7160e01b600052604160045260246000fd5b51906001600160a01b03821682036101285756fe608080604052600436101561001357600080fd5b600090813560e01c9081630db981a014612b8d575080630e0e96fd146123d557806310525814146113b2578063106b5da11461228e578063195ec9ee146121c65780632d8a340c14611fe357806334808ec314611fba578063357917b714611a3257806335c1d34914611f7657806346f84795146110475780635aa6e67514611f4d578063602710a414611a50578063609c760414611a3257806362858bfa146119235780636299df6c146117e6578063649718b2146115b9578063715018a61461155c57806373cce3ee14611424578063782ea619146113f55780637a728e7f146113b25780637ceb4a691461131a5780638acee3cf146112f15780638da5cb5b146112c857806393b1ad381461108057806396f3a8ad14611047578063996b8a6f1461101e5780639b4dc8cc14610ff55780639e7b399e14610f18578063a650c23214610c8d578063bfc664f314610b4f578063cadcb47114610a64578063eabe6d6714610285578063f2fde38b146101fc578063fb643583146101c25763feb0b8f5146101a257600080fd5b346101bf57806003193601126101bf576020600f54604051908152f35b80fd5b50346101bf5760203660031901126101bf57600435906010548210156101bf5760206101ed83612d6e565b90549060031b1c604051908152f35b50346101bf5760203660031901126101bf57610216612bcd565b61021e613565565b6001600160a01b0316801561027157600180546001600160a01b0319811683179091556001600160a01b03167f8be0079c531659141344cd1fd0a4f28419497f9722a3daafe3b4186f6b6457e08380a380f35b631e4fbdf760e01b82526004829052602482fd5b50346101bf5761029436612cb9565b92946102a597969297949194613565565b6003546040516307eb111f60e41b81526004810186905294906001600160a01b03168886602481845afa958615610a59578996610a35575b509598602088019690895b875181101561036e5760206102fd828a61336c565b51015160405161032e6020828161031d8183019687815193849201612d89565b81010301601f198101835282612c36565b519020898b61034f6020604051809361031d83830196879251928391612d89565b5190201461035f576001016102e8565b633480a50360e21b8b5260048bfd5b50899750889596508a60405163068bcd8d60e01b81528460048201528981602481875afa908115610a2a578a91610a08575b50604081015160038110156109f45760038810156109f45787148015906109e6575b6109d75760646103d68360c0840151613185565b04938a6101e060018060a01b036101c085015116930151916103f783612df4565b803b156109d35781809160446040518094819363a4948d8560e01b83528d60048401528a60248401525af1801561075b576109ba575b505061043a600f54613512565b600f556040519661044a88612c1a565b8a885260208801958a875260408901946104648b87613493565b60608a0196875260808a01528060a08a01528c60c08a015260e08901528661010089015261012088015261049781612df4565b610140870152610160860152878952600e602052604089209285518455518051906001600160401b0382116109a6576104d36001860154612ebb565b601f8111610973575b50602090601f831160011461090a5761050d92918c918361077a575b50508160011b916000199060031b1c19161790565b60018401555b5160038110156108f65761052a906002840161349f565b518051906001600160401b0382116108e2576105496003840154612ebb565b601f81116108af575b50602090601f83116001146108465761058292918a918361083b5750508160011b916000199060031b1c19161790565b60038201555b6080830151600482015560a0830151600582015560c0830151600682015560e083015160078201556101008301516008820155600981016101208401518051906001600160401b038211610827576105e08354612ebb565b601f81116107ec575b50602090601f831160011461078557918061061e92600a9695948d9261077a5750508160011b916000199060031b1c19161790565b90555b0161014083015161063181612df4565b61063a81612df4565b815460ff610100600160a81b0361016087015160081b169216906affffffffffffffffffffff60a81b1617179055601054600160401b811015610766579061068a82600189959401601055612d6e565b8154600391821b89811b60001990911b1990911617909155546001600160a01b031691823b15610757576106e49284928360405180968195829463fee721ed60e01b84526004840152604060248401526044830190612dfe565b03925af1801561075b57610742575b5091837f5928d65cc6ae9f07a7673f1a5a2f98d81f1bb0c2bc53bcaa33d6f11cf426f25e9352600a60205260408520600160ff1982541617905561073c604051928392836133a4565b0390a280f35b8161074c91612c36565b6107575783856106f3565b8380fd5b6040513d84823e3d90fd5b634e487b7160e01b87526041600452602487fd5b015190508c806104f8565b838b52818b209190601f1984168c5b8181106107d45750916001939185600a98979694106107bb575b505050811b019055610621565b015160001960f88460031b161c191690558b80806107ae565b92936020600181928786015181550195019301610794565b61081790848c5260208c20601f850160051c8101916020861061081d575b601f0160051c0190613380565b8a6105e9565b909150819061080a565b634e487b7160e01b8a52604160045260248afd5b015190508a806104f8565b600384018a52818a209190601f1984168b5b818110610897575090846001959493921061087e575b505050811b016003820155610588565b015160001960f88460031b161c1916905589808061086e565b92936020600181928786015181550195019301610858565b6108dc90600385018b5260208b20601f850160051c8101916020861061081d57601f0160051c0190613380565b89610552565b634e487b7160e01b89526041600452602489fd5b634e487b7160e01b89526021600452602489fd5b600186018c52818c209190601f1984168d5b81811061095b5750908460019594939210610942575b505050811b016001840155610513565b015160001960f88460031b161c191690558b8080610932565b9293602060018192878601518155019501930161091c565b6109a090600187018d5260208d20601f850160051c8101916020861061081d57601f0160051c0190613380565b8b6104dc565b634e487b7160e01b8b52604160045260248bfd5b816109c491612c36565b6109cf578a8c61042d565b8a80fd5b5080fd5b6369e489f560e11b8a5260048afd5b5061016081015182116103c2565b634e487b7160e01b8b52602160045260248bfd5b610a2491503d808c833e610a1c8183612c36565b81019061304c565b8a6103a0565b6040513d8c823e3d90fd5b610a529196503d808b833e610a4a8183612c36565b8101906131c5565b94386102dd565b6040513d8b823e3d90fd5b50346101bf5760403660031901126101bf576040610b4b91610a84612bcd565b610a8c613521565b5060018060a01b03168152600d60205281812060243582526020522060ff600860405192610ab984612be8565b80546001600160a01b03168452600181015460208501526002810154610ae490841660408601613493565b604051610aff81610af88160038601612ef5565b0382612c36565b606085015260048101546080850152600581015460a0850152600681015460c0850152600781015460e08501520154161515610100820152604051918291602083526020830190612f78565b0390f35b50346101bf5760203660031901126101bf57610b69612bcd565b610b7161358e565b6001600160a01b031660015b601054811015610c855780610b93600192612d6e565b90549060031b1c838552600d6020526040852081865260205260408520600881019081549060ff82169081610c77575b50610bd2575b50505001610b7d565b60ff19169055838552600d602052604085209085526020528360086040822082815582858201558260028201558260038201610c0e8154612ebb565b80610c37575b505060048201558260058201558260068201558260078201550155388080610bc9565b601f81118814610c4c5750555b823880610c14565b81835260208320610c6791601f0160051c8101908901613380565b8082528160208120915555610c44565b600791500154421138610bc3565b826001815580f35b50346101bf5760203660031901126101bf57600435610caa61358e565b600354604051634122bbb360e11b815260048101839052336024820152908390829060449082906001600160a01b03165afa908115610f0d578391610e68575b508290338452600c60205260408420838552602052604084205415600014610e465761012c610d3b60c0610d1d8461335f565b5101515b4260e0610d2d8661335f565b5101514211610e3257613397565b049380925b8251841015610d7557610d6d600191610d67886060610d5f898961336c565b510151613185565b90613486565b930192610d40565b8490338352600c602052604083208284526020524260408420558260018060a01b0360045416803b156109d357604051637104a76d60e11b8152336004820152602481018490529082908290604490829084905af1801561075b57610e19575b5050610de381600254613397565b6002556040519081527f0408e6e0b73daf4c873106e95fd067260fbff8bf9d1b499cad563d4480d45bac60203392a36001815580f35b81610e2391612c36565b610e2e578284610dd5565b8280fd5b5060e0610e3e8561335f565b510151613397565b338452600c6020526040842083855260205261012c610d3b6040862054610d21565b90503d8084833e610e798183612c36565b810190602081830312610757578051906001600160401b038211610f09570181601f82011215610757578051610eae816131ae565b92610ebc6040519485612c36565b8184526020610120818601930284010192818411610f0557602001915b838310610eea575050505038610cea565b602061012091610efa8486613404565b815201920191610ed9565b8680fd5b8480fd5b6040513d85823e3d90fd5b50346101bf5760403660031901126101bf576040906001600160a01b03610f3d612bcd565b168152600d60205281812060243582526020522060018060a01b0381541660018201549160ff60028201541660405191610f8583610f7e8160038501612ef5565b0384612c36565b6004810154926005820154610fd4600684015492610fc160ff6008600788015497015416966040519a8b9a8b5260208b015260408a0190612dd1565b6101206060890152610120880190612dac565b94608087015260a086015260c085015260e084015215156101008301520390f35b50346101bf57806003193601126101bf576006546040516001600160a01b039091168152602090f35b50346101bf57806003193601126101bf576005546040516001600160a01b039091168152602090f35b50346101bf5760203660031901126101bf576020906040906001600160a01b0361106f612bcd565b168152600983522054604051908152f35b50346101bf57806003193601126101bf578081601054905b81811061128857506110a9826131ae565b916110b76040519384612c36565b8083526110c6601f19916131ae565b01835b81811061127157505082835b8281106111435783856040519182916020830160208452825180915260408401602060408360051b870101940192905b82821061111457505050500390f35b919360019193955060206111338192603f198a82030186528851612dfe565b9601920192018594939192611105565b61114c81612d6e565b90549060031b1c808652600a60205260ff604087205416611171575b506001016110d5565b6001919261126a918752600e60205260408720600a6040519161119383612c1a565b805483526040516111aa81610af8818a8601612ef5565b60208401526111c360ff60028301541660408501613493565b6040516111d781610af88160038601612ef5565b606084015260048101546080840152600581015460a0840152600681015460c0840152600781015460e0840152600881015461010084015260405161122381610af88160098601612ef5565b610120840152015460ff811661123881612df4565b610140830152848060a01b039060081c16610160820152611259828861336c565b52611264818761336c565b50613512565b9190611168565b60209061127c6134b7565b828287010152016110c9565b61129181612d6e565b90549060031b1c8452600a60205260ff6040852054166112b4575b600101611098565b916112c0600191613512565b9290506112ac565b50346101bf57806003193601126101bf576001546040516001600160a01b039091168152602090f35b50346101bf57806003193601126101bf576003546040516001600160a01b039091168152602090f35b50346101bf5760603660031901126101bf57611334612bcd565b6024356044359161135060018060a01b036007541633146133c7565b61135861358e565b60018060a01b0316808452600d6020526040842082855260205260046040852001611384848254613397565b90558352600d602052604083209083526020526113a960056040842001918254613486565b90556001815580f35b50346101bf5760403660031901126101bf576020906040906001600160a01b036113da612bcd565b168152600b8352818120602435825283522054604051908152f35b50346101bf5760203660031901126101bf5760ff60406020926004358152600a84522054166040519015158152f35b50346101bf5760403660031901126101bf5761143e612bcd565b600354604051631381549160e21b815260248035600483018190526001600160a01b0385811692840192909252919391926101209185916044918391165afa928315611551578493611505575b506001600160a01b0316808452600b602090815260408086208487528252852054909461012c946114db949093926114ec5750505060c0810151905b60e0429101518042116114e4575b50613397565b04604051908152f35b9050386114d5565b6040928252600b875282822090825286522054906114c7565b9092506101203d811161154a575b61151d8183612c36565b81019061012081830312610f09579160209461154061012c95936114db95613404565b945094509161148b565b503d611513565b6040513d86823e3d90fd5b50346101bf57806003193601126101bf57611575613565565b600180546001600160a01b0319811690915581906001600160a01b03167f8be0079c531659141344cd1fd0a4f28419497f9722a3daafe3b4186f6b6457e08280a380f35b50346101bf5760203660031901126101bf576115d3612bcd565b60105482916001600160a01b0316825b82811061179b57506115f4836131ae565b926116026040519485612c36565b808452611611601f19916131ae565b01845b81811061178457505083845b83811061168e5784866040519182916020830160208452825180915260408401602060408360051b870101940192905b82821061165f57505050500390f35b9193600191939550602061167e8192603f198a82030186528851612f78565b9601920192018594939192611650565b61169781612d6e565b90549060031b1c838752600d6020526040872081885260205260046040882001546116c6575b50600101611620565b6001919261177d91858952600d602052604089209089526020526040882060ff6008604051926116f584612be8565b868060a01b03815416845286810154602085015261171c8360028301541660408601613493565b60405161173081610af88160038601612ef5565b606085015260048101546080850152600581015460a0850152600681015460c0850152600781015460e08501520154161515610100820152611772828961336c565b52611264818861336c565b91906116bd565b60209061178f613521565b82828801015201611614565b6117a481612d6e565b90549060031b1c828652600d6020526040862090865260205260046040862001546117d2575b6001016115e3565b926117de600191613512565b9390506117ca565b50346101bf5760203660031901126101bf576004358152600e602052604090208054604051918280600183019061181c91612ef5565b036118279084612c36565b600281015460405160ff90911691816118438160038401612ef5565b0361184e9083612c36565b600481015460058201546006830154600784015490600885015492604051958680600983019061187d91612ef5565b036118889088612c36565b600a01549660ff8816986040519b8c9b8c5260208c0161018090526101808c016118b191612dac565b9060408c016118bf91612dd1565b8a810360608c01526118d091612dac565b9460808a015260a089015260c088015260e08701526101008601528481036101208601526118fd91612dac565b9161190781612df4565b61014084015260081c6001600160a01b03166101608301520390f35b50346101bf5760203660031901126101bf576040610b4b916119436134b7565b506004358152600e60205220600a6040519161195e83612c1a565b8054835260405161197681610af88160018601612ef5565b602084015261198f60ff60028301541660408501613493565b6040516119a381610af88160038601612ef5565b606084015260048101546080840152600581015460a0840152600681015460c0840152600781015460e084015260088101546101008401526040516119ef81610af88160098601612ef5565b610120840152015460ff8116611a0481612df4565b61014083015260081c6001600160a01b03166101608201526040516020808252909283929091830190612dfe565b50346101bf57806003193601126101bf576020600254604051908152f35b50346101bf5760803660031901126101bf57604435600435611a7061358e565b60643515611f3e57601b8211801590611f32575b611f2357808352600a60205260ff60408420541615611f1457808352600e602052604083209160078301805460243511611f055760068401611ac96024358254613486565b6005860180548211611ef65760045488906001600160a01b0316803b156109d357604051632770a7eb60e21b815233600482015260643560248201529082908290604490829084905af1801561075b57611edd575b505081611b319355546114d58282613397565b9055338452600d60205260408420828552602052600460408520015415600014611ece5760ff60028401541690620151808102818104620151801482151715611eba57611b7e9042613486565b60405193611b8b85612be8565b3385526020850193818552611ba4604087019182613493565b60405190611bc082611bb98160018c01612ef5565b0383612c36565b606087019182526080870192602435845260a08801948a865260c0890196875260e08901526001610100890152338a52600d60205260408a20908a52602052604089209560018060a01b038851166bffffffffffffffffffffffff60a01b8854161787555160018701555160038110156108f657611c41906002870161349f565b518051906001600160401b0382116108e257611c606003870154612ebb565b601f8111611e87575b50602090601f8311600114611e1257826101009795936008979593611ca3938d92611e075750508160011b916000199060031b1c19161790565b60038501555b51600484015551600583015551600682015560e0840151600782015501910151151560ff80198354169116179055818290600854915b828110611dd4575b5015611d82575b5033825260096020526040822080549060018201809211611d6e579160029160ff9355611d1e6064358354613486565b8255015416611d4160405191602435835260643560208401526040830190612dd1565b7f23b0f39e0762759ffb18632a1a2b79c9eb58571454e5f7c36e0a2f81759e0a3460603392a26001815580f35b634e487b7160e01b84526011600452602484fd5b600160401b811015611dc057806001611d9e9201600855612d3d565b81546001600160a01b0360039290921b91821b19163390911b17905538611cee565b634e487b7160e01b83526041600452602483fd5b611ddd81612d3d565b905460039190911b1c6001600160a01b03163314611dfd57600101611cdf565b5050600138611ce7565b0151905038806104f8565b90600387018a52808a20918a5b601f1985168110611e6f575092600896949260019261010099979583601f19811610611e56575b505050811b016003850155611ca9565b015160001960f88460031b161c19169055388080611e46565b91926020600181928685015181550194019201611e1f565b611eb490600388018b5260208b20601f850160051c8101916020861061081d57601f0160051c0190613380565b38611c69565b634e487b7160e01b86526011600452602486fd5b639857cbd960e01b8452600484fd5b81611ee791612c36565b611ef2578738611b1e565b8780fd5b63bc6072f160e01b8852600488fd5b63bc6072f160e01b8552600485fd5b63bccd404360e01b8352600483fd5b631f89958960e11b8352600483fd5b5061016e821015611a84565b63162908e360e11b8352600483fd5b50346101bf57806003193601126101bf576007546040516001600160a01b039091168152602090f35b50346101bf5760203660031901126101bf57600435906008548210156101bf576020611fa183612d3d565b905460405160039290921b1c6001600160a01b03168152f35b50346101bf57806003193601126101bf576004546040516001600160a01b039091168152602090f35b50346101bf5760203660031901126101bf5760043561200061358e565b600354604051631381549160e21b8152600481018390523360248201529061012090829060449082906001600160a01b03165afa908115610f0d57839161218c575b50608081015161205181612df4565b61205a81612df4565b61217d57338352600b6020526040832082845260205260408320541560001461215a576201518061209d60c08301515b4260e08501518042116114e45750613397565b0490811561214b579060606120b3920151613185565b600254811161213c57338352600b602052604083208284526020524260408420558260018060a01b0360045416803b156109d357604051637104a76d60e11b8152336004820152602481018490529082908290604490829084905af1801561075b57612127575050610de381600254613397565b8161213191612c36565b610e2e578238610dd5565b63bc6072f160e01b8352600483fd5b63ed700a6760e01b8452600484fd5b338352600b602052604083208284526020526201518061209d604085205461208a565b63e067835f60e01b8352600483fd5b90506101203d81116121bf575b6121a38183612c36565b810161012082820312610757576121b991613404565b38612042565b503d612199565b50346101bf57806003193601126101bf5760405180602060085491828152018091600885527ff3f7a9fe364faab93b216da50a3214154f22a0a2b415b23a84c8169e8b636ee390855b81811061226f5750505082612225910383612c36565b604051928392602084019060208552518091526040840192915b81811061224d575050500390f35b82516001600160a01b031684528594506020938401939092019160010161223f565b82546001600160a01b031684526020909301926001928301920161220f565b50346101bf5760203660031901126101bf576004356122b860018060a01b036006541633146133c7565b6122c061358e565b808252600e60205260408083206003546008820154925163068bcd8d60e01b815260048101939093528490839060249082906001600160a01b03165afa9182156115515784926123b6575b50600401549081156123785760649160a0612327920151613185565b04818352600e6020526005604084200155808252600e6020526123616005604084200154828452600e602052600660408520015490613397565b908252600e60205260076040832001556001815580f35b60405162461bcd60e51b8152602060048201526016602482015275496e76616c696420636f76657220636170616369747960501b6044820152606490fd5b60049192506123ce903d8087833e610a1c8183612c36565b919061230b565b50346101bf576123e436612cb9565b9096949295936123f2613565565b60035460405163068bcd8d60e01b8152600481018490526001600160a01b0390911698909787896024818d5afa988915612b82578899612b66575b50604089015160038110156108f65760038410156108f6578314801590612b58575b612b4957868852600e60205260c060408920990151670de0b6b3a76400008302838104670de0b6b3a76400001484151715612b3557670de0b6b3a764000091606461249b920490613185565b04918260068b015411612b2657886024999a9b6040519a8b80926307eb111f60e41b82528960048301525afa988915610a2a578a99612b0a575b5094996020870195908a5b8a518110156125705760206124f5828d61336c565b5101516040516125156020828161031d8183019687815193849201612d89565b519020888a6125366020604051809361031d83830196879251928391612d89565b519020148061255b575b61254c576001016124e0565b633480a50360e21b8c5260048cfd5b5089612567828d61336c565b51511415612540565b508a97959896508b600482015493600183019188516001600160401b0381116129b8578b61259e8554612ebb565b601f8111612ada575b505060208c601f8311600114612a78576125d6929182612a6d575b508160011b916000199060031b1c19161790565b83555b80516001600160401b0381116129b8578b6125f76003870154612ebb565b601f8111612a3a575b50506020918c601f83116001146129cc576126319390918361291a5750508160011b916000199060031b1c19161790565b60038401555b836004840155600983019080516001600160401b0381116129b8578b61265d8454612ebb565b601f8111612988575b505060208c601f83116001146129255790612695938361291a5750508160011b916000199060031b1c19161790565b81555b60058301938685556126b660088501978d8955600686015490613397565b600785019081559581811115612883578b9c916126d7919c999a9b9c613397565b6003546001600160a01b031690813b1561287f578991604483926040519485938492639fd36b1560e01b845288600485015260248401525af1908115610a5957899161286a575b50505b6003546001600160a01b031693843b1561286657600a6127e7612781978b99956127ab9b8b976040519d8e9c8d9b8c9a631b401a5b60e21b8c5260048c0152604060248c0152895460448c015261018060648c01526101c48b0190612ef5565b61279660ff60028b01541660848c0190612dd1565b8981036043190160a48b015260038901612ef5565b600488015460c48a0152935460e48901526006870154610104890152546101248801525461014487015285820360431901610164870152612ef5565b91015460ff81166127f781612df4565b61018484015260081c6001600160a01b03166101a483015203925af1801561075b57612851575b50507f758a67328ba53c1867c0272bbd2ca10d6fe71d37120188c523fe7ae7bdbbe4699161073c604051928392836133a4565b8161285b91612c36565b61075757838561281e565b8880fd5b8161287491612c36565b611ef257878d61271e565b8980fd5b9080821061289a575b5050899a9996979899612721565b906128a491613397565b6003546001600160a01b03169b908c3b15612916578b906040519d8e9163a4948d8560e01b8352846004840152602483015281835a92604493f1801561290b576128f0575b9a8061288c565b96979899909a8161290091612c36565b989796958a906128e9565b6040513d8d823e3d90fd5b8b80fd5b015190508e806104f8565b9192601f198416858452828420935b8181106129705750908460019594939210612957575b505050811b018155612698565b015160001960f88460031b161c191690558d808061294a565b92936020600181928786015181550195019301612934565b602082866129b1945220601f840160051c8101916020851061081d57601f0160051c0190613380565b8b8e612666565b634e487b7160e01b8c52604160045260248cfd5b5091600386018d52808d20908d935b601f1984168510612a1f576001945083601f19811610612a06575b505050811b016003840155612637565b015160001960f88460031b161c191690558d80806129f6565b818101518355602094850194600190930192909101906129db565b6020612a669260038901815220601f840160051c8101916020851061081d57601f0160051c0190613380565b8b8e612600565b90508b01518f6125c2565b90601f198316868352818320925b8d828210612ac25750509083600194939210612aa9575b5050811b0183556125d9565b8c015160001960f88460031b161c191690558e80612a9d565b60018495602093958493015181550194019201612a86565b60208287612b03945220601f840160051c8101916020851061081d57601f0160051c0190613380565b8b8e6125a7565b612b1f9199503d808c833e610a4a8183612c36565b97386124d5565b6369e489f560e11b8952600489fd5b634e487b7160e01b8a52601160045260248afd5b6369e489f560e11b8852600488fd5b50610160890151821161244f565b612b7b9199503d808a833e610a1c8183612c36565b973861242d565b6040513d8a823e3d90fd5b9050346109d35760403660031901126109d3576020916040906001600160a01b03612bb6612bcd565b168152600c84528181206024358252845220548152f35b600435906001600160a01b0382168203612be357565b600080fd5b61012081019081106001600160401b03821117612c0457604052565b634e487b7160e01b600052604160045260246000fd5b61018081019081106001600160401b03821117612c0457604052565b90601f801991011681019081106001600160401b03821117612c0457604052565b6001600160401b038111612c0457601f01601f191660200190565b81601f82011215612be357803590612c8982612c57565b92612c976040519485612c36565b82845260208383010111612be357816000926020809301838601378301015290565b60e0600319820112612be357600435916024356001600160401b038111612be35782612ce791600401612c72565b916044356003811015612be357916064356001600160401b038111612be35782612d1391600401612c72565b91608435906001600160401b038211612be357612d3291600401612c72565b9060a4359060c43590565b600854811015612d5857600860005260206000200190600090565b634e487b7160e01b600052603260045260246000fd5b601054811015612d5857601060005260206000200190600090565b60005b838110612d9c5750506000910152565b8181015183820152602001612d8c565b90602091612dc581518092818552858086019101612d89565b601f01601f1916010190565b906003821015612dde5752565b634e487b7160e01b600052602160045260246000fd5b60021115612dde57565b9081518152610160612e93612e4b612e2760208601516101806020870152610180860190612dac565b612e3960408701516040870190612dd1565b60608601518582036060870152612dac565b6080850151608085015260a085015160a085015260c085015160c085015260e085015160e0850152610100850151610100850152610120850151848203610120860152612dac565b92610140810151612ea381612df4565b6101408401528101516001600160a01b031691015290565b90600182811c92168015612eeb575b6020831014612ed557565b634e487b7160e01b600052602260045260246000fd5b91607f1691612eca565b60009291815491612f0583612ebb565b8083529260018116908115612f5b5750600114612f2157505050565b60009081526020812093945091925b838310612f41575060209250010190565b600181602092949394548385870101520191019190612f30565b915050602093945060ff929192191683830152151560051b010190565b9060018060a01b03825116815260208201516020820152612fa160408301516040830190612dd1565b61010080612fc060608501516101206060860152610120850190612dac565b936080810151608085015260a081015160a085015260c081015160c085015260e081015160e08501520151151591015290565b81601f82011215612be357805161300981612c57565b926130176040519485612c36565b81845260208284010111612be3576130359160208085019101612d89565b90565b51906001600160a01b0382168203612be357565b602081830312612be3578051906001600160401b038211612be3570161020081830312612be3576040519161020083018381106001600160401b03821117612c0457604052815183526020820151906001600160401b038211612be3576130b4918301612ff3565b602083015260408101516003811015612be3576040830152606081015160608301526080810151608083015260a081015160a083015260c081015160c083015260e081015160e08301526101008101516101008301526101208101516101208301526101408101518015158103612be3576101408301526101608101516101608301526101808101516101808301526101a08101519060ff82168203612be3576101e0916101a084015261316b6101c08201613038565b6101c084015201516002811015612be3576101e082015290565b8181029291811591840414171561319857565b634e487b7160e01b600052601160045260246000fd5b6001600160401b038111612c045760051b60200190565b602081830312612be3578051906001600160401b038211612be3570181601f82011215612be3578051906131f8826131ae565b926132066040519485612c36565b82845260208085019360051b83010191818311612be35760208101935b83851061323257505050505090565b84516001600160401b038111612be357820190610180828503601f190112612be3576040519061326182612c1a565b6020830151825260408301516001600160401b038111612be35785602061328a92860101612ff3565b602083015260608301516003811015612be357604083015260808301516001600160401b038111612be3578560206132c492860101612ff3565b606083015260a0830151608083015260c083015160a083015260e083015160c083015261010083015160e08301526101208301516101008301526101408301516001600160401b038111612be35785602061332192860101612ff3565b610120830152610160830151916002831015612be35761334e610180602095869561014085015201613038565b610160820152815201940193613223565b805115612d585760200190565b8051821015612d585760209160051b010190565b81811061338b575050565b60008155600101613380565b9190820391821161319857565b929160206133bd6133c593604087526040870190612dac565b940190612dd1565b565b156133ce57565b60405162461bcd60e51b815260206004820152600e60248201526d139bdd08185d5d1a1bdc9a5e995960921b6044820152606490fd5b919082610120910312612be35760405161341d81612be8565b809261342881613038565b825260208101516020830152604081015160408301526060810151606083015260808101516002811015612be357610100918291608085015260a081015160a085015260c081015160c085015260e081015160e08501520151910152565b9190820180921161319857565b6003821015612dde5752565b906003811015612dde5760ff80198354169116179055565b604051906134c482612c1a565b600061016083828152606060208201528260408201526060808201528260808201528260a08201528260c08201528260e0820152826101008201526060610120820152826101408201520152565b60001981146131985760010190565b6040519061352e82612be8565b6000610100838281528260208201528260408201526060808201528260808201528260a08201528260c08201528260e08201520152565b6001546001600160a01b0316330361357957565b63118cdaa760e01b6000523360045260246000fd5b60026000541461359f576002600055565b633ee5aeb560e01b60005260046000fdfea2646970667358221220903e231d2d72dd1b571c096d2c1fc39a64f96af5c6d78af23b358727b0c310f764736f6c634300081c0033",
  "linkReferences": {},
  "deployedLinkReferences": {}
}