{
  "_format": "hh-sol-artifact-1",
  "contractName": "InsuranceCover",
  "sourceName": "contracts/InsuranceCover.sol",
  "abi": [
    {
      "inputs": [
        {
          "internalType": "address",
          "name": "_lpContract",
          "type": "address"
        },
        {
          "internalType": "address",
          "name": "_initialOwner",
          "type": "address"
        },
        {
          "internalType": "address",
          "name": "_bqBTC",
          "type": "address"
        }
      ],
      "stateMutability": "nonpayable",
      "type": "constructor"
    },
    {
      "inputs": [],
      "name": "CoverNotAvailable",
      "type": "error"
    },
    {
      "inputs": [],
      "name": "InsufficientPoolBalance",
      "type": "error"
    },
    {
      "inputs": [],
      "name": "InvalidAmount",
      "type": "error"
    },
    {
      "inputs": [],
      "name": "InvalidCoverDuration",
      "type": "error"
    },
    {
      "inputs": [],
      "name": "LpNotActive",
      "type": "error"
    },
    {
      "inputs": [],
      "name": "NameAlreadyExists",
      "type": "error"
    },
    {
      "inputs": [],
      "name": "NoClaimableReward",
      "type": "error"
    },
    {
      "inputs": [
        {
          "internalType": "address",
          "name": "owner",
          "type": "address"
        }
      ],
      "name": "OwnableInvalidOwner",
      "type": "error"
    },
    {
      "inputs": [
        {
          "internalType": "address",
          "name": "account",
          "type": "address"
        }
      ],
      "name": "OwnableUnauthorizedAccount",
      "type": "error"
    },
    {
      "inputs": [],
      "name": "ReentrancyGuardReentrantCall",
      "type": "error"
    },
    {
      "inputs": [],
      "name": "UnsupportedCoverType",
      "type": "error"
    },
    {
      "inputs": [],
      "name": "UserHaveAlreadyPurchasedCover",
      "type": "error"
    },
    {
      "inputs": [],
      "name": "WrongPool",
      "type": "error"
    },
    {
      "anonymous": false,
      "inputs": [
        {
          "indexed": true,
          "internalType": "uint256",
          "name": "coverId",
          "type": "uint256"
        },
        {
          "indexed": false,
          "internalType": "string",
          "name": "name",
          "type": "string"
        },
        {
          "indexed": false,
          "internalType": "enum CoverLib.RiskType",
          "name": "riskType",
          "type": "uint8"
        }
      ],
      "name": "CoverCreated",
      "type": "event"
    },
    {
      "anonymous": false,
      "inputs": [
        {
          "indexed": true,
          "internalType": "address",
          "name": "user",
          "type": "address"
        },
        {
          "indexed": false,
          "internalType": "uint256",
          "name": "coverValue",
          "type": "uint256"
        },
        {
          "indexed": false,
          "internalType": "uint256",
          "name": "coverFee",
          "type": "uint256"
        },
        {
          "indexed": false,
          "internalType": "enum CoverLib.RiskType",
          "name": "riskType",
          "type": "uint8"
        }
      ],
      "name": "CoverPurchased",
      "type": "event"
    },
    {
      "anonymous": false,
      "inputs": [
        {
          "indexed": true,
          "internalType": "uint256",
          "name": "coverId",
          "type": "uint256"
        },
        {
          "indexed": false,
          "internalType": "string",
          "name": "coverName",
          "type": "string"
        },
        {
          "indexed": false,
          "internalType": "enum CoverLib.RiskType",
          "name": "riskType",
          "type": "uint8"
        }
      ],
      "name": "CoverUpdated",
      "type": "event"
    },
    {
      "anonymous": false,
      "inputs": [
        {
          "indexed": true,
          "internalType": "address",
          "name": "previousOwner",
          "type": "address"
        },
        {
          "indexed": true,
          "internalType": "address",
          "name": "newOwner",
          "type": "address"
        }
      ],
      "name": "OwnershipTransferred",
      "type": "event"
    },
    {
      "anonymous": false,
      "inputs": [
        {
          "indexed": true,
          "internalType": "address",
          "name": "user",
          "type": "address"
        },
        {
          "indexed": true,
          "internalType": "uint256",
          "name": "poolId",
          "type": "uint256"
        },
        {
          "indexed": false,
          "internalType": "uint256",
          "name": "amount",
          "type": "uint256"
        }
      ],
      "name": "PayoutClaimed",
      "type": "event"
    },
    {
      "inputs": [
        {
          "internalType": "address",
          "name": "",
          "type": "address"
        },
        {
          "internalType": "uint256",
          "name": "",
          "type": "uint256"
        }
      ],
      "name": "LastVaultClaimTime",
      "outputs": [
        {
          "internalType": "uint256",
          "name": "",
          "type": "uint256"
        }
      ],
      "stateMutability": "view",
      "type": "function"
    },
    {
      "inputs": [
        {
          "internalType": "address",
          "name": "",
          "type": "address"
        },
        {
          "internalType": "uint256",
          "name": "",
          "type": "uint256"
        }
      ],
      "name": "NextLpClaimTime",
      "outputs": [
        {
          "internalType": "uint256",
          "name": "",
          "type": "uint256"
        }
      ],
      "stateMutability": "view",
      "type": "function"
    },
    {
      "inputs": [],
      "name": "bqBTC",
      "outputs": [
        {
          "internalType": "contract IbqBTC",
          "name": "",
          "type": "address"
        }
      ],
      "stateMutability": "view",
      "type": "function"
    },
    {
      "inputs": [],
      "name": "bqBTCAddress",
      "outputs": [
        {
          "internalType": "address",
          "name": "",
          "type": "address"
        }
      ],
      "stateMutability": "view",
      "type": "function"
    },
    {
      "inputs": [
        {
          "internalType": "uint256",
          "name": "_poolId",
          "type": "uint256"
        }
      ],
      "name": "claimPayoutForLP",
      "outputs": [],
      "stateMutability": "nonpayable",
      "type": "function"
    },
    {
      "inputs": [
        {
          "internalType": "uint256",
          "name": "vaultId",
          "type": "uint256"
        }
      ],
      "name": "clamPayoutForVault",
      "outputs": [],
      "stateMutability": "nonpayable",
      "type": "function"
    },
    {
      "inputs": [],
      "name": "coverCount",
      "outputs": [
        {
          "internalType": "uint256",
          "name": "",
          "type": "uint256"
        }
      ],
      "stateMutability": "view",
      "type": "function"
    },
    {
      "inputs": [
        {
          "internalType": "uint256",
          "name": "",
          "type": "uint256"
        }
      ],
      "name": "coverExists",
      "outputs": [
        {
          "internalType": "bool",
          "name": "",
          "type": "bool"
        }
      ],
      "stateMutability": "view",
      "type": "function"
    },
    {
      "inputs": [],
      "name": "coverFeeBalance",
      "outputs": [
        {
          "internalType": "uint256",
          "name": "",
          "type": "uint256"
        }
      ],
      "stateMutability": "view",
      "type": "function"
    },
    {
      "inputs": [
        {
          "internalType": "uint256",
          "name": "",
          "type": "uint256"
        }
      ],
      "name": "coverIds",
      "outputs": [
        {
          "internalType": "uint256",
          "name": "",
          "type": "uint256"
        }
      ],
      "stateMutability": "view",
      "type": "function"
    },
    {
      "inputs": [
        {
          "internalType": "uint256",
          "name": "",
          "type": "uint256"
        }
      ],
      "name": "covers",
      "outputs": [
        {
          "internalType": "uint256",
          "name": "id",
          "type": "uint256"
        },
        {
          "internalType": "string",
          "name": "coverName",
          "type": "string"
        },
        {
          "internalType": "enum CoverLib.RiskType",
          "name": "riskType",
          "type": "uint8"
        },
        {
          "internalType": "string",
          "name": "chains",
          "type": "string"
        },
        {
          "internalType": "uint256",
          "name": "capacity",
          "type": "uint256"
        },
        {
          "internalType": "uint256",
          "name": "cost",
          "type": "uint256"
        },
        {
          "internalType": "uint256",
          "name": "capacityAmount",
          "type": "uint256"
        },
        {
          "internalType": "uint256",
          "name": "coverValues",
          "type": "uint256"
        },
        {
          "internalType": "uint256",
          "name": "maxAmount",
          "type": "uint256"
        },
        {
          "internalType": "uint256",
          "name": "poolId",
          "type": "uint256"
        },
        {
          "internalType": "string",
          "name": "CID",
          "type": "string"
        }
      ],
      "stateMutability": "view",
      "type": "function"
    },
    {
      "inputs": [
        {
          "internalType": "uint256",
          "name": "coverId",
          "type": "uint256"
        },
        {
          "internalType": "string",
          "name": "_cid",
          "type": "string"
        },
        {
          "internalType": "enum CoverLib.RiskType",
          "name": "_riskType",
          "type": "uint8"
        },
        {
          "internalType": "string",
          "name": "_coverName",
          "type": "string"
        },
        {
          "internalType": "string",
          "name": "_chains",
          "type": "string"
        },
        {
          "internalType": "uint256",
          "name": "_capacity",
          "type": "uint256"
        },
        {
          "internalType": "uint256",
          "name": "_cost",
          "type": "uint256"
        },
        {
          "internalType": "uint256",
          "name": "_poolId",
          "type": "uint256"
        }
      ],
      "name": "createCover",
      "outputs": [],
      "stateMutability": "nonpayable",
      "type": "function"
    },
    {
      "inputs": [
        {
          "internalType": "address",
          "name": "_user",
          "type": "address"
        }
      ],
      "name": "deleteExpiredUserCovers",
      "outputs": [],
      "stateMutability": "nonpayable",
      "type": "function"
    },
    {
      "inputs": [],
      "name": "getAllAvailableCovers",
      "outputs": [
        {
          "components": [
            {
              "internalType": "uint256",
              "name": "id",
              "type": "uint256"
            },
            {
              "internalType": "string",
              "name": "coverName",
              "type": "string"
            },
            {
              "internalType": "enum CoverLib.RiskType",
              "name": "riskType",
              "type": "uint8"
            },
            {
              "internalType": "string",
              "name": "chains",
              "type": "string"
            },
            {
              "internalType": "uint256",
              "name": "capacity",
              "type": "uint256"
            },
            {
              "internalType": "uint256",
              "name": "cost",
              "type": "uint256"
            },
            {
              "internalType": "uint256",
              "name": "capacityAmount",
              "type": "uint256"
            },
            {
              "internalType": "uint256",
              "name": "coverValues",
              "type": "uint256"
            },
            {
              "internalType": "uint256",
              "name": "maxAmount",
              "type": "uint256"
            },
            {
              "internalType": "uint256",
              "name": "poolId",
              "type": "uint256"
            },
            {
              "internalType": "string",
              "name": "CID",
              "type": "string"
            }
          ],
          "internalType": "struct CoverLib.Cover[]",
          "name": "",
          "type": "tuple[]"
        }
      ],
      "stateMutability": "view",
      "type": "function"
    },
    {
      "inputs": [],
      "name": "getAllParticipants",
      "outputs": [
        {
          "internalType": "address[]",
          "name": "",
          "type": "address[]"
        }
      ],
      "stateMutability": "view",
      "type": "function"
    },
    {
      "inputs": [
        {
          "internalType": "address",
          "name": "user",
          "type": "address"
        }
      ],
      "name": "getAllUserCovers",
      "outputs": [
        {
          "components": [
            {
              "internalType": "address",
              "name": "user",
              "type": "address"
            },
            {
              "internalType": "uint256",
              "name": "coverId",
              "type": "uint256"
            },
            {
              "internalType": "enum CoverLib.RiskType",
              "name": "riskType",
              "type": "uint8"
            },
            {
              "internalType": "string",
              "name": "coverName",
              "type": "string"
            },
            {
              "internalType": "uint256",
              "name": "coverValue",
              "type": "uint256"
            },
            {
              "internalType": "uint256",
              "name": "claimPaid",
              "type": "uint256"
            },
            {
              "internalType": "uint256",
              "name": "coverPeriod",
              "type": "uint256"
            },
            {
              "internalType": "uint256",
              "name": "endDay",
              "type": "uint256"
            },
            {
              "internalType": "bool",
              "name": "isActive",
              "type": "bool"
            }
          ],
          "internalType": "struct CoverLib.GenericCoverInfo[]",
          "name": "",
          "type": "tuple[]"
        }
      ],
      "stateMutability": "view",
      "type": "function"
    },
    {
      "inputs": [],
      "name": "getCoverFeeBalance",
      "outputs": [
        {
          "internalType": "uint256",
          "name": "",
          "type": "uint256"
        }
      ],
      "stateMutability": "view",
      "type": "function"
    },
    {
      "inputs": [
        {
          "internalType": "uint256",
          "name": "_coverId",
          "type": "uint256"
        }
      ],
      "name": "getCoverInfo",
      "outputs": [
        {
          "components": [
            {
              "internalType": "uint256",
              "name": "id",
              "type": "uint256"
            },
            {
              "internalType": "string",
              "name": "coverName",
              "type": "string"
            },
            {
              "internalType": "enum CoverLib.RiskType",
              "name": "riskType",
              "type": "uint8"
            },
            {
              "internalType": "string",
              "name": "chains",
              "type": "string"
            },
            {
              "internalType": "uint256",
              "name": "capacity",
              "type": "uint256"
            },
            {
              "internalType": "uint256",
              "name": "cost",
              "type": "uint256"
            },
            {
              "internalType": "uint256",
              "name": "capacityAmount",
              "type": "uint256"
            },
            {
              "internalType": "uint256",
              "name": "coverValues",
              "type": "uint256"
            },
            {
              "internalType": "uint256",
              "name": "maxAmount",
              "type": "uint256"
            },
            {
              "internalType": "uint256",
              "name": "poolId",
              "type": "uint256"
            },
            {
              "internalType": "string",
              "name": "CID",
              "type": "string"
            }
          ],
          "internalType": "struct CoverLib.Cover",
          "name": "",
          "type": "tuple"
        }
      ],
      "stateMutability": "view",
      "type": "function"
    },
    {
      "inputs": [
        {
          "internalType": "address",
          "name": "user",
          "type": "address"
        },
        {
          "internalType": "uint256",
          "name": "_poolId",
          "type": "uint256"
        }
      ],
      "name": "getDepositClaimableDays",
      "outputs": [
        {
          "internalType": "uint256",
          "name": "",
          "type": "uint256"
        }
      ],
      "stateMutability": "view",
      "type": "function"
    },
    {
      "inputs": [
        {
          "internalType": "address",
          "name": "user",
          "type": "address"
        },
        {
          "internalType": "uint256",
          "name": "_poolId",
          "type": "uint256"
        }
      ],
      "name": "getLastClaimTime",
      "outputs": [
        {
          "internalType": "uint256",
          "name": "",
          "type": "uint256"
        }
      ],
      "stateMutability": "view",
      "type": "function"
    },
    {
      "inputs": [
        {
          "internalType": "address",
          "name": "user",
          "type": "address"
        },
        {
          "internalType": "uint256",
          "name": "_coverId",
          "type": "uint256"
        }
      ],
      "name": "getUserCoverInfo",
      "outputs": [
        {
          "components": [
            {
              "internalType": "address",
              "name": "user",
              "type": "address"
            },
            {
              "internalType": "uint256",
              "name": "coverId",
              "type": "uint256"
            },
            {
              "internalType": "enum CoverLib.RiskType",
              "name": "riskType",
              "type": "uint8"
            },
            {
              "internalType": "string",
              "name": "coverName",
              "type": "string"
            },
            {
              "internalType": "uint256",
              "name": "coverValue",
              "type": "uint256"
            },
            {
              "internalType": "uint256",
              "name": "claimPaid",
              "type": "uint256"
            },
            {
              "internalType": "uint256",
              "name": "coverPeriod",
              "type": "uint256"
            },
            {
              "internalType": "uint256",
              "name": "endDay",
              "type": "uint256"
            },
            {
              "internalType": "bool",
              "name": "isActive",
              "type": "bool"
            }
          ],
          "internalType": "struct CoverLib.GenericCoverInfo",
          "name": "",
          "type": "tuple"
        }
      ],
      "stateMutability": "view",
      "type": "function"
    },
    {
      "inputs": [
        {
          "internalType": "address",
          "name": "user",
          "type": "address"
        }
      ],
      "name": "getUserParticipation",
      "outputs": [
        {
          "internalType": "uint256",
          "name": "",
          "type": "uint256"
        }
      ],
      "stateMutability": "view",
      "type": "function"
    },
    {
      "inputs": [],
      "name": "governance",
      "outputs": [
        {
          "internalType": "address",
          "name": "",
          "type": "address"
        }
      ],
      "stateMutability": "view",
      "type": "function"
    },
    {
      "inputs": [],
      "name": "lpAddress",
      "outputs": [
        {
          "internalType": "address",
          "name": "",
          "type": "address"
        }
      ],
      "stateMutability": "view",
      "type": "function"
    },
    {
      "inputs": [],
      "name": "lpContract",
      "outputs": [
        {
          "internalType": "contract ILP",
          "name": "",
          "type": "address"
        }
      ],
      "stateMutability": "view",
      "type": "function"
    },
    {
      "inputs": [],
      "name": "owner",
      "outputs": [
        {
          "internalType": "address",
          "name": "",
          "type": "address"
        }
      ],
      "stateMutability": "view",
      "type": "function"
    },
    {
      "inputs": [
        {
          "internalType": "uint256",
          "name": "",
          "type": "uint256"
        }
      ],
      "name": "participants",
      "outputs": [
        {
          "internalType": "address",
          "name": "",
          "type": "address"
        }
      ],
      "stateMutability": "view",
      "type": "function"
    },
    {
      "inputs": [
        {
          "internalType": "address",
          "name": "",
          "type": "address"
        }
      ],
      "name": "participation",
      "outputs": [
        {
          "internalType": "uint256",
          "name": "",
          "type": "uint256"
        }
      ],
      "stateMutability": "view",
      "type": "function"
    },
    {
      "inputs": [
        {
          "internalType": "uint256",
          "name": "_coverId",
          "type": "uint256"
        },
        {
          "internalType": "uint256",
          "name": "_coverValue",
          "type": "uint256"
        },
        {
          "internalType": "uint256",
          "name": "_coverPeriod",
          "type": "uint256"
        },
        {
          "internalType": "uint256",
          "name": "_coverFee",
          "type": "uint256"
        }
      ],
      "name": "purchaseCover",
      "outputs": [],
      "stateMutability": "nonpayable",
      "type": "function"
    },
    {
      "inputs": [],
      "name": "renounceOwnership",
      "outputs": [],
      "stateMutability": "nonpayable",
      "type": "function"
    },
    {
      "inputs": [
        {
          "internalType": "address",
          "name": "newOwner",
          "type": "address"
        }
      ],
      "name": "transferOwnership",
      "outputs": [],
      "stateMutability": "nonpayable",
      "type": "function"
    },
    {
      "inputs": [
        {
          "internalType": "uint256",
          "name": "_coverId",
          "type": "uint256"
        },
        {
          "internalType": "string",
          "name": "_coverName",
          "type": "string"
        },
        {
          "internalType": "enum CoverLib.RiskType",
          "name": "_riskType",
          "type": "uint8"
        },
        {
          "internalType": "string",
          "name": "_cid",
          "type": "string"
        },
        {
          "internalType": "string",
          "name": "_chains",
          "type": "string"
        },
        {
          "internalType": "uint256",
          "name": "_capacity",
          "type": "uint256"
        },
        {
          "internalType": "uint256",
          "name": "_cost",
          "type": "uint256"
        },
        {
          "internalType": "uint256",
          "name": "_poolId",
          "type": "uint256"
        }
      ],
      "name": "updateCover",
      "outputs": [],
      "stateMutability": "nonpayable",
      "type": "function"
    },
    {
      "inputs": [
        {
          "internalType": "uint256",
          "name": "_coverId",
          "type": "uint256"
        }
      ],
      "name": "updateMaxAmount",
      "outputs": [],
      "stateMutability": "nonpayable",
      "type": "function"
    },
    {
      "inputs": [
        {
          "internalType": "address",
          "name": "user",
          "type": "address"
        },
        {
          "internalType": "uint256",
          "name": "_coverId",
          "type": "uint256"
        },
        {
          "internalType": "uint256",
          "name": "_claimPaid",
          "type": "uint256"
        }
      ],
      "name": "updateUserCoverValue",
      "outputs": [],
      "stateMutability": "nonpayable",
      "type": "function"
    },
    {
      "inputs": [
        {
          "internalType": "address",
          "name": "",
          "type": "address"
        },
        {
          "internalType": "uint256",
          "name": "",
          "type": "uint256"
        }
      ],
      "name": "userCovers",
      "outputs": [
        {
          "internalType": "address",
          "name": "user",
          "type": "address"
        },
        {
          "internalType": "uint256",
          "name": "coverId",
          "type": "uint256"
        },
        {
          "internalType": "enum CoverLib.RiskType",
          "name": "riskType",
          "type": "uint8"
        },
        {
          "internalType": "string",
          "name": "coverName",
          "type": "string"
        },
        {
          "internalType": "uint256",
          "name": "coverValue",
          "type": "uint256"
        },
        {
          "internalType": "uint256",
          "name": "claimPaid",
          "type": "uint256"
        },
        {
          "internalType": "uint256",
          "name": "coverPeriod",
          "type": "uint256"
        },
        {
          "internalType": "uint256",
          "name": "endDay",
          "type": "uint256"
        },
        {
          "internalType": "bool",
          "name": "isActive",
          "type": "bool"
        }
      ],
      "stateMutability": "view",
      "type": "function"
    }
  ],
  "bytecode": "0x60803461012857601f61363038819003918201601f19168301916001600160401b0383118484101761012d578084926060946040528339810103126101285761004781610143565b90610060604061005960208401610143565b9201610143565b60016000556001600160a01b0390911691821561011257600180546001600160a01b03198116851790915560405193906001600160a01b03167f8be0079c531659141344cd1fd0a4f28419497f9722a3daafe3b4186f6b6457e0600080a3600380546001600160a01b039283166001600160a01b03199182168117909255600680548216909217909155600480549390921692811683179091556005805490911690911790556134d890816101588239f35b631e4fbdf760e01b600052600060045260246000fd5b600080fd5b634e487b7160e01b600052604160045260246000fd5b51906001600160a01b03821682036101285756fe608080604052600436101561001357600080fd5b600090813560e01c9081630db981a014612acc575080631052581414611b43578063106b5da11461295d578063195ec9ee146128955780632d8a340c146126ab57806334808ec314612682578063357917b7146120fe57806335c1d3491461263e57806346f84795146110115780635aa6e67514612615578063602710a41461211c578063609c7604146120fe57806362858bfa1461208e5780636299df6c14611f77578063649718b214611d4a578063715018a614611ced57806373cce3ee14611bb5578063782ea61914611b865780637a728e7f14611b435780637ceb4a6914611aab5780638acee3cf14611a825780638da5cb5b14611a595780638de4d1011461127657806393b1ad381461104a57806396f3a8ad146110115780639732bdb51461087b578063996b8a6f146108525780639b4dc8cc146108295780639e7b399e1461074c578063a650c232146104ae578063bfc664f314610370578063cadcb47114610285578063f2fde38b146101fc578063fb643583146101c25763feb0b8f5146101a257600080fd5b346101bf57806003193601126101bf576020600f54604051908152f35b80fd5b50346101bf5760203660031901126101bf57600435906010548210156101bf5760206101ed83612b58565b90549060031b1c604051908152f35b50346101bf5760203660031901126101bf57610216612b0c565b61021e613479565b6001600160a01b0316801561027157600180546001600160a01b0319811683179091556001600160a01b03167f8be0079c531659141344cd1fd0a4f28419497f9722a3daafe3b4186f6b6457e08380a380f35b631e4fbdf760e01b82526004829052602482fd5b50346101bf5760403660031901126101bf57604061036c916102a5612b0c565b6102ad613251565b5060018060a01b03168152600d60205281812060243582526020522060ff6008604051926102da84612d3d565b80546001600160a01b0316845260018101546020850152600281015461030590841660408601613197565b604051610320816103198160038601612cba565b0382612d8b565b606085015260048101546080850152600581015460a0850152600681015460c0850152600781015460e08501520154161515610100820152604051918291602083526020830190612dac565b0390f35b50346101bf5760203660031901126101bf5761038a612b0c565b610392613457565b6001600160a01b031660015b6010548110156104a657806103b4600192612b58565b90549060031b1c838552600d6020526040852081865260205260408520600881019081549060ff82169081610498575b506103f3575b5050500161039e565b60ff19169055838552600d60205260408520908552602052836008604082208281558285820155826002820155826003820161042f8154612c80565b80610458575b5050600482015582600582015582600682015582600782015501553880806103ea565b601f8111881461046d5750555b823880610435565b8183526020832061048891601f0160051c81019089016131bb565b8082528160208120915555610465565b6007915001544211386103e4565b826001815580f35b50346101bf5760203660031901126101bf576004356104cb613457565b600354604051634122bbb360e11b815260048101839052336024820152908390829060449082906001600160a01b03165afa908115610741578391610698575b508290338452600c602052604084208385526020526040842054156000146106765761012c61055c60c061053e84613295565b5101515b4260e061054e86613295565b5101514211610662576130fb565b049380925b82518410156105965761058e60019161058888606061058089896132a2565b5101516130d2565b9061318a565b930192610561565b8490338352600c602052604083208284526020524260408420558260018060a01b0360045416803b1561065e57604051637104a76d60e11b8152336004820152602481018490529082908290604490829084905af180156106535761063a575b5050610604816002546130fb565b6002556040519081527f0408e6e0b73daf4c873106e95fd067260fbff8bf9d1b499cad563d4480d45bac60203392a36001815580f35b8161064491612d8b565b61064f5782846105f6565b8280fd5b6040513d84823e3d90fd5b5080fd5b5060e061066e85613295565b5101516130fb565b338452600c6020526040842083855260205261012c61055c6040862054610542565b90503d8084833e6106a98183612d8b565b810190602081830312610739578051906001600160401b03821161073d570181601f820112156107395780516106de8161323a565b926106ec6040519485612d8b565b818452602061012081860193028401019281841161073557602001915b83831061071a57505050503861050b565b60206101209161072a8486613108565b815201920191610709565b8680fd5b8380fd5b8480fd5b6040513d85823e3d90fd5b50346101bf5760403660031901126101bf576040906001600160a01b03610771612b0c565b168152600d60205281812060243582526020522060018060a01b0381541660018201549160ff600282015416604051916107b9836107b28160038501612cba565b0384612d8b565b60048101549260058201546108086006840154926107f560ff6008600788015497015416966040519a8b9a8b5260208b015260408a0190612bbb565b6101206060890152610120880190612b96565b94608087015260a086015260c085015260e084015215156101008301520390f35b50346101bf57806003193601126101bf576006546040516001600160a01b039091168152602090f35b50346101bf57806003193601126101bf576005546040516001600160a01b039091168152602090f35b50346101bf5761088a36612e89565b61089a9897939496959298613479565b6003546040516307eb111f60e41b815260048101839052956001600160a01b0390911692908987602481875afa968715611006578a97610fe2575b5096996020890197908a5b88518110156109665760206108f5828b6132a2565b510151604051610926602082816109158183019687815193849201612b73565b81010301601f198101835282612d8b565b5190208a8c6109476020604051809361091583830196879251928391612b73565b51902014610957576001016108e0565b633480a50360e21b8c5260048cfd5b508a9850899697508b60405163068bcd8d60e01b81528560048201528a816024818a5afa908115610fd7578b91610fb5575b5060408101516003811015610fa1576003891015610fa1578814801590610f93575b610f845760a00151670de0b6b3a76400008302838104670de0b6b3a76400001484151715610f70576109fa8c926064670de0b6b3a76400009304906130d2565b0496803b1561065e5781809160446040518094819363a4948d8560e01b83528c60048401528960248401525af1801561065357610f57575b5050610a3f600f5461322b565b600f5560405195610a4f87612d6f565b89875260208701948986526040880193610a698a86613197565b60608901958652608089015260a08801528060c08801528a60e088015261010087015284610120870152610140860152878952600e602052604089209285518455518051906001600160401b038211610f4357610ac96001860154612c80565b601f8111610f10575b50602090601f8311600114610ea757610b0392918c9183610e9c575b50508160011b916000199060031b1c19161790565b60018401555b516003811015610e8857610b2090600284016131a3565b518051906001600160401b038211610dca57610b3f6003840154612c80565b601f8111610e55575b50602090601f8311600114610de9579180610b7c92600a95948c92610dde5750508160011b916000199060031b1c19161790565b60038201555b6080840151600482015560a0840151600582015560c0840151600682015560e0840151600782015561010084015160088201556101208401516009820155016101408301518051906001600160401b038211610dca57610be28354612c80565b601f8111610d8f575b50602090601f8311600114610d2c57610c1b92918a9183610d215750508160011b916000199060031b1c19161790565b90555b601054600160401b811015610d0d5790610c4082600189959401601055612b58565b8154600391821b89811b60001990911b1990911617909155546001600160a01b031691823b1561073957610c9a928492836040518096819582946331eaa61d60e21b84526004840152604060248401526044830190612bde565b03925af1801561065357610cf8575b5091837f5928d65cc6ae9f07a7673f1a5a2f98d81f1bb0c2bc53bcaa33d6f11cf426f25e9352600a60205260408520600160ff19825416179055610cf260405192839283613434565b0390a280f35b81610d0291612d8b565b610739578385610ca9565b634e487b7160e01b87526041600452602487fd5b015190508a80610aee565b838a52818a209190601f1984168b5b818110610d775750908460019594939210610d5e575b505050811b019055610c1e565b015160001960f88460031b161c19169055898080610d51565b92936020600181928786015181550195019301610d3b565b610dba90848b5260208b20601f850160051c81019160208610610dc0575b601f0160051c01906131bb565b89610beb565b9091508190610dad565b634e487b7160e01b89526041600452602489fd5b015190508b80610aee565b600384018a52818a209190601f1984168b5b818110610e3d5750916001939185600a97969410610e24575b505050811b016003820155610b82565b015160001960f88460031b161c191690558a8080610e14565b92936020600181928786015181550195019301610dfb565b610e8290600385018b5260208b20601f850160051c81019160208610610dc057601f0160051c01906131bb565b89610b48565b634e487b7160e01b89526021600452602489fd5b015190508c80610aee565b600186018c52818c209190601f1984168d5b818110610ef85750908460019594939210610edf575b505050811b016001840155610b09565b015160001960f88460031b161c191690558b8080610ecf565b92936020600181928786015181550195019301610eb9565b610f3d90600187018d5260208d20601f850160051c81019160208610610dc057601f0160051c01906131bb565b8b610ad2565b634e487b7160e01b8b52604160045260248bfd5b81610f6191612d8b565b610f6c57898b610a32565b8980fd5b634e487b7160e01b8c52601160045260248cfd5b6369e489f560e11b8b5260048bfd5b5061014081015183116109ba565b634e487b7160e01b8c52602160045260248cfd5b610fd191503d808d833e610fc98183612d8b565b810190612fa5565b8b610998565b6040513d8d823e3d90fd5b610fff9197503d808c833e610ff78183612d8b565b8101906132b6565b95386108d5565b6040513d8c823e3d90fd5b50346101bf5760203660031901126101bf576020906040906001600160a01b03611039612b0c565b168152600983522054604051908152f35b50346101bf57806003193601126101bf578081601054905b81811061123657506110738261323a565b916110816040519384612d8b565b808352611090601f199161323a565b01835b81811061121f57505082835b82811061110d5783856040519182916020830160208452825180915260408401602060408360051b870101940192905b8282106110de57505050500390f35b919360019193955060206110fd8192603f198a82030186528851612bde565b96019201920185949391926110cf565b61111681612b58565b90549060031b1c808652600a60205260ff60408720541661113b575b5060010161109f565b60019192611218918752600e60205260408720600a6111f76040519261116084612d6f565b8054845260405161117781610319818b8601612cba565b602085015261119060ff60028301541660408601613197565b6040516111a4816103198160038601612cba565b606085015260048101546080850152600581015460a0850152600681015460c0850152600781015460e0850152600881015461010085015260098101546101208501526103196040518094819301612cba565b61014082015261120782886132a2565b5261121281876132a2565b5061322b565b9190611132565b60209061122a6131d2565b82828701015201611093565b61123f81612b58565b90549060031b1c8452600a60205260ff604085205416611262575b600101611062565b9161126e60019161322b565b92905061125a565b50346101bf57602461128736612e89565b61129a9997969592999891949398613479565b60018060a01b036003541699888b6040519485809263068bcd8d60e01b82528660048301525afa928315611a4e578993611a32575b5060408301516003811015611a1e576003851015611a1e578414801590611a10575b611a0157878952600e60205260a060408a20930151670de0b6b3a76400008202828104670de0b6b3a764000014831517156119ed57670de0b6b3a764000091606461133d9204906130d2565b0490816007850154116119de578960249a9b9c6040519b8c80926307eb111f60e41b82528760048301525afa998a15610fd7578b9a6119c2575b50959a6020880196908b5b8b5181101561141c578b8b828c8c602061139c84876132a2565b5101516040516113bc602082816109158183019687815193849201612b73565b519020916113dc6020604051809361091583830196879251928391612b73565b519020149283611405575b5050506113f657600101611382565b633480a50360e21b8d5260048dfd5b6114109293506132a2565b515114158b828e6113e7565b508b98969997508c60048601549188516001600160401b038111611906578b61144860018a0154612c80565b601f811161198f575b505060208c601f83116001146119255761148092918261191a575b508160011b916000199060031b1c19161790565b60018801555b80516001600160401b038111611906578b6114a460038a0154612c80565b601f81116118d3575b50506020918c601f8311600114611865576114de9390918361185a5750508160011b916000199060031b1c19161790565b60038701555b826004870155600586015589516001600160401b0381116118465761150c600a870154612c80565b601f8111611813575b506020601f82116001146117a257908061154a928c9d8d9a9b9c9d926117975750508160011b916000199060031b1c19161790565b600a8601555b600685019183835561156e60098701948686556007880154906130fb565b6008870190815591818111156117235790611588916130fb565b6003546001600160a01b031690813b1561171f578791604483926040519485938492639fd36b1560e01b84528b600485015260248401525af19081156117145787916116fb575b50505b6003546001600160a01b031691823b156107355786946116a48692600a604051998a9889978896630a14764d60e41b885260048801526040602488015282546044880152610160606488015261165c6116326101a4890160018601612cba565b61164760ff60028701541660848b0190612bbb565b8881036043190160a48a015260038501612cba565b600484015460c4890152600584015460e48901529454610104880152600783015461012488015254610144870152546101648601528483036043190161018486015201612cba565b03925af18015610653576116e6575b50507f758a67328ba53c1867c0272bbd2ca10d6fe71d37120188c523fe7ae7bdbbe46991610cf260405192839283613434565b816116f091612d8b565b6107395783856116b3565b8161170591612d8b565b61171057858b6115cf565b8580fd5b6040513d89823e3d90fd5b8780fd5b818110611732575b50506115d2565b61173b916130fb565b6003546001600160a01b031690813b1561171f57879160448392604051948593849263a4948d8560e01b84528b600485015260248401525af19081156117145787911561172b578161178c91612d8b565b61171057858b61172b565b015190508d80610aee565b600a87018b52808b209b8b5b601f19841681106117fb57509b82918c9d600194601f9e9b9c9d9e198116106117e2575b505050811b01600a860155611550565b015160001960f88460031b161c191690558c80806117d2565b828201518e556001909d019c602092830192016117ae565b61184090600a88018c5260208c20601f840160051c81019160208510610dc057601f0160051c01906131bb565b8b611515565b634e487b7160e01b8a52604160045260248afd5b015190508e80610aee565b5091600389018d52808d20908d935b601f19841685106118b8576001945083601f1981161061189f575b505050811b0160038701556114e4565b015160001960f88460031b161c191690558d808061188f565b81810151835560209485019460019093019290910190611874565b60206118ff9260038c01815220601f840160051c81019160208510610dc057601f0160051c01906131bb565b8b8e6114ad565b634e487b7160e01b8c52604160045260248cfd5b90508b01518f61146c565b5090600189018d52818d208d925b8c601f198416851061197857506001935082601f1981161061195f575b5050811b016001880155611486565b8c015160001960f88460031b161c191690558e80611950565b810151825560209384019360019092019101611933565b60206119bb9260018c01815220601f840160051c81019160208510610dc057601f0160051c01906131bb565b8b8e611451565b6119d7919a503d808d833e610ff78183612d8b565b9838611377565b6369e489f560e11b8a5260048afd5b634e487b7160e01b8b52601160045260248bfd5b6369e489f560e11b8952600489fd5b5061014083015181116112f1565b634e487b7160e01b8a52602160045260248afd5b611a479193503d808b833e610fc98183612d8b565b91386112cf565b6040513d8b823e3d90fd5b50346101bf57806003193601126101bf576001546040516001600160a01b039091168152602090f35b50346101bf57806003193601126101bf576003546040516001600160a01b039091168152602090f35b50346101bf5760603660031901126101bf57611ac5612b0c565b60243560443591611ae160018060a01b03600754163314612f12565b611ae9613457565b60018060a01b0316808452600d6020526040842082855260205260046040852001611b158482546130fb565b90558352600d60205260408320908352602052611b3a6005604084200191825461318a565b90556001815580f35b50346101bf5760403660031901126101bf576020906040906001600160a01b03611b6b612b0c565b168152600b8352818120602435825283522054604051908152f35b50346101bf5760203660031901126101bf5760ff60406020926004358152600a84522054166040519015158152f35b50346101bf5760403660031901126101bf57611bcf612b0c565b600354604051631381549160e21b815260248035600483018190526001600160a01b0385811692840192909252919391926101209185916044918391165afa928315611ce2578493611c96575b506001600160a01b0316808452600b602090815260408086208487528252852054909461012c94611c6c94909392611c7d5750505060c0810151905b60e042910151804211611c75575b506130fb565b04604051908152f35b905038611c66565b6040928252600b87528282209082528652205490611c58565b9092506101203d8111611cdb575b611cae8183612d8b565b8101906101208183031261073d5791602094611cd161012c9593611c6c95613108565b9450945091611c1c565b503d611ca4565b6040513d86823e3d90fd5b50346101bf57806003193601126101bf57611d06613479565b600180546001600160a01b0319811690915581906001600160a01b03167f8be0079c531659141344cd1fd0a4f28419497f9722a3daafe3b4186f6b6457e08280a380f35b50346101bf5760203660031901126101bf57611d64612b0c565b60105482916001600160a01b0316825b828110611f2c5750611d858361323a565b92611d936040519485612d8b565b808452611da2601f199161323a565b01845b818110611f1557505083845b838110611e1f5784866040519182916020830160208452825180915260408401602060408360051b870101940192905b828210611df057505050500390f35b91936001919395506020611e0f8192603f198a82030186528851612dac565b9601920192018594939192611de1565b611e2881612b58565b90549060031b1c838752600d602052604087208188526020526004604088200154611e57575b50600101611db1565b60019192611f0e91858952600d602052604089209089526020526040882060ff600860405192611e8684612d3d565b868060a01b038154168452868101546020850152611ead8360028301541660408601613197565b604051611ec1816103198160038601612cba565b606085015260048101546080850152600581015460a0850152600681015460c0850152600781015460e08501520154161515610100820152611f0382896132a2565b5261121281886132a2565b9190611e4e565b602090611f20613251565b82828801015201611da5565b611f3581612b58565b90549060031b1c828652600d602052604086209086526020526004604086200154611f63575b600101611d74565b92611f6f60019161322b565b939050611f5b565b50346101bf5760203660031901126101bf576004358152600e6020526040902080546040519182806001830190611fad91612cba565b03611fb89084612d8b565b60028101546040519060ff1681611fd28160038601612cba565b03611fdd9083612d8b565b6004830154916005840154600685015460078601549160088701549360098801549560405180600a819b019061201291612cba565b0361201d908a612d8b565b6040519a8b9a8b5260208b0161016090526101608b0161203c91612b96565b9060408b0161204a91612bbb565b89810360608b015261205b91612b96565b95608089015260a088015260c087015260e086015261010085015261012084015282810361014084015261036c91612b96565b50346101bf5760203660031901126101bf57604061036c916120ae6131d2565b506004358152600e60205220600a6120e4604051926120cc84612d6f565b80548452604051611177816103198160018601612cba565b610140820152604051918291602083526020830190612bde565b50346101bf57806003193601126101bf576020600254604051908152f35b50346101bf5760803660031901126101bf5760443560043561213c613457565b6064351561260657601b82118015906125fa575b6125eb57808352600a60205260ff604084205416156125dc57808352600e6020526040832091600883018054602435116125cd5760078401612195602435825461318a565b60068601805482116125be5760045488906001600160a01b0316803b1561065e57604051632770a7eb60e21b815233600482015260643560248201529082908290604490829084905af18015610653576125a9575b5050816121fd935554611c6682826130fb565b9055338452600d6020526040842082855260205260046040852001541560001461259a5760ff600284015416906201518081028181046201518014821517156125865761224a904261318a565b6040519361225785612d3d565b3385526020850193818552612270604087019182613197565b6040519061228c826122858160018c01612cba565b0383612d8b565b606087019182526080870192602435845260a08801948a865260c0890196875260e08901526001610100890152338a52600d60205260408a20908a52602052604089209560018060a01b038851166bffffffffffffffffffffffff60a01b885416178755516001870155516003811015610e885761230d90600287016131a3565b518051906001600160401b038211610dca5761232c6003870154612c80565b601f8111612553575b50602090601f83116001146124de5782610100979593600897959361236f938d926124d35750508160011b916000199060031b1c19161790565b60038501555b51600484015551600583015551600682015560e0840151600782015501910151151560ff80198354169116179055818290600854915b8281106124a0575b501561244e575b503382526009602052604082208054906001820180921161243a579160029160ff93556123ea606435835461318a565b825501541661240d60405191602435835260643560208401526040830190612bbb565b7f23b0f39e0762759ffb18632a1a2b79c9eb58571454e5f7c36e0a2f81759e0a3460603392a26001815580f35b634e487b7160e01b84526011600452602484fd5b600160401b81101561248c5780600161246a9201600855612b27565b81546001600160a01b0360039290921b91821b19163390911b179055386123ba565b634e487b7160e01b83526041600452602483fd5b6124a981612b27565b905460039190911b1c6001600160a01b031633146124c9576001016123ab565b50506001386123b3565b015190503880610aee565b90600387018a52808a20918a5b601f198516811061253b575092600896949260019261010099979583601f19811610612522575b505050811b016003850155612375565b015160001960f88460031b161c19169055388080612512565b919260206001819286850151815501940192016124eb565b61258090600388018b5260208b20601f850160051c81019160208610610dc057601f0160051c01906131bb565b38612335565b634e487b7160e01b86526011600452602486fd5b639857cbd960e01b8452600484fd5b816125b391612d8b565b61171f5787386121ea565b63bc6072f160e01b8852600488fd5b63bc6072f160e01b8552600485fd5b63bccd404360e01b8352600483fd5b631f89958960e11b8352600483fd5b5061016e821015612150565b63162908e360e11b8352600483fd5b50346101bf57806003193601126101bf576007546040516001600160a01b039091168152602090f35b50346101bf5760203660031901126101bf57600435906008548210156101bf57602061266983612b27565b905460405160039290921b1c6001600160a01b03168152f35b50346101bf57806003193601126101bf576004546040516001600160a01b039091168152602090f35b50346101bf5760203660031901126101bf576004356126c8613457565b600354604051631381549160e21b8152600481018390523360248201529061012090829060449082906001600160a01b03165afa90811561074157839161285b575b50608081015160028110156128475761283857338352600b602052604083208284526020526040832054156000146128165761012c61275b60c08301515b4260e0850151804211611c7557506130fb565b04908115612807579060606127719201516130d2565b60025481116127f857338352600b6020526040832082845260205242604084205560018060a01b0360045416803b1561073957604051637104a76d60e11b8152336004820152602481018390529084908290604490829084905af18015611ce2576127e4575b50610604816002546130fb565b836127f191949294612d8b565b91386127d7565b63bc6072f160e01b8352600483fd5b63ed700a6760e01b8452600484fd5b338352600b6020526040832082845260205261012c61275b6040852054612748565b63e067835f60e01b8352600483fd5b634e487b7160e01b84526021600452602484fd5b90506101203d811161288e575b6128728183612d8b565b8101610120828203126107395761288891613108565b3861270a565b503d612868565b50346101bf57806003193601126101bf5760405180602060085491828152018091600885527ff3f7a9fe364faab93b216da50a3214154f22a0a2b415b23a84c8169e8b636ee390855b81811061293e57505050826128f4910383612d8b565b604051928392602084019060208552518091526040840192915b81811061291c575050500390f35b82516001600160a01b031684528594506020938401939092019160010161290e565b82546001600160a01b03168452602090930192600192830192016128de565b50346101bf5760203660031901126101bf5760043561298760018060a01b03600654163314612f12565b61298f613457565b808252600e60205260408083206003546009820154925163068bcd8d60e01b815260048101939093528490839060249082906001600160a01b03165afa918215611ce2578492612aad575b5060040154908115612a6f5760a0015190670de0b6b3a76400008102908104670de0b6b3a76400000361243a57670de0b6b3a7640000916064612a1e9204906130d2565b04818352600e6020526006604084200155808252600e602052612a586006604084200154828452600e6020526007604085200154906130fb565b908252600e60205260086040832001556001815580f35b60405162461bcd60e51b8152602060048201526016602482015275496e76616c696420636f76657220636170616369747960501b6044820152606490fd5b6004919250612ac5903d8087833e610fc98183612d8b565b91906129da565b90503461065e57604036600319011261065e576020916040906001600160a01b03612af5612b0c565b168152600c84528181206024358252845220548152f35b600435906001600160a01b0382168203612b2257565b600080fd5b600854811015612b4257600860005260206000200190600090565b634e487b7160e01b600052603260045260246000fd5b601054811015612b4257601060005260206000200190600090565b60005b838110612b865750506000910152565b8181015183820152602001612b76565b90602091612baf81518092818552858086019101612b73565b601f01601f1916010190565b906003821015612bc85752565b634e487b7160e01b600052602160045260246000fd5b612c7d9181518152610140612c2b612c0760208501516101606020860152610160850190612b96565b612c1960408601516040860190612bbb565b60608501518482036060860152612b96565b926080810151608084015260a081015160a084015260c081015160c084015260e081015160e0840152610100810151610100840152610120810151610120840152015190610140818403910152612b96565b90565b90600182811c92168015612cb0575b6020831014612c9a57565b634e487b7160e01b600052602260045260246000fd5b91607f1691612c8f565b60009291815491612cca83612c80565b8083529260018116908115612d205750600114612ce657505050565b60009081526020812093945091925b838310612d06575060209250010190565b600181602092949394548385870101520191019190612cf5565b915050602093945060ff929192191683830152151560051b010190565b61012081019081106001600160401b03821117612d5957604052565b634e487b7160e01b600052604160045260246000fd5b61016081019081106001600160401b03821117612d5957604052565b90601f801991011681019081106001600160401b03821117612d5957604052565b9060018060a01b03825116815260208201516020820152612dd560408301516040830190612bbb565b61010080612df460608501516101206060860152610120850190612b96565b936080810151608085015260a081015160a085015260c081015160c085015260e081015160e08501520151151591015290565b6001600160401b038111612d5957601f01601f191660200190565b81601f82011215612b2257803590612e5982612e27565b92612e676040519485612d8b565b82845260208383010111612b2257816000926020809301838601378301015290565b610100600319820112612b2257600435916024356001600160401b038111612b225782612eb891600401612e42565b916044356003811015612b2257916064356001600160401b038111612b225782612ee491600401612e42565b91608435906001600160401b038211612b2257612f0391600401612e42565b9060a4359060c4359060e43590565b15612f1957565b60405162461bcd60e51b815260206004820152600e60248201526d139bdd08185d5d1a1bdc9a5e995960921b6044820152606490fd5b81601f82011215612b22578051612f6581612e27565b92612f736040519485612d8b565b81845260208284010111612b2257612c7d9160208085019101612b73565b51906001600160a01b0382168203612b2257565b602081830312612b22578051906001600160401b038211612b2257016101e081830312612b2257604051916101e083018381106001600160401b03821117612d5957604052815183526020820151906001600160401b038211612b225761300d918301612f4f565b602083015260408101516003811015612b22576040830152606081015160608301526080810151608083015260a081015160a083015260c081015160c083015260e081015160e08301526101008101516101008301526101208101518015158103612b22576101208301526101408101516101408301526101608101516101608301526101808101519060ff82168203612b22576101c0916101808401526130b86101a08201612f91565b6101a084015201516002811015612b22576101c082015290565b818102929181159184041417156130e557565b634e487b7160e01b600052601160045260246000fd5b919082039182116130e557565b919082610120910312612b225760405161312181612d3d565b809261312c81612f91565b825260208101516020830152604081015160408301526060810151606083015260808101516002811015612b2257610100918291608085015260a081015160a085015260c081015160c085015260e081015160e08501520151910152565b919082018092116130e557565b6003821015612bc85752565b906003811015612bc85760ff80198354169116179055565b8181106131c6575050565b600081556001016131bb565b604051906131df82612d6f565b6060610140836000815282602082015260006040820152828082015260006080820152600060a0820152600060c0820152600060e0820152600061010082015260006101208201520152565b60001981146130e55760010190565b6001600160401b038111612d595760051b60200190565b6040519061325e82612d3d565b6000610100838281528260208201528260408201526060808201528260808201528260a08201528260c08201528260e08201520152565b805115612b425760200190565b8051821015612b425760209160051b010190565b602081830312612b22578051906001600160401b038211612b2257019080601f83011215612b22578151916132ea8361323a565b926132f86040519485612d8b565b80845260208085019160051b83010191838311612b225760208101915b83831061332457505050505090565b82516001600160401b038111612b2257820190610160828703601f190112612b22576040519061335382612d6f565b6020830151825260408301516001600160401b038111612b225787602061337c92860101612f4f565b602083015260608301516003811015612b2257604083015260808301516001600160401b038111612b22578760206133b692860101612f4f565b606083015260a0830151608083015260c083015160a083015260e083015160c083015261010083015160e0830152610120830151610100830152610140830151610120830152610160830151916001600160401b038311612b225761342388602080969581960101612f4f565b610140820152815201920191613315565b9291602061344d61345593604087526040870190612b96565b940190612bbb565b565b600260005414613468576002600055565b633ee5aeb560e01b60005260046000fd5b6001546001600160a01b0316330361348d57565b63118cdaa760e01b6000523360045260246000fdfea26469706673582212203fc987554b6726669d87ef1be6b7f14265f1bc16fa41b3fa320fba0c0c38f63964736f6c634300081c0033",
  "linkReferences": {},
  "deployedLinkReferences": {}
}