{
  "_format": "hh-sol-artifact-1",
  "contractName": "InsuranceCover",
  "sourceName": "contracts/InsuranceCover.sol",
  "abi": [
    {
      "inputs": [
        {
          "internalType": "address",
          "name": "_lpContract",
          "type": "address"
        },
        {
          "internalType": "address",
          "name": "_initialOwner",
          "type": "address"
        },
        {
          "internalType": "address",
          "name": "_bqBTC",
          "type": "address"
        }
      ],
      "stateMutability": "nonpayable",
      "type": "constructor"
    },
    {
      "inputs": [],
      "name": "CoverNotAvailable",
      "type": "error"
    },
    {
      "inputs": [],
      "name": "InsufficientPoolBalance",
      "type": "error"
    },
    {
      "inputs": [],
      "name": "InvalidAmount",
      "type": "error"
    },
    {
      "inputs": [],
      "name": "InvalidCoverDuration",
      "type": "error"
    },
    {
      "inputs": [],
      "name": "LpNotActive",
      "type": "error"
    },
    {
      "inputs": [],
      "name": "NameAlreadyExists",
      "type": "error"
    },
    {
      "inputs": [],
      "name": "NoClaimableReward",
      "type": "error"
    },
    {
      "inputs": [
        {
          "internalType": "address",
          "name": "owner",
          "type": "address"
        }
      ],
      "name": "OwnableInvalidOwner",
      "type": "error"
    },
    {
      "inputs": [
        {
          "internalType": "address",
          "name": "account",
          "type": "address"
        }
      ],
      "name": "OwnableUnauthorizedAccount",
      "type": "error"
    },
    {
      "inputs": [],
      "name": "ReentrancyGuardReentrantCall",
      "type": "error"
    },
    {
      "inputs": [],
      "name": "UnsupportedCoverType",
      "type": "error"
    },
    {
      "inputs": [],
      "name": "UserHaveAlreadyPurchasedCover",
      "type": "error"
    },
    {
      "inputs": [],
      "name": "WrongPool",
      "type": "error"
    },
    {
      "anonymous": false,
      "inputs": [
        {
          "indexed": true,
          "internalType": "uint256",
          "name": "coverId",
          "type": "uint256"
        },
        {
          "indexed": false,
          "internalType": "string",
          "name": "name",
          "type": "string"
        },
        {
          "indexed": false,
          "internalType": "enum CoverLib.RiskType",
          "name": "riskType",
          "type": "uint8"
        }
      ],
      "name": "CoverCreated",
      "type": "event"
    },
    {
      "anonymous": false,
      "inputs": [
        {
          "indexed": true,
          "internalType": "address",
          "name": "user",
          "type": "address"
        },
        {
          "indexed": false,
          "internalType": "uint256",
          "name": "coverValue",
          "type": "uint256"
        },
        {
          "indexed": false,
          "internalType": "uint256",
          "name": "coverFee",
          "type": "uint256"
        },
        {
          "indexed": false,
          "internalType": "enum CoverLib.RiskType",
          "name": "riskType",
          "type": "uint8"
        }
      ],
      "name": "CoverPurchased",
      "type": "event"
    },
    {
      "anonymous": false,
      "inputs": [
        {
          "indexed": true,
          "internalType": "uint256",
          "name": "coverId",
          "type": "uint256"
        },
        {
          "indexed": false,
          "internalType": "string",
          "name": "coverName",
          "type": "string"
        },
        {
          "indexed": false,
          "internalType": "enum CoverLib.RiskType",
          "name": "riskType",
          "type": "uint8"
        }
      ],
      "name": "CoverUpdated",
      "type": "event"
    },
    {
      "anonymous": false,
      "inputs": [
        {
          "indexed": true,
          "internalType": "address",
          "name": "previousOwner",
          "type": "address"
        },
        {
          "indexed": true,
          "internalType": "address",
          "name": "newOwner",
          "type": "address"
        }
      ],
      "name": "OwnershipTransferred",
      "type": "event"
    },
    {
      "anonymous": false,
      "inputs": [
        {
          "indexed": true,
          "internalType": "address",
          "name": "user",
          "type": "address"
        },
        {
          "indexed": true,
          "internalType": "uint256",
          "name": "poolId",
          "type": "uint256"
        },
        {
          "indexed": false,
          "internalType": "uint256",
          "name": "amount",
          "type": "uint256"
        }
      ],
      "name": "PayoutClaimed",
      "type": "event"
    },
    {
      "inputs": [
        {
          "internalType": "address",
          "name": "",
          "type": "address"
        },
        {
          "internalType": "uint256",
          "name": "",
          "type": "uint256"
        }
      ],
      "name": "LastVaultClaimTime",
      "outputs": [
        {
          "internalType": "uint256",
          "name": "",
          "type": "uint256"
        }
      ],
      "stateMutability": "view",
      "type": "function"
    },
    {
      "inputs": [
        {
          "internalType": "address",
          "name": "",
          "type": "address"
        },
        {
          "internalType": "uint256",
          "name": "",
          "type": "uint256"
        }
      ],
      "name": "NextLpClaimTime",
      "outputs": [
        {
          "internalType": "uint256",
          "name": "",
          "type": "uint256"
        }
      ],
      "stateMutability": "view",
      "type": "function"
    },
    {
      "inputs": [],
      "name": "bqBTC",
      "outputs": [
        {
          "internalType": "contract IbqBTC",
          "name": "",
          "type": "address"
        }
      ],
      "stateMutability": "view",
      "type": "function"
    },
    {
      "inputs": [],
      "name": "bqBTCAddress",
      "outputs": [
        {
          "internalType": "address",
          "name": "",
          "type": "address"
        }
      ],
      "stateMutability": "view",
      "type": "function"
    },
    {
      "inputs": [
        {
          "internalType": "uint256",
          "name": "_poolId",
          "type": "uint256"
        }
      ],
      "name": "claimPayoutForLP",
      "outputs": [],
      "stateMutability": "nonpayable",
      "type": "function"
    },
    {
      "inputs": [
        {
          "internalType": "uint256",
          "name": "vaultId",
          "type": "uint256"
        }
      ],
      "name": "clamPayoutForVault",
      "outputs": [],
      "stateMutability": "nonpayable",
      "type": "function"
    },
    {
      "inputs": [],
      "name": "coverCount",
      "outputs": [
        {
          "internalType": "uint256",
          "name": "",
          "type": "uint256"
        }
      ],
      "stateMutability": "view",
      "type": "function"
    },
    {
      "inputs": [
        {
          "internalType": "uint256",
          "name": "",
          "type": "uint256"
        }
      ],
      "name": "coverExists",
      "outputs": [
        {
          "internalType": "bool",
          "name": "",
          "type": "bool"
        }
      ],
      "stateMutability": "view",
      "type": "function"
    },
    {
      "inputs": [],
      "name": "coverFeeBalance",
      "outputs": [
        {
          "internalType": "uint256",
          "name": "",
          "type": "uint256"
        }
      ],
      "stateMutability": "view",
      "type": "function"
    },
    {
      "inputs": [
        {
          "internalType": "uint256",
          "name": "",
          "type": "uint256"
        }
      ],
      "name": "coverIds",
      "outputs": [
        {
          "internalType": "uint256",
          "name": "",
          "type": "uint256"
        }
      ],
      "stateMutability": "view",
      "type": "function"
    },
    {
      "inputs": [
        {
          "internalType": "uint256",
          "name": "",
          "type": "uint256"
        }
      ],
      "name": "covers",
      "outputs": [
        {
          "internalType": "uint256",
          "name": "id",
          "type": "uint256"
        },
        {
          "internalType": "string",
          "name": "coverName",
          "type": "string"
        },
        {
          "internalType": "enum CoverLib.RiskType",
          "name": "riskType",
          "type": "uint8"
        },
        {
          "internalType": "string",
          "name": "chains",
          "type": "string"
        },
        {
          "internalType": "uint256",
          "name": "capacity",
          "type": "uint256"
        },
        {
          "internalType": "uint256",
          "name": "cost",
          "type": "uint256"
        },
        {
          "internalType": "uint256",
          "name": "capacityAmount",
          "type": "uint256"
        },
        {
          "internalType": "uint256",
          "name": "coverValues",
          "type": "uint256"
        },
        {
          "internalType": "uint256",
          "name": "maxAmount",
          "type": "uint256"
        },
        {
          "internalType": "uint256",
          "name": "poolId",
          "type": "uint256"
        },
        {
          "internalType": "string",
          "name": "CID",
          "type": "string"
        }
      ],
      "stateMutability": "view",
      "type": "function"
    },
    {
      "inputs": [
        {
          "internalType": "uint256",
          "name": "coverId",
          "type": "uint256"
        },
        {
          "internalType": "string",
          "name": "_cid",
          "type": "string"
        },
        {
          "internalType": "enum CoverLib.RiskType",
          "name": "_riskType",
          "type": "uint8"
        },
        {
          "internalType": "string",
          "name": "_coverName",
          "type": "string"
        },
        {
          "internalType": "string",
          "name": "_chains",
          "type": "string"
        },
        {
          "internalType": "uint256",
          "name": "_capacity",
          "type": "uint256"
        },
        {
          "internalType": "uint256",
          "name": "_cost",
          "type": "uint256"
        },
        {
          "internalType": "uint256",
          "name": "_poolId",
          "type": "uint256"
        }
      ],
      "name": "createCover",
      "outputs": [],
      "stateMutability": "nonpayable",
      "type": "function"
    },
    {
      "inputs": [
        {
          "internalType": "address",
          "name": "_user",
          "type": "address"
        }
      ],
      "name": "deleteExpiredUserCovers",
      "outputs": [],
      "stateMutability": "nonpayable",
      "type": "function"
    },
    {
      "inputs": [],
      "name": "getAllAvailableCovers",
      "outputs": [
        {
          "components": [
            {
              "internalType": "uint256",
              "name": "id",
              "type": "uint256"
            },
            {
              "internalType": "string",
              "name": "coverName",
              "type": "string"
            },
            {
              "internalType": "enum CoverLib.RiskType",
              "name": "riskType",
              "type": "uint8"
            },
            {
              "internalType": "string",
              "name": "chains",
              "type": "string"
            },
            {
              "internalType": "uint256",
              "name": "capacity",
              "type": "uint256"
            },
            {
              "internalType": "uint256",
              "name": "cost",
              "type": "uint256"
            },
            {
              "internalType": "uint256",
              "name": "capacityAmount",
              "type": "uint256"
            },
            {
              "internalType": "uint256",
              "name": "coverValues",
              "type": "uint256"
            },
            {
              "internalType": "uint256",
              "name": "maxAmount",
              "type": "uint256"
            },
            {
              "internalType": "uint256",
              "name": "poolId",
              "type": "uint256"
            },
            {
              "internalType": "string",
              "name": "CID",
              "type": "string"
            }
          ],
          "internalType": "struct CoverLib.Cover[]",
          "name": "",
          "type": "tuple[]"
        }
      ],
      "stateMutability": "view",
      "type": "function"
    },
    {
      "inputs": [],
      "name": "getAllParticipants",
      "outputs": [
        {
          "internalType": "address[]",
          "name": "",
          "type": "address[]"
        }
      ],
      "stateMutability": "view",
      "type": "function"
    },
    {
      "inputs": [
        {
          "internalType": "address",
          "name": "user",
          "type": "address"
        }
      ],
      "name": "getAllUserCovers",
      "outputs": [
        {
          "components": [
            {
              "internalType": "address",
              "name": "user",
              "type": "address"
            },
            {
              "internalType": "uint256",
              "name": "coverId",
              "type": "uint256"
            },
            {
              "internalType": "enum CoverLib.RiskType",
              "name": "riskType",
              "type": "uint8"
            },
            {
              "internalType": "string",
              "name": "coverName",
              "type": "string"
            },
            {
              "internalType": "uint256",
              "name": "coverValue",
              "type": "uint256"
            },
            {
              "internalType": "uint256",
              "name": "claimPaid",
              "type": "uint256"
            },
            {
              "internalType": "uint256",
              "name": "coverPeriod",
              "type": "uint256"
            },
            {
              "internalType": "uint256",
              "name": "endDay",
              "type": "uint256"
            },
            {
              "internalType": "bool",
              "name": "isActive",
              "type": "bool"
            }
          ],
          "internalType": "struct CoverLib.GenericCoverInfo[]",
          "name": "",
          "type": "tuple[]"
        }
      ],
      "stateMutability": "view",
      "type": "function"
    },
    {
      "inputs": [],
      "name": "getCoverFeeBalance",
      "outputs": [
        {
          "internalType": "uint256",
          "name": "",
          "type": "uint256"
        }
      ],
      "stateMutability": "view",
      "type": "function"
    },
    {
      "inputs": [
        {
          "internalType": "uint256",
          "name": "_coverId",
          "type": "uint256"
        }
      ],
      "name": "getCoverInfo",
      "outputs": [
        {
          "components": [
            {
              "internalType": "uint256",
              "name": "id",
              "type": "uint256"
            },
            {
              "internalType": "string",
              "name": "coverName",
              "type": "string"
            },
            {
              "internalType": "enum CoverLib.RiskType",
              "name": "riskType",
              "type": "uint8"
            },
            {
              "internalType": "string",
              "name": "chains",
              "type": "string"
            },
            {
              "internalType": "uint256",
              "name": "capacity",
              "type": "uint256"
            },
            {
              "internalType": "uint256",
              "name": "cost",
              "type": "uint256"
            },
            {
              "internalType": "uint256",
              "name": "capacityAmount",
              "type": "uint256"
            },
            {
              "internalType": "uint256",
              "name": "coverValues",
              "type": "uint256"
            },
            {
              "internalType": "uint256",
              "name": "maxAmount",
              "type": "uint256"
            },
            {
              "internalType": "uint256",
              "name": "poolId",
              "type": "uint256"
            },
            {
              "internalType": "string",
              "name": "CID",
              "type": "string"
            }
          ],
          "internalType": "struct CoverLib.Cover",
          "name": "",
          "type": "tuple"
        }
      ],
      "stateMutability": "view",
      "type": "function"
    },
    {
      "inputs": [
        {
          "internalType": "address",
          "name": "user",
          "type": "address"
        },
        {
          "internalType": "uint256",
          "name": "_poolId",
          "type": "uint256"
        }
      ],
      "name": "getDepositClaimableDays",
      "outputs": [
        {
          "internalType": "uint256",
          "name": "",
          "type": "uint256"
        }
      ],
      "stateMutability": "view",
      "type": "function"
    },
    {
      "inputs": [
        {
          "internalType": "address",
          "name": "user",
          "type": "address"
        },
        {
          "internalType": "uint256",
          "name": "_poolId",
          "type": "uint256"
        }
      ],
      "name": "getLastClaimTime",
      "outputs": [
        {
          "internalType": "uint256",
          "name": "",
          "type": "uint256"
        }
      ],
      "stateMutability": "view",
      "type": "function"
    },
    {
      "inputs": [
        {
          "internalType": "address",
          "name": "user",
          "type": "address"
        },
        {
          "internalType": "uint256",
          "name": "_coverId",
          "type": "uint256"
        }
      ],
      "name": "getUserCoverInfo",
      "outputs": [
        {
          "components": [
            {
              "internalType": "address",
              "name": "user",
              "type": "address"
            },
            {
              "internalType": "uint256",
              "name": "coverId",
              "type": "uint256"
            },
            {
              "internalType": "enum CoverLib.RiskType",
              "name": "riskType",
              "type": "uint8"
            },
            {
              "internalType": "string",
              "name": "coverName",
              "type": "string"
            },
            {
              "internalType": "uint256",
              "name": "coverValue",
              "type": "uint256"
            },
            {
              "internalType": "uint256",
              "name": "claimPaid",
              "type": "uint256"
            },
            {
              "internalType": "uint256",
              "name": "coverPeriod",
              "type": "uint256"
            },
            {
              "internalType": "uint256",
              "name": "endDay",
              "type": "uint256"
            },
            {
              "internalType": "bool",
              "name": "isActive",
              "type": "bool"
            }
          ],
          "internalType": "struct CoverLib.GenericCoverInfo",
          "name": "",
          "type": "tuple"
        }
      ],
      "stateMutability": "view",
      "type": "function"
    },
    {
      "inputs": [
        {
          "internalType": "address",
          "name": "user",
          "type": "address"
        }
      ],
      "name": "getUserParticipation",
      "outputs": [
        {
          "internalType": "uint256",
          "name": "",
          "type": "uint256"
        }
      ],
      "stateMutability": "view",
      "type": "function"
    },
    {
      "inputs": [],
      "name": "governance",
      "outputs": [
        {
          "internalType": "address",
          "name": "",
          "type": "address"
        }
      ],
      "stateMutability": "view",
      "type": "function"
    },
    {
      "inputs": [],
      "name": "lpAddress",
      "outputs": [
        {
          "internalType": "address",
          "name": "",
          "type": "address"
        }
      ],
      "stateMutability": "view",
      "type": "function"
    },
    {
      "inputs": [],
      "name": "lpContract",
      "outputs": [
        {
          "internalType": "contract ILP",
          "name": "",
          "type": "address"
        }
      ],
      "stateMutability": "view",
      "type": "function"
    },
    {
      "inputs": [],
      "name": "owner",
      "outputs": [
        {
          "internalType": "address",
          "name": "",
          "type": "address"
        }
      ],
      "stateMutability": "view",
      "type": "function"
    },
    {
      "inputs": [
        {
          "internalType": "uint256",
          "name": "",
          "type": "uint256"
        }
      ],
      "name": "participants",
      "outputs": [
        {
          "internalType": "address",
          "name": "",
          "type": "address"
        }
      ],
      "stateMutability": "view",
      "type": "function"
    },
    {
      "inputs": [
        {
          "internalType": "address",
          "name": "",
          "type": "address"
        }
      ],
      "name": "participation",
      "outputs": [
        {
          "internalType": "uint256",
          "name": "",
          "type": "uint256"
        }
      ],
      "stateMutability": "view",
      "type": "function"
    },
    {
      "inputs": [
        {
          "internalType": "uint256",
          "name": "_coverId",
          "type": "uint256"
        },
        {
          "internalType": "uint256",
          "name": "_coverValue",
          "type": "uint256"
        },
        {
          "internalType": "uint256",
          "name": "_coverPeriod",
          "type": "uint256"
        },
        {
          "internalType": "uint256",
          "name": "_coverFee",
          "type": "uint256"
        }
      ],
      "name": "purchaseCover",
      "outputs": [],
      "stateMutability": "nonpayable",
      "type": "function"
    },
    {
      "inputs": [],
      "name": "renounceOwnership",
      "outputs": [],
      "stateMutability": "nonpayable",
      "type": "function"
    },
    {
      "inputs": [
        {
          "internalType": "address",
          "name": "newOwner",
          "type": "address"
        }
      ],
      "name": "transferOwnership",
      "outputs": [],
      "stateMutability": "nonpayable",
      "type": "function"
    },
    {
      "inputs": [
        {
          "internalType": "uint256",
          "name": "_coverId",
          "type": "uint256"
        },
        {
          "internalType": "string",
          "name": "_coverName",
          "type": "string"
        },
        {
          "internalType": "enum CoverLib.RiskType",
          "name": "_riskType",
          "type": "uint8"
        },
        {
          "internalType": "string",
          "name": "_cid",
          "type": "string"
        },
        {
          "internalType": "string",
          "name": "_chains",
          "type": "string"
        },
        {
          "internalType": "uint256",
          "name": "_capacity",
          "type": "uint256"
        },
        {
          "internalType": "uint256",
          "name": "_cost",
          "type": "uint256"
        },
        {
          "internalType": "uint256",
          "name": "_poolId",
          "type": "uint256"
        }
      ],
      "name": "updateCover",
      "outputs": [],
      "stateMutability": "nonpayable",
      "type": "function"
    },
    {
      "inputs": [
        {
          "internalType": "uint256",
          "name": "_coverId",
          "type": "uint256"
        }
      ],
      "name": "updateMaxAmount",
      "outputs": [],
      "stateMutability": "nonpayable",
      "type": "function"
    },
    {
      "inputs": [
        {
          "internalType": "address",
          "name": "user",
          "type": "address"
        },
        {
          "internalType": "uint256",
          "name": "_coverId",
          "type": "uint256"
        },
        {
          "internalType": "uint256",
          "name": "_claimPaid",
          "type": "uint256"
        }
      ],
      "name": "updateUserCoverValue",
      "outputs": [],
      "stateMutability": "nonpayable",
      "type": "function"
    },
    {
      "inputs": [
        {
          "internalType": "address",
          "name": "",
          "type": "address"
        },
        {
          "internalType": "uint256",
          "name": "",
          "type": "uint256"
        }
      ],
      "name": "userCovers",
      "outputs": [
        {
          "internalType": "address",
          "name": "user",
          "type": "address"
        },
        {
          "internalType": "uint256",
          "name": "coverId",
          "type": "uint256"
        },
        {
          "internalType": "enum CoverLib.RiskType",
          "name": "riskType",
          "type": "uint8"
        },
        {
          "internalType": "string",
          "name": "coverName",
          "type": "string"
        },
        {
          "internalType": "uint256",
          "name": "coverValue",
          "type": "uint256"
        },
        {
          "internalType": "uint256",
          "name": "claimPaid",
          "type": "uint256"
        },
        {
          "internalType": "uint256",
          "name": "coverPeriod",
          "type": "uint256"
        },
        {
          "internalType": "uint256",
          "name": "endDay",
          "type": "uint256"
        },
        {
          "internalType": "bool",
          "name": "isActive",
          "type": "bool"
        }
      ],
      "stateMutability": "view",
      "type": "function"
    }
  ],
  "bytecode": "0x60803461012857601f61356338819003918201601f19168301916001600160401b0383118484101761012d578084926060946040528339810103126101285761004781610143565b90610060604061005960208401610143565b9201610143565b60016000556001600160a01b0390911691821561011257600180546001600160a01b03198116851790915560405193906001600160a01b03167f8be0079c531659141344cd1fd0a4f28419497f9722a3daafe3b4186f6b6457e0600080a3600380546001600160a01b039283166001600160a01b031991821681179092556006805482169092179091556004805493909216928116831790915560058054909116909117905561340b90816101588239f35b631e4fbdf760e01b600052600060045260246000fd5b600080fd5b634e487b7160e01b600052604160045260246000fd5b51906001600160a01b03821682036101285756fe608080604052600436101561001357600080fd5b600090813560e01c9081630db981a014612ad5575080631052581414611b4b578063106b5da114612965578063195ec9ee1461289d5780632d8a340c146126b357806334808ec31461268a578063357917b71461210657806335c1d3491461264657806346f84795146110155780635aa6e6751461261d578063602710a414612124578063609c76041461210657806362858bfa146120965780636299df6c14611f7f578063649718b214611d52578063715018a614611cf557806373cce3ee14611bbd578063782ea61914611b8e5780637a728e7f14611b4b5780637ceb4a6914611ab35780638acee3cf14611a8a5780638da5cb5b14611a615780638de4d1011461127a57806393b1ad381461104e57806396f3a8ad146110155780639732bdb51461087b578063996b8a6f146108525780639b4dc8cc146108295780639e7b399e1461074c578063a650c232146104ae578063bfc664f314610370578063cadcb47114610285578063f2fde38b146101fc578063fb643583146101c25763feb0b8f5146101a257600080fd5b346101bf57806003193601126101bf576020600f54604051908152f35b80fd5b50346101bf5760203660031901126101bf57600435906010548210156101bf5760206101ed83612b61565b90549060031b1c604051908152f35b50346101bf5760203660031901126101bf57610216612b15565b61021e6133ac565b6001600160a01b0316801561027157600180546001600160a01b0319811683179091556001600160a01b03167f8be0079c531659141344cd1fd0a4f28419497f9722a3daafe3b4186f6b6457e08380a380f35b631e4fbdf760e01b82526004829052602482fd5b50346101bf5760403660031901126101bf57604061036c916102a5612b15565b6102ad613184565b5060018060a01b03168152600d60205281812060243582526020522060ff6008604051926102da84612d46565b80546001600160a01b03168452600181015460208501526002810154610305908416604086016130ca565b604051610320816103198160038601612cc3565b0382612d94565b606085015260048101546080850152600581015460a0850152600681015460c0850152600781015460e08501520154161515610100820152604051918291602083526020830190612db5565b0390f35b50346101bf5760203660031901126101bf5761038a612b15565b61039261338a565b6001600160a01b031660015b6010548110156104a657806103b4600192612b61565b90549060031b1c838552600d6020526040852081865260205260408520600881019081549060ff82169081610498575b506103f3575b5050500161039e565b60ff19169055838552600d60205260408520908552602052836008604082208281558285820155826002820155826003820161042f8154612c89565b80610458575b5050600482015582600582015582600682015582600782015501553880806103ea565b601f8111881461046d5750555b823880610435565b8183526020832061048891601f0160051c81019089016130ee565b8082528160208120915555610465565b6007915001544211386103e4565b826001815580f35b50346101bf5760203660031901126101bf576004356104cb61338a565b600354604051634122bbb360e11b815260048101839052336024820152908390829060449082906001600160a01b03165afa908115610741578391610698575b508290338452600c602052604084208385526020526040842054156000146106765761012c61055c60c061053e846131c8565b5101515b4260e061054e866131c8565b510151421161066257613023565b049380925b82518410156105965761058e60019161058888606061058089896131d5565b510151612ffa565b906130bd565b930192610561565b8490338352600c602052604083208284526020524260408420558260018060a01b0360045416803b1561065e57604051637104a76d60e11b8152336004820152602481018490529082908290604490829084905af180156106535761063a575b505061060481600254613023565b6002556040519081527f0408e6e0b73daf4c873106e95fd067260fbff8bf9d1b499cad563d4480d45bac60203392a36001815580f35b8161064491612d94565b61064f5782846105f6565b8280fd5b6040513d84823e3d90fd5b5080fd5b5060e061066e856131c8565b510151613023565b338452600c6020526040842083855260205261012c61055c6040862054610542565b90503d8084833e6106a98183612d94565b810190602081830312610739578051906001600160401b03821161073d570181601f820112156107395780516106de8161316d565b926106ec6040519485612d94565b818452602061012081860193028401019281841161073557602001915b83831061071a57505050503861050b565b60206101209161072a8486613030565b815201920191610709565b8680fd5b8380fd5b8480fd5b6040513d85823e3d90fd5b50346101bf5760403660031901126101bf576040906001600160a01b03610771612b15565b168152600d60205281812060243582526020522060018060a01b0381541660018201549160ff600282015416604051916107b9836107b28160038501612cc3565b0384612d94565b60048101549260058201546108086006840154926107f560ff6008600788015497015416966040519a8b9a8b5260208b015260408a0190612bc4565b6101206060890152610120880190612b9f565b94608087015260a086015260c085015260e084015215156101008301520390f35b50346101bf57806003193601126101bf576006546040516001600160a01b039091168152602090f35b50346101bf57806003193601126101bf576005546040516001600160a01b039091168152602090f35b50346101bf5761088a36612e92565b61089a98979394969592986133ac565b6003546040516307eb111f60e41b815260048101839052956001600160a01b0390911692908987602481875afa96871561100a578a97610fe6575b5096996020890197908a5b88518110156109665760206108f5828b6131d5565b510151604051610926602082816109158183019687815193849201612b7c565b81010301601f198101835282612d94565b5190208a8c6109476020604051809361091583830196879251928391612b7c565b51902014610957576001016108e0565b633480a50360e21b8c5260048cfd5b508a9850899697508b60405163068bcd8d60e01b81528560048201528a816024818a5afa8015610fdb578b8c928d92610fac575b5060038a1015610f98576003811015610f9857891490811591610f8e575b50610f7f57670de0b6b3a76400008302838104670de0b6b3a76400001484151715610f6b576109f58c926064670de0b6b3a7640000930490612ffa565b0496803b1561065e5781809160446040518094819363a4948d8560e01b83528c60048401528960248401525af1801561065357610f52575b5050610a3a600f5461315e565b600f5560405195610a4a87612d78565b89875260208701948986526040880193610a648a866130ca565b60608901958652608089015260a08801528060c08801528a60e088015261010087015284610120870152610140860152878952600e602052604089209285518455518051906001600160401b038211610f3e57610ac46001860154612c89565b601f8111610f0b575b50602090601f8311600114610ea257610afe92918c9183610e97575b50508160011b916000199060031b1c19161790565b60018401555b516003811015610e8357610b1b90600284016130d6565b518051906001600160401b038211610dc557610b3a6003840154612c89565b601f8111610e50575b50602090601f8311600114610de4579180610b7792600a95948c92610dd95750508160011b916000199060031b1c19161790565b60038201555b6080840151600482015560a0840151600582015560c0840151600682015560e0840151600782015561010084015160088201556101208401516009820155016101408301518051906001600160401b038211610dc557610bdd8354612c89565b601f8111610d8a575b50602090601f8311600114610d2757610c1692918a9183610d1c5750508160011b916000199060031b1c19161790565b90555b601054600160401b811015610d085790610c3b82600189959401601055612b61565b8154600391821b89811b60001990911b1990911617909155546001600160a01b031691823b1561073957610c95928492836040518096819582946331eaa61d60e21b84526004840152604060248401526044830190612be7565b03925af1801561065357610cf3575b5091837f5928d65cc6ae9f07a7673f1a5a2f98d81f1bb0c2bc53bcaa33d6f11cf426f25e9352600a60205260408520600160ff19825416179055610ced60405192839283613367565b0390a280f35b81610cfd91612d94565b610739578385610ca4565b634e487b7160e01b87526041600452602487fd5b015190508a80610ae9565b838a52818a209190601f1984168b5b818110610d725750908460019594939210610d59575b505050811b019055610c19565b015160001960f88460031b161c19169055898080610d4c565b92936020600181928786015181550195019301610d36565b610db590848b5260208b20601f850160051c81019160208610610dbb575b601f0160051c01906130ee565b89610be6565b9091508190610da8565b634e487b7160e01b89526041600452602489fd5b015190508b80610ae9565b600384018a52818a209190601f1984168b5b818110610e385750916001939185600a97969410610e1f575b505050811b016003820155610b7d565b015160001960f88460031b161c191690558a8080610e0f565b92936020600181928786015181550195019301610df6565b610e7d90600385018b5260208b20601f850160051c81019160208610610dbb57601f0160051c01906130ee565b89610b43565b634e487b7160e01b89526021600452602489fd5b015190508c80610ae9565b600186018c52818c209190601f1984168d5b818110610ef35750908460019594939210610eda575b505050811b016001840155610b04565b015160001960f88460031b161c191690558b8080610eca565b92936020600181928786015181550195019301610eb4565b610f3890600187018d5260208d20601f850160051c81019160208610610dbb57601f0160051c01906130ee565b8b610acd565b634e487b7160e01b8b52604160045260248bfd5b81610f5c91612d94565b610f6757898b610a2d565b8980fd5b634e487b7160e01b8c52601160045260248cfd5b6369e489f560e11b8b5260048bfd5b905083118c6109b8565b634e487b7160e01b8d52602160045260248dfd5b915050610fcb91503d808d833e610fc38183612d94565b810190612f9a565b955050929150509091908d61099a565b6040513d8d823e3d90fd5b6110039197503d808c833e610ffb8183612d94565b8101906131e9565b95386108d5565b6040513d8c823e3d90fd5b50346101bf5760203660031901126101bf576020906040906001600160a01b0361103d612b15565b168152600983522054604051908152f35b50346101bf57806003193601126101bf578081601054905b81811061123a57506110778261316d565b916110856040519384612d94565b808352611094601f199161316d565b01835b81811061122357505082835b8281106111115783856040519182916020830160208452825180915260408401602060408360051b870101940192905b8282106110e257505050500390f35b919360019193955060206111018192603f198a82030186528851612be7565b96019201920185949391926110d3565b61111a81612b61565b90549060031b1c808652600a60205260ff60408720541661113f575b506001016110a3565b6001919261121c918752600e60205260408720600a6111fb6040519261116484612d78565b8054845260405161117b81610319818b8601612cc3565b602085015261119460ff600283015416604086016130ca565b6040516111a8816103198160038601612cc3565b606085015260048101546080850152600581015460a0850152600681015460c0850152600781015460e0850152600881015461010085015260098101546101208501526103196040518094819301612cc3565b61014082015261120b82886131d5565b5261121681876131d5565b5061315e565b9190611136565b60209061122e613105565b82828701015201611097565b61124381612b61565b90549060031b1c8452600a60205260ff604085205416611266575b600101611066565b9161127260019161315e565b92905061125e565b50346101bf57602461128b36612e92565b61129e99979695929998919493986133ac565b60018060a01b036003541699888b6040519485809263068bcd8d60e01b82528660048301525afa8015611a5657898a948b92611a2d575b506003861015611a19576003811015611a1957851490811591611a0f575b50611a0057878952600e6020526040892092670de0b6b3a76400008202828104670de0b6b3a764000014831517156119ec57670de0b6b3a764000091606461133c920490612ffa565b0490816007850154116119dd578960249a9b9c6040519b8c80926307eb111f60e41b82528760048301525afa998a15610fdb578b9a6119c1575b50959a6020880196908b5b8b5181101561141b578b8b828c8c602061139b84876131d5565b5101516040516113bb602082816109158183019687815193849201612b7c565b519020916113db6020604051809361091583830196879251928391612b7c565b519020149283611404575b5050506113f557600101611381565b633480a50360e21b8d5260048dfd5b61140f9293506131d5565b515114158b828e6113e6565b508b98969997508c60048601549188516001600160401b038111611905578b61144760018a0154612c89565b601f811161198e575b505060208c601f83116001146119245761147f929182611919575b508160011b916000199060031b1c19161790565b60018801555b80516001600160401b038111611905578b6114a360038a0154612c89565b601f81116118d2575b50506020918c601f8311600114611864576114dd939091836118595750508160011b916000199060031b1c19161790565b60038701555b826004870155600586015589516001600160401b0381116118455761150b600a870154612c89565b601f8111611812575b506020601f82116001146117a1579080611549928c9d8d9a9b9c9d926117965750508160011b916000199060031b1c19161790565b600a8601555b600685019183835561156d6009870194868655600788015490613023565b600887019081559181811115611722579061158791613023565b6003546001600160a01b031690813b1561171e578791604483926040519485938492639fd36b1560e01b84528b600485015260248401525af19081156117135787916116fa575b50505b6003546001600160a01b031691823b156107355786946116a38692600a604051998a9889978896630a14764d60e41b885260048801526040602488015282546044880152610160606488015261165b6116316101a4890160018601612cc3565b61164660ff60028701541660848b0190612bc4565b8881036043190160a48a015260038501612cc3565b600484015460c4890152600584015460e48901529454610104880152600783015461012488015254610144870152546101648601528483036043190161018486015201612cc3565b03925af18015610653576116e5575b50507f758a67328ba53c1867c0272bbd2ca10d6fe71d37120188c523fe7ae7bdbbe46991610ced60405192839283613367565b816116ef91612d94565b6107395783856116b2565b8161170491612d94565b61170f57858b6115ce565b8580fd5b6040513d89823e3d90fd5b8780fd5b818110611731575b50506115d1565b61173a91613023565b6003546001600160a01b031690813b1561171e57879160448392604051948593849263a4948d8560e01b84528b600485015260248401525af19081156117135787911561172a578161178b91612d94565b61170f57858b61172a565b015190508d80610ae9565b600a87018b52808b209b8b5b601f19841681106117fa57509b82918c9d600194601f9e9b9c9d9e198116106117e1575b505050811b01600a86015561154f565b015160001960f88460031b161c191690558c80806117d1565b828201518e556001909d019c602092830192016117ad565b61183f90600a88018c5260208c20601f840160051c81019160208510610dbb57601f0160051c01906130ee565b8b611514565b634e487b7160e01b8a52604160045260248afd5b015190508e80610ae9565b5091600389018d52808d20908d935b601f19841685106118b7576001945083601f1981161061189e575b505050811b0160038701556114e3565b015160001960f88460031b161c191690558d808061188e565b81810151835560209485019460019093019290910190611873565b60206118fe9260038c01815220601f840160051c81019160208510610dbb57601f0160051c01906130ee565b8b8e6114ac565b634e487b7160e01b8c52604160045260248cfd5b90508b01518f61146b565b5090600189018d52818d208d925b8c601f198416851061197757506001935082601f1981161061195e575b5050811b016001880155611485565b8c015160001960f88460031b161c191690558e8061194f565b810151825560209384019360019092019101611932565b60206119ba9260018c01815220601f840160051c81019160208510610dbb57601f0160051c01906130ee565b8b8e611450565b6119d6919a503d808d833e610ffb8183612d94565b9838611376565b6369e489f560e11b8a5260048afd5b634e487b7160e01b8b52601160045260248bfd5b6369e489f560e11b8952600489fd5b90508111386112f3565b634e487b7160e01b8b52602160045260248bfd5b915050611a459193503d808b833e610fc38183612d94565b9795505092915050909390386112d5565b6040513d8b823e3d90fd5b50346101bf57806003193601126101bf576001546040516001600160a01b039091168152602090f35b50346101bf57806003193601126101bf576003546040516001600160a01b039091168152602090f35b50346101bf5760603660031901126101bf57611acd612b15565b60243560443591611ae960018060a01b03600754163314612f1b565b611af161338a565b60018060a01b0316808452600d6020526040842082855260205260046040852001611b1d848254613023565b90558352600d60205260408320908352602052611b42600560408420019182546130bd565b90556001815580f35b50346101bf5760403660031901126101bf576020906040906001600160a01b03611b73612b15565b168152600b8352818120602435825283522054604051908152f35b50346101bf5760203660031901126101bf5760ff60406020926004358152600a84522054166040519015158152f35b50346101bf5760403660031901126101bf57611bd7612b15565b600354604051631381549160e21b815260248035600483018190526001600160a01b0385811692840192909252919391926101209185916044918391165afa928315611cea578493611c9e575b506001600160a01b0316808452600b602090815260408086208487528252852054909461012c94611c7494909392611c855750505060c0810151905b60e042910151804211611c7d575b50613023565b04604051908152f35b905038611c6e565b6040928252600b87528282209082528652205490611c60565b9092506101203d8111611ce3575b611cb68183612d94565b8101906101208183031261073d5791602094611cd961012c9593611c7495613030565b9450945091611c24565b503d611cac565b6040513d86823e3d90fd5b50346101bf57806003193601126101bf57611d0e6133ac565b600180546001600160a01b0319811690915581906001600160a01b03167f8be0079c531659141344cd1fd0a4f28419497f9722a3daafe3b4186f6b6457e08280a380f35b50346101bf5760203660031901126101bf57611d6c612b15565b60105482916001600160a01b0316825b828110611f345750611d8d8361316d565b92611d9b6040519485612d94565b808452611daa601f199161316d565b01845b818110611f1d57505083845b838110611e275784866040519182916020830160208452825180915260408401602060408360051b870101940192905b828210611df857505050500390f35b91936001919395506020611e178192603f198a82030186528851612db5565b9601920192018594939192611de9565b611e3081612b61565b90549060031b1c838752600d602052604087208188526020526004604088200154611e5f575b50600101611db9565b60019192611f1691858952600d602052604089209089526020526040882060ff600860405192611e8e84612d46565b868060a01b038154168452868101546020850152611eb583600283015416604086016130ca565b604051611ec9816103198160038601612cc3565b606085015260048101546080850152600581015460a0850152600681015460c0850152600781015460e08501520154161515610100820152611f0b82896131d5565b5261121681886131d5565b9190611e56565b602090611f28613184565b82828801015201611dad565b611f3d81612b61565b90549060031b1c828652600d602052604086209086526020526004604086200154611f6b575b600101611d7c565b92611f7760019161315e565b939050611f63565b50346101bf5760203660031901126101bf576004358152600e6020526040902080546040519182806001830190611fb591612cc3565b03611fc09084612d94565b60028101546040519060ff1681611fda8160038601612cc3565b03611fe59083612d94565b6004830154916005840154600685015460078601549160088701549360098801549560405180600a819b019061201a91612cc3565b03612025908a612d94565b6040519a8b9a8b5260208b0161016090526101608b0161204491612b9f565b9060408b0161205291612bc4565b89810360608b015261206391612b9f565b95608089015260a088015260c087015260e086015261010085015261012084015282810361014084015261036c91612b9f565b50346101bf5760203660031901126101bf57604061036c916120b6613105565b506004358152600e60205220600a6120ec604051926120d484612d78565b8054845260405161117b816103198160018601612cc3565b610140820152604051918291602083526020830190612be7565b50346101bf57806003193601126101bf576020600254604051908152f35b50346101bf5760803660031901126101bf5760443560043561214461338a565b6064351561260e57601b8211801590612602575b6125f357808352600a60205260ff604084205416156125e457808352600e6020526040832091600883018054602435116125d5576007840161219d60243582546130bd565b60068601805482116125c65760045488906001600160a01b0316803b1561065e57604051632770a7eb60e21b815233600482015260643560248201529082908290604490829084905af18015610653576125b1575b505081612205935554611c6e8282613023565b9055338452600d602052604084208285526020526004604085200154156000146125a25760ff6002840154169062015180810281810462015180148215171561258e5761225290426130bd565b6040519361225f85612d46565b33855260208501938185526122786040870191826130ca565b604051906122948261228d8160018c01612cc3565b0383612d94565b606087019182526080870192602435845260a08801948a865260c0890196875260e08901526001610100890152338a52600d60205260408a20908a52602052604089209560018060a01b038851166bffffffffffffffffffffffff60a01b885416178755516001870155516003811015610e835761231590600287016130d6565b518051906001600160401b038211610dc5576123346003870154612c89565b601f811161255b575b50602090601f83116001146124e657826101009795936008979593612377938d926124db5750508160011b916000199060031b1c19161790565b60038501555b51600484015551600583015551600682015560e0840151600782015501910151151560ff80198354169116179055818290600854915b8281106124a8575b5015612456575b5033825260096020526040822080549060018201809211612442579160029160ff93556123f260643583546130bd565b825501541661241560405191602435835260643560208401526040830190612bc4565b7f23b0f39e0762759ffb18632a1a2b79c9eb58571454e5f7c36e0a2f81759e0a3460603392a26001815580f35b634e487b7160e01b84526011600452602484fd5b600160401b811015612494578060016124729201600855612b30565b81546001600160a01b0360039290921b91821b19163390911b179055386123c2565b634e487b7160e01b83526041600452602483fd5b6124b181612b30565b905460039190911b1c6001600160a01b031633146124d1576001016123b3565b50506001386123bb565b015190503880610ae9565b90600387018a52808a20918a5b601f1985168110612543575092600896949260019261010099979583601f1981161061252a575b505050811b01600385015561237d565b015160001960f88460031b161c1916905538808061251a565b919260206001819286850151815501940192016124f3565b61258890600388018b5260208b20601f850160051c81019160208610610dbb57601f0160051c01906130ee565b3861233d565b634e487b7160e01b86526011600452602486fd5b639857cbd960e01b8452600484fd5b816125bb91612d94565b61171e5787386121f2565b63bc6072f160e01b8852600488fd5b63bc6072f160e01b8552600485fd5b63bccd404360e01b8352600483fd5b631f89958960e11b8352600483fd5b5061016e821015612158565b63162908e360e11b8352600483fd5b50346101bf57806003193601126101bf576007546040516001600160a01b039091168152602090f35b50346101bf5760203660031901126101bf57600435906008548210156101bf57602061267183612b30565b905460405160039290921b1c6001600160a01b03168152f35b50346101bf57806003193601126101bf576004546040516001600160a01b039091168152602090f35b50346101bf5760203660031901126101bf576004356126d061338a565b600354604051631381549160e21b8152600481018390523360248201529061012090829060449082906001600160a01b03165afa908115610741578391612863575b506080810151600281101561284f5761284057338352600b6020526040832082845260205260408320541560001461281e5761012c61276360c08301515b4260e0850151804211611c7d5750613023565b0490811561280f57906060612779920151612ffa565b600254811161280057338352600b6020526040832082845260205242604084205560018060a01b0360045416803b1561073957604051637104a76d60e11b8152336004820152602481018390529084908290604490829084905af18015611cea576127ec575b5061060481600254613023565b836127f991949294612d94565b91386127df565b63bc6072f160e01b8352600483fd5b63ed700a6760e01b8452600484fd5b338352600b6020526040832082845260205261012c6127636040852054612750565b63e067835f60e01b8352600483fd5b634e487b7160e01b84526021600452602484fd5b90506101203d8111612896575b61287a8183612d94565b8101610120828203126107395761289091613030565b38612712565b503d612870565b50346101bf57806003193601126101bf5760405180602060085491828152018091600885527ff3f7a9fe364faab93b216da50a3214154f22a0a2b415b23a84c8169e8b636ee390855b81811061294657505050826128fc910383612d94565b604051928392602084019060208552518091526040840192915b818110612924575050500390f35b82516001600160a01b0316845285945060209384019390920191600101612916565b82546001600160a01b03168452602090930192600192830192016128e6565b50346101bf5760203660031901126101bf5760043561298f60018060a01b03600654163314612f1b565b61299761338a565b808252600e60205260408083206003546009820154925163068bcd8d60e01b815260048101939093528490839060249082906001600160a01b03165afa918215611cea578492612aaf575b50600401548015612a7157670de0b6b3a76400008102908104670de0b6b3a76400000361244257670de0b6b3a7640000916064612a20920490612ffa565b04818352600e6020526006604084200155808252600e602052612a5a6006604084200154828452600e602052600760408520015490613023565b908252600e60205260086040832001556001815580f35b60405162461bcd60e51b8152602060048201526016602482015275496e76616c696420636f76657220636170616369747960501b6044820152606490fd5b6004919250612ac7903d8087833e610fc38183612d94565b5050935050505091906129e2565b90503461065e57604036600319011261065e576020916040906001600160a01b03612afe612b15565b168152600c84528181206024358252845220548152f35b600435906001600160a01b0382168203612b2b57565b600080fd5b600854811015612b4b57600860005260206000200190600090565b634e487b7160e01b600052603260045260246000fd5b601054811015612b4b57601060005260206000200190600090565b60005b838110612b8f5750506000910152565b8181015183820152602001612b7f565b90602091612bb881518092818552858086019101612b7c565b601f01601f1916010190565b906003821015612bd15752565b634e487b7160e01b600052602160045260246000fd5b612c869181518152610140612c34612c1060208501516101606020860152610160850190612b9f565b612c2260408601516040860190612bc4565b60608501518482036060860152612b9f565b926080810151608084015260a081015160a084015260c081015160c084015260e081015160e0840152610100810151610100840152610120810151610120840152015190610140818403910152612b9f565b90565b90600182811c92168015612cb9575b6020831014612ca357565b634e487b7160e01b600052602260045260246000fd5b91607f1691612c98565b60009291815491612cd383612c89565b8083529260018116908115612d295750600114612cef57505050565b60009081526020812093945091925b838310612d0f575060209250010190565b600181602092949394548385870101520191019190612cfe565b915050602093945060ff929192191683830152151560051b010190565b61012081019081106001600160401b03821117612d6257604052565b634e487b7160e01b600052604160045260246000fd5b61016081019081106001600160401b03821117612d6257604052565b90601f801991011681019081106001600160401b03821117612d6257604052565b9060018060a01b03825116815260208201516020820152612dde60408301516040830190612bc4565b61010080612dfd60608501516101206060860152610120850190612b9f565b936080810151608085015260a081015160a085015260c081015160c085015260e081015160e08501520151151591015290565b6001600160401b038111612d6257601f01601f191660200190565b81601f82011215612b2b57803590612e6282612e30565b92612e706040519485612d94565b82845260208383010111612b2b57816000926020809301838601378301015290565b610100600319820112612b2b57600435916024356001600160401b038111612b2b5782612ec191600401612e4b565b916044356003811015612b2b57916064356001600160401b038111612b2b5782612eed91600401612e4b565b91608435906001600160401b038211612b2b57612f0c91600401612e4b565b9060a4359060c4359060e43590565b15612f2257565b60405162461bcd60e51b815260206004820152600e60248201526d139bdd08185d5d1a1bdc9a5e995960921b6044820152606490fd5b81601f82011215612b2b578051612f6e81612e30565b92612f7c6040519485612d94565b81845260208284010111612b2b57612c869160208085019101612b7c565b9060e082820312612b2b578151906001600160401b038211612b2b57612fc1918301612f58565b9160208201516003811015612b2b579160408101519160608201519160808101519160a08201518015158103612b2b5760c09092015190565b8181029291811591840414171561300d57565b634e487b7160e01b600052601160045260246000fd5b9190820391821161300d57565b919082610120910312612b2b5760405161304981612d46565b8251909283916001600160a01b0381168103612b2b57825260208101516020830152604081015160408301526060810151606083015260808101516002811015612b2b57610100918291608085015260a081015160a085015260c081015160c085015260e081015160e08501520151910152565b9190820180921161300d57565b6003821015612bd15752565b906003811015612bd15760ff80198354169116179055565b8181106130f9575050565b600081556001016130ee565b6040519061311282612d78565b6060610140836000815282602082015260006040820152828082015260006080820152600060a0820152600060c0820152600060e0820152600061010082015260006101208201520152565b600019811461300d5760010190565b6001600160401b038111612d625760051b60200190565b6040519061319182612d46565b6000610100838281528260208201528260408201526060808201528260808201528260a08201528260c08201528260e08201520152565b805115612b4b5760200190565b8051821015612b4b5760209160051b010190565b602081830312612b2b578051906001600160401b038211612b2b57019080601f83011215612b2b5781519161321d8361316d565b9261322b6040519485612d94565b80845260208085019160051b83010191838311612b2b5760208101915b83831061325757505050505090565b82516001600160401b038111612b2b57820190610160828703601f190112612b2b576040519061328682612d78565b6020830151825260408301516001600160401b038111612b2b578760206132af92860101612f58565b602083015260608301516003811015612b2b57604083015260808301516001600160401b038111612b2b578760206132e992860101612f58565b606083015260a0830151608083015260c083015160a083015260e083015160c083015261010083015160e0830152610120830151610100830152610140830151610120830152610160830151916001600160401b038311612b2b5761335688602080969581960101612f58565b610140820152815201920191613248565b9291602061338061338893604087526040870190612b9f565b940190612bc4565b565b60026000541461339b576002600055565b633ee5aeb560e01b60005260046000fd5b6001546001600160a01b031633036133c057565b63118cdaa760e01b6000523360045260246000fdfea26469706673582212204ba5e90a864aabc595a70d8cf2a28fb80900b274520893b96dfc36222a6fcbc464736f6c634300081b0033",
  "linkReferences": {},
  "deployedLinkReferences": {}
}