{
  "_format": "hh-sol-artifact-1",
  "contractName": "Vaults",
  "sourceName": "contracts/Vaults.sol",
  "abi": [
    {
      "inputs": [
        {
          "internalType": "address",
          "name": "_initialOwner",
          "type": "address"
        }
      ],
      "stateMutability": "nonpayable",
      "type": "constructor"
    },
    {
      "inputs": [
        {
          "internalType": "address",
          "name": "owner",
          "type": "address"
        }
      ],
      "name": "OwnableInvalidOwner",
      "type": "error"
    },
    {
      "inputs": [
        {
          "internalType": "address",
          "name": "account",
          "type": "address"
        }
      ],
      "name": "OwnableUnauthorizedAccount",
      "type": "error"
    },
    {
      "inputs": [],
      "name": "ReentrancyGuardReentrantCall",
      "type": "error"
    },
    {
      "anonymous": false,
      "inputs": [
        {
          "indexed": false,
          "internalType": "uint256",
          "name": "",
          "type": "uint256"
        },
        {
          "indexed": false,
          "internalType": "uint256",
          "name": "",
          "type": "uint256"
        },
        {
          "indexed": false,
          "internalType": "address",
          "name": "",
          "type": "address"
        }
      ],
      "name": "ClaimAttempt",
      "type": "event"
    },
    {
      "anonymous": false,
      "inputs": [
        {
          "indexed": true,
          "internalType": "address",
          "name": "recipient",
          "type": "address"
        },
        {
          "indexed": false,
          "internalType": "string",
          "name": "pool",
          "type": "string"
        },
        {
          "indexed": false,
          "internalType": "uint256",
          "name": "amount",
          "type": "uint256"
        }
      ],
      "name": "ClaimPaid",
      "type": "event"
    },
    {
      "anonymous": false,
      "inputs": [
        {
          "indexed": true,
          "internalType": "address",
          "name": "user",
          "type": "address"
        },
        {
          "indexed": false,
          "internalType": "uint256",
          "name": "amount",
          "type": "uint256"
        },
        {
          "indexed": false,
          "internalType": "string",
          "name": "pool",
          "type": "string"
        }
      ],
      "name": "Deposited",
      "type": "event"
    },
    {
      "anonymous": false,
      "inputs": [
        {
          "indexed": true,
          "internalType": "address",
          "name": "previousOwner",
          "type": "address"
        },
        {
          "indexed": true,
          "internalType": "address",
          "name": "newOwner",
          "type": "address"
        }
      ],
      "name": "OwnershipTransferred",
      "type": "event"
    },
    {
      "anonymous": false,
      "inputs": [
        {
          "indexed": true,
          "internalType": "uint256",
          "name": "id",
          "type": "uint256"
        },
        {
          "indexed": false,
          "internalType": "string",
          "name": "poolName",
          "type": "string"
        }
      ],
      "name": "PoolCreated",
      "type": "event"
    },
    {
      "anonymous": false,
      "inputs": [
        {
          "indexed": true,
          "internalType": "uint256",
          "name": "poolId",
          "type": "uint256"
        },
        {
          "indexed": false,
          "internalType": "uint256",
          "name": "apy",
          "type": "uint256"
        },
        {
          "indexed": false,
          "internalType": "uint256",
          "name": "_minPeriod",
          "type": "uint256"
        }
      ],
      "name": "PoolUpdated",
      "type": "event"
    },
    {
      "anonymous": false,
      "inputs": [
        {
          "indexed": true,
          "internalType": "address",
          "name": "user",
          "type": "address"
        },
        {
          "indexed": false,
          "internalType": "uint256",
          "name": "amount",
          "type": "uint256"
        },
        {
          "indexed": false,
          "internalType": "string",
          "name": "pool",
          "type": "string"
        }
      ],
      "name": "Withdraw",
      "type": "event"
    },
    {
      "inputs": [],
      "name": "ICoverContract",
      "outputs": [
        {
          "internalType": "contract ICover",
          "name": "",
          "type": "address"
        }
      ],
      "stateMutability": "view",
      "type": "function"
    },
    {
      "inputs": [],
      "name": "IGovernanceContract",
      "outputs": [
        {
          "internalType": "contract IGov",
          "name": "",
          "type": "address"
        }
      ],
      "stateMutability": "view",
      "type": "function"
    },
    {
      "inputs": [],
      "name": "IPoolContract",
      "outputs": [
        {
          "internalType": "contract IPool",
          "name": "",
          "type": "address"
        }
      ],
      "stateMutability": "view",
      "type": "function"
    },
    {
      "inputs": [],
      "name": "bqBTC",
      "outputs": [
        {
          "internalType": "contract IbqBTC",
          "name": "",
          "type": "address"
        }
      ],
      "stateMutability": "view",
      "type": "function"
    },
    {
      "inputs": [],
      "name": "bqBTCAddress",
      "outputs": [
        {
          "internalType": "address",
          "name": "",
          "type": "address"
        }
      ],
      "stateMutability": "view",
      "type": "function"
    },
    {
      "inputs": [],
      "name": "coverContract",
      "outputs": [
        {
          "internalType": "address",
          "name": "",
          "type": "address"
        }
      ],
      "stateMutability": "view",
      "type": "function"
    },
    {
      "inputs": [
        {
          "internalType": "string",
          "name": "_vaultName",
          "type": "string"
        },
        {
          "internalType": "uint256[]",
          "name": "_poolIds",
          "type": "uint256[]"
        },
        {
          "internalType": "uint256[]",
          "name": "poolPercentageSplit",
          "type": "uint256[]"
        },
        {
          "internalType": "uint256",
          "name": "_minInv",
          "type": "uint256"
        },
        {
          "internalType": "uint256",
          "name": "_maxInv",
          "type": "uint256"
        },
        {
          "internalType": "uint256",
          "name": "_minPeriod",
          "type": "uint256"
        },
        {
          "internalType": "enum CoverLib.AssetDepositType",
          "name": "adt",
          "type": "uint8"
        },
        {
          "internalType": "address",
          "name": "asset",
          "type": "address"
        }
      ],
      "name": "createVault",
      "outputs": [],
      "stateMutability": "nonpayable",
      "type": "function"
    },
    {
      "inputs": [
        {
          "internalType": "uint256",
          "name": "vaultId",
          "type": "uint256"
        },
        {
          "internalType": "address",
          "name": "user",
          "type": "address"
        }
      ],
      "name": "getUserVaultDeposit",
      "outputs": [
        {
          "components": [
            {
              "internalType": "address",
              "name": "lp",
              "type": "address"
            },
            {
              "internalType": "uint256",
              "name": "amount",
              "type": "uint256"
            },
            {
              "internalType": "uint256",
              "name": "vaultId",
              "type": "uint256"
            },
            {
              "internalType": "uint256",
              "name": "dailyPayout",
              "type": "uint256"
            },
            {
              "internalType": "enum CoverLib.Status",
              "name": "status",
              "type": "uint8"
            },
            {
              "internalType": "uint256",
              "name": "daysLeft",
              "type": "uint256"
            },
            {
              "internalType": "uint256",
              "name": "startDate",
              "type": "uint256"
            },
            {
              "internalType": "uint256",
              "name": "expiryDate",
              "type": "uint256"
            },
            {
              "internalType": "uint256",
              "name": "accruedPayout",
              "type": "uint256"
            }
          ],
          "internalType": "struct Vaults.VaultDeposit",
          "name": "",
          "type": "tuple"
        }
      ],
      "stateMutability": "view",
      "type": "function"
    },
    {
      "inputs": [
        {
          "internalType": "uint256",
          "name": "vaultId",
          "type": "uint256"
        },
        {
          "internalType": "address",
          "name": "user",
          "type": "address"
        }
      ],
      "name": "getUserVaultPoolDeposits",
      "outputs": [
        {
          "components": [
            {
              "internalType": "address",
              "name": "lp",
              "type": "address"
            },
            {
              "internalType": "uint256",
              "name": "amount",
              "type": "uint256"
            },
            {
              "internalType": "uint256",
              "name": "poolId",
              "type": "uint256"
            },
            {
              "internalType": "uint256",
              "name": "dailyPayout",
              "type": "uint256"
            },
            {
              "internalType": "enum CoverLib.Status",
              "name": "status",
              "type": "uint8"
            },
            {
              "internalType": "uint256",
              "name": "daysLeft",
              "type": "uint256"
            },
            {
              "internalType": "uint256",
              "name": "startDate",
              "type": "uint256"
            },
            {
              "internalType": "uint256",
              "name": "expiryDate",
              "type": "uint256"
            },
            {
              "internalType": "uint256",
              "name": "accruedPayout",
              "type": "uint256"
            }
          ],
          "internalType": "struct Vaults.Deposits[]",
          "name": "",
          "type": "tuple[]"
        }
      ],
      "stateMutability": "view",
      "type": "function"
    },
    {
      "inputs": [
        {
          "internalType": "uint256",
          "name": "vaultId",
          "type": "uint256"
        }
      ],
      "name": "getVault",
      "outputs": [
        {
          "components": [
            {
              "internalType": "uint256",
              "name": "id",
              "type": "uint256"
            },
            {
              "internalType": "string",
              "name": "vaultName",
              "type": "string"
            },
            {
              "components": [
                {
                  "internalType": "uint256",
                  "name": "id",
                  "type": "uint256"
                },
                {
                  "internalType": "string",
                  "name": "poolName",
                  "type": "string"
                },
                {
                  "internalType": "enum CoverLib.RiskType",
                  "name": "riskType",
                  "type": "uint8"
                },
                {
                  "internalType": "uint256",
                  "name": "apy",
                  "type": "uint256"
                },
                {
                  "internalType": "uint256",
                  "name": "minPeriod",
                  "type": "uint256"
                },
                {
                  "internalType": "uint256",
                  "name": "tvl",
                  "type": "uint256"
                },
                {
                  "internalType": "uint256",
                  "name": "baseValue",
                  "type": "uint256"
                },
                {
                  "internalType": "uint256",
                  "name": "coverTvl",
                  "type": "uint256"
                },
                {
                  "internalType": "uint256",
                  "name": "tcp",
                  "type": "uint256"
                },
                {
                  "internalType": "bool",
                  "name": "isActive",
                  "type": "bool"
                },
                {
                  "internalType": "uint256",
                  "name": "percentageSplitBalance",
                  "type": "uint256"
                },
                {
                  "internalType": "uint256",
                  "name": "investmentArmPercent",
                  "type": "uint256"
                },
                {
                  "internalType": "uint8",
                  "name": "leverage",
                  "type": "uint8"
                },
                {
                  "internalType": "address",
                  "name": "asset",
                  "type": "address"
                },
                {
                  "internalType": "enum CoverLib.AssetDepositType",
                  "name": "assetType",
                  "type": "uint8"
                }
              ],
              "internalType": "struct CoverLib.Pool[]",
              "name": "pools",
              "type": "tuple[]"
            },
            {
              "internalType": "uint256",
              "name": "minInv",
              "type": "uint256"
            },
            {
              "internalType": "uint256",
              "name": "maxInv",
              "type": "uint256"
            },
            {
              "internalType": "uint256",
              "name": "minPeriod",
              "type": "uint256"
            },
            {
              "internalType": "enum CoverLib.AssetDepositType",
              "name": "assetType",
              "type": "uint8"
            },
            {
              "internalType": "address",
              "name": "asset",
              "type": "address"
            }
          ],
          "internalType": "struct Vaults.Vault",
          "name": "",
          "type": "tuple"
        }
      ],
      "stateMutability": "view",
      "type": "function"
    },
    {
      "inputs": [
        {
          "internalType": "uint256",
          "name": "vaultId",
          "type": "uint256"
        }
      ],
      "name": "getVaultPools",
      "outputs": [
        {
          "components": [
            {
              "internalType": "uint256",
              "name": "id",
              "type": "uint256"
            },
            {
              "internalType": "string",
              "name": "poolName",
              "type": "string"
            },
            {
              "internalType": "enum CoverLib.RiskType",
              "name": "riskType",
              "type": "uint8"
            },
            {
              "internalType": "uint256",
              "name": "apy",
              "type": "uint256"
            },
            {
              "internalType": "uint256",
              "name": "minPeriod",
              "type": "uint256"
            },
            {
              "internalType": "uint256",
              "name": "tvl",
              "type": "uint256"
            },
            {
              "internalType": "uint256",
              "name": "baseValue",
              "type": "uint256"
            },
            {
              "internalType": "uint256",
              "name": "coverTvl",
              "type": "uint256"
            },
            {
              "internalType": "uint256",
              "name": "tcp",
              "type": "uint256"
            },
            {
              "internalType": "bool",
              "name": "isActive",
              "type": "bool"
            },
            {
              "internalType": "uint256",
              "name": "percentageSplitBalance",
              "type": "uint256"
            },
            {
              "internalType": "uint256",
              "name": "investmentArmPercent",
              "type": "uint256"
            },
            {
              "internalType": "uint8",
              "name": "leverage",
              "type": "uint8"
            },
            {
              "internalType": "address",
              "name": "asset",
              "type": "address"
            },
            {
              "internalType": "enum CoverLib.AssetDepositType",
              "name": "assetType",
              "type": "uint8"
            }
          ],
          "internalType": "struct CoverLib.Pool[]",
          "name": "",
          "type": "tuple[]"
        }
      ],
      "stateMutability": "view",
      "type": "function"
    },
    {
      "inputs": [],
      "name": "getVaults",
      "outputs": [
        {
          "components": [
            {
              "internalType": "uint256",
              "name": "id",
              "type": "uint256"
            },
            {
              "internalType": "string",
              "name": "vaultName",
              "type": "string"
            },
            {
              "components": [
                {
                  "internalType": "uint256",
                  "name": "id",
                  "type": "uint256"
                },
                {
                  "internalType": "string",
                  "name": "poolName",
                  "type": "string"
                },
                {
                  "internalType": "enum CoverLib.RiskType",
                  "name": "riskType",
                  "type": "uint8"
                },
                {
                  "internalType": "uint256",
                  "name": "apy",
                  "type": "uint256"
                },
                {
                  "internalType": "uint256",
                  "name": "minPeriod",
                  "type": "uint256"
                },
                {
                  "internalType": "uint256",
                  "name": "tvl",
                  "type": "uint256"
                },
                {
                  "internalType": "uint256",
                  "name": "baseValue",
                  "type": "uint256"
                },
                {
                  "internalType": "uint256",
                  "name": "coverTvl",
                  "type": "uint256"
                },
                {
                  "internalType": "uint256",
                  "name": "tcp",
                  "type": "uint256"
                },
                {
                  "internalType": "bool",
                  "name": "isActive",
                  "type": "bool"
                },
                {
                  "internalType": "uint256",
                  "name": "percentageSplitBalance",
                  "type": "uint256"
                },
                {
                  "internalType": "uint256",
                  "name": "investmentArmPercent",
                  "type": "uint256"
                },
                {
                  "internalType": "uint8",
                  "name": "leverage",
                  "type": "uint8"
                },
                {
                  "internalType": "address",
                  "name": "asset",
                  "type": "address"
                },
                {
                  "internalType": "enum CoverLib.AssetDepositType",
                  "name": "assetType",
                  "type": "uint8"
                }
              ],
              "internalType": "struct CoverLib.Pool[]",
              "name": "pools",
              "type": "tuple[]"
            },
            {
              "internalType": "uint256",
              "name": "minInv",
              "type": "uint256"
            },
            {
              "internalType": "uint256",
              "name": "maxInv",
              "type": "uint256"
            },
            {
              "internalType": "uint256",
              "name": "minPeriod",
              "type": "uint256"
            },
            {
              "internalType": "enum CoverLib.AssetDepositType",
              "name": "assetType",
              "type": "uint8"
            },
            {
              "internalType": "address",
              "name": "asset",
              "type": "address"
            }
          ],
          "internalType": "struct Vaults.Vault[]",
          "name": "",
          "type": "tuple[]"
        }
      ],
      "stateMutability": "view",
      "type": "function"
    },
    {
      "inputs": [],
      "name": "governance",
      "outputs": [
        {
          "internalType": "address",
          "name": "",
          "type": "address"
        }
      ],
      "stateMutability": "view",
      "type": "function"
    },
    {
      "inputs": [],
      "name": "initialOwner",
      "outputs": [
        {
          "internalType": "address",
          "name": "",
          "type": "address"
        }
      ],
      "stateMutability": "view",
      "type": "function"
    },
    {
      "inputs": [
        {
          "internalType": "uint256",
          "name": "_vaultId",
          "type": "uint256"
        }
      ],
      "name": "initialVaultWithdraw",
      "outputs": [],
      "stateMutability": "nonpayable",
      "type": "function"
    },
    {
      "inputs": [],
      "name": "owner",
      "outputs": [
        {
          "internalType": "address",
          "name": "",
          "type": "address"
        }
      ],
      "stateMutability": "view",
      "type": "function"
    },
    {
      "inputs": [
        {
          "internalType": "uint256",
          "name": "",
          "type": "uint256"
        }
      ],
      "name": "participants",
      "outputs": [
        {
          "internalType": "address",
          "name": "",
          "type": "address"
        }
      ],
      "stateMutability": "view",
      "type": "function"
    },
    {
      "inputs": [
        {
          "internalType": "address",
          "name": "",
          "type": "address"
        }
      ],
      "name": "participation",
      "outputs": [
        {
          "internalType": "uint256",
          "name": "",
          "type": "uint256"
        }
      ],
      "stateMutability": "view",
      "type": "function"
    },
    {
      "inputs": [],
      "name": "poolContract",
      "outputs": [
        {
          "internalType": "address",
          "name": "",
          "type": "address"
        }
      ],
      "stateMutability": "view",
      "type": "function"
    },
    {
      "inputs": [],
      "name": "renounceOwnership",
      "outputs": [],
      "stateMutability": "nonpayable",
      "type": "function"
    },
    {
      "inputs": [
        {
          "internalType": "address",
          "name": "_coverContract",
          "type": "address"
        }
      ],
      "name": "setCover",
      "outputs": [],
      "stateMutability": "nonpayable",
      "type": "function"
    },
    {
      "inputs": [
        {
          "internalType": "address",
          "name": "_governance",
          "type": "address"
        }
      ],
      "name": "setGovernance",
      "outputs": [],
      "stateMutability": "nonpayable",
      "type": "function"
    },
    {
      "inputs": [
        {
          "internalType": "address",
          "name": "_poolontract",
          "type": "address"
        }
      ],
      "name": "setPool",
      "outputs": [],
      "stateMutability": "nonpayable",
      "type": "function"
    },
    {
      "inputs": [
        {
          "internalType": "uint256",
          "name": "vaultId",
          "type": "uint256"
        },
        {
          "internalType": "address",
          "name": "user",
          "type": "address"
        }
      ],
      "name": "setUserVaultDepositToZero",
      "outputs": [],
      "stateMutability": "nonpayable",
      "type": "function"
    },
    {
      "inputs": [
        {
          "internalType": "address",
          "name": "newOwner",
          "type": "address"
        }
      ],
      "name": "transferOwnership",
      "outputs": [],
      "stateMutability": "nonpayable",
      "type": "function"
    },
    {
      "inputs": [],
      "name": "vaultCount",
      "outputs": [
        {
          "internalType": "uint256",
          "name": "",
          "type": "uint256"
        }
      ],
      "stateMutability": "view",
      "type": "function"
    },
    {
      "inputs": [
        {
          "internalType": "uint256",
          "name": "_vaultId",
          "type": "uint256"
        },
        {
          "internalType": "uint256",
          "name": "_amount",
          "type": "uint256"
        },
        {
          "internalType": "uint256",
          "name": "_period",
          "type": "uint256"
        }
      ],
      "name": "vaultDeposit",
      "outputs": [],
      "stateMutability": "payable",
      "type": "function"
    }
  ],
  "bytecode": "0x60803460d657601f61226838819003918201601f19168301916001600160401b0383118484101760db5780849260209460405283398101031260d657516001600160a01b0381169081900360d6576001600055801560c057600180546001600160a01b031981168317909155604051919081906001600160a01b03167f8be0079c531659141344cd1fd0a4f28419497f9722a3daafe3b4186f6b6457e0600080a3600f80546001600160a01b03191691909117905561217690816100f28239f35b631e4fbdf760e01b600052600060045260246000fd5b600080fd5b634e487b7160e01b600052604160045260246000fdfe6080604052600436101561001257600080fd5b60003560e01c80631f8be73c14611827578063248a75b7146117fe57806329ba7bb2146117d557806334808ec3146117ac57806335c1d349146117515780634437152a146116e857806344d00f82146115ce578063576564861461156f5780635aa6e6751461154657806360ebd71814611503578063626cc0a914611182578063715018a61461112557806372bafbde14610fde5780637c366cc614610f7557806388d52ef714610f4c5780638da5cb5b14610f235780639403b63414610ed657806396f3a8ad14610e9c578063996b8a6f14610e73578063a7c6a10014610e55578063ab033ea914610dde578063b30703cd14610db5578063b5d90c2814610d8c578063d000626514610b6b578063f2fde38b14610ae1578063f339624b146101735763f6e805581461014557600080fd5b3461016e57600036600319011261016e576008546040516001600160a01b039091168152602090f35b600080fd5b3461016e5761010036600319011261016e576004356001600160401b03811161016e573660238201121561016e5780600401356101af81611c0b565b916101bd6040519384611bea565b818352366024838301011161016e578160009260246020930183860137830101526024356001600160401b03811161016e576101fd903690600401611c3d565b6044356001600160401b03811161016e5761021c903690600401611c3d565b9060a4359260c43593600285101561016e5760e4356001600160a01b03811680820361016e5761024a612117565b8451865103610a905761025c8761198f565b8615908115610a86575b5015610a41576006549260018401809411610a2b5783600655836000526003602052604060002093845560018401908051906001600160401b038211610674576102b08354611d88565b601f81116109e3575b50602090601f8311600114610974576103369493929160009183610969575b50508160011b916000199060031b1c19161790559491945b606435600385015560843560048501556006840161030d8861198f565b80546001600160a81b03191660ff89161760089290921b610100600160a81b0316919091179055565b60009161016d9360009260028301935b825181101561087b576009546001600160a01b03169560006103688386611d74565b516024604051809a819363068bcd8d60e01b835260048301525afa96871561086f576000976106e5575b506101c08701908a82516103a58161198f565b6103ae8261198f565b6103b78161198f565b036106a0576103d1906103ca8486611d74565b51906120ce565b966103dc8385611d74565b518654600052600260205260406000206103f68588611d74565b51600052602052604060002055865468010000000000000000811015610674576001810180895581101561068a5787600052600d602060002091020191815183556001830160208301518051906001600160401b03821161067457819061045d8454611d88565b601f8111610621575b50602090601f83116001146105bc576000926105b1575b50508160011b916000199060031b1c19161790555b6002830160408301516104a48161196f565b6104ad8161196f565b815460ff91821660ff199182161790925560608401516003860155608084018051600487015560a0850151600587015560c0850151600687015560e0850151600787015561010085015160088088019190915561012086015160098801805491151585169190951617909355610140850151600a870155610160850151600b870155610180850151600c90960180546101a0909601516001600160a81b031990961696909216959095179390911b610100600160a81b0316929092178255516105758161198f565b61057e8161198f565b815460ff60a81b191660a89190911b60ff60a81b16179055518781106105a8575b50600101610346565b9650600161059f565b015190508f8061047d565b60008581528281209350601f198516905b81811061060957509084600195949392106105f0575b505050811b019055610492565b015160001960f88460031b161c191690558f80806105e3565b929360206001819287860151815501950193016105cd565b909150836000526020600020601f840160051c8101916020851061066a575b90601f859493920160051c01905b81811061065b5750610466565b6000815584935060010161064e565b9091508190610640565b634e487b7160e01b600052604160045260246000fd5b634e487b7160e01b600052603260045260246000fd5b60405162461bcd60e51b815260206004820152601f60248201527f496e636f6d70617469626c65206173736574207479706520696e20706f6f6c006044820152606490fd5b90963d8082843e6106f68184611bea565b82019160208184031261086b578051906001600160401b03821161085f57016101e08184031261086b576040519261072d84611bb2565b8151845260208201516001600160401b03811161086757820181601f820112156108675780519061075d82611c0b565b9261076b6040519485611bea565b82845260208383010111610863579061078a9160208085019101611927565b60208401526040810151600381101561085f576040840152606081015160608401526080810151608084015260a081015160a084015260c081015160c084015260e081015160e0840152610100810151610100840152610120810151801515810361085f5761012084015261014081015161014084015261016081015161016084015261018081015160ff8116810361085f576101808401526101a08101516001600160a01b038116810361085f576101a08401526101c0015190600282101561085c57506101c0820152958a610392565b80fd5b8280fd5b8480fd5b8380fd5b5080fd5b6040513d6000823e3d90fd5b8386898981106108d857600560649301550361089357005b60405162461bcd60e51b815260206004820152601b60248201527f546f74616c2073706c6974206d75737420657175616c203130302500000000006044820152606490fd5b60405162461bcd60e51b815260206004820152606060248201527f4d696e696d756e20706572696f64206d7573742062652067726561746572207460448201527f68616e206f7220657175616c20746f20746865206d696e696d756d207065726960648201527f6f64206f6620616c6c20706f6f6c732077697468696e20746865207661756c74608482015260a490fd5b015190508a806102d8565b90601f1983169184600052816000209260005b8181106109cb575091600193918561033698979694106109b2575b505050811b0190559491946102f0565b015160001960f88460031b161c191690558a80806109a2565b92936020600181928786015181550195019301610987565b836000526020600020601f840160051c81019160208510610a21575b601f0160051c01905b818110610a1557506102b9565b60008155600101610a08565b90915081906109ff565b634e487b7160e01b600052601160045260246000fd5b60405162461bcd60e51b815260206004820152601e60248201527f496e76616c696420617373657420666f72206465706f736974207479706500006044820152606490fd5b9050151587610266565b60405162461bcd60e51b815260206004820152602360248201527f4d69736d61746368656420706f6f6c2049447320616e642070657263656e746160448201526267657360e81b6064820152608490fd5b3461016e57602036600319011261016e57610afa611911565b610b02612117565b6001600160a01b03168015610b5557600180546001600160a01b0319811683179091556001600160a01b03167f8be0079c531659141344cd1fd0a4f28419497f9722a3daafe3b4186f6b6457e0600080a3005b631e4fbdf760e01b600052600060045260246000fd5b3461016e57602036600319011261016e57600435610b876120f5565b33600052600560205260406000208160005260205260406000206001810191825415610d3d57600482019160ff835416610bc08161196f565b610d0057600701544210610cbb576000526003602052610be36040600020611f82565b604081019260005b84518051821015610c6b5781610c0091611d74565b51516009546001600160a01b03169190823b1561016e576000926064849260405195869384926383bc635760e01b84523360048501526024840152600160448401525af191821561086f57600192610c5a575b5001610beb565b6000610c6591611bea565b86610c53565b845460ff191660011785558254602085015160405133927f485f1bb6524c663555797e00171a10f341656e59b02d6b557a0a38ba7d5d9751928291610cb19190836120db565b0390a26001600055005b60405162461bcd60e51b815260206004820152601c60248201527f4465706f73697420706572696f6420686173206e6f7420656e646564000000006044820152606490fd5b60405162461bcd60e51b81526020600482015260156024820152744465706f736974206973206e6f742061637469766560581b6044820152606490fd5b60405162461bcd60e51b815260206004820152602160248201527f4e6f206465706f73697420666f756e6420666f722074686973206164647265736044820152607360f81b6064820152608490fd5b3461016e57600036600319011261016e57600a546040516001600160a01b039091168152602090f35b3461016e57600036600319011261016e576009546040516001600160a01b039091168152602090f35b3461016e57602036600319011261016e57610df7611911565b610dff612117565b60075490610e166001600160a01b03831615611c9a565b6001600160a01b0316908190610e2d821515611cdf565b6001600160601b0360a01b16176007556001600160601b0360a01b600a541617600a55600080f35b3461016e57600036600319011261016e576020600654604051908152f35b3461016e57600036600319011261016e57600d546040516001600160a01b039091168152602090f35b3461016e57602036600319011261016e576001600160a01b03610ebd611911565b1660005260116020526020604060002054604051908152f35b3461016e57602036600319011261016e57610eef611d35565b506004356000526003602052610f1f610f0b6040600020611f82565b604051918291602083526020830190611ab4565b0390f35b3461016e57600036600319011261016e576001546040516001600160a01b039091168152602090f35b3461016e57600036600319011261016e57600c546040516001600160a01b039091168152602090f35b3461016e57602036600319011261016e57610f8e611911565b610f96612117565b600e5490610fad6001600160a01b03831615611c9a565b6001600160a01b031690610fc2821515611cdf565b600880546001600160a01b031990811684179091551617600e55005b3461016e57604036600319011261016e57610ff76118fb565b6004356000526003602052604061101081600020611f82565b01908151519161101f83611c26565b9261102d6040519485611bea565b80845261103c601f1991611c26565b0160005b81811061110e575090916001600160a01b0316905060005b82519081518110156110bc5761107081600193611d74565b51518360005260046020526040600020906000526020526040600020826000526020526110a06040600020612042565b6110aa8287611d74565b526110b58186611d74565b5001611058565b8460405180916020820160208352815180915260206040840192019060005b8181106110e9575050500390f35b919350916020610120826111006001948851611b2f565b0194019101918493926110db565b602090611119611ffe565b82828801015201611040565b3461016e57600036600319011261016e5761113e612117565b600180546001600160a01b031981169091556000906001600160a01b03167f8be0079c531659141344cd1fd0a4f28419497f9722a3daafe3b4186f6b6457e08280a3005b606036600319011261016e5760243560443560043561119f6120f5565b8060005260036020526111b56040600020611f82565b9160a083015181106114a6576040830192600092839260e083019260c081019190855b89895180518a101561137657896111ee91611d74565b515186600052600260205260406000208160005260205260646112238161121b60406000205495866120bb565b0493346120bb565b049086516112308161198f565b89516040516001600160a01b039091169360e08201928284106001600160401b038511176106745760409560e49487523384526020840195865286840197885260608401918b8352608085016001815260a086019161128e8161198f565b825260c086019283526009548951632607b53960e01b815296516001600160a01b0390811660048901529851602488015299516044870152925160648601529151939788968795911692906112e28161198f565b6084860152516112f18161198f565b60a4850152516001600160a01b031660c48401525af191821561086f576000918293611338575b509061132960019361132f936120ce565b986120ce565b970196956111d8565b9250906040833d821161136e575b8161135360409383611bea565b8101031261085c575081516020909201519190611329611318565b3d9150611346565b508584898585620151808402848104620151801485151715610a2b577f6f85d9948d6ca3dd6ce6ce7d175da22b4e865827ae6fcd530ec7edac1240f92895610cb1956020956113c7600894426120ce565b91604051956113d587611b96565b33875288870192835260408701908582526060880190815260808801916000835260a0890193845260c089019442865260e08a019687526101008a0197600089523360005260058d526040600020906000528c5260406000209960018060a01b039051166001600160601b0360a01b8b5416178a555160018a015551600289015551600388015560048701905161146b8161196f565b6114748161196f565b60ff801983541691161790555160058601555160068501555160078401555191015501516040519182913395836120db565b60405162461bcd60e51b815260206004820152602f60248201527f506572696f642063616e6e6f74206265206c657373207468616e20746865207660448201526e185d5b1d081b5a5b881c195c9a5bd9608a1b6064820152608490fd5b3461016e57602036600319011261016e576004356000526003602052610f1f6115326002604060002001611e66565b604051918291602083526020830190611999565b3461016e57600036600319011261016e576007546040516001600160a01b039091168152602090f35b3461016e57604036600319011261016e576115886118fb565b611590611ffe565b5060018060a01b0316600052600560205260406000206004356000526020526101206115bf6040600020612042565b6115cc6040518092611b2f565bf35b3461016e57600036600319011261016e576006546115eb81611c26565b906115f96040519283611bea565b808252601f1961160882611c26565b0160005b8181106116d157505060015b8181111561168857826040518091602082016020835281518091526040830190602060408260051b8601019301916000905b82821061165957505050500390f35b919360019193955060206116788192603f198a82030186528851611ab4565b960192019201859493919261164a565b80600052600360205260406000206000198201828111610a2b576116ae6116bf92611f82565b6116b88287611d74565b5284611d74565b506000198114610a2b57600101611618565b6020906116dc611d35565b8282870101520161160c565b3461016e57602036600319011261016e57611701611911565b611709612117565b600c54906117206001600160a01b03831615611c9a565b6001600160a01b031690611735821515611cdf565b600980546001600160a01b031990811684179091551617600c55005b3461016e57602036600319011261016e5760043560105481101561016e5760106000527f1b6847dc741a1b0cd08d278845f9d819d87b734759afb55fe2de5cb82a9ae67201546040516001600160a01b039091168152602090f35b3461016e57600036600319011261016e57600b546040516001600160a01b039091168152602090f35b3461016e57600036600319011261016e57600f546040516001600160a01b039091168152602090f35b3461016e57600036600319011261016e57600e546040516001600160a01b039091168152602090f35b3461016e57604036600319011261016e576118406118fb565b6118486120f5565b600c546001600160a01b0316331480156118e7575b156118945760018060a01b031660005260056020526040600020600435600052602052600060016040822001556001600055600080f35b60405162461bcd60e51b815260206004820152602560248201527f43616c6c6572206973206e6f742074686520676f7665726e616e636520636f6e6044820152641d1c9858dd60da1b6064820152608490fd5b50600f546001600160a01b0316331461185d565b602435906001600160a01b038216820361016e57565b600435906001600160a01b038216820361016e57565b60005b83811061193a5750506000910152565b818101518382015260200161192a565b9060209161196381518092818552858086019101611927565b601f01601f1916010190565b6003111561197957565b634e487b7160e01b600052602160045260246000fd5b6002111561197957565b9080602083519182815201916020808360051b8301019401926000915b8383106119c557505050505090565b9091929394602080600192601f19858203018652885190815181526101c0806119fd858501516101e0878601526101e085019061194a565b936040810151611a0c8161196f565b6040850152606081015160608501526080810151608085015260a081015160a085015260c081015160c085015260e081015160e0850152610100810151610100850152610120810151151561012085015261014081015161014085015261016081015161016085015260ff61018082015116610180850152878060a01b036101a0820151166101a0850152015191611aa38361198f565b0152970193019301919392906119b6565b908151815260e0611aeb611ad96020850151610100602086015261010085019061194a565b60408501518482036040860152611999565b92606081015160608401526080810151608084015260a081015160a084015260c0810151611b188161198f565b60c08401528101516001600160a01b031691015290565b610100809160018060a01b0381511684526020810151602085015260408101516040850152606081015160608501526080810151611b6c8161196f565b608085015260a081015160a085015260c081015160c085015260e081015160e08501520151910152565b61012081019081106001600160401b0382111761067457604052565b6101e081019081106001600160401b0382111761067457604052565b61010081019081106001600160401b0382111761067457604052565b90601f801991011681019081106001600160401b0382111761067457604052565b6001600160401b03811161067457601f01601f191660200190565b6001600160401b0381116106745760051b60200190565b9080601f8301121561016e578135611c5481611c26565b92611c626040519485611bea565b81845260208085019260051b82010192831161016e57602001905b828210611c8a5750505090565b8135815260209182019101611c7d565b15611ca157565b60405162461bcd60e51b815260206004820152601660248201527511dbdd995c9b985b98d948185b1c9958591e481cd95d60521b6044820152606490fd5b15611ce657565b60405162461bcd60e51b815260206004820152602160248201527f476f7665726e616e636520616464726573732063616e6e6f74206265207a65726044820152606f60f81b6064820152608490fd5b60405190611d4282611bce565b600060e08382815260606020820152606060408201528260608201528260808201528260a08201528260c08201520152565b805182101561068a5760209160051b010190565b90600182811c92168015611db8575b6020831014611da257565b634e487b7160e01b600052602260045260246000fd5b91607f1691611d97565b9060405191826000825492611dd684611d88565b8084529360018116908115611e445750600114611dfd575b50611dfb92500383611bea565b565b90506000929192526020600020906000915b818310611e28575050906020611dfb9282010138611dee565b6020919350806001915483858901015201910190918492611e0f565b905060209250611dfb94915060ff191682840152151560051b82010138611dee565b908154611e7281611c26565b92611e806040519485611bea565b818452602084019060005260206000206000915b838310611ea15750505050565b600d6020600192604051611eb481611bb2565b85548152611ec3858701611dc2565b8382015260ff600287015416611ed88161196f565b60408201526003860154606082015260048601546080820152600586015460a0820152600686015460c0820152600786015460e0820152600886015461010082015260ff6009870154161515610120820152600a860154610140820152600b86015461016082015260ff600c870154818116610180840152868060a01b038160081c166101a084015260a81c16611f6e8161198f565b6101c0820152815201920192019190611e94565b90604051611f8f81611bce565b60e06006829480548452611fa560018201611dc2565b6020850152611fb660028201611e66565b60408501526003810154606085015260048101546080850152600581015460a0850152015460ff8116611fe88161198f565b60c084015260081c6001600160a01b0316910152565b6040519061200b82611b96565b6000610100838281528260208201528260408201528260608201528260808201528260a08201528260c08201528260e08201520152565b9060405161204f81611b96565b6101006008829460018060a01b03815416845260018101546020850152600281015460408501526003810154606085015260ff6004820154166120918161196f565b6080850152600581015460a0850152600681015460c0850152600781015460e08501520154910152565b81810292918115918404141715610a2b57565b91908201809211610a2b57565b6040906120f293928152816020820152019061194a565b90565b600260005414612106576002600055565b633ee5aeb560e01b60005260046000fd5b6001546001600160a01b0316330361212b57565b63118cdaa760e01b6000523360045260246000fdfea2646970667358221220456aaca0f2d07ceed9c0ed0da1d1ebb2cc9058129e81d178439f65fc91194fe964736f6c634300081c0033",
  "linkReferences": {},
  "deployedLinkReferences": {}
}