{
  "_format": "hh-sol-artifact-1",
  "contractName": "Vaults",
  "sourceName": "contracts/Vaults.sol",
  "abi": [
    {
      "inputs": [
        {
          "internalType": "address",
          "name": "_initialOwner",
          "type": "address"
        },
        {
          "internalType": "address",
          "name": "bq",
          "type": "address"
        }
      ],
      "stateMutability": "nonpayable",
      "type": "constructor"
    },
    {
      "inputs": [
        {
          "internalType": "address",
          "name": "owner",
          "type": "address"
        }
      ],
      "name": "OwnableInvalidOwner",
      "type": "error"
    },
    {
      "inputs": [
        {
          "internalType": "address",
          "name": "account",
          "type": "address"
        }
      ],
      "name": "OwnableUnauthorizedAccount",
      "type": "error"
    },
    {
      "inputs": [],
      "name": "ReentrancyGuardReentrantCall",
      "type": "error"
    },
    {
      "anonymous": false,
      "inputs": [
        {
          "indexed": false,
          "internalType": "uint256",
          "name": "",
          "type": "uint256"
        },
        {
          "indexed": false,
          "internalType": "uint256",
          "name": "",
          "type": "uint256"
        },
        {
          "indexed": false,
          "internalType": "address",
          "name": "",
          "type": "address"
        }
      ],
      "name": "ClaimAttempt",
      "type": "event"
    },
    {
      "anonymous": false,
      "inputs": [
        {
          "indexed": true,
          "internalType": "address",
          "name": "recipient",
          "type": "address"
        },
        {
          "indexed": false,
          "internalType": "string",
          "name": "pool",
          "type": "string"
        },
        {
          "indexed": false,
          "internalType": "uint256",
          "name": "amount",
          "type": "uint256"
        }
      ],
      "name": "ClaimPaid",
      "type": "event"
    },
    {
      "anonymous": false,
      "inputs": [
        {
          "indexed": true,
          "internalType": "address",
          "name": "user",
          "type": "address"
        },
        {
          "indexed": false,
          "internalType": "uint256",
          "name": "amount",
          "type": "uint256"
        },
        {
          "indexed": false,
          "internalType": "string",
          "name": "pool",
          "type": "string"
        }
      ],
      "name": "Deposited",
      "type": "event"
    },
    {
      "anonymous": false,
      "inputs": [
        {
          "indexed": true,
          "internalType": "address",
          "name": "previousOwner",
          "type": "address"
        },
        {
          "indexed": true,
          "internalType": "address",
          "name": "newOwner",
          "type": "address"
        }
      ],
      "name": "OwnershipTransferred",
      "type": "event"
    },
    {
      "anonymous": false,
      "inputs": [
        {
          "indexed": true,
          "internalType": "uint256",
          "name": "id",
          "type": "uint256"
        },
        {
          "indexed": false,
          "internalType": "string",
          "name": "poolName",
          "type": "string"
        }
      ],
      "name": "PoolCreated",
      "type": "event"
    },
    {
      "anonymous": false,
      "inputs": [
        {
          "indexed": true,
          "internalType": "uint256",
          "name": "poolId",
          "type": "uint256"
        },
        {
          "indexed": false,
          "internalType": "uint256",
          "name": "apy",
          "type": "uint256"
        },
        {
          "indexed": false,
          "internalType": "uint256",
          "name": "_minPeriod",
          "type": "uint256"
        }
      ],
      "name": "PoolUpdated",
      "type": "event"
    },
    {
      "anonymous": false,
      "inputs": [
        {
          "indexed": true,
          "internalType": "address",
          "name": "user",
          "type": "address"
        },
        {
          "indexed": false,
          "internalType": "uint256",
          "name": "amount",
          "type": "uint256"
        },
        {
          "indexed": false,
          "internalType": "string",
          "name": "pool",
          "type": "string"
        }
      ],
      "name": "Withdraw",
      "type": "event"
    },
    {
      "inputs": [],
      "name": "ICoverContract",
      "outputs": [
        {
          "internalType": "contract ICover",
          "name": "",
          "type": "address"
        }
      ],
      "stateMutability": "view",
      "type": "function"
    },
    {
      "inputs": [],
      "name": "IGovernanceContract",
      "outputs": [
        {
          "internalType": "contract IGov",
          "name": "",
          "type": "address"
        }
      ],
      "stateMutability": "view",
      "type": "function"
    },
    {
      "inputs": [],
      "name": "IPoolContract",
      "outputs": [
        {
          "internalType": "contract IPool",
          "name": "",
          "type": "address"
        }
      ],
      "stateMutability": "view",
      "type": "function"
    },
    {
      "inputs": [],
      "name": "bqBTC",
      "outputs": [
        {
          "internalType": "contract IbqBTC",
          "name": "",
          "type": "address"
        }
      ],
      "stateMutability": "view",
      "type": "function"
    },
    {
      "inputs": [],
      "name": "bqBTCAddress",
      "outputs": [
        {
          "internalType": "address",
          "name": "",
          "type": "address"
        }
      ],
      "stateMutability": "view",
      "type": "function"
    },
    {
      "inputs": [],
      "name": "coverContract",
      "outputs": [
        {
          "internalType": "address",
          "name": "",
          "type": "address"
        }
      ],
      "stateMutability": "view",
      "type": "function"
    },
    {
      "inputs": [
        {
          "internalType": "string",
          "name": "_vaultName",
          "type": "string"
        },
        {
          "internalType": "uint256[]",
          "name": "_poolIds",
          "type": "uint256[]"
        },
        {
          "internalType": "uint256[]",
          "name": "poolPercentageSplit",
          "type": "uint256[]"
        },
        {
          "internalType": "uint256",
          "name": "_minInv",
          "type": "uint256"
        },
        {
          "internalType": "uint256",
          "name": "_maxInv",
          "type": "uint256"
        },
        {
          "internalType": "uint256",
          "name": "_minPeriod",
          "type": "uint256"
        },
        {
          "internalType": "enum CoverLib.AssetDepositType",
          "name": "adt",
          "type": "uint8"
        },
        {
          "internalType": "address",
          "name": "asset",
          "type": "address"
        }
      ],
      "name": "createVault",
      "outputs": [],
      "stateMutability": "nonpayable",
      "type": "function"
    },
    {
      "inputs": [
        {
          "internalType": "uint256",
          "name": "vaultId",
          "type": "uint256"
        },
        {
          "internalType": "address",
          "name": "user",
          "type": "address"
        }
      ],
      "name": "getUserVaultDeposit",
      "outputs": [
        {
          "components": [
            {
              "internalType": "address",
              "name": "lp",
              "type": "address"
            },
            {
              "internalType": "uint256",
              "name": "amount",
              "type": "uint256"
            },
            {
              "internalType": "uint256",
              "name": "vaultId",
              "type": "uint256"
            },
            {
              "internalType": "uint256",
              "name": "dailyPayout",
              "type": "uint256"
            },
            {
              "internalType": "enum CoverLib.Status",
              "name": "status",
              "type": "uint8"
            },
            {
              "internalType": "uint256",
              "name": "daysLeft",
              "type": "uint256"
            },
            {
              "internalType": "uint256",
              "name": "startDate",
              "type": "uint256"
            },
            {
              "internalType": "uint256",
              "name": "expiryDate",
              "type": "uint256"
            },
            {
              "internalType": "uint256",
              "name": "accruedPayout",
              "type": "uint256"
            },
            {
              "internalType": "enum CoverLib.AssetDepositType",
              "name": "assetType",
              "type": "uint8"
            },
            {
              "internalType": "address",
              "name": "asset",
              "type": "address"
            }
          ],
          "internalType": "struct Vaults.VaultDeposit",
          "name": "",
          "type": "tuple"
        }
      ],
      "stateMutability": "view",
      "type": "function"
    },
    {
      "inputs": [
        {
          "internalType": "uint256",
          "name": "vaultId",
          "type": "uint256"
        },
        {
          "internalType": "address",
          "name": "user",
          "type": "address"
        }
      ],
      "name": "getUserVaultPoolDeposits",
      "outputs": [
        {
          "components": [
            {
              "internalType": "address",
              "name": "lp",
              "type": "address"
            },
            {
              "internalType": "uint256",
              "name": "amount",
              "type": "uint256"
            },
            {
              "internalType": "uint256",
              "name": "poolId",
              "type": "uint256"
            },
            {
              "internalType": "uint256",
              "name": "dailyPayout",
              "type": "uint256"
            },
            {
              "internalType": "enum CoverLib.Status",
              "name": "status",
              "type": "uint8"
            },
            {
              "internalType": "uint256",
              "name": "daysLeft",
              "type": "uint256"
            },
            {
              "internalType": "uint256",
              "name": "startDate",
              "type": "uint256"
            },
            {
              "internalType": "uint256",
              "name": "expiryDate",
              "type": "uint256"
            },
            {
              "internalType": "uint256",
              "name": "accruedPayout",
              "type": "uint256"
            },
            {
              "internalType": "enum CoverLib.DepositType",
              "name": "pdt",
              "type": "uint8"
            }
          ],
          "internalType": "struct CoverLib.Deposits[]",
          "name": "",
          "type": "tuple[]"
        }
      ],
      "stateMutability": "view",
      "type": "function"
    },
    {
      "inputs": [
        {
          "internalType": "uint256",
          "name": "vaultId",
          "type": "uint256"
        }
      ],
      "name": "getVault",
      "outputs": [
        {
          "components": [
            {
              "internalType": "uint256",
              "name": "id",
              "type": "uint256"
            },
            {
              "internalType": "string",
              "name": "vaultName",
              "type": "string"
            },
            {
              "components": [
                {
                  "internalType": "uint256",
                  "name": "id",
                  "type": "uint256"
                },
                {
                  "internalType": "string",
                  "name": "poolName",
                  "type": "string"
                },
                {
                  "internalType": "enum CoverLib.RiskType",
                  "name": "riskType",
                  "type": "uint8"
                },
                {
                  "internalType": "uint256",
                  "name": "apy",
                  "type": "uint256"
                },
                {
                  "internalType": "uint256",
                  "name": "minPeriod",
                  "type": "uint256"
                },
                {
                  "internalType": "uint256",
                  "name": "totalUnit",
                  "type": "uint256"
                },
                {
                  "internalType": "uint256",
                  "name": "tvl",
                  "type": "uint256"
                },
                {
                  "internalType": "uint256",
                  "name": "baseValue",
                  "type": "uint256"
                },
                {
                  "internalType": "uint256",
                  "name": "coverUnits",
                  "type": "uint256"
                },
                {
                  "internalType": "uint256",
                  "name": "tcp",
                  "type": "uint256"
                },
                {
                  "internalType": "bool",
                  "name": "isActive",
                  "type": "bool"
                },
                {
                  "internalType": "uint256",
                  "name": "percentageSplitBalance",
                  "type": "uint256"
                },
                {
                  "internalType": "uint256",
                  "name": "investmentArmPercent",
                  "type": "uint256"
                },
                {
                  "internalType": "uint8",
                  "name": "leverage",
                  "type": "uint8"
                },
                {
                  "internalType": "address",
                  "name": "asset",
                  "type": "address"
                },
                {
                  "internalType": "enum CoverLib.AssetDepositType",
                  "name": "assetType",
                  "type": "uint8"
                }
              ],
              "internalType": "struct CoverLib.Pool[]",
              "name": "pools",
              "type": "tuple[]"
            },
            {
              "internalType": "uint256",
              "name": "minInv",
              "type": "uint256"
            },
            {
              "internalType": "uint256",
              "name": "maxInv",
              "type": "uint256"
            },
            {
              "internalType": "uint256",
              "name": "minPeriod",
              "type": "uint256"
            },
            {
              "internalType": "enum CoverLib.AssetDepositType",
              "name": "assetType",
              "type": "uint8"
            },
            {
              "internalType": "address",
              "name": "asset",
              "type": "address"
            }
          ],
          "internalType": "struct Vaults.Vault",
          "name": "",
          "type": "tuple"
        }
      ],
      "stateMutability": "view",
      "type": "function"
    },
    {
      "inputs": [
        {
          "internalType": "uint256",
          "name": "vaultId",
          "type": "uint256"
        }
      ],
      "name": "getVaultPools",
      "outputs": [
        {
          "components": [
            {
              "internalType": "uint256",
              "name": "id",
              "type": "uint256"
            },
            {
              "internalType": "string",
              "name": "poolName",
              "type": "string"
            },
            {
              "internalType": "enum CoverLib.RiskType",
              "name": "riskType",
              "type": "uint8"
            },
            {
              "internalType": "uint256",
              "name": "apy",
              "type": "uint256"
            },
            {
              "internalType": "uint256",
              "name": "minPeriod",
              "type": "uint256"
            },
            {
              "internalType": "uint256",
              "name": "totalUnit",
              "type": "uint256"
            },
            {
              "internalType": "uint256",
              "name": "tvl",
              "type": "uint256"
            },
            {
              "internalType": "uint256",
              "name": "baseValue",
              "type": "uint256"
            },
            {
              "internalType": "uint256",
              "name": "coverUnits",
              "type": "uint256"
            },
            {
              "internalType": "uint256",
              "name": "tcp",
              "type": "uint256"
            },
            {
              "internalType": "bool",
              "name": "isActive",
              "type": "bool"
            },
            {
              "internalType": "uint256",
              "name": "percentageSplitBalance",
              "type": "uint256"
            },
            {
              "internalType": "uint256",
              "name": "investmentArmPercent",
              "type": "uint256"
            },
            {
              "internalType": "uint8",
              "name": "leverage",
              "type": "uint8"
            },
            {
              "internalType": "address",
              "name": "asset",
              "type": "address"
            },
            {
              "internalType": "enum CoverLib.AssetDepositType",
              "name": "assetType",
              "type": "uint8"
            }
          ],
          "internalType": "struct CoverLib.Pool[]",
          "name": "",
          "type": "tuple[]"
        }
      ],
      "stateMutability": "view",
      "type": "function"
    },
    {
      "inputs": [],
      "name": "getVaults",
      "outputs": [
        {
          "components": [
            {
              "internalType": "uint256",
              "name": "id",
              "type": "uint256"
            },
            {
              "internalType": "string",
              "name": "vaultName",
              "type": "string"
            },
            {
              "components": [
                {
                  "internalType": "uint256",
                  "name": "id",
                  "type": "uint256"
                },
                {
                  "internalType": "string",
                  "name": "poolName",
                  "type": "string"
                },
                {
                  "internalType": "enum CoverLib.RiskType",
                  "name": "riskType",
                  "type": "uint8"
                },
                {
                  "internalType": "uint256",
                  "name": "apy",
                  "type": "uint256"
                },
                {
                  "internalType": "uint256",
                  "name": "minPeriod",
                  "type": "uint256"
                },
                {
                  "internalType": "uint256",
                  "name": "totalUnit",
                  "type": "uint256"
                },
                {
                  "internalType": "uint256",
                  "name": "tvl",
                  "type": "uint256"
                },
                {
                  "internalType": "uint256",
                  "name": "baseValue",
                  "type": "uint256"
                },
                {
                  "internalType": "uint256",
                  "name": "coverUnits",
                  "type": "uint256"
                },
                {
                  "internalType": "uint256",
                  "name": "tcp",
                  "type": "uint256"
                },
                {
                  "internalType": "bool",
                  "name": "isActive",
                  "type": "bool"
                },
                {
                  "internalType": "uint256",
                  "name": "percentageSplitBalance",
                  "type": "uint256"
                },
                {
                  "internalType": "uint256",
                  "name": "investmentArmPercent",
                  "type": "uint256"
                },
                {
                  "internalType": "uint8",
                  "name": "leverage",
                  "type": "uint8"
                },
                {
                  "internalType": "address",
                  "name": "asset",
                  "type": "address"
                },
                {
                  "internalType": "enum CoverLib.AssetDepositType",
                  "name": "assetType",
                  "type": "uint8"
                }
              ],
              "internalType": "struct CoverLib.Pool[]",
              "name": "pools",
              "type": "tuple[]"
            },
            {
              "internalType": "uint256",
              "name": "minInv",
              "type": "uint256"
            },
            {
              "internalType": "uint256",
              "name": "maxInv",
              "type": "uint256"
            },
            {
              "internalType": "uint256",
              "name": "minPeriod",
              "type": "uint256"
            },
            {
              "internalType": "enum CoverLib.AssetDepositType",
              "name": "assetType",
              "type": "uint8"
            },
            {
              "internalType": "address",
              "name": "asset",
              "type": "address"
            }
          ],
          "internalType": "struct Vaults.Vault[]",
          "name": "",
          "type": "tuple[]"
        }
      ],
      "stateMutability": "view",
      "type": "function"
    },
    {
      "inputs": [],
      "name": "governance",
      "outputs": [
        {
          "internalType": "address",
          "name": "",
          "type": "address"
        }
      ],
      "stateMutability": "view",
      "type": "function"
    },
    {
      "inputs": [],
      "name": "initialOwner",
      "outputs": [
        {
          "internalType": "address",
          "name": "",
          "type": "address"
        }
      ],
      "stateMutability": "view",
      "type": "function"
    },
    {
      "inputs": [
        {
          "internalType": "uint256",
          "name": "_vaultId",
          "type": "uint256"
        }
      ],
      "name": "initialVaultWithdraw",
      "outputs": [],
      "stateMutability": "nonpayable",
      "type": "function"
    },
    {
      "inputs": [],
      "name": "owner",
      "outputs": [
        {
          "internalType": "address",
          "name": "",
          "type": "address"
        }
      ],
      "stateMutability": "view",
      "type": "function"
    },
    {
      "inputs": [
        {
          "internalType": "uint256",
          "name": "",
          "type": "uint256"
        }
      ],
      "name": "participants",
      "outputs": [
        {
          "internalType": "address",
          "name": "",
          "type": "address"
        }
      ],
      "stateMutability": "view",
      "type": "function"
    },
    {
      "inputs": [
        {
          "internalType": "address",
          "name": "",
          "type": "address"
        }
      ],
      "name": "participation",
      "outputs": [
        {
          "internalType": "uint256",
          "name": "",
          "type": "uint256"
        }
      ],
      "stateMutability": "view",
      "type": "function"
    },
    {
      "inputs": [],
      "name": "poolCanister",
      "outputs": [
        {
          "internalType": "address",
          "name": "",
          "type": "address"
        }
      ],
      "stateMutability": "view",
      "type": "function"
    },
    {
      "inputs": [],
      "name": "poolContract",
      "outputs": [
        {
          "internalType": "address",
          "name": "",
          "type": "address"
        }
      ],
      "stateMutability": "view",
      "type": "function"
    },
    {
      "inputs": [],
      "name": "renounceOwnership",
      "outputs": [],
      "stateMutability": "nonpayable",
      "type": "function"
    },
    {
      "inputs": [
        {
          "internalType": "address",
          "name": "_coverContract",
          "type": "address"
        }
      ],
      "name": "setCover",
      "outputs": [],
      "stateMutability": "nonpayable",
      "type": "function"
    },
    {
      "inputs": [
        {
          "internalType": "address",
          "name": "_governance",
          "type": "address"
        }
      ],
      "name": "setGovernance",
      "outputs": [],
      "stateMutability": "nonpayable",
      "type": "function"
    },
    {
      "inputs": [
        {
          "internalType": "address",
          "name": "_poolcontract",
          "type": "address"
        }
      ],
      "name": "setPool",
      "outputs": [],
      "stateMutability": "nonpayable",
      "type": "function"
    },
    {
      "inputs": [
        {
          "internalType": "address",
          "name": "_poolcanister",
          "type": "address"
        }
      ],
      "name": "setPoolCanister",
      "outputs": [],
      "stateMutability": "nonpayable",
      "type": "function"
    },
    {
      "inputs": [
        {
          "internalType": "uint256",
          "name": "vaultId",
          "type": "uint256"
        },
        {
          "internalType": "address",
          "name": "user",
          "type": "address"
        }
      ],
      "name": "setUserVaultDepositToZero",
      "outputs": [],
      "stateMutability": "nonpayable",
      "type": "function"
    },
    {
      "inputs": [
        {
          "internalType": "address",
          "name": "newOwner",
          "type": "address"
        }
      ],
      "name": "transferOwnership",
      "outputs": [],
      "stateMutability": "nonpayable",
      "type": "function"
    },
    {
      "inputs": [
        {
          "internalType": "address",
          "name": "_poolcanister",
          "type": "address"
        }
      ],
      "name": "updatePoolCanister",
      "outputs": [],
      "stateMutability": "nonpayable",
      "type": "function"
    },
    {
      "inputs": [],
      "name": "vaultCount",
      "outputs": [
        {
          "internalType": "uint256",
          "name": "",
          "type": "uint256"
        }
      ],
      "stateMutability": "view",
      "type": "function"
    },
    {
      "inputs": [
        {
          "internalType": "uint256",
          "name": "_vaultId",
          "type": "uint256"
        },
        {
          "internalType": "uint256",
          "name": "_amount",
          "type": "uint256"
        },
        {
          "internalType": "uint256",
          "name": "_period",
          "type": "uint256"
        }
      ],
      "name": "vaultDeposit",
      "outputs": [],
      "stateMutability": "payable",
      "type": "function"
    }
  ],
  "bytecode": "0x60803461010d57601f61278d38819003918201601f19168301916001600160401b0383118484101761011257808492604094855283398101031261010d57610052602061004b83610128565b9201610128565b60016000556001600160a01b039091169081156100f757600180546001600160a01b031981168417909155604051929081906001600160a01b03167f8be0079c531659141344cd1fd0a4f28419497f9722a3daafe3b4186f6b6457e0600080a3601080546001600160a01b0319908116929092179055600b805482166001600160a01b03939093169283179055600e80549091169091179055612650908161013d8239f35b631e4fbdf760e01b600052600060045260246000fd5b600080fd5b634e487b7160e01b600052604160045260246000fd5b51906001600160a01b038216820361010d5756fe6080604052600436101561001257600080fd5b60003560e01c80631f8be73c14611e2b578063248a75b714611e0257806329ba7bb214611dd957806334808ec314611db057806335c1d34914611d555780634437152a14611c7957806344d00f8214611b5f578063494bdf4e14611b0d57806357656486146119575780635aa6e6751461192e5780635f267c551461190557806360ebd718146118c2578063626cc0a9146114d6578063715018a61461147957806372bafbde146111fa5780637c366cc61461111d57806388d52ef7146110f45780638da5cb5b146110cb5780639403b6341461107e57806396f3a8ad14611044578063996b8a6f1461101b578063a69ddee614610f7e578063a7c6a10014610f60578063ab033ea914610e71578063b30703cd14610e48578063b5d90c2814610e1f578063d000626514610ba0578063f2fde38b14610b16578063f339624b146101945763f6e805581461016657600080fd5b3461018f57600036600319011261018f576008546040516001600160a01b039091168152602090f35b600080fd5b3461018f5761010036600319011261018f576004356001600160401b03811161018f573660238201121561018f5780600401356101d0816121c2565b916101de60405193846121a1565b818352366024838301011161018f578160009260246020930183860137830101526024356001600160401b03811161018f5761021e9036906004016121f4565b6044356001600160401b03811161018f5761023d9036906004016121f4565b9060a4359260c43593600285101561018f5760e4356001600160a01b03811680820361018f5761026b6125f1565b8451865103610ac55761027d87611f85565b8615908115610abb575b5015610a76576006549260018401809411610a605783600655836000526003602052604060002093845560018401908051906001600160401b03821161069d576102d183546122a4565b601f8111610a18575b50602090601f83116001146109a957610354949392916000918361099e575b50508160011b916000199060031b1c19161790559491945b606435600385015560843560048501556006840161032f888261259d565b8054610100600160a81b03191660089290921b610100600160a81b0316919091179055565b60009161016d9360009260028301935b82518110156108b0576009546001600160a01b03169560006103868386612290565b516024604051809a819363068bcd8d60e01b835260048301525afa9687156108a45760009761070e575b506101e08701908a82516103c381611f85565b6103cc82611f85565b6103d581611f85565b036106c9576103ef906103e88486612290565b5190612590565b966103fa8385612290565b518654600052600260205260406000206104148588612290565b5160005260205260406000205586546801000000000000000081101561069d57600181018089558110156106b35787600052600e602060002091020191815183556001830160208301518051906001600160401b03821161069d57819061047b84546122a4565b601f811161064a575b50602090601f83116001146105e5576000926105da575b50508160011b916000199060031b1c19161790555b6002830160408301516104c281611f65565b6104cb81611f65565b815460ff91821660ff199182161790925560608401516003860155608084018051600487015560a0850151600587015560c0850151600687015560e085015160078701556101008501516008808801919091556101208601516009880155610140860151600a8801805491151585169190951617909355610160850151600b870155610180850151600c8701556101a0850151600d90960180546101c0909601516001600160a81b031990961696909216959095179390911b610100600160a81b03169290921782555161059e81611f85565b6105a781611f85565b815460ff60a81b191660a89190911b60ff60a81b16179055518781106105d1575b50600101610364565b965060016105c8565b015190508f8061049b565b60008581528281209350601f198516905b8181106106325750908460019594939210610619575b505050811b0190556104b0565b015160001960f88460031b161c191690558f808061060c565b929360206001819287860151815501950193016105f6565b909150836000526020600020601f840160051c81019160208510610693575b90601f859493920160051c01905b8181106106845750610484565b60008155849350600101610677565b9091508190610669565b634e487b7160e01b600052604160045260246000fd5b634e487b7160e01b600052603260045260246000fd5b60405162461bcd60e51b815260206004820152601f60248201527f496e636f6d70617469626c65206173736574207479706520696e20706f6f6c006044820152606490fd5b90963d8082843e61071f81846121a1565b8201916020818403126108a0578051906001600160401b0382116108945701610200818403126108a0576040519261075684612169565b8151845260208201516001600160401b03811161089c57820181601f8201121561089c57805190610786826121c2565b9261079460405194856121a1565b8284526020838301011161089857906107b39160208085019101611f1d565b602084015260408101516003811015610894576040840152606081015160608401526080810151608084015260a081015160a084015260c081015160c084015260e081015160e08401526101008101516101008401526101208101516101208401526101408101518015158103610894576101408401526101608101516101608401526101808101516101808401526101a081015160ff81168103610894576101a08401526101c08101516001600160a01b0381168103610894576101c08401526101e0015190600282101561089157506101e0820152958a6103b0565b80fd5b8280fd5b8480fd5b8380fd5b5080fd5b6040513d6000823e3d90fd5b83868989811061090d5760056064930155036108c857005b60405162461bcd60e51b815260206004820152601b60248201527f546f74616c2073706c6974206d75737420657175616c203130302500000000006044820152606490fd5b60405162461bcd60e51b815260206004820152606060248201527f4d696e696d756e20706572696f64206d7573742062652067726561746572207460448201527f68616e206f7220657175616c20746f20746865206d696e696d756d207065726960648201527f6f64206f6620616c6c20706f6f6c732077697468696e20746865207661756c74608482015260a490fd5b015190508a806102f9565b90601f1983169184600052816000209260005b818110610a00575091600193918561035498979694106109e7575b505050811b019055949194610311565b015160001960f88460031b161c191690558a80806109d7565b929360206001819287860151815501950193016109bc565b836000526020600020601f840160051c81019160208510610a56575b601f0160051c01905b818110610a4a57506102da565b60008155600101610a3d565b9091508190610a34565b634e487b7160e01b600052601160045260246000fd5b60405162461bcd60e51b815260206004820152601e60248201527f496e76616c696420617373657420666f72206465706f736974207479706500006044820152606490fd5b9050151587610287565b60405162461bcd60e51b815260206004820152602360248201527f4d69736d61746368656420706f6f6c2049447320616e642070657263656e746160448201526267657360e81b6064820152608490fd5b3461018f57602036600319011261018f57610b2f611f07565b610b376125f1565b6001600160a01b03168015610b8a57600180546001600160a01b0319811683179091556001600160a01b03167f8be0079c531659141344cd1fd0a4f28419497f9722a3daafe3b4186f6b6457e0600080a3005b631e4fbdf760e01b600052600060045260246000fd5b3461018f57602036600319011261018f57600435610bbc6125cf565b33600052600560205260406000208160005260205260406000206001810191825415610dd057600482019160ff835416610bf581611f65565b610d9357600701544210610d4e576000526003602052610c1860406000206124a9565b604081019260005b84518051821015610ca05781610c3591612290565b51516009546001600160a01b03169190823b1561018f576000926064849260405195869384926383bc635760e01b84523360048501526024840152600160448401525af19182156108a457600192610c8f575b5001610c20565b6000610c9a916121a1565b86610c88565b5050825460ff19166001178355600b5481546001600160a01b039190911690813b1561018f57600091604483926040519485938492632770a7eb60e21b845233600485015260248401525af180156108a4577f485f1bb6524c663555797e00171a10f341656e59b02d6b557a0a38ba7d5d975192610d3392602092610d3d575b50549301516040519182913395836125b5565b0390a26001600055005b6000610d48916121a1565b85610d20565b60405162461bcd60e51b815260206004820152601c60248201527f4465706f73697420706572696f6420686173206e6f7420656e646564000000006044820152606490fd5b60405162461bcd60e51b81526020600482015260156024820152744465706f736974206973206e6f742061637469766560581b6044820152606490fd5b60405162461bcd60e51b815260206004820152602160248201527f4e6f206465706f73697420666f756e6420666f722074686973206164647265736044820152607360f81b6064820152608490fd5b3461018f57600036600319011261018f57600a546040516001600160a01b039091168152602090f35b3461018f57600036600319011261018f576009546040516001600160a01b039091168152602090f35b3461018f57602036600319011261018f57610e8a611f07565b610e926125f1565b600754906001600160a01b038216610f22576001600160a01b0316908115610ed3576001600160a01b03199081168217600755600a80549091169091179055005b60405162461bcd60e51b815260206004820152602160248201527f476f7665726e616e636520616464726573732063616e6e6f74206265207a65726044820152606f60f81b6064820152608490fd5b60405162461bcd60e51b815260206004820152601660248201527511dbdd995c9b985b98d948185b1c9958591e481cd95d60521b6044820152606490fd5b3461018f57600036600319011261018f576020600654604051908152f35b3461018f57602036600319011261018f57610f97611f07565b610f9f6125f1565b600d54906001600160a01b038216610fd6576001600160a01b031690610fc6821515612525565b6001600160a01b03191617600d55005b60405162461bcd60e51b815260206004820152601960248201527f506f6f6c2043616e697374657220616c726561647920736574000000000000006044820152606490fd5b3461018f57600036600319011261018f57600e546040516001600160a01b039091168152602090f35b3461018f57602036600319011261018f576001600160a01b03611065611f07565b1660005260126020526020604060002054604051908152f35b3461018f57602036600319011261018f57611097612251565b5060043560005260036020526110c76110b360406000206124a9565b6040519182916020835260208301906120b6565b0390f35b3461018f57600036600319011261018f576001546040516001600160a01b039091168152602090f35b3461018f57600036600319011261018f57600c546040516001600160a01b039091168152602090f35b3461018f57602036600319011261018f57611136611f07565b61113e6125f1565b600f54906001600160a01b0382166111c1576001600160a01b031690811561117c57600880546001600160a01b031990811684179091551617600f55005b60405162461bcd60e51b815260206004820152601c60248201527f436f76657220616464726573732063616e6e6f74206265207a65726f000000006044820152606490fd5b60405162461bcd60e51b815260206004820152601160248201527010dbdd995c88185b1c9958591e481cd95d607a1b6044820152606490fd5b3461018f57604036600319011261018f57611213611ef1565b6004356000526003602052604061122c816000206124a9565b01908151519161123b836121dd565b9261124960405194856121a1565b808452611258601f19916121dd565b0160005b81811061141a575090916001600160a01b0316905060005b82519081518110156113595761128c81600193612290565b5151836000526004602052604060002090600052602052604060002082600052602052604060002060ff6009604051926112c58461214d565b858060a01b0381541684528581015460208501526002810154604085015260038101546060850152826004820154166112fd81611f65565b6080850152600581015460a0850152600681015460c0850152600781015460e0850152600881015461010085015201541661133781611f85565b6101208201526113478287612290565b526113528186612290565b5001611274565b8460405180916020820160208352815180915260206040840192019060005b818110611386575050500390f35b9193509160206101406001926101208751858060a01b0381511683528481015185840152604081015160408401526060810151606084015260808101516113cc81611f65565b608084015260a081015160a084015260c081015160c084015260e081015160e0840152610100810151610100840152015161140681611f85565b610120820152019401910191849392611378565b6020906040516114298161214d565b60008152600083820152600060408201526000606082015260006080820152600060a0820152600060c0820152600060e0820152600061010082015260006101208201528282880101520161125c565b3461018f57600036600319011261018f576114926125f1565b600180546001600160a01b031981169091556000906001600160a01b03167f8be0079c531659141344cd1fd0a4f28419497f9722a3daafe3b4186f6b6457e08280a3005b606036600319011261018f576024356044356004356114f36125cf565b80600052600360205261150960406000206124a9565b9160a08301518110611865576040830192600092839260e083019260c081019190855b89895180518a10156116ca578961154291612290565b515186600052600260205260406000208160005260205260646115778161156f604060002054958661257d565b04933461257d565b0490865161158481611f85565b89516040516001600160a01b039091169360e08201928284106001600160401b0385111761069d5760409560e49487523384526020840195865286840197885260608401918b8352608085016001815260a08601916115e281611f85565b825260c086019283526009548951632607b53960e01b815296516001600160a01b03908116600489015298516024880152995160448701529251606486015291519397889687959116929061163681611f85565b60848601525161164581611f85565b60a4850152516001600160a01b031660c48401525af19182156108a457600091829361168c575b509061167d60019361168393612590565b98612590565b9701969561152c565b9250906040833d82116116c2575b816116a7604093836121a1565b8101031261089157508151602090920151919061167d61166c565b3d915061169a565b5095879495919380800460011481151715610a60576118326009602096611855957f6f85d9948d6ca3dd6ce6ce7d175da22b4e865827ae6fcd530ec7edac1240f9289a610d339a61171b8742612590565b91519761172789611f85565b516040516001600160a01b0390911697909461174286612131565b3386528c860192835260408601908582526060870190815260808701916000835260a0880193845260c088019442865260e08901968752610100890197600089526101208a019d8e61179382611f85565b526101408a019c8d5233600090815260056020908152604080832093835292905220985189546001600160a01b0319166001600160a01b03919091161789555160018901555160028801555160038701555160048601906117f381611f65565b6117fc81611f65565b60ff8019835416911617905551600585015551600684015551600783015551600882015501925161182c81611f85565b8361259d565b518154610100600160a81b03191660089190911b610100600160a81b0316179055565b01516040519182913395836125b5565b60405162461bcd60e51b815260206004820152602f60248201527f506572696f642063616e6e6f74206265206c657373207468616e20746865207660448201526e185d5b1d081b5a5b881c195c9a5bd9608a1b6064820152608490fd5b3461018f57602036600319011261018f5760043560005260036020526110c76118f16002604060002001612382565b604051918291602083526020830190611f8f565b3461018f57600036600319011261018f57600d546040516001600160a01b039091168152602090f35b3461018f57600036600319011261018f576007546040516001600160a01b039091168152602090f35b3461018f57604036600319011261018f57611970611ef1565b600061014060405161198181612131565b8281528260208201528260408201528260608201528260808201528260a08201528260c08201528260e08201528261010082015282610120820152015260018060a01b0316600052600560205260406000206004356000526020526101606040600020604051906119f182612131565b80546001600160a01b031682526001810154602083019081526002820154604084019081526003830154606085019081526004840154919391608086019060ff16611a3b81611f65565b8152600583015460a0870190815260068401549160c0880192835260078501549360e0890194855260096008870154966101008b0197885201549760ff8916976101208b0198611a8a81611f85565b895260089990991c6001600160a01b039081166101408c01908152604080519c519092168c52995160208c01529051908a015251606089015251611acd81611f65565b60808801525160a08701525160c08601525160e08501525161010084015251611af581611f85565b610120830152516001600160a01b0316610140820152f35b3461018f57602036600319011261018f57611b26611f07565b611b2e6125f1565b6001600160a01b0316611b42811515612525565b6bffffffffffffffffffffffff60a01b600d541617600d55600080f35b3461018f57600036600319011261018f57600654611b7c816121dd565b90611b8a60405192836121a1565b808252601f19611b99826121dd565b0160005b818110611c6257505060015b81811115611c1957826040518091602082016020835281518091526040830190602060408260051b8601019301916000905b828210611bea57505050500390f35b91936001919395506020611c098192603f198a820301865288516120b6565b9601920192018594939192611bdb565b80600052600360205260406000206000198201828111610a6057611c3f611c50926124a9565b611c498287612290565b5284612290565b506000198114610a6057600101611ba9565b602090611c6d612251565b82828701015201611b9d565b3461018f57602036600319011261018f57611c92611f07565b611c9a6125f1565b600c54906001600160a01b038216611d1d576001600160a01b0316908115611cd857600980546001600160a01b031990811684179091551617600c55005b60405162461bcd60e51b815260206004820152601b60248201527f506f6f6c20616464726573732063616e6e6f74206265207a65726f00000000006044820152606490fd5b60405162461bcd60e51b815260206004820152601060248201526f141bdbdb08185b1c9958591e481cd95d60821b6044820152606490fd5b3461018f57602036600319011261018f5760043560115481101561018f5760116000527f31ecc21a745e3968a04e9570e4425bc18fa8019c68028196b546d1669c200c6801546040516001600160a01b039091168152602090f35b3461018f57600036600319011261018f57600b546040516001600160a01b039091168152602090f35b3461018f57600036600319011261018f576010546040516001600160a01b039091168152602090f35b3461018f57600036600319011261018f57600f546040516001600160a01b039091168152602090f35b3461018f57604036600319011261018f57611e44611ef1565b611e4c6125cf565b600d546001600160a01b031633148015611edd575b15611e985760018060a01b031660005260056020526040600020600435600052602052600060016040822001556001600055600080f35b60405162461bcd60e51b815260206004820152601f60248201527f43616c6c6572206973206e6f742074686520706f6f6c2063616e6973746572006044820152606490fd5b506010546001600160a01b03163314611e61565b602435906001600160a01b038216820361018f57565b600435906001600160a01b038216820361018f57565b60005b838110611f305750506000910152565b8181015183820152602001611f20565b90602091611f5981518092818552858086019101611f1d565b601f01601f1916010190565b60031115611f6f57565b634e487b7160e01b600052602160045260246000fd5b60021115611f6f57565b9080602083519182815201916020808360051b8301019401926000915b838310611fbb57505050505090565b9091929394602080600192601f19858203018652885190815181526101e080611ff38585015161020087860152610200850190611f40565b93604081015161200281611f65565b6040850152606081015160608501526080810151608085015260a081015160a085015260c081015160c085015260e081015160e0850152610100810151610100850152610120810151610120850152610140810151151561014085015261016081015161016085015261018081015161018085015260ff6101a0820151166101a0850152878060a01b036101c0820151166101c08501520151916120a583611f85565b015297019301930191939290611fac565b908151815260e06120ed6120db60208501516101006020860152610100850190611f40565b60408501518482036040860152611f8f565b92606081015160608401526080810151608084015260a081015160a084015260c081015161211a81611f85565b60c08401528101516001600160a01b031691015290565b61016081019081106001600160401b0382111761069d57604052565b61014081019081106001600160401b0382111761069d57604052565b61020081019081106001600160401b0382111761069d57604052565b61010081019081106001600160401b0382111761069d57604052565b90601f801991011681019081106001600160401b0382111761069d57604052565b6001600160401b03811161069d57601f01601f191660200190565b6001600160401b03811161069d5760051b60200190565b9080601f8301121561018f57813561220b816121dd565b9261221960405194856121a1565b81845260208085019260051b82010192831161018f57602001905b8282106122415750505090565b8135815260209182019101612234565b6040519061225e82612185565b600060e08382815260606020820152606060408201528260608201528260808201528260a08201528260c08201520152565b80518210156106b35760209160051b010190565b90600182811c921680156122d4575b60208310146122be57565b634e487b7160e01b600052602260045260246000fd5b91607f16916122b3565b90604051918260008254926122f2846122a4565b80845293600181169081156123605750600114612319575b50612317925003836121a1565b565b90506000929192526020600020906000915b818310612344575050906020612317928201013861230a565b602091935080600191548385890101520191019091849261232b565b90506020925061231794915060ff191682840152151560051b8201013861230a565b90815461238e816121dd565b9261239c60405194856121a1565b818452602084019060005260206000206000915b8383106123bd5750505050565b600e60206001926040516123d081612169565b855481526123df8587016122de565b8382015260ff6002870154166123f481611f65565b60408201526003860154606082015260048601546080820152600586015460a0820152600686015460c0820152600786015460e08201526008860154610100820152600986015461012082015260ff600a870154161515610140820152600b860154610160820152600c86015461018082015260ff600d8701548181166101a0840152868060a01b038160081c166101c084015260a81c1661249581611f85565b6101e08201528152019201920191906123b0565b906040516124b681612185565b60e060068294805484526124cc600182016122de565b60208501526124dd60028201612382565b60408501526003810154606085015260048101546080850152600581015460a0850152015460ff811661250f81611f85565b60c084015260081c6001600160a01b0316910152565b1561252c57565b60405162461bcd60e51b8152602060048201526024808201527f506f6f6c2043616e697374657220616464726573732063616e6e6f74206265206044820152637a65726f60e01b6064820152608490fd5b81810292918115918404141715610a6057565b91908201809211610a6057565b906125a781611f85565b60ff80198354169116179055565b6040906125cc939281528160208201520190611f40565b90565b6002600054146125e0576002600055565b633ee5aeb560e01b60005260046000fd5b6001546001600160a01b0316330361260557565b63118cdaa760e01b6000523360045260246000fdfea26469706673582212200e8e0b859425e96ac499ad78657d2a4e839fa72d155e0ed79ec412be1973bdbd64736f6c634300081c0033",
  "linkReferences": {},
  "deployedLinkReferences": {}
}