{
  "_format": "hh-sol-artifact-1",
  "contractName": "Vaults",
  "sourceName": "contracts/Vaults.sol",
  "abi": [
    {
      "inputs": [
        {
          "internalType": "address",
          "name": "_initialOwner",
          "type": "address"
        },
        {
          "internalType": "address",
          "name": "bq",
          "type": "address"
        }
      ],
      "stateMutability": "nonpayable",
      "type": "constructor"
    },
    {
      "inputs": [
        {
          "internalType": "address",
          "name": "owner",
          "type": "address"
        }
      ],
      "name": "OwnableInvalidOwner",
      "type": "error"
    },
    {
      "inputs": [
        {
          "internalType": "address",
          "name": "account",
          "type": "address"
        }
      ],
      "name": "OwnableUnauthorizedAccount",
      "type": "error"
    },
    {
      "inputs": [],
      "name": "ReentrancyGuardReentrantCall",
      "type": "error"
    },
    {
      "anonymous": false,
      "inputs": [
        {
          "indexed": false,
          "internalType": "uint256",
          "name": "",
          "type": "uint256"
        },
        {
          "indexed": false,
          "internalType": "uint256",
          "name": "",
          "type": "uint256"
        },
        {
          "indexed": false,
          "internalType": "address",
          "name": "",
          "type": "address"
        }
      ],
      "name": "ClaimAttempt",
      "type": "event"
    },
    {
      "anonymous": false,
      "inputs": [
        {
          "indexed": true,
          "internalType": "address",
          "name": "recipient",
          "type": "address"
        },
        {
          "indexed": false,
          "internalType": "string",
          "name": "pool",
          "type": "string"
        },
        {
          "indexed": false,
          "internalType": "uint256",
          "name": "amount",
          "type": "uint256"
        }
      ],
      "name": "ClaimPaid",
      "type": "event"
    },
    {
      "anonymous": false,
      "inputs": [
        {
          "indexed": true,
          "internalType": "address",
          "name": "user",
          "type": "address"
        },
        {
          "indexed": false,
          "internalType": "uint256",
          "name": "amount",
          "type": "uint256"
        },
        {
          "indexed": false,
          "internalType": "string",
          "name": "pool",
          "type": "string"
        }
      ],
      "name": "Deposited",
      "type": "event"
    },
    {
      "anonymous": false,
      "inputs": [
        {
          "indexed": true,
          "internalType": "address",
          "name": "previousOwner",
          "type": "address"
        },
        {
          "indexed": true,
          "internalType": "address",
          "name": "newOwner",
          "type": "address"
        }
      ],
      "name": "OwnershipTransferred",
      "type": "event"
    },
    {
      "anonymous": false,
      "inputs": [
        {
          "indexed": true,
          "internalType": "uint256",
          "name": "id",
          "type": "uint256"
        },
        {
          "indexed": false,
          "internalType": "string",
          "name": "poolName",
          "type": "string"
        }
      ],
      "name": "PoolCreated",
      "type": "event"
    },
    {
      "anonymous": false,
      "inputs": [
        {
          "indexed": true,
          "internalType": "uint256",
          "name": "poolId",
          "type": "uint256"
        },
        {
          "indexed": false,
          "internalType": "uint256",
          "name": "apy",
          "type": "uint256"
        },
        {
          "indexed": false,
          "internalType": "uint256",
          "name": "_minPeriod",
          "type": "uint256"
        }
      ],
      "name": "PoolUpdated",
      "type": "event"
    },
    {
      "anonymous": false,
      "inputs": [
        {
          "indexed": true,
          "internalType": "address",
          "name": "user",
          "type": "address"
        },
        {
          "indexed": false,
          "internalType": "uint256",
          "name": "amount",
          "type": "uint256"
        },
        {
          "indexed": false,
          "internalType": "string",
          "name": "pool",
          "type": "string"
        }
      ],
      "name": "Withdraw",
      "type": "event"
    },
    {
      "inputs": [],
      "name": "ICoverContract",
      "outputs": [
        {
          "internalType": "contract ICover",
          "name": "",
          "type": "address"
        }
      ],
      "stateMutability": "view",
      "type": "function"
    },
    {
      "inputs": [],
      "name": "IGovernanceContract",
      "outputs": [
        {
          "internalType": "contract IGov",
          "name": "",
          "type": "address"
        }
      ],
      "stateMutability": "view",
      "type": "function"
    },
    {
      "inputs": [],
      "name": "IPoolContract",
      "outputs": [
        {
          "internalType": "contract IPool",
          "name": "",
          "type": "address"
        }
      ],
      "stateMutability": "view",
      "type": "function"
    },
    {
      "inputs": [],
      "name": "bqBTC",
      "outputs": [
        {
          "internalType": "contract IbqBTC",
          "name": "",
          "type": "address"
        }
      ],
      "stateMutability": "view",
      "type": "function"
    },
    {
      "inputs": [],
      "name": "bqBTCAddress",
      "outputs": [
        {
          "internalType": "address",
          "name": "",
          "type": "address"
        }
      ],
      "stateMutability": "view",
      "type": "function"
    },
    {
      "inputs": [],
      "name": "coverContract",
      "outputs": [
        {
          "internalType": "address",
          "name": "",
          "type": "address"
        }
      ],
      "stateMutability": "view",
      "type": "function"
    },
    {
      "inputs": [
        {
          "internalType": "string",
          "name": "_vaultName",
          "type": "string"
        },
        {
          "internalType": "uint256[]",
          "name": "_poolIds",
          "type": "uint256[]"
        },
        {
          "internalType": "uint256[]",
          "name": "poolPercentageSplit",
          "type": "uint256[]"
        },
        {
          "internalType": "uint256",
          "name": "_minInv",
          "type": "uint256"
        },
        {
          "internalType": "uint256",
          "name": "_maxInv",
          "type": "uint256"
        },
        {
          "internalType": "uint256",
          "name": "_minPeriod",
          "type": "uint256"
        },
        {
          "internalType": "enum CoverLib.AssetDepositType",
          "name": "adt",
          "type": "uint8"
        },
        {
          "internalType": "address",
          "name": "asset",
          "type": "address"
        }
      ],
      "name": "createVault",
      "outputs": [],
      "stateMutability": "nonpayable",
      "type": "function"
    },
    {
      "inputs": [
        {
          "internalType": "uint256",
          "name": "vaultId",
          "type": "uint256"
        },
        {
          "internalType": "address",
          "name": "user",
          "type": "address"
        }
      ],
      "name": "getUserVaultDeposit",
      "outputs": [
        {
          "components": [
            {
              "internalType": "address",
              "name": "lp",
              "type": "address"
            },
            {
              "internalType": "uint256",
              "name": "amount",
              "type": "uint256"
            },
            {
              "internalType": "uint256",
              "name": "vaultId",
              "type": "uint256"
            },
            {
              "internalType": "uint256",
              "name": "dailyPayout",
              "type": "uint256"
            },
            {
              "internalType": "enum CoverLib.Status",
              "name": "status",
              "type": "uint8"
            },
            {
              "internalType": "uint256",
              "name": "daysLeft",
              "type": "uint256"
            },
            {
              "internalType": "uint256",
              "name": "startDate",
              "type": "uint256"
            },
            {
              "internalType": "uint256",
              "name": "expiryDate",
              "type": "uint256"
            },
            {
              "internalType": "uint256",
              "name": "accruedPayout",
              "type": "uint256"
            },
            {
              "internalType": "enum CoverLib.AssetDepositType",
              "name": "assetType",
              "type": "uint8"
            },
            {
              "internalType": "address",
              "name": "asset",
              "type": "address"
            }
          ],
          "internalType": "struct Vaults.VaultDeposit",
          "name": "",
          "type": "tuple"
        }
      ],
      "stateMutability": "view",
      "type": "function"
    },
    {
      "inputs": [
        {
          "internalType": "uint256",
          "name": "vaultId",
          "type": "uint256"
        },
        {
          "internalType": "address",
          "name": "user",
          "type": "address"
        }
      ],
      "name": "getUserVaultPoolDeposits",
      "outputs": [
        {
          "components": [
            {
              "internalType": "address",
              "name": "lp",
              "type": "address"
            },
            {
              "internalType": "uint256",
              "name": "amount",
              "type": "uint256"
            },
            {
              "internalType": "uint256",
              "name": "poolId",
              "type": "uint256"
            },
            {
              "internalType": "uint256",
              "name": "dailyPayout",
              "type": "uint256"
            },
            {
              "internalType": "enum CoverLib.Status",
              "name": "status",
              "type": "uint8"
            },
            {
              "internalType": "uint256",
              "name": "daysLeft",
              "type": "uint256"
            },
            {
              "internalType": "uint256",
              "name": "startDate",
              "type": "uint256"
            },
            {
              "internalType": "uint256",
              "name": "expiryDate",
              "type": "uint256"
            },
            {
              "internalType": "uint256",
              "name": "accruedPayout",
              "type": "uint256"
            }
          ],
          "internalType": "struct Vaults.Deposits[]",
          "name": "",
          "type": "tuple[]"
        }
      ],
      "stateMutability": "view",
      "type": "function"
    },
    {
      "inputs": [
        {
          "internalType": "uint256",
          "name": "vaultId",
          "type": "uint256"
        }
      ],
      "name": "getVault",
      "outputs": [
        {
          "components": [
            {
              "internalType": "uint256",
              "name": "id",
              "type": "uint256"
            },
            {
              "internalType": "string",
              "name": "vaultName",
              "type": "string"
            },
            {
              "components": [
                {
                  "internalType": "uint256",
                  "name": "id",
                  "type": "uint256"
                },
                {
                  "internalType": "string",
                  "name": "poolName",
                  "type": "string"
                },
                {
                  "internalType": "enum CoverLib.RiskType",
                  "name": "riskType",
                  "type": "uint8"
                },
                {
                  "internalType": "uint256",
                  "name": "apy",
                  "type": "uint256"
                },
                {
                  "internalType": "uint256",
                  "name": "minPeriod",
                  "type": "uint256"
                },
                {
                  "internalType": "uint256",
                  "name": "totalUnit",
                  "type": "uint256"
                },
                {
                  "internalType": "uint256",
                  "name": "tvl",
                  "type": "uint256"
                },
                {
                  "internalType": "uint256",
                  "name": "baseValue",
                  "type": "uint256"
                },
                {
                  "internalType": "uint256",
                  "name": "coverUnits",
                  "type": "uint256"
                },
                {
                  "internalType": "uint256",
                  "name": "tcp",
                  "type": "uint256"
                },
                {
                  "internalType": "bool",
                  "name": "isActive",
                  "type": "bool"
                },
                {
                  "internalType": "uint256",
                  "name": "percentageSplitBalance",
                  "type": "uint256"
                },
                {
                  "internalType": "uint256",
                  "name": "investmentArmPercent",
                  "type": "uint256"
                },
                {
                  "internalType": "uint8",
                  "name": "leverage",
                  "type": "uint8"
                },
                {
                  "internalType": "address",
                  "name": "asset",
                  "type": "address"
                },
                {
                  "internalType": "enum CoverLib.AssetDepositType",
                  "name": "assetType",
                  "type": "uint8"
                }
              ],
              "internalType": "struct CoverLib.Pool[]",
              "name": "pools",
              "type": "tuple[]"
            },
            {
              "internalType": "uint256",
              "name": "minInv",
              "type": "uint256"
            },
            {
              "internalType": "uint256",
              "name": "maxInv",
              "type": "uint256"
            },
            {
              "internalType": "uint256",
              "name": "minPeriod",
              "type": "uint256"
            },
            {
              "internalType": "enum CoverLib.AssetDepositType",
              "name": "assetType",
              "type": "uint8"
            },
            {
              "internalType": "address",
              "name": "asset",
              "type": "address"
            }
          ],
          "internalType": "struct Vaults.Vault",
          "name": "",
          "type": "tuple"
        }
      ],
      "stateMutability": "view",
      "type": "function"
    },
    {
      "inputs": [
        {
          "internalType": "uint256",
          "name": "vaultId",
          "type": "uint256"
        }
      ],
      "name": "getVaultPools",
      "outputs": [
        {
          "components": [
            {
              "internalType": "uint256",
              "name": "id",
              "type": "uint256"
            },
            {
              "internalType": "string",
              "name": "poolName",
              "type": "string"
            },
            {
              "internalType": "enum CoverLib.RiskType",
              "name": "riskType",
              "type": "uint8"
            },
            {
              "internalType": "uint256",
              "name": "apy",
              "type": "uint256"
            },
            {
              "internalType": "uint256",
              "name": "minPeriod",
              "type": "uint256"
            },
            {
              "internalType": "uint256",
              "name": "totalUnit",
              "type": "uint256"
            },
            {
              "internalType": "uint256",
              "name": "tvl",
              "type": "uint256"
            },
            {
              "internalType": "uint256",
              "name": "baseValue",
              "type": "uint256"
            },
            {
              "internalType": "uint256",
              "name": "coverUnits",
              "type": "uint256"
            },
            {
              "internalType": "uint256",
              "name": "tcp",
              "type": "uint256"
            },
            {
              "internalType": "bool",
              "name": "isActive",
              "type": "bool"
            },
            {
              "internalType": "uint256",
              "name": "percentageSplitBalance",
              "type": "uint256"
            },
            {
              "internalType": "uint256",
              "name": "investmentArmPercent",
              "type": "uint256"
            },
            {
              "internalType": "uint8",
              "name": "leverage",
              "type": "uint8"
            },
            {
              "internalType": "address",
              "name": "asset",
              "type": "address"
            },
            {
              "internalType": "enum CoverLib.AssetDepositType",
              "name": "assetType",
              "type": "uint8"
            }
          ],
          "internalType": "struct CoverLib.Pool[]",
          "name": "",
          "type": "tuple[]"
        }
      ],
      "stateMutability": "view",
      "type": "function"
    },
    {
      "inputs": [],
      "name": "getVaults",
      "outputs": [
        {
          "components": [
            {
              "internalType": "uint256",
              "name": "id",
              "type": "uint256"
            },
            {
              "internalType": "string",
              "name": "vaultName",
              "type": "string"
            },
            {
              "components": [
                {
                  "internalType": "uint256",
                  "name": "id",
                  "type": "uint256"
                },
                {
                  "internalType": "string",
                  "name": "poolName",
                  "type": "string"
                },
                {
                  "internalType": "enum CoverLib.RiskType",
                  "name": "riskType",
                  "type": "uint8"
                },
                {
                  "internalType": "uint256",
                  "name": "apy",
                  "type": "uint256"
                },
                {
                  "internalType": "uint256",
                  "name": "minPeriod",
                  "type": "uint256"
                },
                {
                  "internalType": "uint256",
                  "name": "totalUnit",
                  "type": "uint256"
                },
                {
                  "internalType": "uint256",
                  "name": "tvl",
                  "type": "uint256"
                },
                {
                  "internalType": "uint256",
                  "name": "baseValue",
                  "type": "uint256"
                },
                {
                  "internalType": "uint256",
                  "name": "coverUnits",
                  "type": "uint256"
                },
                {
                  "internalType": "uint256",
                  "name": "tcp",
                  "type": "uint256"
                },
                {
                  "internalType": "bool",
                  "name": "isActive",
                  "type": "bool"
                },
                {
                  "internalType": "uint256",
                  "name": "percentageSplitBalance",
                  "type": "uint256"
                },
                {
                  "internalType": "uint256",
                  "name": "investmentArmPercent",
                  "type": "uint256"
                },
                {
                  "internalType": "uint8",
                  "name": "leverage",
                  "type": "uint8"
                },
                {
                  "internalType": "address",
                  "name": "asset",
                  "type": "address"
                },
                {
                  "internalType": "enum CoverLib.AssetDepositType",
                  "name": "assetType",
                  "type": "uint8"
                }
              ],
              "internalType": "struct CoverLib.Pool[]",
              "name": "pools",
              "type": "tuple[]"
            },
            {
              "internalType": "uint256",
              "name": "minInv",
              "type": "uint256"
            },
            {
              "internalType": "uint256",
              "name": "maxInv",
              "type": "uint256"
            },
            {
              "internalType": "uint256",
              "name": "minPeriod",
              "type": "uint256"
            },
            {
              "internalType": "enum CoverLib.AssetDepositType",
              "name": "assetType",
              "type": "uint8"
            },
            {
              "internalType": "address",
              "name": "asset",
              "type": "address"
            }
          ],
          "internalType": "struct Vaults.Vault[]",
          "name": "",
          "type": "tuple[]"
        }
      ],
      "stateMutability": "view",
      "type": "function"
    },
    {
      "inputs": [],
      "name": "governance",
      "outputs": [
        {
          "internalType": "address",
          "name": "",
          "type": "address"
        }
      ],
      "stateMutability": "view",
      "type": "function"
    },
    {
      "inputs": [],
      "name": "initialOwner",
      "outputs": [
        {
          "internalType": "address",
          "name": "",
          "type": "address"
        }
      ],
      "stateMutability": "view",
      "type": "function"
    },
    {
      "inputs": [
        {
          "internalType": "uint256",
          "name": "_vaultId",
          "type": "uint256"
        }
      ],
      "name": "initialVaultWithdraw",
      "outputs": [],
      "stateMutability": "nonpayable",
      "type": "function"
    },
    {
      "inputs": [],
      "name": "owner",
      "outputs": [
        {
          "internalType": "address",
          "name": "",
          "type": "address"
        }
      ],
      "stateMutability": "view",
      "type": "function"
    },
    {
      "inputs": [
        {
          "internalType": "uint256",
          "name": "",
          "type": "uint256"
        }
      ],
      "name": "participants",
      "outputs": [
        {
          "internalType": "address",
          "name": "",
          "type": "address"
        }
      ],
      "stateMutability": "view",
      "type": "function"
    },
    {
      "inputs": [
        {
          "internalType": "address",
          "name": "",
          "type": "address"
        }
      ],
      "name": "participation",
      "outputs": [
        {
          "internalType": "uint256",
          "name": "",
          "type": "uint256"
        }
      ],
      "stateMutability": "view",
      "type": "function"
    },
    {
      "inputs": [],
      "name": "poolCanister",
      "outputs": [
        {
          "internalType": "address",
          "name": "",
          "type": "address"
        }
      ],
      "stateMutability": "view",
      "type": "function"
    },
    {
      "inputs": [],
      "name": "poolContract",
      "outputs": [
        {
          "internalType": "address",
          "name": "",
          "type": "address"
        }
      ],
      "stateMutability": "view",
      "type": "function"
    },
    {
      "inputs": [],
      "name": "renounceOwnership",
      "outputs": [],
      "stateMutability": "nonpayable",
      "type": "function"
    },
    {
      "inputs": [
        {
          "internalType": "address",
          "name": "_coverContract",
          "type": "address"
        }
      ],
      "name": "setCover",
      "outputs": [],
      "stateMutability": "nonpayable",
      "type": "function"
    },
    {
      "inputs": [
        {
          "internalType": "address",
          "name": "_governance",
          "type": "address"
        }
      ],
      "name": "setGovernance",
      "outputs": [],
      "stateMutability": "nonpayable",
      "type": "function"
    },
    {
      "inputs": [
        {
          "internalType": "address",
          "name": "_poolcontract",
          "type": "address"
        }
      ],
      "name": "setPool",
      "outputs": [],
      "stateMutability": "nonpayable",
      "type": "function"
    },
    {
      "inputs": [
        {
          "internalType": "address",
          "name": "_poolcanister",
          "type": "address"
        }
      ],
      "name": "setPoolCanister",
      "outputs": [],
      "stateMutability": "nonpayable",
      "type": "function"
    },
    {
      "inputs": [
        {
          "internalType": "uint256",
          "name": "vaultId",
          "type": "uint256"
        },
        {
          "internalType": "address",
          "name": "user",
          "type": "address"
        }
      ],
      "name": "setUserVaultDepositToZero",
      "outputs": [],
      "stateMutability": "nonpayable",
      "type": "function"
    },
    {
      "inputs": [
        {
          "internalType": "address",
          "name": "newOwner",
          "type": "address"
        }
      ],
      "name": "transferOwnership",
      "outputs": [],
      "stateMutability": "nonpayable",
      "type": "function"
    },
    {
      "inputs": [],
      "name": "vaultCount",
      "outputs": [
        {
          "internalType": "uint256",
          "name": "",
          "type": "uint256"
        }
      ],
      "stateMutability": "view",
      "type": "function"
    },
    {
      "inputs": [
        {
          "internalType": "uint256",
          "name": "_vaultId",
          "type": "uint256"
        },
        {
          "internalType": "uint256",
          "name": "_amount",
          "type": "uint256"
        },
        {
          "internalType": "uint256",
          "name": "_period",
          "type": "uint256"
        }
      ],
      "name": "vaultDeposit",
      "outputs": [],
      "stateMutability": "payable",
      "type": "function"
    }
  ],
  "bytecode": "0x60803461010d57601f6126f138819003918201601f19168301916001600160401b0383118484101761011257808492604094855283398101031261010d57610052602061004b83610128565b9201610128565b60016000556001600160a01b039091169081156100f757600180546001600160a01b031981168417909155604051929081906001600160a01b03167f8be0079c531659141344cd1fd0a4f28419497f9722a3daafe3b4186f6b6457e0600080a3601080546001600160a01b0319908116929092179055600b805482166001600160a01b03939093169283179055600e805490911690911790556125b4908161013d8239f35b631e4fbdf760e01b600052600060045260246000fd5b600080fd5b634e487b7160e01b600052604160045260246000fd5b51906001600160a01b038216820361010d5756fe6080604052600436101561001257600080fd5b60003560e01c80631f8be73c14611de7578063248a75b714611dbe57806329ba7bb214611d9557806334808ec314611d6c57806335c1d34914611d115780634437152a14611c3557806344d00f8214611b1b57806357656486146119655780635aa6e6751461193c5780635f267c551461191357806360ebd718146118d0578063626cc0a9146114e4578063715018a61461148757806372bafbde1461123b5780637c366cc61461115e57806388d52ef7146111355780638da5cb5b1461110c5780639403b634146110bf57806396f3a8ad14611085578063996b8a6f1461105c578063a69ddee614610f73578063a7c6a10014610f55578063ab033ea914610e66578063b30703cd14610e3d578063b5d90c2814610e14578063d000626514610b95578063f2fde38b14610b0b578063f339624b146101895763f6e805581461015b57600080fd5b34610184576000366003190112610184576008546040516001600160a01b039091168152602090f35b600080fd5b3461018457610100366003190112610184576004356001600160401b03811161018457366023820112156101845780600401356101c58161217e565b916101d3604051938461215d565b8183523660248383010111610184578160009260246020930183860137830101526024356001600160401b038111610184576102139036906004016121b0565b6044356001600160401b038111610184576102329036906004016121b0565b9060a4359260c4359360028510156101845760e4356001600160a01b03811680820361018457610260612555565b8451865103610aba5761027287611f41565b8615908115610ab0575b5015610a6b576006549260018401809411610a555783600655836000526003602052604060002093845560018401908051906001600160401b038211610692576102c68354612260565b601f8111610a0d575b50602090601f831160011461099e576103499493929160009183610993575b50508160011b916000199060031b1c19161790559491945b60643560038501556084356004850155600684016103248882612501565b8054610100600160a81b03191660089290921b610100600160a81b0316919091179055565b60009161016d9360009260028301935b82518110156108a5576009546001600160a01b031695600061037b838661224c565b516024604051809a819363068bcd8d60e01b835260048301525afa96871561089957600097610703575b506101e08701908a82516103b881611f41565b6103c182611f41565b6103ca81611f41565b036106be576103e4906103dd848661224c565b51906124f4565b966103ef838561224c565b51865460005260026020526040600020610409858861224c565b5160005260205260406000205586546801000000000000000081101561069257600181018089558110156106a85787600052600e602060002091020191815183556001830160208301518051906001600160401b0382116106925781906104708454612260565b601f811161063f575b50602090601f83116001146105da576000926105cf575b50508160011b916000199060031b1c19161790555b6002830160408301516104b781611f21565b6104c081611f21565b815460ff91821660ff199182161790925560608401516003860155608084018051600487015560a0850151600587015560c0850151600687015560e085015160078701556101008501516008808801919091556101208601516009880155610140860151600a8801805491151585169190951617909355610160850151600b870155610180850151600c8701556101a0850151600d90960180546101c0909601516001600160a81b031990961696909216959095179390911b610100600160a81b03169290921782555161059381611f41565b61059c81611f41565b815460ff60a81b191660a89190911b60ff60a81b16179055518781106105c6575b50600101610359565b965060016105bd565b015190508f80610490565b60008581528281209350601f198516905b818110610627575090846001959493921061060e575b505050811b0190556104a5565b015160001960f88460031b161c191690558f8080610601565b929360206001819287860151815501950193016105eb565b909150836000526020600020601f840160051c81019160208510610688575b90601f859493920160051c01905b8181106106795750610479565b6000815584935060010161066c565b909150819061065e565b634e487b7160e01b600052604160045260246000fd5b634e487b7160e01b600052603260045260246000fd5b60405162461bcd60e51b815260206004820152601f60248201527f496e636f6d70617469626c65206173736574207479706520696e20706f6f6c006044820152606490fd5b90963d8082843e610714818461215d565b820191602081840312610895578051906001600160401b038211610889570161020081840312610895576040519261074b84612125565b8151845260208201516001600160401b03811161089157820181601f820112156108915780519061077b8261217e565b92610789604051948561215d565b8284526020838301011161088d57906107a89160208085019101611ed9565b602084015260408101516003811015610889576040840152606081015160608401526080810151608084015260a081015160a084015260c081015160c084015260e081015160e08401526101008101516101008401526101208101516101208401526101408101518015158103610889576101408401526101608101516101608401526101808101516101808401526101a081015160ff81168103610889576101a08401526101c08101516001600160a01b0381168103610889576101c08401526101e0015190600282101561088657506101e0820152958a6103a5565b80fd5b8280fd5b8480fd5b8380fd5b5080fd5b6040513d6000823e3d90fd5b8386898981106109025760056064930155036108bd57005b60405162461bcd60e51b815260206004820152601b60248201527f546f74616c2073706c6974206d75737420657175616c203130302500000000006044820152606490fd5b60405162461bcd60e51b815260206004820152606060248201527f4d696e696d756e20706572696f64206d7573742062652067726561746572207460448201527f68616e206f7220657175616c20746f20746865206d696e696d756d207065726960648201527f6f64206f6620616c6c20706f6f6c732077697468696e20746865207661756c74608482015260a490fd5b015190508a806102ee565b90601f1983169184600052816000209260005b8181106109f5575091600193918561034998979694106109dc575b505050811b019055949194610306565b015160001960f88460031b161c191690558a80806109cc565b929360206001819287860151815501950193016109b1565b836000526020600020601f840160051c81019160208510610a4b575b601f0160051c01905b818110610a3f57506102cf565b60008155600101610a32565b9091508190610a29565b634e487b7160e01b600052601160045260246000fd5b60405162461bcd60e51b815260206004820152601e60248201527f496e76616c696420617373657420666f72206465706f736974207479706500006044820152606490fd5b905015158761027c565b60405162461bcd60e51b815260206004820152602360248201527f4d69736d61746368656420706f6f6c2049447320616e642070657263656e746160448201526267657360e81b6064820152608490fd5b3461018457602036600319011261018457610b24611ec3565b610b2c612555565b6001600160a01b03168015610b7f57600180546001600160a01b0319811683179091556001600160a01b03167f8be0079c531659141344cd1fd0a4f28419497f9722a3daafe3b4186f6b6457e0600080a3005b631e4fbdf760e01b600052600060045260246000fd5b3461018457602036600319011261018457600435610bb1612533565b33600052600560205260406000208160005260205260406000206001810191825415610dc557600482019160ff835416610bea81611f21565b610d8857600701544210610d43576000526003602052610c0d6040600020612465565b604081019260005b84518051821015610c955781610c2a9161224c565b51516009546001600160a01b03169190823b15610184576000926064849260405195869384926383bc635760e01b84523360048501526024840152600160448401525af191821561089957600192610c84575b5001610c15565b6000610c8f9161215d565b86610c7d565b5050825460ff19166001178355600b5481546001600160a01b039190911690813b1561018457600091604483926040519485938492632770a7eb60e21b845233600485015260248401525af18015610899577f485f1bb6524c663555797e00171a10f341656e59b02d6b557a0a38ba7d5d975192610d2892602092610d32575b5054930151604051918291339583612519565b0390a26001600055005b6000610d3d9161215d565b85610d15565b60405162461bcd60e51b815260206004820152601c60248201527f4465706f73697420706572696f6420686173206e6f7420656e646564000000006044820152606490fd5b60405162461bcd60e51b81526020600482015260156024820152744465706f736974206973206e6f742061637469766560581b6044820152606490fd5b60405162461bcd60e51b815260206004820152602160248201527f4e6f206465706f73697420666f756e6420666f722074686973206164647265736044820152607360f81b6064820152608490fd5b3461018457600036600319011261018457600a546040516001600160a01b039091168152602090f35b34610184576000366003190112610184576009546040516001600160a01b039091168152602090f35b3461018457602036600319011261018457610e7f611ec3565b610e87612555565b600754906001600160a01b038216610f17576001600160a01b0316908115610ec8576001600160a01b03199081168217600755600a80549091169091179055005b60405162461bcd60e51b815260206004820152602160248201527f476f7665726e616e636520616464726573732063616e6e6f74206265207a65726044820152606f60f81b6064820152608490fd5b60405162461bcd60e51b815260206004820152601660248201527511dbdd995c9b985b98d948185b1c9958591e481cd95d60521b6044820152606490fd5b34610184576000366003190112610184576020600654604051908152f35b3461018457602036600319011261018457610f8c611ec3565b610f94612555565b600d54906001600160a01b038216611017576001600160a01b0316908115610fc6576001600160a01b03191617600d55005b60405162461bcd60e51b8152602060048201526024808201527f506f6f6c2043616e697374657220616464726573732063616e6e6f74206265206044820152637a65726f60e01b6064820152608490fd5b60405162461bcd60e51b815260206004820152601960248201527f506f6f6c2043616e697374657220616c726561647920736574000000000000006044820152606490fd5b3461018457600036600319011261018457600e546040516001600160a01b039091168152602090f35b34610184576020366003190112610184576001600160a01b036110a6611ec3565b1660005260126020526020604060002054604051908152f35b34610184576020366003190112610184576110d861220d565b5060043560005260036020526111086110f46040600020612465565b604051918291602083526020830190612072565b0390f35b34610184576000366003190112610184576001546040516001600160a01b039091168152602090f35b3461018457600036600319011261018457600c546040516001600160a01b039091168152602090f35b3461018457602036600319011261018457611177611ec3565b61117f612555565b600f54906001600160a01b038216611202576001600160a01b03169081156111bd57600880546001600160a01b031990811684179091551617600f55005b60405162461bcd60e51b815260206004820152601c60248201527f436f76657220616464726573732063616e6e6f74206265207a65726f000000006044820152606490fd5b60405162461bcd60e51b815260206004820152601160248201527010dbdd995c88185b1c9958591e481cd95d607a1b6044820152606490fd5b3461018457604036600319011261018457611254611ead565b6004356000526003602052604061126d81600020612465565b01908151519161127c83612199565b9261128a604051948561215d565b808452611299601f1991612199565b0160005b818110611430575090916001600160a01b0316905060005b8251908151811015611384576112cd8160019361224c565b5151836000526004602052604060002090600052602052604060002082600052602052604060002060086040519161130483612109565b848060a01b038154168352848101546020840152600281015460408401526003810154606084015260ff60048201541661133d81611f21565b6080840152600581015460a0840152600681015460c0840152600781015460e08401520154610100820152611372828761224c565b5261137d818661224c565b50016112b5565b8460405180916020820160208352815180915260206040840192019060005b8181106113b1575050500390f35b9193509160206101206001926101008751858060a01b0381511683528481015185840152604081015160408401526060810151606084015260808101516113f781611f21565b608084015260a081015160a084015260c081015160c084015260e081015160e084015201516101008201520194019101918493926113a3565b60209060405161143f81612109565b60008152600083820152600060408201526000606082015260006080820152600060a0820152600060c0820152600060e082015260006101008201528282880101520161129d565b34610184576000366003190112610184576114a0612555565b600180546001600160a01b031981169091556000906001600160a01b03167f8be0079c531659141344cd1fd0a4f28419497f9722a3daafe3b4186f6b6457e08280a3005b606036600319011261018457602435604435600435611501612533565b8060005260036020526115176040600020612465565b9160a08301518110611873576040830192600092839260e083019260c081019190855b89895180518a10156116d857896115509161224c565b515186600052600260205260406000208160005260205260646115858161157d60406000205495866124e1565b0493346124e1565b0490865161159281611f41565b89516040516001600160a01b039091169360e08201928284106001600160401b038511176106925760409560e49487523384526020840195865286840197885260608401918b8352608085016001815260a08601916115f081611f41565b825260c086019283526009548951632607b53960e01b815296516001600160a01b03908116600489015298516024880152995160448701529251606486015291519397889687959116929061164481611f41565b60848601525161165381611f41565b60a4850152516001600160a01b031660c48401525af191821561089957600091829361169a575b509061168b600193611691936124f4565b986124f4565b9701969561153a565b9250906040833d82116116d0575b816116b56040938361215d565b8101031261088657508151602090920151919061168b61167a565b3d91506116a8565b5095879495919380800460011481151715610a55576118406009602096611863957f6f85d9948d6ca3dd6ce6ce7d175da22b4e865827ae6fcd530ec7edac1240f9289a610d289a61172987426124f4565b91519761173589611f41565b516040516001600160a01b03909116979094611750866120ed565b3386528c860192835260408601908582526060870190815260808701916000835260a0880193845260c088019442865260e08901968752610100890197600089526101208a019d8e6117a182611f41565b526101408a019c8d5233600090815260056020908152604080832093835292905220985189546001600160a01b0319166001600160a01b039190911617895551600189015551600288015551600387015551600486019061180181611f21565b61180a81611f21565b60ff8019835416911617905551600585015551600684015551600783015551600882015501925161183a81611f41565b83612501565b518154610100600160a81b03191660089190911b610100600160a81b0316179055565b0151604051918291339583612519565b60405162461bcd60e51b815260206004820152602f60248201527f506572696f642063616e6e6f74206265206c657373207468616e20746865207660448201526e185d5b1d081b5a5b881c195c9a5bd9608a1b6064820152608490fd5b346101845760203660031901126101845760043560005260036020526111086118ff600260406000200161233e565b604051918291602083526020830190611f4b565b3461018457600036600319011261018457600d546040516001600160a01b039091168152602090f35b34610184576000366003190112610184576007546040516001600160a01b039091168152602090f35b346101845760403660031901126101845761197e611ead565b600061014060405161198f816120ed565b8281528260208201528260408201528260608201528260808201528260a08201528260c08201528260e08201528261010082015282610120820152015260018060a01b0316600052600560205260406000206004356000526020526101606040600020604051906119ff826120ed565b80546001600160a01b031682526001810154602083019081526002820154604084019081526003830154606085019081526004840154919391608086019060ff16611a4981611f21565b8152600583015460a0870190815260068401549160c0880192835260078501549360e0890194855260096008870154966101008b0197885201549760ff8916976101208b0198611a9881611f41565b895260089990991c6001600160a01b039081166101408c01908152604080519c519092168c52995160208c01529051908a015251606089015251611adb81611f21565b60808801525160a08701525160c08601525160e08501525161010084015251611b0381611f41565b610120830152516001600160a01b0316610140820152f35b3461018457600036600319011261018457600654611b3881612199565b90611b46604051928361215d565b808252601f19611b5582612199565b0160005b818110611c1e57505060015b81811115611bd557826040518091602082016020835281518091526040830190602060408260051b8601019301916000905b828210611ba657505050500390f35b91936001919395506020611bc58192603f198a82030186528851612072565b9601920192018594939192611b97565b80600052600360205260406000206000198201828111610a5557611bfb611c0c92612465565b611c05828761224c565b528461224c565b506000198114610a5557600101611b65565b602090611c2961220d565b82828701015201611b59565b3461018457602036600319011261018457611c4e611ec3565b611c56612555565b600c54906001600160a01b038216611cd9576001600160a01b0316908115611c9457600980546001600160a01b031990811684179091551617600c55005b60405162461bcd60e51b815260206004820152601b60248201527f506f6f6c20616464726573732063616e6e6f74206265207a65726f00000000006044820152606490fd5b60405162461bcd60e51b815260206004820152601060248201526f141bdbdb08185b1c9958591e481cd95d60821b6044820152606490fd5b34610184576020366003190112610184576004356011548110156101845760116000527f31ecc21a745e3968a04e9570e4425bc18fa8019c68028196b546d1669c200c6801546040516001600160a01b039091168152602090f35b3461018457600036600319011261018457600b546040516001600160a01b039091168152602090f35b34610184576000366003190112610184576010546040516001600160a01b039091168152602090f35b3461018457600036600319011261018457600f546040516001600160a01b039091168152602090f35b3461018457604036600319011261018457611e00611ead565b611e08612533565b600d546001600160a01b031633148015611e99575b15611e545760018060a01b031660005260056020526040600020600435600052602052600060016040822001556001600055600080f35b60405162461bcd60e51b815260206004820152601f60248201527f43616c6c6572206973206e6f742074686520706f6f6c2063616e6973746572006044820152606490fd5b506010546001600160a01b03163314611e1d565b602435906001600160a01b038216820361018457565b600435906001600160a01b038216820361018457565b60005b838110611eec5750506000910152565b8181015183820152602001611edc565b90602091611f1581518092818552858086019101611ed9565b601f01601f1916010190565b60031115611f2b57565b634e487b7160e01b600052602160045260246000fd5b60021115611f2b57565b9080602083519182815201916020808360051b8301019401926000915b838310611f7757505050505090565b9091929394602080600192601f19858203018652885190815181526101e080611faf8585015161020087860152610200850190611efc565b936040810151611fbe81611f21565b6040850152606081015160608501526080810151608085015260a081015160a085015260c081015160c085015260e081015160e0850152610100810151610100850152610120810151610120850152610140810151151561014085015261016081015161016085015261018081015161018085015260ff6101a0820151166101a0850152878060a01b036101c0820151166101c085015201519161206183611f41565b015297019301930191939290611f68565b908151815260e06120a961209760208501516101006020860152610100850190611efc565b60408501518482036040860152611f4b565b92606081015160608401526080810151608084015260a081015160a084015260c08101516120d681611f41565b60c08401528101516001600160a01b031691015290565b61016081019081106001600160401b0382111761069257604052565b61012081019081106001600160401b0382111761069257604052565b61020081019081106001600160401b0382111761069257604052565b61010081019081106001600160401b0382111761069257604052565b90601f801991011681019081106001600160401b0382111761069257604052565b6001600160401b03811161069257601f01601f191660200190565b6001600160401b0381116106925760051b60200190565b9080601f830112156101845781356121c781612199565b926121d5604051948561215d565b81845260208085019260051b82010192831161018457602001905b8282106121fd5750505090565b81358152602091820191016121f0565b6040519061221a82612141565b600060e08382815260606020820152606060408201528260608201528260808201528260a08201528260c08201520152565b80518210156106a85760209160051b010190565b90600182811c92168015612290575b602083101461227a57565b634e487b7160e01b600052602260045260246000fd5b91607f169161226f565b90604051918260008254926122ae84612260565b808452936001811690811561231c57506001146122d5575b506122d39250038361215d565b565b90506000929192526020600020906000915b8183106123005750509060206122d392820101386122c6565b60209193508060019154838589010152019101909184926122e7565b9050602092506122d394915060ff191682840152151560051b820101386122c6565b90815461234a81612199565b92612358604051948561215d565b818452602084019060005260206000206000915b8383106123795750505050565b600e602060019260405161238c81612125565b8554815261239b85870161229a565b8382015260ff6002870154166123b081611f21565b60408201526003860154606082015260048601546080820152600586015460a0820152600686015460c0820152600786015460e08201526008860154610100820152600986015461012082015260ff600a870154161515610140820152600b860154610160820152600c86015461018082015260ff600d8701548181166101a0840152868060a01b038160081c166101c084015260a81c1661245181611f41565b6101e082015281520192019201919061236c565b9060405161247281612141565b60e060068294805484526124886001820161229a565b60208501526124996002820161233e565b60408501526003810154606085015260048101546080850152600581015460a0850152015460ff81166124cb81611f41565b60c084015260081c6001600160a01b0316910152565b81810292918115918404141715610a5557565b91908201809211610a5557565b9061250b81611f41565b60ff80198354169116179055565b604090612530939281528160208201520190611efc565b90565b600260005414612544576002600055565b633ee5aeb560e01b60005260046000fd5b6001546001600160a01b0316330361256957565b63118cdaa760e01b6000523360045260246000fdfea2646970667358221220eda86230c6590c97431c2e110f3187fe1572b5881513cd03ac6d863c8c94b50864736f6c634300081c0033",
  "linkReferences": {},
  "deployedLinkReferences": {}
}